{
  "_format": "hh-sol-artifact-1",
  "contractName": "LinerCurve",
  "sourceName": "contracts/bonding-curves/LinearCurve.sol",
  "abi": [
    {
      "inputs": [
        {
          "internalType": "uint128",
          "name": "spotPrice",
          "type": "uint128"
        },
        {
          "internalType": "uint128",
          "name": "delta",
          "type": "uint128"
        },
        {
          "internalType": "uint256",
          "name": "divergence",
          "type": "uint256"
        },
        {
          "internalType": "uint256",
          "name": "numItems",
          "type": "uint256"
        }
      ],
      "name": "getBuyFeeInfo",
      "outputs": [
        {
          "internalType": "enum CurveErrorCodes.Error",
          "name": "error",
          "type": "uint8"
        },
        {
          "internalType": "uint256",
          "name": "totalFee",
          "type": "uint256"
        }
      ],
      "stateMutability": "pure",
      "type": "function"
    },
    {
      "inputs": [
        {
          "internalType": "uint128",
          "name": "spotPrice",
          "type": "uint128"
        },
        {
          "internalType": "uint128",
          "name": "delta",
          "type": "uint128"
        },
        {
          "internalType": "uint256",
          "name": "divergence",
          "type": "uint256"
        },
        {
          "internalType": "uint256",
          "name": "numItems",
          "type": "uint256"
        }
      ],
      "name": "getBuyInfo",
      "outputs": [
        {
          "internalType": "enum CurveErrorCodes.Error",
          "name": "error",
          "type": "uint8"
        },
        {
          "internalType": "uint128",
          "name": "newSpotPrice",
          "type": "uint128"
        },
        {
          "internalType": "uint128",
          "name": "newDelta",
          "type": "uint128"
        },
        {
          "internalType": "uint256",
          "name": "newDivergence",
          "type": "uint256"
        },
        {
          "internalType": "uint256",
          "name": "totalFee",
          "type": "uint256"
        }
      ],
      "stateMutability": "pure",
      "type": "function"
    },
    {
      "inputs": [
        {
          "internalType": "uint128",
          "name": "spotPrice",
          "type": "uint128"
        },
        {
          "internalType": "uint128",
          "name": "delta",
          "type": "uint128"
        },
        {
          "internalType": "uint256",
          "name": "divergence",
          "type": "uint256"
        },
        {
          "internalType": "uint256",
          "name": "numItems",
          "type": "uint256"
        }
      ],
      "name": "getSellFeeInfo",
      "outputs": [
        {
          "internalType": "enum CurveErrorCodes.Error",
          "name": "error",
          "type": "uint8"
        },
        {
          "internalType": "uint256",
          "name": "totalFee",
          "type": "uint256"
        }
      ],
      "stateMutability": "pure",
      "type": "function"
    },
    {
      "inputs": [
        {
          "internalType": "uint128",
          "name": "spotPrice",
          "type": "uint128"
        },
        {
          "internalType": "uint128",
          "name": "delta",
          "type": "uint128"
        },
        {
          "internalType": "uint256",
          "name": "divergence",
          "type": "uint256"
        },
        {
          "internalType": "uint256",
          "name": "numItems",
          "type": "uint256"
        }
      ],
      "name": "getSellInfo",
      "outputs": [
        {
          "internalType": "enum CurveErrorCodes.Error",
          "name": "error",
          "type": "uint8"
        },
        {
          "internalType": "uint128",
          "name": "newSpotPrice",
          "type": "uint128"
        },
        {
          "internalType": "uint128",
          "name": "newDelta",
          "type": "uint128"
        },
        {
          "internalType": "uint256",
          "name": "newDivergence",
          "type": "uint256"
        },
        {
          "internalType": "uint256",
          "name": "totalFee",
          "type": "uint256"
        }
      ],
      "stateMutability": "pure",
      "type": "function"
    }
  ],
  "bytecode": "0x608060405234801561001057600080fd5b50610e0f806100206000396000f3fe608060405234801561001057600080fd5b506004361061004c5760003560e01c80635b645d80146100515780635d9989121461008257806388ec429a146100b6578063c728b364146100e7575b600080fd5b61006b60048036038101906100669190610a0d565b61011b565b604051610079929190610afa565b60405180910390f35b61009c60048036038101906100979190610a0d565b61023a565b6040516100ad959493929190610b32565b60405180910390f35b6100d060048036038101906100cb9190610a0d565b6104e7565b6040516100de929190610afa565b60405180910390f35b61010160048036038101906100fc9190610a0d565b6105fc565b604051610112959493929190610b32565b60405180910390f35b600080610132671b168274da5e6e1560c01b610938565b6101466708385ad7bcd86f9a60c01b610938565b61015a67ed061910e861d1d360c01b610938565b60006002866fffffffffffffffffffffffffffffffff1660018661017e9190610bb4565b866101899190610be8565b6101939190610be8565b61019d9190610c71565b86886101a99190610ca2565b6fffffffffffffffffffffffffffffffff16856101c69190610be8565b6101d09190610bb4565b90506101e6674564cd805c0434d960c01b610938565b61021685670de0b6b3a76400006101fd9190610bb4565b670de0b6b3a76400008361093b9092919063ffffffff16565b915061022c67b823366748cf356460c01b610938565b600092505094509492505050565b6000806000806000610256674189541de765db5360c01b610938565b61026a67a2c1c0dfe393da1360c01b610938565b61027e67bc2ac45d2c40fee460c01b610938565b600086036102d95761029a67418d2669ea06e1d460c01b610938565b6102ae67911d47e3e28b2f5a60c01b610938565b6102c267c9071c402116014b60c01b610938565b6001600080600080945094509450945094506104dc565b6102ed6706592c3f2c3c785e60c01b610938565b61030167492d8c0e2107302860c01b610938565b61031567dcdd0762219f188d60c01b610938565b600086896fffffffffffffffffffffffffffffffff166103359190610be8565b8a6fffffffffffffffffffffffffffffffff166103529190610ce6565b905061036867b92df70548373a9f60c01b610938565b61037c67171d9fc82b73322860c01b610938565b6fffffffffffffffffffffffffffffffff80168111156103ea576103aa67e60347a403c2960460c01b610938565b6103be67179dc2b71774791e60c01b610938565b6103d267e7d4e1b704e5dcdb60c01b610938565b600260008060008095509550955095509550506104dc565b6103fe671fe5ca0273f5555e60c01b610938565b610412675c3ae63fca52447e60c01b610938565b80945061042967435d5be331ec12fe60c01b610938565b88935061044067546aa1d6bb2ea69760c01b610938565b8792506104576772bcc032fb6db88060c01b610938565b6002896fffffffffffffffffffffffffffffffff166001896104799190610bb4565b896104849190610be8565b61048e9190610be8565b6104989190610c71565b8a6fffffffffffffffffffffffffffffffff16886104b69190610be8565b6104c09190610ce6565b91506104d667feb3bbfdafb257ff60c01b610938565b60009550505b945094509450945094565b6000806104fe677f6a20ab50346a4c60c01b610938565b6105126775f984fab48bb59760c01b610938565b61052667af35c617bcd6fa6860c01b610938565b6000856fffffffffffffffffffffffffffffffff166001856105489190610bb4565b6105529190610be8565b87600261055f9190610d1a565b6fffffffffffffffffffffffffffffffff1661057b9190610ce6565b6002856105889190610c71565b6105929190610be8565b90506105a8674d0eb8988c87e0c460c01b610938565b6105d885670de0b6b3a76400006105bf9190610bb4565b670de0b6b3a76400008361093b9092919063ffffffff16565b91506105ee6795d0ea5031544d5f60c01b610938565b600092505094509492505050565b6000806000806000610618672b977d9fed60a6ba60c01b610938565b61062c67b9ab3472549e33b460c01b610938565b610640675e4c7f34e6131c4f60c01b610938565b6000860361069b5761065c679a6868730cee69b660c01b610938565b61067067f90eefdd21c3b68f60c01b610938565b6106846729698307f61ec0f760c01b610938565b60016000806000809450945094509450945061092d565b6106af67fe4dccceed5d75c760c01b610938565b6106c367372afab79f7699f760c01b610938565b6106d76777524c7bd59a30ed60c01b610938565b600086896fffffffffffffffffffffffffffffffff166106f79190610be8565b905061070d6720d1950d393267df60c01b610938565b61072167656e56038a8023b460c01b610938565b808a6fffffffffffffffffffffffffffffffff1610156107da5761074f67bd6b2fcd68671c3d60c01b610938565b610763679769ab7d0229a06f60c01b610938565b6000945061077b67d4ef69ae47ab8b5560c01b610938565b61078f6707a459e33862b69260c01b610938565b600060018a8c61079f9190610d64565b6107a99190610d95565b6fffffffffffffffffffffffffffffffff1690506107d1678024fad91717057d60c01b610938565b80975050610811565b6107ee67b4e6a1d84a91dca460c01b610938565b610802673782584be02d417560c01b610938565b808a61080e9190610ca2565b94505b61082567f8f19e8a4b66bea860c01b610938565b88935061083c67405ed743fb281c7360c01b610938565b879250610853676f45dc1e22360c2d60c01b610938565b61086767941c5fdeac866d7660c01b610938565b600060028a6fffffffffffffffffffffffffffffffff1660018a61088b9190610bb4565b8a6108969190610be8565b6108a09190610be8565b6108aa9190610c71565b8a8c6108b69190610ca2565b6fffffffffffffffffffffffffffffffff16896108d39190610be8565b6108dd9190610bb4565b90506108f36773d9a08f92f3328d60c01b610938565b61091089670de0b6b3a76400008361093b9092919063ffffffff16565b925061092667725ae31a64b8d5e960c01b610938565b6000965050505b945094509450945094565b50565b6000610951677dc7cdfa1c8f086360c01b610987565b610965673cbda75c9d7a92a660c01b610987565b8284029050828482041484151761097b57600080fd5b81810490509392505050565b50565b600080fd5b60006fffffffffffffffffffffffffffffffff82169050919050565b6109b48161098f565b81146109bf57600080fd5b50565b6000813590506109d1816109ab565b92915050565b6000819050919050565b6109ea816109d7565b81146109f557600080fd5b50565b600081359050610a07816109e1565b92915050565b60008060008060808587031215610a2757610a2661098a565b5b6000610a35878288016109c2565b9450506020610a46878288016109c2565b9350506040610a57878288016109f8565b9250506060610a68878288016109f8565b91505092959194509250565b7f4e487b7100000000000000000000000000000000000000000000000000000000600052602160045260246000fd5b60038110610ab457610ab3610a74565b5b50565b6000819050610ac582610aa3565b919050565b6000610ad582610ab7565b9050919050565b610ae581610aca565b82525050565b610af4816109d7565b82525050565b6000604082019050610b0f6000830185610adc565b610b1c6020830184610aeb565b9392505050565b610b2c8161098f565b82525050565b600060a082019050610b476000830188610adc565b610b546020830187610b23565b610b616040830186610b23565b610b6e6060830185610aeb565b610b7b6080830184610aeb565b9695505050505050565b7f4e487b7100000000000000000000000000000000000000000000000000000000600052601160045260246000fd5b6000610bbf826109d7565b9150610bca836109d7565b9250828203905081811115610be257610be1610b85565b5b92915050565b6000610bf3826109d7565b9150610bfe836109d7565b9250817fffffffffffffffffffffffffffffffffffffffffffffffffffffffffffffffff0483118215151615610c3757610c36610b85565b5b828202905092915050565b7f4e487b7100000000000000000000000000000000000000000000000000000000600052601260045260246000fd5b6000610c7c826109d7565b9150610c87836109d7565b925082610c9757610c96610c42565b5b828204905092915050565b6000610cad8261098f565b9150610cb88361098f565b925082820390506fffffffffffffffffffffffffffffffff811115610ce057610cdf610b85565b5b92915050565b6000610cf1826109d7565b9150610cfc836109d7565b9250828201905080821115610d1457610d13610b85565b5b92915050565b6000610d258261098f565b9150610d308361098f565b9250816fffffffffffffffffffffffffffffffff0483118215151615610d5957610d58610b85565b5b828202905092915050565b6000610d6f8261098f565b9150610d7a8361098f565b925082610d8a57610d89610c42565b5b828204905092915050565b6000610da08261098f565b9150610dab8361098f565b925082820190506fffffffffffffffffffffffffffffffff811115610dd357610dd2610b85565b5b9291505056fea26469706673582212201ee4274accd771d8befbfb82a79a2353d2b2b3b1bc43cadc0298469120fa5f0064736f6c63430008100033",
  "linkReferences": {},
  "deployedLinkReferences": {}
}