{
  "_format": "hh-sol-artifact-1",
  "contractName": "LinearCurve",
  "sourceName": "contracts/bonding-curves/LinearCurve.sol",
  "abi": [
    {
      "inputs": [
        {
          "internalType": "uint128",
          "name": "spotPrice",
          "type": "uint128"
        },
        {
          "internalType": "uint128",
          "name": "delta",
          "type": "uint128"
        },
        {
          "internalType": "uint256",
          "name": "spread",
          "type": "uint256"
        },
        {
          "internalType": "uint256",
          "name": "numItems",
          "type": "uint256"
        }
      ],
      "name": "getBuyFeeInfo",
      "outputs": [
        {
          "internalType": "enum CurveErrorCodes.Error",
          "name": "error",
          "type": "uint8"
        },
        {
          "internalType": "uint256",
          "name": "totalFee",
          "type": "uint256"
        }
      ],
      "stateMutability": "pure",
      "type": "function"
    },
    {
      "inputs": [
        {
          "internalType": "uint128",
          "name": "spotPrice",
          "type": "uint128"
        },
        {
          "internalType": "uint128",
          "name": "delta",
          "type": "uint128"
        },
        {
          "internalType": "uint256",
          "name": "spread",
          "type": "uint256"
        },
        {
          "internalType": "uint256",
          "name": "numItems",
          "type": "uint256"
        }
      ],
      "name": "getBuyInfo",
      "outputs": [
        {
          "internalType": "enum CurveErrorCodes.Error",
          "name": "error",
          "type": "uint8"
        },
        {
          "internalType": "uint128",
          "name": "newSpotPrice",
          "type": "uint128"
        },
        {
          "internalType": "uint128",
          "name": "newDelta",
          "type": "uint128"
        },
        {
          "internalType": "uint256",
          "name": "newSpread",
          "type": "uint256"
        },
        {
          "internalType": "uint256",
          "name": "totalFee",
          "type": "uint256"
        }
      ],
      "stateMutability": "pure",
      "type": "function"
    },
    {
      "inputs": [
        {
          "internalType": "uint128",
          "name": "spotPrice",
          "type": "uint128"
        },
        {
          "internalType": "uint128",
          "name": "delta",
          "type": "uint128"
        },
        {
          "internalType": "uint256",
          "name": "spread",
          "type": "uint256"
        },
        {
          "internalType": "uint256",
          "name": "numItems",
          "type": "uint256"
        }
      ],
      "name": "getSellFeeInfo",
      "outputs": [
        {
          "internalType": "enum CurveErrorCodes.Error",
          "name": "error",
          "type": "uint8"
        },
        {
          "internalType": "uint256",
          "name": "totalFee",
          "type": "uint256"
        }
      ],
      "stateMutability": "pure",
      "type": "function"
    },
    {
      "inputs": [
        {
          "internalType": "uint128",
          "name": "spotPrice",
          "type": "uint128"
        },
        {
          "internalType": "uint128",
          "name": "delta",
          "type": "uint128"
        },
        {
          "internalType": "uint256",
          "name": "spread",
          "type": "uint256"
        },
        {
          "internalType": "uint256",
          "name": "numItems",
          "type": "uint256"
        }
      ],
      "name": "getSellInfo",
      "outputs": [
        {
          "internalType": "enum CurveErrorCodes.Error",
          "name": "error",
          "type": "uint8"
        },
        {
          "internalType": "uint128",
          "name": "newSpotPrice",
          "type": "uint128"
        },
        {
          "internalType": "uint128",
          "name": "newDelta",
          "type": "uint128"
        },
        {
          "internalType": "uint256",
          "name": "newSpread",
          "type": "uint256"
        },
        {
          "internalType": "uint256",
          "name": "totalFee",
          "type": "uint256"
        }
      ],
      "stateMutability": "pure",
      "type": "function"
    }
  ],
  "bytecode": "0x608060405234801561001057600080fd5b5061096f806100206000396000f3fe608060405234801561001057600080fd5b506004361061004c5760003560e01c80635b645d80146100515780635d9989121461008257806388ec429a146100b6578063c728b364146100e7575b600080fd5b61006b60048036038101906100669190610592565b61011b565b60405161007992919061067f565b60405180910390f35b61009c60048036038101906100979190610592565b6101c3565b6040516100ad9594939291906106b7565b60405180910390f35b6100d060048036038101906100cb9190610592565b6102df565b6040516100de92919061067f565b60405180910390f35b61010160048036038101906100fc9190610592565b61037d565b6040516101129594939291906106b7565b60405180910390f35b60008060006002866fffffffffffffffffffffffffffffffff166001866101429190610739565b8661014d919061076d565b610157919061076d565b61016191906107de565b868861016d919061080f565b6fffffffffffffffffffffffffffffffff168561018a919061076d565b6101949190610739565b90506101b385670de0b6b3a7640000836104eb9092919063ffffffff16565b9150600092505094509492505050565b60008060008060008086036101e9576001600080600080945094509450945094506102d4565b600086896fffffffffffffffffffffffffffffffff16610209919061076d565b8a6fffffffffffffffffffffffffffffffff166102269190610853565b90506fffffffffffffffffffffffffffffffff801681111561025a57600260008060008095509550955095509550506102d4565b8094508893508792506002896fffffffffffffffffffffffffffffffff166001896102859190610739565b89610290919061076d565b61029a919061076d565b6102a491906107de565b8a6fffffffffffffffffffffffffffffffff16886102c2919061076d565b6102cc9190610853565b915060009550505b945094509450945094565b6000806000856fffffffffffffffffffffffffffffffff166001856103049190610739565b61030e919061076d565b87600261031b9190610887565b6fffffffffffffffffffffffffffffffff166103379190610853565b60028561034491906107de565b61034e919061076d565b905061036d85670de0b6b3a7640000836104eb9092919063ffffffff16565b9150600092505094509492505050565b60008060008060008086036103a3576001600080600080945094509450945094506104e0565b600086896fffffffffffffffffffffffffffffffff166103c3919061076d565b9050808a6fffffffffffffffffffffffffffffffff16101561041a5760009450600060018a8c6103f391906108c4565b6103fd91906108f5565b6fffffffffffffffffffffffffffffffff16905080975050610429565b808a610426919061080f565b94505b889350879250600060028a6fffffffffffffffffffffffffffffffff1660018a6104539190610739565b8a61045e919061076d565b610468919061076d565b61047291906107de565b8a8c61047e919061080f565b6fffffffffffffffffffffffffffffffff168961049b919061076d565b6104a59190610739565b90506104d789670de0b6b3a76400006104be9190610739565b670de0b6b3a7640000836104eb9092919063ffffffff16565b92506000965050505b945094509450945094565b60008284029050828482041484151761050357600080fd5b81810490509392505050565b600080fd5b60006fffffffffffffffffffffffffffffffff82169050919050565b61053981610514565b811461054457600080fd5b50565b60008135905061055681610530565b92915050565b6000819050919050565b61056f8161055c565b811461057a57600080fd5b50565b60008135905061058c81610566565b92915050565b600080600080608085870312156105ac576105ab61050f565b5b60006105ba87828801610547565b94505060206105cb87828801610547565b93505060406105dc8782880161057d565b92505060606105ed8782880161057d565b91505092959194509250565b7f4e487b7100000000000000000000000000000000000000000000000000000000600052602160045260246000fd5b60038110610639576106386105f9565b5b50565b600081905061064a82610628565b919050565b600061065a8261063c565b9050919050565b61066a8161064f565b82525050565b6106798161055c565b82525050565b60006040820190506106946000830185610661565b6106a16020830184610670565b9392505050565b6106b181610514565b82525050565b600060a0820190506106cc6000830188610661565b6106d960208301876106a8565b6106e660408301866106a8565b6106f36060830185610670565b6107006080830184610670565b9695505050505050565b7f4e487b7100000000000000000000000000000000000000000000000000000000600052601160045260246000fd5b60006107448261055c565b915061074f8361055c565b92508282039050818111156107675761076661070a565b5b92915050565b60006107788261055c565b91506107838361055c565b92508282026107918161055c565b915082820484148315176107a8576107a761070a565b5b5092915050565b7f4e487b7100000000000000000000000000000000000000000000000000000000600052601260045260246000fd5b60006107e98261055c565b91506107f48361055c565b925082610804576108036107af565b5b828204905092915050565b600061081a82610514565b915061082583610514565b925082820390506fffffffffffffffffffffffffffffffff81111561084d5761084c61070a565b5b92915050565b600061085e8261055c565b91506108698361055c565b92508282019050808211156108815761088061070a565b5b92915050565b600061089282610514565b915061089d83610514565b92508282026108ab81610514565b91508082146108bd576108bc61070a565b5b5092915050565b60006108cf82610514565b91506108da83610514565b9250826108ea576108e96107af565b5b828204905092915050565b600061090082610514565b915061090b83610514565b925082820190506fffffffffffffffffffffffffffffffff8111156109335761093261070a565b5b9291505056fea26469706673582212209ebb90f489eb14e3fb80f1b858bd84ac7527facbea9f5d8bacf2c807214e232e64736f6c63430008110033",
  "linkReferences": {},
  "deployedLinkReferences": {}
}