{
  "_format": "hh-sol-artifact-1",
  "contractName": "SampleNFT2",
  "sourceName": "contracts/SampleNFT2.sol",
  "abi": [
    {
      "inputs": [
        {
          "internalType": "string",
          "name": "_name",
          "type": "string"
        },
        {
          "internalType": "string",
          "name": "_symbol",
          "type": "string"
        },
        {
          "internalType": "string",
          "name": "_initBaseURI",
          "type": "string"
        }
      ],
      "stateMutability": "nonpayable",
      "type": "constructor"
    },
    {
      "anonymous": false,
      "inputs": [
        {
          "indexed": true,
          "internalType": "address",
          "name": "owner",
          "type": "address"
        },
        {
          "indexed": true,
          "internalType": "address",
          "name": "approved",
          "type": "address"
        },
        {
          "indexed": true,
          "internalType": "uint256",
          "name": "tokenId",
          "type": "uint256"
        }
      ],
      "name": "Approval",
      "type": "event"
    },
    {
      "anonymous": false,
      "inputs": [
        {
          "indexed": true,
          "internalType": "address",
          "name": "owner",
          "type": "address"
        },
        {
          "indexed": true,
          "internalType": "address",
          "name": "operator",
          "type": "address"
        },
        {
          "indexed": false,
          "internalType": "bool",
          "name": "approved",
          "type": "bool"
        }
      ],
      "name": "ApprovalForAll",
      "type": "event"
    },
    {
      "anonymous": false,
      "inputs": [
        {
          "indexed": true,
          "internalType": "address",
          "name": "previousOwner",
          "type": "address"
        },
        {
          "indexed": true,
          "internalType": "address",
          "name": "newOwner",
          "type": "address"
        }
      ],
      "name": "OwnershipTransferred",
      "type": "event"
    },
    {
      "anonymous": false,
      "inputs": [
        {
          "indexed": true,
          "internalType": "address",
          "name": "from",
          "type": "address"
        },
        {
          "indexed": true,
          "internalType": "address",
          "name": "to",
          "type": "address"
        },
        {
          "indexed": true,
          "internalType": "uint256",
          "name": "tokenId",
          "type": "uint256"
        }
      ],
      "name": "Transfer",
      "type": "event"
    },
    {
      "inputs": [
        {
          "internalType": "address",
          "name": "to",
          "type": "address"
        },
        {
          "internalType": "uint256",
          "name": "tokenId",
          "type": "uint256"
        }
      ],
      "name": "approve",
      "outputs": [],
      "stateMutability": "nonpayable",
      "type": "function"
    },
    {
      "inputs": [
        {
          "internalType": "address",
          "name": "owner",
          "type": "address"
        }
      ],
      "name": "balanceOf",
      "outputs": [
        {
          "internalType": "uint256",
          "name": "",
          "type": "uint256"
        }
      ],
      "stateMutability": "view",
      "type": "function"
    },
    {
      "inputs": [],
      "name": "baseURI",
      "outputs": [
        {
          "internalType": "string",
          "name": "",
          "type": "string"
        }
      ],
      "stateMutability": "view",
      "type": "function"
    },
    {
      "inputs": [
        {
          "internalType": "uint256[]",
          "name": "tokenIds",
          "type": "uint256[]"
        },
        {
          "internalType": "address",
          "name": "to",
          "type": "address"
        }
      ],
      "name": "batchApprove",
      "outputs": [],
      "stateMutability": "nonpayable",
      "type": "function"
    },
    {
      "inputs": [
        {
          "internalType": "address",
          "name": "to",
          "type": "address"
        },
        {
          "internalType": "uint256",
          "name": "num",
          "type": "uint256"
        }
      ],
      "name": "batchMint",
      "outputs": [],
      "stateMutability": "nonpayable",
      "type": "function"
    },
    {
      "inputs": [
        {
          "internalType": "address",
          "name": "user",
          "type": "address"
        }
      ],
      "name": "getAllHeldIds",
      "outputs": [
        {
          "internalType": "uint256[]",
          "name": "",
          "type": "uint256[]"
        }
      ],
      "stateMutability": "view",
      "type": "function"
    },
    {
      "inputs": [
        {
          "internalType": "uint256",
          "name": "tokenId",
          "type": "uint256"
        }
      ],
      "name": "getApproved",
      "outputs": [
        {
          "internalType": "address",
          "name": "",
          "type": "address"
        }
      ],
      "stateMutability": "view",
      "type": "function"
    },
    {
      "inputs": [
        {
          "internalType": "address",
          "name": "owner",
          "type": "address"
        },
        {
          "internalType": "address",
          "name": "operator",
          "type": "address"
        }
      ],
      "name": "isApprovedForAll",
      "outputs": [
        {
          "internalType": "bool",
          "name": "",
          "type": "bool"
        }
      ],
      "stateMutability": "view",
      "type": "function"
    },
    {
      "inputs": [],
      "name": "mint",
      "outputs": [],
      "stateMutability": "nonpayable",
      "type": "function"
    },
    {
      "inputs": [],
      "name": "name",
      "outputs": [
        {
          "internalType": "string",
          "name": "",
          "type": "string"
        }
      ],
      "stateMutability": "view",
      "type": "function"
    },
    {
      "inputs": [],
      "name": "owner",
      "outputs": [
        {
          "internalType": "address",
          "name": "",
          "type": "address"
        }
      ],
      "stateMutability": "view",
      "type": "function"
    },
    {
      "inputs": [
        {
          "internalType": "uint256",
          "name": "tokenId",
          "type": "uint256"
        }
      ],
      "name": "ownerOf",
      "outputs": [
        {
          "internalType": "address",
          "name": "",
          "type": "address"
        }
      ],
      "stateMutability": "view",
      "type": "function"
    },
    {
      "inputs": [],
      "name": "renounceOwnership",
      "outputs": [],
      "stateMutability": "nonpayable",
      "type": "function"
    },
    {
      "inputs": [
        {
          "internalType": "address",
          "name": "from",
          "type": "address"
        },
        {
          "internalType": "address",
          "name": "to",
          "type": "address"
        },
        {
          "internalType": "uint256",
          "name": "tokenId",
          "type": "uint256"
        }
      ],
      "name": "safeTransferFrom",
      "outputs": [],
      "stateMutability": "nonpayable",
      "type": "function"
    },
    {
      "inputs": [
        {
          "internalType": "address",
          "name": "from",
          "type": "address"
        },
        {
          "internalType": "address",
          "name": "to",
          "type": "address"
        },
        {
          "internalType": "uint256",
          "name": "tokenId",
          "type": "uint256"
        },
        {
          "internalType": "bytes",
          "name": "data",
          "type": "bytes"
        }
      ],
      "name": "safeTransferFrom",
      "outputs": [],
      "stateMutability": "nonpayable",
      "type": "function"
    },
    {
      "inputs": [
        {
          "internalType": "address",
          "name": "operator",
          "type": "address"
        },
        {
          "internalType": "bool",
          "name": "approved",
          "type": "bool"
        }
      ],
      "name": "setApprovalForAll",
      "outputs": [],
      "stateMutability": "nonpayable",
      "type": "function"
    },
    {
      "inputs": [
        {
          "internalType": "string",
          "name": "_newBaseURI",
          "type": "string"
        }
      ],
      "name": "setBaseURI",
      "outputs": [],
      "stateMutability": "nonpayable",
      "type": "function"
    },
    {
      "inputs": [
        {
          "internalType": "bytes4",
          "name": "interfaceId",
          "type": "bytes4"
        }
      ],
      "name": "supportsInterface",
      "outputs": [
        {
          "internalType": "bool",
          "name": "",
          "type": "bool"
        }
      ],
      "stateMutability": "view",
      "type": "function"
    },
    {
      "inputs": [],
      "name": "symbol",
      "outputs": [
        {
          "internalType": "string",
          "name": "",
          "type": "string"
        }
      ],
      "stateMutability": "view",
      "type": "function"
    },
    {
      "inputs": [
        {
          "internalType": "uint256",
          "name": "index",
          "type": "uint256"
        }
      ],
      "name": "tokenByIndex",
      "outputs": [
        {
          "internalType": "uint256",
          "name": "",
          "type": "uint256"
        }
      ],
      "stateMutability": "view",
      "type": "function"
    },
    {
      "inputs": [
        {
          "internalType": "address",
          "name": "owner",
          "type": "address"
        },
        {
          "internalType": "uint256",
          "name": "index",
          "type": "uint256"
        }
      ],
      "name": "tokenOfOwnerByIndex",
      "outputs": [
        {
          "internalType": "uint256",
          "name": "",
          "type": "uint256"
        }
      ],
      "stateMutability": "view",
      "type": "function"
    },
    {
      "inputs": [
        {
          "internalType": "uint256",
          "name": "_tokenId",
          "type": "uint256"
        }
      ],
      "name": "tokenURI",
      "outputs": [
        {
          "internalType": "string",
          "name": "",
          "type": "string"
        }
      ],
      "stateMutability": "view",
      "type": "function"
    },
    {
      "inputs": [],
      "name": "totalSupply",
      "outputs": [
        {
          "internalType": "uint256",
          "name": "",
          "type": "uint256"
        }
      ],
      "stateMutability": "view",
      "type": "function"
    },
    {
      "inputs": [
        {
          "internalType": "address",
          "name": "from",
          "type": "address"
        },
        {
          "internalType": "address",
          "name": "to",
          "type": "address"
        },
        {
          "internalType": "uint256",
          "name": "tokenId",
          "type": "uint256"
        }
      ],
      "name": "transferFrom",
      "outputs": [],
      "stateMutability": "nonpayable",
      "type": "function"
    },
    {
      "inputs": [
        {
          "internalType": "address",
          "name": "newOwner",
          "type": "address"
        }
      ],
      "name": "transferOwnership",
      "outputs": [],
      "stateMutability": "nonpayable",
      "type": "function"
    }
  ],
  "bytecode": "0x60806040523480156200001157600080fd5b5060405162004a6f38038062004a6f8339818101604052810190620000379190620004a1565b828281600090816200004a9190620007a5565b5080600190816200005c9190620007a5565b5050506200007f62000073620000ed60201b60201c565b620000f560201b60201c565b6200009b67d070b5e41ce09e1560c01b620001bb60201b60201c565b620000b7677253cb048dd74b8c60c01b620001bb60201b60201c565b620000d3679ab591daf3be492a60c01b620001bb60201b60201c565b620000e481620001be60201b60201c565b5050506200090f565b600033905090565b6000600a60009054906101000a900473ffffffffffffffffffffffffffffffffffffffff16905081600a60006101000a81548173ffffffffffffffffffffffffffffffffffffffff021916908373ffffffffffffffffffffffffffffffffffffffff1602179055508173ffffffffffffffffffffffffffffffffffffffff168173ffffffffffffffffffffffffffffffffffffffff167f8be0079c531659141344cd1fd0a4f28419497f9722a3daafe3b4186f6b6457e060405160405180910390a35050565b50565b620001da678d25e2ed6da15ab260c01b620001bb60201b60201c565b620001ea6200025360201b60201c565b620002066729fe7e0f727678fb60c01b620001bb60201b60201c565b6200022267b86d89cc2e912fe460c01b620001bb60201b60201c565b6200023e67c65de80fb6daa36360c01b620001bb60201b60201c565b80600b90816200024f9190620007a5565b5050565b62000263620000ed60201b60201c565b73ffffffffffffffffffffffffffffffffffffffff1662000289620002e460201b60201c565b73ffffffffffffffffffffffffffffffffffffffff1614620002e2576040517f08c379a0000000000000000000000000000000000000000000000000000000008152600401620002d990620008ed565b60405180910390fd5b565b6000600a60009054906101000a900473ffffffffffffffffffffffffffffffffffffffff16905090565b6000604051905090565b600080fd5b600080fd5b600080fd5b600080fd5b6000601f19601f8301169050919050565b7f4e487b7100000000000000000000000000000000000000000000000000000000600052604160045260246000fd5b62000377826200032c565b810181811067ffffffffffffffff821117156200039957620003986200033d565b5b80604052505050565b6000620003ae6200030e565b9050620003bc82826200036c565b919050565b600067ffffffffffffffff821115620003df57620003de6200033d565b5b620003ea826200032c565b9050602081019050919050565b60005b8381101562000417578082015181840152602081019050620003fa565b60008484015250505050565b60006200043a6200043484620003c1565b620003a2565b90508281526020810184848401111562000459576200045862000327565b5b62000466848285620003f7565b509392505050565b600082601f83011262000486576200048562000322565b5b81516200049884826020860162000423565b91505092915050565b600080600060608486031215620004bd57620004bc62000318565b5b600084015167ffffffffffffffff811115620004de57620004dd6200031d565b5b620004ec868287016200046e565b935050602084015167ffffffffffffffff81111562000510576200050f6200031d565b5b6200051e868287016200046e565b925050604084015167ffffffffffffffff8111156200054257620005416200031d565b5b62000550868287016200046e565b9150509250925092565b600081519050919050565b7f4e487b7100000000000000000000000000000000000000000000000000000000600052602260045260246000fd5b60006002820490506001821680620005ad57607f821691505b602082108103620005c357620005c262000565565b5b50919050565b60008190508160005260206000209050919050565b60006020601f8301049050919050565b600082821b905092915050565b6000600883026200062d7fffffffffffffffffffffffffffffffffffffffffffffffffffffffffffffffff82620005ee565b620006398683620005ee565b95508019841693508086168417925050509392505050565b6000819050919050565b6000819050919050565b600062000686620006806200067a8462000651565b6200065b565b62000651565b9050919050565b6000819050919050565b620006a28362000665565b620006ba620006b1826200068d565b848454620005fb565b825550505050565b600090565b620006d1620006c2565b620006de81848462000697565b505050565b5b818110156200070657620006fa600082620006c7565b600181019050620006e4565b5050565b601f82111562000755576200071f81620005c9565b6200072a84620005de565b810160208510156200073a578190505b620007526200074985620005de565b830182620006e3565b50505b505050565b600082821c905092915050565b60006200077a600019846008026200075a565b1980831691505092915050565b600062000795838362000767565b9150826002028217905092915050565b620007b0826200055a565b67ffffffffffffffff811115620007cc57620007cb6200033d565b5b620007d8825462000594565b620007e58282856200070a565b600060209050601f8311600181146200081d576000841562000808578287015190505b62000814858262000787565b86555062000884565b601f1984166200082d86620005c9565b60005b82811015620008575784890151825560018201915060208501945060208101905062000830565b8683101562000877578489015162000873601f89168262000767565b8355505b6001600288020188555050505b505050505050565b600082825260208201905092915050565b7f4f776e61626c653a2063616c6c6572206973206e6f7420746865206f776e6572600082015250565b6000620008d56020836200088c565b9150620008e2826200089d565b602082019050919050565b600060208201905081810360008301526200090881620008c6565b9050919050565b614150806200091f6000396000f3fe608060405234801561001057600080fd5b50600436106101735760003560e01c806355f804b3116100de57806395d89b4111610097578063b88d4fde11610071578063b88d4fde14610436578063c87b56dd14610452578063e985e9c514610482578063f2fde38b146104b257610173565b806395d89b41146103cc578063985bdeea146103ea578063a22cb4651461041a57610173565b806355f804b31461030a5780636352211e146103265780636c0360eb1461035657806370a0823114610374578063715018a6146103a45780638da5cb5b146103ae57610173565b806323b872dd1161013057806323b872dd1461023a5780632f745c591461025657806338752e581461028657806342842e0e146102a257806343508b05146102be5780634f6ccce7146102da57610173565b806301ffc9a71461017857806306fdde03146101a8578063081812fc146101c6578063095ea7b3146101f65780631249c58b1461021257806318160ddd1461021c575b600080fd5b610192600480360381019061018d91906126ea565b6104ce565b60405161019f9190612732565b60405180910390f35b6101b0610548565b6040516101bd91906127dd565b60405180910390f35b6101e060048036038101906101db9190612835565b6105da565b6040516101ed91906128a3565b60405180910390f35b610210600480360381019061020b91906128ea565b610620565b005b61021a610737565b005b6102246107e8565b6040516102319190612939565b60405180910390f35b610254600480360381019061024f9190612954565b6107f5565b005b610270600480360381019061026b91906128ea565b610855565b60405161027d9190612939565b60405180910390f35b6102a0600480360381019061029b9190612a0c565b6108fa565b005b6102bc60048036038101906102b79190612954565b6109a8565b005b6102d860048036038101906102d391906128ea565b6109c8565b005b6102f460048036038101906102ef9190612835565b610af2565b6040516103019190612939565b60405180910390f35b610324600480360381019061031f9190612b9c565b610b63565b005b610340600480360381019061033b9190612835565b610bce565b60405161034d91906128a3565b60405180910390f35b61035e610c7f565b60405161036b91906127dd565b60405180910390f35b61038e60048036038101906103899190612be5565b610d0d565b60405161039b9190612939565b60405180910390f35b6103ac610dc4565b005b6103b6610dd8565b6040516103c391906128a3565b60405180910390f35b6103d4610e02565b6040516103e191906127dd565b60405180910390f35b61040460048036038101906103ff9190612be5565b610e94565b6040516104119190612cd0565b60405180910390f35b610434600480360381019061042f9190612d1e565b61100a565b005b610450600480360381019061044b9190612dff565b611020565b005b61046c60048036038101906104679190612835565b611082565b60405161047991906127dd565b60405180910390f35b61049c60048036038101906104979190612e82565b61120d565b6040516104a99190612732565b60405180910390f35b6104cc60048036038101906104c79190612be5565b6112a1565b005b60007f780e9d63000000000000000000000000000000000000000000000000000000007bffffffffffffffffffffffffffffffffffffffffffffffffffffffff1916827bffffffffffffffffffffffffffffffffffffffffffffffffffffffff19161480610541575061054082611324565b5b9050919050565b60606000805461055790612ef1565b80601f016020809104026020016040519081016040528092919081815260200182805461058390612ef1565b80156105d05780601f106105a5576101008083540402835291602001916105d0565b820191906000526020600020905b8154815290600101906020018083116105b357829003601f168201915b5050505050905090565b60006105e582611406565b6004600083815260200190815260200160002060009054906101000a900473ffffffffffffffffffffffffffffffffffffffff169050919050565b600061062b82610bce565b90508073ffffffffffffffffffffffffffffffffffffffff168373ffffffffffffffffffffffffffffffffffffffff160361069b576040517f08c379a000000000000000000000000000000000000000000000000000000000815260040161069290612f94565b60405180910390fd5b8073ffffffffffffffffffffffffffffffffffffffff166106ba611451565b73ffffffffffffffffffffffffffffffffffffffff1614806106e957506106e8816106e3611451565b61120d565b5b610728576040517f08c379a000000000000000000000000000000000000000000000000000000000815260040161071f90613026565b60405180910390fd5b6107328383611459565b505050565b61074b67626c80a3d59ab09460c01b611512565b61075f673de3538e0b570eb260c01b611512565b61077367f30252f6570fee5360c01b611512565b61077d600c611515565b6107916739e38a5cb5b9cc9060c01b611512565b6107a56721bf751fe754a92b60c01b611512565b60006107b1600c61152b565b90506107c7675c35e35e9a6aa92760c01b611512565b6107db67afd006044da0dbef60c01b611512565b6107e53382611539565b50565b6000600880549050905090565b610806610800611451565b82611712565b610845576040517f08c379a000000000000000000000000000000000000000000000000000000000815260040161083c906130b8565b60405180910390fd5b6108508383836117a7565b505050565b600061086083610d0d565b82106108a1576040517f08c379a00000000000000000000000000000000000000000000000000000000081526004016108989061314a565b60405180910390fd5b600660008473ffffffffffffffffffffffffffffffffffffffff1673ffffffffffffffffffffffffffffffffffffffff168152602001908152602001600020600083815260200190815260200160002054905092915050565b61090e67048cdf194aa5d0b560c01b611512565b61092267253d7d68f97cede960c01b611512565b61093667af19ecdca732fd4d60c01b611512565b60005b838390508110156109a25761095867ebb79f2495949ca360c01b611512565b61096c67b2ddbadc7b72732560c01b611512565b61098f828585848181106109835761098261316a565b5b90506020020135610620565b808061099a906131c8565b915050610939565b50505050565b6109c383838360405180602001604052806000815250611020565b505050565b6109dc678ef2dfea5b761af260c01b611512565b6109e4611a0d565b6109f867ffd182ade169147a60c01b611512565b610a0c67e4f1d1a31696b1da60c01b611512565b610a20679878653951d45b5960c01b611512565b610a3467d5d914ced7d5493560c01b611512565b60005b81811015610aed57610a53675f05e253ac1466b360c01b611512565b610a6767859b51ae2cf6c4ae60c01b611512565b610a71600c611515565b610a85672bf6a6237772eaa060c01b611512565b610a9967b533b4b93fb13da460c01b611512565b6000610aa5600c61152b565b9050610abb6753e691d0069a6bb660c01b611512565b610acf6752455fb1155e4a4a60c01b611512565b610ad98482611539565b508080610ae5906131c8565b915050610a37565b505050565b6000610afc6107e8565b8210610b3d576040517f08c379a0000000000000000000000000000000000000000000000000000000008152600401610b3490613282565b60405180910390fd5b60088281548110610b5157610b5061316a565b5b90600052602060002001549050919050565b610b77678d25e2ed6da15ab260c01b611512565b610b7f611a0d565b610b936729fe7e0f727678fb60c01b611512565b610ba767b86d89cc2e912fe460c01b611512565b610bbb67c65de80fb6daa36360c01b611512565b80600b9081610bca919061344e565b5050565b6000806002600084815260200190815260200160002060009054906101000a900473ffffffffffffffffffffffffffffffffffffffff169050600073ffffffffffffffffffffffffffffffffffffffff168173ffffffffffffffffffffffffffffffffffffffff1603610c76576040517f08c379a0000000000000000000000000000000000000000000000000000000008152600401610c6d9061356c565b60405180910390fd5b80915050919050565b600b8054610c8c90612ef1565b80601f0160208091040260200160405190810160405280929190818152602001828054610cb890612ef1565b8015610d055780601f10610cda57610100808354040283529160200191610d05565b820191906000526020600020905b815481529060010190602001808311610ce857829003601f168201915b505050505081565b60008073ffffffffffffffffffffffffffffffffffffffff168273ffffffffffffffffffffffffffffffffffffffff1603610d7d576040517f08c379a0000000000000000000000000000000000000000000000000000000008152600401610d74906135fe565b60405180910390fd5b600360008373ffffffffffffffffffffffffffffffffffffffff1673ffffffffffffffffffffffffffffffffffffffff168152602001908152602001600020549050919050565b610dcc611a0d565b610dd66000611a8b565b565b6000600a60009054906101000a900473ffffffffffffffffffffffffffffffffffffffff16905090565b606060018054610e1190612ef1565b80601f0160208091040260200160405190810160405280929190818152602001828054610e3d90612ef1565b8015610e8a5780601f10610e5f57610100808354040283529160200191610e8a565b820191906000526020600020905b815481529060010190602001808311610e6d57829003601f168201915b5050505050905090565b6060610eaa671f824abb1a4d2a1860c01b611512565b610ebe673cfa9405d424267460c01b611512565b610ed26719b05cc79c64a50160c01b611512565b6000610edd83610d0d565b9050610ef367b68a3fa73be20df560c01b611512565b610f07674c67fe906306f6c860c01b611512565b60008167ffffffffffffffff811115610f2357610f22612a71565b5b604051908082528060200260200182016040528015610f515781602001602082028036833780820191505090505b509050610f68672a8df39008bb904560c01b611512565b610f7c67b54f9d9cb668723a60c01b611512565b60005b82811015610fd757610f9b6744a67572f65d8b6060c01b611512565b610fa58582610855565b828281518110610fb857610fb761316a565b5b6020026020010181815250508080610fcf906131c8565b915050610f7f565b50610fec6755db7293e1237d6760c01b611512565b611000677047bb270d695a4c60c01b611512565b8092505050919050565b61101c611015611451565b8383611b51565b5050565b61103161102b611451565b83611712565b611070576040517f08c379a0000000000000000000000000000000000000000000000000000000008152600401611067906130b8565b60405180910390fd5b61107c84848484611cbd565b50505050565b6060611098670aeb1c94ad1cd1c260c01b611512565b6110ac67f92cc8293acd449960c01b611512565b6110c067f335ce736e68903760c01b611512565b6110d467973843a9a1557c1760c01b611512565b6110dd82611d19565b61111c576040517f08c379a00000000000000000000000000000000000000000000000000000000081526004016111139061366a565b60405180910390fd5b61113067116af0883493f8c460c01b611512565b61114467da33acc0de5badcd60c01b611512565b61115867790a4b0b9d929c0960c01b611512565b600061116383611d85565b600b6040516020016111769291906139a9565b604051602081830303815290604052905061119b677a11aa27a1f935f660c01b611512565b6111af6790af904c56c818e860c01b611512565b60006111ba82611ee5565b6040516020016111ca9190613a5b565b60405160208183030381529060405290506111ef671794dddecd43f5b360c01b611512565b611203675cc868a392b6c7d060c01b611512565b8092505050919050565b6000600560008473ffffffffffffffffffffffffffffffffffffffff1673ffffffffffffffffffffffffffffffffffffffff16815260200190815260200160002060008373ffffffffffffffffffffffffffffffffffffffff1673ffffffffffffffffffffffffffffffffffffffff16815260200190815260200160002060009054906101000a900460ff16905092915050565b6112a9611a0d565b600073ffffffffffffffffffffffffffffffffffffffff168173ffffffffffffffffffffffffffffffffffffffff1603611318576040517f08c379a000000000000000000000000000000000000000000000000000000000815260040161130f90613aef565b60405180910390fd5b61132181611a8b565b50565b60007f80ac58cd000000000000000000000000000000000000000000000000000000007bffffffffffffffffffffffffffffffffffffffffffffffffffffffff1916827bffffffffffffffffffffffffffffffffffffffffffffffffffffffff191614806113ef57507f5b5e139f000000000000000000000000000000000000000000000000000000007bffffffffffffffffffffffffffffffffffffffffffffffffffffffff1916827bffffffffffffffffffffffffffffffffffffffffffffffffffffffff1916145b806113ff57506113fe82612048565b5b9050919050565b61140f81611d19565b61144e576040517f08c379a00000000000000000000000000000000000000000000000000000000081526004016114459061356c565b60405180910390fd5b50565b600033905090565b816004600083815260200190815260200160002060006101000a81548173ffffffffffffffffffffffffffffffffffffffff021916908373ffffffffffffffffffffffffffffffffffffffff160217905550808273ffffffffffffffffffffffffffffffffffffffff166114cc83610bce565b73ffffffffffffffffffffffffffffffffffffffff167f8c5be1e5ebec7d5bd14f71427d1e84f3dd0314c0f7b2291e5b200ac8c7c3b92560405160405180910390a45050565b50565b6001816000016000828254019250508190555050565b600081600001549050919050565b600073ffffffffffffffffffffffffffffffffffffffff168273ffffffffffffffffffffffffffffffffffffffff16036115a8576040517f08c379a000000000000000000000000000000000000000000000000000000000815260040161159f90613b5b565b60405180910390fd5b6115b181611d19565b156115f1576040517f08c379a00000000000000000000000000000000000000000000000000000000081526004016115e890613bc7565b60405180910390fd5b6115fd600083836120b2565b6001600360008473ffffffffffffffffffffffffffffffffffffffff1673ffffffffffffffffffffffffffffffffffffffff168152602001908152602001600020600082825461164d9190613be7565b92505081905550816002600083815260200190815260200160002060006101000a81548173ffffffffffffffffffffffffffffffffffffffff021916908373ffffffffffffffffffffffffffffffffffffffff160217905550808273ffffffffffffffffffffffffffffffffffffffff16600073ffffffffffffffffffffffffffffffffffffffff167fddf252ad1be2c89b69c2b068fc378daa952ba7f163c4a11628f55a4df523b3ef60405160405180910390a461170e600083836121c4565b5050565b60008061171e83610bce565b90508073ffffffffffffffffffffffffffffffffffffffff168473ffffffffffffffffffffffffffffffffffffffff161480611760575061175f818561120d565b5b8061179e57508373ffffffffffffffffffffffffffffffffffffffff16611786846105da565b73ffffffffffffffffffffffffffffffffffffffff16145b91505092915050565b8273ffffffffffffffffffffffffffffffffffffffff166117c782610bce565b73ffffffffffffffffffffffffffffffffffffffff161461181d576040517f08c379a000000000000000000000000000000000000000000000000000000000815260040161181490613c8d565b60405180910390fd5b600073ffffffffffffffffffffffffffffffffffffffff168273ffffffffffffffffffffffffffffffffffffffff160361188c576040517f08c379a000000000000000000000000000000000000000000000000000000000815260040161188390613d1f565b60405180910390fd5b6118978383836120b2565b6118a2600082611459565b6001600360008573ffffffffffffffffffffffffffffffffffffffff1673ffffffffffffffffffffffffffffffffffffffff16815260200190815260200160002060008282546118f29190613d3f565b925050819055506001600360008473ffffffffffffffffffffffffffffffffffffffff1673ffffffffffffffffffffffffffffffffffffffff16815260200190815260200160002060008282546119499190613be7565b92505081905550816002600083815260200190815260200160002060006101000a81548173ffffffffffffffffffffffffffffffffffffffff021916908373ffffffffffffffffffffffffffffffffffffffff160217905550808273ffffffffffffffffffffffffffffffffffffffff168473ffffffffffffffffffffffffffffffffffffffff167fddf252ad1be2c89b69c2b068fc378daa952ba7f163c4a11628f55a4df523b3ef60405160405180910390a4611a088383836121c4565b505050565b611a15611451565b73ffffffffffffffffffffffffffffffffffffffff16611a33610dd8565b73ffffffffffffffffffffffffffffffffffffffff1614611a89576040517f08c379a0000000000000000000000000000000000000000000000000000000008152600401611a8090613dbf565b60405180910390fd5b565b6000600a60009054906101000a900473ffffffffffffffffffffffffffffffffffffffff16905081600a60006101000a81548173ffffffffffffffffffffffffffffffffffffffff021916908373ffffffffffffffffffffffffffffffffffffffff1602179055508173ffffffffffffffffffffffffffffffffffffffff168173ffffffffffffffffffffffffffffffffffffffff167f8be0079c531659141344cd1fd0a4f28419497f9722a3daafe3b4186f6b6457e060405160405180910390a35050565b8173ffffffffffffffffffffffffffffffffffffffff168373ffffffffffffffffffffffffffffffffffffffff1603611bbf576040517f08c379a0000000000000000000000000000000000000000000000000000000008152600401611bb690613e2b565b60405180910390fd5b80600560008573ffffffffffffffffffffffffffffffffffffffff1673ffffffffffffffffffffffffffffffffffffffff16815260200190815260200160002060008473ffffffffffffffffffffffffffffffffffffffff1673ffffffffffffffffffffffffffffffffffffffff16815260200190815260200160002060006101000a81548160ff0219169083151502179055508173ffffffffffffffffffffffffffffffffffffffff168373ffffffffffffffffffffffffffffffffffffffff167f17307eab39ab6107e8899845ad3d59bd9653f200f220920489ca2b5937696c3183604051611cb09190612732565b60405180910390a3505050565b611cc88484846117a7565b611cd4848484846121c9565b611d13576040517f08c379a0000000000000000000000000000000000000000000000000000000008152600401611d0a90613ebd565b60405180910390fd5b50505050565b60008073ffffffffffffffffffffffffffffffffffffffff166002600084815260200190815260200160002060009054906101000a900473ffffffffffffffffffffffffffffffffffffffff1673ffffffffffffffffffffffffffffffffffffffff1614159050919050565b606060008203611dcc576040518060400160405280600181526020017f30000000000000000000000000000000000000000000000000000000000000008152509050611ee0565b600082905060005b60008214611dfe578080611de7906131c8565b915050600a82611df79190613f0c565b9150611dd4565b60008167ffffffffffffffff811115611e1a57611e19612a71565b5b6040519080825280601f01601f191660200182016040528015611e4c5781602001600182028036833780820191505090505b5090505b60008514611ed957600182611e659190613d3f565b9150600a85611e749190613f3d565b6030611e809190613be7565b60f81b818381518110611e9657611e9561316a565b5b60200101907effffffffffffffffffffffffffffffffffffffffffffffffffffffffffffff1916908160001a905350600a85611ed29190613f0c565b9450611e50565b8093505050505b919050565b60606000825103611f0757604051806020016040528060008152509050612043565b60006040518060600160405280604081526020016140db6040913990506000600360028551611f369190613be7565b611f409190613f0c565b6004611f4c9190613f6e565b67ffffffffffffffff811115611f6557611f64612a71565b5b6040519080825280601f01601f191660200182016040528015611f975781602001600182028036833780820191505090505b509050600182016020820185865187015b80821015612003576003820191508151603f8160121c168501518453600184019350603f81600c1c168501518453600184019350603f8160061c168501518453600184019350603f8116850151845360018401935050611fa8565b505060038651066001811461201f57600281146120325761203a565b603d6001830353603d600283035361203a565b603d60018303535b50505080925050505b919050565b60007f01ffc9a7000000000000000000000000000000000000000000000000000000007bffffffffffffffffffffffffffffffffffffffffffffffffffffffff1916827bffffffffffffffffffffffffffffffffffffffffffffffffffffffff1916149050919050565b6120bd838383612350565b600073ffffffffffffffffffffffffffffffffffffffff168373ffffffffffffffffffffffffffffffffffffffff16036120ff576120fa81612355565b61213e565b8173ffffffffffffffffffffffffffffffffffffffff168373ffffffffffffffffffffffffffffffffffffffff161461213d5761213c838261239e565b5b5b600073ffffffffffffffffffffffffffffffffffffffff168273ffffffffffffffffffffffffffffffffffffffff16036121805761217b8161250b565b6121bf565b8273ffffffffffffffffffffffffffffffffffffffff168273ffffffffffffffffffffffffffffffffffffffff16146121be576121bd82826125dc565b5b5b505050565b505050565b60006121ea8473ffffffffffffffffffffffffffffffffffffffff1661265b565b15612343578373ffffffffffffffffffffffffffffffffffffffff1663150b7a02612213611451565b8786866040518563ffffffff1660e01b8152600401612235949392919061401d565b6020604051808303816000875af192505050801561227157506040513d601f19601f8201168201806040525081019061226e919061407e565b60015b6122f3573d80600081146122a1576040519150601f19603f3d011682016040523d82523d6000602084013e6122a6565b606091505b5060008151036122eb576040517f08c379a00000000000000000000000000000000000000000000000000000000081526004016122e290613ebd565b60405180910390fd5b805181602001fd5b63150b7a0260e01b7bffffffffffffffffffffffffffffffffffffffffffffffffffffffff1916817bffffffffffffffffffffffffffffffffffffffffffffffffffffffff191614915050612348565b600190505b949350505050565b505050565b6008805490506009600083815260200190815260200160002081905550600881908060018154018082558091505060019003906000526020600020016000909190919091505550565b600060016123ab84610d0d565b6123b59190613d3f565b905060006007600084815260200190815260200160002054905081811461249a576000600660008673ffffffffffffffffffffffffffffffffffffffff1673ffffffffffffffffffffffffffffffffffffffff168152602001908152602001600020600084815260200190815260200160002054905080600660008773ffffffffffffffffffffffffffffffffffffffff1673ffffffffffffffffffffffffffffffffffffffff168152602001908152602001600020600084815260200190815260200160002081905550816007600083815260200190815260200160002081905550505b6007600084815260200190815260200160002060009055600660008573ffffffffffffffffffffffffffffffffffffffff1673ffffffffffffffffffffffffffffffffffffffff16815260200190815260200160002060008381526020019081526020016000206000905550505050565b6000600160088054905061251f9190613d3f565b905060006009600084815260200190815260200160002054905060006008838154811061254f5761254e61316a565b5b9060005260206000200154905080600883815481106125715761257061316a565b5b9060005260206000200181905550816009600083815260200190815260200160002081905550600960008581526020019081526020016000206000905560088054806125c0576125bf6140ab565b5b6001900381819060005260206000200160009055905550505050565b60006125e783610d0d565b905081600660008573ffffffffffffffffffffffffffffffffffffffff1673ffffffffffffffffffffffffffffffffffffffff168152602001908152602001600020600083815260200190815260200160002081905550806007600084815260200190815260200160002081905550505050565b6000808273ffffffffffffffffffffffffffffffffffffffff163b119050919050565b6000604051905090565b600080fd5b600080fd5b60007fffffffff0000000000000000000000000000000000000000000000000000000082169050919050565b6126c781612692565b81146126d257600080fd5b50565b6000813590506126e4816126be565b92915050565b600060208284031215612700576126ff612688565b5b600061270e848285016126d5565b91505092915050565b60008115159050919050565b61272c81612717565b82525050565b60006020820190506127476000830184612723565b92915050565b600081519050919050565b600082825260208201905092915050565b60005b8381101561278757808201518184015260208101905061276c565b60008484015250505050565b6000601f19601f8301169050919050565b60006127af8261274d565b6127b98185612758565b93506127c9818560208601612769565b6127d281612793565b840191505092915050565b600060208201905081810360008301526127f781846127a4565b905092915050565b6000819050919050565b612812816127ff565b811461281d57600080fd5b50565b60008135905061282f81612809565b92915050565b60006020828403121561284b5761284a612688565b5b600061285984828501612820565b91505092915050565b600073ffffffffffffffffffffffffffffffffffffffff82169050919050565b600061288d82612862565b9050919050565b61289d81612882565b82525050565b60006020820190506128b86000830184612894565b92915050565b6128c781612882565b81146128d257600080fd5b50565b6000813590506128e4816128be565b92915050565b6000806040838503121561290157612900612688565b5b600061290f858286016128d5565b925050602061292085828601612820565b9150509250929050565b612933816127ff565b82525050565b600060208201905061294e600083018461292a565b92915050565b60008060006060848603121561296d5761296c612688565b5b600061297b868287016128d5565b935050602061298c868287016128d5565b925050604061299d86828701612820565b9150509250925092565b600080fd5b600080fd5b600080fd5b60008083601f8401126129cc576129cb6129a7565b5b8235905067ffffffffffffffff8111156129e9576129e86129ac565b5b602083019150836020820283011115612a0557612a046129b1565b5b9250929050565b600080600060408486031215612a2557612a24612688565b5b600084013567ffffffffffffffff811115612a4357612a4261268d565b5b612a4f868287016129b6565b93509350506020612a62868287016128d5565b9150509250925092565b600080fd5b7f4e487b7100000000000000000000000000000000000000000000000000000000600052604160045260246000fd5b612aa982612793565b810181811067ffffffffffffffff82111715612ac857612ac7612a71565b5b80604052505050565b6000612adb61267e565b9050612ae78282612aa0565b919050565b600067ffffffffffffffff821115612b0757612b06612a71565b5b612b1082612793565b9050602081019050919050565b82818337600083830152505050565b6000612b3f612b3a84612aec565b612ad1565b905082815260208101848484011115612b5b57612b5a612a6c565b5b612b66848285612b1d565b509392505050565b600082601f830112612b8357612b826129a7565b5b8135612b93848260208601612b2c565b91505092915050565b600060208284031215612bb257612bb1612688565b5b600082013567ffffffffffffffff811115612bd057612bcf61268d565b5b612bdc84828501612b6e565b91505092915050565b600060208284031215612bfb57612bfa612688565b5b6000612c09848285016128d5565b91505092915050565b600081519050919050565b600082825260208201905092915050565b6000819050602082019050919050565b612c47816127ff565b82525050565b6000612c598383612c3e565b60208301905092915050565b6000602082019050919050565b6000612c7d82612c12565b612c878185612c1d565b9350612c9283612c2e565b8060005b83811015612cc3578151612caa8882612c4d565b9750612cb583612c65565b925050600181019050612c96565b5085935050505092915050565b60006020820190508181036000830152612cea8184612c72565b905092915050565b612cfb81612717565b8114612d0657600080fd5b50565b600081359050612d1881612cf2565b92915050565b60008060408385031215612d3557612d34612688565b5b6000612d43858286016128d5565b9250506020612d5485828601612d09565b9150509250929050565b600067ffffffffffffffff821115612d7957612d78612a71565b5b612d8282612793565b9050602081019050919050565b6000612da2612d9d84612d5e565b612ad1565b905082815260208101848484011115612dbe57612dbd612a6c565b5b612dc9848285612b1d565b509392505050565b600082601f830112612de657612de56129a7565b5b8135612df6848260208601612d8f565b91505092915050565b60008060008060808587031215612e1957612e18612688565b5b6000612e27878288016128d5565b9450506020612e38878288016128d5565b9350506040612e4987828801612820565b925050606085013567ffffffffffffffff811115612e6a57612e6961268d565b5b612e7687828801612dd1565b91505092959194509250565b60008060408385031215612e9957612e98612688565b5b6000612ea7858286016128d5565b9250506020612eb8858286016128d5565b9150509250929050565b7f4e487b7100000000000000000000000000000000000000000000000000000000600052602260045260246000fd5b60006002820490506001821680612f0957607f821691505b602082108103612f1c57612f1b612ec2565b5b50919050565b7f4552433732313a20617070726f76616c20746f2063757272656e74206f776e6560008201527f7200000000000000000000000000000000000000000000000000000000000000602082015250565b6000612f7e602183612758565b9150612f8982612f22565b604082019050919050565b60006020820190508181036000830152612fad81612f71565b9050919050565b7f4552433732313a20617070726f76652063616c6c6572206973206e6f7420746f60008201527f6b656e206f776e6572206e6f7220617070726f76656420666f7220616c6c0000602082015250565b6000613010603e83612758565b915061301b82612fb4565b604082019050919050565b6000602082019050818103600083015261303f81613003565b9050919050565b7f4552433732313a2063616c6c6572206973206e6f7420746f6b656e206f776e6560008201527f72206e6f7220617070726f766564000000000000000000000000000000000000602082015250565b60006130a2602e83612758565b91506130ad82613046565b604082019050919050565b600060208201905081810360008301526130d181613095565b9050919050565b7f455243373231456e756d657261626c653a206f776e657220696e646578206f7560008201527f74206f6620626f756e6473000000000000000000000000000000000000000000602082015250565b6000613134602b83612758565b915061313f826130d8565b604082019050919050565b6000602082019050818103600083015261316381613127565b9050919050565b7f4e487b7100000000000000000000000000000000000000000000000000000000600052603260045260246000fd5b7f4e487b7100000000000000000000000000000000000000000000000000000000600052601160045260246000fd5b60006131d3826127ff565b91507fffffffffffffffffffffffffffffffffffffffffffffffffffffffffffffffff820361320557613204613199565b5b600182019050919050565b7f455243373231456e756d657261626c653a20676c6f62616c20696e646578206f60008201527f7574206f6620626f756e64730000000000000000000000000000000000000000602082015250565b600061326c602c83612758565b915061327782613210565b604082019050919050565b6000602082019050818103600083015261329b8161325f565b9050919050565b60008190508160005260206000209050919050565b60006020601f8301049050919050565b600082821b905092915050565b6000600883026133047fffffffffffffffffffffffffffffffffffffffffffffffffffffffffffffffff826132c7565b61330e86836132c7565b95508019841693508086168417925050509392505050565b6000819050919050565b600061334b613346613341846127ff565b613326565b6127ff565b9050919050565b6000819050919050565b61336583613330565b61337961337182613352565b8484546132d4565b825550505050565b600090565b61338e613381565b61339981848461335c565b505050565b5b818110156133bd576133b2600082613386565b60018101905061339f565b5050565b601f821115613402576133d3816132a2565b6133dc846132b7565b810160208510156133eb578190505b6133ff6133f7856132b7565b83018261339e565b50505b505050565b600082821c905092915050565b600061342560001984600802613407565b1980831691505092915050565b600061343e8383613414565b9150826002028217905092915050565b6134578261274d565b67ffffffffffffffff8111156134705761346f612a71565b5b61347a8254612ef1565b6134858282856133c1565b600060209050601f8311600181146134b857600084156134a6578287015190505b6134b08582613432565b865550613518565b601f1984166134c6866132a2565b60005b828110156134ee578489015182556001820191506020850194506020810190506134c9565b8683101561350b5784890151613507601f891682613414565b8355505b6001600288020188555050505b505050505050565b7f4552433732313a20696e76616c696420746f6b656e2049440000000000000000600082015250565b6000613556601883612758565b915061356182613520565b602082019050919050565b6000602082019050818103600083015261358581613549565b9050919050565b7f4552433732313a2061646472657373207a65726f206973206e6f74206120766160008201527f6c6964206f776e65720000000000000000000000000000000000000000000000602082015250565b60006135e8602983612758565b91506135f38261358c565b604082019050919050565b60006020820190508181036000830152613617816135db565b9050919050565b7f6e6f6e6578697374656e7420746f6b656e000000000000000000000000000000600082015250565b6000613654601183612758565b915061365f8261361e565b602082019050919050565b6000602082019050818103600083015261368381613647565b9050919050565b600081905092915050565b7f7b00000000000000000000000000000000000000000000000000000000000000600082015250565b60006136cb60018361368a565b91506136d682613695565b600182019050919050565b7f226e616d65223a202241737461722043616e6479202300000000000000000000600082015250565b600061371760168361368a565b9150613722826136e1565b601682019050919050565b60006137388261274d565b613742818561368a565b9350613752818560208601612769565b80840191505092915050565b7f222c000000000000000000000000000000000000000000000000000000000000600082015250565b600061379460028361368a565b915061379f8261375e565b600282019050919050565b7f226465736372697074696f6e223a202254686973204e46542069732061206c6960008201527f6d697465642065646974696f6e204e465420697373756564207468726f75676860208201527f206120636f6c6c61626f726174696f6e206265747765656e204173746172204e60408201527f6574776f726b2c2043727970746f4261722050325020616e6420596f6d69537760608201527f61702e222c000000000000000000000000000000000000000000000000000000608082015250565b600061387860858361368a565b9150613883826137aa565b608582019050919050565b7f22696d616765223a000000000000000000000000000000000000000000000000600082015250565b60006138c460088361368a565b91506138cf8261388e565b600882019050919050565b600081546138e781612ef1565b6138f1818661368a565b9450600182166000811461390c576001811461392157613954565b60ff1983168652811515820286019350613954565b61392a856132a2565b60005b8381101561394c5781548189015260018201915060208101905061392d565b838801955050505b50505092915050565b7f7d00000000000000000000000000000000000000000000000000000000000000600082015250565b600061399360018361368a565b915061399e8261395d565b600182019050919050565b60006139b4826136be565b91506139bf8261370a565b91506139cb828561372d565b91506139d682613787565b91506139e18261386b565b91506139ec826138b7565b91506139f882846138da565b9150613a0382613986565b91508190509392505050565b7f646174613a6170706c69636174696f6e2f6a736f6e3b6261736536342c000000600082015250565b6000613a45601d8361368a565b9150613a5082613a0f565b601d82019050919050565b6000613a6682613a38565b9150613a72828461372d565b915081905092915050565b7f4f776e61626c653a206e6577206f776e657220697320746865207a65726f206160008201527f6464726573730000000000000000000000000000000000000000000000000000602082015250565b6000613ad9602683612758565b9150613ae482613a7d565b604082019050919050565b60006020820190508181036000830152613b0881613acc565b9050919050565b7f4552433732313a206d696e7420746f20746865207a65726f2061646472657373600082015250565b6000613b45602083612758565b9150613b5082613b0f565b602082019050919050565b60006020820190508181036000830152613b7481613b38565b9050919050565b7f4552433732313a20746f6b656e20616c7265616479206d696e74656400000000600082015250565b6000613bb1601c83612758565b9150613bbc82613b7b565b602082019050919050565b60006020820190508181036000830152613be081613ba4565b9050919050565b6000613bf2826127ff565b9150613bfd836127ff565b9250828201905080821115613c1557613c14613199565b5b92915050565b7f4552433732313a207472616e736665722066726f6d20696e636f72726563742060008201527f6f776e6572000000000000000000000000000000000000000000000000000000602082015250565b6000613c77602583612758565b9150613c8282613c1b565b604082019050919050565b60006020820190508181036000830152613ca681613c6a565b9050919050565b7f4552433732313a207472616e7366657220746f20746865207a65726f2061646460008201527f7265737300000000000000000000000000000000000000000000000000000000602082015250565b6000613d09602483612758565b9150613d1482613cad565b604082019050919050565b60006020820190508181036000830152613d3881613cfc565b9050919050565b6000613d4a826127ff565b9150613d55836127ff565b9250828203905081811115613d6d57613d6c613199565b5b92915050565b7f4f776e61626c653a2063616c6c6572206973206e6f7420746865206f776e6572600082015250565b6000613da9602083612758565b9150613db482613d73565b602082019050919050565b60006020820190508181036000830152613dd881613d9c565b9050919050565b7f4552433732313a20617070726f766520746f2063616c6c657200000000000000600082015250565b6000613e15601983612758565b9150613e2082613ddf565b602082019050919050565b60006020820190508181036000830152613e4481613e08565b9050919050565b7f4552433732313a207472616e7366657220746f206e6f6e20455243373231526560008201527f63656976657220696d706c656d656e7465720000000000000000000000000000602082015250565b6000613ea7603283612758565b9150613eb282613e4b565b604082019050919050565b60006020820190508181036000830152613ed681613e9a565b9050919050565b7f4e487b7100000000000000000000000000000000000000000000000000000000600052601260045260246000fd5b6000613f17826127ff565b9150613f22836127ff565b925082613f3257613f31613edd565b5b828204905092915050565b6000613f48826127ff565b9150613f53836127ff565b925082613f6357613f62613edd565b5b828206905092915050565b6000613f79826127ff565b9150613f84836127ff565b9250817fffffffffffffffffffffffffffffffffffffffffffffffffffffffffffffffff0483118215151615613fbd57613fbc613199565b5b828202905092915050565b600081519050919050565b600082825260208201905092915050565b6000613fef82613fc8565b613ff98185613fd3565b9350614009818560208601612769565b61401281612793565b840191505092915050565b60006080820190506140326000830187612894565b61403f6020830186612894565b61404c604083018561292a565b818103606083015261405e8184613fe4565b905095945050505050565b600081519050614078816126be565b92915050565b60006020828403121561409457614093612688565b5b60006140a284828501614069565b91505092915050565b7f4e487b7100000000000000000000000000000000000000000000000000000000600052603160045260246000fdfe4142434445464748494a4b4c4d4e4f505152535455565758595a6162636465666768696a6b6c6d6e6f707172737475767778797a303132333435363738392b2fa26469706673582212207244c6a74170830a632cf9f16d82c4242786028bc486c7d2579c69d493b74f9b64736f6c63430008100033",
  "linkReferences": {},
  "deployedLinkReferences": {}
}