{
  "_format": "hh-sol-artifact-1",
  "contractName": "Pool721",
  "sourceName": "contracts/Pool721.sol",
  "abi": [
    {
      "inputs": [
        {
          "internalType": "address",
          "name": "_collection",
          "type": "address"
        },
        {
          "internalType": "address",
          "name": "_bondingCurve",
          "type": "address"
        },
        {
          "internalType": "uint128",
          "name": "_spotPrice",
          "type": "uint128"
        },
        {
          "internalType": "uint128",
          "name": "_delta",
          "type": "uint128"
        },
        {
          "internalType": "uint256",
          "name": "_divergence",
          "type": "uint256"
        },
        {
          "internalType": "uint256",
          "name": "_protocolFeeRatio",
          "type": "uint256"
        },
        {
          "internalType": "address",
          "name": "_router",
          "type": "address"
        }
      ],
      "stateMutability": "nonpayable",
      "type": "constructor"
    },
    {
      "anonymous": false,
      "inputs": [
        {
          "indexed": true,
          "internalType": "address",
          "name": "user",
          "type": "address"
        },
        {
          "indexed": false,
          "internalType": "uint256",
          "name": "userNum",
          "type": "uint256"
        },
        {
          "indexed": false,
          "internalType": "uint256",
          "name": "userAmount",
          "type": "uint256"
        }
      ],
      "name": "StakeFT",
      "type": "event"
    },
    {
      "anonymous": false,
      "inputs": [
        {
          "indexed": true,
          "internalType": "address",
          "name": "user",
          "type": "address"
        },
        {
          "indexed": false,
          "internalType": "uint256",
          "name": "userNum",
          "type": "uint256"
        },
        {
          "indexed": false,
          "internalType": "uint256[]",
          "name": "tokenIds",
          "type": "uint256[]"
        }
      ],
      "name": "StakeNFT",
      "type": "event"
    },
    {
      "anonymous": false,
      "inputs": [
        {
          "indexed": true,
          "internalType": "address",
          "name": "user",
          "type": "address"
        },
        {
          "indexed": false,
          "internalType": "uint256[]",
          "name": "tokenIds",
          "type": "uint256[]"
        },
        {
          "indexed": false,
          "internalType": "uint256",
          "name": "totalFee",
          "type": "uint256"
        }
      ],
      "name": "SwapFTforNFT",
      "type": "event"
    },
    {
      "anonymous": false,
      "inputs": [
        {
          "indexed": true,
          "internalType": "address",
          "name": "user",
          "type": "address"
        },
        {
          "indexed": false,
          "internalType": "uint256[]",
          "name": "tokenIds",
          "type": "uint256[]"
        },
        {
          "indexed": false,
          "internalType": "uint256",
          "name": "totalFee",
          "type": "uint256"
        }
      ],
      "name": "SwapNFTforFT",
      "type": "event"
    },
    {
      "anonymous": false,
      "inputs": [
        {
          "indexed": true,
          "internalType": "address",
          "name": "user",
          "type": "address"
        },
        {
          "indexed": false,
          "internalType": "uint256[]",
          "name": "tokenIds",
          "type": "uint256[]"
        },
        {
          "indexed": false,
          "internalType": "uint256",
          "name": "userNum",
          "type": "uint256"
        },
        {
          "indexed": false,
          "internalType": "uint256",
          "name": "userAmount",
          "type": "uint256"
        },
        {
          "indexed": false,
          "internalType": "uint256",
          "name": "userFee",
          "type": "uint256"
        }
      ],
      "name": "WithdrawFT",
      "type": "event"
    },
    {
      "anonymous": false,
      "inputs": [
        {
          "indexed": true,
          "internalType": "address",
          "name": "user",
          "type": "address"
        },
        {
          "indexed": false,
          "internalType": "uint256[]",
          "name": "tokenIds",
          "type": "uint256[]"
        },
        {
          "indexed": false,
          "internalType": "uint256",
          "name": "userNum",
          "type": "uint256"
        },
        {
          "indexed": false,
          "internalType": "uint256",
          "name": "userFee",
          "type": "uint256"
        }
      ],
      "name": "WithdrawNFT",
      "type": "event"
    },
    {
      "inputs": [],
      "name": "buyEventNum",
      "outputs": [
        {
          "internalType": "uint256",
          "name": "",
          "type": "uint256"
        }
      ],
      "stateMutability": "view",
      "type": "function"
    },
    {
      "inputs": [],
      "name": "collection",
      "outputs": [
        {
          "internalType": "address",
          "name": "",
          "type": "address"
        }
      ],
      "stateMutability": "view",
      "type": "function"
    },
    {
      "inputs": [
        {
          "internalType": "uint256",
          "name": "_itemNum",
          "type": "uint256"
        },
        {
          "internalType": "uint128",
          "name": "_spotPrice",
          "type": "uint128"
        },
        {
          "internalType": "uint256",
          "name": "_divergence",
          "type": "uint256"
        }
      ],
      "name": "getCalcBuyInfo",
      "outputs": [
        {
          "internalType": "uint256",
          "name": "",
          "type": "uint256"
        }
      ],
      "stateMutability": "view",
      "type": "function"
    },
    {
      "inputs": [
        {
          "internalType": "uint256",
          "name": "_itemNum",
          "type": "uint256"
        },
        {
          "internalType": "uint128",
          "name": "_spotPrice",
          "type": "uint128"
        },
        {
          "internalType": "uint256",
          "name": "_divergence",
          "type": "uint256"
        }
      ],
      "name": "getCalcSellInfo",
      "outputs": [
        {
          "internalType": "uint256",
          "name": "",
          "type": "uint256"
        }
      ],
      "stateMutability": "view",
      "type": "function"
    },
    {
      "inputs": [],
      "name": "getPoolInfo",
      "outputs": [
        {
          "components": [
            {
              "internalType": "address",
              "name": "bondingCurve",
              "type": "address"
            },
            {
              "internalType": "uint128",
              "name": "spotPrice",
              "type": "uint128"
            },
            {
              "internalType": "uint128",
              "name": "delta",
              "type": "uint128"
            },
            {
              "internalType": "uint256",
              "name": "divergence",
              "type": "uint256"
            },
            {
              "internalType": "uint256",
              "name": "buyNum",
              "type": "uint256"
            },
            {
              "internalType": "uint256",
              "name": "sellNum",
              "type": "uint256"
            }
          ],
          "internalType": "struct Pool721.PoolInfo",
          "name": "",
          "type": "tuple"
        }
      ],
      "stateMutability": "view",
      "type": "function"
    },
    {
      "inputs": [
        {
          "internalType": "address",
          "name": "_user",
          "type": "address"
        }
      ],
      "name": "getUserInfo",
      "outputs": [
        {
          "components": [
            {
              "internalType": "uint256",
              "name": "userInitBuyNum",
              "type": "uint256"
            },
            {
              "internalType": "uint256",
              "name": "userInitSellNum",
              "type": "uint256"
            },
            {
              "internalType": "uint256",
              "name": "userInitSellAmount",
              "type": "uint256"
            },
            {
              "internalType": "uint256",
              "name": "userNFTpoint",
              "type": "uint256"
            },
            {
              "internalType": "uint256",
              "name": "userFTpoint",
              "type": "uint256"
            }
          ],
          "internalType": "struct Pool721.UserInfo",
          "name": "",
          "type": "tuple"
        }
      ],
      "stateMutability": "view",
      "type": "function"
    },
    {
      "inputs": [
        {
          "internalType": "address",
          "name": "_user",
          "type": "address"
        }
      ],
      "name": "getUserStakeFTfee",
      "outputs": [
        {
          "internalType": "uint256",
          "name": "_userFee",
          "type": "uint256"
        }
      ],
      "stateMutability": "view",
      "type": "function"
    },
    {
      "inputs": [
        {
          "internalType": "address",
          "name": "_user",
          "type": "address"
        }
      ],
      "name": "getUserStakeNFTfee",
      "outputs": [
        {
          "internalType": "uint256",
          "name": "_userFee",
          "type": "uint256"
        }
      ],
      "stateMutability": "view",
      "type": "function"
    },
    {
      "inputs": [
        {
          "internalType": "address",
          "name": "",
          "type": "address"
        },
        {
          "internalType": "address",
          "name": "",
          "type": "address"
        },
        {
          "internalType": "uint256",
          "name": "",
          "type": "uint256"
        },
        {
          "internalType": "bytes",
          "name": "",
          "type": "bytes"
        }
      ],
      "name": "onERC721Received",
      "outputs": [
        {
          "internalType": "bytes4",
          "name": "",
          "type": "bytes4"
        }
      ],
      "stateMutability": "nonpayable",
      "type": "function"
    },
    {
      "inputs": [],
      "name": "poolInfo",
      "outputs": [
        {
          "internalType": "address",
          "name": "bondingCurve",
          "type": "address"
        },
        {
          "internalType": "uint128",
          "name": "spotPrice",
          "type": "uint128"
        },
        {
          "internalType": "uint128",
          "name": "delta",
          "type": "uint128"
        },
        {
          "internalType": "uint256",
          "name": "divergence",
          "type": "uint256"
        },
        {
          "internalType": "uint256",
          "name": "buyNum",
          "type": "uint256"
        },
        {
          "internalType": "uint256",
          "name": "sellNum",
          "type": "uint256"
        }
      ],
      "stateMutability": "view",
      "type": "function"
    },
    {
      "inputs": [],
      "name": "protocolFeeRatio",
      "outputs": [
        {
          "internalType": "uint256",
          "name": "",
          "type": "uint256"
        }
      ],
      "stateMutability": "view",
      "type": "function"
    },
    {
      "inputs": [],
      "name": "router",
      "outputs": [
        {
          "internalType": "address",
          "name": "",
          "type": "address"
        }
      ],
      "stateMutability": "view",
      "type": "function"
    },
    {
      "inputs": [],
      "name": "sellEventNum",
      "outputs": [
        {
          "internalType": "uint256",
          "name": "",
          "type": "uint256"
        }
      ],
      "stateMutability": "view",
      "type": "function"
    },
    {
      "inputs": [
        {
          "internalType": "address",
          "name": "_newRouter",
          "type": "address"
        }
      ],
      "name": "setRouter",
      "outputs": [],
      "stateMutability": "nonpayable",
      "type": "function"
    },
    {
      "inputs": [
        {
          "internalType": "uint256",
          "name": "_itemNum",
          "type": "uint256"
        },
        {
          "internalType": "address",
          "name": "_user",
          "type": "address"
        }
      ],
      "name": "stakeFT",
      "outputs": [],
      "stateMutability": "payable",
      "type": "function"
    },
    {
      "inputs": [],
      "name": "stakeFTprice",
      "outputs": [
        {
          "internalType": "uint128",
          "name": "",
          "type": "uint128"
        }
      ],
      "stateMutability": "view",
      "type": "function"
    },
    {
      "inputs": [
        {
          "internalType": "uint256[]",
          "name": "_tokenIds",
          "type": "uint256[]"
        },
        {
          "internalType": "address",
          "name": "_user",
          "type": "address"
        }
      ],
      "name": "stakeNFT",
      "outputs": [],
      "stateMutability": "nonpayable",
      "type": "function"
    },
    {
      "inputs": [],
      "name": "stakeNFTprice",
      "outputs": [
        {
          "internalType": "uint128",
          "name": "",
          "type": "uint128"
        }
      ],
      "stateMutability": "view",
      "type": "function"
    },
    {
      "inputs": [
        {
          "internalType": "uint256[]",
          "name": "_tokenIds",
          "type": "uint256[]"
        },
        {
          "internalType": "address",
          "name": "_user",
          "type": "address"
        }
      ],
      "name": "swapFTforNFT",
      "outputs": [
        {
          "internalType": "uint256",
          "name": "_protocolFee",
          "type": "uint256"
        }
      ],
      "stateMutability": "payable",
      "type": "function"
    },
    {
      "inputs": [
        {
          "internalType": "uint256[]",
          "name": "_tokenIds",
          "type": "uint256[]"
        },
        {
          "internalType": "uint256",
          "name": "_minExpectFee",
          "type": "uint256"
        },
        {
          "internalType": "address",
          "name": "_user",
          "type": "address"
        }
      ],
      "name": "swapNFTforFT",
      "outputs": [
        {
          "internalType": "uint256",
          "name": "_protocolFee",
          "type": "uint256"
        }
      ],
      "stateMutability": "payable",
      "type": "function"
    },
    {
      "inputs": [],
      "name": "totalFTfee",
      "outputs": [
        {
          "internalType": "uint256",
          "name": "",
          "type": "uint256"
        }
      ],
      "stateMutability": "view",
      "type": "function"
    },
    {
      "inputs": [],
      "name": "totalFTpoint",
      "outputs": [
        {
          "internalType": "uint256",
          "name": "",
          "type": "uint256"
        }
      ],
      "stateMutability": "view",
      "type": "function"
    },
    {
      "inputs": [],
      "name": "totalNFTfee",
      "outputs": [
        {
          "internalType": "uint256",
          "name": "",
          "type": "uint256"
        }
      ],
      "stateMutability": "view",
      "type": "function"
    },
    {
      "inputs": [],
      "name": "totalNFTpoint",
      "outputs": [
        {
          "internalType": "uint256",
          "name": "",
          "type": "uint256"
        }
      ],
      "stateMutability": "view",
      "type": "function"
    },
    {
      "inputs": [
        {
          "internalType": "uint256",
          "name": "_userSellNum",
          "type": "uint256"
        },
        {
          "internalType": "uint256[]",
          "name": "_tokenIds",
          "type": "uint256[]"
        },
        {
          "internalType": "address",
          "name": "_user",
          "type": "address"
        }
      ],
      "name": "withdrawFT",
      "outputs": [],
      "stateMutability": "payable",
      "type": "function"
    },
    {
      "inputs": [
        {
          "internalType": "uint256[]",
          "name": "_tokenIds",
          "type": "uint256[]"
        },
        {
          "internalType": "address",
          "name": "_user",
          "type": "address"
        }
      ],
      "name": "withdrawNFT",
      "outputs": [],
      "stateMutability": "payable",
      "type": "function"
    }
  ],
  "bytecode": "0x60806040523480156200001157600080fd5b506040516200778138038062007781833981810160405281019062000037919062000411565b6200005367a9ec9c666997a63260c01b6200031c60201b60201c565b6200006f67933f8d4e4c10e6ea60c01b6200031c60201b60201c565b86600160006101000a81548173ffffffffffffffffffffffffffffffffffffffff021916908373ffffffffffffffffffffffffffffffffffffffff160217905550620000cb66ed764460cb6f3c60c01b6200031c60201b60201c565b85600a60000160006101000a81548173ffffffffffffffffffffffffffffffffffffffff021916908373ffffffffffffffffffffffffffffffffffffffff1602179055506200012b67da3e49344da6fd5e60c01b6200031c60201b60201c565b84600a60010160006101000a8154816fffffffffffffffffffffffffffffffff02191690836fffffffffffffffffffffffffffffffff1602179055506200018367e6f59268e01a7ad760c01b6200031c60201b60201c565b84600760106101000a8154816fffffffffffffffffffffffffffffffff02191690836fffffffffffffffffffffffffffffffff160217905550620001d867070d00c2b2aa9c5060c01b6200031c60201b60201c565b84600760006101000a8154816fffffffffffffffffffffffffffffffff02191690836fffffffffffffffffffffffffffffffff1602179055506200022d67f0ec4f621ebff0a260c01b6200031c60201b60201c565b83600a60010160106101000a8154816fffffffffffffffffffffffffffffffff02191690836fffffffffffffffffffffffffffffffff160217905550620002856703dade65282da96560c01b6200031c60201b60201c565b82600a60020181905550620002ab670760e17b4b0bede860c01b6200031c60201b60201c565b81600081905550620002ce67bd5e30477b9bab0e60c01b6200031c60201b60201c565b80600260006101000a81548173ffffffffffffffffffffffffffffffffffffffff021916908373ffffffffffffffffffffffffffffffffffffffff16021790555050505050505050620004c4565b50565b600080fd5b600073ffffffffffffffffffffffffffffffffffffffff82169050919050565b6000620003518262000324565b9050919050565b620003638162000344565b81146200036f57600080fd5b50565b600081519050620003838162000358565b92915050565b60006fffffffffffffffffffffffffffffffff82169050919050565b620003b08162000389565b8114620003bc57600080fd5b50565b600081519050620003d081620003a5565b92915050565b6000819050919050565b620003eb81620003d6565b8114620003f757600080fd5b50565b6000815190506200040b81620003e0565b92915050565b600080600080600080600060e0888a0312156200043357620004326200031f565b5b6000620004438a828b0162000372565b9750506020620004568a828b0162000372565b9650506040620004698a828b01620003bf565b95505060606200047c8a828b01620003bf565b94505060806200048f8a828b01620003fa565b93505060a0620004a28a828b01620003fa565b92505060c0620004b58a828b0162000372565b91505092959891949750929550565b6172ad80620004d46000396000f3fe6080604052600436106101815760003560e01c80636b469d39116100d1578063a09bf8c21161008a578063e7ede50211610064578063e7ede50214610582578063eaa62678146105ad578063f887ea40146105d8578063fc5ad2df1461060357610181565b8063a09bf8c214610500578063c0d786551461051c578063cb6f0d341461054557610181565b80636b469d39146103ec5780637a27d9f6146104295780637b6880ca146104545780637de1e5361461047f57806386524b2d146104aa578063895af871146104d557610181565b80634c4cbac41161013e57806354044ccb1161011857806354044ccb146103295780635a2f3d091461035457806360246c88146103845780636386c1c7146103af57610181565b80634c4cbac4146102a057806350902c17146102d057806353153836146102ec57610181565b8063150b7a0214610186578063244117b4146101c35780632767fa4b146101f35780632c7e49151461021e5780632f7e0b2e1461023a578063341d15fd14610263575b600080fd5b34801561019257600080fd5b506101ad60048036038101906101a89190616279565b61062e565b6040516101ba9190616337565b60405180910390f35b6101dd60048036038101906101d8919061641a565b61067e565b6040516101ea9190616498565b60405180910390f35b3480156101ff57600080fd5b50610208610e9f565b60405161021591906164de565b60405180910390f35b610238600480360381019061023391906164f9565b610ec1565b005b34801561024657600080fd5b50610261600480360381019061025c91906164f9565b611c77565b005b34801561026f57600080fd5b5061028a60048036038101906102859190616581565b612291565b6040516102979190616498565b60405180910390f35b6102ba60048036038101906102b591906164f9565b6123cf565b6040516102c79190616498565b60405180910390f35b6102ea60048036038101906102e591906165d4565b612b68565b005b3480156102f857600080fd5b50610313600480360381019061030e9190616581565b613ae5565b6040516103209190616498565b60405180910390f35b34801561033557600080fd5b5061033e613c24565b60405161034b9190616498565b60405180910390f35b34801561036057600080fd5b50610369613c2a565b60405161037b96959493929190616652565b60405180910390f35b34801561039057600080fd5b50610399613cac565b6040516103a6919061675b565b60405180910390f35b3480156103bb57600080fd5b506103d660048036038101906103d19190616776565b613e0a565b6040516103e3919061680b565b60405180910390f35b3480156103f857600080fd5b50610413600480360381019061040e9190616776565b613ed1565b6040516104209190616498565b60405180910390f35b34801561043557600080fd5b5061043e61409f565b60405161044b9190616498565b60405180910390f35b34801561046057600080fd5b506104696140a5565b60405161047691906164de565b60405180910390f35b34801561048b57600080fd5b506104946140c7565b6040516104a19190616826565b60405180910390f35b3480156104b657600080fd5b506104bf6140ed565b6040516104cc9190616498565b60405180910390f35b3480156104e157600080fd5b506104ea6140f3565b6040516104f79190616498565b60405180910390f35b61051a60048036038101906105159190616841565b6140f9565b005b34801561052857600080fd5b50610543600480360381019061053e9190616776565b6147b0565b005b34801561055157600080fd5b5061056c60048036038101906105679190616776565b61494c565b6040516105799190616498565b60405180910390f35b34801561058e57600080fd5b50610597614b1a565b6040516105a49190616498565b60405180910390f35b3480156105b957600080fd5b506105c2614b20565b6040516105cf9190616498565b60405180910390f35b3480156105e457600080fd5b506105ed614b26565b6040516105fa9190616826565b60405180910390f35b34801561060f57600080fd5b50610618614b4c565b6040516106259190616498565b60405180910390f35b60006106446764f7c248380a346c60c01b614b52565b61065867d45f0d101ee4084f60c01b614b52565b61066c674b3a79c23a7b37e660c01b614b52565b63150b7a0260e01b9050949350505050565b60006106946780efa2e78bbf56e760c01b614b52565b6106a867e91f0fc3a232e12860c01b614b52565b6106bc6786ecaf6b2f40063e60c01b614b52565b6106d0676f71fe37f6e5936060c01b614b52565b3373ffffffffffffffffffffffffffffffffffffffff168273ffffffffffffffffffffffffffffffffffffffff1614801561071b575061071a6793e5801f9433ad8860c01b614b55565b5b8061078f5750600260009054906101000a900473ffffffffffffffffffffffffffffffffffffffff1673ffffffffffffffffffffffffffffffffffffffff163373ffffffffffffffffffffffffffffffffffffffff1614801561078e575061078d672d6d4b744fe1d5ef60c01b614b55565b5b5b61079857600080fd5b6107ac670dc1fedade8b82c560c01b614b52565b6107c067ef063f06d4900c1c60c01b614b52565b6107d4675dfb2879e6c6455d60c01b614b52565b6000845190506107ee6773f4b722a27ad94660c01b614b52565b610802679fd55356fbd9726560c01b614b52565b610816677ca4245685de366f60c01b614b52565b60008111610859576040517f08c379a0000000000000000000000000000000000000000000000000000000008152600401610850906168de565b60405180910390fd5b61086d670e9803324c55d02d60c01b614b52565b61088167ead38d20f11a6bd260c01b614b52565b61089567cb2c7df06907017160c01b614b52565b6000806000806000600a60000160009054906101000a900473ffffffffffffffffffffffffffffffffffffffff1673ffffffffffffffffffffffffffffffffffffffff1663c728b364600a60010160009054906101000a90046fffffffffffffffffffffffffffffffff16600a60010160109054906101000a90046fffffffffffffffffffffffffffffffff16600a600201548a6040518563ffffffff1660e01b815260040161094894939291906168fe565b60a060405180830381865afa158015610965573d6000803e3d6000fd5b505050506040513d601f19601f820116820180604052508101906109899190616992565b945094509450945094506109a7673a490a23227a7c4b60c01b614b52565b6109bb67ab510b376e56a28860c01b614b52565b6109cf67a9403b8549134c8e60c01b614b52565b600060028111156109e3576109e2616a0d565b5b8560028111156109f6576109f5616a0d565b5b14610a36576040517f08c379a0000000000000000000000000000000000000000000000000000000008152600401610a2d90616a88565b60405180910390fd5b610a4a678012cc75c21df26f60c01b614b52565b610a5e67bdccd4a62d51797960c01b614b52565b610a726742c0c4fba1fb204a60c01b614b52565b610a8667ffb799113e830fa760c01b614b52565b600a60040154861115610ace576040517f08c379a0000000000000000000000000000000000000000000000000000000008152600401610ac590616af4565b60405180910390fd5b610ae2671efd4c6d96cfd90160c01b614b52565b610af667e81618c132b439a160c01b614b52565b610b0a6784528fd722735aba60c01b614b52565b610b1e67f59ea405dfc0087760c01b614b52565b88811015610b61576040517f08c379a0000000000000000000000000000000000000000000000000000000008152600401610b5890616b60565b60405180910390fd5b610b756749f79a9396cfe3fd60c01b614b52565b610b89676eb53d474725edec60c01b614b52565b610b9d67204d51c41255a13b60c01b614b52565b610bb167dcd05b3929846baa60c01b614b52565b80471015610bf4576040517f08c379a0000000000000000000000000000000000000000000000000000000008152600401610beb90616bcc565b60405180910390fd5b610c0867b8e012d123d1daf860c01b614b52565b610c1c67b1157862d33e932a60c01b614b52565b8560046000828254610c2e9190616c1b565b92505081905550610c4967b652545f8efdef1e60c01b614b52565b85600a6004016000828254610c5e9190616c4f565b92505081905550610c796798b59a2bc6d5ff1460c01b614b52565b85600a6003016000828254610c8e9190616c1b565b92505081905550610ca9674243ecb19edba06660c01b614b52565b610cb1614b60565b9650610cc7671d5bb37b6bec71a960c01b614b52565b610cdb67fae3261a706427a660c01b614b52565b610ce68484846151b9565b610cfa67cc80a087f9afe2b460c01b614b52565b610d0e6758fce737bc56e11260c01b614b52565b610d1a8a878a30615466565b610d2e6766460c3d6c4d22a560c01b614b52565b610d4267469e24bbdf8ae76f60c01b614b52565b8773ffffffffffffffffffffffffffffffffffffffff166108fc829081150290604051600060405180830381858888f19350505050158015610d88573d6000803e3d6000fd5b50610d9d672f96b596eedaf9b860c01b614b52565b610db167cf2d2ae56b0a44bd60c01b614b52565b600260009054906101000a900473ffffffffffffffffffffffffffffffffffffffff1673ffffffffffffffffffffffffffffffffffffffff166108fc889081150290604051600060405180830381858888f19350505050158015610e19573d6000803e3d6000fd5b50610e2e678c61e08bcba5895760c01b614b52565b610e4267debadb772f6ac41160c01b614b52565b8773ffffffffffffffffffffffffffffffffffffffff167f52a8813c8bdca51f38292d707f835c85ffb8d74c66cc39a75609345ff2c3f0be8b83604051610e8a929190616d32565b60405180910390a25050505050509392505050565b600760109054906101000a90046fffffffffffffffffffffffffffffffff1681565b610ed56798be6634ac06a12960c01b614b52565b610ee96742cf336c280b293860c01b614b52565b610efd67b2ea1b0f1e1b08c260c01b614b52565b600082519050610f1767878926961b95073b60c01b614b52565b610f2b6756707712a88d4ec060c01b614b52565b6000600f60008473ffffffffffffffffffffffffffffffffffffffff1673ffffffffffffffffffffffffffffffffffffffff168152602001908152602001600020600001549050610f866771c54ab117a097d060c01b614b52565b610f9a6710b34adc1509aee560c01b614b52565b6000610fa5846155a8565b9050610fbb67a00fb55105180f3e60c01b614b52565b610fcf67709eef878ac7a0c160c01b614b52565b610fe3672da02152efb87b2e60c01b614b52565b82600a60030154101561102b576040517f08c379a000000000000000000000000000000000000000000000000000000000815260040161102290616dae565b60405180910390fd5b61103f67292720769779153060c01b614b52565b611053672706c8f5299c83e760c01b614b52565b61106767cea50471a874caa760c01b614b52565b61107b677b48c4463a19201d60c01b614b52565b82600f60008673ffffffffffffffffffffffffffffffffffffffff1673ffffffffffffffffffffffffffffffffffffffff168152602001908152602001600020600001541480156110dc57506110db67790b5e68270bb48f60c01b614b55565b5b80611107575082600a600301541480156111065750611105675a5bbb760265dc4760c01b614b55565b5b5b611146576040517f08c379a000000000000000000000000000000000000000000000000000000000815260040161113d90616e1a565b60405180910390fd5b61115a67670440908a22b46960c01b614b52565b61116e6712cf4ba4c2585e9960c01b614b52565b82600a60030160008282546111839190616c4f565b9250508190555061119e67f785d5de14b4462f60c01b614b52565b6000600f60008673ffffffffffffffffffffffffffffffffffffffff1673ffffffffffffffffffffffffffffffffffffffff168152602001908152602001600020600001819055506111fa674bda9f058d79d25360c01b614b52565b600f60008573ffffffffffffffffffffffffffffffffffffffff1673ffffffffffffffffffffffffffffffffffffffff168152602001908152602001600020600301546006600082825461124e9190616c4f565b9250508190555061126967519834fe1907863460c01b614b52565b806009600082825461127b9190616c4f565b925050819055506112966732c97483510e261a60c01b614b52565b6000600f60008673ffffffffffffffffffffffffffffffffffffffff1673ffffffffffffffffffffffffffffffffffffffff168152602001908152602001600020600301819055506112f267625004bfffa0181c60c01b614b52565b611306674e8f2a7b7938dbc860c01b614b52565b600083111561153757611323671c547bc3e594686660c01b614b52565b61133767ef7fbe3fa4f1a6ac60c01b614b52565b61134b67b8fc7fa2152f959260c01b614b52565b6000806000600a60000160009054906101000a900473ffffffffffffffffffffffffffffffffffffffff1673ffffffffffffffffffffffffffffffffffffffff1663c728b364600760109054906101000a90046fffffffffffffffffffffffffffffffff16600a60010160109054906101000a90046fffffffffffffffffffffffffffffffff16670de0b6b3a7640000896040518563ffffffff1660e01b81526004016113fb94939291906168fe565b60a060405180830381865afa158015611418573d6000803e3d6000fd5b505050506040513d601f19601f8201168201806040525081019061143c9190616992565b505092509250925061145867b60e8380ae36c7b560c01b614b52565b61146c67c847b54868b531ed60c01b614b52565b6114806708079b249532f7ad60c01b614b52565b6000600281111561149457611493616a0d565b5b8360028111156114a7576114a6616a0d565b5b146114e7576040517f08c379a00000000000000000000000000000000000000000000000000000000081526004016114de90616a88565b60405180910390fd5b6114fb6786b53e3ac53fc32160c01b614b52565b61150f67e37487f9a84cdaa460c01b614b52565b611523675ecf78313346016860c01b614b52565b61152f60028383615776565b50505061154c565b61154b678ae9c6c08084ef3c60c01b614b52565b5b61156067f9918bd8c5e52e1160c01b614b52565b611574672694e43bd4f7770260c01b614b52565b82821115611adf5761159067bbcc27c7cb13240c60c01b614b52565b6115a4677aafcda1b8c3373160c01b614b52565b6115b867954675f213f8a31e60c01b614b52565b600083836115c69190616c4f565b90506115dc671af5ce5d23b88f2c60c01b614b52565b6115f06782d9e4386ccc9c9760c01b614b52565b600080600a60000160009054906101000a900473ffffffffffffffffffffffffffffffffffffffff1673ffffffffffffffffffffffffffffffffffffffff1663c728b364600760109054906101000a90046fffffffffffffffffffffffffffffffff16600a60010160109054906101000a90046fffffffffffffffffffffffffffffffff16670de0b6b3a7640000876040518563ffffffff1660e01b815260040161169e94939291906168fe565b60a060405180830381865afa1580156116bb573d6000803e3d6000fd5b505050506040513d601f19601f820116820180604052508101906116df9190616992565b945050505091506116fa676cea9becb147a94f60c01b614b52565b61170e67ca4ea39efea3210060c01b614b52565b6117226784c6c8c19f6a46bb60c01b614b52565b6000600281111561173657611735616a0d565b5b82600281111561174957611748616a0d565b5b14611789576040517f08c379a000000000000000000000000000000000000000000000000000000000815260040161178090616a88565b60405180910390fd5b61179d678419736e00ca5d7e60c01b614b52565b6117b16738ab1a9f476f621a60c01b614b52565b6117c56742f1b168f1e5b54b60c01b614b52565b6000806000600a60000160009054906101000a900473ffffffffffffffffffffffffffffffffffffffff1673ffffffffffffffffffffffffffffffffffffffff16635d998912600760009054906101000a90046fffffffffffffffffffffffffffffffff16600a60010160109054906101000a90046fffffffffffffffffffffffffffffffff16670de0b6b3a76400008a6040518563ffffffff1660e01b815260040161187594939291906168fe565b60a060405180830381865afa158015611892573d6000803e3d6000fd5b505050506040513d601f19601f820116820180604052508101906118b69190616992565b50509250925092506118d267e4a958e4134d5e3d60c01b614b52565b6118e6673860a3b7dee7216860c01b614b52565b6118fa67113f1d692721179a60c01b614b52565b6000600281111561190e5761190d616a0d565b5b83600281111561192157611920616a0d565b5b14611961576040517f08c379a000000000000000000000000000000000000000000000000000000000815260040161195890616a88565b60405180910390fd5b611975671d3be4074e97e34360c01b614b52565b611989678c66e7380adf044b60c01b614b52565b61199d67200ec5cd1980014460c01b614b52565b6119a960018383615776565b6119bd67978ed045b64cd63760c01b614b52565b85600a60040160008282546119d29190616c4f565b925050819055506119ed674eacf95c71a931f460c01b614b52565b85600360008282546119ff9190616c4f565b92505081905550611a1a67a7b797fb0e9d422160c01b614b52565b611a2e67ef32478560184d7360c01b614b52565b6000841115611abf57611a4b67329ec640de1258e860c01b614b52565b611a5f6750868a73fc02bb4060c01b614b52565b611a7367cd547a8df38bab0b60c01b614b52565b8973ffffffffffffffffffffffffffffffffffffffff166108fc859081150290604051600060405180830381858888f19350505050158015611ab9573d6000803e3d6000fd5b50611ad4565b611ad3672f7d1fe03abc0c4a60c01b614b52565b5b505050505050611af4565b611af36705dce251f85b234660c01b614b52565b5b611b08671b0dd26906212b8460c01b614b52565b611b1c679b1f4cbd45ad97b560c01b614b52565b611b2885843087615466565b611b3c6786729cdbcfac302160c01b614b52565b611b50678a14055786a5a43160c01b614b52565b6000811115611be157611b6d67c7ad298f6e4b9ae260c01b614b52565b611b8167dd668a6ff71ea57e60c01b614b52565b611b956713b14807dd506ef360c01b614b52565b8373ffffffffffffffffffffffffffffffffffffffff166108fc829081150290604051600060405180830381858888f19350505050158015611bdb573d6000803e3d6000fd5b50611bf6565b611bf5676f1fa8a8a8bb225760c01b614b52565b5b611c0a6734769767c727ad6b60c01b614b52565b611c1e671ebf60a2577a6cc660c01b614b52565b8373ffffffffffffffffffffffffffffffffffffffff167fae12f538fd8232ce822341f49f6323a75f6a7c19115d403ef481b0a39cf46775868484604051611c6893929190616e3a565b60405180910390a25050505050565b611c8b67c8a817f5b649359b60c01b614b52565b611c9f67a96270f361a9947b60c01b614b52565b611cb3670c569a1e766554d360c01b614b52565b611cc76767b95d10f0d3197560c01b614b52565b3373ffffffffffffffffffffffffffffffffffffffff168173ffffffffffffffffffffffffffffffffffffffff16148015611d125750611d1167f29ed4a743ff6b9d60c01b614b55565b5b80611d865750600260009054906101000a900473ffffffffffffffffffffffffffffffffffffffff1673ffffffffffffffffffffffffffffffffffffffff163373ffffffffffffffffffffffffffffffffffffffff16148015611d855750611d84675b3e2e772cd5016260c01b614b55565b5b5b611d8f57600080fd5b611da367b54457fd876a94fb60c01b614b52565b611db767f325a415dec963fd60c01b614b52565b611dcb670292a9d41ce6497060c01b614b52565b600082519050611de5679303a7a138a7d6bf60c01b614b52565b611df96714d66eea9da949b660c01b614b52565b611e0d67c95622c68e2eee8160c01b614b52565b60008111611e50576040517f08c379a0000000000000000000000000000000000000000000000000000000008152600401611e47906168de565b60405180910390fd5b611e64679a996244116f7b9360c01b614b52565b611e7867e4166d24f73d41ba60c01b614b52565b611e8c67b426e18a1858ffe060c01b614b52565b600080600080600a60000160009054906101000a900473ffffffffffffffffffffffffffffffffffffffff1673ffffffffffffffffffffffffffffffffffffffff16635d998912600760109054906101000a90046fffffffffffffffffffffffffffffffff16600a60010160109054906101000a90046fffffffffffffffffffffffffffffffff16600a60020154896040518563ffffffff1660e01b8152600401611f3a94939291906168fe565b60a060405180830381865afa158015611f57573d6000803e3d6000fd5b505050506040513d601f19601f82011682018060405250810190611f7b9190616992565b945050935093509350611f98676d5f949b0371ea5760c01b614b52565b611fac67eeb87a9a401815d760c01b614b52565b611fc06730962542c5657e6c60c01b614b52565b60006002811115611fd457611fd3616a0d565b5b846002811115611fe757611fe6616a0d565b5b14612027576040517f08c379a000000000000000000000000000000000000000000000000000000000815260040161201e90616a88565b60405180910390fd5b61203b6704fb12be985f3f8c60c01b614b52565b61204f6797518226b7f4f07360c01b614b52565b61206367e7fa5fdbac19420860c01b614b52565b600061206e82615a96565b90506120846764b633820afbedd860c01b614b52565b80600f60008973ffffffffffffffffffffffffffffffffffffffff1673ffffffffffffffffffffffffffffffffffffffff16815260200190815260200160002060030160008282546120d69190616c1b565b925050819055506120f16722c6f9548ac098cf60c01b614b52565b80600660008282546121039190616c1b565b9250508190555061211e67c7e767a5764f93b660c01b614b52565b85600f60008973ffffffffffffffffffffffffffffffffffffffff1673ffffffffffffffffffffffffffffffffffffffff16815260200190815260200160002060000160008282546121709190616c1b565b9250508190555061218b6712e06318f2a0393960c01b614b52565b85600a60030160008282546121a09190616c1b565b925050819055506121bb67b6af96cfcaf64f5360c01b614b52565b6121cf674243c0ec7761276b60c01b614b52565b6121db60028585615776565b6121ef6708d4f52e1a027fe860c01b614b52565b61220367db2630c935edd35360c01b614b52565b61220f88878930615466565b61222367df331a2b588036f460c01b614b52565b61223767dd064985dea777b660c01b614b52565b8673ffffffffffffffffffffffffffffffffffffffff167fb0c56c1c40b91909a8c61fe7d6feb60c8dc44e92ce0cff5beb3c5d449a7eb309878a60405161227f929190616e78565b60405180910390a25050505050505050565b60006122a76710d8910641eb6a5a60c01b614b52565b6122bb67ab711d43372e812a60c01b614b52565b6122cf6763460633ba1cca2960c01b614b52565b6000600a60000160009054906101000a900473ffffffffffffffffffffffffffffffffffffffff1673ffffffffffffffffffffffffffffffffffffffff1663c728b36485600a60010160109054906101000a90046fffffffffffffffffffffffffffffffff1686896040518563ffffffff1660e01b815260040161235694939291906168fe565b60a060405180830381865afa158015612373573d6000803e3d6000fd5b505050506040513d601f19601f820116820180604052508101906123979190616992565b9450505050506123b167bbd8776e8da27c0c60c01b614b52565b6123c466c7328f1de6bb2560c01b614b52565b809150509392505050565b60006123e567c065cdd91f8b58b860c01b614b52565b6123f96778734b06aebf698460c01b614b52565b61240d67391d14db9eece09260c01b614b52565b61242167e92c06f106f02adc60c01b614b52565b3373ffffffffffffffffffffffffffffffffffffffff168273ffffffffffffffffffffffffffffffffffffffff1614801561246c575061246b672cea3bad1a48106e60c01b614b55565b5b806124e05750600260009054906101000a900473ffffffffffffffffffffffffffffffffffffffff1673ffffffffffffffffffffffffffffffffffffffff163373ffffffffffffffffffffffffffffffffffffffff161480156124df57506124de6718bbb3f9e68b29ee60c01b614b55565b5b5b6124e957600080fd5b6124fd67c7e0abdcbba5996060c01b614b52565b6125116724359039b3ff72d360c01b614b52565b6125256766140fd872c5409460c01b614b52565b60008351905061253f67aaaf22ad064aa27c60c01b614b52565b612553677facbc141035d17160c01b614b52565b61256767b77de4f7408bd71260c01b614b52565b600081116125aa576040517f08c379a00000000000000000000000000000000000000000000000000000000081526004016125a1906168de565b60405180910390fd5b6125be674682c2b5b4f6851060c01b614b52565b6125d267c364211cbdd78cdd60c01b614b52565b6125e66701325a2c1cd3876860c01b614b52565b6000806000806000600a60000160009054906101000a900473ffffffffffffffffffffffffffffffffffffffff1673ffffffffffffffffffffffffffffffffffffffff16635d998912600a60010160009054906101000a90046fffffffffffffffffffffffffffffffff16600a60010160109054906101000a90046fffffffffffffffffffffffffffffffff16600a600201548a6040518563ffffffff1660e01b815260040161269994939291906168fe565b60a060405180830381865afa1580156126b6573d6000803e3d6000fd5b505050506040513d601f19601f820116820180604052508101906126da9190616992565b945094509450945094506126f867fed4a135ad57366f60c01b614b52565b61270c67b79aa9eefae8fdfc60c01b614b52565b61272067537d6c9d9298909360c01b614b52565b6000600281111561273457612733616a0d565b5b85600281111561274757612746616a0d565b5b14612787576040517f08c379a000000000000000000000000000000000000000000000000000000000815260040161277e90616a88565b60405180910390fd5b61279b6721c416b0c5c250ea60c01b614b52565b6127af67ea0d74c5b094f07060c01b614b52565b6127c36760110004626200d760c01b614b52565b6127d7671c80c81a458ae80560c01b614b52565b600a6003015486111561281f576040517f08c379a000000000000000000000000000000000000000000000000000000000815260040161281690616af4565b60405180910390fd5b6128336791b6ea4f225e8d3160c01b614b52565b61284767dc792a780ab9beca60c01b614b52565b61285b678297a00cec69784f60c01b614b52565b61286f67624f49c4c03f61c560c01b614b52565b803410156128b2576040517f08c379a00000000000000000000000000000000000000000000000000000000081526004016128a990616ef4565b60405180910390fd5b6128c667e0f2c586be7cd8c760c01b614b52565b6128da67309e20a843aff62b60c01b614b52565b85600360008282546128ec9190616c1b565b92505081905550612907670ec624a4367de4c560c01b614b52565b85600a600301600082825461291c9190616c4f565b9250508190555061293767ee6eec6a1c5cfb3360c01b614b52565b85600a600401600082825461294c9190616c1b565b92505081905550612967671be7f5ef00146c4160c01b614b52565b61296f614b60565b96506129856750364cae8c2dc4c360c01b614b52565b61299967a384592980706aeb60c01b614b52565b6129a48484846151b9565b6129b867459d4d6d04e76aee60c01b614b52565b6129cc6740a2281cc2e19fff60c01b614b52565b8773ffffffffffffffffffffffffffffffffffffffff166108fc82346129f29190616c4f565b9081150290604051600060405180830381858888f19350505050158015612a1d573d6000803e3d6000fd5b50612a3267fe939ece980cbfb860c01b614b52565b612a46678f3cd98f78e2921a60c01b614b52565b600260009054906101000a900473ffffffffffffffffffffffffffffffffffffffff1673ffffffffffffffffffffffffffffffffffffffff166108fc889081150290604051600060405180830381858888f19350505050158015612aae573d6000803e3d6000fd5b50612ac367f78d482d88efe01560c01b614b52565b612ad7672d1da724e8a7cc0260c01b614b52565b612ae4898a51308b615466565b612af867e711c4bf77aab85e60c01b614b52565b612b0c67d6ca78de729557d760c01b614b52565b8773ffffffffffffffffffffffffffffffffffffffff167f6469db8d2898ffda696aafd09bc1708333f063d0086bae9245bfbfddd7307ff68a83604051612b54929190616d32565b60405180910390a250505050505092915050565b612b7c6754b586b3e70dc17260c01b614b52565b612b9067bcdd300b5049924560c01b614b52565b612ba467c84d208648b6303260c01b614b52565b600082519050612bbe678b4f722a6b508fb560c01b614b52565b612bd26715141a03319ad48d60c01b614b52565b6000600f60008473ffffffffffffffffffffffffffffffffffffffff1673ffffffffffffffffffffffffffffffffffffffff168152602001908152602001600020600101549050612c2d671509002d7d76c99260c01b614b52565b612c41673ccf3ffc11f0944d60c01b614b52565b6000600f60008573ffffffffffffffffffffffffffffffffffffffff1673ffffffffffffffffffffffffffffffffffffffff168152602001908152602001600020600201549050612c9c67ad858b93f04ef72360c01b614b52565b612cb067bc114b168f0f5f3760c01b614b52565b6000612cbb85615b66565b9050612cd167d4520e6917d9277460c01b614b52565b612ce5674608735b62b3763060c01b614b52565b6000612cfb67023ff50d69673b8b60c01b614b52565b612d0f675badc3eb74c36d0d60c01b614b52565b612d2367d3d559335f0b141f60c01b614b52565b87600a600401541015612d6b576040517f08c379a0000000000000000000000000000000000000000000000000000000008152600401612d6290616dae565b60405180910390fd5b612d7f67c68c89ff556751a660c01b614b52565b612d9367e80001560854cf1d60c01b614b52565b612da767653368d34d64fb3b60c01b614b52565b612dbb67a6bf5c6a80964a2460c01b614b52565b87600f60008873ffffffffffffffffffffffffffffffffffffffff1673ffffffffffffffffffffffffffffffffffffffff16815260200190815260200160002060010154148015612e1c5750612e1b673860df13f7e5c84a60c01b614b55565b5b80612e47575087600a60040154148015612e465750612e4567d8ea9656017a3e5d60c01b614b55565b5b5b612e86576040517f08c379a0000000000000000000000000000000000000000000000000000000008152600401612e7d90616e1a565b60405180910390fd5b612e9a672bb72844caed5aed60c01b614b52565b612eae6759e6f811e5b35fbb60c01b614b52565b612ec267ee1f928b956c023a60c01b614b52565b612ed6673104d398b44d46a360c01b614b52565b8488600f60008973ffffffffffffffffffffffffffffffffffffffff1673ffffffffffffffffffffffffffffffffffffffff16815260200190815260200160002060010154612f259190616c4f565b14612f65576040517f08c379a0000000000000000000000000000000000000000000000000000000008152600401612f5c90616f60565b60405180910390fd5b612f7967e1b8210f219a7b7460c01b614b52565b612f8d67fb9da3f1691d4aec60c01b614b52565b87600a6004016000828254612fa29190616c4f565b92505081905550612fbd67b0bf881bf50fcc8260c01b614b52565b6000600f60008873ffffffffffffffffffffffffffffffffffffffff1673ffffffffffffffffffffffffffffffffffffffff16815260200190815260200160002060010181905550613019673a8b5d5c82b9309b60c01b614b52565b6000600f60008873ffffffffffffffffffffffffffffffffffffffff1673ffffffffffffffffffffffffffffffffffffffff1681526020019081526020016000206002018190555061307567c9f5585176961e5060c01b614b52565b600f60008773ffffffffffffffffffffffffffffffffffffffff1673ffffffffffffffffffffffffffffffffffffffff16815260200190815260200160002060040154600560008282546130c99190616c4f565b925050819055506130e467efb4bf142d42429460c01b614b52565b81600860008282546130f69190616c4f565b92505081905550613111670cfa8fddf3f3273860c01b614b52565b6000600f60008873ffffffffffffffffffffffffffffffffffffffff1673ffffffffffffffffffffffffffffffffffffffff1681526020019081526020016000206004018190555061316d678aa99d9e4d17066960c01b614b52565b61318167b594a7f910a37dd860c01b614b52565b600088146133b15761319d677fcd1b4838cb61ca60c01b614b52565b6131b1676a14f05b2786cf0e60c01b614b52565b6131c567be7d425a20bb5ed960c01b614b52565b6000806000600a60000160009054906101000a900473ffffffffffffffffffffffffffffffffffffffff1673ffffffffffffffffffffffffffffffffffffffff16635d998912600760009054906101000a90046fffffffffffffffffffffffffffffffff16600a60010160109054906101000a90046fffffffffffffffffffffffffffffffff16670de0b6b3a76400008f6040518563ffffffff1660e01b815260040161327594939291906168fe565b60a060405180830381865afa158015613292573d6000803e3d6000fd5b505050506040513d601f19601f820116820180604052508101906132b69190616992565b50509250925092506132d2676969dc02bacdafea60c01b614b52565b6132e6673ed8e05b118165cc60c01b614b52565b6132fa67d167defe255b7def60c01b614b52565b6000600281111561330e5761330d616a0d565b5b83600281111561332157613320616a0d565b5b14613361576040517f08c379a000000000000000000000000000000000000000000000000000000000815260040161335890616a88565b60405180910390fd5b6133756781733b4210ffb47660c01b614b52565b61338967307bf5ac8f20bebf60c01b614b52565b61339d677f9f9fd33bfb885860c01b614b52565b6133a960018383615776565b5050506133c6565b6133c56740d1abf1eee5368060c01b614b52565b5b6133da6757e857e352490a6460c01b614b52565b6133ee67a5c34dc7202f662260c01b614b52565b838810156138a45761340a679c86cd5cb581b37460c01b614b52565b61341e67f9c52e47efdb5d9f60c01b614b52565b61343267cdf1b0cd1c1a340260c01b614b52565b600080600a60000160009054906101000a900473ffffffffffffffffffffffffffffffffffffffff1673ffffffffffffffffffffffffffffffffffffffff16635d998912600760009054906101000a90046fffffffffffffffffffffffffffffffff16600a60010160109054906101000a90046fffffffffffffffffffffffffffffffff16670de0b6b3a76400008e8b6134cc9190616c4f565b6040518563ffffffff1660e01b81526004016134eb94939291906168fe565b60a060405180830381865afa158015613508573d6000803e3d6000fd5b505050506040513d601f19601f8201168201806040525081019061352c9190616992565b94505050509150613547675a3d931bca3616d860c01b614b52565b61355b67af32c4ace7e3202860c01b614b52565b61356f67b84f1d7bc733186360c01b614b52565b6000600281111561358357613582616a0d565b5b82600281111561359657613595616a0d565b5b146135d6576040517f08c379a00000000000000000000000000000000000000000000000000000000081526004016135cd90616a88565b60405180910390fd5b6135ea6703294b4a97e755c860c01b614b52565b6135fe679aa7c1a13209696a60c01b614b52565b61361267625d096aae68cdbc60c01b614b52565b600080600a60000160009054906101000a900473ffffffffffffffffffffffffffffffffffffffff1673ffffffffffffffffffffffffffffffffffffffff1663c728b364600760109054906101000a90046fffffffffffffffffffffffffffffffff16600a60010160109054906101000a90046fffffffffffffffffffffffffffffffff16670de0b6b3a76400008d6040518563ffffffff1660e01b81526004016136c094939291906168fe565b60a060405180830381865afa1580156136dd573d6000803e3d6000fd5b505050506040513d601f19601f820116820180604052508101906137019190616992565b5050509150915061371c670b3be17632acaff660c01b614b52565b613730679f486ffb508efa8b60c01b614b52565b61374467e7dcee05c507aac260c01b614b52565b6000600281111561375857613757616a0d565b5b82600281111561376b5761376a616a0d565b5b146137ab576040517f08c379a00000000000000000000000000000000000000000000000000000000081526004016137a290616a88565b60405180910390fd5b6137bf675c7feb1410da1d2b60c01b614b52565b6137d3678eee16684d7657ff60c01b614b52565b88600a60030160008282546137e89190616c4f565b9250508190555061380367c5cfe51d5743509f60c01b614b52565b88600460008282546138159190616c4f565b9250508190555061383067d0d9ebb64028534c60c01b614b52565b61384467f2fe41aac121f57b60c01b614b52565b6138516002826000615776565b61386567c7f2ebb8b67ac9f860c01b614b52565b6138786675c4ac629214ab60c01b614b52565b6138848b8a308d615466565b613898679beafc2102f2207c60c01b614b52565b829450505050506138b9565b6138b8672d23f60e5b18e84460c01b614b52565b5b6138cd676181922415a400a660c01b614b52565b6138e167e1b2299d86992b4b60c01b614b52565b8281101561397c576138fd672e8d298ec96cc3f660c01b614b52565b613911678fe214a4486a4a2b60c01b614b52565b61392567ec11f5025fe6567860c01b614b52565b8573ffffffffffffffffffffffffffffffffffffffff166108fc828561394b9190616c4f565b9081150290604051600060405180830381858888f19350505050158015613976573d6000803e3d6000fd5b50613991565b613990672936847e4085c20360c01b614b52565b5b6139a5675294f4126f274ab160c01b614b52565b6139b9671e1c6f03167983b160c01b614b52565b6000821115613a4a576139d667d5ed4d02c7852ad460c01b614b52565b6139ea678d987a90b23575eb60c01b614b52565b6139fe67f7c03f07dd0166a460c01b614b52565b8573ffffffffffffffffffffffffffffffffffffffff166108fc839081150290604051600060405180830381858888f19350505050158015613a44573d6000803e3d6000fd5b50613a5f565b613a5e6790e4b8a9e0b07f7460c01b614b52565b5b613a7367d72bcd4dcaabe56460c01b614b52565b613a8767046a99c392b024eb60c01b614b52565b8573ffffffffffffffffffffffffffffffffffffffff167f182a15e7df1d8f3dd0b212833cac160a9efae034c417f18c5b9350d4b89fff0088868686604051613ad39493929190616f80565b60405180910390a25050505050505050565b6000613afb6770ff116c754d3fc860c01b614b52565b613b0f67080c2fa29050960260c01b614b52565b613b23674f0b3ee3b4691ff660c01b614b52565b6000600a60000160009054906101000a900473ffffffffffffffffffffffffffffffffffffffff1673ffffffffffffffffffffffffffffffffffffffff16635d99891285600a60010160109054906101000a90046fffffffffffffffffffffffffffffffff1686896040518563ffffffff1660e01b8152600401613baa94939291906168fe565b60a060405180830381865afa158015613bc7573d6000803e3d6000fd5b505050506040513d601f19601f82011682018060405250810190613beb9190616992565b945050505050613c056752f1d56d513a149f60c01b614b52565b613c1967780e36e12f7d451760c01b614b52565b809150509392505050565b60055481565b600a8060000160009054906101000a900473ffffffffffffffffffffffffffffffffffffffff16908060010160009054906101000a90046fffffffffffffffffffffffffffffffff16908060010160109054906101000a90046fffffffffffffffffffffffffffffffff16908060020154908060030154908060040154905086565b613cb4615fec565b613cc867faf40f08037650f860c01b614b52565b613cdc671d7e6f9ddd4c8dd660c01b614b52565b613cf067158c074952a9eaca60c01b614b52565b600a6040518060c00160405290816000820160009054906101000a900473ffffffffffffffffffffffffffffffffffffffff1673ffffffffffffffffffffffffffffffffffffffff1673ffffffffffffffffffffffffffffffffffffffff1681526020016001820160009054906101000a90046fffffffffffffffffffffffffffffffff166fffffffffffffffffffffffffffffffff166fffffffffffffffffffffffffffffffff1681526020016001820160109054906101000a90046fffffffffffffffffffffffffffffffff166fffffffffffffffffffffffffffffffff166fffffffffffffffffffffffffffffffff1681526020016002820154815260200160038201548152602001600482015481525050905090565b613e1261605c565b613e2667b4d418646ea2e94060c01b614b52565b613e3a67c5cf69636c011d2f60c01b614b52565b613e4e67140d1a79a3599cdf60c01b614b52565b600f60008373ffffffffffffffffffffffffffffffffffffffff1673ffffffffffffffffffffffffffffffffffffffff1681526020019081526020016000206040518060a0016040529081600082015481526020016001820154815260200160028201548152602001600382015481526020016004820154815250509050919050565b6000613ee767eedd3da698eb78b360c01b614b52565b613efb679d290f227c32914360c01b614b52565b613f0f6789a1b0a38e7a8bb660c01b614b52565b6000600554600f60008573ffffffffffffffffffffffffffffffffffffffff1673ffffffffffffffffffffffffffffffffffffffff16815260200190815260200160002060040154600854600554613f679190616c1b565b613f719190616fcc565b613f7b9190617055565b9050613f9167fa17e5c6144bdfb260c01b614b52565b613fa56742c0b410e686ee0860c01b614b52565b600f60008473ffffffffffffffffffffffffffffffffffffffff1673ffffffffffffffffffffffffffffffffffffffff1681526020019081526020016000206004015481111561406c576140036766614a70d862761060c01b614b52565b61401767af80eb836e4bb29f60c01b614b52565b600f60008473ffffffffffffffffffffffffffffffffffffffff1673ffffffffffffffffffffffffffffffffffffffff16815260200190815260200160002060040154816140659190616c4f565b9150614099565b61408067dc3ac4cfba9fd1e160c01b614b52565b614094674a554173897ee91060c01b614b52565b600091505b50919050565b60005481565b600760009054906101000a90046fffffffffffffffffffffffffffffffff1681565b600160009054906101000a900473ffffffffffffffffffffffffffffffffffffffff1681565b60065481565b60045481565b61410d67bfbb3589b1324e8360c01b614b52565b61412167cebef082bc47726a60c01b614b52565b6141356702b788a57344537960c01b614b52565b6141496799aa11467051f1ea60c01b614b52565b3373ffffffffffffffffffffffffffffffffffffffff168173ffffffffffffffffffffffffffffffffffffffff16148015614194575061419367f15749109d63bda560c01b614b55565b5b806142085750600260009054906101000a900473ffffffffffffffffffffffffffffffffffffffff1673ffffffffffffffffffffffffffffffffffffffff163373ffffffffffffffffffffffffffffffffffffffff16148015614207575061420667bc38714340f9aeaa60c01b614b55565b5b5b61421157600080fd5b614225679d4348aea99c4b1f60c01b614b52565b61423967a076b905147f9a2860c01b614b52565b61424d671550a168842e6e6060c01b614b52565b6142616762558885a795329960c01b614b52565b600082116142a4576040517f08c379a000000000000000000000000000000000000000000000000000000000815260040161429b906168de565b60405180910390fd5b6142b867c2680b76b3321b8860c01b614b52565b6142cc67c45158c2f95b177b60c01b614b52565b6142e0671001826db30b262960c01b614b52565b600080600080600a60000160009054906101000a900473ffffffffffffffffffffffffffffffffffffffff1673ffffffffffffffffffffffffffffffffffffffff1663c728b364600760009054906101000a90046fffffffffffffffffffffffffffffffff16600a60010160109054906101000a90046fffffffffffffffffffffffffffffffff16600a600201548a6040518563ffffffff1660e01b815260040161438e94939291906168fe565b60a060405180830381865afa1580156143ab573d6000803e3d6000fd5b505050506040513d601f19601f820116820180604052508101906143cf9190616992565b9450509350935093506143ec671f0b8ea66b1a5d9360c01b614b52565b6144006725472666d7ed00c360c01b614b52565b614414673d413ef48d4c4de260c01b614b52565b6000600281111561442857614427616a0d565b5b84600281111561443b5761443a616a0d565b5b1461447b576040517f08c379a000000000000000000000000000000000000000000000000000000000815260040161447290616a88565b60405180910390fd5b61448f67e73e7ae840f66d5360c01b614b52565b6144a36720b1d9f9d92c00cf60c01b614b52565b6144b767c1fc81267d38379160c01b614b52565b6144cb67710590678412fe4e60c01b614b52565b8034101561450e576040517f08c379a0000000000000000000000000000000000000000000000000000000008152600401614505906170d2565b60405180910390fd5b61452267cd651f7850ec84fa60c01b614b52565b61453667e11ab5ddd03ee5b160c01b614b52565b61454a67b97cb875f255b15e60c01b614b52565b600061455582615d34565b905061456b6785da4e62bf16418360c01b614b52565b80600f60008873ffffffffffffffffffffffffffffffffffffffff1673ffffffffffffffffffffffffffffffffffffffff16815260200190815260200160002060040160008282546145bd9190616c1b565b925050819055506145d86729c41c759a2dcc2160c01b614b52565b80600560008282546145ea9190616c1b565b925050819055506146056703c49b40d9eff63860c01b614b52565b86600f60008873ffffffffffffffffffffffffffffffffffffffff1673ffffffffffffffffffffffffffffffffffffffff16815260200190815260200160002060010160008282546146579190616c1b565b92505081905550614672671a14fa33905a36c860c01b614b52565b81600f60008873ffffffffffffffffffffffffffffffffffffffff1673ffffffffffffffffffffffffffffffffffffffff16815260200190815260200160002060020160008282546146c49190616c1b565b925050819055506146df675fa811812a34bc8b60c01b614b52565b86600a60040160008282546146f49190616c1b565b9250508190555061470f67c9b186615c4808fe60c01b614b52565b614723670ffc633138c2516860c01b614b52565b61472f60018585615776565b6147436768968cad0cfc693360c01b614b52565b6147576720a1c28b4a64672560c01b614b52565b8573ffffffffffffffffffffffffffffffffffffffff167fb6462641302171c8e87e9239eaef317921962ccfe5a974d0d04b8256c4834da3888460405161479f9291906170f2565b60405180910390a250505050505050565b6147c4677e86dd2eb0297e3960c01b614b52565b6147d867ab74a0d58641ab0660c01b614b52565b6147ec675b5590b44d78044160c01b614b52565b61480067d3e1c7b8afe0a7ea60c01b614b52565b614814672fd132e80e7a353660c01b614b52565b3373ffffffffffffffffffffffffffffffffffffffff16600260009054906101000a900473ffffffffffffffffffffffffffffffffffffffff1673ffffffffffffffffffffffffffffffffffffffff16146148a4576040517f08c379a000000000000000000000000000000000000000000000000000000000815260040161489b90617167565b60405180910390fd5b6148b8677fb63519c87d995d60c01b614b52565b6148cc670b1410f98a11b12960c01b614b52565b6148e067d8882275007fe27060c01b614b52565b6148f467266bd3c57ff6ea4960c01b614b52565b6149086797c17e5c84524ad560c01b614b52565b80600260006101000a81548173ffffffffffffffffffffffffffffffffffffffff021916908373ffffffffffffffffffffffffffffffffffffffff16021790555050565b6000614962672e5d2ccd50e4614c60c01b614b52565b6149766736db5595c247657760c01b614b52565b61498a67a406397cdaaeecbb60c01b614b52565b6000600654600f60008573ffffffffffffffffffffffffffffffffffffffff1673ffffffffffffffffffffffffffffffffffffffff168152602001908152602001600020600301546009546006546149e29190616c1b565b6149ec9190616fcc565b6149f69190617055565b9050614a0c6705303aa0931e15dd60c01b614b52565b614a20679ae5710bbfebd5c560c01b614b52565b600f60008473ffffffffffffffffffffffffffffffffffffffff1673ffffffffffffffffffffffffffffffffffffffff16815260200190815260200160002060030154811115614ae757614a7e673228c8aab1d25db360c01b614b52565b614a92673582ec3c4cf2f0bd60c01b614b52565b600f60008473ffffffffffffffffffffffffffffffffffffffff1673ffffffffffffffffffffffffffffffffffffffff1681526020019081526020016000206003015481614ae09190616c4f565b9150614b14565b614afb676d17583feef63ebd60c01b614b52565b614b0f67f38464b0306829e160c01b614b52565b600091505b50919050565b60085481565b60095481565b600260009054906101000a900473ffffffffffffffffffffffffffffffffffffffff1681565b60035481565b50565b600060019050919050565b6000614b7667cea9d0e7063f089560c01b614b52565b614b8a67826240112ddd2d8660c01b614b52565b614b9e674f1fbcebe20f10bb60c01b614b52565b6000600354118015614bb257506000600454115b156151a157614bcb679bccfd1e38f4bee860c01b614b52565b614bdf67efa4923d3a540cb260c01b614b52565b614bf3670ae926e8ce9c0d5760c01b614b52565b60045460035410614ea857614c1267261484b1642451a860c01b614b52565b614c2667e7f467fe2288a64360c01b614b52565b614c3a67041d4e714b688d0560c01b614b52565b600080600a60000160009054906101000a900473ffffffffffffffffffffffffffffffffffffffff1673ffffffffffffffffffffffffffffffffffffffff16635b645d80600a60010160009054906101000a90046fffffffffffffffffffffffffffffffff16600a60010160109054906101000a90046fffffffffffffffffffffffffffffffff16600a600201546004546040518563ffffffff1660e01b8152600401614cea94939291906168fe565b6040805180830381865afa158015614d06573d6000803e3d6000fd5b505050506040513d601f19601f82011682018060405250810190614d2a9190617187565b91509150614d4267f601c8badc69a6c660c01b614b52565b614d56676bb7a5b173c0359460c01b614b52565b614d6a6746eeeffd8c8792b860c01b614b52565b60006002811115614d7e57614d7d616a0d565b5b826002811115614d9157614d90616a0d565b5b14614dd1576040517f08c379a0000000000000000000000000000000000000000000000000000000008152600401614dc890616a88565b60405180910390fd5b614de567f69d50b112b2fc6560c01b614b52565b614df96727ba0663e86d885d60c01b614b52565b614e18600054670de0b6b3a764000083615e039092919063ffffffff16565b9250614e2e67e1d2f78db14a773c60c01b614b52565b614e4267940ee081f848c93760c01b614b52565b614e568382614e519190616c4f565b615e4f565b614e6a67faef5fcea879cb0760c01b614b52565b60045460036000828254614e7e9190616c4f565b92505081905550614e99674c72478b2de3166460c01b614b52565b6000600481905550505061519c565b614ebc67baede4afdcf176ed60c01b614b52565b614ed0676c9ff36db5c8dcd060c01b614b52565b600354600454111561518657614ef0674eb23f24b7fb004b60c01b614b52565b614f04670cdf26d71eedd67f60c01b614b52565b614f186764aab5bd9fbffb7660c01b614b52565b600080600a60000160009054906101000a900473ffffffffffffffffffffffffffffffffffffffff1673ffffffffffffffffffffffffffffffffffffffff166388ec429a600a60010160009054906101000a90046fffffffffffffffffffffffffffffffff16600a60010160109054906101000a90046fffffffffffffffffffffffffffffffff16600a600201546003546040518563ffffffff1660e01b8152600401614fc894939291906168fe565b6040805180830381865afa158015614fe4573d6000803e3d6000fd5b505050506040513d601f19601f820116820180604052508101906150089190617187565b9150915061502067ec1eed2fe18cb2a260c01b614b52565b61503467bd8a3ba078b252b660c01b614b52565b61504867df093b2b56de72b160c01b614b52565b6000600281111561505c5761505b616a0d565b5b82600281111561506f5761506e616a0d565b5b146150af576040517f08c379a00000000000000000000000000000000000000000000000000000000081526004016150a690616a88565b60405180910390fd5b6150c367275e6d6b4ea204e960c01b614b52565b6150d7675a60ad7415253c5460c01b614b52565b6150f6600054670de0b6b3a764000083615e039092919063ffffffff16565b925061510c6748581b0c04949bd660c01b614b52565b61512067352bcb95be6b736660c01b614b52565b615134838261512f9190616c4f565b615e4f565b61514867d14f25e29490264b60c01b614b52565b6003546004600082825461515c9190616c4f565b9250508190555061517767129bf0ef861fd38f60c01b614b52565b6000600381905550505061519b565b61519a67dbc0f7db0495213660c01b614b52565b5b5b6151b6565b6151b567d4b47da89f9b6f9260c01b614b52565b5b90565b6151cd67d5947e76c18ff6da60c01b614b52565b6151e167c1a036600743a4bd60c01b614b52565b6151f5673ed4038012d4414260c01b614b52565b826fffffffffffffffffffffffffffffffff16600a60010160009054906101000a90046fffffffffffffffffffffffffffffffff166fffffffffffffffffffffffffffffffff16146152aa5761525567c2bdd64d7a67ebcc60c01b614b52565b61526967ba1faf4de7ea319460c01b614b52565b82600a60010160006101000a8154816fffffffffffffffffffffffffffffffff02191690836fffffffffffffffffffffffffffffffff1602179055506152bf565b6152be679929bab26e6b9ba160c01b614b52565b5b6152d3676a9e21b3d3ec128c60c01b614b52565b6152e76745f5228f3174539260c01b614b52565b816fffffffffffffffffffffffffffffffff16600a60010160109054906101000a90046fffffffffffffffffffffffffffffffff166fffffffffffffffffffffffffffffffff161415801561534f57506000826fffffffffffffffffffffffffffffffff1614155b156153bd5761536867b8a4e57467b44dd360c01b614b52565b61537c67cad6ef3d374f11bc60c01b614b52565b81600a60010160106101000a8154816fffffffffffffffffffffffffffffffff02191690836fffffffffffffffffffffffffffffffff1602179055506153d2565b6153d1671f1cde5879ea965760c01b614b52565b5b6153e667bab42ac4646ed5f360c01b614b52565b6153fa674b3f61136e66b15e60c01b614b52565b80600a6002015414158015615410575060008114155b1561544c576154296781c75d30463d12b760c01b614b52565b61543d677258aaa07398fa4160c01b614b52565b80600a60020181905550615461565b61546067375d0180964ad41760c01b614b52565b5b505050565b61547a67a165b87e1563e12560c01b614b52565b61548e67c10ae82b7f921db060c01b614b52565b6154a267a660304f2a69e7ee60c01b614b52565b6154b6674e5f4365ec2258e160c01b614b52565b60005b838110156155a1576154d56716acb578ed9ec18d60c01b614b52565b6154e96741476dc82d083a3760c01b614b52565b600160009054906101000a900473ffffffffffffffffffffffffffffffffffffffff1673ffffffffffffffffffffffffffffffffffffffff1663b88d4fde848488858151811061553c5761553b6171c7565b5b60200260200101516040518463ffffffff1660e01b81526004016155629392919061722d565b600060405180830381600087803b15801561557c57600080fd5b505af1158015615590573d6000803e3d6000fd5b5050505080806001019150506154b9565b5050505050565b60006155be678ae73c189bab08bc60c01b614b52565b6155d2676ce2f1f41139cd1560c01b614b52565b6155e6671c8cfb6f13da3d2c60c01b614b52565b6000600654600f60008573ffffffffffffffffffffffffffffffffffffffff1673ffffffffffffffffffffffffffffffffffffffff1681526020019081526020016000206003015460095460065461563e9190616c1b565b6156489190616fcc565b6156529190617055565b905061566867258a456b7fdcffeb60c01b614b52565b61567c67f4420196b4e1080a60c01b614b52565b600f60008473ffffffffffffffffffffffffffffffffffffffff1673ffffffffffffffffffffffffffffffffffffffff16815260200190815260200160002060030154811115615743576156da67f6aefc95ca11044e60c01b614b52565b6156ee67783bf1d36716908b60c01b614b52565b600f60008473ffffffffffffffffffffffffffffffffffffffff1673ffffffffffffffffffffffffffffffffffffffff168152602001908152602001600020600301548161573c9190616c4f565b9150615770565b6157576754714de619402d4460c01b614b52565b61576b674616127a8a972c7860c01b614b52565b600091505b50919050565b61578a67d83a948d3b22bf2760c01b614b52565b61579e67560a3aed6674b55c60c01b614b52565b6157b26795509e62ca653df060c01b614b52565b816fffffffffffffffffffffffffffffffff16600760009054906101000a90046fffffffffffffffffffffffffffffffff166fffffffffffffffffffffffffffffffff16141580156158045750600183145b1561586f5761581d678a5dcb178b6f46ff60c01b614b52565b61583167dd073521f680199a60c01b614b52565b81600760006101000a8154816fffffffffffffffffffffffffffffffff02191690836fffffffffffffffffffffffffffffffff160217905550615884565b61588367e4582d05587b6ac260c01b614b52565b5b615898673d5f0d42ff259a3d60c01b614b52565b6158ac67aa4cbbb923a2de2d60c01b614b52565b816fffffffffffffffffffffffffffffffff16600760109054906101000a90046fffffffffffffffffffffffffffffffff166fffffffffffffffffffffffffffffffff16141580156158fe5750600283145b156159695761591767c4742c8ed525df0a60c01b614b52565b61592b678aed02821c9ff13a60c01b614b52565b81600760106101000a8154816fffffffffffffffffffffffffffffffff02191690836fffffffffffffffffffffffffffffffff16021790555061597e565b61597d67ffa9b90361ff582260c01b614b52565b5b61599267f965dca68ea2aa9760c01b614b52565b6159a6670f19afc9578b3e0b60c01b614b52565b806fffffffffffffffffffffffffffffffff16600a60010160109054906101000a90046fffffffffffffffffffffffffffffffff166fffffffffffffffffffffffffffffffff1614158015615a0e57506000816fffffffffffffffffffffffffffffffff1614155b15615a7c57615a27678ad6becfd6d1039e60c01b614b52565b615a3b672e554ca0736bc59560c01b614b52565b80600a60010160106101000a8154816fffffffffffffffffffffffffffffffff02191690836fffffffffffffffffffffffffffffffff160217905550615a91565b615a9067e5af7528067e891260c01b614b52565b5b505050565b6000615aac673d0ae3647782e1ac60c01b614b52565b615ac0670f1f230e6f49e0ed60c01b614b52565b615ad46733c0a32abdd28c5660c01b614b52565b600060065403615b0e57615af267d7d71e57a031088260c01b614b52565b615b0667f667e748869dd35060c01b614b52565b819050615b61565b615b22672d319f8aa5acfbf560c01b614b52565b615b3667f8baab32b6d8334660c01b614b52565b600954600654615b469190616c1b565b82600654615b549190616fcc565b615b5e9190617055565b90505b919050565b6000615b7c67a13983a6221b4cd160c01b614b52565b615b9067263857023dfb0d0b60c01b614b52565b615ba46751b47bc4c79aa53860c01b614b52565b6000600554600f60008573ffffffffffffffffffffffffffffffffffffffff1673ffffffffffffffffffffffffffffffffffffffff16815260200190815260200160002060040154600854600554615bfc9190616c1b565b615c069190616fcc565b615c109190617055565b9050615c2667e3d2cc922d71d9d760c01b614b52565b615c3a67070dd9a0d62ed76960c01b614b52565b600f60008473ffffffffffffffffffffffffffffffffffffffff1673ffffffffffffffffffffffffffffffffffffffff16815260200190815260200160002060040154811115615d0157615c9867c6fc69281588fc1660c01b614b52565b615cac672ade07e00cb3e82d60c01b614b52565b600f60008473ffffffffffffffffffffffffffffffffffffffff1673ffffffffffffffffffffffffffffffffffffffff1681526020019081526020016000206004015481615cfa9190616c4f565b9150615d2e565b615d1567cdfc37e1006bbc4c60c01b614b52565b615d29674616babaa30b374560c01b614b52565b600091505b50919050565b6000615d4a67f410729fcf095db060c01b614b52565b615d5e67f8b74e6132df834760c01b614b52565b615d7267fd8c45d3c3807f6060c01b614b52565b600060055403615dac57615d9067675abe8008adab6360c01b614b52565b615da467bb7feda0150e8d4760c01b614b52565b819050615dfe565b615dbf66c222e26d4a1f0160c01b614b52565b615dd367ef0f6218e77d281260c01b614b52565b600854600554615de39190616c1b565b82600554615df19190616fcc565b615dfb9190617055565b90505b919050565b6000615e19677dc7cdfa1c8f086360c01b615fe9565b615e2d673cbda75c9d7a92a660c01b615fe9565b82840290508284820414841517615e4357600080fd5b81810490509392505050565b615e63670f5e2777b85155a460c01b614b52565b615e77679a237ad48f06ff9260c01b614b52565b615e8b67723efaa99d96f9d060c01b614b52565b600060055403615edb57615ea967cb858dc7aebf817e60c01b614b52565b615ebd673d7a7b2e2250b05860c01b614b52565b8060096000828254615ecf9190616c1b565b92505081905550615fe6565b615eef67a8749decbb5497c760c01b614b52565b615f0367f57cc57b106a1ca160c01b614b52565b600060065403615f5357615f2167f394b12b4702e99060c01b614b52565b615f35674dfe1b9b24a9a34d60c01b614b52565b8060086000828254615f479190616c1b565b92505081905550615fe5565b615f676785884c344413b26260c01b614b52565b615f7b6767e8cd80d943be7960c01b614b52565b600281615f889190617055565b60086000828254615f999190616c1b565b92505081905550615fb467f4289dc15f120d6e60c01b614b52565b600281615fc19190617055565b81615fcc9190616c4f565b60096000828254615fdd9190616c1b565b925050819055505b5b50565b50565b6040518060c00160405280600073ffffffffffffffffffffffffffffffffffffffff16815260200160006fffffffffffffffffffffffffffffffff16815260200160006fffffffffffffffffffffffffffffffff1681526020016000815260200160008152602001600081525090565b6040518060a0016040528060008152602001600081526020016000815260200160008152602001600081525090565b6000604051905090565b600080fd5b600080fd5b600073ffffffffffffffffffffffffffffffffffffffff82169050919050565b60006160ca8261609f565b9050919050565b6160da816160bf565b81146160e557600080fd5b50565b6000813590506160f7816160d1565b92915050565b6000819050919050565b616110816160fd565b811461611b57600080fd5b50565b60008135905061612d81616107565b92915050565b600080fd5b600080fd5b6000601f19601f8301169050919050565b7f4e487b7100000000000000000000000000000000000000000000000000000000600052604160045260246000fd5b6161868261613d565b810181811067ffffffffffffffff821117156161a5576161a461614e565b5b80604052505050565b60006161b861608b565b90506161c4828261617d565b919050565b600067ffffffffffffffff8211156161e4576161e361614e565b5b6161ed8261613d565b9050602081019050919050565b82818337600083830152505050565b600061621c616217846161c9565b6161ae565b90508281526020810184848401111561623857616237616138565b5b6162438482856161fa565b509392505050565b600082601f8301126162605761625f616133565b5b8135616270848260208601616209565b91505092915050565b6000806000806080858703121561629357616292616095565b5b60006162a1878288016160e8565b94505060206162b2878288016160e8565b93505060406162c38782880161611e565b925050606085013567ffffffffffffffff8111156162e4576162e361609a565b5b6162f08782880161624b565b91505092959194509250565b60007fffffffff0000000000000000000000000000000000000000000000000000000082169050919050565b616331816162fc565b82525050565b600060208201905061634c6000830184616328565b92915050565b600067ffffffffffffffff82111561636d5761636c61614e565b5b602082029050602081019050919050565b600080fd5b600061639661639184616352565b6161ae565b905080838252602082019050602084028301858111156163b9576163b861637e565b5b835b818110156163e257806163ce888261611e565b8452602084019350506020810190506163bb565b5050509392505050565b600082601f83011261640157616400616133565b5b8135616411848260208601616383565b91505092915050565b60008060006060848603121561643357616432616095565b5b600084013567ffffffffffffffff8111156164515761645061609a565b5b61645d868287016163ec565b935050602061646e8682870161611e565b925050604061647f868287016160e8565b9150509250925092565b616492816160fd565b82525050565b60006020820190506164ad6000830184616489565b92915050565b60006fffffffffffffffffffffffffffffffff82169050919050565b6164d8816164b3565b82525050565b60006020820190506164f360008301846164cf565b92915050565b600080604083850312156165105761650f616095565b5b600083013567ffffffffffffffff81111561652e5761652d61609a565b5b61653a858286016163ec565b925050602061654b858286016160e8565b9150509250929050565b61655e816164b3565b811461656957600080fd5b50565b60008135905061657b81616555565b92915050565b60008060006060848603121561659a57616599616095565b5b60006165a88682870161611e565b93505060206165b98682870161656c565b92505060406165ca8682870161611e565b9150509250925092565b6000806000606084860312156165ed576165ec616095565b5b60006165fb8682870161611e565b935050602084013567ffffffffffffffff81111561661c5761661b61609a565b5b616628868287016163ec565b9250506040616639868287016160e8565b9150509250925092565b61664c816160bf565b82525050565b600060c0820190506166676000830189616643565b61667460208301886164cf565b61668160408301876164cf565b61668e6060830186616489565b61669b6080830185616489565b6166a860a0830184616489565b979650505050505050565b6166bc816160bf565b82525050565b6166cb816164b3565b82525050565b6166da816160fd565b82525050565b60c0820160008201516166f660008501826166b3565b50602082015161670960208501826166c2565b50604082015161671c60408501826166c2565b50606082015161672f60608501826166d1565b50608082015161674260808501826166d1565b5060a082015161675560a08501826166d1565b50505050565b600060c08201905061677060008301846166e0565b92915050565b60006020828403121561678c5761678b616095565b5b600061679a848285016160e8565b91505092915050565b60a0820160008201516167b960008501826166d1565b5060208201516167cc60208501826166d1565b5060408201516167df60408501826166d1565b5060608201516167f260608501826166d1565b50608082015161680560808501826166d1565b50505050565b600060a08201905061682060008301846167a3565b92915050565b600060208201905061683b6000830184616643565b92915050565b6000806040838503121561685857616857616095565b5b60006168668582860161611e565b9250506020616877858286016160e8565b9150509250929050565b600082825260208201905092915050565b7f4e6f742030000000000000000000000000000000000000000000000000000000600082015250565b60006168c8600583616881565b91506168d382616892565b602082019050919050565b600060208201905081810360008301526168f7816168bb565b9050919050565b600060808201905061691360008301876164cf565b61692060208301866164cf565b61692d6040830185616489565b61693a6060830184616489565b95945050505050565b6003811061695057600080fd5b50565b60008151905061696281616943565b92915050565b60008151905061697781616555565b92915050565b60008151905061698c81616107565b92915050565b600080600080600060a086880312156169ae576169ad616095565b5b60006169bc88828901616953565b95505060206169cd88828901616968565b94505060406169de88828901616968565b93505060606169ef8882890161697d565b9250506080616a008882890161697d565b9150509295509295909350565b7f4e487b7100000000000000000000000000000000000000000000000000000000600052602160045260246000fd5b7f426f6e64696e67206572726f7200000000000000000000000000000000000000600082015250565b6000616a72600d83616881565b9150616a7d82616a3c565b602082019050919050565b60006020820190508181036000830152616aa181616a65565b9050919050565b7f4e6f7420656e6f756768206c6971756964697479000000000000000000000000600082015250565b6000616ade601483616881565b9150616ae982616aa8565b602082019050919050565b60006020820190508181036000830152616b0d81616ad1565b9050919050565b7f4e6f742065787065637465642076616c75650000000000000000000000000000600082015250565b6000616b4a601283616881565b9150616b5582616b14565b602082019050919050565b60006020820190508181036000830152616b7981616b3d565b9050919050565b7f4e6f7420656e6f75676820636f6e74726163742062616c616e63650000000000600082015250565b6000616bb6601b83616881565b9150616bc182616b80565b602082019050919050565b60006020820190508181036000830152616be581616ba9565b9050919050565b7f4e487b7100000000000000000000000000000000000000000000000000000000600052601160045260246000fd5b6000616c26826160fd565b9150616c31836160fd565b9250828201905080821115616c4957616c48616bec565b5b92915050565b6000616c5a826160fd565b9150616c65836160fd565b9250828203905081811115616c7d57616c7c616bec565b5b92915050565b600081519050919050565b600082825260208201905092915050565b6000819050602082019050919050565b6000616cbb83836166d1565b60208301905092915050565b6000602082019050919050565b6000616cdf82616c83565b616ce98185616c8e565b9350616cf483616c9f565b8060005b83811015616d25578151616d0c8882616caf565b9750616d1783616cc7565b925050600181019050616cf8565b5085935050505092915050565b60006040820190508181036000830152616d4c8185616cd4565b9050616d5b6020830184616489565b9392505050565b7f506f6f6c206e6f7420656e6f756768204e465400000000000000000000000000600082015250565b6000616d98601383616881565b9150616da382616d62565b602082019050919050565b60006020820190508181036000830152616dc781616d8b565b9050919050565b7f536f6d657468696e672069732077726f6e672e00000000000000000000000000600082015250565b6000616e04601383616881565b9150616e0f82616dce565b602082019050919050565b60006020820190508181036000830152616e3381616df7565b9050919050565b60006060820190508181036000830152616e548186616cd4565b9050616e636020830185616489565b616e706040830184616489565b949350505050565b6000604082019050616e8d6000830185616489565b8181036020830152616e9f8184616cd4565b90509392505050565b7f4e6f7420656e6f7567682076616c756500000000000000000000000000000000600082015250565b6000616ede601083616881565b9150616ee982616ea8565b602082019050919050565b60006020820190508181036000830152616f0d81616ed1565b9050919050565b7f7472756500000000000000000000000000000000000000000000000000000000600082015250565b6000616f4a600483616881565b9150616f5582616f14565b602082019050919050565b60006020820190508181036000830152616f7981616f3d565b9050919050565b60006080820190508181036000830152616f9a8187616cd4565b9050616fa96020830186616489565b616fb66040830185616489565b616fc36060830184616489565b95945050505050565b6000616fd7826160fd565b9150616fe2836160fd565b9250817fffffffffffffffffffffffffffffffffffffffffffffffffffffffffffffffff048311821515161561701b5761701a616bec565b5b828202905092915050565b7f4e487b7100000000000000000000000000000000000000000000000000000000600052601260045260246000fd5b6000617060826160fd565b915061706b836160fd565b92508261707b5761707a617026565b5b828204905092915050565b7f496e73756666696369656e742056616c75650000000000000000000000000000600082015250565b60006170bc601283616881565b91506170c782617086565b602082019050919050565b600060208201905081810360008301526170eb816170af565b9050919050565b60006040820190506171076000830185616489565b6171146020830184616489565b9392505050565b7f6f6e6c79526f7574657200000000000000000000000000000000000000000000600082015250565b6000617151600a83616881565b915061715c8261711b565b602082019050919050565b6000602082019050818103600083015261718081617144565b9050919050565b6000806040838503121561719e5761719d616095565b5b60006171ac85828601616953565b92505060206171bd8582860161697d565b9150509250929050565b7f4e487b7100000000000000000000000000000000000000000000000000000000600052603260045260246000fd5b600082825260208201905092915050565b50565b60006172176000836171f6565b915061722282617207565b600082019050919050565b60006080820190506172426000830186616643565b61724f6020830185616643565b61725c6040830184616489565b818103606083015261726d8161720a565b905094935050505056fea264697066735822122087fd69e8ca9033ede89dff9069bcda8a59617d8f3ff4f3e388d4ff9790a066f164736f6c63430008100033",
  "linkReferences": {},
  "deployedLinkReferences": {}
}