{
  "_format": "hh-sol-artifact-1",
  "contractName": "Pool721",
  "sourceName": "contracts/Pool721.sol",
  "abi": [
    {
      "inputs": [
        {
          "internalType": "address",
          "name": "_collection",
          "type": "address"
        },
        {
          "internalType": "address",
          "name": "_bondingCurve",
          "type": "address"
        },
        {
          "internalType": "uint128",
          "name": "_spotPrice",
          "type": "uint128"
        },
        {
          "internalType": "uint128",
          "name": "_delta",
          "type": "uint128"
        },
        {
          "internalType": "uint256",
          "name": "_divergence",
          "type": "uint256"
        },
        {
          "internalType": "uint256",
          "name": "_protocolFeeRatio",
          "type": "uint256"
        },
        {
          "internalType": "address",
          "name": "_router",
          "type": "address"
        }
      ],
      "stateMutability": "nonpayable",
      "type": "constructor"
    },
    {
      "anonymous": false,
      "inputs": [
        {
          "indexed": true,
          "internalType": "address",
          "name": "user",
          "type": "address"
        },
        {
          "indexed": false,
          "internalType": "uint256",
          "name": "userNum",
          "type": "uint256"
        },
        {
          "indexed": false,
          "internalType": "uint256[]",
          "name": "tokenIds",
          "type": "uint256[]"
        }
      ],
      "name": "StakeNFT",
      "type": "event"
    },
    {
      "anonymous": false,
      "inputs": [
        {
          "indexed": true,
          "internalType": "address",
          "name": "user",
          "type": "address"
        },
        {
          "indexed": false,
          "internalType": "uint256[]",
          "name": "tokenIds",
          "type": "uint256[]"
        },
        {
          "indexed": false,
          "internalType": "uint256",
          "name": "totalFee",
          "type": "uint256"
        }
      ],
      "name": "SwapFTforNFT",
      "type": "event"
    },
    {
      "anonymous": false,
      "inputs": [
        {
          "indexed": true,
          "internalType": "address",
          "name": "user",
          "type": "address"
        },
        {
          "indexed": false,
          "internalType": "uint256[]",
          "name": "tokenIds",
          "type": "uint256[]"
        },
        {
          "indexed": false,
          "internalType": "uint256",
          "name": "totalFee",
          "type": "uint256"
        }
      ],
      "name": "SwapNFTforFT",
      "type": "event"
    },
    {
      "anonymous": false,
      "inputs": [
        {
          "indexed": true,
          "internalType": "address",
          "name": "user",
          "type": "address"
        },
        {
          "indexed": false,
          "internalType": "uint256[]",
          "name": "tokenIds",
          "type": "uint256[]"
        },
        {
          "indexed": false,
          "internalType": "uint256",
          "name": "userNum",
          "type": "uint256"
        },
        {
          "indexed": false,
          "internalType": "uint256",
          "name": "userAmount",
          "type": "uint256"
        },
        {
          "indexed": false,
          "internalType": "uint256",
          "name": "userFee",
          "type": "uint256"
        }
      ],
      "name": "WithdrawFT",
      "type": "event"
    },
    {
      "anonymous": false,
      "inputs": [
        {
          "indexed": true,
          "internalType": "address",
          "name": "user",
          "type": "address"
        },
        {
          "indexed": false,
          "internalType": "uint256[]",
          "name": "tokenIds",
          "type": "uint256[]"
        },
        {
          "indexed": false,
          "internalType": "uint256",
          "name": "userNum",
          "type": "uint256"
        },
        {
          "indexed": false,
          "internalType": "uint256",
          "name": "userFee",
          "type": "uint256"
        }
      ],
      "name": "WithdrawNFT",
      "type": "event"
    },
    {
      "inputs": [],
      "name": "buyEventNum",
      "outputs": [
        {
          "internalType": "uint256",
          "name": "",
          "type": "uint256"
        }
      ],
      "stateMutability": "view",
      "type": "function"
    },
    {
      "inputs": [],
      "name": "collection",
      "outputs": [
        {
          "internalType": "address",
          "name": "",
          "type": "address"
        }
      ],
      "stateMutability": "view",
      "type": "function"
    },
    {
      "inputs": [
        {
          "internalType": "uint256",
          "name": "_itemNum",
          "type": "uint256"
        },
        {
          "internalType": "uint128",
          "name": "_spotPrice",
          "type": "uint128"
        },
        {
          "internalType": "uint256",
          "name": "_divergence",
          "type": "uint256"
        }
      ],
      "name": "getCalcBuyInfo",
      "outputs": [
        {
          "internalType": "uint256",
          "name": "",
          "type": "uint256"
        }
      ],
      "stateMutability": "view",
      "type": "function"
    },
    {
      "inputs": [
        {
          "internalType": "uint256",
          "name": "_itemNum",
          "type": "uint256"
        },
        {
          "internalType": "uint128",
          "name": "_spotPrice",
          "type": "uint128"
        },
        {
          "internalType": "uint256",
          "name": "_divergence",
          "type": "uint256"
        }
      ],
      "name": "getCalcSellInfo",
      "outputs": [
        {
          "internalType": "uint256",
          "name": "",
          "type": "uint256"
        }
      ],
      "stateMutability": "view",
      "type": "function"
    },
    {
      "inputs": [],
      "name": "getPoolInfo",
      "outputs": [
        {
          "components": [
            {
              "internalType": "address",
              "name": "bondingCurve",
              "type": "address"
            },
            {
              "internalType": "uint128",
              "name": "spotPrice",
              "type": "uint128"
            },
            {
              "internalType": "uint128",
              "name": "delta",
              "type": "uint128"
            },
            {
              "internalType": "uint256",
              "name": "divergence",
              "type": "uint256"
            },
            {
              "internalType": "uint256",
              "name": "buyNum",
              "type": "uint256"
            },
            {
              "internalType": "uint256",
              "name": "sellNum",
              "type": "uint256"
            }
          ],
          "internalType": "struct Pool721.PoolInfo",
          "name": "",
          "type": "tuple"
        }
      ],
      "stateMutability": "view",
      "type": "function"
    },
    {
      "inputs": [
        {
          "internalType": "address",
          "name": "_user",
          "type": "address"
        }
      ],
      "name": "getUserInfo",
      "outputs": [
        {
          "components": [
            {
              "internalType": "uint256",
              "name": "userInitBuyNum",
              "type": "uint256"
            },
            {
              "internalType": "uint256",
              "name": "userInitSellNum",
              "type": "uint256"
            },
            {
              "internalType": "uint256",
              "name": "userInitSellAmount",
              "type": "uint256"
            },
            {
              "internalType": "uint256",
              "name": "userNFTpoint",
              "type": "uint256"
            },
            {
              "internalType": "uint256",
              "name": "userFTpoint",
              "type": "uint256"
            }
          ],
          "internalType": "struct Pool721.UserInfo",
          "name": "",
          "type": "tuple"
        }
      ],
      "stateMutability": "view",
      "type": "function"
    },
    {
      "inputs": [
        {
          "internalType": "address",
          "name": "_user",
          "type": "address"
        }
      ],
      "name": "getUserStakeFTfee",
      "outputs": [
        {
          "internalType": "uint256",
          "name": "_userFee",
          "type": "uint256"
        }
      ],
      "stateMutability": "view",
      "type": "function"
    },
    {
      "inputs": [
        {
          "internalType": "address",
          "name": "_user",
          "type": "address"
        }
      ],
      "name": "getUserStakeNFTfee",
      "outputs": [
        {
          "internalType": "uint256",
          "name": "_userFee",
          "type": "uint256"
        }
      ],
      "stateMutability": "view",
      "type": "function"
    },
    {
      "inputs": [
        {
          "internalType": "address",
          "name": "",
          "type": "address"
        },
        {
          "internalType": "address",
          "name": "",
          "type": "address"
        },
        {
          "internalType": "uint256",
          "name": "",
          "type": "uint256"
        },
        {
          "internalType": "bytes",
          "name": "",
          "type": "bytes"
        }
      ],
      "name": "onERC721Received",
      "outputs": [
        {
          "internalType": "bytes4",
          "name": "",
          "type": "bytes4"
        }
      ],
      "stateMutability": "nonpayable",
      "type": "function"
    },
    {
      "inputs": [],
      "name": "poolInfo",
      "outputs": [
        {
          "internalType": "address",
          "name": "bondingCurve",
          "type": "address"
        },
        {
          "internalType": "uint128",
          "name": "spotPrice",
          "type": "uint128"
        },
        {
          "internalType": "uint128",
          "name": "delta",
          "type": "uint128"
        },
        {
          "internalType": "uint256",
          "name": "divergence",
          "type": "uint256"
        },
        {
          "internalType": "uint256",
          "name": "buyNum",
          "type": "uint256"
        },
        {
          "internalType": "uint256",
          "name": "sellNum",
          "type": "uint256"
        }
      ],
      "stateMutability": "view",
      "type": "function"
    },
    {
      "inputs": [],
      "name": "protocolFeeRatio",
      "outputs": [
        {
          "internalType": "uint256",
          "name": "",
          "type": "uint256"
        }
      ],
      "stateMutability": "view",
      "type": "function"
    },
    {
      "inputs": [],
      "name": "router",
      "outputs": [
        {
          "internalType": "address",
          "name": "",
          "type": "address"
        }
      ],
      "stateMutability": "view",
      "type": "function"
    },
    {
      "inputs": [],
      "name": "sellEventNum",
      "outputs": [
        {
          "internalType": "uint256",
          "name": "",
          "type": "uint256"
        }
      ],
      "stateMutability": "view",
      "type": "function"
    },
    {
      "inputs": [
        {
          "internalType": "address",
          "name": "_newRouter",
          "type": "address"
        }
      ],
      "name": "setRouter",
      "outputs": [],
      "stateMutability": "nonpayable",
      "type": "function"
    },
    {
      "inputs": [],
      "name": "stakeFTprice",
      "outputs": [
        {
          "internalType": "uint128",
          "name": "",
          "type": "uint128"
        }
      ],
      "stateMutability": "view",
      "type": "function"
    },
    {
      "inputs": [
        {
          "internalType": "uint256[]",
          "name": "_tokenIds",
          "type": "uint256[]"
        },
        {
          "internalType": "address",
          "name": "_user",
          "type": "address"
        }
      ],
      "name": "stakeNFT",
      "outputs": [],
      "stateMutability": "nonpayable",
      "type": "function"
    },
    {
      "inputs": [],
      "name": "stakeNFTprice",
      "outputs": [
        {
          "internalType": "uint128",
          "name": "",
          "type": "uint128"
        }
      ],
      "stateMutability": "view",
      "type": "function"
    },
    {
      "inputs": [
        {
          "internalType": "uint256[]",
          "name": "_tokenIds",
          "type": "uint256[]"
        },
        {
          "internalType": "address",
          "name": "_user",
          "type": "address"
        }
      ],
      "name": "swapFTforNFT",
      "outputs": [
        {
          "internalType": "uint256",
          "name": "_protocolFee",
          "type": "uint256"
        }
      ],
      "stateMutability": "payable",
      "type": "function"
    },
    {
      "inputs": [
        {
          "internalType": "uint256[]",
          "name": "_tokenIds",
          "type": "uint256[]"
        },
        {
          "internalType": "uint256",
          "name": "_minExpectFee",
          "type": "uint256"
        },
        {
          "internalType": "address",
          "name": "_user",
          "type": "address"
        }
      ],
      "name": "swapNFTforFT",
      "outputs": [
        {
          "internalType": "uint256",
          "name": "_protocolFee",
          "type": "uint256"
        }
      ],
      "stateMutability": "payable",
      "type": "function"
    },
    {
      "inputs": [],
      "name": "totalFTfee",
      "outputs": [
        {
          "internalType": "uint256",
          "name": "",
          "type": "uint256"
        }
      ],
      "stateMutability": "view",
      "type": "function"
    },
    {
      "inputs": [],
      "name": "totalFTpoint",
      "outputs": [
        {
          "internalType": "uint256",
          "name": "",
          "type": "uint256"
        }
      ],
      "stateMutability": "view",
      "type": "function"
    },
    {
      "inputs": [],
      "name": "totalNFTfee",
      "outputs": [
        {
          "internalType": "uint256",
          "name": "",
          "type": "uint256"
        }
      ],
      "stateMutability": "view",
      "type": "function"
    },
    {
      "inputs": [],
      "name": "totalNFTpoint",
      "outputs": [
        {
          "internalType": "uint256",
          "name": "",
          "type": "uint256"
        }
      ],
      "stateMutability": "view",
      "type": "function"
    },
    {
      "inputs": [
        {
          "internalType": "uint256",
          "name": "_userSellNum",
          "type": "uint256"
        },
        {
          "internalType": "uint256[]",
          "name": "_tokenIds",
          "type": "uint256[]"
        },
        {
          "internalType": "address",
          "name": "_user",
          "type": "address"
        }
      ],
      "name": "withdrawFT",
      "outputs": [],
      "stateMutability": "payable",
      "type": "function"
    },
    {
      "inputs": [
        {
          "internalType": "uint256[]",
          "name": "_tokenIds",
          "type": "uint256[]"
        },
        {
          "internalType": "address",
          "name": "_user",
          "type": "address"
        }
      ],
      "name": "withdrawNFT",
      "outputs": [],
      "stateMutability": "payable",
      "type": "function"
    }
  ],
  "bytecode": "0x60806040523480156200001157600080fd5b5060405162004bc838038062004bc88339818101604052810190620000379190620002f7565b86600160006101000a81548173ffffffffffffffffffffffffffffffffffffffff021916908373ffffffffffffffffffffffffffffffffffffffff16021790555085600a60000160006101000a81548173ffffffffffffffffffffffffffffffffffffffff021916908373ffffffffffffffffffffffffffffffffffffffff16021790555084600a60010160006101000a8154816fffffffffffffffffffffffffffffffff02191690836fffffffffffffffffffffffffffffffff16021790555084600760106101000a8154816fffffffffffffffffffffffffffffffff02191690836fffffffffffffffffffffffffffffffff16021790555084600760006101000a8154816fffffffffffffffffffffffffffffffff02191690836fffffffffffffffffffffffffffffffff16021790555083600a60010160106101000a8154816fffffffffffffffffffffffffffffffff02191690836fffffffffffffffffffffffffffffffff16021790555082600a600201819055508160008190555080600260006101000a81548173ffffffffffffffffffffffffffffffffffffffff021916908373ffffffffffffffffffffffffffffffffffffffff16021790555050505050505050620003aa565b600080fd5b600073ffffffffffffffffffffffffffffffffffffffff82169050919050565b600062000237826200020a565b9050919050565b62000249816200022a565b81146200025557600080fd5b50565b60008151905062000269816200023e565b92915050565b60006fffffffffffffffffffffffffffffffff82169050919050565b62000296816200026f565b8114620002a257600080fd5b50565b600081519050620002b6816200028b565b92915050565b6000819050919050565b620002d181620002bc565b8114620002dd57600080fd5b50565b600081519050620002f181620002c6565b92915050565b600080600080600080600060e0888a03121562000319576200031862000205565b5b6000620003298a828b0162000258565b97505060206200033c8a828b0162000258565b96505060406200034f8a828b01620002a5565b9550506060620003628a828b01620002a5565b9450506080620003758a828b01620002e0565b93505060a0620003888a828b01620002e0565b92505060c06200039b8a828b0162000258565b91505092959891949750929550565b61480e80620003ba6000396000f3fe6080604052600436106101665760003560e01c80636386c1c7116100d1578063895af8711161008a578063e7ede50211610064578063e7ede5021461054b578063eaa6267814610576578063f887ea40146105a1578063fc5ad2df146105cc57610166565b8063895af871146104ba578063c0d78655146104e5578063cb6f0d341461050e57610166565b80636386c1c7146103945780636b469d39146103d15780637a27d9f61461040e5780637b6880ca146104395780637de1e5361461046457806386524b2d1461048f57610166565b80634c4cbac4116101235780634c4cbac41461028557806350902c17146102b557806353153836146102d157806354044ccb1461030e5780635a2f3d091461033957806360246c881461036957610166565b8063150b7a021461016b578063244117b4146101a85780632767fa4b146101d85780632c7e4915146102035780632f7e0b2e1461021f578063341d15fd14610248575b600080fd5b34801561017757600080fd5b50610192600480360381019061018d91906138af565b6105f7565b60405161019f919061396d565b60405180910390f35b6101c260048036038101906101bd9190613a50565b61060b565b6040516101cf9190613ace565b60405180910390f35b3480156101e457600080fd5b506101ed610a9a565b6040516101fa9190613b14565b60405180910390f35b61021d60048036038101906102189190613b2f565b610abc565b005b34801561022b57600080fd5b5061024660048036038101906102419190613b2f565b6112ae565b005b34801561025457600080fd5b5061026f600480360381019061026a9190613bb7565b61164e565b60405161027c9190613ace565b60405180910390f35b61029f600480360381019061029a9190613b2f565b611728565b6040516102ac9190613ace565b60405180910390f35b6102cf60048036038101906102ca9190613c0a565b611b7f565b005b3480156102dd57600080fd5b506102f860048036038101906102f39190613bb7565b612499565b6040516103059190613ace565b60405180910390f35b34801561031a57600080fd5b50610323612573565b6040516103309190613ace565b60405180910390f35b34801561034557600080fd5b5061034e612579565b60405161036096959493929190613c88565b60405180910390f35b34801561037557600080fd5b5061037e6125fb565b60405161038b9190613d91565b60405180910390f35b3480156103a057600080fd5b506103bb60048036038101906103b69190613dac565b61271d565b6040516103c89190613e41565b60405180910390f35b3480156103dd57600080fd5b506103f860048036038101906103f39190613dac565b6127a8565b6040516104059190613ace565b60405180910390f35b34801561041a57600080fd5b506104236128c1565b6040516104309190613ace565b60405180910390f35b34801561044557600080fd5b5061044e6128c7565b60405161045b9190613b14565b60405180910390f35b34801561047057600080fd5b506104796128e9565b6040516104869190613e5c565b60405180910390f35b34801561049b57600080fd5b506104a461290f565b6040516104b19190613ace565b60405180910390f35b3480156104c657600080fd5b506104cf612915565b6040516104dc9190613ace565b60405180910390f35b3480156104f157600080fd5b5061050c60048036038101906105079190613dac565b61291b565b005b34801561051a57600080fd5b5061053560048036038101906105309190613dac565b6129ef565b6040516105429190613ace565b60405180910390f35b34801561055757600080fd5b50610560612b08565b60405161056d9190613ace565b60405180910390f35b34801561058257600080fd5b5061058b612b0e565b6040516105989190613ace565b60405180910390f35b3480156105ad57600080fd5b506105b6612b14565b6040516105c39190613e5c565b60405180910390f35b3480156105d857600080fd5b506105e1612b3a565b6040516105ee9190613ace565b60405180910390f35b600063150b7a0260e01b9050949350505050565b6000813373ffffffffffffffffffffffffffffffffffffffff168173ffffffffffffffffffffffffffffffffffffffff1614806106955750600260009054906101000a900473ffffffffffffffffffffffffffffffffffffffff1673ffffffffffffffffffffffffffffffffffffffff163373ffffffffffffffffffffffffffffffffffffffff16145b61069e57600080fd5b600085519050600081116106e7576040517f08c379a00000000000000000000000000000000000000000000000000000000081526004016106de90613ed4565b60405180910390fd5b6000806000806000600a60000160009054906101000a900473ffffffffffffffffffffffffffffffffffffffff1673ffffffffffffffffffffffffffffffffffffffff1663c728b364600a60010160009054906101000a90046fffffffffffffffffffffffffffffffff16600a60010160109054906101000a90046fffffffffffffffffffffffffffffffff16600a600201548a6040518563ffffffff1660e01b815260040161079a9493929190613ef4565b60a060405180830381865afa1580156107b7573d6000803e3d6000fd5b505050506040513d601f19601f820116820180604052508101906107db9190613f88565b94509450945094509450600060028111156107f9576107f8614003565b5b85600281111561080c5761080b614003565b5b1461084c576040517f08c379a00000000000000000000000000000000000000000000000000000000081526004016108439061407e565b60405180910390fd5b600a60040154861115610894576040517f08c379a000000000000000000000000000000000000000000000000000000000815260040161088b906140ea565b60405180910390fd5b898110156108d7576040517f08c379a00000000000000000000000000000000000000000000000000000000081526004016108ce90614156565b60405180910390fd5b8047101561091a576040517f08c379a0000000000000000000000000000000000000000000000000000000008152600401610911906141c2565b60405180910390fd5b856004600082825461092c9190614211565b9250508190555085600a60040160008282546109489190614245565b9250508190555085600a60030160008282546109649190614211565b92505081905550610973612b40565b9750610980848484612ee6565b61098c8b878b30613044565b8873ffffffffffffffffffffffffffffffffffffffff166108fc829081150290604051600060405180830381858888f193505050501580156109d2573d6000803e3d6000fd5b50600260009054906101000a900473ffffffffffffffffffffffffffffffffffffffff1673ffffffffffffffffffffffffffffffffffffffff166108fc899081150290604051600060405180830381858888f19350505050158015610a3b573d6000803e3d6000fd5b508873ffffffffffffffffffffffffffffffffffffffff167f52a8813c8bdca51f38292d707f835c85ffb8d74c66cc39a75609345ff2c3f0be8c83604051610a84929190614328565b60405180910390a2505050505050509392505050565b600760109054906101000a90046fffffffffffffffffffffffffffffffff1681565b6000825190506000600f60008473ffffffffffffffffffffffffffffffffffffffff1673ffffffffffffffffffffffffffffffffffffffff1681526020019081526020016000206000015490506000610b148461310e565b905082600a600301541015610b5e576040517f08c379a0000000000000000000000000000000000000000000000000000000008152600401610b55906143a4565b60405180910390fd5b82600f60008673ffffffffffffffffffffffffffffffffffffffff1673ffffffffffffffffffffffffffffffffffffffff168152602001908152602001600020600001541480610bb2575082600a60030154145b610bf1576040517f08c379a0000000000000000000000000000000000000000000000000000000008152600401610be890614410565b60405180910390fd5b82600a6003016000828254610c069190614245565b925050819055506000600f60008673ffffffffffffffffffffffffffffffffffffffff1673ffffffffffffffffffffffffffffffffffffffff16815260200190815260200160002060000181905550600f60008573ffffffffffffffffffffffffffffffffffffffff1673ffffffffffffffffffffffffffffffffffffffff1681526020019081526020016000206003015460066000828254610ca99190614245565b925050819055508060096000828254610cc29190614245565b925050819055506000600f60008673ffffffffffffffffffffffffffffffffffffffff1673ffffffffffffffffffffffffffffffffffffffff168152602001908152602001600020600301819055506000831115610e8a576000806000600a60000160009054906101000a900473ffffffffffffffffffffffffffffffffffffffff1673ffffffffffffffffffffffffffffffffffffffff1663c728b364600760109054906101000a90046fffffffffffffffffffffffffffffffff16600a60010160109054906101000a90046fffffffffffffffffffffffffffffffff16670de0b6b3a7640000896040518563ffffffff1660e01b8152600401610dca9493929190613ef4565b60a060405180830381865afa158015610de7573d6000803e3d6000fd5b505050506040513d601f19601f82011682018060405250810190610e0b9190613f88565b505092509250925060006002811115610e2757610e26614003565b5b836002811115610e3a57610e39614003565b5b14610e7a576040517f08c379a0000000000000000000000000000000000000000000000000000000008152600401610e719061407e565b60405180910390fd5b610e8660028383613227565b5050505b828211156111f85760008383610ea09190614245565b9050600080600a60000160009054906101000a900473ffffffffffffffffffffffffffffffffffffffff1673ffffffffffffffffffffffffffffffffffffffff1663c728b364600760109054906101000a90046fffffffffffffffffffffffffffffffff16600a60010160109054906101000a90046fffffffffffffffffffffffffffffffff16670de0b6b3a7640000876040518563ffffffff1660e01b8152600401610f509493929190613ef4565b60a060405180830381865afa158015610f6d573d6000803e3d6000fd5b505050506040513d601f19601f82011682018060405250810190610f919190613f88565b9450505050915060006002811115610fac57610fab614003565b5b826002811115610fbf57610fbe614003565b5b14610fff576040517f08c379a0000000000000000000000000000000000000000000000000000000008152600401610ff69061407e565b60405180910390fd5b6000806000600a60000160009054906101000a900473ffffffffffffffffffffffffffffffffffffffff1673ffffffffffffffffffffffffffffffffffffffff16635d998912600760009054906101000a90046fffffffffffffffffffffffffffffffff16600a60010160109054906101000a90046fffffffffffffffffffffffffffffffff16670de0b6b3a76400008a6040518563ffffffff1660e01b81526004016110af9493929190613ef4565b60a060405180830381865afa1580156110cc573d6000803e3d6000fd5b505050506040513d601f19601f820116820180604052508101906110f09190613f88565b50509250925092506000600281111561110c5761110b614003565b5b83600281111561111f5761111e614003565b5b1461115f576040517f08c379a00000000000000000000000000000000000000000000000000000000081526004016111569061407e565b60405180910390fd5b61116b60018383613227565b85600a60040160008282546111809190614245565b9250508190555085600360008282546111999190614245565b9250508190555060008411156111f1578973ffffffffffffffffffffffffffffffffffffffff166108fc859081150290604051600060405180830381858888f193505050501580156111ef573d6000803e3d6000fd5b505b5050505050505b61120485843087613044565b6000811115611255578373ffffffffffffffffffffffffffffffffffffffff166108fc829081150290604051600060405180830381858888f19350505050158015611253573d6000803e3d6000fd5b505b8373ffffffffffffffffffffffffffffffffffffffff167fae12f538fd8232ce822341f49f6323a75f6a7c19115d403ef481b0a39cf4677586848460405161129f93929190614430565b60405180910390a25050505050565b803373ffffffffffffffffffffffffffffffffffffffff168173ffffffffffffffffffffffffffffffffffffffff1614806113365750600260009054906101000a900473ffffffffffffffffffffffffffffffffffffffff1673ffffffffffffffffffffffffffffffffffffffff163373ffffffffffffffffffffffffffffffffffffffff16145b61133f57600080fd5b60008351905060008111611388576040517f08c379a000000000000000000000000000000000000000000000000000000000815260040161137f90613ed4565b60405180910390fd5b600080600080600a60000160009054906101000a900473ffffffffffffffffffffffffffffffffffffffff1673ffffffffffffffffffffffffffffffffffffffff16635d998912600760109054906101000a90046fffffffffffffffffffffffffffffffff16600a60010160109054906101000a90046fffffffffffffffffffffffffffffffff16600a60020154896040518563ffffffff1660e01b81526004016114369493929190613ef4565b60a060405180830381865afa158015611453573d6000803e3d6000fd5b505050506040513d601f19601f820116820180604052508101906114779190613f88565b9450509350935093506000600281111561149457611493614003565b5b8460028111156114a7576114a6614003565b5b146114e7576040517f08c379a00000000000000000000000000000000000000000000000000000000081526004016114de9061407e565b60405180910390fd5b60006114f2826133f8565b905080600f60008a73ffffffffffffffffffffffffffffffffffffffff1673ffffffffffffffffffffffffffffffffffffffff16815260200190815260200160002060030160008282546115469190614211565b92505081905550806006600082825461155f9190614211565b9250508190555085600f60008a73ffffffffffffffffffffffffffffffffffffffff1673ffffffffffffffffffffffffffffffffffffffff16815260200190815260200160002060000160008282546115b89190614211565b9250508190555085600a60030160008282546115d49190614211565b925050819055506115e760028585613227565b6115f389878a30613044565b8773ffffffffffffffffffffffffffffffffffffffff167fb0c56c1c40b91909a8c61fe7d6feb60c8dc44e92ce0cff5beb3c5d449a7eb309878b60405161163b92919061446e565b60405180910390a2505050505050505050565b600080600a60000160009054906101000a900473ffffffffffffffffffffffffffffffffffffffff1673ffffffffffffffffffffffffffffffffffffffff1663c728b36485600a60010160109054906101000a90046fffffffffffffffffffffffffffffffff1686896040518563ffffffff1660e01b81526004016116d69493929190613ef4565b60a060405180830381865afa1580156116f3573d6000803e3d6000fd5b505050506040513d601f19601f820116820180604052508101906117179190613f88565b945050505050809150509392505050565b6000813373ffffffffffffffffffffffffffffffffffffffff168173ffffffffffffffffffffffffffffffffffffffff1614806117b25750600260009054906101000a900473ffffffffffffffffffffffffffffffffffffffff1673ffffffffffffffffffffffffffffffffffffffff163373ffffffffffffffffffffffffffffffffffffffff16145b6117bb57600080fd5b60008451905060008111611804576040517f08c379a00000000000000000000000000000000000000000000000000000000081526004016117fb90613ed4565b60405180910390fd5b6000806000806000600a60000160009054906101000a900473ffffffffffffffffffffffffffffffffffffffff1673ffffffffffffffffffffffffffffffffffffffff16635d998912600a60010160009054906101000a90046fffffffffffffffffffffffffffffffff16600a60010160109054906101000a90046fffffffffffffffffffffffffffffffff16600a600201548a6040518563ffffffff1660e01b81526004016118b79493929190613ef4565b60a060405180830381865afa1580156118d4573d6000803e3d6000fd5b505050506040513d601f19601f820116820180604052508101906118f89190613f88565b945094509450945094506000600281111561191657611915614003565b5b85600281111561192957611928614003565b5b14611969576040517f08c379a00000000000000000000000000000000000000000000000000000000081526004016119609061407e565b60405180910390fd5b600a600301548611156119b1576040517f08c379a00000000000000000000000000000000000000000000000000000000081526004016119a8906140ea565b60405180910390fd5b803410156119f4576040517f08c379a00000000000000000000000000000000000000000000000000000000081526004016119eb906144ea565b60405180910390fd5b8560036000828254611a069190614211565b9250508190555085600a6003016000828254611a229190614245565b9250508190555085600a6004016000828254611a3e9190614211565b92505081905550611a4d612b40565b9750611a5a848484612ee6565b8873ffffffffffffffffffffffffffffffffffffffff166108fc8234611a809190614245565b9081150290604051600060405180830381858888f19350505050158015611aab573d6000803e3d6000fd5b50600260009054906101000a900473ffffffffffffffffffffffffffffffffffffffff1673ffffffffffffffffffffffffffffffffffffffff166108fc899081150290604051600060405180830381858888f19350505050158015611b14573d6000803e3d6000fd5b50611b228a8b51308c613044565b8873ffffffffffffffffffffffffffffffffffffffff167f6469db8d2898ffda696aafd09bc1708333f063d0086bae9245bfbfddd7307ff68b83604051611b6a929190614328565b60405180910390a25050505050505092915050565b6000825190506000600f60008473ffffffffffffffffffffffffffffffffffffffff1673ffffffffffffffffffffffffffffffffffffffff1681526020019081526020016000206001015490506000600f60008573ffffffffffffffffffffffffffffffffffffffff1673ffffffffffffffffffffffffffffffffffffffff1681526020019081526020016000206002015490506000611c1e8561343b565b9050600087600a600401541015611c6a576040517f08c379a0000000000000000000000000000000000000000000000000000000008152600401611c61906143a4565b60405180910390fd5b87600f60008873ffffffffffffffffffffffffffffffffffffffff1673ffffffffffffffffffffffffffffffffffffffff168152602001908152602001600020600101541480611cbe575087600a60040154145b611cfd576040517f08c379a0000000000000000000000000000000000000000000000000000000008152600401611cf490614410565b60405180910390fd5b8488600f60008973ffffffffffffffffffffffffffffffffffffffff1673ffffffffffffffffffffffffffffffffffffffff16815260200190815260200160002060010154611d4c9190614245565b14611d8c576040517f08c379a0000000000000000000000000000000000000000000000000000000008152600401611d8390614556565b60405180910390fd5b87600a6004016000828254611da19190614245565b925050819055506000600f60008873ffffffffffffffffffffffffffffffffffffffff1673ffffffffffffffffffffffffffffffffffffffff168152602001908152602001600020600101819055506000600f60008873ffffffffffffffffffffffffffffffffffffffff1673ffffffffffffffffffffffffffffffffffffffff16815260200190815260200160002060020181905550600f60008773ffffffffffffffffffffffffffffffffffffffff1673ffffffffffffffffffffffffffffffffffffffff1681526020019081526020016000206004015460056000828254611e8c9190614245565b925050819055508160086000828254611ea59190614245565b925050819055506000600f60008873ffffffffffffffffffffffffffffffffffffffff1673ffffffffffffffffffffffffffffffffffffffff168152602001908152602001600020600401819055506000881461206c576000806000600a60000160009054906101000a900473ffffffffffffffffffffffffffffffffffffffff1673ffffffffffffffffffffffffffffffffffffffff16635d998912600760009054906101000a90046fffffffffffffffffffffffffffffffff16600a60010160109054906101000a90046fffffffffffffffffffffffffffffffff16670de0b6b3a76400008f6040518563ffffffff1660e01b8152600401611fac9493929190613ef4565b60a060405180830381865afa158015611fc9573d6000803e3d6000fd5b505050506040513d601f19601f82011682018060405250810190611fed9190613f88565b50509250925092506000600281111561200957612008614003565b5b83600281111561201c5761201b614003565b5b1461205c576040517f08c379a00000000000000000000000000000000000000000000000000000000081526004016120539061407e565b60405180910390fd5b61206860018383613227565b5050505b8388101561238f57600080600a60000160009054906101000a900473ffffffffffffffffffffffffffffffffffffffff1673ffffffffffffffffffffffffffffffffffffffff16635d998912600760009054906101000a90046fffffffffffffffffffffffffffffffff16600a60010160109054906101000a90046fffffffffffffffffffffffffffffffff16670de0b6b3a76400008e8b61210e9190614245565b6040518563ffffffff1660e01b815260040161212d9493929190613ef4565b60a060405180830381865afa15801561214a573d6000803e3d6000fd5b505050506040513d601f19601f8201168201806040525081019061216e9190613f88565b945050505091506000600281111561218957612188614003565b5b82600281111561219c5761219b614003565b5b146121dc576040517f08c379a00000000000000000000000000000000000000000000000000000000081526004016121d39061407e565b60405180910390fd5b600080600a60000160009054906101000a900473ffffffffffffffffffffffffffffffffffffffff1673ffffffffffffffffffffffffffffffffffffffff1663c728b364600760109054906101000a90046fffffffffffffffffffffffffffffffff16600a60010160109054906101000a90046fffffffffffffffffffffffffffffffff16670de0b6b3a76400008d6040518563ffffffff1660e01b815260040161228a9493929190613ef4565b60a060405180830381865afa1580156122a7573d6000803e3d6000fd5b505050506040513d601f19601f820116820180604052508101906122cb9190613f88565b50505091509150600060028111156122e6576122e5614003565b5b8260028111156122f9576122f8614003565b5b14612339576040517f08c379a00000000000000000000000000000000000000000000000000000000081526004016123309061407e565b60405180910390fd5b88600a600301600082825461234e9190614245565b9250508190555088600460008282546123679190614245565b9250508190555061237b6002826000613227565b6123878b8a308d613044565b829450505050505b828110156123ea578573ffffffffffffffffffffffffffffffffffffffff166108fc82856123bd9190614245565b9081150290604051600060405180830381858888f193505050501580156123e8573d6000803e3d6000fd5b505b600082111561243b578573ffffffffffffffffffffffffffffffffffffffff166108fc839081150290604051600060405180830381858888f19350505050158015612439573d6000803e3d6000fd5b505b8573ffffffffffffffffffffffffffffffffffffffff167f182a15e7df1d8f3dd0b212833cac160a9efae034c417f18c5b9350d4b89fff00888686866040516124879493929190614576565b60405180910390a25050505050505050565b600080600a60000160009054906101000a900473ffffffffffffffffffffffffffffffffffffffff1673ffffffffffffffffffffffffffffffffffffffff16635d99891285600a60010160109054906101000a90046fffffffffffffffffffffffffffffffff1686896040518563ffffffff1660e01b81526004016125219493929190613ef4565b60a060405180830381865afa15801561253e573d6000803e3d6000fd5b505050506040513d601f19601f820116820180604052508101906125629190613f88565b945050505050809150509392505050565b60055481565b600a8060000160009054906101000a900473ffffffffffffffffffffffffffffffffffffffff16908060010160009054906101000a90046fffffffffffffffffffffffffffffffff16908060010160109054906101000a90046fffffffffffffffffffffffffffffffff16908060020154908060030154908060040154905086565b612603613622565b600a6040518060c00160405290816000820160009054906101000a900473ffffffffffffffffffffffffffffffffffffffff1673ffffffffffffffffffffffffffffffffffffffff1673ffffffffffffffffffffffffffffffffffffffff1681526020016001820160009054906101000a90046fffffffffffffffffffffffffffffffff166fffffffffffffffffffffffffffffffff166fffffffffffffffffffffffffffffffff1681526020016001820160109054906101000a90046fffffffffffffffffffffffffffffffff166fffffffffffffffffffffffffffffffff166fffffffffffffffffffffffffffffffff1681526020016002820154815260200160038201548152602001600482015481525050905090565b612725613692565b600f60008373ffffffffffffffffffffffffffffffffffffffff1673ffffffffffffffffffffffffffffffffffffffff1681526020019081526020016000206040518060a0016040529081600082015481526020016001820154815260200160028201548152602001600382015481526020016004820154815250509050919050565b600080600554600f60008573ffffffffffffffffffffffffffffffffffffffff1673ffffffffffffffffffffffffffffffffffffffff168152602001908152602001600020600401546008546005546128019190614211565b61280b91906145c2565b612815919061464b565b9050600f60008473ffffffffffffffffffffffffffffffffffffffff1673ffffffffffffffffffffffffffffffffffffffff168152602001908152602001600020600401548111156128b657600f60008473ffffffffffffffffffffffffffffffffffffffff1673ffffffffffffffffffffffffffffffffffffffff16815260200190815260200160002060040154816128af9190614245565b91506128bb565b600091505b50919050565b60005481565b600760009054906101000a90046fffffffffffffffffffffffffffffffff1681565b600160009054906101000a900473ffffffffffffffffffffffffffffffffffffffff1681565b60065481565b60045481565b3373ffffffffffffffffffffffffffffffffffffffff16600260009054906101000a900473ffffffffffffffffffffffffffffffffffffffff1673ffffffffffffffffffffffffffffffffffffffff16146129ab576040517f08c379a00000000000000000000000000000000000000000000000000000000081526004016129a2906146c8565b60405180910390fd5b80600260006101000a81548173ffffffffffffffffffffffffffffffffffffffff021916908373ffffffffffffffffffffffffffffffffffffffff16021790555050565b600080600654600f60008573ffffffffffffffffffffffffffffffffffffffff1673ffffffffffffffffffffffffffffffffffffffff16815260200190815260200160002060030154600954600654612a489190614211565b612a5291906145c2565b612a5c919061464b565b9050600f60008473ffffffffffffffffffffffffffffffffffffffff1673ffffffffffffffffffffffffffffffffffffffff16815260200190815260200160002060030154811115612afd57600f60008473ffffffffffffffffffffffffffffffffffffffff1673ffffffffffffffffffffffffffffffffffffffff1681526020019081526020016000206003015481612af69190614245565b9150612b02565b600091505b50919050565b60085481565b60095481565b600260009054906101000a900473ffffffffffffffffffffffffffffffffffffffff1681565b60035481565b600080600354118015612b5557506000600454115b15612ee35760045460035410612d1f57600080600a60000160009054906101000a900473ffffffffffffffffffffffffffffffffffffffff1673ffffffffffffffffffffffffffffffffffffffff16635b645d80600a60010160009054906101000a90046fffffffffffffffffffffffffffffffff16600a60010160109054906101000a90046fffffffffffffffffffffffffffffffff16600a600201546004546040518563ffffffff1660e01b8152600401612c159493929190613ef4565b6040805180830381865afa158015612c31573d6000803e3d6000fd5b505050506040513d601f19601f82011682018060405250810190612c5591906146e8565b9150915060006002811115612c6d57612c6c614003565b5b826002811115612c8057612c7f614003565b5b14612cc0576040517f08c379a0000000000000000000000000000000000000000000000000000000008152600401612cb79061407e565b60405180910390fd5b612cdf600054670de0b6b3a7640000836135549092919063ffffffff16565b9250612cf58382612cf09190614245565b613578565b60045460036000828254612d099190614245565b9250508190555060006004819055505050612ee2565b6003546004541115612ee157600080600a60000160009054906101000a900473ffffffffffffffffffffffffffffffffffffffff1673ffffffffffffffffffffffffffffffffffffffff166388ec429a600a60010160009054906101000a90046fffffffffffffffffffffffffffffffff16600a60010160109054906101000a90046fffffffffffffffffffffffffffffffff16600a600201546003546040518563ffffffff1660e01b8152600401612ddb9493929190613ef4565b6040805180830381865afa158015612df7573d6000803e3d6000fd5b505050506040513d601f19601f82011682018060405250810190612e1b91906146e8565b9150915060006002811115612e3357612e32614003565b5b826002811115612e4657612e45614003565b5b14612e86576040517f08c379a0000000000000000000000000000000000000000000000000000000008152600401612e7d9061407e565b60405180910390fd5b612ea5600054670de0b6b3a7640000836135549092919063ffffffff16565b9250612ebb8382612eb69190614245565b613578565b60035460046000828254612ecf9190614245565b92505081905550600060038190555050505b5b5b90565b826fffffffffffffffffffffffffffffffff16600a60010160009054906101000a90046fffffffffffffffffffffffffffffffff166fffffffffffffffffffffffffffffffff1614612f6f5782600a60010160006101000a8154816fffffffffffffffffffffffffffffffff02191690836fffffffffffffffffffffffffffffffff1602179055505b816fffffffffffffffffffffffffffffffff16600a60010160109054906101000a90046fffffffffffffffffffffffffffffffff166fffffffffffffffffffffffffffffffff1614158015612fd757506000826fffffffffffffffffffffffffffffffff1614155b156130195781600a60010160106101000a8154816fffffffffffffffffffffffffffffffff02191690836fffffffffffffffffffffffffffffffff1602179055505b80600a600201541415801561302f575060008114155b1561303f5780600a600201819055505b505050565b60005b8381101561310757600160009054906101000a900473ffffffffffffffffffffffffffffffffffffffff1673ffffffffffffffffffffffffffffffffffffffff1663b88d4fde84848885815181106130a2576130a1614728565b5b60200260200101516040518463ffffffff1660e01b81526004016130c89392919061478e565b600060405180830381600087803b1580156130e257600080fd5b505af11580156130f6573d6000803e3d6000fd5b505050508080600101915050613047565b5050505050565b600080600654600f60008573ffffffffffffffffffffffffffffffffffffffff1673ffffffffffffffffffffffffffffffffffffffff168152602001908152602001600020600301546009546006546131679190614211565b61317191906145c2565b61317b919061464b565b9050600f60008473ffffffffffffffffffffffffffffffffffffffff1673ffffffffffffffffffffffffffffffffffffffff1681526020019081526020016000206003015481111561321c57600f60008473ffffffffffffffffffffffffffffffffffffffff1673ffffffffffffffffffffffffffffffffffffffff16815260200190815260200160002060030154816132159190614245565b9150613221565b600091505b50919050565b816fffffffffffffffffffffffffffffffff16600760009054906101000a90046fffffffffffffffffffffffffffffffff166fffffffffffffffffffffffffffffffff16141580156132795750600183145b156132b85781600760006101000a8154816fffffffffffffffffffffffffffffffff02191690836fffffffffffffffffffffffffffffffff1602179055505b816fffffffffffffffffffffffffffffffff16600760109054906101000a90046fffffffffffffffffffffffffffffffff166fffffffffffffffffffffffffffffffff161415801561330a5750600283145b156133495781600760106101000a8154816fffffffffffffffffffffffffffffffff02191690836fffffffffffffffffffffffffffffffff1602179055505b806fffffffffffffffffffffffffffffffff16600a60010160109054906101000a90046fffffffffffffffffffffffffffffffff166fffffffffffffffffffffffffffffffff16141580156133b157506000816fffffffffffffffffffffffffffffffff1614155b156133f35780600a60010160106101000a8154816fffffffffffffffffffffffffffffffff02191690836fffffffffffffffffffffffffffffffff1602179055505b505050565b6000806006540361340b57819050613436565b60095460065461341b9190614211565b8260065461342991906145c2565b613433919061464b565b90505b919050565b600080600554600f60008573ffffffffffffffffffffffffffffffffffffffff1673ffffffffffffffffffffffffffffffffffffffff168152602001908152602001600020600401546008546005546134949190614211565b61349e91906145c2565b6134a8919061464b565b9050600f60008473ffffffffffffffffffffffffffffffffffffffff1673ffffffffffffffffffffffffffffffffffffffff1681526020019081526020016000206004015481111561354957600f60008473ffffffffffffffffffffffffffffffffffffffff1673ffffffffffffffffffffffffffffffffffffffff16815260200190815260200160002060040154816135429190614245565b915061354e565b600091505b50919050565b60008284029050828482041484151761356c57600080fd5b81810490509392505050565b6000600554036135a05780600960008282546135949190614211565b9250508190555061361f565b6000600654036135c85780600860008282546135bc9190614211565b9250508190555061361e565b6002816135d5919061464b565b600860008282546135e69190614211565b925050819055506002816135fa919061464b565b816136059190614245565b600960008282546136169190614211565b925050819055505b5b50565b6040518060c00160405280600073ffffffffffffffffffffffffffffffffffffffff16815260200160006fffffffffffffffffffffffffffffffff16815260200160006fffffffffffffffffffffffffffffffff1681526020016000815260200160008152602001600081525090565b6040518060a0016040528060008152602001600081526020016000815260200160008152602001600081525090565b6000604051905090565b600080fd5b600080fd5b600073ffffffffffffffffffffffffffffffffffffffff82169050919050565b6000613700826136d5565b9050919050565b613710816136f5565b811461371b57600080fd5b50565b60008135905061372d81613707565b92915050565b6000819050919050565b61374681613733565b811461375157600080fd5b50565b6000813590506137638161373d565b92915050565b600080fd5b600080fd5b6000601f19601f8301169050919050565b7f4e487b7100000000000000000000000000000000000000000000000000000000600052604160045260246000fd5b6137bc82613773565b810181811067ffffffffffffffff821117156137db576137da613784565b5b80604052505050565b60006137ee6136c1565b90506137fa82826137b3565b919050565b600067ffffffffffffffff82111561381a57613819613784565b5b61382382613773565b9050602081019050919050565b82818337600083830152505050565b600061385261384d846137ff565b6137e4565b90508281526020810184848401111561386e5761386d61376e565b5b613879848285613830565b509392505050565b600082601f83011261389657613895613769565b5b81356138a684826020860161383f565b91505092915050565b600080600080608085870312156138c9576138c86136cb565b5b60006138d78782880161371e565b94505060206138e88782880161371e565b93505060406138f987828801613754565b925050606085013567ffffffffffffffff81111561391a576139196136d0565b5b61392687828801613881565b91505092959194509250565b60007fffffffff0000000000000000000000000000000000000000000000000000000082169050919050565b61396781613932565b82525050565b6000602082019050613982600083018461395e565b92915050565b600067ffffffffffffffff8211156139a3576139a2613784565b5b602082029050602081019050919050565b600080fd5b60006139cc6139c784613988565b6137e4565b905080838252602082019050602084028301858111156139ef576139ee6139b4565b5b835b81811015613a185780613a048882613754565b8452602084019350506020810190506139f1565b5050509392505050565b600082601f830112613a3757613a36613769565b5b8135613a478482602086016139b9565b91505092915050565b600080600060608486031215613a6957613a686136cb565b5b600084013567ffffffffffffffff811115613a8757613a866136d0565b5b613a9386828701613a22565b9350506020613aa486828701613754565b9250506040613ab58682870161371e565b9150509250925092565b613ac881613733565b82525050565b6000602082019050613ae36000830184613abf565b92915050565b60006fffffffffffffffffffffffffffffffff82169050919050565b613b0e81613ae9565b82525050565b6000602082019050613b296000830184613b05565b92915050565b60008060408385031215613b4657613b456136cb565b5b600083013567ffffffffffffffff811115613b6457613b636136d0565b5b613b7085828601613a22565b9250506020613b818582860161371e565b9150509250929050565b613b9481613ae9565b8114613b9f57600080fd5b50565b600081359050613bb181613b8b565b92915050565b600080600060608486031215613bd057613bcf6136cb565b5b6000613bde86828701613754565b9350506020613bef86828701613ba2565b9250506040613c0086828701613754565b9150509250925092565b600080600060608486031215613c2357613c226136cb565b5b6000613c3186828701613754565b935050602084013567ffffffffffffffff811115613c5257613c516136d0565b5b613c5e86828701613a22565b9250506040613c6f8682870161371e565b9150509250925092565b613c82816136f5565b82525050565b600060c082019050613c9d6000830189613c79565b613caa6020830188613b05565b613cb76040830187613b05565b613cc46060830186613abf565b613cd16080830185613abf565b613cde60a0830184613abf565b979650505050505050565b613cf2816136f5565b82525050565b613d0181613ae9565b82525050565b613d1081613733565b82525050565b60c082016000820151613d2c6000850182613ce9565b506020820151613d3f6020850182613cf8565b506040820151613d526040850182613cf8565b506060820151613d656060850182613d07565b506080820151613d786080850182613d07565b5060a0820151613d8b60a0850182613d07565b50505050565b600060c082019050613da66000830184613d16565b92915050565b600060208284031215613dc257613dc16136cb565b5b6000613dd08482850161371e565b91505092915050565b60a082016000820151613def6000850182613d07565b506020820151613e026020850182613d07565b506040820151613e156040850182613d07565b506060820151613e286060850182613d07565b506080820151613e3b6080850182613d07565b50505050565b600060a082019050613e566000830184613dd9565b92915050565b6000602082019050613e716000830184613c79565b92915050565b600082825260208201905092915050565b7f4e6f742030000000000000000000000000000000000000000000000000000000600082015250565b6000613ebe600583613e77565b9150613ec982613e88565b602082019050919050565b60006020820190508181036000830152613eed81613eb1565b9050919050565b6000608082019050613f096000830187613b05565b613f166020830186613b05565b613f236040830185613abf565b613f306060830184613abf565b95945050505050565b60038110613f4657600080fd5b50565b600081519050613f5881613f39565b92915050565b600081519050613f6d81613b8b565b92915050565b600081519050613f828161373d565b92915050565b600080600080600060a08688031215613fa457613fa36136cb565b5b6000613fb288828901613f49565b9550506020613fc388828901613f5e565b9450506040613fd488828901613f5e565b9350506060613fe588828901613f73565b9250506080613ff688828901613f73565b9150509295509295909350565b7f4e487b7100000000000000000000000000000000000000000000000000000000600052602160045260246000fd5b7f426f6e64696e67206572726f7200000000000000000000000000000000000000600082015250565b6000614068600d83613e77565b915061407382614032565b602082019050919050565b600060208201905081810360008301526140978161405b565b9050919050565b7f4e6f7420656e6f756768206c6971756964697479000000000000000000000000600082015250565b60006140d4601483613e77565b91506140df8261409e565b602082019050919050565b60006020820190508181036000830152614103816140c7565b9050919050565b7f4e6f742065787065637465642076616c75650000000000000000000000000000600082015250565b6000614140601283613e77565b915061414b8261410a565b602082019050919050565b6000602082019050818103600083015261416f81614133565b9050919050565b7f4e6f7420656e6f75676820636f6e74726163742062616c616e63650000000000600082015250565b60006141ac601b83613e77565b91506141b782614176565b602082019050919050565b600060208201905081810360008301526141db8161419f565b9050919050565b7f4e487b7100000000000000000000000000000000000000000000000000000000600052601160045260246000fd5b600061421c82613733565b915061422783613733565b925082820190508082111561423f5761423e6141e2565b5b92915050565b600061425082613733565b915061425b83613733565b9250828203905081811115614273576142726141e2565b5b92915050565b600081519050919050565b600082825260208201905092915050565b6000819050602082019050919050565b60006142b18383613d07565b60208301905092915050565b6000602082019050919050565b60006142d582614279565b6142df8185614284565b93506142ea83614295565b8060005b8381101561431b57815161430288826142a5565b975061430d836142bd565b9250506001810190506142ee565b5085935050505092915050565b6000604082019050818103600083015261434281856142ca565b90506143516020830184613abf565b9392505050565b7f506f6f6c206e6f7420656e6f756768204e465400000000000000000000000000600082015250565b600061438e601383613e77565b915061439982614358565b602082019050919050565b600060208201905081810360008301526143bd81614381565b9050919050565b7f536f6d657468696e672069732077726f6e672e00000000000000000000000000600082015250565b60006143fa601383613e77565b9150614405826143c4565b602082019050919050565b60006020820190508181036000830152614429816143ed565b9050919050565b6000606082019050818103600083015261444a81866142ca565b90506144596020830185613abf565b6144666040830184613abf565b949350505050565b60006040820190506144836000830185613abf565b818103602083015261449581846142ca565b90509392505050565b7f4e6f7420656e6f7567682076616c756500000000000000000000000000000000600082015250565b60006144d4601083613e77565b91506144df8261449e565b602082019050919050565b60006020820190508181036000830152614503816144c7565b9050919050565b7f7472756500000000000000000000000000000000000000000000000000000000600082015250565b6000614540600483613e77565b915061454b8261450a565b602082019050919050565b6000602082019050818103600083015261456f81614533565b9050919050565b6000608082019050818103600083015261459081876142ca565b905061459f6020830186613abf565b6145ac6040830185613abf565b6145b96060830184613abf565b95945050505050565b60006145cd82613733565b91506145d883613733565b9250817fffffffffffffffffffffffffffffffffffffffffffffffffffffffffffffffff0483118215151615614611576146106141e2565b5b828202905092915050565b7f4e487b7100000000000000000000000000000000000000000000000000000000600052601260045260246000fd5b600061465682613733565b915061466183613733565b9250826146715761467061461c565b5b828204905092915050565b7f6f6e6c79526f7574657200000000000000000000000000000000000000000000600082015250565b60006146b2600a83613e77565b91506146bd8261467c565b602082019050919050565b600060208201905081810360008301526146e1816146a5565b9050919050565b600080604083850312156146ff576146fe6136cb565b5b600061470d85828601613f49565b925050602061471e85828601613f73565b9150509250929050565b7f4e487b7100000000000000000000000000000000000000000000000000000000600052603260045260246000fd5b600082825260208201905092915050565b50565b6000614778600083614757565b915061478382614768565b600082019050919050565b60006080820190506147a36000830186613c79565b6147b06020830185613c79565b6147bd6040830184613abf565b81810360608301526147ce8161476b565b905094935050505056fea2646970667358221220778d59e2d005d36e9a3dbaae71f18692767223de06b7598ca840aa70c4cac70964736f6c63430008100033",
  "linkReferences": {},
  "deployedLinkReferences": {}
}