{
  "_format": "hh-sol-artifact-1",
  "contractName": "Pool721",
  "sourceName": "contracts/Pool721.sol",
  "abi": [
    {
      "inputs": [
        {
          "internalType": "address",
          "name": "_collection",
          "type": "address"
        },
        {
          "internalType": "address",
          "name": "_bondingCurve",
          "type": "address"
        },
        {
          "internalType": "uint128",
          "name": "_spotPrice",
          "type": "uint128"
        },
        {
          "internalType": "uint128",
          "name": "_delta",
          "type": "uint128"
        },
        {
          "internalType": "uint256",
          "name": "_divergence",
          "type": "uint256"
        },
        {
          "internalType": "uint256",
          "name": "_protocolFeeRatio",
          "type": "uint256"
        },
        {
          "internalType": "address",
          "name": "_router",
          "type": "address"
        }
      ],
      "stateMutability": "nonpayable",
      "type": "constructor"
    },
    {
      "anonymous": false,
      "inputs": [
        {
          "indexed": true,
          "internalType": "address",
          "name": "user",
          "type": "address"
        },
        {
          "indexed": false,
          "internalType": "uint256",
          "name": "userNum",
          "type": "uint256"
        },
        {
          "indexed": false,
          "internalType": "uint256",
          "name": "userAmount",
          "type": "uint256"
        }
      ],
      "name": "StakeFT",
      "type": "event"
    },
    {
      "anonymous": false,
      "inputs": [
        {
          "indexed": true,
          "internalType": "address",
          "name": "user",
          "type": "address"
        },
        {
          "indexed": false,
          "internalType": "uint256",
          "name": "userNum",
          "type": "uint256"
        },
        {
          "indexed": false,
          "internalType": "uint256[]",
          "name": "tokenIds",
          "type": "uint256[]"
        }
      ],
      "name": "StakeNFT",
      "type": "event"
    },
    {
      "anonymous": false,
      "inputs": [
        {
          "indexed": true,
          "internalType": "address",
          "name": "user",
          "type": "address"
        },
        {
          "indexed": false,
          "internalType": "uint256[]",
          "name": "tokenIds",
          "type": "uint256[]"
        },
        {
          "indexed": false,
          "internalType": "uint256",
          "name": "totalFee",
          "type": "uint256"
        }
      ],
      "name": "SwapFTforNFT",
      "type": "event"
    },
    {
      "anonymous": false,
      "inputs": [
        {
          "indexed": true,
          "internalType": "address",
          "name": "user",
          "type": "address"
        },
        {
          "indexed": false,
          "internalType": "uint256[]",
          "name": "tokenIds",
          "type": "uint256[]"
        },
        {
          "indexed": false,
          "internalType": "uint256",
          "name": "totalFee",
          "type": "uint256"
        }
      ],
      "name": "SwapNFTforFT",
      "type": "event"
    },
    {
      "anonymous": false,
      "inputs": [
        {
          "indexed": true,
          "internalType": "address",
          "name": "user",
          "type": "address"
        },
        {
          "indexed": false,
          "internalType": "uint256[]",
          "name": "tokenIds",
          "type": "uint256[]"
        },
        {
          "indexed": false,
          "internalType": "uint256",
          "name": "userNum",
          "type": "uint256"
        },
        {
          "indexed": false,
          "internalType": "uint256",
          "name": "userAmount",
          "type": "uint256"
        },
        {
          "indexed": false,
          "internalType": "uint256",
          "name": "userFee",
          "type": "uint256"
        }
      ],
      "name": "WithdrawFT",
      "type": "event"
    },
    {
      "anonymous": false,
      "inputs": [
        {
          "indexed": true,
          "internalType": "address",
          "name": "user",
          "type": "address"
        },
        {
          "indexed": false,
          "internalType": "uint256[]",
          "name": "tokenIds",
          "type": "uint256[]"
        },
        {
          "indexed": false,
          "internalType": "uint256",
          "name": "userNum",
          "type": "uint256"
        },
        {
          "indexed": false,
          "internalType": "uint256",
          "name": "userFee",
          "type": "uint256"
        }
      ],
      "name": "WithdrawNFT",
      "type": "event"
    },
    {
      "inputs": [],
      "name": "buyEventNum",
      "outputs": [
        {
          "internalType": "uint256",
          "name": "",
          "type": "uint256"
        }
      ],
      "stateMutability": "view",
      "type": "function"
    },
    {
      "inputs": [],
      "name": "collection",
      "outputs": [
        {
          "internalType": "address",
          "name": "",
          "type": "address"
        }
      ],
      "stateMutability": "view",
      "type": "function"
    },
    {
      "inputs": [
        {
          "internalType": "uint256",
          "name": "_itemNum",
          "type": "uint256"
        },
        {
          "internalType": "uint128",
          "name": "_spotPrice",
          "type": "uint128"
        },
        {
          "internalType": "uint256",
          "name": "_divergence",
          "type": "uint256"
        }
      ],
      "name": "getCalcBuyInfo",
      "outputs": [
        {
          "internalType": "uint256",
          "name": "",
          "type": "uint256"
        }
      ],
      "stateMutability": "view",
      "type": "function"
    },
    {
      "inputs": [
        {
          "internalType": "uint256",
          "name": "_itemNum",
          "type": "uint256"
        },
        {
          "internalType": "uint128",
          "name": "_spotPrice",
          "type": "uint128"
        },
        {
          "internalType": "uint256",
          "name": "_divergence",
          "type": "uint256"
        }
      ],
      "name": "getCalcSellInfo",
      "outputs": [
        {
          "internalType": "uint256",
          "name": "",
          "type": "uint256"
        }
      ],
      "stateMutability": "view",
      "type": "function"
    },
    {
      "inputs": [],
      "name": "getPoolInfo",
      "outputs": [
        {
          "components": [
            {
              "internalType": "address",
              "name": "bondingCurve",
              "type": "address"
            },
            {
              "internalType": "uint128",
              "name": "spotPrice",
              "type": "uint128"
            },
            {
              "internalType": "uint128",
              "name": "delta",
              "type": "uint128"
            },
            {
              "internalType": "uint256",
              "name": "divergence",
              "type": "uint256"
            },
            {
              "internalType": "uint256",
              "name": "buyNum",
              "type": "uint256"
            },
            {
              "internalType": "uint256",
              "name": "sellNum",
              "type": "uint256"
            }
          ],
          "internalType": "struct Pool721.PoolInfo",
          "name": "",
          "type": "tuple"
        }
      ],
      "stateMutability": "view",
      "type": "function"
    },
    {
      "inputs": [
        {
          "internalType": "address",
          "name": "_user",
          "type": "address"
        }
      ],
      "name": "getUserInfo",
      "outputs": [
        {
          "components": [
            {
              "internalType": "uint256",
              "name": "userInitBuyNum",
              "type": "uint256"
            },
            {
              "internalType": "uint256",
              "name": "userInitSellNum",
              "type": "uint256"
            },
            {
              "internalType": "uint256",
              "name": "userInitSellAmount",
              "type": "uint256"
            },
            {
              "internalType": "uint256",
              "name": "userNFTpoint",
              "type": "uint256"
            },
            {
              "internalType": "uint256",
              "name": "userFTpoint",
              "type": "uint256"
            }
          ],
          "internalType": "struct Pool721.UserInfo",
          "name": "",
          "type": "tuple"
        }
      ],
      "stateMutability": "view",
      "type": "function"
    },
    {
      "inputs": [
        {
          "internalType": "address",
          "name": "_user",
          "type": "address"
        }
      ],
      "name": "getUserStakeFTfee",
      "outputs": [
        {
          "internalType": "uint256",
          "name": "_userFee",
          "type": "uint256"
        }
      ],
      "stateMutability": "view",
      "type": "function"
    },
    {
      "inputs": [
        {
          "internalType": "address",
          "name": "_user",
          "type": "address"
        }
      ],
      "name": "getUserStakeNFTfee",
      "outputs": [
        {
          "internalType": "uint256",
          "name": "_userFee",
          "type": "uint256"
        }
      ],
      "stateMutability": "view",
      "type": "function"
    },
    {
      "inputs": [
        {
          "internalType": "address",
          "name": "",
          "type": "address"
        },
        {
          "internalType": "address",
          "name": "",
          "type": "address"
        },
        {
          "internalType": "uint256",
          "name": "",
          "type": "uint256"
        },
        {
          "internalType": "bytes",
          "name": "",
          "type": "bytes"
        }
      ],
      "name": "onERC721Received",
      "outputs": [
        {
          "internalType": "bytes4",
          "name": "",
          "type": "bytes4"
        }
      ],
      "stateMutability": "nonpayable",
      "type": "function"
    },
    {
      "inputs": [],
      "name": "poolInfo",
      "outputs": [
        {
          "internalType": "address",
          "name": "bondingCurve",
          "type": "address"
        },
        {
          "internalType": "uint128",
          "name": "spotPrice",
          "type": "uint128"
        },
        {
          "internalType": "uint128",
          "name": "delta",
          "type": "uint128"
        },
        {
          "internalType": "uint256",
          "name": "divergence",
          "type": "uint256"
        },
        {
          "internalType": "uint256",
          "name": "buyNum",
          "type": "uint256"
        },
        {
          "internalType": "uint256",
          "name": "sellNum",
          "type": "uint256"
        }
      ],
      "stateMutability": "view",
      "type": "function"
    },
    {
      "inputs": [],
      "name": "protocolFeeRatio",
      "outputs": [
        {
          "internalType": "uint256",
          "name": "",
          "type": "uint256"
        }
      ],
      "stateMutability": "view",
      "type": "function"
    },
    {
      "inputs": [],
      "name": "router",
      "outputs": [
        {
          "internalType": "address",
          "name": "",
          "type": "address"
        }
      ],
      "stateMutability": "view",
      "type": "function"
    },
    {
      "inputs": [],
      "name": "sellEventNum",
      "outputs": [
        {
          "internalType": "uint256",
          "name": "",
          "type": "uint256"
        }
      ],
      "stateMutability": "view",
      "type": "function"
    },
    {
      "inputs": [
        {
          "internalType": "address",
          "name": "_newRouter",
          "type": "address"
        }
      ],
      "name": "setRouter",
      "outputs": [],
      "stateMutability": "nonpayable",
      "type": "function"
    },
    {
      "inputs": [
        {
          "internalType": "uint256",
          "name": "_itemNum",
          "type": "uint256"
        },
        {
          "internalType": "address",
          "name": "_user",
          "type": "address"
        }
      ],
      "name": "stakeFT",
      "outputs": [],
      "stateMutability": "payable",
      "type": "function"
    },
    {
      "inputs": [],
      "name": "stakeFTprice",
      "outputs": [
        {
          "internalType": "uint128",
          "name": "",
          "type": "uint128"
        }
      ],
      "stateMutability": "view",
      "type": "function"
    },
    {
      "inputs": [
        {
          "internalType": "uint256[]",
          "name": "_tokenIds",
          "type": "uint256[]"
        },
        {
          "internalType": "address",
          "name": "_user",
          "type": "address"
        }
      ],
      "name": "stakeNFT",
      "outputs": [],
      "stateMutability": "nonpayable",
      "type": "function"
    },
    {
      "inputs": [],
      "name": "stakeNFTprice",
      "outputs": [
        {
          "internalType": "uint128",
          "name": "",
          "type": "uint128"
        }
      ],
      "stateMutability": "view",
      "type": "function"
    },
    {
      "inputs": [
        {
          "internalType": "uint256[]",
          "name": "_tokenIds",
          "type": "uint256[]"
        },
        {
          "internalType": "address",
          "name": "_user",
          "type": "address"
        }
      ],
      "name": "swapFTforNFT",
      "outputs": [
        {
          "internalType": "uint256",
          "name": "_protocolFee",
          "type": "uint256"
        }
      ],
      "stateMutability": "payable",
      "type": "function"
    },
    {
      "inputs": [
        {
          "internalType": "uint256[]",
          "name": "_tokenIds",
          "type": "uint256[]"
        },
        {
          "internalType": "uint256",
          "name": "_minExpectFee",
          "type": "uint256"
        },
        {
          "internalType": "address",
          "name": "_user",
          "type": "address"
        }
      ],
      "name": "swapNFTforFT",
      "outputs": [
        {
          "internalType": "uint256",
          "name": "_protocolFee",
          "type": "uint256"
        }
      ],
      "stateMutability": "payable",
      "type": "function"
    },
    {
      "inputs": [],
      "name": "totalFTfee",
      "outputs": [
        {
          "internalType": "uint256",
          "name": "",
          "type": "uint256"
        }
      ],
      "stateMutability": "view",
      "type": "function"
    },
    {
      "inputs": [],
      "name": "totalFTpoint",
      "outputs": [
        {
          "internalType": "uint256",
          "name": "",
          "type": "uint256"
        }
      ],
      "stateMutability": "view",
      "type": "function"
    },
    {
      "inputs": [],
      "name": "totalNFTfee",
      "outputs": [
        {
          "internalType": "uint256",
          "name": "",
          "type": "uint256"
        }
      ],
      "stateMutability": "view",
      "type": "function"
    },
    {
      "inputs": [],
      "name": "totalNFTpoint",
      "outputs": [
        {
          "internalType": "uint256",
          "name": "",
          "type": "uint256"
        }
      ],
      "stateMutability": "view",
      "type": "function"
    },
    {
      "inputs": [
        {
          "internalType": "uint256",
          "name": "_userSellNum",
          "type": "uint256"
        },
        {
          "internalType": "uint256[]",
          "name": "_tokenIds",
          "type": "uint256[]"
        },
        {
          "internalType": "address",
          "name": "_user",
          "type": "address"
        }
      ],
      "name": "withdrawFT",
      "outputs": [],
      "stateMutability": "payable",
      "type": "function"
    },
    {
      "inputs": [
        {
          "internalType": "uint256[]",
          "name": "_tokenIds",
          "type": "uint256[]"
        },
        {
          "internalType": "address",
          "name": "_user",
          "type": "address"
        }
      ],
      "name": "withdrawNFT",
      "outputs": [],
      "stateMutability": "payable",
      "type": "function"
    }
  ],
  "bytecode": "0x60806040523480156200001157600080fd5b5060405162005140380380620051408339818101604052810190620000379190620002f7565b86600160006101000a81548173ffffffffffffffffffffffffffffffffffffffff021916908373ffffffffffffffffffffffffffffffffffffffff16021790555085600a60000160006101000a81548173ffffffffffffffffffffffffffffffffffffffff021916908373ffffffffffffffffffffffffffffffffffffffff16021790555084600a60010160006101000a8154816fffffffffffffffffffffffffffffffff02191690836fffffffffffffffffffffffffffffffff16021790555084600760106101000a8154816fffffffffffffffffffffffffffffffff02191690836fffffffffffffffffffffffffffffffff16021790555084600760006101000a8154816fffffffffffffffffffffffffffffffff02191690836fffffffffffffffffffffffffffffffff16021790555083600a60010160106101000a8154816fffffffffffffffffffffffffffffffff02191690836fffffffffffffffffffffffffffffffff16021790555082600a600201819055508160008190555080600260006101000a81548173ffffffffffffffffffffffffffffffffffffffff021916908373ffffffffffffffffffffffffffffffffffffffff16021790555050505050505050620003aa565b600080fd5b600073ffffffffffffffffffffffffffffffffffffffff82169050919050565b600062000237826200020a565b9050919050565b62000249816200022a565b81146200025557600080fd5b50565b60008151905062000269816200023e565b92915050565b60006fffffffffffffffffffffffffffffffff82169050919050565b62000296816200026f565b8114620002a257600080fd5b50565b600081519050620002b6816200028b565b92915050565b6000819050919050565b620002d181620002bc565b8114620002dd57600080fd5b50565b600081519050620002f181620002c6565b92915050565b600080600080600080600060e0888a03121562000319576200031862000205565b5b6000620003298a828b0162000258565b97505060206200033c8a828b0162000258565b96505060406200034f8a828b01620002a5565b9550506060620003628a828b01620002a5565b9450506080620003758a828b01620002e0565b93505060a0620003888a828b01620002e0565b92505060c06200039b8a828b0162000258565b91505092959891949750929550565b614d8680620003ba6000396000f3fe6080604052600436106101815760003560e01c80636b469d39116100d1578063a09bf8c21161008a578063e7ede50211610064578063e7ede50214610582578063eaa62678146105ad578063f887ea40146105d8578063fc5ad2df1461060357610181565b8063a09bf8c214610500578063c0d786551461051c578063cb6f0d341461054557610181565b80636b469d39146103ec5780637a27d9f6146104295780637b6880ca146104545780637de1e5361461047f57806386524b2d146104aa578063895af871146104d557610181565b80634c4cbac41161013e57806354044ccb1161011857806354044ccb146103295780635a2f3d091461035457806360246c88146103845780636386c1c7146103af57610181565b80634c4cbac4146102a057806350902c17146102d057806353153836146102ec57610181565b8063150b7a0214610186578063244117b4146101c35780632767fa4b146101f35780632c7e49151461021e5780632f7e0b2e1461023a578063341d15fd14610263575b600080fd5b34801561019257600080fd5b506101ad60048036038101906101a89190613d52565b61062e565b6040516101ba9190613e10565b60405180910390f35b6101dd60048036038101906101d89190613ef3565b610642565b6040516101ea9190613f71565b60405180910390f35b3480156101ff57600080fd5b50610208610ad1565b6040516102159190613fb7565b60405180910390f35b61023860048036038101906102339190613fd2565b610af3565b005b34801561024657600080fd5b50610261600480360381019061025c9190613fd2565b6112e5565b005b34801561026f57600080fd5b5061028a6004803603810190610285919061405a565b611685565b6040516102979190613f71565b60405180910390f35b6102ba60048036038101906102b59190613fd2565b61175f565b6040516102c79190613f71565b60405180910390f35b6102ea60048036038101906102e591906140ad565b611bb6565b005b3480156102f857600080fd5b50610313600480360381019061030e919061405a565b6124d0565b6040516103209190613f71565b60405180910390f35b34801561033557600080fd5b5061033e6125aa565b60405161034b9190613f71565b60405180910390f35b34801561036057600080fd5b506103696125b0565b60405161037b9695949392919061412b565b60405180910390f35b34801561039057600080fd5b50610399612632565b6040516103a69190614234565b60405180910390f35b3480156103bb57600080fd5b506103d660048036038101906103d1919061424f565b612754565b6040516103e391906142e4565b60405180910390f35b3480156103f857600080fd5b50610413600480360381019061040e919061424f565b6127df565b6040516104209190613f71565b60405180910390f35b34801561043557600080fd5b5061043e6128f8565b60405161044b9190613f71565b60405180910390f35b34801561046057600080fd5b506104696128fe565b6040516104769190613fb7565b60405180910390f35b34801561048b57600080fd5b50610494612920565b6040516104a191906142ff565b60405180910390f35b3480156104b657600080fd5b506104bf612946565b6040516104cc9190613f71565b60405180910390f35b3480156104e157600080fd5b506104ea61294c565b6040516104f79190613f71565b60405180910390f35b61051a6004803603810190610515919061431a565b612952565b005b34801561052857600080fd5b50610543600480360381019061053e919061424f565b612d7b565b005b34801561055157600080fd5b5061056c6004803603810190610567919061424f565b612e4f565b6040516105799190613f71565b60405180910390f35b34801561058e57600080fd5b50610597612f68565b6040516105a49190613f71565b60405180910390f35b3480156105b957600080fd5b506105c2612f6e565b6040516105cf9190613f71565b60405180910390f35b3480156105e457600080fd5b506105ed612f74565b6040516105fa91906142ff565b60405180910390f35b34801561060f57600080fd5b50610618612f9a565b6040516106259190613f71565b60405180910390f35b600063150b7a0260e01b9050949350505050565b6000813373ffffffffffffffffffffffffffffffffffffffff168173ffffffffffffffffffffffffffffffffffffffff1614806106cc5750600260009054906101000a900473ffffffffffffffffffffffffffffffffffffffff1673ffffffffffffffffffffffffffffffffffffffff163373ffffffffffffffffffffffffffffffffffffffff16145b6106d557600080fd5b6000855190506000811161071e576040517f08c379a0000000000000000000000000000000000000000000000000000000008152600401610715906143b7565b60405180910390fd5b6000806000806000600a60000160009054906101000a900473ffffffffffffffffffffffffffffffffffffffff1673ffffffffffffffffffffffffffffffffffffffff1663c728b364600a60010160009054906101000a90046fffffffffffffffffffffffffffffffff16600a60010160109054906101000a90046fffffffffffffffffffffffffffffffff16600a600201548a6040518563ffffffff1660e01b81526004016107d194939291906143d7565b60a060405180830381865afa1580156107ee573d6000803e3d6000fd5b505050506040513d601f19601f82011682018060405250810190610812919061446b565b94509450945094509450600060028111156108305761082f6144e6565b5b856002811115610843576108426144e6565b5b14610883576040517f08c379a000000000000000000000000000000000000000000000000000000000815260040161087a90614561565b60405180910390fd5b600a600401548611156108cb576040517f08c379a00000000000000000000000000000000000000000000000000000000081526004016108c2906145cd565b60405180910390fd5b8981101561090e576040517f08c379a000000000000000000000000000000000000000000000000000000000815260040161090590614639565b60405180910390fd5b80471015610951576040517f08c379a0000000000000000000000000000000000000000000000000000000008152600401610948906146a5565b60405180910390fd5b856004600082825461096391906146f4565b9250508190555085600a600401600082825461097f9190614728565b9250508190555085600a600301600082825461099b91906146f4565b925050819055506109aa612fa0565b97506109b7848484613346565b6109c38b878b306134a4565b8873ffffffffffffffffffffffffffffffffffffffff166108fc829081150290604051600060405180830381858888f19350505050158015610a09573d6000803e3d6000fd5b50600260009054906101000a900473ffffffffffffffffffffffffffffffffffffffff1673ffffffffffffffffffffffffffffffffffffffff166108fc899081150290604051600060405180830381858888f19350505050158015610a72573d6000803e3d6000fd5b508873ffffffffffffffffffffffffffffffffffffffff167f52a8813c8bdca51f38292d707f835c85ffb8d74c66cc39a75609345ff2c3f0be8c83604051610abb92919061480b565b60405180910390a2505050505050509392505050565b600760109054906101000a90046fffffffffffffffffffffffffffffffff1681565b6000825190506000600f60008473ffffffffffffffffffffffffffffffffffffffff1673ffffffffffffffffffffffffffffffffffffffff1681526020019081526020016000206000015490506000610b4b8461356e565b905082600a600301541015610b95576040517f08c379a0000000000000000000000000000000000000000000000000000000008152600401610b8c90614887565b60405180910390fd5b82600f60008673ffffffffffffffffffffffffffffffffffffffff1673ffffffffffffffffffffffffffffffffffffffff168152602001908152602001600020600001541480610be9575082600a60030154145b610c28576040517f08c379a0000000000000000000000000000000000000000000000000000000008152600401610c1f906148f3565b60405180910390fd5b82600a6003016000828254610c3d9190614728565b925050819055506000600f60008673ffffffffffffffffffffffffffffffffffffffff1673ffffffffffffffffffffffffffffffffffffffff16815260200190815260200160002060000181905550600f60008573ffffffffffffffffffffffffffffffffffffffff1673ffffffffffffffffffffffffffffffffffffffff1681526020019081526020016000206003015460066000828254610ce09190614728565b925050819055508060096000828254610cf99190614728565b925050819055506000600f60008673ffffffffffffffffffffffffffffffffffffffff1673ffffffffffffffffffffffffffffffffffffffff168152602001908152602001600020600301819055506000831115610ec1576000806000600a60000160009054906101000a900473ffffffffffffffffffffffffffffffffffffffff1673ffffffffffffffffffffffffffffffffffffffff1663c728b364600760109054906101000a90046fffffffffffffffffffffffffffffffff16600a60010160109054906101000a90046fffffffffffffffffffffffffffffffff16670de0b6b3a7640000896040518563ffffffff1660e01b8152600401610e0194939291906143d7565b60a060405180830381865afa158015610e1e573d6000803e3d6000fd5b505050506040513d601f19601f82011682018060405250810190610e42919061446b565b505092509250925060006002811115610e5e57610e5d6144e6565b5b836002811115610e7157610e706144e6565b5b14610eb1576040517f08c379a0000000000000000000000000000000000000000000000000000000008152600401610ea890614561565b60405180910390fd5b610ebd60028383613687565b5050505b8282111561122f5760008383610ed79190614728565b9050600080600a60000160009054906101000a900473ffffffffffffffffffffffffffffffffffffffff1673ffffffffffffffffffffffffffffffffffffffff1663c728b364600760109054906101000a90046fffffffffffffffffffffffffffffffff16600a60010160109054906101000a90046fffffffffffffffffffffffffffffffff16670de0b6b3a7640000876040518563ffffffff1660e01b8152600401610f8794939291906143d7565b60a060405180830381865afa158015610fa4573d6000803e3d6000fd5b505050506040513d601f19601f82011682018060405250810190610fc8919061446b565b9450505050915060006002811115610fe357610fe26144e6565b5b826002811115610ff657610ff56144e6565b5b14611036576040517f08c379a000000000000000000000000000000000000000000000000000000000815260040161102d90614561565b60405180910390fd5b6000806000600a60000160009054906101000a900473ffffffffffffffffffffffffffffffffffffffff1673ffffffffffffffffffffffffffffffffffffffff16635d998912600760009054906101000a90046fffffffffffffffffffffffffffffffff16600a60010160109054906101000a90046fffffffffffffffffffffffffffffffff16670de0b6b3a76400008a6040518563ffffffff1660e01b81526004016110e694939291906143d7565b60a060405180830381865afa158015611103573d6000803e3d6000fd5b505050506040513d601f19601f82011682018060405250810190611127919061446b565b505092509250925060006002811115611143576111426144e6565b5b836002811115611156576111556144e6565b5b14611196576040517f08c379a000000000000000000000000000000000000000000000000000000000815260040161118d90614561565b60405180910390fd5b6111a260018383613687565b85600a60040160008282546111b79190614728565b9250508190555085600360008282546111d09190614728565b925050819055506000841115611228578973ffffffffffffffffffffffffffffffffffffffff166108fc859081150290604051600060405180830381858888f19350505050158015611226573d6000803e3d6000fd5b505b5050505050505b61123b858430876134a4565b600081111561128c578373ffffffffffffffffffffffffffffffffffffffff166108fc829081150290604051600060405180830381858888f1935050505015801561128a573d6000803e3d6000fd5b505b8373ffffffffffffffffffffffffffffffffffffffff167fae12f538fd8232ce822341f49f6323a75f6a7c19115d403ef481b0a39cf467758684846040516112d693929190614913565b60405180910390a25050505050565b803373ffffffffffffffffffffffffffffffffffffffff168173ffffffffffffffffffffffffffffffffffffffff16148061136d5750600260009054906101000a900473ffffffffffffffffffffffffffffffffffffffff1673ffffffffffffffffffffffffffffffffffffffff163373ffffffffffffffffffffffffffffffffffffffff16145b61137657600080fd5b600083519050600081116113bf576040517f08c379a00000000000000000000000000000000000000000000000000000000081526004016113b6906143b7565b60405180910390fd5b600080600080600a60000160009054906101000a900473ffffffffffffffffffffffffffffffffffffffff1673ffffffffffffffffffffffffffffffffffffffff16635d998912600760109054906101000a90046fffffffffffffffffffffffffffffffff16600a60010160109054906101000a90046fffffffffffffffffffffffffffffffff16600a60020154896040518563ffffffff1660e01b815260040161146d94939291906143d7565b60a060405180830381865afa15801561148a573d6000803e3d6000fd5b505050506040513d601f19601f820116820180604052508101906114ae919061446b565b945050935093509350600060028111156114cb576114ca6144e6565b5b8460028111156114de576114dd6144e6565b5b1461151e576040517f08c379a000000000000000000000000000000000000000000000000000000000815260040161151590614561565b60405180910390fd5b600061152982613858565b905080600f60008a73ffffffffffffffffffffffffffffffffffffffff1673ffffffffffffffffffffffffffffffffffffffff168152602001908152602001600020600301600082825461157d91906146f4565b92505081905550806006600082825461159691906146f4565b9250508190555085600f60008a73ffffffffffffffffffffffffffffffffffffffff1673ffffffffffffffffffffffffffffffffffffffff16815260200190815260200160002060000160008282546115ef91906146f4565b9250508190555085600a600301600082825461160b91906146f4565b9250508190555061161e60028585613687565b61162a89878a306134a4565b8773ffffffffffffffffffffffffffffffffffffffff167fb0c56c1c40b91909a8c61fe7d6feb60c8dc44e92ce0cff5beb3c5d449a7eb309878b604051611672929190614951565b60405180910390a2505050505050505050565b600080600a60000160009054906101000a900473ffffffffffffffffffffffffffffffffffffffff1673ffffffffffffffffffffffffffffffffffffffff1663c728b36485600a60010160109054906101000a90046fffffffffffffffffffffffffffffffff1686896040518563ffffffff1660e01b815260040161170d94939291906143d7565b60a060405180830381865afa15801561172a573d6000803e3d6000fd5b505050506040513d601f19601f8201168201806040525081019061174e919061446b565b945050505050809150509392505050565b6000813373ffffffffffffffffffffffffffffffffffffffff168173ffffffffffffffffffffffffffffffffffffffff1614806117e95750600260009054906101000a900473ffffffffffffffffffffffffffffffffffffffff1673ffffffffffffffffffffffffffffffffffffffff163373ffffffffffffffffffffffffffffffffffffffff16145b6117f257600080fd5b6000845190506000811161183b576040517f08c379a0000000000000000000000000000000000000000000000000000000008152600401611832906143b7565b60405180910390fd5b6000806000806000600a60000160009054906101000a900473ffffffffffffffffffffffffffffffffffffffff1673ffffffffffffffffffffffffffffffffffffffff16635d998912600a60010160009054906101000a90046fffffffffffffffffffffffffffffffff16600a60010160109054906101000a90046fffffffffffffffffffffffffffffffff16600a600201548a6040518563ffffffff1660e01b81526004016118ee94939291906143d7565b60a060405180830381865afa15801561190b573d6000803e3d6000fd5b505050506040513d601f19601f8201168201806040525081019061192f919061446b565b945094509450945094506000600281111561194d5761194c6144e6565b5b8560028111156119605761195f6144e6565b5b146119a0576040517f08c379a000000000000000000000000000000000000000000000000000000000815260040161199790614561565b60405180910390fd5b600a600301548611156119e8576040517f08c379a00000000000000000000000000000000000000000000000000000000081526004016119df906145cd565b60405180910390fd5b80341015611a2b576040517f08c379a0000000000000000000000000000000000000000000000000000000008152600401611a22906149cd565b60405180910390fd5b8560036000828254611a3d91906146f4565b9250508190555085600a6003016000828254611a599190614728565b9250508190555085600a6004016000828254611a7591906146f4565b92505081905550611a84612fa0565b9750611a91848484613346565b8873ffffffffffffffffffffffffffffffffffffffff166108fc8234611ab79190614728565b9081150290604051600060405180830381858888f19350505050158015611ae2573d6000803e3d6000fd5b50600260009054906101000a900473ffffffffffffffffffffffffffffffffffffffff1673ffffffffffffffffffffffffffffffffffffffff166108fc899081150290604051600060405180830381858888f19350505050158015611b4b573d6000803e3d6000fd5b50611b598a8b51308c6134a4565b8873ffffffffffffffffffffffffffffffffffffffff167f6469db8d2898ffda696aafd09bc1708333f063d0086bae9245bfbfddd7307ff68b83604051611ba192919061480b565b60405180910390a25050505050505092915050565b6000825190506000600f60008473ffffffffffffffffffffffffffffffffffffffff1673ffffffffffffffffffffffffffffffffffffffff1681526020019081526020016000206001015490506000600f60008573ffffffffffffffffffffffffffffffffffffffff1673ffffffffffffffffffffffffffffffffffffffff1681526020019081526020016000206002015490506000611c558561389b565b9050600087600a600401541015611ca1576040517f08c379a0000000000000000000000000000000000000000000000000000000008152600401611c9890614887565b60405180910390fd5b87600f60008873ffffffffffffffffffffffffffffffffffffffff1673ffffffffffffffffffffffffffffffffffffffff168152602001908152602001600020600101541480611cf5575087600a60040154145b611d34576040517f08c379a0000000000000000000000000000000000000000000000000000000008152600401611d2b906148f3565b60405180910390fd5b8488600f60008973ffffffffffffffffffffffffffffffffffffffff1673ffffffffffffffffffffffffffffffffffffffff16815260200190815260200160002060010154611d839190614728565b14611dc3576040517f08c379a0000000000000000000000000000000000000000000000000000000008152600401611dba90614a39565b60405180910390fd5b87600a6004016000828254611dd89190614728565b925050819055506000600f60008873ffffffffffffffffffffffffffffffffffffffff1673ffffffffffffffffffffffffffffffffffffffff168152602001908152602001600020600101819055506000600f60008873ffffffffffffffffffffffffffffffffffffffff1673ffffffffffffffffffffffffffffffffffffffff16815260200190815260200160002060020181905550600f60008773ffffffffffffffffffffffffffffffffffffffff1673ffffffffffffffffffffffffffffffffffffffff1681526020019081526020016000206004015460056000828254611ec39190614728565b925050819055508160086000828254611edc9190614728565b925050819055506000600f60008873ffffffffffffffffffffffffffffffffffffffff1673ffffffffffffffffffffffffffffffffffffffff16815260200190815260200160002060040181905550600088146120a3576000806000600a60000160009054906101000a900473ffffffffffffffffffffffffffffffffffffffff1673ffffffffffffffffffffffffffffffffffffffff16635d998912600760009054906101000a90046fffffffffffffffffffffffffffffffff16600a60010160109054906101000a90046fffffffffffffffffffffffffffffffff16670de0b6b3a76400008f6040518563ffffffff1660e01b8152600401611fe394939291906143d7565b60a060405180830381865afa158015612000573d6000803e3d6000fd5b505050506040513d601f19601f82011682018060405250810190612024919061446b565b5050925092509250600060028111156120405761203f6144e6565b5b836002811115612053576120526144e6565b5b14612093576040517f08c379a000000000000000000000000000000000000000000000000000000000815260040161208a90614561565b60405180910390fd5b61209f60018383613687565b5050505b838810156123c657600080600a60000160009054906101000a900473ffffffffffffffffffffffffffffffffffffffff1673ffffffffffffffffffffffffffffffffffffffff16635d998912600760009054906101000a90046fffffffffffffffffffffffffffffffff16600a60010160109054906101000a90046fffffffffffffffffffffffffffffffff16670de0b6b3a76400008e8b6121459190614728565b6040518563ffffffff1660e01b815260040161216494939291906143d7565b60a060405180830381865afa158015612181573d6000803e3d6000fd5b505050506040513d601f19601f820116820180604052508101906121a5919061446b565b94505050509150600060028111156121c0576121bf6144e6565b5b8260028111156121d3576121d26144e6565b5b14612213576040517f08c379a000000000000000000000000000000000000000000000000000000000815260040161220a90614561565b60405180910390fd5b600080600a60000160009054906101000a900473ffffffffffffffffffffffffffffffffffffffff1673ffffffffffffffffffffffffffffffffffffffff1663c728b364600760109054906101000a90046fffffffffffffffffffffffffffffffff16600a60010160109054906101000a90046fffffffffffffffffffffffffffffffff16670de0b6b3a76400008d6040518563ffffffff1660e01b81526004016122c194939291906143d7565b60a060405180830381865afa1580156122de573d6000803e3d6000fd5b505050506040513d601f19601f82011682018060405250810190612302919061446b565b505050915091506000600281111561231d5761231c6144e6565b5b8260028111156123305761232f6144e6565b5b14612370576040517f08c379a000000000000000000000000000000000000000000000000000000000815260040161236790614561565b60405180910390fd5b88600a60030160008282546123859190614728565b92505081905550886004600082825461239e9190614728565b925050819055506123b26002826000613687565b6123be8b8a308d6134a4565b829450505050505b82811015612421578573ffffffffffffffffffffffffffffffffffffffff166108fc82856123f49190614728565b9081150290604051600060405180830381858888f1935050505015801561241f573d6000803e3d6000fd5b505b6000821115612472578573ffffffffffffffffffffffffffffffffffffffff166108fc839081150290604051600060405180830381858888f19350505050158015612470573d6000803e3d6000fd5b505b8573ffffffffffffffffffffffffffffffffffffffff167f182a15e7df1d8f3dd0b212833cac160a9efae034c417f18c5b9350d4b89fff00888686866040516124be9493929190614a59565b60405180910390a25050505050505050565b600080600a60000160009054906101000a900473ffffffffffffffffffffffffffffffffffffffff1673ffffffffffffffffffffffffffffffffffffffff16635d99891285600a60010160109054906101000a90046fffffffffffffffffffffffffffffffff1686896040518563ffffffff1660e01b815260040161255894939291906143d7565b60a060405180830381865afa158015612575573d6000803e3d6000fd5b505050506040513d601f19601f82011682018060405250810190612599919061446b565b945050505050809150509392505050565b60055481565b600a8060000160009054906101000a900473ffffffffffffffffffffffffffffffffffffffff16908060010160009054906101000a90046fffffffffffffffffffffffffffffffff16908060010160109054906101000a90046fffffffffffffffffffffffffffffffff16908060020154908060030154908060040154905086565b61263a613ac5565b600a6040518060c00160405290816000820160009054906101000a900473ffffffffffffffffffffffffffffffffffffffff1673ffffffffffffffffffffffffffffffffffffffff1673ffffffffffffffffffffffffffffffffffffffff1681526020016001820160009054906101000a90046fffffffffffffffffffffffffffffffff166fffffffffffffffffffffffffffffffff166fffffffffffffffffffffffffffffffff1681526020016001820160109054906101000a90046fffffffffffffffffffffffffffffffff166fffffffffffffffffffffffffffffffff166fffffffffffffffffffffffffffffffff1681526020016002820154815260200160038201548152602001600482015481525050905090565b61275c613b35565b600f60008373ffffffffffffffffffffffffffffffffffffffff1673ffffffffffffffffffffffffffffffffffffffff1681526020019081526020016000206040518060a0016040529081600082015481526020016001820154815260200160028201548152602001600382015481526020016004820154815250509050919050565b600080600554600f60008573ffffffffffffffffffffffffffffffffffffffff1673ffffffffffffffffffffffffffffffffffffffff1681526020019081526020016000206004015460085460055461283891906146f4565b6128429190614aa5565b61284c9190614b2e565b9050600f60008473ffffffffffffffffffffffffffffffffffffffff1673ffffffffffffffffffffffffffffffffffffffff168152602001908152602001600020600401548111156128ed57600f60008473ffffffffffffffffffffffffffffffffffffffff1673ffffffffffffffffffffffffffffffffffffffff16815260200190815260200160002060040154816128e69190614728565b91506128f2565b600091505b50919050565b60005481565b600760009054906101000a90046fffffffffffffffffffffffffffffffff1681565b600160009054906101000a900473ffffffffffffffffffffffffffffffffffffffff1681565b60065481565b60045481565b803373ffffffffffffffffffffffffffffffffffffffff168173ffffffffffffffffffffffffffffffffffffffff1614806129da5750600260009054906101000a900473ffffffffffffffffffffffffffffffffffffffff1673ffffffffffffffffffffffffffffffffffffffff163373ffffffffffffffffffffffffffffffffffffffff16145b6129e357600080fd5b60008311612a26576040517f08c379a0000000000000000000000000000000000000000000000000000000008152600401612a1d906143b7565b60405180910390fd5b600080600080600a60000160009054906101000a900473ffffffffffffffffffffffffffffffffffffffff1673ffffffffffffffffffffffffffffffffffffffff1663c728b364600760009054906101000a90046fffffffffffffffffffffffffffffffff16600a60010160109054906101000a90046fffffffffffffffffffffffffffffffff16600a600201548b6040518563ffffffff1660e01b8152600401612ad494939291906143d7565b60a060405180830381865afa158015612af1573d6000803e3d6000fd5b505050506040513d601f19601f82011682018060405250810190612b15919061446b565b94505093509350935060006002811115612b3257612b316144e6565b5b846002811115612b4557612b446144e6565b5b14612b85576040517f08c379a0000000000000000000000000000000000000000000000000000000008152600401612b7c90614561565b60405180910390fd5b80341015612bc8576040517f08c379a0000000000000000000000000000000000000000000000000000000008152600401612bbf90614bab565b60405180910390fd5b6000612bd3826139b4565b905080600f60008973ffffffffffffffffffffffffffffffffffffffff1673ffffffffffffffffffffffffffffffffffffffff1681526020019081526020016000206004016000828254612c2791906146f4565b925050819055508060056000828254612c4091906146f4565b9250508190555087600f60008973ffffffffffffffffffffffffffffffffffffffff1673ffffffffffffffffffffffffffffffffffffffff1681526020019081526020016000206001016000828254612c9991906146f4565b9250508190555081600f60008973ffffffffffffffffffffffffffffffffffffffff1673ffffffffffffffffffffffffffffffffffffffff1681526020019081526020016000206002016000828254612cf291906146f4565b9250508190555087600a6004016000828254612d0e91906146f4565b92505081905550612d2160018585613687565b8673ffffffffffffffffffffffffffffffffffffffff167fb6462641302171c8e87e9239eaef317921962ccfe5a974d0d04b8256c4834da38984604051612d69929190614bcb565b60405180910390a25050505050505050565b3373ffffffffffffffffffffffffffffffffffffffff16600260009054906101000a900473ffffffffffffffffffffffffffffffffffffffff1673ffffffffffffffffffffffffffffffffffffffff1614612e0b576040517f08c379a0000000000000000000000000000000000000000000000000000000008152600401612e0290614c40565b60405180910390fd5b80600260006101000a81548173ffffffffffffffffffffffffffffffffffffffff021916908373ffffffffffffffffffffffffffffffffffffffff16021790555050565b600080600654600f60008573ffffffffffffffffffffffffffffffffffffffff1673ffffffffffffffffffffffffffffffffffffffff16815260200190815260200160002060030154600954600654612ea891906146f4565b612eb29190614aa5565b612ebc9190614b2e565b9050600f60008473ffffffffffffffffffffffffffffffffffffffff1673ffffffffffffffffffffffffffffffffffffffff16815260200190815260200160002060030154811115612f5d57600f60008473ffffffffffffffffffffffffffffffffffffffff1673ffffffffffffffffffffffffffffffffffffffff1681526020019081526020016000206003015481612f569190614728565b9150612f62565b600091505b50919050565b60085481565b60095481565b600260009054906101000a900473ffffffffffffffffffffffffffffffffffffffff1681565b60035481565b600080600354118015612fb557506000600454115b15613343576004546003541061317f57600080600a60000160009054906101000a900473ffffffffffffffffffffffffffffffffffffffff1673ffffffffffffffffffffffffffffffffffffffff16635b645d80600a60010160009054906101000a90046fffffffffffffffffffffffffffffffff16600a60010160109054906101000a90046fffffffffffffffffffffffffffffffff16600a600201546004546040518563ffffffff1660e01b815260040161307594939291906143d7565b6040805180830381865afa158015613091573d6000803e3d6000fd5b505050506040513d601f19601f820116820180604052508101906130b59190614c60565b91509150600060028111156130cd576130cc6144e6565b5b8260028111156130e0576130df6144e6565b5b14613120576040517f08c379a000000000000000000000000000000000000000000000000000000000815260040161311790614561565b60405180910390fd5b61313f600054670de0b6b3a7640000836139f79092919063ffffffff16565b925061315583826131509190614728565b613a1b565b600454600360008282546131699190614728565b9250508190555060006004819055505050613342565b600354600454111561334157600080600a60000160009054906101000a900473ffffffffffffffffffffffffffffffffffffffff1673ffffffffffffffffffffffffffffffffffffffff166388ec429a600a60010160009054906101000a90046fffffffffffffffffffffffffffffffff16600a60010160109054906101000a90046fffffffffffffffffffffffffffffffff16600a600201546003546040518563ffffffff1660e01b815260040161323b94939291906143d7565b6040805180830381865afa158015613257573d6000803e3d6000fd5b505050506040513d601f19601f8201168201806040525081019061327b9190614c60565b9150915060006002811115613293576132926144e6565b5b8260028111156132a6576132a56144e6565b5b146132e6576040517f08c379a00000000000000000000000000000000000000000000000000000000081526004016132dd90614561565b60405180910390fd5b613305600054670de0b6b3a7640000836139f79092919063ffffffff16565b925061331b83826133169190614728565b613a1b565b6003546004600082825461332f9190614728565b92505081905550600060038190555050505b5b5b90565b826fffffffffffffffffffffffffffffffff16600a60010160009054906101000a90046fffffffffffffffffffffffffffffffff166fffffffffffffffffffffffffffffffff16146133cf5782600a60010160006101000a8154816fffffffffffffffffffffffffffffffff02191690836fffffffffffffffffffffffffffffffff1602179055505b816fffffffffffffffffffffffffffffffff16600a60010160109054906101000a90046fffffffffffffffffffffffffffffffff166fffffffffffffffffffffffffffffffff161415801561343757506000826fffffffffffffffffffffffffffffffff1614155b156134795781600a60010160106101000a8154816fffffffffffffffffffffffffffffffff02191690836fffffffffffffffffffffffffffffffff1602179055505b80600a600201541415801561348f575060008114155b1561349f5780600a600201819055505b505050565b60005b8381101561356757600160009054906101000a900473ffffffffffffffffffffffffffffffffffffffff1673ffffffffffffffffffffffffffffffffffffffff1663b88d4fde848488858151811061350257613501614ca0565b5b60200260200101516040518463ffffffff1660e01b815260040161352893929190614d06565b600060405180830381600087803b15801561354257600080fd5b505af1158015613556573d6000803e3d6000fd5b5050505080806001019150506134a7565b5050505050565b600080600654600f60008573ffffffffffffffffffffffffffffffffffffffff1673ffffffffffffffffffffffffffffffffffffffff168152602001908152602001600020600301546009546006546135c791906146f4565b6135d19190614aa5565b6135db9190614b2e565b9050600f60008473ffffffffffffffffffffffffffffffffffffffff1673ffffffffffffffffffffffffffffffffffffffff1681526020019081526020016000206003015481111561367c57600f60008473ffffffffffffffffffffffffffffffffffffffff1673ffffffffffffffffffffffffffffffffffffffff16815260200190815260200160002060030154816136759190614728565b9150613681565b600091505b50919050565b816fffffffffffffffffffffffffffffffff16600760009054906101000a90046fffffffffffffffffffffffffffffffff166fffffffffffffffffffffffffffffffff16141580156136d95750600183145b156137185781600760006101000a8154816fffffffffffffffffffffffffffffffff02191690836fffffffffffffffffffffffffffffffff1602179055505b816fffffffffffffffffffffffffffffffff16600760109054906101000a90046fffffffffffffffffffffffffffffffff166fffffffffffffffffffffffffffffffff161415801561376a5750600283145b156137a95781600760106101000a8154816fffffffffffffffffffffffffffffffff02191690836fffffffffffffffffffffffffffffffff1602179055505b806fffffffffffffffffffffffffffffffff16600a60010160109054906101000a90046fffffffffffffffffffffffffffffffff166fffffffffffffffffffffffffffffffff161415801561381157506000816fffffffffffffffffffffffffffffffff1614155b156138535780600a60010160106101000a8154816fffffffffffffffffffffffffffffffff02191690836fffffffffffffffffffffffffffffffff1602179055505b505050565b6000806006540361386b57819050613896565b60095460065461387b91906146f4565b826006546138899190614aa5565b6138939190614b2e565b90505b919050565b600080600554600f60008573ffffffffffffffffffffffffffffffffffffffff1673ffffffffffffffffffffffffffffffffffffffff168152602001908152602001600020600401546008546005546138f491906146f4565b6138fe9190614aa5565b6139089190614b2e565b9050600f60008473ffffffffffffffffffffffffffffffffffffffff1673ffffffffffffffffffffffffffffffffffffffff168152602001908152602001600020600401548111156139a957600f60008473ffffffffffffffffffffffffffffffffffffffff1673ffffffffffffffffffffffffffffffffffffffff16815260200190815260200160002060040154816139a29190614728565b91506139ae565b600091505b50919050565b600080600554036139c7578190506139f2565b6008546005546139d791906146f4565b826005546139e59190614aa5565b6139ef9190614b2e565b90505b919050565b600082840290508284820414841517613a0f57600080fd5b81810490509392505050565b600060055403613a43578060096000828254613a3791906146f4565b92505081905550613ac2565b600060065403613a6b578060086000828254613a5f91906146f4565b92505081905550613ac1565b600281613a789190614b2e565b60086000828254613a8991906146f4565b92505081905550600281613a9d9190614b2e565b81613aa89190614728565b60096000828254613ab991906146f4565b925050819055505b5b50565b6040518060c00160405280600073ffffffffffffffffffffffffffffffffffffffff16815260200160006fffffffffffffffffffffffffffffffff16815260200160006fffffffffffffffffffffffffffffffff1681526020016000815260200160008152602001600081525090565b6040518060a0016040528060008152602001600081526020016000815260200160008152602001600081525090565b6000604051905090565b600080fd5b600080fd5b600073ffffffffffffffffffffffffffffffffffffffff82169050919050565b6000613ba382613b78565b9050919050565b613bb381613b98565b8114613bbe57600080fd5b50565b600081359050613bd081613baa565b92915050565b6000819050919050565b613be981613bd6565b8114613bf457600080fd5b50565b600081359050613c0681613be0565b92915050565b600080fd5b600080fd5b6000601f19601f8301169050919050565b7f4e487b7100000000000000000000000000000000000000000000000000000000600052604160045260246000fd5b613c5f82613c16565b810181811067ffffffffffffffff82111715613c7e57613c7d613c27565b5b80604052505050565b6000613c91613b64565b9050613c9d8282613c56565b919050565b600067ffffffffffffffff821115613cbd57613cbc613c27565b5b613cc682613c16565b9050602081019050919050565b82818337600083830152505050565b6000613cf5613cf084613ca2565b613c87565b905082815260208101848484011115613d1157613d10613c11565b5b613d1c848285613cd3565b509392505050565b600082601f830112613d3957613d38613c0c565b5b8135613d49848260208601613ce2565b91505092915050565b60008060008060808587031215613d6c57613d6b613b6e565b5b6000613d7a87828801613bc1565b9450506020613d8b87828801613bc1565b9350506040613d9c87828801613bf7565b925050606085013567ffffffffffffffff811115613dbd57613dbc613b73565b5b613dc987828801613d24565b91505092959194509250565b60007fffffffff0000000000000000000000000000000000000000000000000000000082169050919050565b613e0a81613dd5565b82525050565b6000602082019050613e256000830184613e01565b92915050565b600067ffffffffffffffff821115613e4657613e45613c27565b5b602082029050602081019050919050565b600080fd5b6000613e6f613e6a84613e2b565b613c87565b90508083825260208201905060208402830185811115613e9257613e91613e57565b5b835b81811015613ebb5780613ea78882613bf7565b845260208401935050602081019050613e94565b5050509392505050565b600082601f830112613eda57613ed9613c0c565b5b8135613eea848260208601613e5c565b91505092915050565b600080600060608486031215613f0c57613f0b613b6e565b5b600084013567ffffffffffffffff811115613f2a57613f29613b73565b5b613f3686828701613ec5565b9350506020613f4786828701613bf7565b9250506040613f5886828701613bc1565b9150509250925092565b613f6b81613bd6565b82525050565b6000602082019050613f866000830184613f62565b92915050565b60006fffffffffffffffffffffffffffffffff82169050919050565b613fb181613f8c565b82525050565b6000602082019050613fcc6000830184613fa8565b92915050565b60008060408385031215613fe957613fe8613b6e565b5b600083013567ffffffffffffffff81111561400757614006613b73565b5b61401385828601613ec5565b925050602061402485828601613bc1565b9150509250929050565b61403781613f8c565b811461404257600080fd5b50565b6000813590506140548161402e565b92915050565b60008060006060848603121561407357614072613b6e565b5b600061408186828701613bf7565b935050602061409286828701614045565b92505060406140a386828701613bf7565b9150509250925092565b6000806000606084860312156140c6576140c5613b6e565b5b60006140d486828701613bf7565b935050602084013567ffffffffffffffff8111156140f5576140f4613b73565b5b61410186828701613ec5565b925050604061411286828701613bc1565b9150509250925092565b61412581613b98565b82525050565b600060c082019050614140600083018961411c565b61414d6020830188613fa8565b61415a6040830187613fa8565b6141676060830186613f62565b6141746080830185613f62565b61418160a0830184613f62565b979650505050505050565b61419581613b98565b82525050565b6141a481613f8c565b82525050565b6141b381613bd6565b82525050565b60c0820160008201516141cf600085018261418c565b5060208201516141e2602085018261419b565b5060408201516141f5604085018261419b565b50606082015161420860608501826141aa565b50608082015161421b60808501826141aa565b5060a082015161422e60a08501826141aa565b50505050565b600060c08201905061424960008301846141b9565b92915050565b60006020828403121561426557614264613b6e565b5b600061427384828501613bc1565b91505092915050565b60a08201600082015161429260008501826141aa565b5060208201516142a560208501826141aa565b5060408201516142b860408501826141aa565b5060608201516142cb60608501826141aa565b5060808201516142de60808501826141aa565b50505050565b600060a0820190506142f9600083018461427c565b92915050565b6000602082019050614314600083018461411c565b92915050565b6000806040838503121561433157614330613b6e565b5b600061433f85828601613bf7565b925050602061435085828601613bc1565b9150509250929050565b600082825260208201905092915050565b7f4e6f742030000000000000000000000000000000000000000000000000000000600082015250565b60006143a160058361435a565b91506143ac8261436b565b602082019050919050565b600060208201905081810360008301526143d081614394565b9050919050565b60006080820190506143ec6000830187613fa8565b6143f96020830186613fa8565b6144066040830185613f62565b6144136060830184613f62565b95945050505050565b6003811061442957600080fd5b50565b60008151905061443b8161441c565b92915050565b6000815190506144508161402e565b92915050565b60008151905061446581613be0565b92915050565b600080600080600060a0868803121561448757614486613b6e565b5b60006144958882890161442c565b95505060206144a688828901614441565b94505060406144b788828901614441565b93505060606144c888828901614456565b92505060806144d988828901614456565b9150509295509295909350565b7f4e487b7100000000000000000000000000000000000000000000000000000000600052602160045260246000fd5b7f426f6e64696e67206572726f7200000000000000000000000000000000000000600082015250565b600061454b600d8361435a565b915061455682614515565b602082019050919050565b6000602082019050818103600083015261457a8161453e565b9050919050565b7f4e6f7420656e6f756768206c6971756964697479000000000000000000000000600082015250565b60006145b760148361435a565b91506145c282614581565b602082019050919050565b600060208201905081810360008301526145e6816145aa565b9050919050565b7f4e6f742065787065637465642076616c75650000000000000000000000000000600082015250565b600061462360128361435a565b915061462e826145ed565b602082019050919050565b6000602082019050818103600083015261465281614616565b9050919050565b7f4e6f7420656e6f75676820636f6e74726163742062616c616e63650000000000600082015250565b600061468f601b8361435a565b915061469a82614659565b602082019050919050565b600060208201905081810360008301526146be81614682565b9050919050565b7f4e487b7100000000000000000000000000000000000000000000000000000000600052601160045260246000fd5b60006146ff82613bd6565b915061470a83613bd6565b9250828201905080821115614722576147216146c5565b5b92915050565b600061473382613bd6565b915061473e83613bd6565b9250828203905081811115614756576147556146c5565b5b92915050565b600081519050919050565b600082825260208201905092915050565b6000819050602082019050919050565b600061479483836141aa565b60208301905092915050565b6000602082019050919050565b60006147b88261475c565b6147c28185614767565b93506147cd83614778565b8060005b838110156147fe5781516147e58882614788565b97506147f0836147a0565b9250506001810190506147d1565b5085935050505092915050565b6000604082019050818103600083015261482581856147ad565b90506148346020830184613f62565b9392505050565b7f506f6f6c206e6f7420656e6f756768204e465400000000000000000000000000600082015250565b600061487160138361435a565b915061487c8261483b565b602082019050919050565b600060208201905081810360008301526148a081614864565b9050919050565b7f536f6d657468696e672069732077726f6e672e00000000000000000000000000600082015250565b60006148dd60138361435a565b91506148e8826148a7565b602082019050919050565b6000602082019050818103600083015261490c816148d0565b9050919050565b6000606082019050818103600083015261492d81866147ad565b905061493c6020830185613f62565b6149496040830184613f62565b949350505050565b60006040820190506149666000830185613f62565b818103602083015261497881846147ad565b90509392505050565b7f4e6f7420656e6f7567682076616c756500000000000000000000000000000000600082015250565b60006149b760108361435a565b91506149c282614981565b602082019050919050565b600060208201905081810360008301526149e6816149aa565b9050919050565b7f7472756500000000000000000000000000000000000000000000000000000000600082015250565b6000614a2360048361435a565b9150614a2e826149ed565b602082019050919050565b60006020820190508181036000830152614a5281614a16565b9050919050565b60006080820190508181036000830152614a7381876147ad565b9050614a826020830186613f62565b614a8f6040830185613f62565b614a9c6060830184613f62565b95945050505050565b6000614ab082613bd6565b9150614abb83613bd6565b9250817fffffffffffffffffffffffffffffffffffffffffffffffffffffffffffffffff0483118215151615614af457614af36146c5565b5b828202905092915050565b7f4e487b7100000000000000000000000000000000000000000000000000000000600052601260045260246000fd5b6000614b3982613bd6565b9150614b4483613bd6565b925082614b5457614b53614aff565b5b828204905092915050565b7f496e73756666696369656e742056616c75650000000000000000000000000000600082015250565b6000614b9560128361435a565b9150614ba082614b5f565b602082019050919050565b60006020820190508181036000830152614bc481614b88565b9050919050565b6000604082019050614be06000830185613f62565b614bed6020830184613f62565b9392505050565b7f6f6e6c79526f7574657200000000000000000000000000000000000000000000600082015250565b6000614c2a600a8361435a565b9150614c3582614bf4565b602082019050919050565b60006020820190508181036000830152614c5981614c1d565b9050919050565b60008060408385031215614c7757614c76613b6e565b5b6000614c858582860161442c565b9250506020614c9685828601614456565b9150509250929050565b7f4e487b7100000000000000000000000000000000000000000000000000000000600052603260045260246000fd5b600082825260208201905092915050565b50565b6000614cf0600083614ccf565b9150614cfb82614ce0565b600082019050919050565b6000608082019050614d1b600083018661411c565b614d28602083018561411c565b614d356040830184613f62565b8181036060830152614d4681614ce3565b905094935050505056fea264697066735822122008179c3bc692a5479b53eed7e27c17ea9296e8a880bbd3794e5d231599b40e6764736f6c63430008100033",
  "linkReferences": {},
  "deployedLinkReferences": {}
}