{
  "_format": "hh-sol-artifact-1",
  "contractName": "Pool721",
  "sourceName": "contracts/Pool721.sol",
  "abi": [
    {
      "inputs": [
        {
          "internalType": "address",
          "name": "_collection",
          "type": "address"
        },
        {
          "internalType": "address",
          "name": "_bondingCurve",
          "type": "address"
        },
        {
          "internalType": "uint128",
          "name": "_spotPrice",
          "type": "uint128"
        },
        {
          "internalType": "uint128",
          "name": "_delta",
          "type": "uint128"
        },
        {
          "internalType": "uint256",
          "name": "_spread",
          "type": "uint256"
        },
        {
          "internalType": "uint256",
          "name": "_protocolFeeRatio",
          "type": "uint256"
        },
        {
          "internalType": "address",
          "name": "_router",
          "type": "address"
        }
      ],
      "stateMutability": "nonpayable",
      "type": "constructor"
    },
    {
      "inputs": [],
      "name": "bondingCurve",
      "outputs": [
        {
          "internalType": "address",
          "name": "",
          "type": "address"
        }
      ],
      "stateMutability": "view",
      "type": "function"
    },
    {
      "inputs": [],
      "name": "buyEventNum",
      "outputs": [
        {
          "internalType": "uint256",
          "name": "",
          "type": "uint256"
        }
      ],
      "stateMutability": "view",
      "type": "function"
    },
    {
      "inputs": [],
      "name": "collection",
      "outputs": [
        {
          "internalType": "address",
          "name": "",
          "type": "address"
        }
      ],
      "stateMutability": "view",
      "type": "function"
    },
    {
      "inputs": [
        {
          "internalType": "uint256",
          "name": "_itemNum",
          "type": "uint256"
        },
        {
          "internalType": "uint128",
          "name": "_spotPrice",
          "type": "uint128"
        }
      ],
      "name": "getCalcBuyInfo",
      "outputs": [
        {
          "internalType": "uint256",
          "name": "",
          "type": "uint256"
        }
      ],
      "stateMutability": "view",
      "type": "function"
    },
    {
      "inputs": [
        {
          "internalType": "uint256",
          "name": "_itemNum",
          "type": "uint256"
        },
        {
          "internalType": "uint128",
          "name": "_spotPrice",
          "type": "uint128"
        }
      ],
      "name": "getCalcSellInfo",
      "outputs": [
        {
          "internalType": "uint256",
          "name": "",
          "type": "uint256"
        }
      ],
      "stateMutability": "view",
      "type": "function"
    },
    {
      "inputs": [],
      "name": "getPoolInfo",
      "outputs": [
        {
          "components": [
            {
              "internalType": "uint128",
              "name": "spotPrice",
              "type": "uint128"
            },
            {
              "internalType": "uint128",
              "name": "delta",
              "type": "uint128"
            },
            {
              "internalType": "uint256",
              "name": "spread",
              "type": "uint256"
            },
            {
              "internalType": "uint256",
              "name": "buyNum",
              "type": "uint256"
            },
            {
              "internalType": "uint256",
              "name": "sellNum",
              "type": "uint256"
            }
          ],
          "internalType": "struct Pool721.PoolInfo",
          "name": "",
          "type": "tuple"
        }
      ],
      "stateMutability": "view",
      "type": "function"
    },
    {
      "inputs": [
        {
          "internalType": "address",
          "name": "_user",
          "type": "address"
        }
      ],
      "name": "getUserInfo",
      "outputs": [
        {
          "components": [
            {
              "internalType": "uint256",
              "name": "userInitBuyNum",
              "type": "uint256"
            },
            {
              "internalType": "uint256",
              "name": "userInitSellNum",
              "type": "uint256"
            },
            {
              "internalType": "uint256",
              "name": "userInitSellAmount",
              "type": "uint256"
            },
            {
              "internalType": "uint256",
              "name": "userNFTpoint",
              "type": "uint256"
            },
            {
              "internalType": "uint256",
              "name": "userFTpoint",
              "type": "uint256"
            }
          ],
          "internalType": "struct Pool721.UserInfo",
          "name": "",
          "type": "tuple"
        }
      ],
      "stateMutability": "view",
      "type": "function"
    },
    {
      "inputs": [
        {
          "internalType": "address",
          "name": "_user",
          "type": "address"
        }
      ],
      "name": "getUserStakeNFTfee",
      "outputs": [
        {
          "internalType": "uint256",
          "name": "_userFee",
          "type": "uint256"
        }
      ],
      "stateMutability": "view",
      "type": "function"
    },
    {
      "inputs": [
        {
          "internalType": "uint256",
          "name": "",
          "type": "uint256"
        }
      ],
      "name": "holdIds",
      "outputs": [
        {
          "internalType": "uint256",
          "name": "",
          "type": "uint256"
        }
      ],
      "stateMutability": "view",
      "type": "function"
    },
    {
      "inputs": [],
      "name": "isOtherStake",
      "outputs": [
        {
          "internalType": "bool",
          "name": "",
          "type": "bool"
        }
      ],
      "stateMutability": "view",
      "type": "function"
    },
    {
      "inputs": [
        {
          "internalType": "address",
          "name": "",
          "type": "address"
        },
        {
          "internalType": "address",
          "name": "",
          "type": "address"
        },
        {
          "internalType": "uint256",
          "name": "",
          "type": "uint256"
        },
        {
          "internalType": "bytes",
          "name": "",
          "type": "bytes"
        }
      ],
      "name": "onERC721Received",
      "outputs": [
        {
          "internalType": "bytes4",
          "name": "",
          "type": "bytes4"
        }
      ],
      "stateMutability": "nonpayable",
      "type": "function"
    },
    {
      "inputs": [],
      "name": "poolInfo",
      "outputs": [
        {
          "internalType": "uint128",
          "name": "spotPrice",
          "type": "uint128"
        },
        {
          "internalType": "uint128",
          "name": "delta",
          "type": "uint128"
        },
        {
          "internalType": "uint256",
          "name": "spread",
          "type": "uint256"
        },
        {
          "internalType": "uint256",
          "name": "buyNum",
          "type": "uint256"
        },
        {
          "internalType": "uint256",
          "name": "sellNum",
          "type": "uint256"
        }
      ],
      "stateMutability": "view",
      "type": "function"
    },
    {
      "inputs": [],
      "name": "protocolFeeRatio",
      "outputs": [
        {
          "internalType": "uint256",
          "name": "",
          "type": "uint256"
        }
      ],
      "stateMutability": "view",
      "type": "function"
    },
    {
      "inputs": [],
      "name": "router",
      "outputs": [
        {
          "internalType": "address",
          "name": "",
          "type": "address"
        }
      ],
      "stateMutability": "view",
      "type": "function"
    },
    {
      "inputs": [],
      "name": "sellEventNum",
      "outputs": [
        {
          "internalType": "uint256",
          "name": "",
          "type": "uint256"
        }
      ],
      "stateMutability": "view",
      "type": "function"
    },
    {
      "inputs": [
        {
          "internalType": "address",
          "name": "_newRouter",
          "type": "address"
        }
      ],
      "name": "setRouter",
      "outputs": [],
      "stateMutability": "nonpayable",
      "type": "function"
    },
    {
      "inputs": [
        {
          "internalType": "uint256[]",
          "name": "_tokenIds",
          "type": "uint256[]"
        },
        {
          "internalType": "address",
          "name": "_user",
          "type": "address"
        }
      ],
      "name": "stakeNFT",
      "outputs": [],
      "stateMutability": "nonpayable",
      "type": "function"
    },
    {
      "inputs": [],
      "name": "stakeNFTprice",
      "outputs": [
        {
          "internalType": "uint128",
          "name": "",
          "type": "uint128"
        }
      ],
      "stateMutability": "view",
      "type": "function"
    },
    {
      "inputs": [
        {
          "internalType": "uint256[]",
          "name": "_tokenIds",
          "type": "uint256[]"
        },
        {
          "internalType": "address",
          "name": "_user",
          "type": "address"
        }
      ],
      "name": "swapFTforNFT",
      "outputs": [
        {
          "internalType": "uint256",
          "name": "_protocolFee",
          "type": "uint256"
        }
      ],
      "stateMutability": "payable",
      "type": "function"
    },
    {
      "inputs": [
        {
          "internalType": "uint256[]",
          "name": "_tokenIds",
          "type": "uint256[]"
        },
        {
          "internalType": "uint256",
          "name": "_minExpectFee",
          "type": "uint256"
        },
        {
          "internalType": "address",
          "name": "_user",
          "type": "address"
        }
      ],
      "name": "swapNFTforFT",
      "outputs": [
        {
          "internalType": "uint256",
          "name": "_protocolFee",
          "type": "uint256"
        }
      ],
      "stateMutability": "payable",
      "type": "function"
    },
    {
      "inputs": [],
      "name": "totalNFTfee",
      "outputs": [
        {
          "internalType": "uint256",
          "name": "",
          "type": "uint256"
        }
      ],
      "stateMutability": "view",
      "type": "function"
    },
    {
      "inputs": [],
      "name": "totalNFTpoint",
      "outputs": [
        {
          "internalType": "uint256",
          "name": "",
          "type": "uint256"
        }
      ],
      "stateMutability": "view",
      "type": "function"
    },
    {
      "inputs": [
        {
          "internalType": "uint256[]",
          "name": "_tokenIds",
          "type": "uint256[]"
        },
        {
          "internalType": "address",
          "name": "_user",
          "type": "address"
        }
      ],
      "name": "withdrawNFT",
      "outputs": [],
      "stateMutability": "payable",
      "type": "function"
    }
  ],
  "bytecode": "0x60806040523480156200001157600080fd5b5060405162003cba38038062003cba8339818101604052810190620000379190620002d6565b86600160006101000a81548173ffffffffffffffffffffffffffffffffffffffff021916908373ffffffffffffffffffffffffffffffffffffffff16021790555085600260006101000a81548173ffffffffffffffffffffffffffffffffffffffff021916908373ffffffffffffffffffffffffffffffffffffffff16021790555084600a60000160006101000a8154816fffffffffffffffffffffffffffffffff02191690836fffffffffffffffffffffffffffffffff16021790555084600760006101000a8154816fffffffffffffffffffffffffffffffff02191690836fffffffffffffffffffffffffffffffff16021790555083600a60000160106101000a8154816fffffffffffffffffffffffffffffffff02191690836fffffffffffffffffffffffffffffffff16021790555082600a600101819055508160008190555080600360006101000a81548173ffffffffffffffffffffffffffffffffffffffff021916908373ffffffffffffffffffffffffffffffffffffffff1602179055506001600960006101000a81548160ff0219169083151502179055505050505050505062000389565b600080fd5b600073ffffffffffffffffffffffffffffffffffffffff82169050919050565b60006200021682620001e9565b9050919050565b620002288162000209565b81146200023457600080fd5b50565b60008151905062000248816200021d565b92915050565b60006fffffffffffffffffffffffffffffffff82169050919050565b62000275816200024e565b81146200028157600080fd5b50565b60008151905062000295816200026a565b92915050565b6000819050919050565b620002b0816200029b565b8114620002bc57600080fd5b50565b600081519050620002d081620002a5565b92915050565b600080600080600080600060e0888a031215620002f857620002f7620001e4565b5b6000620003088a828b0162000237565b97505060206200031b8a828b0162000237565b96505060406200032e8a828b0162000284565b9550506060620003418a828b0162000284565b9450506080620003548a828b01620002bf565b93505060a0620003678a828b01620002bf565b92505060c06200037a8a828b0162000237565b91505092959891949750929550565b61392180620003996000396000f3fe6080604052600436106101405760003560e01c80637de1e536116100b6578063cb6f0d341161006f578063cb6f0d3414610463578063eaa62678146104a0578063eb119c97146104cb578063eff1d50e14610508578063f887ea4014610533578063fc5ad2df1461055e57610140565b80637de1e5361461035157806386524b2d1461037c578063895af871146103a7578063bbd265ab146103d2578063c0d78655146103fd578063cb31fa821461042657610140565b80634c4cbac4116101085780634c4cbac414610222578063531fb11d146102525780635a2f3d091461028f57806360246c88146102be5780636386c1c7146102e95780637a27d9f61461032657610140565b8063150b7a0214610145578063244117b4146101825780632767fa4b146101b25780632c7e4915146101dd5780632f7e0b2e146101f9575b600080fd5b34801561015157600080fd5b5061016c60048036038101906101679190612b8c565b610589565b6040516101799190612c4a565b60405180910390f35b61019c60048036038101906101979190612cc5565b61059d565b6040516101a99190612d48565b60405180910390f35b3480156101be57600080fd5b506101c76109db565b6040516101d49190612d8e565b60405180910390f35b6101f760048036038101906101f29190612da9565b6109fd565b005b34801561020557600080fd5b50610220600480360381019061021b9190612da9565b6110fb565b005b61023c60048036038101906102379190612da9565b61144a565b6040516102499190612d48565b60405180910390f35b34801561025e57600080fd5b5061027960048036038101906102749190612e35565b611852565b6040516102869190612d48565b60405180910390f35b34801561029b57600080fd5b506102a461192d565b6040516102b5959493929190612e75565b60405180910390f35b3480156102ca57600080fd5b506102d3611989565b6040516102e09190612f4e565b60405180910390f35b3480156102f557600080fd5b50610310600480360381019061030b9190612f69565b611a55565b60405161031d9190612ffe565b60405180910390f35b34801561033257600080fd5b5061033b611ae0565b6040516103489190612d48565b60405180910390f35b34801561035d57600080fd5b50610366611ae6565b6040516103739190613028565b60405180910390f35b34801561038857600080fd5b50610391611b0c565b60405161039e9190612d48565b60405180910390f35b3480156103b357600080fd5b506103bc611b12565b6040516103c99190612d48565b60405180910390f35b3480156103de57600080fd5b506103e7611b18565b6040516103f4919061305e565b60405180910390f35b34801561040957600080fd5b50610424600480360381019061041f9190612f69565b611b2b565b005b34801561043257600080fd5b5061044d60048036038101906104489190612e35565b611bff565b60405161045a9190612d48565b60405180910390f35b34801561046f57600080fd5b5061048a60048036038101906104859190612f69565b611cda565b6040516104979190612d48565b60405180910390f35b3480156104ac57600080fd5b506104b5611df3565b6040516104c29190612d48565b60405180910390f35b3480156104d757600080fd5b506104f260048036038101906104ed9190613079565b611df9565b6040516104ff9190612d48565b60405180910390f35b34801561051457600080fd5b5061051d611e1d565b60405161052a9190613028565b60405180910390f35b34801561053f57600080fd5b50610548611e43565b6040516105559190613028565b60405180910390f35b34801561056a57600080fd5b50610573611e69565b6040516105809190612d48565b60405180910390f35b600063150b7a0260e01b9050949350505050565b60003373ffffffffffffffffffffffffffffffffffffffff16600360009054906101000a900473ffffffffffffffffffffffffffffffffffffffff1673ffffffffffffffffffffffffffffffffffffffff161461062f576040517f08c379a000000000000000000000000000000000000000000000000000000000815260040161062690613103565b60405180910390fd5b60008585905090506000811161067a576040517f08c379a00000000000000000000000000000000000000000000000000000000081526004016106719061316f565b60405180910390fd5b6000806000806000600260009054906101000a900473ffffffffffffffffffffffffffffffffffffffff1673ffffffffffffffffffffffffffffffffffffffff1663c728b364600a60000160009054906101000a90046fffffffffffffffffffffffffffffffff16600a60000160109054906101000a90046fffffffffffffffffffffffffffffffff16600a600101548a6040518563ffffffff1660e01b815260040161072a949392919061318f565b60a060405180830381865afa158015610747573d6000803e3d6000fd5b505050506040513d601f19601f8201168201806040525081019061076b9190613223565b94509450945094509450600060028111156107895761078861329e565b5b85600281111561079c5761079b61329e565b5b146107dc576040517f08c379a00000000000000000000000000000000000000000000000000000000081526004016107d390613319565b60405180910390fd5b600a60030154861115610824576040517f08c379a000000000000000000000000000000000000000000000000000000000815260040161081b90613385565b60405180910390fd5b88811015610867576040517f08c379a000000000000000000000000000000000000000000000000000000000815260040161085e906133f1565b60405180910390fd5b804710156108aa576040517f08c379a00000000000000000000000000000000000000000000000000000000081526004016108a19061345d565b60405180910390fd5b85600560008282546108bc91906134ac565b9250508190555085600a60030160008282546108d891906134e0565b9250508190555085600a60020160008282546108f491906134ac565b92505081905550610903611e6f565b965061091084848461222f565b61091d8b8b888b3061238d565b8773ffffffffffffffffffffffffffffffffffffffff166108fc829081150290604051600060405180830381858888f19350505050158015610963573d6000803e3d6000fd5b50600360009054906101000a900473ffffffffffffffffffffffffffffffffffffffff1673ffffffffffffffffffffffffffffffffffffffff166108fc889081150290604051600060405180830381858888f193505050501580156109cc573d6000803e3d6000fd5b50505050505050949350505050565b600760009054906101000a90046fffffffffffffffffffffffffffffffff1681565b3373ffffffffffffffffffffffffffffffffffffffff16600360009054906101000a900473ffffffffffffffffffffffffffffffffffffffff1673ffffffffffffffffffffffffffffffffffffffff1614610a8d576040517f08c379a0000000000000000000000000000000000000000000000000000000008152600401610a8490613103565b60405180910390fd5b60008383905090506000600f60008473ffffffffffffffffffffffffffffffffffffffff1673ffffffffffffffffffffffffffffffffffffffff1681526020019081526020016000206000015490506000610ae7846124d8565b905082600a600201541015610b31576040517f08c379a0000000000000000000000000000000000000000000000000000000008152600401610b2890613560565b60405180910390fd5b82600f60008673ffffffffffffffffffffffffffffffffffffffff1673ffffffffffffffffffffffffffffffffffffffff168152602001908152602001600020600001541480610bd2575082600f60008673ffffffffffffffffffffffffffffffffffffffff1673ffffffffffffffffffffffffffffffffffffffff16815260200190815260200160002060000154118015610bd1575082600a60020154145b5b610c11576040517f08c379a0000000000000000000000000000000000000000000000000000000008152600401610c08906135cc565b60405180910390fd5b82600a6002016000828254610c2691906134e0565b925050819055506000600f60008673ffffffffffffffffffffffffffffffffffffffff1673ffffffffffffffffffffffffffffffffffffffff16815260200190815260200160002060000181905550600f60008573ffffffffffffffffffffffffffffffffffffffff1673ffffffffffffffffffffffffffffffffffffffff1681526020019081526020016000206003015460066000828254610cc991906134e0565b925050819055508060086000828254610ce291906134e0565b925050819055506000600f60008673ffffffffffffffffffffffffffffffffffffffff1673ffffffffffffffffffffffffffffffffffffffff168152602001908152602001600020600301819055506000831115610ea0576000806000600260009054906101000a900473ffffffffffffffffffffffffffffffffffffffff1673ffffffffffffffffffffffffffffffffffffffff1663c728b364600760009054906101000a90046fffffffffffffffffffffffffffffffff16600a60000160109054906101000a90046fffffffffffffffffffffffffffffffff166000896040518563ffffffff1660e01b8152600401610de09493929190613631565b60a060405180830381865afa158015610dfd573d6000803e3d6000fd5b505050506040513d601f19601f82011682018060405250810190610e219190613223565b505092509250925060006002811115610e3d57610e3c61329e565b5b836002811115610e5057610e4f61329e565b5b14610e90576040517f08c379a0000000000000000000000000000000000000000000000000000000008152600401610e8790613319565b60405180910390fd5b610e9c600283836125f1565b5050505b828211156110955760008383610eb691906134e0565b9050600080600260009054906101000a900473ffffffffffffffffffffffffffffffffffffffff1673ffffffffffffffffffffffffffffffffffffffff1663c728b364600760009054906101000a90046fffffffffffffffffffffffffffffffff16600a60000160109054906101000a90046fffffffffffffffffffffffffffffffff166000876040518563ffffffff1660e01b8152600401610f5c9493929190613631565b60a060405180830381865afa158015610f79573d6000803e3d6000fd5b505050506040513d601f19601f82011682018060405250810190610f9d9190613223565b9450505050915060006002811115610fb857610fb761329e565b5b826002811115610fcb57610fca61329e565b5b1461100b576040517f08c379a000000000000000000000000000000000000000000000000000000000815260040161100290613319565b60405180910390fd5b82600a600301600082825461102091906134e0565b92505081905550826004600082825461103991906134e0565b925050819055506000811115611091578673ffffffffffffffffffffffffffffffffffffffff166108fc829081150290604051600060405180830381858888f1935050505015801561108f573d6000803e3d6000fd5b505b5050505b6110a2868685308861238d565b60008111156110f3578373ffffffffffffffffffffffffffffffffffffffff166108fc829081150290604051600060405180830381858888f193505050501580156110f1573d6000803e3d6000fd5b505b505050505050565b3373ffffffffffffffffffffffffffffffffffffffff16600360009054906101000a900473ffffffffffffffffffffffffffffffffffffffff1673ffffffffffffffffffffffffffffffffffffffff161461118b576040517f08c379a000000000000000000000000000000000000000000000000000000000815260040161118290613103565b60405180910390fd5b6000838390509050600081116111d6576040517f08c379a00000000000000000000000000000000000000000000000000000000081526004016111cd9061316f565b60405180910390fd5b600080600080600260009054906101000a900473ffffffffffffffffffffffffffffffffffffffff1673ffffffffffffffffffffffffffffffffffffffff16635d998912600760009054906101000a90046fffffffffffffffffffffffffffffffff16600a60000160109054906101000a90046fffffffffffffffffffffffffffffffff16600a60010154896040518563ffffffff1660e01b8152600401611281949392919061318f565b60a060405180830381865afa15801561129e573d6000803e3d6000fd5b505050506040513d601f19601f820116820180604052508101906112c29190613223565b945050935093509350600060028111156112df576112de61329e565b5b8460028111156112f2576112f161329e565b5b14611332576040517f08c379a000000000000000000000000000000000000000000000000000000000815260040161132990613319565b60405180910390fd5b600061133d82612731565b905080600f60008973ffffffffffffffffffffffffffffffffffffffff1673ffffffffffffffffffffffffffffffffffffffff168152602001908152602001600020600301600082825461139191906134ac565b9250508190555080600660008282546113aa91906134ac565b9250508190555085600f60008973ffffffffffffffffffffffffffffffffffffffff1673ffffffffffffffffffffffffffffffffffffffff168152602001908152602001600020600001600082825461140391906134ac565b9250508190555085600a600201600082825461141f91906134ac565b92505081905550611432600285856125f1565b61143f8989888a3061238d565b505050505050505050565b60003373ffffffffffffffffffffffffffffffffffffffff16600360009054906101000a900473ffffffffffffffffffffffffffffffffffffffff1673ffffffffffffffffffffffffffffffffffffffff16146114dc576040517f08c379a00000000000000000000000000000000000000000000000000000000081526004016114d390613103565b60405180910390fd5b600084849050905060008111611527576040517f08c379a000000000000000000000000000000000000000000000000000000000815260040161151e9061316f565b60405180910390fd5b6000806000806000600260009054906101000a900473ffffffffffffffffffffffffffffffffffffffff1673ffffffffffffffffffffffffffffffffffffffff16635d998912600a60000160009054906101000a90046fffffffffffffffffffffffffffffffff16600a60000160109054906101000a90046fffffffffffffffffffffffffffffffff16600a600101548a6040518563ffffffff1660e01b81526004016115d7949392919061318f565b60a060405180830381865afa1580156115f4573d6000803e3d6000fd5b505050506040513d601f19601f820116820180604052508101906116189190613223565b94509450945094509450600060028111156116365761163561329e565b5b8560028111156116495761164861329e565b5b14611689576040517f08c379a000000000000000000000000000000000000000000000000000000000815260040161168090613319565b60405180910390fd5b600a600201548611156116d1576040517f08c379a00000000000000000000000000000000000000000000000000000000081526004016116c890613385565b60405180910390fd5b80341015611714576040517f08c379a000000000000000000000000000000000000000000000000000000000815260040161170b906136c2565b60405180910390fd5b856004600082825461172691906134ac565b9250508190555085600a600201600082825461174291906134e0565b9250508190555085600a600301600082825461175e91906134ac565b9250508190555061176d611e6f565b965061177a84848461222f565b8773ffffffffffffffffffffffffffffffffffffffff166108fc82346117a091906134e0565b9081150290604051600060405180830381858888f193505050501580156117cb573d6000803e3d6000fd5b50600360009054906101000a900473ffffffffffffffffffffffffffffffffffffffff1673ffffffffffffffffffffffffffffffffffffffff166108fc889081150290604051600060405180830381858888f19350505050158015611834573d6000803e3d6000fd5b506118458a8a8c8c9050308c61238d565b5050505050509392505050565b600080600260009054906101000a900473ffffffffffffffffffffffffffffffffffffffff1673ffffffffffffffffffffffffffffffffffffffff16635d99891284600a60000160109054906101000a90046fffffffffffffffffffffffffffffffff16600a60010154886040518563ffffffff1660e01b81526004016118dc949392919061318f565b60a060405180830381865afa1580156118f9573d6000803e3d6000fd5b505050506040513d601f19601f8201168201806040525081019061191d9190613223565b9450505050508091505092915050565b600a8060000160009054906101000a90046fffffffffffffffffffffffffffffffff16908060000160109054906101000a90046fffffffffffffffffffffffffffffffff16908060010154908060020154908060030154905085565b61199161291c565b600a6040518060a00160405290816000820160009054906101000a90046fffffffffffffffffffffffffffffffff166fffffffffffffffffffffffffffffffff166fffffffffffffffffffffffffffffffff1681526020016000820160109054906101000a90046fffffffffffffffffffffffffffffffff166fffffffffffffffffffffffffffffffff166fffffffffffffffffffffffffffffffff1681526020016001820154815260200160028201548152602001600382015481525050905090565b611a5d61296f565b600f60008373ffffffffffffffffffffffffffffffffffffffff1673ffffffffffffffffffffffffffffffffffffffff1681526020019081526020016000206040518060a0016040529081600082015481526020016001820154815260200160028201548152602001600382015481526020016004820154815250509050919050565b60005481565b600160009054906101000a900473ffffffffffffffffffffffffffffffffffffffff1681565b60065481565b60055481565b600960009054906101000a900460ff1681565b3373ffffffffffffffffffffffffffffffffffffffff16600360009054906101000a900473ffffffffffffffffffffffffffffffffffffffff1673ffffffffffffffffffffffffffffffffffffffff1614611bbb576040517f08c379a0000000000000000000000000000000000000000000000000000000008152600401611bb290613103565b60405180910390fd5b80600360006101000a81548173ffffffffffffffffffffffffffffffffffffffff021916908373ffffffffffffffffffffffffffffffffffffffff16021790555050565b600080600260009054906101000a900473ffffffffffffffffffffffffffffffffffffffff1673ffffffffffffffffffffffffffffffffffffffff1663c728b36484600a60000160109054906101000a90046fffffffffffffffffffffffffffffffff16600a60010154886040518563ffffffff1660e01b8152600401611c89949392919061318f565b60a060405180830381865afa158015611ca6573d6000803e3d6000fd5b505050506040513d601f19601f82011682018060405250810190611cca9190613223565b9450505050508091505092915050565b600080600654600f60008573ffffffffffffffffffffffffffffffffffffffff1673ffffffffffffffffffffffffffffffffffffffff16815260200190815260200160002060030154600854600654611d3391906134ac565b611d3d91906136e2565b611d479190613753565b9050600f60008473ffffffffffffffffffffffffffffffffffffffff1673ffffffffffffffffffffffffffffffffffffffff16815260200190815260200160002060030154811115611de857600f60008473ffffffffffffffffffffffffffffffffffffffff1673ffffffffffffffffffffffffffffffffffffffff1681526020019081526020016000206003015481611de191906134e0565b9150611ded565b600091505b50919050565b60085481565b600e8181548110611e0957600080fd5b906000526020600020016000915090505481565b600260009054906101000a900473ffffffffffffffffffffffffffffffffffffffff1681565b600360009054906101000a900473ffffffffffffffffffffffffffffffffffffffff1681565b60045481565b600080600454118015611e8457506000600554115b1561222c576005546004541061205b57600080600260009054906101000a900473ffffffffffffffffffffffffffffffffffffffff1673ffffffffffffffffffffffffffffffffffffffff16635b645d80600a60000160009054906101000a90046fffffffffffffffffffffffffffffffff16600a60000160109054906101000a90046fffffffffffffffffffffffffffffffff16600a600101546005546040518563ffffffff1660e01b8152600401611f41949392919061318f565b6040805180830381865afa158015611f5d573d6000803e3d6000fd5b505050506040513d601f19601f82011682018060405250810190611f819190613784565b9150915060006002811115611f9957611f9861329e565b5b826002811115611fac57611fab61329e565b5b14611fec576040517f08c379a0000000000000000000000000000000000000000000000000000000008152600401611fe390613319565b60405180910390fd5b61200b600054670de0b6b3a7640000836127749092919063ffffffff16565b9250828161201991906134e0565b6008600082825461202a91906134ac565b925050819055506005546004600082825461204591906134e0565b925050819055506000600581905550505061222b565b600454600554111561222a57600080600260009054906101000a900473ffffffffffffffffffffffffffffffffffffffff1673ffffffffffffffffffffffffffffffffffffffff166388ec429a600a60000160009054906101000a90046fffffffffffffffffffffffffffffffff16600a60000160109054906101000a90046fffffffffffffffffffffffffffffffff16600a600101546004546040518563ffffffff1660e01b8152600401612114949392919061318f565b6040805180830381865afa158015612130573d6000803e3d6000fd5b505050506040513d601f19601f820116820180604052508101906121549190613784565b915091506000600281111561216c5761216b61329e565b5b82600281111561217f5761217e61329e565b5b146121bf576040517f08c379a00000000000000000000000000000000000000000000000000000000081526004016121b690613319565b60405180910390fd5b6121de600054670de0b6b3a7640000836127749092919063ffffffff16565b925082816121ec91906134e0565b600860008282546121fd91906134ac565b925050819055506004546005600082825461221891906134e0565b92505081905550600060048190555050505b5b5b90565b826fffffffffffffffffffffffffffffffff16600a60000160009054906101000a90046fffffffffffffffffffffffffffffffff166fffffffffffffffffffffffffffffffff16146122b85782600a60000160006101000a8154816fffffffffffffffffffffffffffffffff02191690836fffffffffffffffffffffffffffffffff1602179055505b816fffffffffffffffffffffffffffffffff16600a60000160109054906101000a90046fffffffffffffffffffffffffffffffff166fffffffffffffffffffffffffffffffff161415801561232057506000826fffffffffffffffffffffffffffffffff1614155b156123625781600a60000160106101000a8154816fffffffffffffffffffffffffffffffff02191690836fffffffffffffffffffffffffffffffff1602179055505b80600a6001015414158015612378575060008114155b156123885780600a600101819055505b505050565b60005b8381101561244f57600160009054906101000a900473ffffffffffffffffffffffffffffffffffffffff1673ffffffffffffffffffffffffffffffffffffffff1663b88d4fde84848989868181106123eb576123ea6137c4565b5b905060200201356040518463ffffffff1660e01b81526004016124109392919061382a565b600060405180830381600087803b15801561242a57600080fd5b505af115801561243e573d6000803e3d6000fd5b505050508080600101915050612390565b503073ffffffffffffffffffffffffffffffffffffffff168273ffffffffffffffffffffffffffffffffffffffff16036124925761248d8585612798565b6124d1565b3073ffffffffffffffffffffffffffffffffffffffff168173ffffffffffffffffffffffffffffffffffffffff16036124d0576124cf85856128b4565b5b5b5050505050565b600080600654600f60008573ffffffffffffffffffffffffffffffffffffffff1673ffffffffffffffffffffffffffffffffffffffff1681526020019081526020016000206003015460085460065461253191906134ac565b61253b91906136e2565b6125459190613753565b9050600f60008473ffffffffffffffffffffffffffffffffffffffff1673ffffffffffffffffffffffffffffffffffffffff168152602001908152602001600020600301548111156125e657600f60008473ffffffffffffffffffffffffffffffffffffffff1673ffffffffffffffffffffffffffffffffffffffff16815260200190815260200160002060030154816125df91906134e0565b91506125eb565b600091505b50919050565b816fffffffffffffffffffffffffffffffff16600760009054906101000a90046fffffffffffffffffffffffffffffffff166fffffffffffffffffffffffffffffffff16141580156126435750600283145b156126825781600760006101000a8154816fffffffffffffffffffffffffffffffff02191690836fffffffffffffffffffffffffffffffff1602179055505b806fffffffffffffffffffffffffffffffff16600a60000160109054906101000a90046fffffffffffffffffffffffffffffffff166fffffffffffffffffffffffffffffffff16141580156126ea57506000816fffffffffffffffffffffffffffffffff1614155b1561272c5780600a60000160106101000a8154816fffffffffffffffffffffffffffffffff02191690836fffffffffffffffffffffffffffffffff1602179055505b505050565b600080600654036127445781905061276f565b60085460065461275491906134ac565b8260065461276291906136e2565b61276c9190613753565b90505b919050565b60008284029050828482041484151761278c57600080fd5b81810490509392505050565b60005b828290508110156128af576000600e80549050905060005b8181101561289a578484848181106127ce576127cd6137c4565b5b90506020020135600e82815481106127e9576127e86137c4565b5b9060005260206000200154036128875760018261280691906134e0565b811461285a57600e60018361281b91906134e0565b8154811061282c5761282b6137c4565b5b9060005260206000200154600e828154811061284b5761284a6137c4565b5b90600052602060002001819055505b600e80548061286c5761286b613874565b5b6001900381819060005260206000200160009055905561289a565b8080612892906138a3565b9150506127b3565b505080806128a7906138a3565b91505061279b565b505050565b60005b8282905081101561291757600e8383838181106128d7576128d66137c4565b5b905060200201359080600181540180825580915050600190039060005260206000200160009091909190915055808061290f906138a3565b9150506128b7565b505050565b6040518060a0016040528060006fffffffffffffffffffffffffffffffff16815260200160006fffffffffffffffffffffffffffffffff1681526020016000815260200160008152602001600081525090565b6040518060a0016040528060008152602001600081526020016000815260200160008152602001600081525090565b6000604051905090565b600080fd5b600080fd5b600073ffffffffffffffffffffffffffffffffffffffff82169050919050565b60006129dd826129b2565b9050919050565b6129ed816129d2565b81146129f857600080fd5b50565b600081359050612a0a816129e4565b92915050565b6000819050919050565b612a2381612a10565b8114612a2e57600080fd5b50565b600081359050612a4081612a1a565b92915050565b600080fd5b600080fd5b6000601f19601f8301169050919050565b7f4e487b7100000000000000000000000000000000000000000000000000000000600052604160045260246000fd5b612a9982612a50565b810181811067ffffffffffffffff82111715612ab857612ab7612a61565b5b80604052505050565b6000612acb61299e565b9050612ad78282612a90565b919050565b600067ffffffffffffffff821115612af757612af6612a61565b5b612b0082612a50565b9050602081019050919050565b82818337600083830152505050565b6000612b2f612b2a84612adc565b612ac1565b905082815260208101848484011115612b4b57612b4a612a4b565b5b612b56848285612b0d565b509392505050565b600082601f830112612b7357612b72612a46565b5b8135612b83848260208601612b1c565b91505092915050565b60008060008060808587031215612ba657612ba56129a8565b5b6000612bb4878288016129fb565b9450506020612bc5878288016129fb565b9350506040612bd687828801612a31565b925050606085013567ffffffffffffffff811115612bf757612bf66129ad565b5b612c0387828801612b5e565b91505092959194509250565b60007fffffffff0000000000000000000000000000000000000000000000000000000082169050919050565b612c4481612c0f565b82525050565b6000602082019050612c5f6000830184612c3b565b92915050565b600080fd5b600080fd5b60008083601f840112612c8557612c84612a46565b5b8235905067ffffffffffffffff811115612ca257612ca1612c65565b5b602083019150836020820283011115612cbe57612cbd612c6a565b5b9250929050565b60008060008060608587031215612cdf57612cde6129a8565b5b600085013567ffffffffffffffff811115612cfd57612cfc6129ad565b5b612d0987828801612c6f565b94509450506020612d1c87828801612a31565b9250506040612d2d878288016129fb565b91505092959194509250565b612d4281612a10565b82525050565b6000602082019050612d5d6000830184612d39565b92915050565b60006fffffffffffffffffffffffffffffffff82169050919050565b612d8881612d63565b82525050565b6000602082019050612da36000830184612d7f565b92915050565b600080600060408486031215612dc257612dc16129a8565b5b600084013567ffffffffffffffff811115612de057612ddf6129ad565b5b612dec86828701612c6f565b93509350506020612dff868287016129fb565b9150509250925092565b612e1281612d63565b8114612e1d57600080fd5b50565b600081359050612e2f81612e09565b92915050565b60008060408385031215612e4c57612e4b6129a8565b5b6000612e5a85828601612a31565b9250506020612e6b85828601612e20565b9150509250929050565b600060a082019050612e8a6000830188612d7f565b612e976020830187612d7f565b612ea46040830186612d39565b612eb16060830185612d39565b612ebe6080830184612d39565b9695505050505050565b612ed181612d63565b82525050565b612ee081612a10565b82525050565b60a082016000820151612efc6000850182612ec8565b506020820151612f0f6020850182612ec8565b506040820151612f226040850182612ed7565b506060820151612f356060850182612ed7565b506080820151612f486080850182612ed7565b50505050565b600060a082019050612f636000830184612ee6565b92915050565b600060208284031215612f7f57612f7e6129a8565b5b6000612f8d848285016129fb565b91505092915050565b60a082016000820151612fac6000850182612ed7565b506020820151612fbf6020850182612ed7565b506040820151612fd26040850182612ed7565b506060820151612fe56060850182612ed7565b506080820151612ff86080850182612ed7565b50505050565b600060a0820190506130136000830184612f96565b92915050565b613022816129d2565b82525050565b600060208201905061303d6000830184613019565b92915050565b60008115159050919050565b61305881613043565b82525050565b6000602082019050613073600083018461304f565b92915050565b60006020828403121561308f5761308e6129a8565b5b600061309d84828501612a31565b91505092915050565b600082825260208201905092915050565b7f6f6e6c79526f7574657200000000000000000000000000000000000000000000600082015250565b60006130ed600a836130a6565b91506130f8826130b7565b602082019050919050565b6000602082019050818103600083015261311c816130e0565b9050919050565b7f4e6f742030000000000000000000000000000000000000000000000000000000600082015250565b60006131596005836130a6565b915061316482613123565b602082019050919050565b600060208201905081810360008301526131888161314c565b9050919050565b60006080820190506131a46000830187612d7f565b6131b16020830186612d7f565b6131be6040830185612d39565b6131cb6060830184612d39565b95945050505050565b600381106131e157600080fd5b50565b6000815190506131f3816131d4565b92915050565b60008151905061320881612e09565b92915050565b60008151905061321d81612a1a565b92915050565b600080600080600060a0868803121561323f5761323e6129a8565b5b600061324d888289016131e4565b955050602061325e888289016131f9565b945050604061326f888289016131f9565b93505060606132808882890161320e565b92505060806132918882890161320e565b9150509295509295909350565b7f4e487b7100000000000000000000000000000000000000000000000000000000600052602160045260246000fd5b7f426f6e64696e67206572726f7200000000000000000000000000000000000000600082015250565b6000613303600d836130a6565b915061330e826132cd565b602082019050919050565b60006020820190508181036000830152613332816132f6565b9050919050565b7f4e6f7420656e6f756768206c6971756964697479000000000000000000000000600082015250565b600061336f6014836130a6565b915061337a82613339565b602082019050919050565b6000602082019050818103600083015261339e81613362565b9050919050565b7f4e6f742065787065637465642076616c75650000000000000000000000000000600082015250565b60006133db6012836130a6565b91506133e6826133a5565b602082019050919050565b6000602082019050818103600083015261340a816133ce565b9050919050565b7f4e6f7420656e6f75676820636f6e74726163742062616c616e63650000000000600082015250565b6000613447601b836130a6565b915061345282613411565b602082019050919050565b600060208201905081810360008301526134768161343a565b9050919050565b7f4e487b7100000000000000000000000000000000000000000000000000000000600052601160045260246000fd5b60006134b782612a10565b91506134c283612a10565b92508282019050808211156134da576134d961347d565b5b92915050565b60006134eb82612a10565b91506134f683612a10565b925082820390508181111561350e5761350d61347d565b5b92915050565b7f506f6f6c206e6f7420656e6f756768204e465400000000000000000000000000600082015250565b600061354a6013836130a6565b915061355582613514565b602082019050919050565b600060208201905081810360008301526135798161353d565b9050919050565b7f536f6d657468696e672069732077726f6e672e00000000000000000000000000600082015250565b60006135b66013836130a6565b91506135c182613580565b602082019050919050565b600060208201905081810360008301526135e5816135a9565b9050919050565b6000819050919050565b6000819050919050565b600061361b613616613611846135ec565b6135f6565b612a10565b9050919050565b61362b81613600565b82525050565b60006080820190506136466000830187612d7f565b6136536020830186612d7f565b6136606040830185613622565b61366d6060830184612d39565b95945050505050565b7f4e6f7420656e6f7567682076616c756500000000000000000000000000000000600082015250565b60006136ac6010836130a6565b91506136b782613676565b602082019050919050565b600060208201905081810360008301526136db8161369f565b9050919050565b60006136ed82612a10565b91506136f883612a10565b925082820261370681612a10565b9150828204841483151761371d5761371c61347d565b5b5092915050565b7f4e487b7100000000000000000000000000000000000000000000000000000000600052601260045260246000fd5b600061375e82612a10565b915061376983612a10565b92508261377957613778613724565b5b828204905092915050565b6000806040838503121561379b5761379a6129a8565b5b60006137a9858286016131e4565b92505060206137ba8582860161320e565b9150509250929050565b7f4e487b7100000000000000000000000000000000000000000000000000000000600052603260045260246000fd5b600082825260208201905092915050565b50565b60006138146000836137f3565b915061381f82613804565b600082019050919050565b600060808201905061383f6000830186613019565b61384c6020830185613019565b6138596040830184612d39565b818103606083015261386a81613807565b9050949350505050565b7f4e487b7100000000000000000000000000000000000000000000000000000000600052603160045260246000fd5b60006138ae82612a10565b91507fffffffffffffffffffffffffffffffffffffffffffffffffffffffffffffffff82036138e0576138df61347d565b5b60018201905091905056fea264697066735822122058f16d169b309755e6c712948756c8f8ed34c1aa27a997bfe9347aafff1fe2df64736f6c63430008110033",
  "linkReferences": {},
  "deployedLinkReferences": {}
}