{
  "_format": "hh-sol-artifact-1",
  "contractName": "Pool721",
  "sourceName": "contracts/Pool721.sol",
  "abi": [
    {
      "inputs": [
        {
          "internalType": "address",
          "name": "_collection",
          "type": "address"
        },
        {
          "internalType": "address",
          "name": "_bondingCurve",
          "type": "address"
        },
        {
          "internalType": "uint128",
          "name": "_spotPrice",
          "type": "uint128"
        },
        {
          "internalType": "uint128",
          "name": "_delta",
          "type": "uint128"
        },
        {
          "internalType": "uint256",
          "name": "_spread",
          "type": "uint256"
        },
        {
          "internalType": "uint256",
          "name": "_protocolFeeRatio",
          "type": "uint256"
        },
        {
          "internalType": "address",
          "name": "_router",
          "type": "address"
        }
      ],
      "stateMutability": "nonpayable",
      "type": "constructor"
    },
    {
      "inputs": [],
      "name": "bondingCurve",
      "outputs": [
        {
          "internalType": "address",
          "name": "",
          "type": "address"
        }
      ],
      "stateMutability": "view",
      "type": "function"
    },
    {
      "inputs": [],
      "name": "buyEventNum",
      "outputs": [
        {
          "internalType": "uint256",
          "name": "",
          "type": "uint256"
        }
      ],
      "stateMutability": "view",
      "type": "function"
    },
    {
      "inputs": [],
      "name": "collection",
      "outputs": [
        {
          "internalType": "address",
          "name": "",
          "type": "address"
        }
      ],
      "stateMutability": "view",
      "type": "function"
    },
    {
      "inputs": [],
      "name": "getAllHoldIds",
      "outputs": [
        {
          "internalType": "uint256[]",
          "name": "",
          "type": "uint256[]"
        }
      ],
      "stateMutability": "view",
      "type": "function"
    },
    {
      "inputs": [
        {
          "internalType": "uint256",
          "name": "_itemNum",
          "type": "uint256"
        },
        {
          "internalType": "uint128",
          "name": "_spotPrice",
          "type": "uint128"
        }
      ],
      "name": "getCalcBuyInfo",
      "outputs": [
        {
          "internalType": "uint256",
          "name": "",
          "type": "uint256"
        }
      ],
      "stateMutability": "view",
      "type": "function"
    },
    {
      "inputs": [
        {
          "internalType": "uint256",
          "name": "_itemNum",
          "type": "uint256"
        },
        {
          "internalType": "uint128",
          "name": "_spotPrice",
          "type": "uint128"
        }
      ],
      "name": "getCalcSellInfo",
      "outputs": [
        {
          "internalType": "uint256",
          "name": "",
          "type": "uint256"
        }
      ],
      "stateMutability": "view",
      "type": "function"
    },
    {
      "inputs": [],
      "name": "getPoolInfo",
      "outputs": [
        {
          "components": [
            {
              "internalType": "uint128",
              "name": "spotPrice",
              "type": "uint128"
            },
            {
              "internalType": "uint128",
              "name": "delta",
              "type": "uint128"
            },
            {
              "internalType": "uint256",
              "name": "spread",
              "type": "uint256"
            },
            {
              "internalType": "uint256",
              "name": "buyNum",
              "type": "uint256"
            },
            {
              "internalType": "uint256",
              "name": "sellNum",
              "type": "uint256"
            }
          ],
          "internalType": "struct Pool721.PoolInfo",
          "name": "",
          "type": "tuple"
        }
      ],
      "stateMutability": "view",
      "type": "function"
    },
    {
      "inputs": [
        {
          "internalType": "address",
          "name": "_user",
          "type": "address"
        }
      ],
      "name": "getUserInfo",
      "outputs": [
        {
          "components": [
            {
              "internalType": "uint256",
              "name": "userInitBuyNum",
              "type": "uint256"
            },
            {
              "internalType": "uint256",
              "name": "userInitSellNum",
              "type": "uint256"
            },
            {
              "internalType": "uint256",
              "name": "userInitSellAmount",
              "type": "uint256"
            },
            {
              "internalType": "uint256",
              "name": "userNFTpoint",
              "type": "uint256"
            },
            {
              "internalType": "uint256",
              "name": "userFTpoint",
              "type": "uint256"
            }
          ],
          "internalType": "struct Pool721.UserInfo",
          "name": "",
          "type": "tuple"
        }
      ],
      "stateMutability": "view",
      "type": "function"
    },
    {
      "inputs": [
        {
          "internalType": "address",
          "name": "_user",
          "type": "address"
        }
      ],
      "name": "getUserStakeNFTfee",
      "outputs": [
        {
          "internalType": "uint256",
          "name": "_userFee",
          "type": "uint256"
        }
      ],
      "stateMutability": "view",
      "type": "function"
    },
    {
      "inputs": [
        {
          "internalType": "uint256",
          "name": "",
          "type": "uint256"
        }
      ],
      "name": "holdIds",
      "outputs": [
        {
          "internalType": "uint256",
          "name": "",
          "type": "uint256"
        }
      ],
      "stateMutability": "view",
      "type": "function"
    },
    {
      "inputs": [],
      "name": "isOtherStake",
      "outputs": [
        {
          "internalType": "bool",
          "name": "",
          "type": "bool"
        }
      ],
      "stateMutability": "view",
      "type": "function"
    },
    {
      "inputs": [
        {
          "internalType": "address",
          "name": "",
          "type": "address"
        },
        {
          "internalType": "address",
          "name": "",
          "type": "address"
        },
        {
          "internalType": "uint256",
          "name": "",
          "type": "uint256"
        },
        {
          "internalType": "bytes",
          "name": "",
          "type": "bytes"
        }
      ],
      "name": "onERC721Received",
      "outputs": [
        {
          "internalType": "bytes4",
          "name": "",
          "type": "bytes4"
        }
      ],
      "stateMutability": "nonpayable",
      "type": "function"
    },
    {
      "inputs": [],
      "name": "poolInfo",
      "outputs": [
        {
          "internalType": "uint128",
          "name": "spotPrice",
          "type": "uint128"
        },
        {
          "internalType": "uint128",
          "name": "delta",
          "type": "uint128"
        },
        {
          "internalType": "uint256",
          "name": "spread",
          "type": "uint256"
        },
        {
          "internalType": "uint256",
          "name": "buyNum",
          "type": "uint256"
        },
        {
          "internalType": "uint256",
          "name": "sellNum",
          "type": "uint256"
        }
      ],
      "stateMutability": "view",
      "type": "function"
    },
    {
      "inputs": [],
      "name": "protocolFeeRatio",
      "outputs": [
        {
          "internalType": "uint256",
          "name": "",
          "type": "uint256"
        }
      ],
      "stateMutability": "view",
      "type": "function"
    },
    {
      "inputs": [],
      "name": "router",
      "outputs": [
        {
          "internalType": "address",
          "name": "",
          "type": "address"
        }
      ],
      "stateMutability": "view",
      "type": "function"
    },
    {
      "inputs": [],
      "name": "sellEventNum",
      "outputs": [
        {
          "internalType": "uint256",
          "name": "",
          "type": "uint256"
        }
      ],
      "stateMutability": "view",
      "type": "function"
    },
    {
      "inputs": [
        {
          "internalType": "address",
          "name": "_newRouter",
          "type": "address"
        }
      ],
      "name": "setRouter",
      "outputs": [],
      "stateMutability": "nonpayable",
      "type": "function"
    },
    {
      "inputs": [
        {
          "internalType": "uint256[]",
          "name": "_tokenIds",
          "type": "uint256[]"
        },
        {
          "internalType": "address",
          "name": "_user",
          "type": "address"
        }
      ],
      "name": "stakeNFT",
      "outputs": [],
      "stateMutability": "nonpayable",
      "type": "function"
    },
    {
      "inputs": [],
      "name": "stakeNFTprice",
      "outputs": [
        {
          "internalType": "uint128",
          "name": "",
          "type": "uint128"
        }
      ],
      "stateMutability": "view",
      "type": "function"
    },
    {
      "inputs": [
        {
          "internalType": "uint256[]",
          "name": "_tokenIds",
          "type": "uint256[]"
        },
        {
          "internalType": "address",
          "name": "_user",
          "type": "address"
        }
      ],
      "name": "swapFTforNFT",
      "outputs": [
        {
          "internalType": "uint256",
          "name": "_protocolFee",
          "type": "uint256"
        }
      ],
      "stateMutability": "payable",
      "type": "function"
    },
    {
      "inputs": [
        {
          "internalType": "uint256[]",
          "name": "_tokenIds",
          "type": "uint256[]"
        },
        {
          "internalType": "uint256",
          "name": "_minExpectFee",
          "type": "uint256"
        },
        {
          "internalType": "address",
          "name": "_user",
          "type": "address"
        }
      ],
      "name": "swapNFTforFT",
      "outputs": [
        {
          "internalType": "uint256",
          "name": "_protocolFee",
          "type": "uint256"
        }
      ],
      "stateMutability": "payable",
      "type": "function"
    },
    {
      "inputs": [],
      "name": "totalNFTfee",
      "outputs": [
        {
          "internalType": "uint256",
          "name": "",
          "type": "uint256"
        }
      ],
      "stateMutability": "view",
      "type": "function"
    },
    {
      "inputs": [],
      "name": "totalNFTpoint",
      "outputs": [
        {
          "internalType": "uint256",
          "name": "",
          "type": "uint256"
        }
      ],
      "stateMutability": "view",
      "type": "function"
    },
    {
      "inputs": [
        {
          "internalType": "uint256[]",
          "name": "_tokenIds",
          "type": "uint256[]"
        },
        {
          "internalType": "address",
          "name": "_user",
          "type": "address"
        }
      ],
      "name": "withdrawNFT",
      "outputs": [
        {
          "internalType": "uint256",
          "name": "_userFee",
          "type": "uint256"
        }
      ],
      "stateMutability": "payable",
      "type": "function"
    }
  ],
  "bytecode": "0x60806040523480156200001157600080fd5b5060405162003e2e38038062003e2e8339818101604052810190620000379190620002d6565b86600160006101000a81548173ffffffffffffffffffffffffffffffffffffffff021916908373ffffffffffffffffffffffffffffffffffffffff16021790555085600260006101000a81548173ffffffffffffffffffffffffffffffffffffffff021916908373ffffffffffffffffffffffffffffffffffffffff16021790555084600a60000160006101000a8154816fffffffffffffffffffffffffffffffff02191690836fffffffffffffffffffffffffffffffff16021790555084600760006101000a8154816fffffffffffffffffffffffffffffffff02191690836fffffffffffffffffffffffffffffffff16021790555083600a60000160106101000a8154816fffffffffffffffffffffffffffffffff02191690836fffffffffffffffffffffffffffffffff16021790555082600a600101819055508160008190555080600360006101000a81548173ffffffffffffffffffffffffffffffffffffffff021916908373ffffffffffffffffffffffffffffffffffffffff1602179055506001600960006101000a81548160ff0219169083151502179055505050505050505062000389565b600080fd5b600073ffffffffffffffffffffffffffffffffffffffff82169050919050565b60006200021682620001e9565b9050919050565b620002288162000209565b81146200023457600080fd5b50565b60008151905062000248816200021d565b92915050565b60006fffffffffffffffffffffffffffffffff82169050919050565b62000275816200024e565b81146200028157600080fd5b50565b60008151905062000295816200026a565b92915050565b6000819050919050565b620002b0816200029b565b8114620002bc57600080fd5b50565b600081519050620002d081620002a5565b92915050565b600080600080600080600060e0888a031215620002f857620002f7620001e4565b5b6000620003088a828b0162000237565b97505060206200031b8a828b0162000237565b96505060406200032e8a828b0162000284565b9550506060620003418a828b0162000284565b9450506080620003548a828b01620002bf565b93505060a0620003678a828b01620002bf565b92505060c06200037a8a828b0162000237565b91505092959891949750929550565b613a9580620003996000396000f3fe60806040526004361061014b5760003560e01c80637de1e536116100b6578063cb6f0d341161006f578063cb6f0d34146104ad578063eaa62678146104ea578063eb119c9714610515578063eff1d50e14610552578063f887ea401461057d578063fc5ad2df146105a85761014b565b80637de1e5361461039b57806386524b2d146103c6578063895af871146103f1578063bbd265ab1461041c578063c0d7865514610447578063cb31fa82146104705761014b565b80634c4cbac4116101085780634c4cbac41461026c578063531fb11d1461029c5780635a2f3d09146102d957806360246c88146103085780636386c1c7146103335780637a27d9f6146103705761014b565b8063150b7a02146101505780631dbf9cba1461018d578063244117b4146101b85780632767fa4b146101e85780632c7e4915146102135780632f7e0b2e14610243575b600080fd5b34801561015c57600080fd5b5061017760048036038101906101729190612c2f565b6105d3565b6040516101849190612ced565b60405180910390f35b34801561019957600080fd5b506101a26105e7565b6040516101af9190612dc6565b60405180910390f35b6101d260048036038101906101cd9190612e48565b61063f565b6040516101df9190612ecb565b60405180910390f35b3480156101f457600080fd5b506101fd610a7d565b60405161020a9190612f11565b60405180910390f35b61022d60048036038101906102289190612f2c565b610a9f565b60405161023a9190612ecb565b60405180910390f35b34801561024f57600080fd5b5061026a60048036038101906102659190612f2c565b61119e565b005b61028660048036038101906102819190612f2c565b6114ed565b6040516102939190612ecb565b60405180910390f35b3480156102a857600080fd5b506102c360048036038101906102be9190612fb8565b6118f5565b6040516102d09190612ecb565b60405180910390f35b3480156102e557600080fd5b506102ee6119d0565b6040516102ff959493929190612ff8565b60405180910390f35b34801561031457600080fd5b5061031d611a2c565b60405161032a91906130c2565b60405180910390f35b34801561033f57600080fd5b5061035a600480360381019061035591906130dd565b611af8565b6040516103679190613172565b60405180910390f35b34801561037c57600080fd5b50610385611b83565b6040516103929190612ecb565b60405180910390f35b3480156103a757600080fd5b506103b0611b89565b6040516103bd919061319c565b60405180910390f35b3480156103d257600080fd5b506103db611baf565b6040516103e89190612ecb565b60405180910390f35b3480156103fd57600080fd5b50610406611bb5565b6040516104139190612ecb565b60405180910390f35b34801561042857600080fd5b50610431611bbb565b60405161043e91906131d2565b60405180910390f35b34801561045357600080fd5b5061046e600480360381019061046991906130dd565b611bce565b005b34801561047c57600080fd5b5061049760048036038101906104929190612fb8565b611ca2565b6040516104a49190612ecb565b60405180910390f35b3480156104b957600080fd5b506104d460048036038101906104cf91906130dd565b611d7d565b6040516104e19190612ecb565b60405180910390f35b3480156104f657600080fd5b506104ff611e96565b60405161050c9190612ecb565b60405180910390f35b34801561052157600080fd5b5061053c600480360381019061053791906131ed565b611e9c565b6040516105499190612ecb565b60405180910390f35b34801561055e57600080fd5b50610567611ec0565b604051610574919061319c565b60405180910390f35b34801561058957600080fd5b50610592611ee6565b60405161059f919061319c565b60405180910390f35b3480156105b457600080fd5b506105bd611f0c565b6040516105ca9190612ecb565b60405180910390f35b600063150b7a0260e01b9050949350505050565b6060600e80548060200260200160405190810160405280929190818152602001828054801561063557602002820191906000526020600020905b815481526020019060010190808311610621575b5050505050905090565b60003373ffffffffffffffffffffffffffffffffffffffff16600360009054906101000a900473ffffffffffffffffffffffffffffffffffffffff1673ffffffffffffffffffffffffffffffffffffffff16146106d1576040517f08c379a00000000000000000000000000000000000000000000000000000000081526004016106c890613277565b60405180910390fd5b60008585905090506000811161071c576040517f08c379a0000000000000000000000000000000000000000000000000000000008152600401610713906132e3565b60405180910390fd5b6000806000806000600260009054906101000a900473ffffffffffffffffffffffffffffffffffffffff1673ffffffffffffffffffffffffffffffffffffffff1663c728b364600a60000160009054906101000a90046fffffffffffffffffffffffffffffffff16600a60000160109054906101000a90046fffffffffffffffffffffffffffffffff16600a600101548a6040518563ffffffff1660e01b81526004016107cc9493929190613303565b60a060405180830381865afa1580156107e9573d6000803e3d6000fd5b505050506040513d601f19601f8201168201806040525081019061080d9190613397565b945094509450945094506000600281111561082b5761082a613412565b5b85600281111561083e5761083d613412565b5b1461087e576040517f08c379a00000000000000000000000000000000000000000000000000000000081526004016108759061348d565b60405180910390fd5b600a600301548611156108c6576040517f08c379a00000000000000000000000000000000000000000000000000000000081526004016108bd906134f9565b60405180910390fd5b88811015610909576040517f08c379a000000000000000000000000000000000000000000000000000000000815260040161090090613565565b60405180910390fd5b8047101561094c576040517f08c379a0000000000000000000000000000000000000000000000000000000008152600401610943906135d1565b60405180910390fd5b856005600082825461095e9190613620565b9250508190555085600a600301600082825461097a9190613654565b9250508190555085600a60020160008282546109969190613620565b925050819055506109a5611f12565b96506109b28484846122d2565b6109bf8b8b888b30612430565b8773ffffffffffffffffffffffffffffffffffffffff166108fc829081150290604051600060405180830381858888f19350505050158015610a05573d6000803e3d6000fd5b50600360009054906101000a900473ffffffffffffffffffffffffffffffffffffffff1673ffffffffffffffffffffffffffffffffffffffff166108fc889081150290604051600060405180830381858888f19350505050158015610a6e573d6000803e3d6000fd5b50505050505050949350505050565b600760009054906101000a90046fffffffffffffffffffffffffffffffff1681565b60003373ffffffffffffffffffffffffffffffffffffffff16600360009054906101000a900473ffffffffffffffffffffffffffffffffffffffff1673ffffffffffffffffffffffffffffffffffffffff1614610b31576040517f08c379a0000000000000000000000000000000000000000000000000000000008152600401610b2890613277565b60405180910390fd5b60008484905090506000600f60008573ffffffffffffffffffffffffffffffffffffffff1673ffffffffffffffffffffffffffffffffffffffff168152602001908152602001600020600001549050610b898461257b565b925081600a600201541015610bd3576040517f08c379a0000000000000000000000000000000000000000000000000000000008152600401610bca906136d4565b60405180910390fd5b81600f60008673ffffffffffffffffffffffffffffffffffffffff1673ffffffffffffffffffffffffffffffffffffffff168152602001908152602001600020600001541480610c74575081600f60008673ffffffffffffffffffffffffffffffffffffffff1673ffffffffffffffffffffffffffffffffffffffff16815260200190815260200160002060000154118015610c73575081600a60020154145b5b610cb3576040517f08c379a0000000000000000000000000000000000000000000000000000000008152600401610caa90613740565b60405180910390fd5b81600a6002016000828254610cc89190613654565b925050819055506000600f60008673ffffffffffffffffffffffffffffffffffffffff1673ffffffffffffffffffffffffffffffffffffffff16815260200190815260200160002060000181905550600f60008573ffffffffffffffffffffffffffffffffffffffff1673ffffffffffffffffffffffffffffffffffffffff1681526020019081526020016000206003015460066000828254610d6b9190613654565b925050819055508260086000828254610d849190613654565b925050819055506000600f60008673ffffffffffffffffffffffffffffffffffffffff1673ffffffffffffffffffffffffffffffffffffffff168152602001908152602001600020600301819055506000821115610f42576000806000600260009054906101000a900473ffffffffffffffffffffffffffffffffffffffff1673ffffffffffffffffffffffffffffffffffffffff1663c728b364600760009054906101000a90046fffffffffffffffffffffffffffffffff16600a60000160109054906101000a90046fffffffffffffffffffffffffffffffff166000886040518563ffffffff1660e01b8152600401610e8294939291906137a5565b60a060405180830381865afa158015610e9f573d6000803e3d6000fd5b505050506040513d601f19601f82011682018060405250810190610ec39190613397565b505092509250925060006002811115610edf57610ede613412565b5b836002811115610ef257610ef1613412565b5b14610f32576040517f08c379a0000000000000000000000000000000000000000000000000000000008152600401610f299061348d565b60405180910390fd5b610f3e60028383612694565b5050505b818111156111375760008282610f589190613654565b9050600080600260009054906101000a900473ffffffffffffffffffffffffffffffffffffffff1673ffffffffffffffffffffffffffffffffffffffff1663c728b364600760009054906101000a90046fffffffffffffffffffffffffffffffff16600a60000160109054906101000a90046fffffffffffffffffffffffffffffffff166000876040518563ffffffff1660e01b8152600401610ffe94939291906137a5565b60a060405180830381865afa15801561101b573d6000803e3d6000fd5b505050506040513d601f19601f8201168201806040525081019061103f9190613397565b945050505091506000600281111561105a57611059613412565b5b82600281111561106d5761106c613412565b5b146110ad576040517f08c379a00000000000000000000000000000000000000000000000000000000081526004016110a49061348d565b60405180910390fd5b82600a60030160008282546110c29190613654565b9250508190555082600460008282546110db9190613654565b925050819055506000811115611133578673ffffffffffffffffffffffffffffffffffffffff166108fc829081150290604051600060405180830381858888f19350505050158015611131573d6000803e3d6000fd5b505b5050505b6111448686843088612430565b6000831115611195578373ffffffffffffffffffffffffffffffffffffffff166108fc849081150290604051600060405180830381858888f19350505050158015611193573d6000803e3d6000fd5b505b50509392505050565b3373ffffffffffffffffffffffffffffffffffffffff16600360009054906101000a900473ffffffffffffffffffffffffffffffffffffffff1673ffffffffffffffffffffffffffffffffffffffff161461122e576040517f08c379a000000000000000000000000000000000000000000000000000000000815260040161122590613277565b60405180910390fd5b600083839050905060008111611279576040517f08c379a0000000000000000000000000000000000000000000000000000000008152600401611270906132e3565b60405180910390fd5b600080600080600260009054906101000a900473ffffffffffffffffffffffffffffffffffffffff1673ffffffffffffffffffffffffffffffffffffffff16635d998912600760009054906101000a90046fffffffffffffffffffffffffffffffff16600a60000160109054906101000a90046fffffffffffffffffffffffffffffffff16600a60010154896040518563ffffffff1660e01b81526004016113249493929190613303565b60a060405180830381865afa158015611341573d6000803e3d6000fd5b505050506040513d601f19601f820116820180604052508101906113659190613397565b9450509350935093506000600281111561138257611381613412565b5b84600281111561139557611394613412565b5b146113d5576040517f08c379a00000000000000000000000000000000000000000000000000000000081526004016113cc9061348d565b60405180910390fd5b60006113e0826127d4565b905080600f60008973ffffffffffffffffffffffffffffffffffffffff1673ffffffffffffffffffffffffffffffffffffffff16815260200190815260200160002060030160008282546114349190613620565b92505081905550806006600082825461144d9190613620565b9250508190555085600f60008973ffffffffffffffffffffffffffffffffffffffff1673ffffffffffffffffffffffffffffffffffffffff16815260200190815260200160002060000160008282546114a69190613620565b9250508190555085600a60020160008282546114c29190613620565b925050819055506114d560028585612694565b6114e28989888a30612430565b505050505050505050565b60003373ffffffffffffffffffffffffffffffffffffffff16600360009054906101000a900473ffffffffffffffffffffffffffffffffffffffff1673ffffffffffffffffffffffffffffffffffffffff161461157f576040517f08c379a000000000000000000000000000000000000000000000000000000000815260040161157690613277565b60405180910390fd5b6000848490509050600081116115ca576040517f08c379a00000000000000000000000000000000000000000000000000000000081526004016115c1906132e3565b60405180910390fd5b6000806000806000600260009054906101000a900473ffffffffffffffffffffffffffffffffffffffff1673ffffffffffffffffffffffffffffffffffffffff16635d998912600a60000160009054906101000a90046fffffffffffffffffffffffffffffffff16600a60000160109054906101000a90046fffffffffffffffffffffffffffffffff16600a600101548a6040518563ffffffff1660e01b815260040161167a9493929190613303565b60a060405180830381865afa158015611697573d6000803e3d6000fd5b505050506040513d601f19601f820116820180604052508101906116bb9190613397565b94509450945094509450600060028111156116d9576116d8613412565b5b8560028111156116ec576116eb613412565b5b1461172c576040517f08c379a00000000000000000000000000000000000000000000000000000000081526004016117239061348d565b60405180910390fd5b600a60020154861115611774576040517f08c379a000000000000000000000000000000000000000000000000000000000815260040161176b906134f9565b60405180910390fd5b803410156117b7576040517f08c379a00000000000000000000000000000000000000000000000000000000081526004016117ae90613836565b60405180910390fd5b85600460008282546117c99190613620565b9250508190555085600a60020160008282546117e59190613654565b9250508190555085600a60030160008282546118019190613620565b92505081905550611810611f12565b965061181d8484846122d2565b8773ffffffffffffffffffffffffffffffffffffffff166108fc82346118439190613654565b9081150290604051600060405180830381858888f1935050505015801561186e573d6000803e3d6000fd5b50600360009054906101000a900473ffffffffffffffffffffffffffffffffffffffff1673ffffffffffffffffffffffffffffffffffffffff166108fc889081150290604051600060405180830381858888f193505050501580156118d7573d6000803e3d6000fd5b506118e88a8a8c8c9050308c612430565b5050505050509392505050565b600080600260009054906101000a900473ffffffffffffffffffffffffffffffffffffffff1673ffffffffffffffffffffffffffffffffffffffff16635d99891284600a60000160109054906101000a90046fffffffffffffffffffffffffffffffff16600a60010154886040518563ffffffff1660e01b815260040161197f9493929190613303565b60a060405180830381865afa15801561199c573d6000803e3d6000fd5b505050506040513d601f19601f820116820180604052508101906119c09190613397565b9450505050508091505092915050565b600a8060000160009054906101000a90046fffffffffffffffffffffffffffffffff16908060000160109054906101000a90046fffffffffffffffffffffffffffffffff16908060010154908060020154908060030154905085565b611a346129bf565b600a6040518060a00160405290816000820160009054906101000a90046fffffffffffffffffffffffffffffffff166fffffffffffffffffffffffffffffffff166fffffffffffffffffffffffffffffffff1681526020016000820160109054906101000a90046fffffffffffffffffffffffffffffffff166fffffffffffffffffffffffffffffffff166fffffffffffffffffffffffffffffffff1681526020016001820154815260200160028201548152602001600382015481525050905090565b611b00612a12565b600f60008373ffffffffffffffffffffffffffffffffffffffff1673ffffffffffffffffffffffffffffffffffffffff1681526020019081526020016000206040518060a0016040529081600082015481526020016001820154815260200160028201548152602001600382015481526020016004820154815250509050919050565b60005481565b600160009054906101000a900473ffffffffffffffffffffffffffffffffffffffff1681565b60065481565b60055481565b600960009054906101000a900460ff1681565b3373ffffffffffffffffffffffffffffffffffffffff16600360009054906101000a900473ffffffffffffffffffffffffffffffffffffffff1673ffffffffffffffffffffffffffffffffffffffff1614611c5e576040517f08c379a0000000000000000000000000000000000000000000000000000000008152600401611c5590613277565b60405180910390fd5b80600360006101000a81548173ffffffffffffffffffffffffffffffffffffffff021916908373ffffffffffffffffffffffffffffffffffffffff16021790555050565b600080600260009054906101000a900473ffffffffffffffffffffffffffffffffffffffff1673ffffffffffffffffffffffffffffffffffffffff1663c728b36484600a60000160109054906101000a90046fffffffffffffffffffffffffffffffff16600a60010154886040518563ffffffff1660e01b8152600401611d2c9493929190613303565b60a060405180830381865afa158015611d49573d6000803e3d6000fd5b505050506040513d601f19601f82011682018060405250810190611d6d9190613397565b9450505050508091505092915050565b600080600654600f60008573ffffffffffffffffffffffffffffffffffffffff1673ffffffffffffffffffffffffffffffffffffffff16815260200190815260200160002060030154600854600654611dd69190613620565b611de09190613856565b611dea91906138c7565b9050600f60008473ffffffffffffffffffffffffffffffffffffffff1673ffffffffffffffffffffffffffffffffffffffff16815260200190815260200160002060030154811115611e8b57600f60008473ffffffffffffffffffffffffffffffffffffffff1673ffffffffffffffffffffffffffffffffffffffff1681526020019081526020016000206003015481611e849190613654565b9150611e90565b600091505b50919050565b60085481565b600e8181548110611eac57600080fd5b906000526020600020016000915090505481565b600260009054906101000a900473ffffffffffffffffffffffffffffffffffffffff1681565b600360009054906101000a900473ffffffffffffffffffffffffffffffffffffffff1681565b60045481565b600080600454118015611f2757506000600554115b156122cf57600554600454106120fe57600080600260009054906101000a900473ffffffffffffffffffffffffffffffffffffffff1673ffffffffffffffffffffffffffffffffffffffff16635b645d80600a60000160009054906101000a90046fffffffffffffffffffffffffffffffff16600a60000160109054906101000a90046fffffffffffffffffffffffffffffffff16600a600101546005546040518563ffffffff1660e01b8152600401611fe49493929190613303565b6040805180830381865afa158015612000573d6000803e3d6000fd5b505050506040513d601f19601f8201168201806040525081019061202491906138f8565b915091506000600281111561203c5761203b613412565b5b82600281111561204f5761204e613412565b5b1461208f576040517f08c379a00000000000000000000000000000000000000000000000000000000081526004016120869061348d565b60405180910390fd5b6120ae600054670de0b6b3a7640000836128179092919063ffffffff16565b925082816120bc9190613654565b600860008282546120cd9190613620565b92505081905550600554600460008282546120e89190613654565b92505081905550600060058190555050506122ce565b60045460055411156122cd57600080600260009054906101000a900473ffffffffffffffffffffffffffffffffffffffff1673ffffffffffffffffffffffffffffffffffffffff166388ec429a600a60000160009054906101000a90046fffffffffffffffffffffffffffffffff16600a60000160109054906101000a90046fffffffffffffffffffffffffffffffff16600a600101546004546040518563ffffffff1660e01b81526004016121b79493929190613303565b6040805180830381865afa1580156121d3573d6000803e3d6000fd5b505050506040513d601f19601f820116820180604052508101906121f791906138f8565b915091506000600281111561220f5761220e613412565b5b82600281111561222257612221613412565b5b14612262576040517f08c379a00000000000000000000000000000000000000000000000000000000081526004016122599061348d565b60405180910390fd5b612281600054670de0b6b3a7640000836128179092919063ffffffff16565b9250828161228f9190613654565b600860008282546122a09190613620565b92505081905550600454600560008282546122bb9190613654565b92505081905550600060048190555050505b5b5b90565b826fffffffffffffffffffffffffffffffff16600a60000160009054906101000a90046fffffffffffffffffffffffffffffffff166fffffffffffffffffffffffffffffffff161461235b5782600a60000160006101000a8154816fffffffffffffffffffffffffffffffff02191690836fffffffffffffffffffffffffffffffff1602179055505b816fffffffffffffffffffffffffffffffff16600a60000160109054906101000a90046fffffffffffffffffffffffffffffffff166fffffffffffffffffffffffffffffffff16141580156123c357506000826fffffffffffffffffffffffffffffffff1614155b156124055781600a60000160106101000a8154816fffffffffffffffffffffffffffffffff02191690836fffffffffffffffffffffffffffffffff1602179055505b80600a600101541415801561241b575060008114155b1561242b5780600a600101819055505b505050565b60005b838110156124f257600160009054906101000a900473ffffffffffffffffffffffffffffffffffffffff1673ffffffffffffffffffffffffffffffffffffffff1663b88d4fde848489898681811061248e5761248d613938565b5b905060200201356040518463ffffffff1660e01b81526004016124b39392919061399e565b600060405180830381600087803b1580156124cd57600080fd5b505af11580156124e1573d6000803e3d6000fd5b505050508080600101915050612433565b503073ffffffffffffffffffffffffffffffffffffffff168273ffffffffffffffffffffffffffffffffffffffff160361253557612530858561283b565b612574565b3073ffffffffffffffffffffffffffffffffffffffff168173ffffffffffffffffffffffffffffffffffffffff1603612573576125728585612957565b5b5b5050505050565b600080600654600f60008573ffffffffffffffffffffffffffffffffffffffff1673ffffffffffffffffffffffffffffffffffffffff168152602001908152602001600020600301546008546006546125d49190613620565b6125de9190613856565b6125e891906138c7565b9050600f60008473ffffffffffffffffffffffffffffffffffffffff1673ffffffffffffffffffffffffffffffffffffffff1681526020019081526020016000206003015481111561268957600f60008473ffffffffffffffffffffffffffffffffffffffff1673ffffffffffffffffffffffffffffffffffffffff16815260200190815260200160002060030154816126829190613654565b915061268e565b600091505b50919050565b816fffffffffffffffffffffffffffffffff16600760009054906101000a90046fffffffffffffffffffffffffffffffff166fffffffffffffffffffffffffffffffff16141580156126e65750600283145b156127255781600760006101000a8154816fffffffffffffffffffffffffffffffff02191690836fffffffffffffffffffffffffffffffff1602179055505b806fffffffffffffffffffffffffffffffff16600a60000160109054906101000a90046fffffffffffffffffffffffffffffffff166fffffffffffffffffffffffffffffffff161415801561278d57506000816fffffffffffffffffffffffffffffffff1614155b156127cf5780600a60000160106101000a8154816fffffffffffffffffffffffffffffffff02191690836fffffffffffffffffffffffffffffffff1602179055505b505050565b600080600654036127e757819050612812565b6008546006546127f79190613620565b826006546128059190613856565b61280f91906138c7565b90505b919050565b60008284029050828482041484151761282f57600080fd5b81810490509392505050565b60005b82829050811015612952576000600e80549050905060005b8181101561293d5784848481811061287157612870613938565b5b90506020020135600e828154811061288c5761288b613938565b5b90600052602060002001540361292a576001826128a99190613654565b81146128fd57600e6001836128be9190613654565b815481106128cf576128ce613938565b5b9060005260206000200154600e82815481106128ee576128ed613938565b5b90600052602060002001819055505b600e80548061290f5761290e6139e8565b5b6001900381819060005260206000200160009055905561293d565b808061293590613a17565b915050612856565b5050808061294a90613a17565b91505061283e565b505050565b60005b828290508110156129ba57600e83838381811061297a57612979613938565b5b90506020020135908060018154018082558091505060019003906000526020600020016000909190919091505580806129b290613a17565b91505061295a565b505050565b6040518060a0016040528060006fffffffffffffffffffffffffffffffff16815260200160006fffffffffffffffffffffffffffffffff1681526020016000815260200160008152602001600081525090565b6040518060a0016040528060008152602001600081526020016000815260200160008152602001600081525090565b6000604051905090565b600080fd5b600080fd5b600073ffffffffffffffffffffffffffffffffffffffff82169050919050565b6000612a8082612a55565b9050919050565b612a9081612a75565b8114612a9b57600080fd5b50565b600081359050612aad81612a87565b92915050565b6000819050919050565b612ac681612ab3565b8114612ad157600080fd5b50565b600081359050612ae381612abd565b92915050565b600080fd5b600080fd5b6000601f19601f8301169050919050565b7f4e487b7100000000000000000000000000000000000000000000000000000000600052604160045260246000fd5b612b3c82612af3565b810181811067ffffffffffffffff82111715612b5b57612b5a612b04565b5b80604052505050565b6000612b6e612a41565b9050612b7a8282612b33565b919050565b600067ffffffffffffffff821115612b9a57612b99612b04565b5b612ba382612af3565b9050602081019050919050565b82818337600083830152505050565b6000612bd2612bcd84612b7f565b612b64565b905082815260208101848484011115612bee57612bed612aee565b5b612bf9848285612bb0565b509392505050565b600082601f830112612c1657612c15612ae9565b5b8135612c26848260208601612bbf565b91505092915050565b60008060008060808587031215612c4957612c48612a4b565b5b6000612c5787828801612a9e565b9450506020612c6887828801612a9e565b9350506040612c7987828801612ad4565b925050606085013567ffffffffffffffff811115612c9a57612c99612a50565b5b612ca687828801612c01565b91505092959194509250565b60007fffffffff0000000000000000000000000000000000000000000000000000000082169050919050565b612ce781612cb2565b82525050565b6000602082019050612d026000830184612cde565b92915050565b600081519050919050565b600082825260208201905092915050565b6000819050602082019050919050565b612d3d81612ab3565b82525050565b6000612d4f8383612d34565b60208301905092915050565b6000602082019050919050565b6000612d7382612d08565b612d7d8185612d13565b9350612d8883612d24565b8060005b83811015612db9578151612da08882612d43565b9750612dab83612d5b565b925050600181019050612d8c565b5085935050505092915050565b60006020820190508181036000830152612de08184612d68565b905092915050565b600080fd5b600080fd5b60008083601f840112612e0857612e07612ae9565b5b8235905067ffffffffffffffff811115612e2557612e24612de8565b5b602083019150836020820283011115612e4157612e40612ded565b5b9250929050565b60008060008060608587031215612e6257612e61612a4b565b5b600085013567ffffffffffffffff811115612e8057612e7f612a50565b5b612e8c87828801612df2565b94509450506020612e9f87828801612ad4565b9250506040612eb087828801612a9e565b91505092959194509250565b612ec581612ab3565b82525050565b6000602082019050612ee06000830184612ebc565b92915050565b60006fffffffffffffffffffffffffffffffff82169050919050565b612f0b81612ee6565b82525050565b6000602082019050612f266000830184612f02565b92915050565b600080600060408486031215612f4557612f44612a4b565b5b600084013567ffffffffffffffff811115612f6357612f62612a50565b5b612f6f86828701612df2565b93509350506020612f8286828701612a9e565b9150509250925092565b612f9581612ee6565b8114612fa057600080fd5b50565b600081359050612fb281612f8c565b92915050565b60008060408385031215612fcf57612fce612a4b565b5b6000612fdd85828601612ad4565b9250506020612fee85828601612fa3565b9150509250929050565b600060a08201905061300d6000830188612f02565b61301a6020830187612f02565b6130276040830186612ebc565b6130346060830185612ebc565b6130416080830184612ebc565b9695505050505050565b61305481612ee6565b82525050565b60a082016000820151613070600085018261304b565b506020820151613083602085018261304b565b5060408201516130966040850182612d34565b5060608201516130a96060850182612d34565b5060808201516130bc6080850182612d34565b50505050565b600060a0820190506130d7600083018461305a565b92915050565b6000602082840312156130f3576130f2612a4b565b5b600061310184828501612a9e565b91505092915050565b60a0820160008201516131206000850182612d34565b5060208201516131336020850182612d34565b5060408201516131466040850182612d34565b5060608201516131596060850182612d34565b50608082015161316c6080850182612d34565b50505050565b600060a082019050613187600083018461310a565b92915050565b61319681612a75565b82525050565b60006020820190506131b1600083018461318d565b92915050565b60008115159050919050565b6131cc816131b7565b82525050565b60006020820190506131e760008301846131c3565b92915050565b60006020828403121561320357613202612a4b565b5b600061321184828501612ad4565b91505092915050565b600082825260208201905092915050565b7f6f6e6c79526f7574657200000000000000000000000000000000000000000000600082015250565b6000613261600a8361321a565b915061326c8261322b565b602082019050919050565b6000602082019050818103600083015261329081613254565b9050919050565b7f4e6f742030000000000000000000000000000000000000000000000000000000600082015250565b60006132cd60058361321a565b91506132d882613297565b602082019050919050565b600060208201905081810360008301526132fc816132c0565b9050919050565b60006080820190506133186000830187612f02565b6133256020830186612f02565b6133326040830185612ebc565b61333f6060830184612ebc565b95945050505050565b6003811061335557600080fd5b50565b60008151905061336781613348565b92915050565b60008151905061337c81612f8c565b92915050565b60008151905061339181612abd565b92915050565b600080600080600060a086880312156133b3576133b2612a4b565b5b60006133c188828901613358565b95505060206133d28882890161336d565b94505060406133e38882890161336d565b93505060606133f488828901613382565b925050608061340588828901613382565b9150509295509295909350565b7f4e487b7100000000000000000000000000000000000000000000000000000000600052602160045260246000fd5b7f426f6e64696e67206572726f7200000000000000000000000000000000000000600082015250565b6000613477600d8361321a565b915061348282613441565b602082019050919050565b600060208201905081810360008301526134a68161346a565b9050919050565b7f4e6f7420656e6f756768206c6971756964697479000000000000000000000000600082015250565b60006134e360148361321a565b91506134ee826134ad565b602082019050919050565b60006020820190508181036000830152613512816134d6565b9050919050565b7f4e6f742065787065637465642076616c75650000000000000000000000000000600082015250565b600061354f60128361321a565b915061355a82613519565b602082019050919050565b6000602082019050818103600083015261357e81613542565b9050919050565b7f4e6f7420656e6f75676820636f6e74726163742062616c616e63650000000000600082015250565b60006135bb601b8361321a565b91506135c682613585565b602082019050919050565b600060208201905081810360008301526135ea816135ae565b9050919050565b7f4e487b7100000000000000000000000000000000000000000000000000000000600052601160045260246000fd5b600061362b82612ab3565b915061363683612ab3565b925082820190508082111561364e5761364d6135f1565b5b92915050565b600061365f82612ab3565b915061366a83612ab3565b9250828203905081811115613682576136816135f1565b5b92915050565b7f506f6f6c206e6f7420656e6f756768204e465400000000000000000000000000600082015250565b60006136be60138361321a565b91506136c982613688565b602082019050919050565b600060208201905081810360008301526136ed816136b1565b9050919050565b7f536f6d657468696e672069732077726f6e672e00000000000000000000000000600082015250565b600061372a60138361321a565b9150613735826136f4565b602082019050919050565b600060208201905081810360008301526137598161371d565b9050919050565b6000819050919050565b6000819050919050565b600061378f61378a61378584613760565b61376a565b612ab3565b9050919050565b61379f81613774565b82525050565b60006080820190506137ba6000830187612f02565b6137c76020830186612f02565b6137d46040830185613796565b6137e16060830184612ebc565b95945050505050565b7f4e6f7420656e6f7567682076616c756500000000000000000000000000000000600082015250565b600061382060108361321a565b915061382b826137ea565b602082019050919050565b6000602082019050818103600083015261384f81613813565b9050919050565b600061386182612ab3565b915061386c83612ab3565b925082820261387a81612ab3565b91508282048414831517613891576138906135f1565b5b5092915050565b7f4e487b7100000000000000000000000000000000000000000000000000000000600052601260045260246000fd5b60006138d282612ab3565b91506138dd83612ab3565b9250826138ed576138ec613898565b5b828204905092915050565b6000806040838503121561390f5761390e612a4b565b5b600061391d85828601613358565b925050602061392e85828601613382565b9150509250929050565b7f4e487b7100000000000000000000000000000000000000000000000000000000600052603260045260246000fd5b600082825260208201905092915050565b50565b6000613988600083613967565b915061399382613978565b600082019050919050565b60006080820190506139b3600083018661318d565b6139c0602083018561318d565b6139cd6040830184612ebc565b81810360608301526139de8161397b565b9050949350505050565b7f4e487b7100000000000000000000000000000000000000000000000000000000600052603160045260246000fd5b6000613a2282612ab3565b91507fffffffffffffffffffffffffffffffffffffffffffffffffffffffffffffffff8203613a5457613a536135f1565b5b60018201905091905056fea2646970667358221220a4ba0053d54305975a5a935af913dd42161bf4888c455d9e1a0e9c3674795bcb64736f6c63430008110033",
  "linkReferences": {},
  "deployedLinkReferences": {}
}