{
    "contractName": "Pool721",
    "abi": [
        {
            "inputs": [
                {
                    "internalType": "address",
                    "name": "_collection",
                    "type": "address"
                },
                {
                    "internalType": "address",
                    "name": "_bondingCurve",
                    "type": "address"
                },
                {
                    "internalType": "uint128",
                    "name": "_spotPrice",
                    "type": "uint128"
                },
                {
                    "internalType": "uint128",
                    "name": "_delta",
                    "type": "uint128"
                },
                {
                    "internalType": "uint256",
                    "name": "_divergence",
                    "type": "uint256"
                },
                {
                    "internalType": "uint256",
                    "name": "_protocolFeeRatio",
                    "type": "uint256"
                },
                {
                    "internalType": "address",
                    "name": "_router",
                    "type": "address"
                }
            ],
            "stateMutability": "nonpayable",
            "type": "constructor"
        },
        {
            "anonymous": false,
            "inputs": [
                {
                    "indexed": true,
                    "internalType": "address",
                    "name": "user",
                    "type": "address"
                },
                {
                    "indexed": false,
                    "internalType": "uint256",
                    "name": "userNum",
                    "type": "uint256"
                },
                {
                    "indexed": false,
                    "internalType": "uint256[]",
                    "name": "tokenIds",
                    "type": "uint256[]"
                }
            ],
            "name": "StakeNFT",
            "type": "event"
        },
        {
            "anonymous": false,
            "inputs": [
                {
                    "indexed": true,
                    "internalType": "address",
                    "name": "user",
                    "type": "address"
                },
                {
                    "indexed": false,
                    "internalType": "uint256[]",
                    "name": "tokenIds",
                    "type": "uint256[]"
                },
                {
                    "indexed": false,
                    "internalType": "uint256",
                    "name": "totalFee",
                    "type": "uint256"
                }
            ],
            "name": "SwapFTforNFT",
            "type": "event"
        },
        {
            "anonymous": false,
            "inputs": [
                {
                    "indexed": true,
                    "internalType": "address",
                    "name": "user",
                    "type": "address"
                },
                {
                    "indexed": false,
                    "internalType": "uint256[]",
                    "name": "tokenIds",
                    "type": "uint256[]"
                },
                {
                    "indexed": false,
                    "internalType": "uint256",
                    "name": "totalFee",
                    "type": "uint256"
                }
            ],
            "name": "SwapNFTforFT",
            "type": "event"
        },
        {
            "anonymous": false,
            "inputs": [
                {
                    "indexed": true,
                    "internalType": "address",
                    "name": "user",
                    "type": "address"
                },
                {
                    "indexed": false,
                    "internalType": "uint256[]",
                    "name": "tokenIds",
                    "type": "uint256[]"
                },
                {
                    "indexed": false,
                    "internalType": "uint256",
                    "name": "userNum",
                    "type": "uint256"
                },
                {
                    "indexed": false,
                    "internalType": "uint256",
                    "name": "userAmount",
                    "type": "uint256"
                },
                {
                    "indexed": false,
                    "internalType": "uint256",
                    "name": "userFee",
                    "type": "uint256"
                }
            ],
            "name": "WithdrawFT",
            "type": "event"
        },
        {
            "anonymous": false,
            "inputs": [
                {
                    "indexed": true,
                    "internalType": "address",
                    "name": "user",
                    "type": "address"
                },
                {
                    "indexed": false,
                    "internalType": "uint256[]",
                    "name": "tokenIds",
                    "type": "uint256[]"
                },
                {
                    "indexed": false,
                    "internalType": "uint256",
                    "name": "userNum",
                    "type": "uint256"
                },
                {
                    "indexed": false,
                    "internalType": "uint256",
                    "name": "userFee",
                    "type": "uint256"
                }
            ],
            "name": "WithdrawNFT",
            "type": "event"
        },
        {
            "inputs": [],
            "name": "buyEventNum",
            "outputs": [
                {
                    "internalType": "uint256",
                    "name": "",
                    "type": "uint256"
                }
            ],
            "stateMutability": "view",
            "type": "function"
        },
        {
            "inputs": [],
            "name": "collection",
            "outputs": [
                {
                    "internalType": "address",
                    "name": "",
                    "type": "address"
                }
            ],
            "stateMutability": "view",
            "type": "function"
        },
        {
            "inputs": [
                {
                    "internalType": "uint256",
                    "name": "_itemNum",
                    "type": "uint256"
                },
                {
                    "internalType": "uint128",
                    "name": "_spotPrice",
                    "type": "uint128"
                },
                {
                    "internalType": "uint256",
                    "name": "_divergence",
                    "type": "uint256"
                }
            ],
            "name": "getCalcBuyInfo",
            "outputs": [
                {
                    "internalType": "uint256",
                    "name": "",
                    "type": "uint256"
                }
            ],
            "stateMutability": "view",
            "type": "function"
        },
        {
            "inputs": [
                {
                    "internalType": "uint256",
                    "name": "_itemNum",
                    "type": "uint256"
                },
                {
                    "internalType": "uint128",
                    "name": "_spotPrice",
                    "type": "uint128"
                },
                {
                    "internalType": "uint256",
                    "name": "_divergence",
                    "type": "uint256"
                }
            ],
            "name": "getCalcSellInfo",
            "outputs": [
                {
                    "internalType": "uint256",
                    "name": "",
                    "type": "uint256"
                }
            ],
            "stateMutability": "view",
            "type": "function"
        },
        {
            "inputs": [],
            "name": "getPoolInfo",
            "outputs": [
                {
                    "components": [
                        {
                            "internalType": "address",
                            "name": "bondingCurve",
                            "type": "address"
                        },
                        {
                            "internalType": "uint128",
                            "name": "spotPrice",
                            "type": "uint128"
                        },
                        {
                            "internalType": "uint128",
                            "name": "delta",
                            "type": "uint128"
                        },
                        {
                            "internalType": "uint256",
                            "name": "divergence",
                            "type": "uint256"
                        },
                        {
                            "internalType": "uint256",
                            "name": "buyNum",
                            "type": "uint256"
                        },
                        {
                            "internalType": "uint256",
                            "name": "sellNum",
                            "type": "uint256"
                        }
                    ],
                    "internalType": "struct Pool721.PoolInfo",
                    "name": "",
                    "type": "tuple"
                }
            ],
            "stateMutability": "view",
            "type": "function"
        },
        {
            "inputs": [
                {
                    "internalType": "address",
                    "name": "_user",
                    "type": "address"
                }
            ],
            "name": "getUserInfo",
            "outputs": [
                {
                    "components": [
                        {
                            "internalType": "uint256",
                            "name": "userInitBuyNum",
                            "type": "uint256"
                        },
                        {
                            "internalType": "uint256",
                            "name": "userInitSellNum",
                            "type": "uint256"
                        },
                        {
                            "internalType": "uint256",
                            "name": "userInitSellAmount",
                            "type": "uint256"
                        },
                        {
                            "internalType": "uint256",
                            "name": "userNFTpoint",
                            "type": "uint256"
                        },
                        {
                            "internalType": "uint256",
                            "name": "userFTpoint",
                            "type": "uint256"
                        }
                    ],
                    "internalType": "struct Pool721.UserInfo",
                    "name": "",
                    "type": "tuple"
                }
            ],
            "stateMutability": "view",
            "type": "function"
        },
        {
            "inputs": [
                {
                    "internalType": "address",
                    "name": "_user",
                    "type": "address"
                }
            ],
            "name": "getUserStakeFTfee",
            "outputs": [
                {
                    "internalType": "uint256",
                    "name": "_userFee",
                    "type": "uint256"
                }
            ],
            "stateMutability": "view",
            "type": "function"
        },
        {
            "inputs": [
                {
                    "internalType": "address",
                    "name": "_user",
                    "type": "address"
                }
            ],
            "name": "getUserStakeNFTfee",
            "outputs": [
                {
                    "internalType": "uint256",
                    "name": "_userFee",
                    "type": "uint256"
                }
            ],
            "stateMutability": "view",
            "type": "function"
        },
        {
            "inputs": [
                {
                    "internalType": "address",
                    "name": "",
                    "type": "address"
                },
                {
                    "internalType": "address",
                    "name": "",
                    "type": "address"
                },
                {
                    "internalType": "uint256",
                    "name": "",
                    "type": "uint256"
                },
                {
                    "internalType": "bytes",
                    "name": "",
                    "type": "bytes"
                }
            ],
            "name": "onERC721Received",
            "outputs": [
                {
                    "internalType": "bytes4",
                    "name": "",
                    "type": "bytes4"
                }
            ],
            "stateMutability": "nonpayable",
            "type": "function"
        },
        {
            "inputs": [],
            "name": "poolInfo",
            "outputs": [
                {
                    "internalType": "address",
                    "name": "bondingCurve",
                    "type": "address"
                },
                {
                    "internalType": "uint128",
                    "name": "spotPrice",
                    "type": "uint128"
                },
                {
                    "internalType": "uint128",
                    "name": "delta",
                    "type": "uint128"
                },
                {
                    "internalType": "uint256",
                    "name": "divergence",
                    "type": "uint256"
                },
                {
                    "internalType": "uint256",
                    "name": "buyNum",
                    "type": "uint256"
                },
                {
                    "internalType": "uint256",
                    "name": "sellNum",
                    "type": "uint256"
                }
            ],
            "stateMutability": "view",
            "type": "function"
        },
        {
            "inputs": [],
            "name": "protocolFeeRatio",
            "outputs": [
                {
                    "internalType": "uint256",
                    "name": "",
                    "type": "uint256"
                }
            ],
            "stateMutability": "view",
            "type": "function"
        },
        {
            "inputs": [],
            "name": "router",
            "outputs": [
                {
                    "internalType": "address",
                    "name": "",
                    "type": "address"
                }
            ],
            "stateMutability": "view",
            "type": "function"
        },
        {
            "inputs": [],
            "name": "sellEventNum",
            "outputs": [
                {
                    "internalType": "uint256",
                    "name": "",
                    "type": "uint256"
                }
            ],
            "stateMutability": "view",
            "type": "function"
        },
        {
            "inputs": [
                {
                    "internalType": "address",
                    "name": "_newRouter",
                    "type": "address"
                }
            ],
            "name": "setRouter",
            "outputs": [],
            "stateMutability": "nonpayable",
            "type": "function"
        },
        {
            "inputs": [],
            "name": "stakeFTprice",
            "outputs": [
                {
                    "internalType": "uint128",
                    "name": "",
                    "type": "uint128"
                }
            ],
            "stateMutability": "view",
            "type": "function"
        },
        {
            "inputs": [
                {
                    "internalType": "uint256[]",
                    "name": "_tokenIds",
                    "type": "uint256[]"
                },
                {
                    "internalType": "address",
                    "name": "_user",
                    "type": "address"
                }
            ],
            "name": "stakeNFT",
            "outputs": [],
            "stateMutability": "nonpayable",
            "type": "function"
        },
        {
            "inputs": [],
            "name": "stakeNFTprice",
            "outputs": [
                {
                    "internalType": "uint128",
                    "name": "",
                    "type": "uint128"
                }
            ],
            "stateMutability": "view",
            "type": "function"
        },
        {
            "inputs": [
                {
                    "internalType": "uint256[]",
                    "name": "_tokenIds",
                    "type": "uint256[]"
                },
                {
                    "internalType": "address",
                    "name": "_user",
                    "type": "address"
                }
            ],
            "name": "swapFTforNFT",
            "outputs": [
                {
                    "internalType": "uint256",
                    "name": "_protocolFee",
                    "type": "uint256"
                }
            ],
            "stateMutability": "payable",
            "type": "function"
        },
        {
            "inputs": [
                {
                    "internalType": "uint256[]",
                    "name": "_tokenIds",
                    "type": "uint256[]"
                },
                {
                    "internalType": "uint256",
                    "name": "_minExpectFee",
                    "type": "uint256"
                },
                {
                    "internalType": "address",
                    "name": "_user",
                    "type": "address"
                }
            ],
            "name": "swapNFTforFT",
            "outputs": [
                {
                    "internalType": "uint256",
                    "name": "_protocolFee",
                    "type": "uint256"
                }
            ],
            "stateMutability": "payable",
            "type": "function"
        },
        {
            "inputs": [],
            "name": "totalFTfee",
            "outputs": [
                {
                    "internalType": "uint256",
                    "name": "",
                    "type": "uint256"
                }
            ],
            "stateMutability": "view",
            "type": "function"
        },
        {
            "inputs": [],
            "name": "totalFTpoint",
            "outputs": [
                {
                    "internalType": "uint256",
                    "name": "",
                    "type": "uint256"
                }
            ],
            "stateMutability": "view",
            "type": "function"
        },
        {
            "inputs": [],
            "name": "totalNFTfee",
            "outputs": [
                {
                    "internalType": "uint256",
                    "name": "",
                    "type": "uint256"
                }
            ],
            "stateMutability": "view",
            "type": "function"
        },
        {
            "inputs": [],
            "name": "totalNFTpoint",
            "outputs": [
                {
                    "internalType": "uint256",
                    "name": "",
                    "type": "uint256"
                }
            ],
            "stateMutability": "view",
            "type": "function"
        },
        {
            "inputs": [
                {
                    "internalType": "uint256",
                    "name": "_userSellNum",
                    "type": "uint256"
                },
                {
                    "internalType": "uint256[]",
                    "name": "_tokenIds",
                    "type": "uint256[]"
                },
                {
                    "internalType": "address",
                    "name": "_user",
                    "type": "address"
                }
            ],
            "name": "withdrawFT",
            "outputs": [],
            "stateMutability": "payable",
            "type": "function"
        },
        {
            "inputs": [
                {
                    "internalType": "uint256[]",
                    "name": "_tokenIds",
                    "type": "uint256[]"
                },
                {
                    "internalType": "address",
                    "name": "_user",
                    "type": "address"
                }
            ],
            "name": "withdrawNFT",
            "outputs": [],
            "stateMutability": "payable",
            "type": "function"
        }
    ],
    "bytecode": "60806040523480156200001157600080fd5b5060405162002965380380620029658339810160408190526200003491620000e1565b600180546001600160a01b039889166001600160a01b031991821617909155600a805497891697821697909717909655600160801b6001600160801b039586168181026001600160801b031916811760075594909516909402909217600b55600c556000556002805491909316911617905562000164565b80516001600160a01b0381168114620000c457600080fd5b919050565b80516001600160801b0381168114620000c457600080fd5b600080600080600080600060e0888a031215620000fd57600080fd5b6200010888620000ac565b96506200011860208901620000ac565b95506200012860408901620000c9565b94506200013860608901620000c9565b93506080880151925060a088015191506200015660c08901620000ac565b905092959891949750929550565b6127f180620001746000396000f3fe6080604052600436106101665760003560e01c80636386c1c7116100d1578063895af8711161008a578063e7ede50211610064578063e7ede502146105a1578063eaa62678146105b7578063f887ea40146105cd578063fc5ad2df146105ed57600080fd5b8063895af8711461054b578063c0d7865514610561578063cb6f0d341461058157600080fd5b80636386c1c7146104455780636b469d39146104a75780637a27d9f6146104c75780637b6880ca146104dd5780637de1e536146104fd57806386524b2d1461053557600080fd5b80634c4cbac4116101235780634c4cbac41461026957806350902c171461027c578063531538361461028f57806354044ccb146102af5780635a2f3d09146102c557806360246c881461034e57600080fd5b8063150b7a021461016b578063244117b4146101b45780632767fa4b146101d55780632c7e4915146102145780632f7e0b2e14610229578063341d15fd14610249575b600080fd5b34801561017757600080fd5b5061019661018636600461229b565b630a85bd0160e11b949350505050565b6040516001600160e01b031990911681526020015b60405180910390f35b6101c76101c23660046123db565b610603565b6040519081526020016101ab565b3480156101e157600080fd5b506007546101fc90600160801b90046001600160801b031681565b6040516001600160801b0390911681526020016101ab565b610227610222366004612432565b610939565b005b34801561023557600080fd5b50610227610244366004612432565b610e83565b34801561025557600080fd5b506101c7610264366004612495565b6110bc565b6101c7610277366004612432565b611157565b61022761028a3660046124cd565b61143b565b34801561029b57600080fd5b506101c76102aa366004612495565b611a3a565b3480156102bb57600080fd5b506101c760055481565b3480156102d157600080fd5b50600a54600b54600c54600d54600e5461030a946001600160a01b0316936001600160801b0380821694600160801b9092041692909186565b604080516001600160a01b039790971687526001600160801b03958616602088015293909416928501929092526060840152608083015260a082015260c0016101ab565b34801561035a57600080fd5b506103e76040805160c081018252600080825260208201819052918101829052606081018290526080810182905260a0810191909152506040805160c081018252600a546001600160a01b03168152600b546001600160801b038082166020840152600160801b9091041691810191909152600c546060820152600d546080820152600e5460a082015290565b6040805182516001600160a01b031681526020808401516001600160801b0390811691830191909152838301511691810191909152606080830151908201526080808301519082015260a0918201519181019190915260c0016101ab565b34801561045157600080fd5b5061046561046036600461251b565b611a87565b6040516101ab9190600060a082019050825182526020830151602083015260408301516040830152606083015160608301526080830151608083015292915050565b3480156104b357600080fd5b506101c76104c236600461251b565b611b11565b3480156104d357600080fd5b506101c760005481565b3480156104e957600080fd5b506007546101fc906001600160801b031681565b34801561050957600080fd5b5060015461051d906001600160a01b031681565b6040516001600160a01b0390911681526020016101ab565b34801561054157600080fd5b506101c760065481565b34801561055757600080fd5b506101c760045481565b34801561056d57600080fd5b5061022761057c36600461251b565b611bb6565b34801561058d57600080fd5b506101c761059c36600461251b565b611c1f565b3480156105ad57600080fd5b506101c760085481565b3480156105c357600080fd5b506101c760095481565b3480156105d957600080fd5b5060025461051d906001600160a01b031681565b3480156105f957600080fd5b506101c760035481565b6000816001600160a01b03811633148061062757506002546001600160a01b031633145b61063057600080fd5b8451806106585760405162461bcd60e51b815260040161064f9061253d565b60405180910390fd5b600a54600b54600c546040516331ca2cd960e21b815260009384938493849384936001600160a01b03169263c728b364926106ad926001600160801b0380841693600160801b90041691908c9060040161255c565b60a060405180830381865afa1580156106ca573d6000803e3d6000fd5b505050506040513d601f19601f820116820180604052508101906106ee9190612594565b939850919650945092509050600085600281111561070e5761070e6125ef565b1461072b5760405162461bcd60e51b815260040161064f90612605565b600e548611156107745760405162461bcd60e51b81526020600482015260146024820152734e6f7420656e6f756768206c697175696469747960601b604482015260640161064f565b898110156107b95760405162461bcd60e51b81526020600482015260126024820152714e6f742065787065637465642076616c756560701b604482015260640161064f565b804710156108095760405162461bcd60e51b815260206004820152601b60248201527f4e6f7420656e6f75676820636f6e74726163742062616c616e63650000000000604482015260640161064f565b856004600082825461081b9190612642565b9091555050600e805487919060009061083590849061265b565b9091555050600d805487919060009061084f908490612642565b9091555061085d9050611cb2565b975061086a848484611f0f565b6108768b878b30611fae565b6040516001600160a01b038a169082156108fc029083906000818181858888f193505050501580156108ac573d6000803e3d6000fd5b506002546040516001600160a01b039091169089156108fc02908a906000818181858888f193505050501580156108e7573d6000803e3d6000fd5b50886001600160a01b03167f52a8813c8bdca51f38292d707f835c85ffb8d74c66cc39a75609345ff2c3f0be8c836040516109239291906126a9565b60405180910390a2505050505050509392505050565b81516001600160a01b0382166000908152600f60205260408120549061095e84611c1f565b905082600a6003015410156109ab5760405162461bcd60e51b8152602060048201526013602482015272141bdbdb081b9bdd08195b9bdd59da08139195606a1b604482015260640161064f565b6001600160a01b0384166000908152600f60205260409020548314806109d25750600d5483145b610a145760405162461bcd60e51b815260206004820152601360248201527229b7b6b2ba3434b7339034b9903bb937b7339760691b604482015260640161064f565b82600a6003016000828254610a29919061265b565b90915550506001600160a01b0384166000908152600f60205260408120818155600301546006805491929091610a6090849061265b565b925050819055508060096000828254610a79919061265b565b90915550506001600160a01b0384166000908152600f60205260408120600301558215610b9057600a54600754600b546040516331ca2cd960e21b8152600093849384936001600160a01b039092169263c728b36492610b03926001600160801b03600160801b918290048116939190920490911690670de0b6b3a7640000908b9060040161255c565b60a060405180830381865afa158015610b20573d6000803e3d6000fd5b505050506040513d601f19601f82011682018060405250810190610b449190612594565b50929550909350915060009050836002811115610b6357610b636125ef565b14610b805760405162461bcd60e51b815260040161064f90612605565b610b8c60028383612079565b5050505b82821115610ded576000610ba4848461265b565b600a54600754600b546040516331ca2cd960e21b815293945060009384936001600160a01b03169263c728b36492610c05926001600160801b03600160801b9384900481169390920490911690670de0b6b3a764000090899060040161255c565b60a060405180830381865afa158015610c22573d6000803e3d6000fd5b505050506040513d601f19601f82011682018060405250810190610c469190612594565b9450505050915060006002811115610c6057610c606125ef565b826002811115610c7257610c726125ef565b14610c8f5760405162461bcd60e51b815260040161064f90612605565b600a54600754600b54604051632eccc48960e11b8152600093849384936001600160a01b0390921692635d99891292610cec926001600160801b0390811692600160801b9092041690670de0b6b3a7640000908c9060040161255c565b60a060405180830381865afa158015610d09573d6000803e3d6000fd5b505050506040513d601f19601f82011682018060405250810190610d2d9190612594565b50929550909350915060009050836002811115610d4c57610d4c6125ef565b14610d695760405162461bcd60e51b815260040161064f90612605565b610d7560018383612079565b85600a6004016000828254610d8a919061265b565b925050819055508560036000828254610da3919061265b565b90915550508315610de6576040516001600160a01b038b169085156108fc029086906000818181858888f19350505050158015610de4573d6000803e3d6000fd5b505b5050505050505b610df985843087611fae565b8015610e37576040516001600160a01b0385169082156108fc029083906000818181858888f19350505050158015610e35573d6000803e3d6000fd5b505b836001600160a01b03167fae12f538fd8232ce822341f49f6323a75f6a7c19115d403ef481b0a39cf46775868484604051610e74939291906126cb565b60405180910390a25050505050565b806001600160a01b038116331480610ea557506002546001600160a01b031633145b610eae57600080fd5b825180610ecd5760405162461bcd60e51b815260040161064f9061253d565b600a54600754600b54600c54604051632eccc48960e11b81526000948594859485946001600160a01b0390931693635d99891293610f29936001600160801b03600160801b918290048116949190910416918b9060040161255c565b60a060405180830381865afa158015610f46573d6000803e3d6000fd5b505050506040513d601f19601f82011682018060405250810190610f6a9190612594565b94505093509350935060006002811115610f8657610f866125ef565b846002811115610f9857610f986125ef565b14610fb55760405162461bcd60e51b815260040161064f90612605565b6000610fc08261214e565b6001600160a01b0389166000908152600f6020526040812060030180549293508392909190610ff0908490612642565b9250508190555080600660008282546110099190612642565b90915550506001600160a01b0388166000908152600f602052604081208054889290611036908490612642565b9091555050600d8054879190600090611050908490612642565b90915550611062905060028585612079565b61106e89878a30611fae565b876001600160a01b03167fb0c56c1c40b91909a8c61fe7d6feb60c8dc44e92ce0cff5beb3c5d449a7eb309878b6040516110a99291906126f0565b60405180910390a2505050505050505050565b600a54600b546040516331ca2cd960e21b815260009283926001600160a01b039091169163c728b36491611109918891600160801b90046001600160801b03169088908b9060040161255c565b60a060405180830381865afa158015611126573d6000803e3d6000fd5b505050506040513d601f19601f8201168201806040525081019061114a9190612594565b9998505050505050505050565b6000816001600160a01b03811633148061117b57506002546001600160a01b031633145b61118457600080fd5b8351806111a35760405162461bcd60e51b815260040161064f9061253d565b600a54600b54600c54604051632eccc48960e11b815260009384938493849384936001600160a01b031692635d998912926111f8926001600160801b0380841693600160801b90041691908c9060040161255c565b60a060405180830381865afa158015611215573d6000803e3d6000fd5b505050506040513d601f19601f820116820180604052508101906112399190612594565b9398509196509450925090506000856002811115611259576112596125ef565b146112765760405162461bcd60e51b815260040161064f90612605565b600d548611156112bf5760405162461bcd60e51b81526020600482015260146024820152734e6f7420656e6f756768206c697175696469747960601b604482015260640161064f565b803410156113025760405162461bcd60e51b815260206004820152601060248201526f4e6f7420656e6f7567682076616c756560801b604482015260640161064f565b85600360008282546113149190612642565b9091555050600d805487919060009061132e90849061265b565b9091555050600e8054879190600090611348908490612642565b909155506113569050611cb2565b9750611363848484611f0f565b6001600160a01b0389166108fc61137a833461265b565b6040518115909202916000818181858888f193505050501580156113a2573d6000803e3d6000fd5b506002546040516001600160a01b039091169089156108fc02908a906000818181858888f193505050501580156113dd573d6000803e3d6000fd5b506113eb8a8b51308c611fae565b886001600160a01b03167f6469db8d2898ffda696aafd09bc1708333f063d0086bae9245bfbfddd7307ff68b836040516114269291906126a9565b60405180910390a25050505050505092915050565b81516001600160a01b0382166000908152600f602052604081206001810154600290910154909161146b85611b11565b9050600087600a6004015410156114ba5760405162461bcd60e51b8152602060048201526013602482015272141bdbdb081b9bdd08195b9bdd59da08139195606a1b604482015260640161064f565b6001600160a01b0386166000908152600f60205260409020600101548814806114e45750600e5488145b6115265760405162461bcd60e51b815260206004820152601360248201527229b7b6b2ba3434b7339034b9903bb937b7339760691b604482015260640161064f565b6001600160a01b0386166000908152600f6020526040902060010154859061154f908a9061265b565b146115855760405162461bcd60e51b815260040161064f906020808252600490820152637472756560e01b604082015260600190565b87600a600401600082825461159a919061265b565b90915550506001600160a01b0386166000908152600f6020526040812060018101829055600281018290556004015460058054919290916115dc90849061265b565b9250508190555081600860008282546115f5919061265b565b90915550506001600160a01b0386166000908152600f6020526040812060040155871561172d576000806000600a60000160009054906101000a90046001600160a01b03166001600160a01b0316635d998912600760009054906101000a90046001600160801b0316600a60010160109054906101000a90046001600160801b0316670de0b6b3a76400008f6040518563ffffffff1660e01b81526004016116a0949392919061255c565b60a060405180830381865afa1580156116bd573d6000803e3d6000fd5b505050506040513d601f19601f820116820180604052508101906116e19190612594565b50929550909350915060009050836002811115611700576117006125ef565b1461171d5760405162461bcd60e51b815260040161064f90612605565b61172960018383612079565b5050505b8388101561196257600a54600754600b5460009283926001600160a01b0390911691635d998912916001600160801b0390811691600160801b900416670de0b6b3a764000061177c8f8c61265b565b6040518563ffffffff1660e01b815260040161179b949392919061255c565b60a060405180830381865afa1580156117b8573d6000803e3d6000fd5b505050506040513d601f19601f820116820180604052508101906117dc9190612594565b94505050509150600060028111156117f6576117f66125ef565b826002811115611808576118086125ef565b146118255760405162461bcd60e51b815260040161064f90612605565b600a54600754600b546040516331ca2cd960e21b815260009384936001600160a01b039091169263c728b36492611884926001600160801b03600160801b91829004811693919091041690670de0b6b3a7640000908f9060040161255c565b60a060405180830381865afa1580156118a1573d6000803e3d6000fd5b505050506040513d601f19601f820116820180604052508101906118c59190612594565b50505091509150600060028111156118df576118df6125ef565b8260028111156118f1576118f16125ef565b1461190e5760405162461bcd60e51b815260040161064f90612605565b88600a6003016000828254611923919061265b565b92505081905550886004600082825461193c919061265b565b9091555061194f90506002826000612079565b61195b8b8a308d611fae565b5090925050505b828110156119ab576001600160a01b0386166108fc611981838661265b565b6040518115909202916000818181858888f193505050501580156119a9573d6000803e3d6000fd5b505b81156119e9576040516001600160a01b0387169083156108fc029084906000818181858888f193505050501580156119e7573d6000803e3d6000fd5b505b856001600160a01b03167f182a15e7df1d8f3dd0b212833cac160a9efae034c417f18c5b9350d4b89fff0088868686604051611a289493929190612711565b60405180910390a25050505050505050565b600a54600b54604051632eccc48960e11b815260009283926001600160a01b0390911691635d99891291611109918891600160801b90046001600160801b03169088908b9060040161255c565b611ab96040518060a0016040528060008152602001600081526020016000815260200160008152602001600081525090565b506001600160a01b03166000908152600f6020908152604091829020825160a0810184528154815260018201549281019290925260028101549282019290925260038201546060820152600490910154608082015290565b6005546001600160a01b0382166000908152600f602052604081206004015460085491928392909190611b449083612642565b611b4e9190612740565b611b589190612757565b6001600160a01b0384166000908152600f6020526040902060040154909150811115611bab576001600160a01b0383166000908152600f6020526040902060040154611ba4908261265b565b9150611bb0565b600091505b50919050565b6002546001600160a01b03163314611bfd5760405162461bcd60e51b815260206004820152600a60248201526937b7363ca937baba32b960b11b604482015260640161064f565b600280546001600160a01b0319166001600160a01b0392909216919091179055565b6006546001600160a01b0382166000908152600f602052604081206003015460095491928392909190611c529083612642565b611c5c9190612740565b611c669190612757565b6001600160a01b0384166000908152600f6020526040902060030154909150811115611bab576001600160a01b0383166000908152600f6020526040902060030154611ba4908261265b565b600080600354118015611cc757506000600454115b15611f0c5760045460035410611df057600a54600b54600c546004805460405162b6c8bb60e71b815260009586956001600160a01b0390911694635b645d8094611d29946001600160801b0380851695600160801b909504169390910161255c565b6040805180830381865afa158015611d45573d6000803e3d6000fd5b505050506040513d601f19601f82011682018060405250810190611d699190612779565b90925090506000826002811115611d8257611d826125ef565b14611d9f5760405162461bcd60e51b815260040161064f90612605565b600054611db6908290670de0b6b3a764000061218e565b9250611dca611dc5848361265b565b6121a9565b60045460036000828254611dde919061265b565b9091555050600060045550611f0c9050565b6003546004541115611f0c57600a54600b54600c54600354604051634476214d60e11b815260009485946001600160a01b03909116936388ec429a93611e4f936001600160801b0380851694600160801b90041692919060040161255c565b6040805180830381865afa158015611e6b573d6000803e3d6000fd5b505050506040513d601f19601f82011682018060405250810190611e8f9190612779565b90925090506000826002811115611ea857611ea86125ef565b14611ec55760405162461bcd60e51b815260040161064f90612605565b600054611edc908290670de0b6b3a764000061218e565b9250611eeb611dc5848361265b565b60035460046000828254611eff919061265b565b9091555050600060035550505b90565b600b546001600160801b03848116911614611f4057600b80546001600160801b0319166001600160801b0385161790555b600b546001600160801b03838116600160801b9092041614801590611f6d57506001600160801b03821615155b15611f8d57600b80546001600160801b03808516600160801b0291161790555b600c548114801590611f9e57508015155b15611fa957600c8190555b505050565b60005b838110156120725760015485516001600160a01b039091169063b88d4fde9085908590899086908110611fe657611fe66127a5565b60209081029190910101516040516001600160e01b031960e086901b1681526001600160a01b0393841660048201529290911660248301526044820152608060648201526000608482015260a401600060405180830381600087803b15801561204e57600080fd5b505af1158015612062573d6000803e3d6000fd5b505060019092019150611fb19050565b5050505050565b6007546001600160801b038381169116148015906120975750826001145b156120b857600780546001600160801b0319166001600160801b0384161790555b6007546001600160801b03838116600160801b90920416148015906120dd5750826002145b156120fd57600780546001600160801b03808516600160801b0291161790555b600b546001600160801b03828116600160801b909204161480159061212a57506001600160801b03811615155b15611fa957600b80546001600160801b03808416600160801b029116179055505050565b600060065460000361215e575090565b60095460065461216e9190612642565b8260065461217c9190612740565b6121869190612757565b90505b919050565b82820283158482048414176121a257600080fd5b0492915050565b6005546000036121d05780600960008282546121c59190612642565b9091555061223a9050565b6006546000036121ec5780600860008282546121c59190612642565b6121f7600282612757565b600860008282546122089190612642565b909155506122199050600282612757565b612223908261265b565b600960008282546122349190612642565b90915550505b50565b80356001600160a01b038116811461218957600080fd5b634e487b7160e01b600052604160045260246000fd5b604051601f8201601f1916810167ffffffffffffffff8111828210171561229357612293612254565b604052919050565b600080600080608085870312156122b157600080fd5b6122ba8561223d565b935060206122c981870161223d565b935060408601359250606086013567ffffffffffffffff808211156122ed57600080fd5b818801915088601f83011261230157600080fd5b81358181111561231357612313612254565b612325601f8201601f1916850161226a565b9150808252898482850101111561233b57600080fd5b808484018584013760008482840101525080935050505092959194509250565b600082601f83011261236c57600080fd5b8135602067ffffffffffffffff82111561238857612388612254565b8160051b61239782820161226a565b92835284810182019282810190878511156123b157600080fd5b83870192505b848310156123d0578235825291830191908301906123b7565b979650505050505050565b6000806000606084860312156123f057600080fd5b833567ffffffffffffffff81111561240757600080fd5b6124138682870161235b565b935050602084013591506124296040850161223d565b90509250925092565b6000806040838503121561244557600080fd5b823567ffffffffffffffff81111561245c57600080fd5b6124688582860161235b565b9250506124776020840161223d565b90509250929050565b6001600160801b038116811461223a57600080fd5b6000806000606084860312156124aa57600080fd5b8335925060208401356124bc81612480565b929592945050506040919091013590565b6000806000606084860312156124e257600080fd5b83359250602084013567ffffffffffffffff81111561250057600080fd5b61250c8682870161235b565b9250506124296040850161223d565b60006020828403121561252d57600080fd5b6125368261223d565b9392505050565b60208082526005908201526404e6f7420360dc1b604082015260600190565b6001600160801b0394851681529290931660208301526040820152606081019190915260800190565b80516003811061218957600080fd5b600080600080600060a086880312156125ac57600080fd5b6125b586612585565b945060208601516125c581612480565b60408701519094506125d681612480565b6060870151608090970151959894975095949392505050565b634e487b7160e01b600052602160045260246000fd5b6020808252600d908201526c2137b73234b7339032b93937b960991b604082015260600190565b634e487b7160e01b600052601160045260246000fd5b808201808211156126555761265561262c565b92915050565b818103818111156126555761265561262c565b600081518084526020808501945080840160005b8381101561269e57815187529582019590820190600101612682565b509495945050505050565b6040815260006126bc604083018561266e565b90508260208301529392505050565b6060815260006126de606083018661266e565b60208301949094525060400152919050565b828152604060208201526000612709604083018461266e565b949350505050565b608081526000612724608083018761266e565b6020830195909552506040810192909252606090910152919050565b80820281158282048414176126555761265561262c565b60008261277457634e487b7160e01b600052601260045260246000fd5b500490565b6000806040838503121561278c57600080fd5b61279583612585565b9150602083015190509250929050565b634e487b7160e01b600052603260045260246000fdfea264697066735822122014e7485d3a46b31effbb49e87f39efda784764e619ea70471b3e7fe57db19c1a64736f6c63430008110033",
    "sourcePath": "/Users/kazuma.i/code/AceSwap/contracts/Pool721.sol",
    "compiler": {
        "name": "solc",
        "version": "0.8.17+commit.8df45f5f"
    },
    "functionHashes": {
        "buyEventNum()": "fc5ad2df",
        "collection()": "7de1e536",
        "getCalcBuyInfo(uint256,uint128,uint256)": "53153836",
        "getCalcSellInfo(uint256,uint128,uint256)": "341d15fd",
        "getPoolInfo()": "60246c88",
        "getUserInfo(address)": "6386c1c7",
        "getUserStakeFTfee(address)": "6b469d39",
        "getUserStakeNFTfee(address)": "cb6f0d34",
        "onERC721Received(address,address,uint256,bytes)": "150b7a02",
        "poolInfo()": "5a2f3d09",
        "protocolFeeRatio()": "7a27d9f6",
        "router()": "f887ea40",
        "sellEventNum()": "895af871",
        "setRouter(address)": "c0d78655",
        "stakeFTprice()": "7b6880ca",
        "stakeNFT(uint256[],address)": "2f7e0b2e",
        "stakeNFTprice()": "2767fa4b",
        "swapFTforNFT(uint256[],address)": "4c4cbac4",
        "swapNFTforFT(uint256[],uint256,address)": "244117b4",
        "totalFTfee()": "e7ede502",
        "totalFTpoint()": "54044ccb",
        "totalNFTfee()": "eaa62678",
        "totalNFTpoint()": "86524b2d",
        "withdrawFT(uint256,uint256[],address)": "50902c17",
        "withdrawNFT(uint256[],address)": "2c7e4915"
    },
    "gasEstimates": {
        "creation": {
            "codeDepositCost": "2045000",
            "executionCost": "infinite",
            "totalCost": "infinite"
        },
        "external": {
            "buyEventNum()": "2405",
            "collection()": "2448",
            "getCalcBuyInfo(uint256,uint128,uint256)": "infinite",
            "getCalcSellInfo(uint256,uint128,uint256)": "infinite",
            "getPoolInfo()": "11396",
            "getUserInfo(address)": "11399",
            "getUserStakeFTfee(address)": "infinite",
            "getUserStakeNFTfee(address)": "infinite",
            "onERC721Received(address,address,uint256,bytes)": "infinite",
            "poolInfo()": "11048",
            "protocolFeeRatio()": "2362",
            "router()": "2425",
            "sellEventNum()": "2340",
            "setRouter(address)": "26778",
            "stakeFTprice()": "2426",
            "stakeNFT(uint256[],address)": "infinite",
            "stakeNFTprice()": "2422",
            "swapFTforNFT(uint256[],address)": "infinite",
            "swapNFTforFT(uint256[],uint256,address)": "infinite",
            "totalFTfee()": "2339",
            "totalFTpoint()": "2384",
            "totalNFTfee()": "2361",
            "totalNFTpoint()": "2428",
            "withdrawFT(uint256,uint256[],address)": "infinite",
            "withdrawNFT(uint256[],address)": "infinite"
        },
        "internal": {
            "_calcDisFee(uint256)": "infinite",
            "_calcFTfee(address)": "infinite",
            "_calcNFTfee(address)": "infinite",
            "_calcNFTpoint(uint256)": "infinite",
            "_calcProfit()": "infinite",
            "_sendNFTs(uint256[] memory,uint256,address,address)": "infinite",
            "_updatePoolInfo(uint128,uint128,uint256)": "77166",
            "_updateStakeInfo(uint256,uint128,uint128)": "79393"
        }
    }
}