{
  "_format": "hh-sol-artifact-1",
  "contractName": "Factory721",
  "sourceName": "contracts/Factory721.sol",
  "abi": [
    {
      "inputs": [
        {
          "internalType": "address",
          "name": "_router",
          "type": "address"
        },
        {
          "internalType": "uint256",
          "name": "_routerFeeRatio",
          "type": "uint256"
        }
      ],
      "stateMutability": "nonpayable",
      "type": "constructor"
    },
    {
      "anonymous": false,
      "inputs": [
        {
          "indexed": true,
          "internalType": "address",
          "name": "pool",
          "type": "address"
        },
        {
          "indexed": true,
          "internalType": "address",
          "name": "collection",
          "type": "address"
        }
      ],
      "name": "CreatePool",
      "type": "event"
    },
    {
      "anonymous": false,
      "inputs": [
        {
          "indexed": true,
          "internalType": "address",
          "name": "previousOwner",
          "type": "address"
        },
        {
          "indexed": true,
          "internalType": "address",
          "name": "newOwner",
          "type": "address"
        }
      ],
      "name": "OwnershipTransferred",
      "type": "event"
    },
    {
      "inputs": [
        {
          "internalType": "address",
          "name": "_collection",
          "type": "address"
        },
        {
          "internalType": "address",
          "name": "_bondingCurve",
          "type": "address"
        },
        {
          "internalType": "uint128",
          "name": "_spotPrice",
          "type": "uint128"
        },
        {
          "internalType": "uint128",
          "name": "_delta",
          "type": "uint128"
        },
        {
          "internalType": "uint256",
          "name": "_divergence",
          "type": "uint256"
        }
      ],
      "name": "createPool",
      "outputs": [],
      "stateMutability": "nonpayable",
      "type": "function"
    },
    {
      "inputs": [],
      "name": "owner",
      "outputs": [
        {
          "internalType": "address",
          "name": "",
          "type": "address"
        }
      ],
      "stateMutability": "view",
      "type": "function"
    },
    {
      "inputs": [],
      "name": "renounceOwnership",
      "outputs": [],
      "stateMutability": "nonpayable",
      "type": "function"
    },
    {
      "inputs": [],
      "name": "router",
      "outputs": [
        {
          "internalType": "address",
          "name": "",
          "type": "address"
        }
      ],
      "stateMutability": "view",
      "type": "function"
    },
    {
      "inputs": [],
      "name": "routerFeeRatio",
      "outputs": [
        {
          "internalType": "uint256",
          "name": "",
          "type": "uint256"
        }
      ],
      "stateMutability": "view",
      "type": "function"
    },
    {
      "inputs": [
        {
          "internalType": "address",
          "name": "_newRouter",
          "type": "address"
        }
      ],
      "name": "setRouterAddress",
      "outputs": [],
      "stateMutability": "nonpayable",
      "type": "function"
    },
    {
      "inputs": [
        {
          "internalType": "uint256",
          "name": "_newRouterFeeRatio",
          "type": "uint256"
        }
      ],
      "name": "setRouterFeeRatio",
      "outputs": [],
      "stateMutability": "nonpayable",
      "type": "function"
    },
    {
      "inputs": [
        {
          "internalType": "address",
          "name": "newOwner",
          "type": "address"
        }
      ],
      "name": "transferOwnership",
      "outputs": [],
      "stateMutability": "nonpayable",
      "type": "function"
    }
  ],
  "bytecode": "0x60806040526702c68af0bb1400006002553480156200001d57600080fd5b506040516200611e3803806200611e833981810160405281019062000043919062000224565b6200006362000057620000b360201b60201c565b620000bb60201b60201c565b81600160006101000a81548173ffffffffffffffffffffffffffffffffffffffff021916908373ffffffffffffffffffffffffffffffffffffffff1602179055508060028190555050506200026b565b600033905090565b60008060009054906101000a900473ffffffffffffffffffffffffffffffffffffffff169050816000806101000a81548173ffffffffffffffffffffffffffffffffffffffff021916908373ffffffffffffffffffffffffffffffffffffffff1602179055508173ffffffffffffffffffffffffffffffffffffffff168173ffffffffffffffffffffffffffffffffffffffff167f8be0079c531659141344cd1fd0a4f28419497f9722a3daafe3b4186f6b6457e060405160405180910390a35050565b600080fd5b600073ffffffffffffffffffffffffffffffffffffffff82169050919050565b6000620001b18262000184565b9050919050565b620001c381620001a4565b8114620001cf57600080fd5b50565b600081519050620001e381620001b8565b92915050565b6000819050919050565b620001fe81620001e9565b81146200020a57600080fd5b50565b6000815190506200021e81620001f3565b92915050565b600080604083850312156200023e576200023d6200017f565b5b60006200024e85828601620001d2565b925050602062000261858286016200020d565b9150509250929050565b615ea3806200027b6000396000f3fe60806040523480156200001157600080fd5b5060043610620000945760003560e01c8063c74768e81162000063578063c74768e81462000107578063f2fde38b1462000127578063f864fa1e1462000147578063f887ea4014620001695762000094565b806341cb87fc14620000995780635f8b2f0e14620000b9578063715018a614620000d95780638da5cb5b14620000e5575b600080fd5b620000b76004803603810190620000b1919062000854565b6200018b565b005b620000d76004803603810190620000d19190620008c1565b620001d9565b005b620000e3620001ed565b005b620000ef62000205565b604051620000fe919062000904565b60405180910390f35b6200012560048036038101906200011f91906200096e565b6200022e565b005b6200014560048036038101906200013f919062000854565b620005d5565b005b620001516200065f565b60405162000160919062000a07565b60405180910390f35b6200017362000665565b60405162000182919062000904565b60405180910390f35b620001956200068b565b80600160006101000a81548173ffffffffffffffffffffffffffffffffffffffff021916908373ffffffffffffffffffffffffffffffffffffffff16021790555050565b620001e36200068b565b8060028190555050565b620001f76200068b565b62000203600062000710565b565b60008060009054906101000a900473ffffffffffffffffffffffffffffffffffffffff16905090565b8473ffffffffffffffffffffffffffffffffffffffff166301ffc9a77f80ac58cd000000000000000000000000000000000000000000000000000000006040518263ffffffff1660e01b815260040162000289919062000a61565b602060405180830381865afa158015620002a7573d6000803e3d6000fd5b505050506040513d601f19601f82011682018060405250810190620002cd919062000abb565b6200030f576040517f08c379a0000000000000000000000000000000000000000000000000000000008152600401620003069062000b4e565b60405180910390fd5b60011515600160009054906101000a900473ffffffffffffffffffffffffffffffffffffffff1673ffffffffffffffffffffffffffffffffffffffff1663fc5a0df5876040518263ffffffff1660e01b815260040162000370919062000904565b602060405180830381865afa1580156200038e573d6000803e3d6000fd5b505050506040513d601f19601f82011682018060405250810190620003b4919062000abb565b151514620003c157600080fd5b60011515600160009054906101000a900473ffffffffffffffffffffffffffffffffffffffff1673ffffffffffffffffffffffffffffffffffffffff1663b65bfbf0866040518263ffffffff1660e01b815260040162000422919062000904565b602060405180830381865afa15801562000440573d6000803e3d6000fd5b505050506040513d601f19601f8201168201806040525081019062000466919062000abb565b1515146200047357600080fd5b60008585858585600254600160009054906101000a900473ffffffffffffffffffffffffffffffffffffffff16604051620004ae90620007dc565b620004c0979695949392919062000b81565b604051809103906000f080158015620004dd573d6000803e3d6000fd5b509050600160009054906101000a900473ffffffffffffffffffffffffffffffffffffffff1673ffffffffffffffffffffffffffffffffffffffff16635f1c325d87836040518363ffffffff1660e01b81526004016200053f92919062000bfe565b600060405180830381600087803b1580156200055a57600080fd5b505af11580156200056f573d6000803e3d6000fd5b505050508573ffffffffffffffffffffffffffffffffffffffff168173ffffffffffffffffffffffffffffffffffffffff167fdbd2a1ea6808362e6adbec4db4969cbc11e3b0b28fb6c74cb342defaaf1daada60405160405180910390a3505050505050565b620005df6200068b565b600073ffffffffffffffffffffffffffffffffffffffff168173ffffffffffffffffffffffffffffffffffffffff160362000651576040517f08c379a0000000000000000000000000000000000000000000000000000000008152600401620006489062000ca1565b60405180910390fd5b6200065c8162000710565b50565b60025481565b600160009054906101000a900473ffffffffffffffffffffffffffffffffffffffff1681565b62000695620007d4565b73ffffffffffffffffffffffffffffffffffffffff16620006b562000205565b73ffffffffffffffffffffffffffffffffffffffff16146200070e576040517f08c379a0000000000000000000000000000000000000000000000000000000008152600401620007059062000d13565b60405180910390fd5b565b60008060009054906101000a900473ffffffffffffffffffffffffffffffffffffffff169050816000806101000a81548173ffffffffffffffffffffffffffffffffffffffff021916908373ffffffffffffffffffffffffffffffffffffffff1602179055508173ffffffffffffffffffffffffffffffffffffffff168173ffffffffffffffffffffffffffffffffffffffff167f8be0079c531659141344cd1fd0a4f28419497f9722a3daafe3b4186f6b6457e060405160405180910390a35050565b600033905090565b6151388062000d3683390190565b600080fd5b600073ffffffffffffffffffffffffffffffffffffffff82169050919050565b60006200081c82620007ef565b9050919050565b6200082e816200080f565b81146200083a57600080fd5b50565b6000813590506200084e8162000823565b92915050565b6000602082840312156200086d576200086c620007ea565b5b60006200087d848285016200083d565b91505092915050565b6000819050919050565b6200089b8162000886565b8114620008a757600080fd5b50565b600081359050620008bb8162000890565b92915050565b600060208284031215620008da57620008d9620007ea565b5b6000620008ea84828501620008aa565b91505092915050565b620008fe816200080f565b82525050565b60006020820190506200091b6000830184620008f3565b92915050565b60006fffffffffffffffffffffffffffffffff82169050919050565b620009488162000921565b81146200095457600080fd5b50565b60008135905062000968816200093d565b92915050565b600080600080600060a086880312156200098d576200098c620007ea565b5b60006200099d888289016200083d565b9550506020620009b0888289016200083d565b9450506040620009c38882890162000957565b9350506060620009d68882890162000957565b9250506080620009e988828901620008aa565b9150509295509295909350565b62000a018162000886565b82525050565b600060208201905062000a1e6000830184620009f6565b92915050565b60007fffffffff0000000000000000000000000000000000000000000000000000000082169050919050565b62000a5b8162000a24565b82525050565b600060208201905062000a78600083018462000a50565b92915050565b60008115159050919050565b62000a958162000a7e565b811462000aa157600080fd5b50565b60008151905062000ab58162000a8a565b92915050565b60006020828403121562000ad45762000ad3620007ea565b5b600062000ae48482850162000aa4565b91505092915050565b600082825260208201905092915050565b7f4f6e6c7945524337323100000000000000000000000000000000000000000000600082015250565b600062000b36600a8362000aed565b915062000b438262000afe565b602082019050919050565b6000602082019050818103600083015262000b698162000b27565b9050919050565b62000b7b8162000921565b82525050565b600060e08201905062000b98600083018a620008f3565b62000ba76020830189620008f3565b62000bb6604083018862000b70565b62000bc5606083018762000b70565b62000bd46080830186620009f6565b62000be360a0830185620009f6565b62000bf260c0830184620008f3565b98975050505050505050565b600060408201905062000c156000830185620008f3565b62000c246020830184620008f3565b9392505050565b7f4f776e61626c653a206e6577206f776e657220697320746865207a65726f206160008201527f6464726573730000000000000000000000000000000000000000000000000000602082015250565b600062000c8960268362000aed565b915062000c968262000c2b565b604082019050919050565b6000602082019050818103600083015262000cbc8162000c7a565b9050919050565b7f4f776e61626c653a2063616c6c6572206973206e6f7420746865206f776e6572600082015250565b600062000cfb60208362000aed565b915062000d088262000cc3565b602082019050919050565b6000602082019050818103600083015262000d2e8162000cec565b905091905056fe60806040523480156200001157600080fd5b5060405162005138380380620051388339818101604052810190620000379190620002f7565b86600160006101000a81548173ffffffffffffffffffffffffffffffffffffffff021916908373ffffffffffffffffffffffffffffffffffffffff16021790555085600a60000160006101000a81548173ffffffffffffffffffffffffffffffffffffffff021916908373ffffffffffffffffffffffffffffffffffffffff16021790555084600a60010160006101000a8154816fffffffffffffffffffffffffffffffff02191690836fffffffffffffffffffffffffffffffff16021790555084600760106101000a8154816fffffffffffffffffffffffffffffffff02191690836fffffffffffffffffffffffffffffffff16021790555084600760006101000a8154816fffffffffffffffffffffffffffffffff02191690836fffffffffffffffffffffffffffffffff16021790555083600a60010160106101000a8154816fffffffffffffffffffffffffffffffff02191690836fffffffffffffffffffffffffffffffff16021790555082600a600201819055508160008190555080600260006101000a81548173ffffffffffffffffffffffffffffffffffffffff021916908373ffffffffffffffffffffffffffffffffffffffff16021790555050505050505050620003aa565b600080fd5b600073ffffffffffffffffffffffffffffffffffffffff82169050919050565b600062000237826200020a565b9050919050565b62000249816200022a565b81146200025557600080fd5b50565b60008151905062000269816200023e565b92915050565b60006fffffffffffffffffffffffffffffffff82169050919050565b62000296816200026f565b8114620002a257600080fd5b50565b600081519050620002b6816200028b565b92915050565b6000819050919050565b620002d181620002bc565b8114620002dd57600080fd5b50565b600081519050620002f181620002c6565b92915050565b600080600080600080600060e0888a03121562000319576200031862000205565b5b6000620003298a828b0162000258565b97505060206200033c8a828b0162000258565b96505060406200034f8a828b01620002a5565b9550506060620003628a828b01620002a5565b9450506080620003758a828b01620002e0565b93505060a0620003888a828b01620002e0565b92505060c06200039b8a828b0162000258565b91505092959891949750929550565b614d7e80620003ba6000396000f3fe6080604052600436106101815760003560e01c80636b469d39116100d1578063a09bf8c21161008a578063e7ede50211610064578063e7ede50214610582578063eaa62678146105ad578063f887ea40146105d8578063fc5ad2df1461060357610181565b8063a09bf8c214610500578063c0d786551461051c578063cb6f0d341461054557610181565b80636b469d39146103ec5780637a27d9f6146104295780637b6880ca146104545780637de1e5361461047f57806386524b2d146104aa578063895af871146104d557610181565b80634c4cbac41161013e57806354044ccb1161011857806354044ccb146103295780635a2f3d091461035457806360246c88146103845780636386c1c7146103af57610181565b80634c4cbac4146102a057806350902c17146102d057806353153836146102ec57610181565b8063150b7a0214610186578063244117b4146101c35780632767fa4b146101f35780632c7e49151461021e5780632f7e0b2e1461023a578063341d15fd14610263575b600080fd5b34801561019257600080fd5b506101ad60048036038101906101a89190613d4a565b61062e565b6040516101ba9190613e08565b60405180910390f35b6101dd60048036038101906101d89190613eeb565b610642565b6040516101ea9190613f69565b60405180910390f35b3480156101ff57600080fd5b50610208610acf565b6040516102159190613faf565b60405180910390f35b61023860048036038101906102339190613fca565b610af1565b005b34801561024657600080fd5b50610261600480360381019061025c9190613fca565b6112e3565b005b34801561026f57600080fd5b5061028a60048036038101906102859190614052565b611681565b6040516102979190613f69565b60405180910390f35b6102ba60048036038101906102b59190613fca565b61175b565b6040516102c79190613f69565b60405180910390f35b6102ea60048036038101906102e591906140a5565b611bb0565b005b3480156102f857600080fd5b50610313600480360381019061030e9190614052565b6124ca565b6040516103209190613f69565b60405180910390f35b34801561033557600080fd5b5061033e6125a4565b60405161034b9190613f69565b60405180910390f35b34801561036057600080fd5b506103696125aa565b60405161037b96959493929190614123565b60405180910390f35b34801561039057600080fd5b5061039961262c565b6040516103a6919061422c565b60405180910390f35b3480156103bb57600080fd5b506103d660048036038101906103d19190614247565b61274e565b6040516103e391906142dc565b60405180910390f35b3480156103f857600080fd5b50610413600480360381019061040e9190614247565b6127d9565b6040516104209190613f69565b60405180910390f35b34801561043557600080fd5b5061043e6128f2565b60405161044b9190613f69565b60405180910390f35b34801561046057600080fd5b506104696128f8565b6040516104769190613faf565b60405180910390f35b34801561048b57600080fd5b5061049461291a565b6040516104a191906142f7565b60405180910390f35b3480156104b657600080fd5b506104bf612940565b6040516104cc9190613f69565b60405180910390f35b3480156104e157600080fd5b506104ea612946565b6040516104f79190613f69565b60405180910390f35b61051a60048036038101906105159190614312565b61294c565b005b34801561052857600080fd5b50610543600480360381019061053e9190614247565b612d73565b005b34801561055157600080fd5b5061056c60048036038101906105679190614247565b612e47565b6040516105799190613f69565b60405180910390f35b34801561058e57600080fd5b50610597612f60565b6040516105a49190613f69565b60405180910390f35b3480156105b957600080fd5b506105c2612f66565b6040516105cf9190613f69565b60405180910390f35b3480156105e457600080fd5b506105ed612f6c565b6040516105fa91906142f7565b60405180910390f35b34801561060f57600080fd5b50610618612f92565b6040516106259190613f69565b60405180910390f35b600063150b7a0260e01b9050949350505050565b60003373ffffffffffffffffffffffffffffffffffffffff168273ffffffffffffffffffffffffffffffffffffffff1614806106cb5750600260009054906101000a900473ffffffffffffffffffffffffffffffffffffffff1673ffffffffffffffffffffffffffffffffffffffff163373ffffffffffffffffffffffffffffffffffffffff16145b6106d457600080fd5b6000845190506000811161071d576040517f08c379a0000000000000000000000000000000000000000000000000000000008152600401610714906143af565b60405180910390fd5b6000806000806000600a60000160009054906101000a900473ffffffffffffffffffffffffffffffffffffffff1673ffffffffffffffffffffffffffffffffffffffff1663c728b364600a60010160009054906101000a90046fffffffffffffffffffffffffffffffff16600a60010160109054906101000a90046fffffffffffffffffffffffffffffffff16600a600201548a6040518563ffffffff1660e01b81526004016107d094939291906143cf565b60a060405180830381865afa1580156107ed573d6000803e3d6000fd5b505050506040513d601f19601f820116820180604052508101906108119190614463565b945094509450945094506000600281111561082f5761082e6144de565b5b856002811115610842576108416144de565b5b14610882576040517f08c379a000000000000000000000000000000000000000000000000000000000815260040161087990614559565b60405180910390fd5b600a600401548611156108ca576040517f08c379a00000000000000000000000000000000000000000000000000000000081526004016108c1906145c5565b60405180910390fd5b8881101561090d576040517f08c379a000000000000000000000000000000000000000000000000000000000815260040161090490614631565b60405180910390fd5b80471015610950576040517f08c379a00000000000000000000000000000000000000000000000000000000081526004016109479061469d565b60405180910390fd5b856004600082825461096291906146ec565b9250508190555085600a600401600082825461097e9190614720565b9250508190555085600a600301600082825461099a91906146ec565b925050819055506109a9612f98565b96506109b684848461333e565b6109c28a878a3061349c565b8773ffffffffffffffffffffffffffffffffffffffff166108fc829081150290604051600060405180830381858888f19350505050158015610a08573d6000803e3d6000fd5b50600260009054906101000a900473ffffffffffffffffffffffffffffffffffffffff1673ffffffffffffffffffffffffffffffffffffffff166108fc889081150290604051600060405180830381858888f19350505050158015610a71573d6000803e3d6000fd5b508773ffffffffffffffffffffffffffffffffffffffff167f52a8813c8bdca51f38292d707f835c85ffb8d74c66cc39a75609345ff2c3f0be8b83604051610aba929190614803565b60405180910390a25050505050509392505050565b600760109054906101000a90046fffffffffffffffffffffffffffffffff1681565b6000825190506000600f60008473ffffffffffffffffffffffffffffffffffffffff1673ffffffffffffffffffffffffffffffffffffffff1681526020019081526020016000206000015490506000610b4984613566565b905082600a600301541015610b93576040517f08c379a0000000000000000000000000000000000000000000000000000000008152600401610b8a9061487f565b60405180910390fd5b82600f60008673ffffffffffffffffffffffffffffffffffffffff1673ffffffffffffffffffffffffffffffffffffffff168152602001908152602001600020600001541480610be7575082600a60030154145b610c26576040517f08c379a0000000000000000000000000000000000000000000000000000000008152600401610c1d906148eb565b60405180910390fd5b82600a6003016000828254610c3b9190614720565b925050819055506000600f60008673ffffffffffffffffffffffffffffffffffffffff1673ffffffffffffffffffffffffffffffffffffffff16815260200190815260200160002060000181905550600f60008573ffffffffffffffffffffffffffffffffffffffff1673ffffffffffffffffffffffffffffffffffffffff1681526020019081526020016000206003015460066000828254610cde9190614720565b925050819055508060096000828254610cf79190614720565b925050819055506000600f60008673ffffffffffffffffffffffffffffffffffffffff1673ffffffffffffffffffffffffffffffffffffffff168152602001908152602001600020600301819055506000831115610ebf576000806000600a60000160009054906101000a900473ffffffffffffffffffffffffffffffffffffffff1673ffffffffffffffffffffffffffffffffffffffff1663c728b364600760109054906101000a90046fffffffffffffffffffffffffffffffff16600a60010160109054906101000a90046fffffffffffffffffffffffffffffffff16670de0b6b3a7640000896040518563ffffffff1660e01b8152600401610dff94939291906143cf565b60a060405180830381865afa158015610e1c573d6000803e3d6000fd5b505050506040513d601f19601f82011682018060405250810190610e409190614463565b505092509250925060006002811115610e5c57610e5b6144de565b5b836002811115610e6f57610e6e6144de565b5b14610eaf576040517f08c379a0000000000000000000000000000000000000000000000000000000008152600401610ea690614559565b60405180910390fd5b610ebb6002838361367f565b5050505b8282111561122d5760008383610ed59190614720565b9050600080600a60000160009054906101000a900473ffffffffffffffffffffffffffffffffffffffff1673ffffffffffffffffffffffffffffffffffffffff1663c728b364600760109054906101000a90046fffffffffffffffffffffffffffffffff16600a60010160109054906101000a90046fffffffffffffffffffffffffffffffff16670de0b6b3a7640000876040518563ffffffff1660e01b8152600401610f8594939291906143cf565b60a060405180830381865afa158015610fa2573d6000803e3d6000fd5b505050506040513d601f19601f82011682018060405250810190610fc69190614463565b9450505050915060006002811115610fe157610fe06144de565b5b826002811115610ff457610ff36144de565b5b14611034576040517f08c379a000000000000000000000000000000000000000000000000000000000815260040161102b90614559565b60405180910390fd5b6000806000600a60000160009054906101000a900473ffffffffffffffffffffffffffffffffffffffff1673ffffffffffffffffffffffffffffffffffffffff16635d998912600760009054906101000a90046fffffffffffffffffffffffffffffffff16600a60010160109054906101000a90046fffffffffffffffffffffffffffffffff16670de0b6b3a76400008a6040518563ffffffff1660e01b81526004016110e494939291906143cf565b60a060405180830381865afa158015611101573d6000803e3d6000fd5b505050506040513d601f19601f820116820180604052508101906111259190614463565b505092509250925060006002811115611141576111406144de565b5b836002811115611154576111536144de565b5b14611194576040517f08c379a000000000000000000000000000000000000000000000000000000000815260040161118b90614559565b60405180910390fd5b6111a06001838361367f565b85600a60040160008282546111b59190614720565b9250508190555085600360008282546111ce9190614720565b925050819055506000841115611226578973ffffffffffffffffffffffffffffffffffffffff166108fc859081150290604051600060405180830381858888f19350505050158015611224573d6000803e3d6000fd5b505b5050505050505b6112398584308761349c565b600081111561128a578373ffffffffffffffffffffffffffffffffffffffff166108fc829081150290604051600060405180830381858888f19350505050158015611288573d6000803e3d6000fd5b505b8373ffffffffffffffffffffffffffffffffffffffff167fae12f538fd8232ce822341f49f6323a75f6a7c19115d403ef481b0a39cf467758684846040516112d49392919061490b565b60405180910390a25050505050565b3373ffffffffffffffffffffffffffffffffffffffff168173ffffffffffffffffffffffffffffffffffffffff16148061136a5750600260009054906101000a900473ffffffffffffffffffffffffffffffffffffffff1673ffffffffffffffffffffffffffffffffffffffff163373ffffffffffffffffffffffffffffffffffffffff16145b61137357600080fd5b600082519050600081116113bc576040517f08c379a00000000000000000000000000000000000000000000000000000000081526004016113b3906143af565b60405180910390fd5b600080600080600a60000160009054906101000a900473ffffffffffffffffffffffffffffffffffffffff1673ffffffffffffffffffffffffffffffffffffffff16635d998912600760109054906101000a90046fffffffffffffffffffffffffffffffff16600a60010160109054906101000a90046fffffffffffffffffffffffffffffffff16600a60020154896040518563ffffffff1660e01b815260040161146a94939291906143cf565b60a060405180830381865afa158015611487573d6000803e3d6000fd5b505050506040513d601f19601f820116820180604052508101906114ab9190614463565b945050935093509350600060028111156114c8576114c76144de565b5b8460028111156114db576114da6144de565b5b1461151b576040517f08c379a000000000000000000000000000000000000000000000000000000000815260040161151290614559565b60405180910390fd5b600061152682613850565b905080600f60008973ffffffffffffffffffffffffffffffffffffffff1673ffffffffffffffffffffffffffffffffffffffff168152602001908152602001600020600301600082825461157a91906146ec565b92505081905550806006600082825461159391906146ec565b9250508190555085600f60008973ffffffffffffffffffffffffffffffffffffffff1673ffffffffffffffffffffffffffffffffffffffff16815260200190815260200160002060000160008282546115ec91906146ec565b9250508190555085600a600301600082825461160891906146ec565b9250508190555061161b6002858561367f565b6116278887893061349c565b8673ffffffffffffffffffffffffffffffffffffffff167fb0c56c1c40b91909a8c61fe7d6feb60c8dc44e92ce0cff5beb3c5d449a7eb309878a60405161166f929190614949565b60405180910390a25050505050505050565b600080600a60000160009054906101000a900473ffffffffffffffffffffffffffffffffffffffff1673ffffffffffffffffffffffffffffffffffffffff1663c728b36485600a60010160109054906101000a90046fffffffffffffffffffffffffffffffff1686896040518563ffffffff1660e01b815260040161170994939291906143cf565b60a060405180830381865afa158015611726573d6000803e3d6000fd5b505050506040513d601f19601f8201168201806040525081019061174a9190614463565b945050505050809150509392505050565b60003373ffffffffffffffffffffffffffffffffffffffff168273ffffffffffffffffffffffffffffffffffffffff1614806117e45750600260009054906101000a900473ffffffffffffffffffffffffffffffffffffffff1673ffffffffffffffffffffffffffffffffffffffff163373ffffffffffffffffffffffffffffffffffffffff16145b6117ed57600080fd5b60008351905060008111611836576040517f08c379a000000000000000000000000000000000000000000000000000000000815260040161182d906143af565b60405180910390fd5b6000806000806000600a60000160009054906101000a900473ffffffffffffffffffffffffffffffffffffffff1673ffffffffffffffffffffffffffffffffffffffff16635d998912600a60010160009054906101000a90046fffffffffffffffffffffffffffffffff16600a60010160109054906101000a90046fffffffffffffffffffffffffffffffff16600a600201548a6040518563ffffffff1660e01b81526004016118e994939291906143cf565b60a060405180830381865afa158015611906573d6000803e3d6000fd5b505050506040513d601f19601f8201168201806040525081019061192a9190614463565b9450945094509450945060006002811115611948576119476144de565b5b85600281111561195b5761195a6144de565b5b1461199b576040517f08c379a000000000000000000000000000000000000000000000000000000000815260040161199290614559565b60405180910390fd5b600a600301548611156119e3576040517f08c379a00000000000000000000000000000000000000000000000000000000081526004016119da906145c5565b60405180910390fd5b80341015611a26576040517f08c379a0000000000000000000000000000000000000000000000000000000008152600401611a1d906149c5565b60405180910390fd5b8560036000828254611a3891906146ec565b9250508190555085600a6003016000828254611a549190614720565b9250508190555085600a6004016000828254611a7091906146ec565b92505081905550611a7f612f98565b9650611a8c84848461333e565b8773ffffffffffffffffffffffffffffffffffffffff166108fc8234611ab29190614720565b9081150290604051600060405180830381858888f19350505050158015611add573d6000803e3d6000fd5b50600260009054906101000a900473ffffffffffffffffffffffffffffffffffffffff1673ffffffffffffffffffffffffffffffffffffffff166108fc889081150290604051600060405180830381858888f19350505050158015611b46573d6000803e3d6000fd5b50611b54898a51308b61349c565b8773ffffffffffffffffffffffffffffffffffffffff167f6469db8d2898ffda696aafd09bc1708333f063d0086bae9245bfbfddd7307ff68a83604051611b9c929190614803565b60405180910390a250505050505092915050565b6000825190506000600f60008473ffffffffffffffffffffffffffffffffffffffff1673ffffffffffffffffffffffffffffffffffffffff1681526020019081526020016000206001015490506000600f60008573ffffffffffffffffffffffffffffffffffffffff1673ffffffffffffffffffffffffffffffffffffffff1681526020019081526020016000206002015490506000611c4f85613893565b9050600087600a600401541015611c9b576040517f08c379a0000000000000000000000000000000000000000000000000000000008152600401611c929061487f565b60405180910390fd5b87600f60008873ffffffffffffffffffffffffffffffffffffffff1673ffffffffffffffffffffffffffffffffffffffff168152602001908152602001600020600101541480611cef575087600a60040154145b611d2e576040517f08c379a0000000000000000000000000000000000000000000000000000000008152600401611d25906148eb565b60405180910390fd5b8488600f60008973ffffffffffffffffffffffffffffffffffffffff1673ffffffffffffffffffffffffffffffffffffffff16815260200190815260200160002060010154611d7d9190614720565b14611dbd576040517f08c379a0000000000000000000000000000000000000000000000000000000008152600401611db490614a31565b60405180910390fd5b87600a6004016000828254611dd29190614720565b925050819055506000600f60008873ffffffffffffffffffffffffffffffffffffffff1673ffffffffffffffffffffffffffffffffffffffff168152602001908152602001600020600101819055506000600f60008873ffffffffffffffffffffffffffffffffffffffff1673ffffffffffffffffffffffffffffffffffffffff16815260200190815260200160002060020181905550600f60008773ffffffffffffffffffffffffffffffffffffffff1673ffffffffffffffffffffffffffffffffffffffff1681526020019081526020016000206004015460056000828254611ebd9190614720565b925050819055508160086000828254611ed69190614720565b925050819055506000600f60008873ffffffffffffffffffffffffffffffffffffffff1673ffffffffffffffffffffffffffffffffffffffff168152602001908152602001600020600401819055506000881461209d576000806000600a60000160009054906101000a900473ffffffffffffffffffffffffffffffffffffffff1673ffffffffffffffffffffffffffffffffffffffff16635d998912600760009054906101000a90046fffffffffffffffffffffffffffffffff16600a60010160109054906101000a90046fffffffffffffffffffffffffffffffff16670de0b6b3a76400008f6040518563ffffffff1660e01b8152600401611fdd94939291906143cf565b60a060405180830381865afa158015611ffa573d6000803e3d6000fd5b505050506040513d601f19601f8201168201806040525081019061201e9190614463565b50509250925092506000600281111561203a576120396144de565b5b83600281111561204d5761204c6144de565b5b1461208d576040517f08c379a000000000000000000000000000000000000000000000000000000000815260040161208490614559565b60405180910390fd5b6120996001838361367f565b5050505b838810156123c057600080600a60000160009054906101000a900473ffffffffffffffffffffffffffffffffffffffff1673ffffffffffffffffffffffffffffffffffffffff16635d998912600760009054906101000a90046fffffffffffffffffffffffffffffffff16600a60010160109054906101000a90046fffffffffffffffffffffffffffffffff16670de0b6b3a76400008e8b61213f9190614720565b6040518563ffffffff1660e01b815260040161215e94939291906143cf565b60a060405180830381865afa15801561217b573d6000803e3d6000fd5b505050506040513d601f19601f8201168201806040525081019061219f9190614463565b94505050509150600060028111156121ba576121b96144de565b5b8260028111156121cd576121cc6144de565b5b1461220d576040517f08c379a000000000000000000000000000000000000000000000000000000000815260040161220490614559565b60405180910390fd5b600080600a60000160009054906101000a900473ffffffffffffffffffffffffffffffffffffffff1673ffffffffffffffffffffffffffffffffffffffff1663c728b364600760109054906101000a90046fffffffffffffffffffffffffffffffff16600a60010160109054906101000a90046fffffffffffffffffffffffffffffffff16670de0b6b3a76400008d6040518563ffffffff1660e01b81526004016122bb94939291906143cf565b60a060405180830381865afa1580156122d8573d6000803e3d6000fd5b505050506040513d601f19601f820116820180604052508101906122fc9190614463565b5050509150915060006002811115612317576123166144de565b5b82600281111561232a576123296144de565b5b1461236a576040517f08c379a000000000000000000000000000000000000000000000000000000000815260040161236190614559565b60405180910390fd5b88600a600301600082825461237f9190614720565b9250508190555088600460008282546123989190614720565b925050819055506123ac600282600061367f565b6123b88b8a308d61349c565b829450505050505b8281101561241b578573ffffffffffffffffffffffffffffffffffffffff166108fc82856123ee9190614720565b9081150290604051600060405180830381858888f19350505050158015612419573d6000803e3d6000fd5b505b600082111561246c578573ffffffffffffffffffffffffffffffffffffffff166108fc839081150290604051600060405180830381858888f1935050505015801561246a573d6000803e3d6000fd5b505b8573ffffffffffffffffffffffffffffffffffffffff167f182a15e7df1d8f3dd0b212833cac160a9efae034c417f18c5b9350d4b89fff00888686866040516124b89493929190614a51565b60405180910390a25050505050505050565b600080600a60000160009054906101000a900473ffffffffffffffffffffffffffffffffffffffff1673ffffffffffffffffffffffffffffffffffffffff16635d99891285600a60010160109054906101000a90046fffffffffffffffffffffffffffffffff1686896040518563ffffffff1660e01b815260040161255294939291906143cf565b60a060405180830381865afa15801561256f573d6000803e3d6000fd5b505050506040513d601f19601f820116820180604052508101906125939190614463565b945050505050809150509392505050565b60055481565b600a8060000160009054906101000a900473ffffffffffffffffffffffffffffffffffffffff16908060010160009054906101000a90046fffffffffffffffffffffffffffffffff16908060010160109054906101000a90046fffffffffffffffffffffffffffffffff16908060020154908060030154908060040154905086565b612634613abd565b600a6040518060c00160405290816000820160009054906101000a900473ffffffffffffffffffffffffffffffffffffffff1673ffffffffffffffffffffffffffffffffffffffff1673ffffffffffffffffffffffffffffffffffffffff1681526020016001820160009054906101000a90046fffffffffffffffffffffffffffffffff166fffffffffffffffffffffffffffffffff166fffffffffffffffffffffffffffffffff1681526020016001820160109054906101000a90046fffffffffffffffffffffffffffffffff166fffffffffffffffffffffffffffffffff166fffffffffffffffffffffffffffffffff1681526020016002820154815260200160038201548152602001600482015481525050905090565b612756613b2d565b600f60008373ffffffffffffffffffffffffffffffffffffffff1673ffffffffffffffffffffffffffffffffffffffff1681526020019081526020016000206040518060a0016040529081600082015481526020016001820154815260200160028201548152602001600382015481526020016004820154815250509050919050565b600080600554600f60008573ffffffffffffffffffffffffffffffffffffffff1673ffffffffffffffffffffffffffffffffffffffff1681526020019081526020016000206004015460085460055461283291906146ec565b61283c9190614a9d565b6128469190614b26565b9050600f60008473ffffffffffffffffffffffffffffffffffffffff1673ffffffffffffffffffffffffffffffffffffffff168152602001908152602001600020600401548111156128e757600f60008473ffffffffffffffffffffffffffffffffffffffff1673ffffffffffffffffffffffffffffffffffffffff16815260200190815260200160002060040154816128e09190614720565b91506128ec565b600091505b50919050565b60005481565b600760009054906101000a90046fffffffffffffffffffffffffffffffff1681565b600160009054906101000a900473ffffffffffffffffffffffffffffffffffffffff1681565b60065481565b60045481565b3373ffffffffffffffffffffffffffffffffffffffff168173ffffffffffffffffffffffffffffffffffffffff1614806129d35750600260009054906101000a900473ffffffffffffffffffffffffffffffffffffffff1673ffffffffffffffffffffffffffffffffffffffff163373ffffffffffffffffffffffffffffffffffffffff16145b6129dc57600080fd5b60008211612a1f576040517f08c379a0000000000000000000000000000000000000000000000000000000008152600401612a16906143af565b60405180910390fd5b600080600080600a60000160009054906101000a900473ffffffffffffffffffffffffffffffffffffffff1673ffffffffffffffffffffffffffffffffffffffff1663c728b364600760009054906101000a90046fffffffffffffffffffffffffffffffff16600a60010160109054906101000a90046fffffffffffffffffffffffffffffffff16600a600201548a6040518563ffffffff1660e01b8152600401612acd94939291906143cf565b60a060405180830381865afa158015612aea573d6000803e3d6000fd5b505050506040513d601f19601f82011682018060405250810190612b0e9190614463565b94505093509350935060006002811115612b2b57612b2a6144de565b5b846002811115612b3e57612b3d6144de565b5b14612b7e576040517f08c379a0000000000000000000000000000000000000000000000000000000008152600401612b7590614559565b60405180910390fd5b80341015612bc1576040517f08c379a0000000000000000000000000000000000000000000000000000000008152600401612bb890614ba3565b60405180910390fd5b6000612bcc826139ac565b905080600f60008873ffffffffffffffffffffffffffffffffffffffff1673ffffffffffffffffffffffffffffffffffffffff1681526020019081526020016000206004016000828254612c2091906146ec565b925050819055508060056000828254612c3991906146ec565b9250508190555086600f60008873ffffffffffffffffffffffffffffffffffffffff1673ffffffffffffffffffffffffffffffffffffffff1681526020019081526020016000206001016000828254612c9291906146ec565b9250508190555081600f60008873ffffffffffffffffffffffffffffffffffffffff1673ffffffffffffffffffffffffffffffffffffffff1681526020019081526020016000206002016000828254612ceb91906146ec565b9250508190555086600a6004016000828254612d0791906146ec565b92505081905550612d1a6001858561367f565b8573ffffffffffffffffffffffffffffffffffffffff167fb6462641302171c8e87e9239eaef317921962ccfe5a974d0d04b8256c4834da38884604051612d62929190614bc3565b60405180910390a250505050505050565b3373ffffffffffffffffffffffffffffffffffffffff16600260009054906101000a900473ffffffffffffffffffffffffffffffffffffffff1673ffffffffffffffffffffffffffffffffffffffff1614612e03576040517f08c379a0000000000000000000000000000000000000000000000000000000008152600401612dfa90614c38565b60405180910390fd5b80600260006101000a81548173ffffffffffffffffffffffffffffffffffffffff021916908373ffffffffffffffffffffffffffffffffffffffff16021790555050565b600080600654600f60008573ffffffffffffffffffffffffffffffffffffffff1673ffffffffffffffffffffffffffffffffffffffff16815260200190815260200160002060030154600954600654612ea091906146ec565b612eaa9190614a9d565b612eb49190614b26565b9050600f60008473ffffffffffffffffffffffffffffffffffffffff1673ffffffffffffffffffffffffffffffffffffffff16815260200190815260200160002060030154811115612f5557600f60008473ffffffffffffffffffffffffffffffffffffffff1673ffffffffffffffffffffffffffffffffffffffff1681526020019081526020016000206003015481612f4e9190614720565b9150612f5a565b600091505b50919050565b60085481565b60095481565b600260009054906101000a900473ffffffffffffffffffffffffffffffffffffffff1681565b60035481565b600080600354118015612fad57506000600454115b1561333b576004546003541061317757600080600a60000160009054906101000a900473ffffffffffffffffffffffffffffffffffffffff1673ffffffffffffffffffffffffffffffffffffffff16635b645d80600a60010160009054906101000a90046fffffffffffffffffffffffffffffffff16600a60010160109054906101000a90046fffffffffffffffffffffffffffffffff16600a600201546004546040518563ffffffff1660e01b815260040161306d94939291906143cf565b6040805180830381865afa158015613089573d6000803e3d6000fd5b505050506040513d601f19601f820116820180604052508101906130ad9190614c58565b91509150600060028111156130c5576130c46144de565b5b8260028111156130d8576130d76144de565b5b14613118576040517f08c379a000000000000000000000000000000000000000000000000000000000815260040161310f90614559565b60405180910390fd5b613137600054670de0b6b3a7640000836139ef9092919063ffffffff16565b925061314d83826131489190614720565b613a13565b600454600360008282546131619190614720565b925050819055506000600481905550505061333a565b600354600454111561333957600080600a60000160009054906101000a900473ffffffffffffffffffffffffffffffffffffffff1673ffffffffffffffffffffffffffffffffffffffff166388ec429a600a60010160009054906101000a90046fffffffffffffffffffffffffffffffff16600a60010160109054906101000a90046fffffffffffffffffffffffffffffffff16600a600201546003546040518563ffffffff1660e01b815260040161323394939291906143cf565b6040805180830381865afa15801561324f573d6000803e3d6000fd5b505050506040513d601f19601f820116820180604052508101906132739190614c58565b915091506000600281111561328b5761328a6144de565b5b82600281111561329e5761329d6144de565b5b146132de576040517f08c379a00000000000000000000000000000000000000000000000000000000081526004016132d590614559565b60405180910390fd5b6132fd600054670de0b6b3a7640000836139ef9092919063ffffffff16565b9250613313838261330e9190614720565b613a13565b600354600460008282546133279190614720565b92505081905550600060038190555050505b5b5b90565b826fffffffffffffffffffffffffffffffff16600a60010160009054906101000a90046fffffffffffffffffffffffffffffffff166fffffffffffffffffffffffffffffffff16146133c75782600a60010160006101000a8154816fffffffffffffffffffffffffffffffff02191690836fffffffffffffffffffffffffffffffff1602179055505b816fffffffffffffffffffffffffffffffff16600a60010160109054906101000a90046fffffffffffffffffffffffffffffffff166fffffffffffffffffffffffffffffffff161415801561342f57506000826fffffffffffffffffffffffffffffffff1614155b156134715781600a60010160106101000a8154816fffffffffffffffffffffffffffffffff02191690836fffffffffffffffffffffffffffffffff1602179055505b80600a6002015414158015613487575060008114155b156134975780600a600201819055505b505050565b60005b8381101561355f57600160009054906101000a900473ffffffffffffffffffffffffffffffffffffffff1673ffffffffffffffffffffffffffffffffffffffff1663b88d4fde84848885815181106134fa576134f9614c98565b5b60200260200101516040518463ffffffff1660e01b815260040161352093929190614cfe565b600060405180830381600087803b15801561353a57600080fd5b505af115801561354e573d6000803e3d6000fd5b50505050808060010191505061349f565b5050505050565b600080600654600f60008573ffffffffffffffffffffffffffffffffffffffff1673ffffffffffffffffffffffffffffffffffffffff168152602001908152602001600020600301546009546006546135bf91906146ec565b6135c99190614a9d565b6135d39190614b26565b9050600f60008473ffffffffffffffffffffffffffffffffffffffff1673ffffffffffffffffffffffffffffffffffffffff1681526020019081526020016000206003015481111561367457600f60008473ffffffffffffffffffffffffffffffffffffffff1673ffffffffffffffffffffffffffffffffffffffff168152602001908152602001600020600301548161366d9190614720565b9150613679565b600091505b50919050565b816fffffffffffffffffffffffffffffffff16600760009054906101000a90046fffffffffffffffffffffffffffffffff166fffffffffffffffffffffffffffffffff16141580156136d15750600183145b156137105781600760006101000a8154816fffffffffffffffffffffffffffffffff02191690836fffffffffffffffffffffffffffffffff1602179055505b816fffffffffffffffffffffffffffffffff16600760109054906101000a90046fffffffffffffffffffffffffffffffff166fffffffffffffffffffffffffffffffff16141580156137625750600283145b156137a15781600760106101000a8154816fffffffffffffffffffffffffffffffff02191690836fffffffffffffffffffffffffffffffff1602179055505b806fffffffffffffffffffffffffffffffff16600a60010160109054906101000a90046fffffffffffffffffffffffffffffffff166fffffffffffffffffffffffffffffffff161415801561380957506000816fffffffffffffffffffffffffffffffff1614155b1561384b5780600a60010160106101000a8154816fffffffffffffffffffffffffffffffff02191690836fffffffffffffffffffffffffffffffff1602179055505b505050565b600080600654036138635781905061388e565b60095460065461387391906146ec565b826006546138819190614a9d565b61388b9190614b26565b90505b919050565b600080600554600f60008573ffffffffffffffffffffffffffffffffffffffff1673ffffffffffffffffffffffffffffffffffffffff168152602001908152602001600020600401546008546005546138ec91906146ec565b6138f69190614a9d565b6139009190614b26565b9050600f60008473ffffffffffffffffffffffffffffffffffffffff1673ffffffffffffffffffffffffffffffffffffffff168152602001908152602001600020600401548111156139a157600f60008473ffffffffffffffffffffffffffffffffffffffff1673ffffffffffffffffffffffffffffffffffffffff168152602001908152602001600020600401548161399a9190614720565b91506139a6565b600091505b50919050565b600080600554036139bf578190506139ea565b6008546005546139cf91906146ec565b826005546139dd9190614a9d565b6139e79190614b26565b90505b919050565b600082840290508284820414841517613a0757600080fd5b81810490509392505050565b600060055403613a3b578060096000828254613a2f91906146ec565b92505081905550613aba565b600060065403613a63578060086000828254613a5791906146ec565b92505081905550613ab9565b600281613a709190614b26565b60086000828254613a8191906146ec565b92505081905550600281613a959190614b26565b81613aa09190614720565b60096000828254613ab191906146ec565b925050819055505b5b50565b6040518060c00160405280600073ffffffffffffffffffffffffffffffffffffffff16815260200160006fffffffffffffffffffffffffffffffff16815260200160006fffffffffffffffffffffffffffffffff1681526020016000815260200160008152602001600081525090565b6040518060a0016040528060008152602001600081526020016000815260200160008152602001600081525090565b6000604051905090565b600080fd5b600080fd5b600073ffffffffffffffffffffffffffffffffffffffff82169050919050565b6000613b9b82613b70565b9050919050565b613bab81613b90565b8114613bb657600080fd5b50565b600081359050613bc881613ba2565b92915050565b6000819050919050565b613be181613bce565b8114613bec57600080fd5b50565b600081359050613bfe81613bd8565b92915050565b600080fd5b600080fd5b6000601f19601f8301169050919050565b7f4e487b7100000000000000000000000000000000000000000000000000000000600052604160045260246000fd5b613c5782613c0e565b810181811067ffffffffffffffff82111715613c7657613c75613c1f565b5b80604052505050565b6000613c89613b5c565b9050613c958282613c4e565b919050565b600067ffffffffffffffff821115613cb557613cb4613c1f565b5b613cbe82613c0e565b9050602081019050919050565b82818337600083830152505050565b6000613ced613ce884613c9a565b613c7f565b905082815260208101848484011115613d0957613d08613c09565b5b613d14848285613ccb565b509392505050565b600082601f830112613d3157613d30613c04565b5b8135613d41848260208601613cda565b91505092915050565b60008060008060808587031215613d6457613d63613b66565b5b6000613d7287828801613bb9565b9450506020613d8387828801613bb9565b9350506040613d9487828801613bef565b925050606085013567ffffffffffffffff811115613db557613db4613b6b565b5b613dc187828801613d1c565b91505092959194509250565b60007fffffffff0000000000000000000000000000000000000000000000000000000082169050919050565b613e0281613dcd565b82525050565b6000602082019050613e1d6000830184613df9565b92915050565b600067ffffffffffffffff821115613e3e57613e3d613c1f565b5b602082029050602081019050919050565b600080fd5b6000613e67613e6284613e23565b613c7f565b90508083825260208201905060208402830185811115613e8a57613e89613e4f565b5b835b81811015613eb35780613e9f8882613bef565b845260208401935050602081019050613e8c565b5050509392505050565b600082601f830112613ed257613ed1613c04565b5b8135613ee2848260208601613e54565b91505092915050565b600080600060608486031215613f0457613f03613b66565b5b600084013567ffffffffffffffff811115613f2257613f21613b6b565b5b613f2e86828701613ebd565b9350506020613f3f86828701613bef565b9250506040613f5086828701613bb9565b9150509250925092565b613f6381613bce565b82525050565b6000602082019050613f7e6000830184613f5a565b92915050565b60006fffffffffffffffffffffffffffffffff82169050919050565b613fa981613f84565b82525050565b6000602082019050613fc46000830184613fa0565b92915050565b60008060408385031215613fe157613fe0613b66565b5b600083013567ffffffffffffffff811115613fff57613ffe613b6b565b5b61400b85828601613ebd565b925050602061401c85828601613bb9565b9150509250929050565b61402f81613f84565b811461403a57600080fd5b50565b60008135905061404c81614026565b92915050565b60008060006060848603121561406b5761406a613b66565b5b600061407986828701613bef565b935050602061408a8682870161403d565b925050604061409b86828701613bef565b9150509250925092565b6000806000606084860312156140be576140bd613b66565b5b60006140cc86828701613bef565b935050602084013567ffffffffffffffff8111156140ed576140ec613b6b565b5b6140f986828701613ebd565b925050604061410a86828701613bb9565b9150509250925092565b61411d81613b90565b82525050565b600060c0820190506141386000830189614114565b6141456020830188613fa0565b6141526040830187613fa0565b61415f6060830186613f5a565b61416c6080830185613f5a565b61417960a0830184613f5a565b979650505050505050565b61418d81613b90565b82525050565b61419c81613f84565b82525050565b6141ab81613bce565b82525050565b60c0820160008201516141c76000850182614184565b5060208201516141da6020850182614193565b5060408201516141ed6040850182614193565b50606082015161420060608501826141a2565b50608082015161421360808501826141a2565b5060a082015161422660a08501826141a2565b50505050565b600060c08201905061424160008301846141b1565b92915050565b60006020828403121561425d5761425c613b66565b5b600061426b84828501613bb9565b91505092915050565b60a08201600082015161428a60008501826141a2565b50602082015161429d60208501826141a2565b5060408201516142b060408501826141a2565b5060608201516142c360608501826141a2565b5060808201516142d660808501826141a2565b50505050565b600060a0820190506142f16000830184614274565b92915050565b600060208201905061430c6000830184614114565b92915050565b6000806040838503121561432957614328613b66565b5b600061433785828601613bef565b925050602061434885828601613bb9565b9150509250929050565b600082825260208201905092915050565b7f4e6f742030000000000000000000000000000000000000000000000000000000600082015250565b6000614399600583614352565b91506143a482614363565b602082019050919050565b600060208201905081810360008301526143c88161438c565b9050919050565b60006080820190506143e46000830187613fa0565b6143f16020830186613fa0565b6143fe6040830185613f5a565b61440b6060830184613f5a565b95945050505050565b6003811061442157600080fd5b50565b60008151905061443381614414565b92915050565b60008151905061444881614026565b92915050565b60008151905061445d81613bd8565b92915050565b600080600080600060a0868803121561447f5761447e613b66565b5b600061448d88828901614424565b955050602061449e88828901614439565b94505060406144af88828901614439565b93505060606144c08882890161444e565b92505060806144d18882890161444e565b9150509295509295909350565b7f4e487b7100000000000000000000000000000000000000000000000000000000600052602160045260246000fd5b7f426f6e64696e67206572726f7200000000000000000000000000000000000000600082015250565b6000614543600d83614352565b915061454e8261450d565b602082019050919050565b6000602082019050818103600083015261457281614536565b9050919050565b7f4e6f7420656e6f756768206c6971756964697479000000000000000000000000600082015250565b60006145af601483614352565b91506145ba82614579565b602082019050919050565b600060208201905081810360008301526145de816145a2565b9050919050565b7f4e6f742065787065637465642076616c75650000000000000000000000000000600082015250565b600061461b601283614352565b9150614626826145e5565b602082019050919050565b6000602082019050818103600083015261464a8161460e565b9050919050565b7f4e6f7420656e6f75676820636f6e74726163742062616c616e63650000000000600082015250565b6000614687601b83614352565b915061469282614651565b602082019050919050565b600060208201905081810360008301526146b68161467a565b9050919050565b7f4e487b7100000000000000000000000000000000000000000000000000000000600052601160045260246000fd5b60006146f782613bce565b915061470283613bce565b925082820190508082111561471a576147196146bd565b5b92915050565b600061472b82613bce565b915061473683613bce565b925082820390508181111561474e5761474d6146bd565b5b92915050565b600081519050919050565b600082825260208201905092915050565b6000819050602082019050919050565b600061478c83836141a2565b60208301905092915050565b6000602082019050919050565b60006147b082614754565b6147ba818561475f565b93506147c583614770565b8060005b838110156147f65781516147dd8882614780565b97506147e883614798565b9250506001810190506147c9565b5085935050505092915050565b6000604082019050818103600083015261481d81856147a5565b905061482c6020830184613f5a565b9392505050565b7f506f6f6c206e6f7420656e6f756768204e465400000000000000000000000000600082015250565b6000614869601383614352565b915061487482614833565b602082019050919050565b600060208201905081810360008301526148988161485c565b9050919050565b7f536f6d657468696e672069732077726f6e672e00000000000000000000000000600082015250565b60006148d5601383614352565b91506148e08261489f565b602082019050919050565b60006020820190508181036000830152614904816148c8565b9050919050565b6000606082019050818103600083015261492581866147a5565b90506149346020830185613f5a565b6149416040830184613f5a565b949350505050565b600060408201905061495e6000830185613f5a565b818103602083015261497081846147a5565b90509392505050565b7f4e6f7420656e6f7567682076616c756500000000000000000000000000000000600082015250565b60006149af601083614352565b91506149ba82614979565b602082019050919050565b600060208201905081810360008301526149de816149a2565b9050919050565b7f7472756500000000000000000000000000000000000000000000000000000000600082015250565b6000614a1b600483614352565b9150614a26826149e5565b602082019050919050565b60006020820190508181036000830152614a4a81614a0e565b9050919050565b60006080820190508181036000830152614a6b81876147a5565b9050614a7a6020830186613f5a565b614a876040830185613f5a565b614a946060830184613f5a565b95945050505050565b6000614aa882613bce565b9150614ab383613bce565b9250817fffffffffffffffffffffffffffffffffffffffffffffffffffffffffffffffff0483118215151615614aec57614aeb6146bd565b5b828202905092915050565b7f4e487b7100000000000000000000000000000000000000000000000000000000600052601260045260246000fd5b6000614b3182613bce565b9150614b3c83613bce565b925082614b4c57614b4b614af7565b5b828204905092915050565b7f496e73756666696369656e742056616c75650000000000000000000000000000600082015250565b6000614b8d601283614352565b9150614b9882614b57565b602082019050919050565b60006020820190508181036000830152614bbc81614b80565b9050919050565b6000604082019050614bd86000830185613f5a565b614be56020830184613f5a565b9392505050565b7f6f6e6c79526f7574657200000000000000000000000000000000000000000000600082015250565b6000614c22600a83614352565b9150614c2d82614bec565b602082019050919050565b60006020820190508181036000830152614c5181614c15565b9050919050565b60008060408385031215614c6f57614c6e613b66565b5b6000614c7d85828601614424565b9250506020614c8e8582860161444e565b9150509250929050565b7f4e487b7100000000000000000000000000000000000000000000000000000000600052603260045260246000fd5b600082825260208201905092915050565b50565b6000614ce8600083614cc7565b9150614cf382614cd8565b600082019050919050565b6000608082019050614d136000830186614114565b614d206020830185614114565b614d2d6040830184613f5a565b8181036060830152614d3e81614cdb565b905094935050505056fea2646970667358221220f2869886d1a665a4894613d0a8082f22d2063c1b2f4264059180b45c472f424d64736f6c63430008100033a26469706673582212207c39445ca1847164d22e9fb7c165e7dbe6af0dbb31afe479a5ddc3c54fb93b1264736f6c63430008100033",
  "linkReferences": {},
  "deployedLinkReferences": {}
}