{
  "_format": "hh-sol-artifact-1",
  "contractName": "Factory721",
  "sourceName": "contracts/Factory721.sol",
  "abi": [
    {
      "inputs": [
        {
          "internalType": "address",
          "name": "_router",
          "type": "address"
        },
        {
          "internalType": "uint256",
          "name": "_routerFeeRatio",
          "type": "uint256"
        }
      ],
      "stateMutability": "nonpayable",
      "type": "constructor"
    },
    {
      "anonymous": false,
      "inputs": [
        {
          "indexed": true,
          "internalType": "address",
          "name": "pool",
          "type": "address"
        },
        {
          "indexed": true,
          "internalType": "address",
          "name": "collection",
          "type": "address"
        }
      ],
      "name": "CreatePool",
      "type": "event"
    },
    {
      "anonymous": false,
      "inputs": [
        {
          "indexed": true,
          "internalType": "address",
          "name": "previousOwner",
          "type": "address"
        },
        {
          "indexed": true,
          "internalType": "address",
          "name": "newOwner",
          "type": "address"
        }
      ],
      "name": "OwnershipTransferred",
      "type": "event"
    },
    {
      "inputs": [
        {
          "internalType": "address",
          "name": "_collection",
          "type": "address"
        },
        {
          "internalType": "address",
          "name": "_bondingCurve",
          "type": "address"
        },
        {
          "internalType": "uint128",
          "name": "_spotPrice",
          "type": "uint128"
        },
        {
          "internalType": "uint128",
          "name": "_delta",
          "type": "uint128"
        },
        {
          "internalType": "uint256",
          "name": "_divergence",
          "type": "uint256"
        }
      ],
      "name": "createPool",
      "outputs": [],
      "stateMutability": "nonpayable",
      "type": "function"
    },
    {
      "inputs": [],
      "name": "owner",
      "outputs": [
        {
          "internalType": "address",
          "name": "",
          "type": "address"
        }
      ],
      "stateMutability": "view",
      "type": "function"
    },
    {
      "inputs": [],
      "name": "renounceOwnership",
      "outputs": [],
      "stateMutability": "nonpayable",
      "type": "function"
    },
    {
      "inputs": [],
      "name": "router",
      "outputs": [
        {
          "internalType": "address",
          "name": "",
          "type": "address"
        }
      ],
      "stateMutability": "view",
      "type": "function"
    },
    {
      "inputs": [],
      "name": "routerFeeRatio",
      "outputs": [
        {
          "internalType": "uint256",
          "name": "",
          "type": "uint256"
        }
      ],
      "stateMutability": "view",
      "type": "function"
    },
    {
      "inputs": [
        {
          "internalType": "address",
          "name": "_newRouter",
          "type": "address"
        }
      ],
      "name": "setRouterAddress",
      "outputs": [],
      "stateMutability": "nonpayable",
      "type": "function"
    },
    {
      "inputs": [
        {
          "internalType": "uint256",
          "name": "_newRouterFeeRatio",
          "type": "uint256"
        }
      ],
      "name": "setRouterFeeRatio",
      "outputs": [],
      "stateMutability": "nonpayable",
      "type": "function"
    },
    {
      "inputs": [
        {
          "internalType": "address",
          "name": "newOwner",
          "type": "address"
        }
      ],
      "name": "transferOwnership",
      "outputs": [],
      "stateMutability": "nonpayable",
      "type": "function"
    }
  ],
  "bytecode": "0x60806040526702c68af0bb1400006002553480156200001d57600080fd5b50604051620082773803806200827783398181016040528101906200004391906200027b565b62000063620000576200010760201b60201c565b6200010f60201b60201c565b6200007f67a9d6e1acb04ff02760c01b620001d360201b60201c565b6200009b67d0029b172cfdc75260c01b620001d360201b60201c565b81600160006101000a81548173ffffffffffffffffffffffffffffffffffffffff021916908373ffffffffffffffffffffffffffffffffffffffff160217905550620000f867cacddc34b1c0143a60c01b620001d360201b60201c565b806002819055505050620002c2565b600033905090565b60008060009054906101000a900473ffffffffffffffffffffffffffffffffffffffff169050816000806101000a81548173ffffffffffffffffffffffffffffffffffffffff021916908373ffffffffffffffffffffffffffffffffffffffff1602179055508173ffffffffffffffffffffffffffffffffffffffff168173ffffffffffffffffffffffffffffffffffffffff167f8be0079c531659141344cd1fd0a4f28419497f9722a3daafe3b4186f6b6457e060405160405180910390a35050565b50565b600080fd5b600073ffffffffffffffffffffffffffffffffffffffff82169050919050565b60006200020882620001db565b9050919050565b6200021a81620001fb565b81146200022657600080fd5b50565b6000815190506200023a816200020f565b92915050565b6000819050919050565b620002558162000240565b81146200026157600080fd5b50565b60008151905062000275816200024a565b92915050565b60008060408385031215620002955762000294620001d6565b5b6000620002a58582860162000229565b9250506020620002b88582860162000264565b9150509250929050565b617fa580620002d26000396000f3fe60806040523480156200001157600080fd5b5060043610620000945760003560e01c8063c74768e81162000063578063c74768e81462000107578063f2fde38b1462000127578063f864fa1e1462000147578063f887ea4014620001695762000094565b806341cb87fc14620000995780635f8b2f0e14620000b9578063715018a614620000d95780638da5cb5b14620000e5575b600080fd5b620000b76004803603810190620000b1919062000aa9565b6200018b565b005b620000d76004803603810190620000d1919062000b16565b62000231565b005b620000e36200029d565b005b620000ef620002b5565b604051620000fe919062000b59565b60405180910390f35b6200012560048036038101906200011f919062000bc3565b620002de565b005b6200014560048036038101906200013f919062000aa9565b62000827565b005b62000151620008b1565b60405162000160919062000c5c565b60405180910390f35b62000173620008b7565b60405162000182919062000b59565b60405180910390f35b620001a167f5f0c65d30e1967260c01b620008dd565b620001ab620008e0565b620001c1677cc79980031ab80960c01b620008dd565b620001d767dc092733af016e7660c01b620008dd565b620001ed67f2faf6e24b46e9ab60c01b620008dd565b80600160006101000a81548173ffffffffffffffffffffffffffffffffffffffff021916908373ffffffffffffffffffffffffffffffffffffffff16021790555050565b6200024767373adfe12cedae9760c01b620008dd565b62000251620008e0565b62000267679c099d21679cbd2460c01b620008dd565b6200027d6745373ae506d6aac560c01b620008dd565b6200029367a85638b3b6095de760c01b620008dd565b8060028190555050565b620002a7620008e0565b620002b3600062000965565b565b60008060009054906101000a900473ffffffffffffffffffffffffffffffffffffffff16905090565b620002f467879a4a345b0483a960c01b620008dd565b6200030a67ec49111ab55b1ac860c01b620008dd565b620003206705e33e8a197955f560c01b620008dd565b62000336678cae77e7f6cbb7df60c01b620008dd565b8473ffffffffffffffffffffffffffffffffffffffff166301ffc9a77f80ac58cd000000000000000000000000000000000000000000000000000000006040518263ffffffff1660e01b815260040162000391919062000cb6565b602060405180830381865afa158015620003af573d6000803e3d6000fd5b505050506040513d601f19601f82011682018060405250810190620003d5919062000d10565b62000417576040517f08c379a00000000000000000000000000000000000000000000000000000000081526004016200040e9062000da3565b60405180910390fd5b6200042d6733c8721f18f2317d60c01b620008dd565b620004436731867a820d6f533860c01b620008dd565b6200045967d1212f30856ac19760c01b620008dd565b6200046f67b8d24de76f721b3360c01b620008dd565b60011515600160009054906101000a900473ffffffffffffffffffffffffffffffffffffffff1673ffffffffffffffffffffffffffffffffffffffff1663fc5a0df5876040518263ffffffff1660e01b8152600401620004d0919062000b59565b602060405180830381865afa158015620004ee573d6000803e3d6000fd5b505050506040513d601f19601f8201168201806040525081019062000514919062000d10565b1515146200052157600080fd5b6200053767c2848a96a7aee96d60c01b620008dd565b6200054d6746d7b7929c0638ed60c01b620008dd565b620005636781e365358c467df360c01b620008dd565b620005796784faef361bb82f5a60c01b620008dd565b60011515600160009054906101000a900473ffffffffffffffffffffffffffffffffffffffff1673ffffffffffffffffffffffffffffffffffffffff1663b65bfbf0866040518263ffffffff1660e01b8152600401620005da919062000b59565b602060405180830381865afa158015620005f8573d6000803e3d6000fd5b505050506040513d601f19601f820116820180604052508101906200061e919062000d10565b1515146200062b57600080fd5b620006416743ecb75e5cd8950e60c01b620008dd565b6200065767378f0391cec8915460c01b620008dd565b6200066d67bb7b979cfa27a39260c01b620008dd565b60008585858585600254600160009054906101000a900473ffffffffffffffffffffffffffffffffffffffff16604051620006a89062000a31565b620006ba979695949392919062000dd6565b604051809103906000f080158015620006d7573d6000803e3d6000fd5b509050620006f0679f735498c66cb4bb60c01b620008dd565b62000706678a4e082e963f5a6060c01b620008dd565b600160009054906101000a900473ffffffffffffffffffffffffffffffffffffffff1673ffffffffffffffffffffffffffffffffffffffff16635f1c325d87836040518363ffffffff1660e01b81526004016200076592919062000e53565b600060405180830381600087803b1580156200078057600080fd5b505af115801562000795573d6000803e3d6000fd5b50505050620007af67160b3d70eb072b1d60c01b620008dd565b620007c567201f974c3f16a18260c01b620008dd565b8573ffffffffffffffffffffffffffffffffffffffff168173ffffffffffffffffffffffffffffffffffffffff167fdbd2a1ea6808362e6adbec4db4969cbc11e3b0b28fb6c74cb342defaaf1daada60405160405180910390a3505050505050565b62000831620008e0565b600073ffffffffffffffffffffffffffffffffffffffff168173ffffffffffffffffffffffffffffffffffffffff1603620008a3576040517f08c379a00000000000000000000000000000000000000000000000000000000081526004016200089a9062000ef6565b60405180910390fd5b620008ae8162000965565b50565b60025481565b600160009054906101000a900473ffffffffffffffffffffffffffffffffffffffff1681565b50565b620008ea62000a29565b73ffffffffffffffffffffffffffffffffffffffff166200090a620002b5565b73ffffffffffffffffffffffffffffffffffffffff161462000963576040517f08c379a00000000000000000000000000000000000000000000000000000000081526004016200095a9062000f68565b60405180910390fd5b565b60008060009054906101000a900473ffffffffffffffffffffffffffffffffffffffff169050816000806101000a81548173ffffffffffffffffffffffffffffffffffffffff021916908373ffffffffffffffffffffffffffffffffffffffff1602179055508173ffffffffffffffffffffffffffffffffffffffff168173ffffffffffffffffffffffffffffffffffffffff167f8be0079c531659141344cd1fd0a4f28419497f9722a3daafe3b4186f6b6457e060405160405180910390a35050565b600033905090565b616fe58062000f8b83390190565b600080fd5b600073ffffffffffffffffffffffffffffffffffffffff82169050919050565b600062000a718262000a44565b9050919050565b62000a838162000a64565b811462000a8f57600080fd5b50565b60008135905062000aa38162000a78565b92915050565b60006020828403121562000ac25762000ac162000a3f565b5b600062000ad28482850162000a92565b91505092915050565b6000819050919050565b62000af08162000adb565b811462000afc57600080fd5b50565b60008135905062000b108162000ae5565b92915050565b60006020828403121562000b2f5762000b2e62000a3f565b5b600062000b3f8482850162000aff565b91505092915050565b62000b538162000a64565b82525050565b600060208201905062000b70600083018462000b48565b92915050565b60006fffffffffffffffffffffffffffffffff82169050919050565b62000b9d8162000b76565b811462000ba957600080fd5b50565b60008135905062000bbd8162000b92565b92915050565b600080600080600060a0868803121562000be25762000be162000a3f565b5b600062000bf28882890162000a92565b955050602062000c058882890162000a92565b945050604062000c188882890162000bac565b935050606062000c2b8882890162000bac565b925050608062000c3e8882890162000aff565b9150509295509295909350565b62000c568162000adb565b82525050565b600060208201905062000c73600083018462000c4b565b92915050565b60007fffffffff0000000000000000000000000000000000000000000000000000000082169050919050565b62000cb08162000c79565b82525050565b600060208201905062000ccd600083018462000ca5565b92915050565b60008115159050919050565b62000cea8162000cd3565b811462000cf657600080fd5b50565b60008151905062000d0a8162000cdf565b92915050565b60006020828403121562000d295762000d2862000a3f565b5b600062000d398482850162000cf9565b91505092915050565b600082825260208201905092915050565b7f4f6e6c7945524337323100000000000000000000000000000000000000000000600082015250565b600062000d8b600a8362000d42565b915062000d988262000d53565b602082019050919050565b6000602082019050818103600083015262000dbe8162000d7c565b9050919050565b62000dd08162000b76565b82525050565b600060e08201905062000ded600083018a62000b48565b62000dfc602083018962000b48565b62000e0b604083018862000dc5565b62000e1a606083018762000dc5565b62000e29608083018662000c4b565b62000e3860a083018562000c4b565b62000e4760c083018462000b48565b98975050505050505050565b600060408201905062000e6a600083018562000b48565b62000e79602083018462000b48565b9392505050565b7f4f776e61626c653a206e6577206f776e657220697320746865207a65726f206160008201527f6464726573730000000000000000000000000000000000000000000000000000602082015250565b600062000ede60268362000d42565b915062000eeb8262000e80565b604082019050919050565b6000602082019050818103600083015262000f118162000ecf565b9050919050565b7f4f776e61626c653a2063616c6c6572206973206e6f7420746865206f776e6572600082015250565b600062000f5060208362000d42565b915062000f5d8262000f18565b602082019050919050565b6000602082019050818103600083015262000f838162000f41565b905091905056fe60806040523480156200001157600080fd5b5060405162006fe538038062006fe5833981810160405281019062000037919062000411565b6200005367d0d9ebb64028534c60c01b6200031c60201b60201c565b6200006f67f2fe41aac121f57b60c01b6200031c60201b60201c565b86600160006101000a81548173ffffffffffffffffffffffffffffffffffffffff021916908373ffffffffffffffffffffffffffffffffffffffff160217905550620000cc67c7f2ebb8b67ac9f860c01b6200031c60201b60201c565b85600a60000160006101000a81548173ffffffffffffffffffffffffffffffffffffffff021916908373ffffffffffffffffffffffffffffffffffffffff1602179055506200012b6675c4ac629214ab60c01b6200031c60201b60201c565b84600a60010160006101000a8154816fffffffffffffffffffffffffffffffff02191690836fffffffffffffffffffffffffffffffff16021790555062000183679beafc2102f2207c60c01b6200031c60201b60201c565b84600760106101000a8154816fffffffffffffffffffffffffffffffff02191690836fffffffffffffffffffffffffffffffff160217905550620001d8672d23f60e5b18e84460c01b6200031c60201b60201c565b84600760006101000a8154816fffffffffffffffffffffffffffffffff02191690836fffffffffffffffffffffffffffffffff1602179055506200022d676181922415a400a660c01b6200031c60201b60201c565b83600a60010160106101000a8154816fffffffffffffffffffffffffffffffff02191690836fffffffffffffffffffffffffffffffff1602179055506200028567e1b2299d86992b4b60c01b6200031c60201b60201c565b82600a60020181905550620002ab672e8d298ec96cc3f660c01b6200031c60201b60201c565b81600081905550620002ce678fe214a4486a4a2b60c01b6200031c60201b60201c565b80600260006101000a81548173ffffffffffffffffffffffffffffffffffffffff021916908373ffffffffffffffffffffffffffffffffffffffff16021790555050505050505050620004c4565b50565b600080fd5b600073ffffffffffffffffffffffffffffffffffffffff82169050919050565b6000620003518262000324565b9050919050565b620003638162000344565b81146200036f57600080fd5b50565b600081519050620003838162000358565b92915050565b60006fffffffffffffffffffffffffffffffff82169050919050565b620003b08162000389565b8114620003bc57600080fd5b50565b600081519050620003d081620003a5565b92915050565b6000819050919050565b620003eb81620003d6565b8114620003f757600080fd5b50565b6000815190506200040b81620003e0565b92915050565b600080600080600080600060e0888a0312156200043357620004326200031f565b5b6000620004438a828b0162000372565b9750506020620004568a828b0162000372565b9650506040620004698a828b01620003bf565b95505060606200047c8a828b01620003bf565b94505060806200048f8a828b01620003fa565b93505060a0620004a28a828b01620003fa565b92505060c0620004b58a828b0162000372565b91505092959891949750929550565b616b1180620004d46000396000f3fe6080604052600436106101665760003560e01c80636386c1c7116100d1578063895af8711161008a578063e7ede50211610064578063e7ede5021461054b578063eaa6267814610576578063f887ea40146105a1578063fc5ad2df146105cc57610166565b8063895af871146104ba578063c0d78655146104e5578063cb6f0d341461050e57610166565b80636386c1c7146103945780636b469d39146103d15780637a27d9f61461040e5780637b6880ca146104395780637de1e5361461046457806386524b2d1461048f57610166565b80634c4cbac4116101235780634c4cbac41461028557806350902c17146102b557806353153836146102d157806354044ccb1461030e5780635a2f3d091461033957806360246c881461036957610166565b8063150b7a021461016b578063244117b4146101a85780632767fa4b146101d85780632c7e4915146102035780632f7e0b2e1461021f578063341d15fd14610248575b600080fd5b34801561017757600080fd5b50610192600480360381019061018d9190615bb2565b6105f7565b60405161019f9190615c70565b60405180910390f35b6101c260048036038101906101bd9190615d53565b610647565b6040516101cf9190615dd1565b60405180910390f35b3480156101e457600080fd5b506101ed610eba565b6040516101fa9190615e17565b60405180910390f35b61021d60048036038101906102189190615e32565b610edc565b005b34801561022b57600080fd5b5061024660048036038101906102419190615e32565b611c91565b005b34801561025457600080fd5b5061026f600480360381019061026a9190615eba565b6122fc565b60405161027c9190615dd1565b60405180910390f35b61029f600480360381019061029a9190615e32565b61243b565b6040516102ac9190615dd1565b60405180910390f35b6102cf60048036038101906102ca9190615f0d565b612c26565b005b3480156102dd57600080fd5b506102f860048036038101906102f39190615eba565b613ba4565b6040516103059190615dd1565b60405180910390f35b34801561031a57600080fd5b50610323613ce3565b6040516103309190615dd1565b60405180910390f35b34801561034557600080fd5b5061034e613ce9565b60405161036096959493929190615f8b565b60405180910390f35b34801561037557600080fd5b5061037e613d6b565b60405161038b9190616094565b60405180910390f35b3480156103a057600080fd5b506103bb60048036038101906103b691906160af565b613ec9565b6040516103c89190616144565b60405180910390f35b3480156103dd57600080fd5b506103f860048036038101906103f391906160af565b613f90565b6040516104059190615dd1565b60405180910390f35b34801561041a57600080fd5b5061042361415e565b6040516104309190615dd1565b60405180910390f35b34801561044557600080fd5b5061044e614164565b60405161045b9190615e17565b60405180910390f35b34801561047057600080fd5b50610479614186565b604051610486919061615f565b60405180910390f35b34801561049b57600080fd5b506104a46141ac565b6040516104b19190615dd1565b60405180910390f35b3480156104c657600080fd5b506104cf6141b2565b6040516104dc9190615dd1565b60405180910390f35b3480156104f157600080fd5b5061050c600480360381019061050791906160af565b6141b8565b005b34801561051a57600080fd5b50610535600480360381019061053091906160af565b614354565b6040516105429190615dd1565b60405180910390f35b34801561055757600080fd5b50610560614522565b60405161056d9190615dd1565b60405180910390f35b34801561058257600080fd5b5061058b614528565b6040516105989190615dd1565b60405180910390f35b3480156105ad57600080fd5b506105b661452e565b6040516105c3919061615f565b60405180910390f35b3480156105d857600080fd5b506105e1614554565b6040516105ee9190615dd1565b60405180910390f35b600061060d67df42e1adbc9c17bb60c01b61455a565b6106216726ff4f59787fd5e560c01b61455a565b61063567bc9e08950a294d1f60c01b61455a565b63150b7a0260e01b9050949350505050565b600061065d67bab997aa2ac4f09360c01b61455a565b8161067267f7c03f07dd0166a460c01b61455a565b6106866790e4b8a9e0b07f7460c01b61455a565b61069a67d72bcd4dcaabe56460c01b61455a565b6106ae67046a99c392b024eb60c01b61455a565b3373ffffffffffffffffffffffffffffffffffffffff168173ffffffffffffffffffffffffffffffffffffffff161480156106f957506106f8673d0ae3647782e1ac60c01b61455d565b5b8061076d5750600260009054906101000a900473ffffffffffffffffffffffffffffffffffffffff1673ffffffffffffffffffffffffffffffffffffffff163373ffffffffffffffffffffffffffffffffffffffff1614801561076c575061076b670f1f230e6f49e0ed60c01b61455d565b5b5b61077657600080fd5b61078a6733c0a32abdd28c5660c01b61455a565b61079e67d7d71e57a031088260c01b61455a565b6107b26758e466e4bc07310960c01b61455a565b6107c6673d7a7b2e2250b05860c01b61455a565b6107da67a8749decbb5497c760c01b61455a565b6107ee67f57cc57b106a1ca160c01b61455a565b60008551905061080867f394b12b4702e99060c01b61455a565b61081c674dfe1b9b24a9a34d60c01b61455a565b6108306785884c344413b26260c01b61455a565b60008111610873576040517f08c379a000000000000000000000000000000000000000000000000000000000815260040161086a906161d7565b60405180910390fd5b6108876767e8cd80d943be7960c01b61455a565b61089b67f4289dc15f120d6e60c01b61455a565b6108af67d5947e76c18ff6da60c01b61455a565b6000806000806000600a60000160009054906101000a900473ffffffffffffffffffffffffffffffffffffffff1673ffffffffffffffffffffffffffffffffffffffff1663c728b364600a60010160009054906101000a90046fffffffffffffffffffffffffffffffff16600a60010160109054906101000a90046fffffffffffffffffffffffffffffffff16600a600201548a6040518563ffffffff1660e01b815260040161096294939291906161f7565b60a060405180830381865afa15801561097f573d6000803e3d6000fd5b505050506040513d601f19601f820116820180604052508101906109a3919061628b565b945094509450945094506109c167c1a036600743a4bd60c01b61455a565b6109d5673ed4038012d4414260c01b61455a565b6109e967c2bdd64d7a67ebcc60c01b61455a565b600060028111156109fd576109fc616306565b5b856002811115610a1057610a0f616306565b5b14610a50576040517f08c379a0000000000000000000000000000000000000000000000000000000008152600401610a4790616381565b60405180910390fd5b610a6467ba1faf4de7ea319460c01b61455a565b610a78679929bab26e6b9ba160c01b61455a565b610a8c676a9e21b3d3ec128c60c01b61455a565b610aa06745f5228f3174539260c01b61455a565b600a60040154861115610ae8576040517f08c379a0000000000000000000000000000000000000000000000000000000008152600401610adf906163ed565b60405180910390fd5b610afc67b8a4e57467b44dd360c01b61455a565b610b1067cad6ef3d374f11bc60c01b61455a565b610b24671f1cde5879ea965760c01b61455a565b610b3867bab42ac4646ed5f360c01b61455a565b89811015610b7b576040517f08c379a0000000000000000000000000000000000000000000000000000000008152600401610b7290616459565b60405180910390fd5b610b8f674b3f61136e66b15e60c01b61455a565b610ba36781c75d30463d12b760c01b61455a565b610bb7677258aaa07398fa4160c01b61455a565b610bcb67375d0180964ad41760c01b61455a565b80471015610c0e576040517f08c379a0000000000000000000000000000000000000000000000000000000008152600401610c05906164c5565b60405180910390fd5b610c2267d83a948d3b22bf2760c01b61455a565b610c3667560a3aed6674b55c60c01b61455a565b8560046000828254610c489190616514565b92505081905550610c636795509e62ca653df060c01b61455a565b85600a6004016000828254610c789190616548565b92505081905550610c93678a5dcb178b6f46ff60c01b61455a565b85600a6003016000828254610ca89190616514565b92505081905550610cc367dd073521f680199a60c01b61455a565b610ccb614568565b9750610ce167e4582d05587b6ac260c01b61455a565b610cf5673d5f0d42ff259a3d60c01b61455a565b610d00848484614bc1565b610d1467aa4cbbb923a2de2d60c01b61455a565b610d2867c4742c8ed525df0a60c01b61455a565b610d348b878b30614e6e565b610d48678aed02821c9ff13a60c01b61455a565b610d5c67ffa9b90361ff582260c01b61455a565b8873ffffffffffffffffffffffffffffffffffffffff166108fc829081150290604051600060405180830381858888f19350505050158015610da2573d6000803e3d6000fd5b50610db767f965dca68ea2aa9760c01b61455a565b610dcb670f19afc9578b3e0b60c01b61455a565b600260009054906101000a900473ffffffffffffffffffffffffffffffffffffffff1673ffffffffffffffffffffffffffffffffffffffff166108fc899081150290604051600060405180830381858888f19350505050158015610e33573d6000803e3d6000fd5b50610e48678ad6becfd6d1039e60c01b61455a565b610e5c672e554ca0736bc59560c01b61455a565b8873ffffffffffffffffffffffffffffffffffffffff167f52a8813c8bdca51f38292d707f835c85ffb8d74c66cc39a75609345ff2c3f0be8c83604051610ea492919061662b565b60405180910390a2505050505050509392505050565b600760109054906101000a90046fffffffffffffffffffffffffffffffff1681565b610ef067e5af7528067e891260c01b61455a565b610f0467a165b87e1563e12560c01b61455a565b610f1867c10ae82b7f921db060c01b61455a565b600082519050610f3267a660304f2a69e7ee60c01b61455a565b610f46674e5f4365ec2258e160c01b61455a565b6000600f60008473ffffffffffffffffffffffffffffffffffffffff1673ffffffffffffffffffffffffffffffffffffffff168152602001908152602001600020600001549050610fa16716acb578ed9ec18d60c01b61455a565b610fb56741476dc82d083a3760c01b61455a565b6000610fc084614fb0565b9050610fd66770ff116c754d3fc860c01b61455a565b610fea67080c2fa29050960260c01b61455a565b610ffe674f0b3ee3b4691ff660c01b61455a565b82600a600301541015611046576040517f08c379a000000000000000000000000000000000000000000000000000000000815260040161103d906166a7565b60405180910390fd5b61105a6752f1d56d513a149f60c01b61455a565b61106e67780e36e12f7d451760c01b61455a565b6110826710d8910641eb6a5a60c01b61455a565b61109667ab711d43372e812a60c01b61455a565b82600f60008673ffffffffffffffffffffffffffffffffffffffff1673ffffffffffffffffffffffffffffffffffffffff168152602001908152602001600020600001541480156110f757506110f66763460633ba1cca2960c01b61455d565b5b80611122575082600a60030154148015611121575061112067bbd8776e8da27c0c60c01b61455d565b5b5b611161576040517f08c379a000000000000000000000000000000000000000000000000000000000815260040161115890616713565b60405180910390fd5b61117466c7328f1de6bb2560c01b61455a565b611188672e5d2ccd50e4614c60c01b61455a565b82600a600301600082825461119d9190616548565b925050819055506111b86736db5595c247657760c01b61455a565b6000600f60008673ffffffffffffffffffffffffffffffffffffffff1673ffffffffffffffffffffffffffffffffffffffff1681526020019081526020016000206000018190555061121467a406397cdaaeecbb60c01b61455a565b600f60008573ffffffffffffffffffffffffffffffffffffffff1673ffffffffffffffffffffffffffffffffffffffff16815260200190815260200160002060030154600660008282546112689190616548565b925050819055506112836705303aa0931e15dd60c01b61455a565b80600960008282546112959190616548565b925050819055506112b0679ae5710bbfebd5c560c01b61455a565b6000600f60008673ffffffffffffffffffffffffffffffffffffffff1673ffffffffffffffffffffffffffffffffffffffff1681526020019081526020016000206003018190555061130c673228c8aab1d25db360c01b61455a565b611320673582ec3c4cf2f0bd60c01b61455a565b60008311156115515761133d676d17583feef63ebd60c01b61455a565b61135167f38464b0306829e160c01b61455a565b61136567eedd3da698eb78b360c01b61455a565b6000806000600a60000160009054906101000a900473ffffffffffffffffffffffffffffffffffffffff1673ffffffffffffffffffffffffffffffffffffffff1663c728b364600760109054906101000a90046fffffffffffffffffffffffffffffffff16600a60010160109054906101000a90046fffffffffffffffffffffffffffffffff16670de0b6b3a7640000896040518563ffffffff1660e01b815260040161141594939291906161f7565b60a060405180830381865afa158015611432573d6000803e3d6000fd5b505050506040513d601f19601f82011682018060405250810190611456919061628b565b5050925092509250611472679d290f227c32914360c01b61455a565b6114866789a1b0a38e7a8bb660c01b61455a565b61149a67fa17e5c6144bdfb260c01b61455a565b600060028111156114ae576114ad616306565b5b8360028111156114c1576114c0616306565b5b14611501576040517f08c379a00000000000000000000000000000000000000000000000000000000081526004016114f890616381565b60405180910390fd5b6115156742c0b410e686ee0860c01b61455a565b6115296766614a70d862761060c01b61455a565b61153d67af80eb836e4bb29f60c01b61455a565b6115496002838361517e565b505050611566565b61156567dc3ac4cfba9fd1e160c01b61455a565b5b61157a674a554173897ee91060c01b61455a565b61158e67faf40f08037650f860c01b61455a565b82821115611af9576115aa671d7e6f9ddd4c8dd660c01b61455a565b6115be67158c074952a9eaca60c01b61455a565b6115d267b4d418646ea2e94060c01b61455a565b600083836115e09190616548565b90506115f667c5cf69636c011d2f60c01b61455a565b61160a67140d1a79a3599cdf60c01b61455a565b600080600a60000160009054906101000a900473ffffffffffffffffffffffffffffffffffffffff1673ffffffffffffffffffffffffffffffffffffffff1663c728b364600760109054906101000a90046fffffffffffffffffffffffffffffffff16600a60010160109054906101000a90046fffffffffffffffffffffffffffffffff16670de0b6b3a7640000876040518563ffffffff1660e01b81526004016116b894939291906161f7565b60a060405180830381865afa1580156116d5573d6000803e3d6000fd5b505050506040513d601f19601f820116820180604052508101906116f9919061628b565b9450505050915061171467e79b936e1ada335c60c01b61455a565b61172867a6bb38143b7b19ae60c01b61455a565b61173c67266bd3c57ff6ea4960c01b61455a565b600060028111156117505761174f616306565b5b82600281111561176357611762616306565b5b146117a3576040517f08c379a000000000000000000000000000000000000000000000000000000000815260040161179a90616381565b60405180910390fd5b6117b76797c17e5c84524ad560c01b61455a565b6117cb6764f7c248380a346c60c01b61455a565b6117df67d45f0d101ee4084f60c01b61455a565b6000806000600a60000160009054906101000a900473ffffffffffffffffffffffffffffffffffffffff1673ffffffffffffffffffffffffffffffffffffffff16635d998912600760009054906101000a90046fffffffffffffffffffffffffffffffff16600a60010160109054906101000a90046fffffffffffffffffffffffffffffffff16670de0b6b3a76400008a6040518563ffffffff1660e01b815260040161188f94939291906161f7565b60a060405180830381865afa1580156118ac573d6000803e3d6000fd5b505050506040513d601f19601f820116820180604052508101906118d0919061628b565b50509250925092506118ec674b3a79c23a7b37e660c01b61455a565b61190067e4a623130ffcc60860c01b61455a565b611914678b818de9046d695e60c01b61455a565b6000600281111561192857611927616306565b5b83600281111561193b5761193a616306565b5b1461197b576040517f08c379a000000000000000000000000000000000000000000000000000000000815260040161197290616381565b60405180910390fd5b61198f67ad00d849638ad82460c01b61455a565b6119a367930258c1a41bb1b360c01b61455a565b6119b7679707d09cc5008cc860c01b61455a565b6119c36001838361517e565b6119d767da7b6dc9ef53e55460c01b61455a565b85600a60040160008282546119ec9190616548565b92505081905550611a076723e5d55bfcfc392e60c01b61455a565b8560036000828254611a199190616548565b92505081905550611a346771aba20ec040115260c01b61455a565b611a4867657566456fa8ab9a60c01b61455a565b6000841115611ad957611a6567d9b6e18eae59061860c01b61455a565b611a7967105ec52ea067fd9160c01b61455a565b611a8d67b313f68f5448da5260c01b61455a565b8973ffffffffffffffffffffffffffffffffffffffff166108fc859081150290604051600060405180830381858888f19350505050158015611ad3573d6000803e3d6000fd5b50611aee565b611aed67d6e3cd9e1c25eb0f60c01b61455a565b5b505050505050611b0e565b611b0d6718c812b76b4f125760c01b61455a565b5b611b2267208573a41fe3eb1660c01b61455a565b611b366777f453c373cddf0260c01b61455a565b611b4285843087614e6e565b611b56670dabf91501757db560c01b61455a565b611b6a67af97f05b13f60dc060c01b61455a565b6000811115611bfb57611b876740c2564044a29e5260c01b61455a565b611b9b670fd58cca4e20429460c01b61455a565b611baf672f55a3030521927d60c01b61455a565b8373ffffffffffffffffffffffffffffffffffffffff166108fc829081150290604051600060405180830381858888f19350505050158015611bf5573d6000803e3d6000fd5b50611c10565b611c0f67baafc3e677b25acb60c01b61455a565b5b611c2467fddec0cf020fde1360c01b61455a565b611c38677808d2af1942a40060c01b61455a565b8373ffffffffffffffffffffffffffffffffffffffff167fae12f538fd8232ce822341f49f6323a75f6a7c19115d403ef481b0a39cf46775868484604051611c8293929190616733565b60405180910390a25050505050565b611ca5675d01a0adb85996c460c01b61455a565b80611cba67f7c03f07dd0166a460c01b61455a565b611cce6790e4b8a9e0b07f7460c01b61455a565b611ce267d72bcd4dcaabe56460c01b61455a565b611cf667046a99c392b024eb60c01b61455a565b3373ffffffffffffffffffffffffffffffffffffffff168173ffffffffffffffffffffffffffffffffffffffff16148015611d415750611d40673d0ae3647782e1ac60c01b61455d565b5b80611db55750600260009054906101000a900473ffffffffffffffffffffffffffffffffffffffff1673ffffffffffffffffffffffffffffffffffffffff163373ffffffffffffffffffffffffffffffffffffffff16148015611db45750611db3670f1f230e6f49e0ed60c01b61455d565b5b5b611dbe57600080fd5b611dd26733c0a32abdd28c5660c01b61455a565b611de667d7d71e57a031088260c01b61455a565b611dfa671fec78a8adf074e660c01b61455a565b611e0e67f8baab32b6d8334660c01b61455a565b611e2267f410729fcf095db060c01b61455a565b611e3667f8b74e6132df834760c01b61455a565b600083519050611e5067fd8c45d3c3807f6060c01b61455a565b611e6467675abe8008adab6360c01b61455a565b611e7867bb7feda0150e8d4760c01b61455a565b60008111611ebb576040517f08c379a0000000000000000000000000000000000000000000000000000000008152600401611eb2906161d7565b60405180910390fd5b611ece66c222e26d4a1f0160c01b61455a565b611ee267ef0f6218e77d281260c01b61455a565b611ef6678ae73c189bab08bc60c01b61455a565b600080600080600a60000160009054906101000a900473ffffffffffffffffffffffffffffffffffffffff1673ffffffffffffffffffffffffffffffffffffffff16635d998912600760109054906101000a90046fffffffffffffffffffffffffffffffff16600a60010160109054906101000a90046fffffffffffffffffffffffffffffffff16600a60020154896040518563ffffffff1660e01b8152600401611fa494939291906161f7565b60a060405180830381865afa158015611fc1573d6000803e3d6000fd5b505050506040513d601f19601f82011682018060405250810190611fe5919061628b565b945050935093509350612002676ce2f1f41139cd1560c01b61455a565b612016671c8cfb6f13da3d2c60c01b61455a565b61202a67258a456b7fdcffeb60c01b61455a565b6000600281111561203e5761203d616306565b5b84600281111561205157612050616306565b5b14612091576040517f08c379a000000000000000000000000000000000000000000000000000000000815260040161208890616381565b60405180910390fd5b6120a567f4420196b4e1080a60c01b61455a565b6120b967f6aefc95ca11044e60c01b61455a565b6120cd67783bf1d36716908b60c01b61455a565b60006120d88261549e565b90506120ee6754714de619402d4460c01b61455a565b80600f60008a73ffffffffffffffffffffffffffffffffffffffff1673ffffffffffffffffffffffffffffffffffffffff16815260200190815260200160002060030160008282546121409190616514565b9250508190555061215b674616127a8a972c7860c01b61455a565b806006600082825461216d9190616514565b9250508190555061218867a13983a6221b4cd160c01b61455a565b85600f60008a73ffffffffffffffffffffffffffffffffffffffff1673ffffffffffffffffffffffffffffffffffffffff16815260200190815260200160002060000160008282546121da9190616514565b925050819055506121f567263857023dfb0d0b60c01b61455a565b85600a600301600082825461220a9190616514565b925050819055506122256751b47bc4c79aa53860c01b61455a565b61223967e3d2cc922d71d9d760c01b61455a565b6122456002858561517e565b61225967070dd9a0d62ed76960c01b61455a565b61226d67c6fc69281588fc1660c01b61455a565b61227989878a30614e6e565b61228d672ade07e00cb3e82d60c01b61455a565b6122a167cdfc37e1006bbc4c60c01b61455a565b8773ffffffffffffffffffffffffffffffffffffffff167fb0c56c1c40b91909a8c61fe7d6feb60c8dc44e92ce0cff5beb3c5d449a7eb309878b6040516122e9929190616771565b60405180910390a2505050505050505050565b600061231267d822a9cadcad034860c01b61455a565b612326674c5311c7bb3459c160c01b61455a565b61233a6780b4e5f2865fc9dd60c01b61455a565b6000600a60000160009054906101000a900473ffffffffffffffffffffffffffffffffffffffff1673ffffffffffffffffffffffffffffffffffffffff1663c728b36485600a60010160109054906101000a90046fffffffffffffffffffffffffffffffff1686896040518563ffffffff1660e01b81526004016123c194939291906161f7565b60a060405180830381865afa1580156123de573d6000803e3d6000fd5b505050506040513d601f19601f82011682018060405250810190612402919061628b565b94505050505061241c6727ba63ff0bf4433160c01b61455a565b6124306728dde1fd29c9833f60c01b61455a565b809150509392505050565b6000612451672c6ca877dd9f3afd60c01b61455a565b8161246667f7c03f07dd0166a460c01b61455a565b61247a6790e4b8a9e0b07f7460c01b61455a565b61248e67d72bcd4dcaabe56460c01b61455a565b6124a267046a99c392b024eb60c01b61455a565b3373ffffffffffffffffffffffffffffffffffffffff168173ffffffffffffffffffffffffffffffffffffffff161480156124ed57506124ec673d0ae3647782e1ac60c01b61455d565b5b806125615750600260009054906101000a900473ffffffffffffffffffffffffffffffffffffffff1673ffffffffffffffffffffffffffffffffffffffff163373ffffffffffffffffffffffffffffffffffffffff16148015612560575061255f670f1f230e6f49e0ed60c01b61455d565b5b5b61256a57600080fd5b61257e6733c0a32abdd28c5660c01b61455a565b61259267d7d71e57a031088260c01b61455a565b6125a667a0ff46ee6bee542f60c01b61455a565b6125ba67826240112ddd2d8660c01b61455a565b6125ce674f1fbcebe20f10bb60c01b61455a565b6125e2679bccfd1e38f4bee860c01b61455a565b6000845190506125fc67efa4923d3a540cb260c01b61455a565b612610670ae926e8ce9c0d5760c01b61455a565b61262467261484b1642451a860c01b61455a565b60008111612667576040517f08c379a000000000000000000000000000000000000000000000000000000000815260040161265e906161d7565b60405180910390fd5b61267b67e7f467fe2288a64360c01b61455a565b61268f67041d4e714b688d0560c01b61455a565b6126a367f601c8badc69a6c660c01b61455a565b6000806000806000600a60000160009054906101000a900473ffffffffffffffffffffffffffffffffffffffff1673ffffffffffffffffffffffffffffffffffffffff16635d998912600a60010160009054906101000a90046fffffffffffffffffffffffffffffffff16600a60010160109054906101000a90046fffffffffffffffffffffffffffffffff16600a600201548a6040518563ffffffff1660e01b815260040161275694939291906161f7565b60a060405180830381865afa158015612773573d6000803e3d6000fd5b505050506040513d601f19601f82011682018060405250810190612797919061628b565b945094509450945094506127b5676bb7a5b173c0359460c01b61455a565b6127c96746eeeffd8c8792b860c01b61455a565b6127dd67f69d50b112b2fc6560c01b61455a565b600060028111156127f1576127f0616306565b5b85600281111561280457612803616306565b5b14612844576040517f08c379a000000000000000000000000000000000000000000000000000000000815260040161283b90616381565b60405180910390fd5b6128586727ba0663e86d885d60c01b61455a565b61286c67e1d2f78db14a773c60c01b61455a565b61288067940ee081f848c93760c01b61455a565b61289467faef5fcea879cb0760c01b61455a565b600a600301548611156128dc576040517f08c379a00000000000000000000000000000000000000000000000000000000081526004016128d3906163ed565b60405180910390fd5b6128f0674c72478b2de3166460c01b61455a565b61290467baede4afdcf176ed60c01b61455a565b612918676c9ff36db5c8dcd060c01b61455a565b61292c674eb23f24b7fb004b60c01b61455a565b8034101561296f576040517f08c379a0000000000000000000000000000000000000000000000000000000008152600401612966906167ed565b60405180910390fd5b612983670cdf26d71eedd67f60c01b61455a565b6129976764aab5bd9fbffb7660c01b61455a565b85600360008282546129a99190616514565b925050819055506129c467ec1eed2fe18cb2a260c01b61455a565b85600a60030160008282546129d99190616548565b925050819055506129f467bd8a3ba078b252b660c01b61455a565b85600a6004016000828254612a099190616514565b92505081905550612a2467df093b2b56de72b160c01b61455a565b612a2c614568565b9750612a4267275e6d6b4ea204e960c01b61455a565b612a56675a60ad7415253c5460c01b61455a565b612a61848484614bc1565b612a756748581b0c04949bd660c01b61455a565b612a8967352bcb95be6b736660c01b61455a565b8873ffffffffffffffffffffffffffffffffffffffff166108fc8234612aaf9190616548565b9081150290604051600060405180830381858888f19350505050158015612ada573d6000803e3d6000fd5b50612aef67d14f25e29490264b60c01b61455a565b612b0367129bf0ef861fd38f60c01b61455a565b600260009054906101000a900473ffffffffffffffffffffffffffffffffffffffff1673ffffffffffffffffffffffffffffffffffffffff166108fc899081150290604051600060405180830381858888f19350505050158015612b6b573d6000803e3d6000fd5b50612b8067dbc0f7db0495213660c01b61455a565b612b9467d4b47da89f9b6f9260c01b61455a565b612ba18a8b51308c614e6e565b612bb5670f5e2777b85155a460c01b61455a565b612bc9679a237ad48f06ff9260c01b61455a565b8873ffffffffffffffffffffffffffffffffffffffff167f6469db8d2898ffda696aafd09bc1708333f063d0086bae9245bfbfddd7307ff68b83604051612c1192919061662b565b60405180910390a25050505050505092915050565b612c3a67459eec30dc28121460c01b61455a565b612c4e672366e797e59381a860c01b61455a565b612c6267eef7861c047131b160c01b61455a565b600082519050612c7c6702ed6045448436b660c01b61455a565b612c90671dec387ce4c16ba560c01b61455a565b6000600f60008473ffffffffffffffffffffffffffffffffffffffff1673ffffffffffffffffffffffffffffffffffffffff168152602001908152602001600020600101549050612ceb67bf9209e9f3c5374660c01b61455a565b612cff67cb69bdf4b66368b160c01b61455a565b6000600f60008573ffffffffffffffffffffffffffffffffffffffff1673ffffffffffffffffffffffffffffffffffffffff168152602001908152602001600020600201549050612d5a67f80a718b0a1c65aa60c01b61455a565b612d6e67b41a420f09c3bc5060c01b61455a565b6000612d798561556e565b9050612d8f67ee7e408771f632de60c01b61455a565b612da367e5314984e41130d860c01b61455a565b6000612db967c9bf919ee20f5c5660c01b61455a565b612dcd673c8290ca90cae8c660c01b61455a565b612de1671454268df3de104760c01b61455a565b87600a600401541015612e29576040517f08c379a0000000000000000000000000000000000000000000000000000000008152600401612e20906166a7565b60405180910390fd5b612e3d674968627609921d2a60c01b61455a565b612e51676df1984ff8400c4d60c01b61455a565b612e6567dca19fde5aba734f60c01b61455a565b612e7967275a1192fda4086a60c01b61455a565b87600f60008873ffffffffffffffffffffffffffffffffffffffff1673ffffffffffffffffffffffffffffffffffffffff16815260200190815260200160002060010154148015612eda5750612ed9671bf9d0bdf5edcc0760c01b61455d565b5b80612f05575087600a60040154148015612f045750612f03674413abd010112b2b60c01b61455d565b5b5b612f44576040517f08c379a0000000000000000000000000000000000000000000000000000000008152600401612f3b90616713565b60405180910390fd5b612f58670221eb797bd5baff60c01b61455a565b612f6c6769b55cd351e94ee860c01b61455a565b612f8067ffd649a0582f549d60c01b61455a565b612f94673012fde2abe69c1160c01b61455a565b8488600f60008973ffffffffffffffffffffffffffffffffffffffff1673ffffffffffffffffffffffffffffffffffffffff16815260200190815260200160002060010154612fe39190616548565b14613023576040517f08c379a000000000000000000000000000000000000000000000000000000000815260040161301a90616859565b60405180910390fd5b61303767c08be3786dc7c72160c01b61455a565b61304b67da82e6055528802b60c01b61455a565b87600a60040160008282546130609190616548565b9250508190555061307b67cb87039ed884c78460c01b61455a565b6000600f60008873ffffffffffffffffffffffffffffffffffffffff1673ffffffffffffffffffffffffffffffffffffffff168152602001908152602001600020600101819055506130d767d9781048fc8e9cd760c01b61455a565b6000600f60008873ffffffffffffffffffffffffffffffffffffffff1673ffffffffffffffffffffffffffffffffffffffff168152602001908152602001600020600201819055506131336744883322948bb84360c01b61455a565b600f60008773ffffffffffffffffffffffffffffffffffffffff1673ffffffffffffffffffffffffffffffffffffffff16815260200190815260200160002060040154600560008282546131879190616548565b925050819055506131a26703a0fc6f99dc50ed60c01b61455a565b81600860008282546131b49190616548565b925050819055506131cf67a53735f9288a070b60c01b61455a565b6000600f60008873ffffffffffffffffffffffffffffffffffffffff1673ffffffffffffffffffffffffffffffffffffffff1681526020019081526020016000206004018190555061322b677670ef6eb0f9dd7460c01b61455a565b61323f67aa94ba5e3202c2a560c01b61455a565b6000881461346f5761325b67f4235957e3f978d060c01b61455a565b61326f670a290ec51043e6da60c01b61455a565b61328367933c18934928f5e660c01b61455a565b6000806000600a60000160009054906101000a900473ffffffffffffffffffffffffffffffffffffffff1673ffffffffffffffffffffffffffffffffffffffff16635d998912600760009054906101000a90046fffffffffffffffffffffffffffffffff16600a60010160109054906101000a90046fffffffffffffffffffffffffffffffff16670de0b6b3a76400008f6040518563ffffffff1660e01b815260040161333394939291906161f7565b60a060405180830381865afa158015613350573d6000803e3d6000fd5b505050506040513d601f19601f82011682018060405250810190613374919061628b565b50509250925092506133906754ab6eec804da38b60c01b61455a565b6133a467983fd74f3e1f029a60c01b61455a565b6133b867b9181a5ebc0e677360c01b61455a565b600060028111156133cc576133cb616306565b5b8360028111156133df576133de616306565b5b1461341f576040517f08c379a000000000000000000000000000000000000000000000000000000000815260040161341690616381565b60405180910390fd5b613433679e1761f146dee2ff60c01b61455a565b6134476757ec7d49930c184860c01b61455a565b61345b6714f7eb471ed7769e60c01b61455a565b6134676001838361517e565b505050613484565b6134836768c8daafdbd64e5c60c01b61455a565b5b613498674671b08b1883740160c01b61455a565b6134ac67c755d37c9c2405d960c01b61455a565b83881015613963576134c867ead909aad6f1754560c01b61455a565b6134dc676d27f522d04e474c60c01b61455a565b6134f06751af2a24bb2c700260c01b61455a565b600080600a60000160009054906101000a900473ffffffffffffffffffffffffffffffffffffffff1673ffffffffffffffffffffffffffffffffffffffff16635d998912600760009054906101000a90046fffffffffffffffffffffffffffffffff16600a60010160109054906101000a90046fffffffffffffffffffffffffffffffff16670de0b6b3a76400008e8b61358a9190616548565b6040518563ffffffff1660e01b81526004016135a994939291906161f7565b60a060405180830381865afa1580156135c6573d6000803e3d6000fd5b505050506040513d601f19601f820116820180604052508101906135ea919061628b565b9450505050915061360567a9227101b2f9955e60c01b61455a565b613619679edf9dc1c1a98b3660c01b61455a565b61362d67a241af22a4f387e560c01b61455a565b6000600281111561364157613640616306565b5b82600281111561365457613653616306565b5b14613694576040517f08c379a000000000000000000000000000000000000000000000000000000000815260040161368b90616381565b60405180910390fd5b6136a867560127ccff5349a560c01b61455a565b6136bc67cdcf1f29f60015ba60c01b61455a565b6136d06757458ec35a4fa6f660c01b61455a565b600080600a60000160009054906101000a900473ffffffffffffffffffffffffffffffffffffffff1673ffffffffffffffffffffffffffffffffffffffff1663c728b364600760109054906101000a90046fffffffffffffffffffffffffffffffff16600a60010160109054906101000a90046fffffffffffffffffffffffffffffffff16670de0b6b3a76400008d6040518563ffffffff1660e01b815260040161377e94939291906161f7565b60a060405180830381865afa15801561379b573d6000803e3d6000fd5b505050506040513d601f19601f820116820180604052508101906137bf919061628b565b505050915091506137da6752e5ae745cabf75860c01b61455a565b6137ee67110fb740eb04428b60c01b61455a565b61380267cf1a2b6d2ffe4bec60c01b61455a565b6000600281111561381657613815616306565b5b82600281111561382957613828616306565b5b14613869576040517f08c379a000000000000000000000000000000000000000000000000000000000815260040161386090616381565b60405180910390fd5b61387d6730ef1fc0b198a9cd60c01b61455a565b61389167c88d9d662de9dff660c01b61455a565b88600a60030160008282546138a69190616548565b925050819055506138c167e3ae2629d1ad417e60c01b61455a565b88600460008282546138d39190616548565b925050819055506138ee6737b6426e3ad396fc60c01b61455a565b61390267986223728335e10960c01b61455a565b61390f600282600061517e565b61392367164086e6c178ab2560c01b61455a565b61393767082ac9ce479ec42360c01b61455a565b6139438b8a308d614e6e565b61395767ba4b6897f7c2f1aa60c01b61455a565b82945050505050613978565b61397767e42cae1bf65a13d960c01b61455a565b5b61398c67dfab509a01249ae960c01b61455a565b6139a06778d84a50276ccb9b60c01b61455a565b82811015613a3b576139bc67a8d5c1c1c11a02ee60c01b61455a565b6139d067cd52ab9294a749a760c01b61455a565b6139e4675b3cc356ab70fa3260c01b61455a565b8573ffffffffffffffffffffffffffffffffffffffff166108fc8285613a0a9190616548565b9081150290604051600060405180830381858888f19350505050158015613a35573d6000803e3d6000fd5b50613a50565b613a4f67d9422f739fe766db60c01b61455a565b5b613a6467673bf671541f860660c01b61455a565b613a78678842a8e8689496a860c01b61455a565b6000821115613b0957613a9567d2afdb8052c997ef60c01b61455a565b613aa9673fefa1c46372b38660c01b61455a565b613abd6746919f69e0643e5060c01b61455a565b8573ffffffffffffffffffffffffffffffffffffffff166108fc839081150290604051600060405180830381858888f19350505050158015613b03573d6000803e3d6000fd5b50613b1e565b613b1d6735bd2c4950eb74de60c01b61455a565b5b613b3267c036a985c5ffe61560c01b61455a565b613b4667e4c86317e641253560c01b61455a565b8573ffffffffffffffffffffffffffffffffffffffff167f182a15e7df1d8f3dd0b212833cac160a9efae034c417f18c5b9350d4b89fff0088868686604051613b929493929190616879565b60405180910390a25050505050505050565b6000613bba678ea5f33422746ef960c01b61455a565b613bce67e2c1fc61c392de1b60c01b61455a565b613be2673564e8243cf99ac260c01b61455a565b6000600a60000160009054906101000a900473ffffffffffffffffffffffffffffffffffffffff1673ffffffffffffffffffffffffffffffffffffffff16635d99891285600a60010160109054906101000a90046fffffffffffffffffffffffffffffffff1686896040518563ffffffff1660e01b8152600401613c6994939291906161f7565b60a060405180830381865afa158015613c86573d6000803e3d6000fd5b505050506040513d601f19601f82011682018060405250810190613caa919061628b565b945050505050613cc46776abd29f8b510cec60c01b61455a565b613cd8674118914d446b3fe260c01b61455a565b809150509392505050565b60055481565b600a8060000160009054906101000a900473ffffffffffffffffffffffffffffffffffffffff16908060010160009054906101000a90046fffffffffffffffffffffffffffffffff16908060010160109054906101000a90046fffffffffffffffffffffffffffffffff16908060020154908060030154908060040154905086565b613d73615925565b613d8767a428c1fd77666fdb60c01b61455a565b613d9b67e0f80307ad82ea9160c01b61455a565b613daf676c9542c73587902860c01b61455a565b600a6040518060c00160405290816000820160009054906101000a900473ffffffffffffffffffffffffffffffffffffffff1673ffffffffffffffffffffffffffffffffffffffff1673ffffffffffffffffffffffffffffffffffffffff1681526020016001820160009054906101000a90046fffffffffffffffffffffffffffffffff166fffffffffffffffffffffffffffffffff166fffffffffffffffffffffffffffffffff1681526020016001820160109054906101000a90046fffffffffffffffffffffffffffffffff166fffffffffffffffffffffffffffffffff166fffffffffffffffffffffffffffffffff1681526020016002820154815260200160038201548152602001600482015481525050905090565b613ed1615995565b613ee5677e53dca7ba07991160c01b61455a565b613ef96714e108841484594160c01b61455a565b613f0d675929486a57ff6bb060c01b61455a565b600f60008373ffffffffffffffffffffffffffffffffffffffff1673ffffffffffffffffffffffffffffffffffffffff1681526020019081526020016000206040518060a0016040529081600082015481526020016001820154815260200160028201548152602001600382015481526020016004820154815250509050919050565b6000613fa66724d7addad8f87e1d60c01b61455a565b613fba67fdb057096d5949e560c01b61455a565b613fce67af849787d2e9183260c01b61455a565b6000600554600f60008573ffffffffffffffffffffffffffffffffffffffff1673ffffffffffffffffffffffffffffffffffffffff168152602001908152602001600020600401546008546005546140269190616514565b61403091906168c5565b61403a919061694e565b905061405067bd370e109a97a1a660c01b61455a565b614064674c5c0f3960f3fd3160c01b61455a565b600f60008473ffffffffffffffffffffffffffffffffffffffff1673ffffffffffffffffffffffffffffffffffffffff1681526020019081526020016000206004015481111561412b576140c267e1d45be3588f5c3060c01b61455a565b6140d667eb586d0547af44a260c01b61455a565b600f60008473ffffffffffffffffffffffffffffffffffffffff1673ffffffffffffffffffffffffffffffffffffffff16815260200190815260200160002060040154816141249190616548565b9150614158565b61413f67d6f451df0f6f99eb60c01b61455a565b61415367bf348064c5245f9e60c01b61455a565b600091505b50919050565b60005481565b600760009054906101000a90046fffffffffffffffffffffffffffffffff1681565b600160009054906101000a900473ffffffffffffffffffffffffffffffffffffffff1681565b60065481565b60045481565b6141cc67b9a645571d77a1bc60c01b61455a565b6141e067ec11f5025fe6567860c01b61455a565b6141f4672936847e4085c20360c01b61455a565b614208675294f4126f274ab160c01b61455a565b61421c671e1c6f03167983b160c01b61455a565b3373ffffffffffffffffffffffffffffffffffffffff16600260009054906101000a900473ffffffffffffffffffffffffffffffffffffffff1673ffffffffffffffffffffffffffffffffffffffff16146142ac576040517f08c379a00000000000000000000000000000000000000000000000000000000081526004016142a3906169cb565b60405180910390fd5b6142c067d5ed4d02c7852ad460c01b61455a565b6142d4678d987a90b23575eb60c01b61455a565b6142e867d63278b461d0a4b460c01b61455a565b6142fc67ab0c9f920298064560c01b61455a565b6143106778c766ed9c3d459660c01b61455a565b80600260006101000a81548173ffffffffffffffffffffffffffffffffffffffff021916908373ffffffffffffffffffffffffffffffffffffffff16021790555050565b600061436a677037646eaf9b227260c01b61455a565b61437e674b6eae2648da4e9360c01b61455a565b614392679a94aeabfd4c8ab460c01b61455a565b6000600654600f60008573ffffffffffffffffffffffffffffffffffffffff1673ffffffffffffffffffffffffffffffffffffffff168152602001908152602001600020600301546009546006546143ea9190616514565b6143f491906168c5565b6143fe919061694e565b9050614414672ae78dc59e7cfad660c01b61455a565b61442867efd5cd8eb80560bc60c01b61455a565b600f60008473ffffffffffffffffffffffffffffffffffffffff1673ffffffffffffffffffffffffffffffffffffffff168152602001908152602001600020600301548111156144ef5761448667434c30af151aca9e60c01b61455a565b61449a678c9f4341c2be56be60c01b61455a565b600f60008473ffffffffffffffffffffffffffffffffffffffff1673ffffffffffffffffffffffffffffffffffffffff16815260200190815260200160002060030154816144e89190616548565b915061451c565b61450367d13c15b6a14f2ade60c01b61455a565b61451767c1e1f67275feb1cc60c01b61455a565b600091505b50919050565b60085481565b60095481565b600260009054906101000a900473ffffffffffffffffffffffffffffffffffffffff1681565b60035481565b50565b600060019050919050565b600061457e6729a9ee6f9256adcf60c01b61455a565b61459267777f384913dc74ad60c01b61455a565b6145a6674b202db556576c1c60c01b61455a565b60006003541180156145ba57506000600454115b15614ba9576145d3679965e227c6bc1a5160c01b61455a565b6145e7670639b008009ac34a60c01b61455a565b6145fb676cc32dfcd9e3462160c01b61455a565b600454600354106148b05761461a677aab4fca377364d160c01b61455a565b61462e67cd1706b071f45de860c01b61455a565b614642676cd77d832b82073760c01b61455a565b600080600a60000160009054906101000a900473ffffffffffffffffffffffffffffffffffffffff1673ffffffffffffffffffffffffffffffffffffffff16635b645d80600a60010160009054906101000a90046fffffffffffffffffffffffffffffffff16600a60010160109054906101000a90046fffffffffffffffffffffffffffffffff16600a600201546004546040518563ffffffff1660e01b81526004016146f294939291906161f7565b6040805180830381865afa15801561470e573d6000803e3d6000fd5b505050506040513d601f19601f8201168201806040525081019061473291906169eb565b9150915061474a67f50367d8e8562f0360c01b61455a565b61475e679bf257d62be8e76360c01b61455a565b614772674e5e6248b2e5008560c01b61455a565b6000600281111561478657614785616306565b5b82600281111561479957614798616306565b5b146147d9576040517f08c379a00000000000000000000000000000000000000000000000000000000081526004016147d090616381565b60405180910390fd5b6147ed67dc54c5d3f6eb160960c01b61455a565b61480167207f2e723a8c0a3a60c01b61455a565b614820600054670de0b6b3a76400008361573c9092919063ffffffff16565b9250614836674e94aac412b0ad2f60c01b61455a565b61484a67a0b3587425ed167360c01b61455a565b61485e83826148599190616548565b615788565b6148726747c02a39b0c35aa860c01b61455a565b600454600360008282546148869190616548565b925050819055506148a167fe6f9893ef2572fe60c01b61455a565b60006004819055505050614ba4565b6148c4673a10d0e2f65ecab360c01b61455a565b6148d867d2637afe047fcb4f60c01b61455a565b6003546004541115614b8e576148f867c867830b83af496660c01b61455a565b61490c673f1add2334e7d56c60c01b61455a565b61492067d56bfb388dd8494360c01b61455a565b600080600a60000160009054906101000a900473ffffffffffffffffffffffffffffffffffffffff1673ffffffffffffffffffffffffffffffffffffffff166388ec429a600a60010160009054906101000a90046fffffffffffffffffffffffffffffffff16600a60010160109054906101000a90046fffffffffffffffffffffffffffffffff16600a600201546003546040518563ffffffff1660e01b81526004016149d094939291906161f7565b6040805180830381865afa1580156149ec573d6000803e3d6000fd5b505050506040513d601f19601f82011682018060405250810190614a1091906169eb565b91509150614a28674a0f4702c8f8746060c01b61455a565b614a3c6733d5b690e9eafc0f60c01b61455a565b614a5067a4f41cd97c0bc56360c01b61455a565b60006002811115614a6457614a63616306565b5b826002811115614a7757614a76616306565b5b14614ab7576040517f08c379a0000000000000000000000000000000000000000000000000000000008152600401614aae90616381565b60405180910390fd5b614acb67d9bc912d2ab2b7a860c01b61455a565b614adf67711ddb77ac3819e660c01b61455a565b614afe600054670de0b6b3a76400008361573c9092919063ffffffff16565b9250614b1467135a4248e025ed0460c01b61455a565b614b28676c42d75f2241af1460c01b61455a565b614b3c8382614b379190616548565b615788565b614b50674edcbb09acc738a860c01b61455a565b60035460046000828254614b649190616548565b92505081905550614b7f6792f0ff634feb7e9c60c01b61455a565b60006003819055505050614ba3565b614ba267a7c6dfe909436fad60c01b61455a565b5b5b614bbe565b614bbd67e2db4c159568787a60c01b61455a565b5b90565b614bd567faadced20bab014d60c01b61455a565b614be967243adaf23a5597ad60c01b61455a565b614bfd67a987489d641097b860c01b61455a565b826fffffffffffffffffffffffffffffffff16600a60010160009054906101000a90046fffffffffffffffffffffffffffffffff166fffffffffffffffffffffffffffffffff1614614cb257614c5d67cf832fb89776ee5f60c01b61455a565b614c7167705b72d5c28e411b60c01b61455a565b82600a60010160006101000a8154816fffffffffffffffffffffffffffffffff02191690836fffffffffffffffffffffffffffffffff160217905550614cc7565b614cc66738ad3bab0694eb3260c01b61455a565b5b614cdb677eb2b57be66b117d60c01b61455a565b614cef677d18c87e9d751d4560c01b61455a565b816fffffffffffffffffffffffffffffffff16600a60010160109054906101000a90046fffffffffffffffffffffffffffffffff166fffffffffffffffffffffffffffffffff1614158015614d5757506000826fffffffffffffffffffffffffffffffff1614155b15614dc557614d706726b7025d5728c70d60c01b61455a565b614d8467bf75587b32fd41ae60c01b61455a565b81600a60010160106101000a8154816fffffffffffffffffffffffffffffffff02191690836fffffffffffffffffffffffffffffffff160217905550614dda565b614dd967f9c7dfde1aa7f8db60c01b61455a565b5b614dee67d5a627e732e3046c60c01b61455a565b614e026783b5d4b9c849de9960c01b61455a565b80600a6002015414158015614e18575060008114155b15614e5457614e31678f7c617a9ab1160860c01b61455a565b614e45675f273e338824584c60c01b61455a565b80600a60020181905550614e69565b614e686769f9abc559ff563a60c01b61455a565b5b505050565b614e8267ee4f8bf4f533677b60c01b61455a565b614e966710ff3f673af8ffca60c01b61455a565b614eaa67caecfd725be05f0860c01b61455a565b614ebe67aa79903d4af7eddd60c01b61455a565b60005b83811015614fa957614edd673cb7ba60c2af87f760c01b61455a565b614ef1670e9d478d6c1642cf60c01b61455a565b600160009054906101000a900473ffffffffffffffffffffffffffffffffffffffff1673ffffffffffffffffffffffffffffffffffffffff1663b88d4fde8484888581518110614f4457614f43616a2b565b5b60200260200101516040518463ffffffff1660e01b8152600401614f6a93929190616a91565b600060405180830381600087803b158015614f8457600080fd5b505af1158015614f98573d6000803e3d6000fd5b505050508080600101915050614ec1565b5050505050565b6000614fc667180ce93895cddc0260c01b61455a565b614fda67c27d4dc031821da160c01b61455a565b614fee676268146098a5546b60c01b61455a565b6000600654600f60008573ffffffffffffffffffffffffffffffffffffffff1673ffffffffffffffffffffffffffffffffffffffff168152602001908152602001600020600301546009546006546150469190616514565b61505091906168c5565b61505a919061694e565b90506150706785a8e642b532d03060c01b61455a565b6150846765821050b6f0909360c01b61455a565b600f60008473ffffffffffffffffffffffffffffffffffffffff1673ffffffffffffffffffffffffffffffffffffffff1681526020019081526020016000206003015481111561514b576150e2678687aa3a591585aa60c01b61455a565b6150f667d8b922775bbbe07860c01b61455a565b600f60008473ffffffffffffffffffffffffffffffffffffffff1673ffffffffffffffffffffffffffffffffffffffff16815260200190815260200160002060030154816151449190616548565b9150615178565b61515f67e143968cff0caa5960c01b61455a565b61517367cd44e4540f9678f460c01b61455a565b600091505b50919050565b61519267e3d380a86e4ce7ca60c01b61455a565b6151a66733a60a6582b54fc960c01b61455a565b6151ba67fc3d8bf163c8ce8f60c01b61455a565b816fffffffffffffffffffffffffffffffff16600760009054906101000a90046fffffffffffffffffffffffffffffffff166fffffffffffffffffffffffffffffffff161415801561520c5750600183145b156152775761522567380a75174fac0d5a60c01b61455a565b61523967159e686ead0613a260c01b61455a565b81600760006101000a8154816fffffffffffffffffffffffffffffffff02191690836fffffffffffffffffffffffffffffffff16021790555061528c565b61528b6715c614190b5f4e1660c01b61455a565b5b6152a0676eb8ead79f9db45160c01b61455a565b6152b4672ce27737f0c8148f60c01b61455a565b816fffffffffffffffffffffffffffffffff16600760109054906101000a90046fffffffffffffffffffffffffffffffff166fffffffffffffffffffffffffffffffff16141580156153065750600283145b156153715761531f67ef3442d1072eb21760c01b61455a565b6153336782be07ef46f8b16360c01b61455a565b81600760106101000a8154816fffffffffffffffffffffffffffffffff02191690836fffffffffffffffffffffffffffffffff160217905550615386565b61538567335137defcb31a7c60c01b61455a565b5b61539a679a702ada28e7b42960c01b61455a565b6153ae67ae53cbf9badb6cbb60c01b61455a565b806fffffffffffffffffffffffffffffffff16600a60010160109054906101000a90046fffffffffffffffffffffffffffffffff166fffffffffffffffffffffffffffffffff161415801561541657506000816fffffffffffffffffffffffffffffffff1614155b156154845761542f67b5987a9713d27c9860c01b61455a565b61544367dd4bd9ff95bc1ab160c01b61455a565b80600a60010160106101000a8154816fffffffffffffffffffffffffffffffff02191690836fffffffffffffffffffffffffffffffff160217905550615499565b615498673baf5ca7241df2e360c01b61455a565b5b505050565b60006154b467c8bcd8cf8887821860c01b61455a565b6154c8672dfacee1b4100f6b60c01b61455a565b6154dc67cd75a7aa15b1523060c01b61455a565b600060065403615516576154fa67981ac276155a597f60c01b61455a565b61550e670d3e82a5c1aa978660c01b61455a565b819050615569565b61552a674a270025aade7a6c60c01b61455a565b61553e670c665011594723c560c01b61455a565b60095460065461554e9190616514565b8260065461555c91906168c5565b615566919061694e565b90505b919050565b600061558467d53cfbe34ff484d560c01b61455a565b615598679725b065cb8ce37560c01b61455a565b6155ac67f493c6a4dc613d0460c01b61455a565b6000600554600f60008573ffffffffffffffffffffffffffffffffffffffff1673ffffffffffffffffffffffffffffffffffffffff168152602001908152602001600020600401546008546005546156049190616514565b61560e91906168c5565b615618919061694e565b905061562e6770df38d18fe02e5d60c01b61455a565b615642671e9e2795e3f94d6860c01b61455a565b600f60008473ffffffffffffffffffffffffffffffffffffffff1673ffffffffffffffffffffffffffffffffffffffff16815260200190815260200160002060040154811115615709576156a06782127c6209e69ef960c01b61455a565b6156b46731236c19ab6704f860c01b61455a565b600f60008473ffffffffffffffffffffffffffffffffffffffff1673ffffffffffffffffffffffffffffffffffffffff16815260200190815260200160002060040154816157029190616548565b9150615736565b61571d679e9e266e6a02839760c01b61455a565b61573167defe8743dffa96d460c01b61455a565b600091505b50919050565b600061575267200fa0d3ed6ccf7160c01b615922565b61576667dc5f575a78bde8f460c01b615922565b8284029050828482041484151761577c57600080fd5b81810490509392505050565b61579c670e59e06961c88aa960c01b61455a565b6157b06722631fb0a1c939e660c01b61455a565b6157c4676c3fd4f762e53ba260c01b61455a565b600060055403615814576157e267eb39abfd1257658060c01b61455a565b6157f6671400523b257a0a0d60c01b61455a565b80600960008282546158089190616514565b9250508190555061591f565b6158286740032335103d893860c01b61455a565b61583c6707723d07bbf0400d60c01b61455a565b60006006540361588c5761585a6702fa9e36fb0d517260c01b61455a565b61586e67266cb3c603ae8da660c01b61455a565b80600860008282546158809190616514565b9250508190555061591e565b6158a0676280a9006c385e5b60c01b61455a565b6158b46738d1ee86f0b0282560c01b61455a565b6002816158c1919061694e565b600860008282546158d29190616514565b925050819055506158ed67816a6fea6514185c60c01b61455a565b6002816158fa919061694e565b816159059190616548565b600960008282546159169190616514565b925050819055505b5b50565b50565b6040518060c00160405280600073ffffffffffffffffffffffffffffffffffffffff16815260200160006fffffffffffffffffffffffffffffffff16815260200160006fffffffffffffffffffffffffffffffff1681526020016000815260200160008152602001600081525090565b6040518060a0016040528060008152602001600081526020016000815260200160008152602001600081525090565b6000604051905090565b600080fd5b600080fd5b600073ffffffffffffffffffffffffffffffffffffffff82169050919050565b6000615a03826159d8565b9050919050565b615a13816159f8565b8114615a1e57600080fd5b50565b600081359050615a3081615a0a565b92915050565b6000819050919050565b615a4981615a36565b8114615a5457600080fd5b50565b600081359050615a6681615a40565b92915050565b600080fd5b600080fd5b6000601f19601f8301169050919050565b7f4e487b7100000000000000000000000000000000000000000000000000000000600052604160045260246000fd5b615abf82615a76565b810181811067ffffffffffffffff82111715615ade57615add615a87565b5b80604052505050565b6000615af16159c4565b9050615afd8282615ab6565b919050565b600067ffffffffffffffff821115615b1d57615b1c615a87565b5b615b2682615a76565b9050602081019050919050565b82818337600083830152505050565b6000615b55615b5084615b02565b615ae7565b905082815260208101848484011115615b7157615b70615a71565b5b615b7c848285615b33565b509392505050565b600082601f830112615b9957615b98615a6c565b5b8135615ba9848260208601615b42565b91505092915050565b60008060008060808587031215615bcc57615bcb6159ce565b5b6000615bda87828801615a21565b9450506020615beb87828801615a21565b9350506040615bfc87828801615a57565b925050606085013567ffffffffffffffff811115615c1d57615c1c6159d3565b5b615c2987828801615b84565b91505092959194509250565b60007fffffffff0000000000000000000000000000000000000000000000000000000082169050919050565b615c6a81615c35565b82525050565b6000602082019050615c856000830184615c61565b92915050565b600067ffffffffffffffff821115615ca657615ca5615a87565b5b602082029050602081019050919050565b600080fd5b6000615ccf615cca84615c8b565b615ae7565b90508083825260208201905060208402830185811115615cf257615cf1615cb7565b5b835b81811015615d1b5780615d078882615a57565b845260208401935050602081019050615cf4565b5050509392505050565b600082601f830112615d3a57615d39615a6c565b5b8135615d4a848260208601615cbc565b91505092915050565b600080600060608486031215615d6c57615d6b6159ce565b5b600084013567ffffffffffffffff811115615d8a57615d896159d3565b5b615d9686828701615d25565b9350506020615da786828701615a57565b9250506040615db886828701615a21565b9150509250925092565b615dcb81615a36565b82525050565b6000602082019050615de66000830184615dc2565b92915050565b60006fffffffffffffffffffffffffffffffff82169050919050565b615e1181615dec565b82525050565b6000602082019050615e2c6000830184615e08565b92915050565b60008060408385031215615e4957615e486159ce565b5b600083013567ffffffffffffffff811115615e6757615e666159d3565b5b615e7385828601615d25565b9250506020615e8485828601615a21565b9150509250929050565b615e9781615dec565b8114615ea257600080fd5b50565b600081359050615eb481615e8e565b92915050565b600080600060608486031215615ed357615ed26159ce565b5b6000615ee186828701615a57565b9350506020615ef286828701615ea5565b9250506040615f0386828701615a57565b9150509250925092565b600080600060608486031215615f2657615f256159ce565b5b6000615f3486828701615a57565b935050602084013567ffffffffffffffff811115615f5557615f546159d3565b5b615f6186828701615d25565b9250506040615f7286828701615a21565b9150509250925092565b615f85816159f8565b82525050565b600060c082019050615fa06000830189615f7c565b615fad6020830188615e08565b615fba6040830187615e08565b615fc76060830186615dc2565b615fd46080830185615dc2565b615fe160a0830184615dc2565b979650505050505050565b615ff5816159f8565b82525050565b61600481615dec565b82525050565b61601381615a36565b82525050565b60c08201600082015161602f6000850182615fec565b5060208201516160426020850182615ffb565b5060408201516160556040850182615ffb565b506060820151616068606085018261600a565b50608082015161607b608085018261600a565b5060a082015161608e60a085018261600a565b50505050565b600060c0820190506160a96000830184616019565b92915050565b6000602082840312156160c5576160c46159ce565b5b60006160d384828501615a21565b91505092915050565b60a0820160008201516160f2600085018261600a565b506020820151616105602085018261600a565b506040820151616118604085018261600a565b50606082015161612b606085018261600a565b50608082015161613e608085018261600a565b50505050565b600060a08201905061615960008301846160dc565b92915050565b60006020820190506161746000830184615f7c565b92915050565b600082825260208201905092915050565b7f4e6f742030000000000000000000000000000000000000000000000000000000600082015250565b60006161c160058361617a565b91506161cc8261618b565b602082019050919050565b600060208201905081810360008301526161f0816161b4565b9050919050565b600060808201905061620c6000830187615e08565b6162196020830186615e08565b6162266040830185615dc2565b6162336060830184615dc2565b95945050505050565b6003811061624957600080fd5b50565b60008151905061625b8161623c565b92915050565b60008151905061627081615e8e565b92915050565b60008151905061628581615a40565b92915050565b600080600080600060a086880312156162a7576162a66159ce565b5b60006162b58882890161624c565b95505060206162c688828901616261565b94505060406162d788828901616261565b93505060606162e888828901616276565b92505060806162f988828901616276565b9150509295509295909350565b7f4e487b7100000000000000000000000000000000000000000000000000000000600052602160045260246000fd5b7f426f6e64696e67206572726f7200000000000000000000000000000000000000600082015250565b600061636b600d8361617a565b915061637682616335565b602082019050919050565b6000602082019050818103600083015261639a8161635e565b9050919050565b7f4e6f7420656e6f756768206c6971756964697479000000000000000000000000600082015250565b60006163d760148361617a565b91506163e2826163a1565b602082019050919050565b60006020820190508181036000830152616406816163ca565b9050919050565b7f4e6f742065787065637465642076616c75650000000000000000000000000000600082015250565b600061644360128361617a565b915061644e8261640d565b602082019050919050565b6000602082019050818103600083015261647281616436565b9050919050565b7f4e6f7420656e6f75676820636f6e74726163742062616c616e63650000000000600082015250565b60006164af601b8361617a565b91506164ba82616479565b602082019050919050565b600060208201905081810360008301526164de816164a2565b9050919050565b7f4e487b7100000000000000000000000000000000000000000000000000000000600052601160045260246000fd5b600061651f82615a36565b915061652a83615a36565b9250828201905080821115616542576165416164e5565b5b92915050565b600061655382615a36565b915061655e83615a36565b9250828203905081811115616576576165756164e5565b5b92915050565b600081519050919050565b600082825260208201905092915050565b6000819050602082019050919050565b60006165b4838361600a565b60208301905092915050565b6000602082019050919050565b60006165d88261657c565b6165e28185616587565b93506165ed83616598565b8060005b8381101561661e57815161660588826165a8565b9750616610836165c0565b9250506001810190506165f1565b5085935050505092915050565b6000604082019050818103600083015261664581856165cd565b90506166546020830184615dc2565b9392505050565b7f506f6f6c206e6f7420656e6f756768204e465400000000000000000000000000600082015250565b600061669160138361617a565b915061669c8261665b565b602082019050919050565b600060208201905081810360008301526166c081616684565b9050919050565b7f536f6d657468696e672069732077726f6e672e00000000000000000000000000600082015250565b60006166fd60138361617a565b9150616708826166c7565b602082019050919050565b6000602082019050818103600083015261672c816166f0565b9050919050565b6000606082019050818103600083015261674d81866165cd565b905061675c6020830185615dc2565b6167696040830184615dc2565b949350505050565b60006040820190506167866000830185615dc2565b818103602083015261679881846165cd565b90509392505050565b7f4e6f7420656e6f7567682076616c756500000000000000000000000000000000600082015250565b60006167d760108361617a565b91506167e2826167a1565b602082019050919050565b60006020820190508181036000830152616806816167ca565b9050919050565b7f7472756500000000000000000000000000000000000000000000000000000000600082015250565b600061684360048361617a565b915061684e8261680d565b602082019050919050565b6000602082019050818103600083015261687281616836565b9050919050565b6000608082019050818103600083015261689381876165cd565b90506168a26020830186615dc2565b6168af6040830185615dc2565b6168bc6060830184615dc2565b95945050505050565b60006168d082615a36565b91506168db83615a36565b9250817fffffffffffffffffffffffffffffffffffffffffffffffffffffffffffffffff0483118215151615616914576169136164e5565b5b828202905092915050565b7f4e487b7100000000000000000000000000000000000000000000000000000000600052601260045260246000fd5b600061695982615a36565b915061696483615a36565b9250826169745761697361691f565b5b828204905092915050565b7f6f6e6c79526f7574657200000000000000000000000000000000000000000000600082015250565b60006169b5600a8361617a565b91506169c08261697f565b602082019050919050565b600060208201905081810360008301526169e4816169a8565b9050919050565b60008060408385031215616a0257616a016159ce565b5b6000616a108582860161624c565b9250506020616a2185828601616276565b9150509250929050565b7f4e487b7100000000000000000000000000000000000000000000000000000000600052603260045260246000fd5b600082825260208201905092915050565b50565b6000616a7b600083616a5a565b9150616a8682616a6b565b600082019050919050565b6000608082019050616aa66000830186615f7c565b616ab36020830185615f7c565b616ac06040830184615dc2565b8181036060830152616ad181616a6e565b905094935050505056fea26469706673582212201c6036528e90c7ea4e3bfeac03020ba6920f01e8432d733722f039b91f6cab3264736f6c63430008100033a264697066735822122061a0de6445e2a18dfd641cba93b466f17646a2526ed6da4d9016207f6e0af44864736f6c63430008100033",
  "linkReferences": {},
  "deployedLinkReferences": {}
}