{
  "_format": "hh-sol-artifact-1",
  "contractName": "AceSwap",
  "sourceName": "contracts/AceSwap.sol",
  "abi": [
    {
      "inputs": [
        {
          "internalType": "uint256",
          "name": "_spotPrice",
          "type": "uint256"
        },
        {
          "internalType": "uint256",
          "name": "_delta",
          "type": "uint256"
        },
        {
          "internalType": "address",
          "name": "_collectionAddress",
          "type": "address"
        },
        {
          "internalType": "address",
          "name": "_protocolAddress",
          "type": "address"
        },
        {
          "internalType": "address",
          "name": "_createAddress",
          "type": "address"
        }
      ],
      "stateMutability": "nonpayable",
      "type": "constructor"
    },
    {
      "anonymous": false,
      "inputs": [
        {
          "indexed": true,
          "internalType": "address",
          "name": "staker",
          "type": "address"
        },
        {
          "indexed": false,
          "internalType": "uint256[]",
          "name": "tokenIds",
          "type": "uint256[]"
        },
        {
          "indexed": false,
          "internalType": "uint256",
          "name": "removeLP",
          "type": "uint256"
        },
        {
          "indexed": false,
          "internalType": "uint256",
          "name": "eventId",
          "type": "uint256"
        }
      ],
      "name": "RemoveLP",
      "type": "event"
    },
    {
      "anonymous": false,
      "inputs": [
        {
          "indexed": true,
          "internalType": "address",
          "name": "staker",
          "type": "address"
        },
        {
          "indexed": false,
          "internalType": "uint256[]",
          "name": "tokenIds",
          "type": "uint256[]"
        },
        {
          "indexed": false,
          "internalType": "uint256",
          "name": "LP",
          "type": "uint256"
        },
        {
          "indexed": false,
          "internalType": "uint256",
          "name": "eventId",
          "type": "uint256"
        }
      ],
      "name": "StakeNFT",
      "type": "event"
    },
    {
      "anonymous": false,
      "inputs": [
        {
          "indexed": true,
          "internalType": "address",
          "name": "swapper",
          "type": "address"
        },
        {
          "indexed": false,
          "internalType": "uint256[]",
          "name": "tokenIds",
          "type": "uint256[]"
        },
        {
          "indexed": false,
          "internalType": "uint256",
          "name": "totalFee",
          "type": "uint256"
        },
        {
          "indexed": false,
          "internalType": "uint256",
          "name": "eventId",
          "type": "uint256"
        }
      ],
      "name": "SwapFTforNFT",
      "type": "event"
    },
    {
      "anonymous": false,
      "inputs": [
        {
          "indexed": true,
          "internalType": "address",
          "name": "swapper",
          "type": "address"
        },
        {
          "indexed": false,
          "internalType": "uint256[]",
          "name": "tokenIds",
          "type": "uint256[]"
        },
        {
          "indexed": false,
          "internalType": "uint256",
          "name": "totalFee",
          "type": "uint256"
        },
        {
          "indexed": false,
          "internalType": "uint256",
          "name": "eventId",
          "type": "uint256"
        }
      ],
      "name": "SwapNFTforFT",
      "type": "event"
    },
    {
      "inputs": [],
      "name": "buyEventNum",
      "outputs": [
        {
          "internalType": "uint256",
          "name": "",
          "type": "uint256"
        }
      ],
      "stateMutability": "view",
      "type": "function"
    },
    {
      "inputs": [],
      "name": "buyNum",
      "outputs": [
        {
          "internalType": "uint256",
          "name": "",
          "type": "uint256"
        }
      ],
      "stateMutability": "view",
      "type": "function"
    },
    {
      "inputs": [],
      "name": "collectionAddress",
      "outputs": [
        {
          "internalType": "address",
          "name": "",
          "type": "address"
        }
      ],
      "stateMutability": "view",
      "type": "function"
    },
    {
      "inputs": [],
      "name": "createrAddress",
      "outputs": [
        {
          "internalType": "address",
          "name": "",
          "type": "address"
        }
      ],
      "stateMutability": "view",
      "type": "function"
    },
    {
      "inputs": [],
      "name": "delta",
      "outputs": [
        {
          "internalType": "uint256",
          "name": "",
          "type": "uint256"
        }
      ],
      "stateMutability": "view",
      "type": "function"
    },
    {
      "inputs": [],
      "name": "eventId",
      "outputs": [
        {
          "internalType": "uint256",
          "name": "",
          "type": "uint256"
        }
      ],
      "stateMutability": "view",
      "type": "function"
    },
    {
      "inputs": [
        {
          "internalType": "uint256",
          "name": "_numItems",
          "type": "uint256"
        }
      ],
      "name": "getCalcBuyInfo",
      "outputs": [
        {
          "internalType": "uint256",
          "name": "totalFee",
          "type": "uint256"
        }
      ],
      "stateMutability": "view",
      "type": "function"
    },
    {
      "inputs": [
        {
          "internalType": "uint256",
          "name": "_numItems",
          "type": "uint256"
        }
      ],
      "name": "getCalcSellInfo",
      "outputs": [
        {
          "internalType": "uint256",
          "name": "totalFee",
          "type": "uint256"
        }
      ],
      "stateMutability": "view",
      "type": "function"
    },
    {
      "inputs": [
        {
          "internalType": "address",
          "name": "_user",
          "type": "address"
        }
      ],
      "name": "getUserFee",
      "outputs": [
        {
          "internalType": "uint256",
          "name": "_userFee",
          "type": "uint256"
        }
      ],
      "stateMutability": "view",
      "type": "function"
    },
    {
      "inputs": [
        {
          "internalType": "address",
          "name": "user",
          "type": "address"
        }
      ],
      "name": "getUserInitBuyNum",
      "outputs": [
        {
          "internalType": "uint256",
          "name": "",
          "type": "uint256"
        }
      ],
      "stateMutability": "view",
      "type": "function"
    },
    {
      "inputs": [
        {
          "internalType": "address",
          "name": "user",
          "type": "address"
        }
      ],
      "name": "getUserLPoint",
      "outputs": [
        {
          "internalType": "uint256",
          "name": "",
          "type": "uint256"
        }
      ],
      "stateMutability": "view",
      "type": "function"
    },
    {
      "inputs": [],
      "name": "initBuyNum",
      "outputs": [
        {
          "internalType": "uint256",
          "name": "",
          "type": "uint256"
        }
      ],
      "stateMutability": "view",
      "type": "function"
    },
    {
      "inputs": [
        {
          "internalType": "address",
          "name": "",
          "type": "address"
        },
        {
          "internalType": "address",
          "name": "",
          "type": "address"
        },
        {
          "internalType": "uint256",
          "name": "",
          "type": "uint256"
        },
        {
          "internalType": "bytes",
          "name": "",
          "type": "bytes"
        }
      ],
      "name": "onERC721Received",
      "outputs": [
        {
          "internalType": "bytes4",
          "name": "",
          "type": "bytes4"
        }
      ],
      "stateMutability": "nonpayable",
      "type": "function"
    },
    {
      "inputs": [],
      "name": "protocolAddress",
      "outputs": [
        {
          "internalType": "address",
          "name": "",
          "type": "address"
        }
      ],
      "stateMutability": "view",
      "type": "function"
    },
    {
      "inputs": [],
      "name": "protocolFeeRatio",
      "outputs": [
        {
          "internalType": "uint256",
          "name": "",
          "type": "uint256"
        }
      ],
      "stateMutability": "view",
      "type": "function"
    },
    {
      "inputs": [],
      "name": "sellEventNum",
      "outputs": [
        {
          "internalType": "uint256",
          "name": "",
          "type": "uint256"
        }
      ],
      "stateMutability": "view",
      "type": "function"
    },
    {
      "inputs": [],
      "name": "sellNum",
      "outputs": [
        {
          "internalType": "uint256",
          "name": "",
          "type": "uint256"
        }
      ],
      "stateMutability": "view",
      "type": "function"
    },
    {
      "inputs": [],
      "name": "spotPrice",
      "outputs": [
        {
          "internalType": "uint256",
          "name": "",
          "type": "uint256"
        }
      ],
      "stateMutability": "view",
      "type": "function"
    },
    {
      "inputs": [
        {
          "internalType": "uint256[]",
          "name": "tokenIds",
          "type": "uint256[]"
        }
      ],
      "name": "stakeNFT",
      "outputs": [],
      "stateMutability": "nonpayable",
      "type": "function"
    },
    {
      "inputs": [
        {
          "internalType": "uint256[]",
          "name": "tokenIds",
          "type": "uint256[]"
        }
      ],
      "name": "swapFTforNFT",
      "outputs": [],
      "stateMutability": "payable",
      "type": "function"
    },
    {
      "inputs": [
        {
          "internalType": "uint256[]",
          "name": "tokenIds",
          "type": "uint256[]"
        },
        {
          "internalType": "uint256",
          "name": "minExpectFee",
          "type": "uint256"
        }
      ],
      "name": "swapNFTforFT",
      "outputs": [],
      "stateMutability": "payable",
      "type": "function"
    },
    {
      "inputs": [],
      "name": "totalFee",
      "outputs": [
        {
          "internalType": "uint256",
          "name": "",
          "type": "uint256"
        }
      ],
      "stateMutability": "view",
      "type": "function"
    },
    {
      "inputs": [],
      "name": "totalLPoint",
      "outputs": [
        {
          "internalType": "uint256",
          "name": "",
          "type": "uint256"
        }
      ],
      "stateMutability": "view",
      "type": "function"
    },
    {
      "inputs": [
        {
          "internalType": "uint256[]",
          "name": "tokenIds",
          "type": "uint256[]"
        }
      ],
      "name": "withdrawNFTAndFTAndFee",
      "outputs": [],
      "stateMutability": "payable",
      "type": "function"
    },
    {
      "inputs": [
        {
          "internalType": "uint256[]",
          "name": "tokenIds",
          "type": "uint256[]"
        }
      ],
      "name": "withdrawNFTAndFee",
      "outputs": [],
      "stateMutability": "payable",
      "type": "function"
    }
  ],
  "bytecode": "0x6080604052614e206001553480156200001757600080fd5b50604051620031d4380380620031d483398181016040528101906200003d9190620001c6565b846002819055508360038190555082600460006101000a81548173ffffffffffffffffffffffffffffffffffffffff021916908373ffffffffffffffffffffffffffffffffffffffff16021790555081600560006101000a81548173ffffffffffffffffffffffffffffffffffffffff021916908373ffffffffffffffffffffffffffffffffffffffff16021790555080600660006101000a81548173ffffffffffffffffffffffffffffffffffffffff021916908373ffffffffffffffffffffffffffffffffffffffff160217905550600060108190555050505050506200024e565b600080fd5b6000819050919050565b6200013b8162000126565b81146200014757600080fd5b50565b6000815190506200015b8162000130565b92915050565b600073ffffffffffffffffffffffffffffffffffffffff82169050919050565b60006200018e8262000161565b9050919050565b620001a08162000181565b8114620001ac57600080fd5b50565b600081519050620001c08162000195565b92915050565b600080600080600060a08688031215620001e557620001e462000121565b5b6000620001f5888289016200014a565b955050602062000208888289016200014a565b94505060406200021b88828901620001af565b93505060606200022e88828901620001af565b92505060806200024188828901620001af565b9150509295509295909350565b612f76806200025e6000396000f3fe6080604052600436106101665760003560e01c80636aa00371116100d1578063a49fb93e1161008a578063bc50f47211610064578063bc50f4721461052f578063e4ab8c031461054b578063fb9b4ab814610576578063fc5ad2df146105a157610166565b8063a49fb93e146104ab578063aef41355146104c7578063b36365d1146104f257610166565b80636aa00371146103975780637a27d9f6146103c2578063895af871146103ed578063903e45711461041857806395b2b3fe14610443578063a04da5a01461048057610166565b8063182c574411610123578063182c5744146102a35780631df4ccfc146102cc578063330d99cb146102f75780633635868c14610334578063398482d8146103505780635a11272b1461037b57610166565b8063060f58c31461016b578063063089ed146101a85780630676c1b7146101e5578063089cdd0c1461021057806312b495a81461023b578063150b7a0214610266575b600080fd5b34801561017757600080fd5b50610192600480360381019061018d919061226a565b6105cc565b60405161019f91906122b0565b60405180910390f35b3480156101b457600080fd5b506101cf60048036038101906101ca91906122f7565b6106bd565b6040516101dc91906122b0565b60405180910390f35b3480156101f157600080fd5b506101fa610718565b6040516102079190612333565b60405180910390f35b34801561021c57600080fd5b5061022561073e565b60405161023291906122b0565b60405180910390f35b34801561024757600080fd5b50610250610744565b60405161025d91906122b0565b60405180910390f35b34801561027257600080fd5b5061028d60048036038101906102889190612494565b61074a565b60405161029a9190612552565b60405180910390f35b3480156102af57600080fd5b506102ca60048036038101906102c59190612635565b61075e565b005b3480156102d857600080fd5b506102e1610adb565b6040516102ee91906122b0565b60405180910390f35b34801561030357600080fd5b5061031e600480360381019061031991906122f7565b610ae1565b60405161032b91906122b0565b60405180910390f35b61034e6004803603810190610349919061267e565b610b55565b005b34801561035c57600080fd5b50610365610f75565b60405161037291906122b0565b60405180910390f35b61039560048036038101906103909190612635565b610f7b565b005b3480156103a357600080fd5b506103ac61134f565b6040516103b99190612333565b60405180910390f35b3480156103ce57600080fd5b506103d7611375565b6040516103e491906122b0565b60405180910390f35b3480156103f957600080fd5b5061040261137b565b60405161040f91906122b0565b60405180910390f35b34801561042457600080fd5b5061042d611381565b60405161043a91906122b0565b60405180910390f35b34801561044f57600080fd5b5061046a6004803603810190610465919061226a565b611387565b60405161047791906122b0565b60405180910390f35b34801561048c57600080fd5b506104956113d0565b6040516104a291906122b0565b60405180910390f35b6104c560048036038101906104c09190612635565b6113d6565b005b3480156104d357600080fd5b506104dc61196c565b6040516104e991906122b0565b60405180910390f35b3480156104fe57600080fd5b506105196004803603810190610514919061226a565b611972565b60405161052691906122b0565b60405180910390f35b61054960048036038101906105449190612635565b6119bb565b005b34801561055757600080fd5b50610560611ef4565b60405161056d91906122b0565b60405180910390f35b34801561058257600080fd5b5061058b611efa565b6040516105989190612333565b60405180910390f35b3480156105ad57600080fd5b506105b6611f20565b6040516105c391906122b0565b60405180910390f35b600080600754600f60008573ffffffffffffffffffffffffffffffffffffffff1673ffffffffffffffffffffffffffffffffffffffff168152602001908152602001600020546008546002546009546106259190612709565b61062f9190612763565b6106399190612709565b61064391906127c6565b90506000600e60008573ffffffffffffffffffffffffffffffffffffffff1673ffffffffffffffffffffffffffffffffffffffff168152602001908152602001600020546002546106949190612709565b9050808211156106b15780826106aa91906127f7565b92506106b6565b600092505b5050919050565b600060026003546001846106d191906127f7565b846106dc9190612709565b6106e69190612709565b6106f091906127c6565b600254836106fe9190612709565b6107089190612763565b905061071381611f26565b919050565b600560009054906101000a900473ffffffffffffffffffffffffffffffffffffffff1681565b60105481565b60035481565b600063150b7a0260e01b9050949350505050565b60008151905060005b8181101561089f573373ffffffffffffffffffffffffffffffffffffffff16600460009054906101000a900473ffffffffffffffffffffffffffffffffffffffff1673ffffffffffffffffffffffffffffffffffffffff16636352211e8584815181106107d7576107d661282b565b5b60200260200101516040518263ffffffff1660e01b81526004016107fb91906122b0565b602060405180830381865afa158015610818573d6000803e3d6000fd5b505050506040513d601f19601f8201168201806040525081019061083c919061286f565b73ffffffffffffffffffffffffffffffffffffffff1614610892576040517f08c379a0000000000000000000000000000000000000000000000000000000008152600401610889906128f9565b60405180910390fd5b8080600101915050610767565b5060006108ab82611fbf565b905080600f60003373ffffffffffffffffffffffffffffffffffffffff1673ffffffffffffffffffffffffffffffffffffffff16815260200190815260200160002060008282546108fc9190612763565b9250508190555080600760008282546109159190612763565b9250508190555081600e60003373ffffffffffffffffffffffffffffffffffffffff1673ffffffffffffffffffffffffffffffffffffffff168152602001908152602001600020600082825461096b9190612763565b9250508190555081600a60008282546109849190612763565b92505081905550816009600082825461099d9190612763565b9250508190555060005b82811015610a6757600460009054906101000a900473ffffffffffffffffffffffffffffffffffffffff1673ffffffffffffffffffffffffffffffffffffffff1663b88d4fde3330878581518110610a0257610a0161282b565b5b60200260200101516040518463ffffffff1660e01b8152600401610a2893929190612950565b600060405180830381600087803b158015610a4257600080fd5b505af1158015610a56573d6000803e3d6000fd5b5050505080806001019150506109a7565b50600160106000828254610a7b9190612763565b925050819055503373ffffffffffffffffffffffffffffffffffffffff167f4878d7612f82fe191a047b0b347ad5f3511e8c4386c63aa5ab6bc36a28d9a6728483601054604051610ace93929190612a58565b60405180910390a2505050565b60085481565b60006002600354600184610af591906127f7565b84610b009190612709565b610b0a9190612709565b610b1491906127c6565b6002600354610b239190612709565b600254610b3091906127f7565b83610b3b9190612709565b610b4591906127f7565b9050610b5081611f26565b919050565b600082519050600080610b6d8360025460035461202f565b9150915060005b83811015610c76573373ffffffffffffffffffffffffffffffffffffffff16600460009054906101000a900473ffffffffffffffffffffffffffffffffffffffff1673ffffffffffffffffffffffffffffffffffffffff16636352211e888481518110610be457610be361282b565b5b60200260200101516040518263ffffffff1660e01b8152600401610c0891906122b0565b602060405180830381865afa158015610c25573d6000803e3d6000fd5b505050506040513d601f19601f82011682018060405250810190610c49919061286f565b73ffffffffffffffffffffffffffffffffffffffff1614610c6957600080fd5b8080600101915050610b74565b5083821015610cba576040517f08c379a0000000000000000000000000000000000000000000000000000000008152600401610cb190612b08565b60405180910390fd5b81471015610cfd576040517f08c379a0000000000000000000000000000000000000000000000000000000008152600401610cf490612b74565b60405180910390fd5b600b54831115610d42576040517f08c379a0000000000000000000000000000000000000000000000000000000008152600401610d3990612c06565b60405180910390fd5b82600d6000828254610d549190612763565b9250508190555082600b6000828254610d6d91906127f7565b9250508190555082600a6000828254610d869190612763565b92505081905550600d54600c5410610de457600354600d54610da89190612709565b60086000828254610db99190612763565b92505081905550600d54600c6000828254610dd491906127f7565b925050819055506000600d819055505b8060025414610df557806002819055505b60005b83811015610eb857600460009054906101000a900473ffffffffffffffffffffffffffffffffffffffff1673ffffffffffffffffffffffffffffffffffffffff1663b88d4fde3330898581518110610e5357610e5261282b565b5b60200260200101516040518463ffffffff1660e01b8152600401610e7993929190612950565b600060405180830381600087803b158015610e9357600080fd5b505af1158015610ea7573d6000803e3d6000fd5b505050508080600101915050610df8565b503373ffffffffffffffffffffffffffffffffffffffff166108fc839081150290604051600060405180830381858888f19350505050158015610eff573d6000803e3d6000fd5b50600160106000828254610f139190612763565b925050819055503373ffffffffffffffffffffffffffffffffffffffff167f6ca45ca5ce8024fc88733e2429be2dd08f4f6498d0384c382409c22f7ec5cd808684601054604051610f6693929190612a58565b60405180910390a25050505050565b60025481565b600081519050600080610f93836002546003546120b1565b9150915060008311610fda576040517f08c379a0000000000000000000000000000000000000000000000000000000008152600401610fd190612c72565b60405180910390fd5b600a5483111561101f576040517f08c379a000000000000000000000000000000000000000000000000000000000815260040161101690612d04565b60405180910390fd5b81341015611062576040517f08c379a000000000000000000000000000000000000000000000000000000000815260040161105990612d70565b60405180910390fd5b60005b83811015611167573073ffffffffffffffffffffffffffffffffffffffff16600460009054906101000a900473ffffffffffffffffffffffffffffffffffffffff1673ffffffffffffffffffffffffffffffffffffffff16636352211e8784815181106110d5576110d461282b565b5b60200260200101516040518263ffffffff1660e01b81526004016110f991906122b0565b602060405180830381865afa158015611116573d6000803e3d6000fd5b505050506040513d601f19601f8201168201806040525081019061113a919061286f565b73ffffffffffffffffffffffffffffffffffffffff161461115a57600080fd5b8080600101915050611065565b5082600c600082825461117a9190612763565b9250508190555082600a600082825461119391906127f7565b9250508190555082600b60008282546111ac9190612763565b9250508190555080600254146111c457806002819055505b3373ffffffffffffffffffffffffffffffffffffffff166108fc83346111ea91906127f7565b9081150290604051600060405180830381858888f19350505050158015611215573d6000803e3d6000fd5b5060005b84518110156112da57600460009054906101000a900473ffffffffffffffffffffffffffffffffffffffff1673ffffffffffffffffffffffffffffffffffffffff1663b88d4fde30338885815181106112755761127461282b565b5b60200260200101516040518463ffffffff1660e01b815260040161129b93929190612950565b600060405180830381600087803b1580156112b557600080fd5b505af11580156112c9573d6000803e3d6000fd5b505050508080600101915050611219565b506001601060008282546112ee9190612763565b925050819055503373ffffffffffffffffffffffffffffffffffffffff167fe5000e634a4e202c31b291a329762ea2a5d0c00d4968856eb4112b217677c1d1858460105460405161134193929190612a58565b60405180910390a250505050565b600460009054906101000a900473ffffffffffffffffffffffffffffffffffffffff1681565b60015481565b600d5481565b600a5481565b6000600e60008373ffffffffffffffffffffffffffffffffffffffff1673ffffffffffffffffffffffffffffffffffffffff168152602001908152602001600020549050919050565b60095481565b6000815190506000611427600e60003373ffffffffffffffffffffffffffffffffffffffff1673ffffffffffffffffffffffffffffffffffffffff168152602001908152602001600020543361211c565b905060005b8281101561152e573073ffffffffffffffffffffffffffffffffffffffff16600460009054906101000a900473ffffffffffffffffffffffffffffffffffffffff1673ffffffffffffffffffffffffffffffffffffffff16636352211e86848151811061149c5761149b61282b565b5b60200260200101516040518263ffffffff1660e01b81526004016114c091906122b0565b602060405180830381865afa1580156114dd573d6000803e3d6000fd5b505050506040513d601f19601f82011682018060405250810190611501919061286f565b73ffffffffffffffffffffffffffffffffffffffff161461152157600080fd5b808060010191505061142c565b50600a54600e60003373ffffffffffffffffffffffffffffffffffffffff1673ffffffffffffffffffffffffffffffffffffffff16815260200190815260200160002054116115b2576040517f08c379a00000000000000000000000000000000000000000000000000000000081526004016115a990612ddc565b60405180910390fd5b8251600a54146115f7576040517f08c379a00000000000000000000000000000000000000000000000000000000081526004016115ee90612e48565b60405180910390fd5b8251600a600082825461160a91906127f7565b925050819055508251600e60003373ffffffffffffffffffffffffffffffffffffffff1673ffffffffffffffffffffffffffffffffffffffff1681526020019081526020016000205461165d91906127f7565b600b600082825461166e91906127f7565b92505081905550600e60003373ffffffffffffffffffffffffffffffffffffffff1673ffffffffffffffffffffffffffffffffffffffff16815260200190815260200160002054600960008282546116c691906127f7565b925050819055506000600e60003373ffffffffffffffffffffffffffffffffffffffff1673ffffffffffffffffffffffffffffffffffffffff16815260200190815260200160002081905550600f60003373ffffffffffffffffffffffffffffffffffffffff1673ffffffffffffffffffffffffffffffffffffffff168152602001908152602001600020546007600082825461176391906127f7565b925050819055506000600f60003373ffffffffffffffffffffffffffffffffffffffff1673ffffffffffffffffffffffffffffffffffffffff168152602001908152602001600020819055503373ffffffffffffffffffffffffffffffffffffffff166108fc829081150290604051600060405180830381858888f193505050501580156117f5573d6000803e3d6000fd5b5060005b828110156118b957600460009054906101000a900473ffffffffffffffffffffffffffffffffffffffff1673ffffffffffffffffffffffffffffffffffffffff1663b88d4fde30338785815181106118545761185361282b565b5b60200260200101516040518463ffffffff1660e01b815260040161187a93929190612950565b600060405180830381600087803b15801561189457600080fd5b505af11580156118a8573d6000803e3d6000fd5b5050505080806001019150506117f9565b506001601060008282546118cd9190612763565b925050819055503373ffffffffffffffffffffffffffffffffffffffff167fc00b4d585541feaad2ee1a2e5625bbd4b4127615320596ed6e31c0494524f32e84600f60003373ffffffffffffffffffffffffffffffffffffffff1673ffffffffffffffffffffffffffffffffffffffff1681526020019081526020016000205460105460405161195f93929190612a58565b60405180910390a2505050565b60075481565b6000600f60008373ffffffffffffffffffffffffffffffffffffffff1673ffffffffffffffffffffffffffffffffffffffff168152602001908152602001600020549050919050565b60008151905060006119cd823361211c565b905060005b82811015611ad4573073ffffffffffffffffffffffffffffffffffffffff16600460009054906101000a900473ffffffffffffffffffffffffffffffffffffffff1673ffffffffffffffffffffffffffffffffffffffff16636352211e868481518110611a4257611a4161282b565b5b60200260200101516040518263ffffffff1660e01b8152600401611a6691906122b0565b602060405180830381865afa158015611a83573d6000803e3d6000fd5b505050506040513d601f19601f82011682018060405250810190611aa7919061286f565b73ffffffffffffffffffffffffffffffffffffffff1614611ac757600080fd5b80806001019150506119d2565b5081600e60003373ffffffffffffffffffffffffffffffffffffffff1673ffffffffffffffffffffffffffffffffffffffff1681526020019081526020016000205414611b56576040517f08c379a0000000000000000000000000000000000000000000000000000000008152600401611b4d90612eb4565b60405180910390fd5b81600a541015611b9b576040517f08c379a0000000000000000000000000000000000000000000000000000000008152600401611b9290612f20565b60405180910390fd5b600e60003373ffffffffffffffffffffffffffffffffffffffff1673ffffffffffffffffffffffffffffffffffffffff16815260200190815260200160002054600a6000828254611bec91906127f7565b92505081905550600e60003373ffffffffffffffffffffffffffffffffffffffff1673ffffffffffffffffffffffffffffffffffffffff1681526020019081526020016000205460096000828254611c4491906127f7565b925050819055506000600e60003373ffffffffffffffffffffffffffffffffffffffff1673ffffffffffffffffffffffffffffffffffffffff16815260200190815260200160002081905550600f60003373ffffffffffffffffffffffffffffffffffffffff1673ffffffffffffffffffffffffffffffffffffffff1681526020019081526020016000205460076000828254611ce191906127f7565b925050819055506000600f60003373ffffffffffffffffffffffffffffffffffffffff1673ffffffffffffffffffffffffffffffffffffffff1681526020019081526020016000208190555060005b82811015611df057600460009054906101000a900473ffffffffffffffffffffffffffffffffffffffff1673ffffffffffffffffffffffffffffffffffffffff1663b88d4fde3033878581518110611d8b57611d8a61282b565b5b60200260200101516040518463ffffffff1660e01b8152600401611db193929190612950565b600060405180830381600087803b158015611dcb57600080fd5b505af1158015611ddf573d6000803e3d6000fd5b505050508080600101915050611d30565b506000811115611e42573373ffffffffffffffffffffffffffffffffffffffff166108fc829081150290604051600060405180830381858888f19350505050158015611e40573d6000803e3d6000fd5b505b600160106000828254611e559190612763565b925050819055503373ffffffffffffffffffffffffffffffffffffffff167fc00b4d585541feaad2ee1a2e5625bbd4b4127615320596ed6e31c0494524f32e84600f60003373ffffffffffffffffffffffffffffffffffffffff1673ffffffffffffffffffffffffffffffffffffffff16815260200190815260200160002054601054604051611ee793929190612a58565b60405180910390a2505050565b600b5481565b600660009054906101000a900473ffffffffffffffffffffffffffffffffffffffff1681565b600c5481565b611fbc81604051602401611f3a91906122b0565b6040516020818303038152906040527ff82c50f1000000000000000000000000000000000000000000000000000000007bffffffffffffffffffffffffffffffffffffffffffffffffffffffff19166020820180517bffffffffffffffffffffffffffffffffffffffffffffffffffffffff83818316178352505050506121cf565b50565b600080600060075403611fe15760025483611fda9190612709565b9050612026565b600854600254600954611ff49190612709565b611ffe9190612763565b6002548461200c9190612709565b6007546120199190612709565b61202391906127c6565b90505b80915050919050565b60008060028360018761204291906127f7565b8761204d9190612709565b6120579190612709565b61206191906127c6565b60028461206e9190612709565b8561207991906127f7565b866120849190612709565b61208e91906127f7565b9150828561209c9190612709565b846120a791906127f7565b9050935093915050565b6000806002836001876120c491906127f7565b876120cf9190612709565b6120d99190612709565b6120e391906127c6565b84866120ef9190612709565b6120f99190612763565b915082856121079190612709565b846121129190612763565b9050935093915050565b600080600754600f60008573ffffffffffffffffffffffffffffffffffffffff1673ffffffffffffffffffffffffffffffffffffffff168152602001908152602001600020546008546002546009546121759190612709565b61217f9190612763565b6121899190612709565b61219391906127c6565b90506000846002546121a59190612709565b9050808211156121c25780826121bb91906127f7565b92506121c7565b600092505b505092915050565b60008151905060006a636f6e736f6c652e6c6f679050602083016000808483855afa5050505050565b6000604051905090565b600080fd5b600080fd5b600073ffffffffffffffffffffffffffffffffffffffff82169050919050565b60006122378261220c565b9050919050565b6122478161222c565b811461225257600080fd5b50565b6000813590506122648161223e565b92915050565b6000602082840312156122805761227f612202565b5b600061228e84828501612255565b91505092915050565b6000819050919050565b6122aa81612297565b82525050565b60006020820190506122c560008301846122a1565b92915050565b6122d481612297565b81146122df57600080fd5b50565b6000813590506122f1816122cb565b92915050565b60006020828403121561230d5761230c612202565b5b600061231b848285016122e2565b91505092915050565b61232d8161222c565b82525050565b60006020820190506123486000830184612324565b92915050565b600080fd5b600080fd5b6000601f19601f8301169050919050565b7f4e487b7100000000000000000000000000000000000000000000000000000000600052604160045260246000fd5b6123a182612358565b810181811067ffffffffffffffff821117156123c0576123bf612369565b5b80604052505050565b60006123d36121f8565b90506123df8282612398565b919050565b600067ffffffffffffffff8211156123ff576123fe612369565b5b61240882612358565b9050602081019050919050565b82818337600083830152505050565b6000612437612432846123e4565b6123c9565b90508281526020810184848401111561245357612452612353565b5b61245e848285612415565b509392505050565b600082601f83011261247b5761247a61234e565b5b813561248b848260208601612424565b91505092915050565b600080600080608085870312156124ae576124ad612202565b5b60006124bc87828801612255565b94505060206124cd87828801612255565b93505060406124de878288016122e2565b925050606085013567ffffffffffffffff8111156124ff576124fe612207565b5b61250b87828801612466565b91505092959194509250565b60007fffffffff0000000000000000000000000000000000000000000000000000000082169050919050565b61254c81612517565b82525050565b60006020820190506125676000830184612543565b92915050565b600067ffffffffffffffff82111561258857612587612369565b5b602082029050602081019050919050565b600080fd5b60006125b16125ac8461256d565b6123c9565b905080838252602082019050602084028301858111156125d4576125d3612599565b5b835b818110156125fd57806125e988826122e2565b8452602084019350506020810190506125d6565b5050509392505050565b600082601f83011261261c5761261b61234e565b5b813561262c84826020860161259e565b91505092915050565b60006020828403121561264b5761264a612202565b5b600082013567ffffffffffffffff81111561266957612668612207565b5b61267584828501612607565b91505092915050565b6000806040838503121561269557612694612202565b5b600083013567ffffffffffffffff8111156126b3576126b2612207565b5b6126bf85828601612607565b92505060206126d0858286016122e2565b9150509250929050565b7f4e487b7100000000000000000000000000000000000000000000000000000000600052601160045260246000fd5b600061271482612297565b915061271f83612297565b9250817fffffffffffffffffffffffffffffffffffffffffffffffffffffffffffffffff0483118215151615612758576127576126da565b5b828202905092915050565b600061276e82612297565b915061277983612297565b9250828201905080821115612791576127906126da565b5b92915050565b7f4e487b7100000000000000000000000000000000000000000000000000000000600052601260045260246000fd5b60006127d182612297565b91506127dc83612297565b9250826127ec576127eb612797565b5b828204905092915050565b600061280282612297565b915061280d83612297565b9250828203905081811115612825576128246126da565b5b92915050565b7f4e487b7100000000000000000000000000000000000000000000000000000000600052603260045260246000fd5b6000815190506128698161223e565b92915050565b60006020828403121561288557612884612202565b5b60006128938482850161285a565b91505092915050565b600082825260208201905092915050565b7f796f7520617265206e6f74206f776e6572000000000000000000000000000000600082015250565b60006128e360118361289c565b91506128ee826128ad565b602082019050919050565b60006020820190508181036000830152612912816128d6565b9050919050565b600082825260208201905092915050565b50565b600061293a600083612919565b91506129458261292a565b600082019050919050565b60006080820190506129656000830186612324565b6129726020830185612324565b61297f60408301846122a1565b81810360608301526129908161292d565b9050949350505050565b600081519050919050565b600082825260208201905092915050565b6000819050602082019050919050565b6129cf81612297565b82525050565b60006129e183836129c6565b60208301905092915050565b6000602082019050919050565b6000612a058261299a565b612a0f81856129a5565b9350612a1a836129b6565b8060005b83811015612a4b578151612a3288826129d5565b9750612a3d836129ed565b925050600181019050612a1e565b5085935050505092915050565b60006060820190508181036000830152612a7281866129fa565b9050612a8160208301856122a1565b612a8e60408301846122a1565b949350505050565b7f54686520616d6f756e7420796f7520676574206973206c6f776572207468616e60008201527f2065787065637465642e00000000000000000000000000000000000000000000602082015250565b6000612af2602a8361289c565b9150612afd82612a96565b604082019050919050565b60006020820190508181036000830152612b2181612ae5565b9050919050565b7f7468697320636f6e7472616374206973206e6f7420656e6f7567680000000000600082015250565b6000612b5e601b8361289c565b9150612b6982612b28565b602082019050919050565b60006020820190508181036000830152612b8d81612b51565b9050919050565b7f73656c6c20706f736974696f6e206e6f7420656e6f756768206c69717569646960008201527f7479000000000000000000000000000000000000000000000000000000000000602082015250565b6000612bf060228361289c565b9150612bfb82612b94565b604082019050919050565b60006020820190508181036000830152612c1f81612be3565b9050919050565b7f4d7573742061736b20666f72203e2030204e4654730000000000000000000000600082015250565b6000612c5c60158361289c565b9150612c6782612c26565b602082019050919050565b60006020820190508181036000830152612c8b81612c4f565b9050919050565b7f62757920706f736974696f6e206e6f7420656e6f756768206c6971756964697460008201527f7900000000000000000000000000000000000000000000000000000000000000602082015250565b6000612cee60218361289c565b9150612cf982612c92565b604082019050919050565b60006020820190508181036000830152612d1d81612ce1565b9050919050565b7f6e6f7420656e6f7567682076616c756500000000000000000000000000000000600082015250565b6000612d5a60108361289c565b9150612d6582612d24565b602082019050919050565b60006020820190508181036000830152612d8981612d4d565b9050919050565b7f506f6f6c204e46542069732072656d61696e2079657400000000000000000000600082015250565b6000612dc660168361289c565b9150612dd182612d90565b602082019050919050565b60006020820190508181036000830152612df581612db9565b9050919050565b7f596f7520776f756c6420666f72676f74204e4654000000000000000000000000600082015250565b6000612e3260148361289c565b9150612e3d82612dfc565b602082019050919050565b60006020820190508181036000830152612e6181612e25565b9050919050565b7f596f7572204e46542069732072656d61696e2079657400000000000000000000600082015250565b6000612e9e60168361289c565b9150612ea982612e68565b602082019050919050565b60006020820190508181036000830152612ecd81612e91565b9050919050565b7f506f6f6c206e6f7420656e6f756768204e465400000000000000000000000000600082015250565b6000612f0a60138361289c565b9150612f1582612ed4565b602082019050919050565b60006020820190508181036000830152612f3981612efd565b905091905056fea26469706673582212209f9918d77c9d5ef8d57f16296aeb753a3666b72de925ee0b9f93d9fc045873c864736f6c63430008100033",
  "linkReferences": {},
  "deployedLinkReferences": {}
}