{
  "_format": "hh-sol-artifact-1",
  "contractName": "AceSwap",
  "sourceName": "contracts/AceSwap.sol",
  "abi": [
    {
      "inputs": [
        {
          "internalType": "uint256",
          "name": "_spotPrice",
          "type": "uint256"
        },
        {
          "internalType": "uint256",
          "name": "_delta",
          "type": "uint256"
        },
        {
          "internalType": "address",
          "name": "_collectionAddress",
          "type": "address"
        },
        {
          "internalType": "address",
          "name": "_protocolAddress",
          "type": "address"
        },
        {
          "internalType": "address",
          "name": "_createAddress",
          "type": "address"
        }
      ],
      "stateMutability": "nonpayable",
      "type": "constructor"
    },
    {
      "anonymous": false,
      "inputs": [
        {
          "indexed": true,
          "internalType": "address",
          "name": "staker",
          "type": "address"
        },
        {
          "indexed": false,
          "internalType": "uint256[]",
          "name": "tokenIds",
          "type": "uint256[]"
        },
        {
          "indexed": false,
          "internalType": "uint256",
          "name": "removeLP",
          "type": "uint256"
        },
        {
          "indexed": false,
          "internalType": "uint256",
          "name": "eventId",
          "type": "uint256"
        }
      ],
      "name": "RemoveLP",
      "type": "event"
    },
    {
      "anonymous": false,
      "inputs": [
        {
          "indexed": true,
          "internalType": "address",
          "name": "staker",
          "type": "address"
        },
        {
          "indexed": false,
          "internalType": "uint256[]",
          "name": "tokenIds",
          "type": "uint256[]"
        },
        {
          "indexed": false,
          "internalType": "uint256",
          "name": "LP",
          "type": "uint256"
        },
        {
          "indexed": false,
          "internalType": "uint256",
          "name": "eventId",
          "type": "uint256"
        }
      ],
      "name": "StakeNFT",
      "type": "event"
    },
    {
      "anonymous": false,
      "inputs": [
        {
          "indexed": true,
          "internalType": "address",
          "name": "swapper",
          "type": "address"
        },
        {
          "indexed": false,
          "internalType": "uint256[]",
          "name": "tokenIds",
          "type": "uint256[]"
        },
        {
          "indexed": false,
          "internalType": "uint256",
          "name": "totalFee",
          "type": "uint256"
        },
        {
          "indexed": false,
          "internalType": "uint256",
          "name": "eventId",
          "type": "uint256"
        }
      ],
      "name": "SwapFTforNFT",
      "type": "event"
    },
    {
      "anonymous": false,
      "inputs": [
        {
          "indexed": true,
          "internalType": "address",
          "name": "swapper",
          "type": "address"
        },
        {
          "indexed": false,
          "internalType": "uint256[]",
          "name": "tokenIds",
          "type": "uint256[]"
        },
        {
          "indexed": false,
          "internalType": "uint256",
          "name": "totalFee",
          "type": "uint256"
        },
        {
          "indexed": false,
          "internalType": "uint256",
          "name": "eventId",
          "type": "uint256"
        }
      ],
      "name": "SwapNFTforFT",
      "type": "event"
    },
    {
      "inputs": [],
      "name": "buyEventNum",
      "outputs": [
        {
          "internalType": "uint256",
          "name": "",
          "type": "uint256"
        }
      ],
      "stateMutability": "view",
      "type": "function"
    },
    {
      "inputs": [],
      "name": "buyNum",
      "outputs": [
        {
          "internalType": "uint256",
          "name": "",
          "type": "uint256"
        }
      ],
      "stateMutability": "view",
      "type": "function"
    },
    {
      "inputs": [],
      "name": "collectionAddress",
      "outputs": [
        {
          "internalType": "address",
          "name": "",
          "type": "address"
        }
      ],
      "stateMutability": "view",
      "type": "function"
    },
    {
      "inputs": [],
      "name": "createrAddress",
      "outputs": [
        {
          "internalType": "address",
          "name": "",
          "type": "address"
        }
      ],
      "stateMutability": "view",
      "type": "function"
    },
    {
      "inputs": [],
      "name": "delta",
      "outputs": [
        {
          "internalType": "uint256",
          "name": "",
          "type": "uint256"
        }
      ],
      "stateMutability": "view",
      "type": "function"
    },
    {
      "inputs": [],
      "name": "eventId",
      "outputs": [
        {
          "internalType": "uint256",
          "name": "",
          "type": "uint256"
        }
      ],
      "stateMutability": "view",
      "type": "function"
    },
    {
      "inputs": [
        {
          "internalType": "uint256",
          "name": "_numItems",
          "type": "uint256"
        }
      ],
      "name": "getCalcBuyInfo",
      "outputs": [
        {
          "internalType": "uint256",
          "name": "totalFee",
          "type": "uint256"
        }
      ],
      "stateMutability": "view",
      "type": "function"
    },
    {
      "inputs": [
        {
          "internalType": "uint256",
          "name": "_numItems",
          "type": "uint256"
        }
      ],
      "name": "getCalcSellInfo",
      "outputs": [
        {
          "internalType": "uint256",
          "name": "totalFee",
          "type": "uint256"
        }
      ],
      "stateMutability": "view",
      "type": "function"
    },
    {
      "inputs": [
        {
          "internalType": "address",
          "name": "_user",
          "type": "address"
        }
      ],
      "name": "getUserFee",
      "outputs": [
        {
          "internalType": "uint256",
          "name": "_userFee",
          "type": "uint256"
        }
      ],
      "stateMutability": "view",
      "type": "function"
    },
    {
      "inputs": [
        {
          "internalType": "address",
          "name": "user",
          "type": "address"
        }
      ],
      "name": "getUserInitBuyNum",
      "outputs": [
        {
          "internalType": "uint256",
          "name": "",
          "type": "uint256"
        }
      ],
      "stateMutability": "view",
      "type": "function"
    },
    {
      "inputs": [
        {
          "internalType": "address",
          "name": "user",
          "type": "address"
        }
      ],
      "name": "getUserLPoint",
      "outputs": [
        {
          "internalType": "uint256",
          "name": "",
          "type": "uint256"
        }
      ],
      "stateMutability": "view",
      "type": "function"
    },
    {
      "inputs": [],
      "name": "initBuyNum",
      "outputs": [
        {
          "internalType": "uint256",
          "name": "",
          "type": "uint256"
        }
      ],
      "stateMutability": "view",
      "type": "function"
    },
    {
      "inputs": [
        {
          "internalType": "address",
          "name": "",
          "type": "address"
        },
        {
          "internalType": "address",
          "name": "",
          "type": "address"
        },
        {
          "internalType": "uint256",
          "name": "",
          "type": "uint256"
        },
        {
          "internalType": "bytes",
          "name": "",
          "type": "bytes"
        }
      ],
      "name": "onERC721Received",
      "outputs": [
        {
          "internalType": "bytes4",
          "name": "",
          "type": "bytes4"
        }
      ],
      "stateMutability": "nonpayable",
      "type": "function"
    },
    {
      "inputs": [],
      "name": "protocolAddress",
      "outputs": [
        {
          "internalType": "address",
          "name": "",
          "type": "address"
        }
      ],
      "stateMutability": "view",
      "type": "function"
    },
    {
      "inputs": [],
      "name": "protocolFeeRatio",
      "outputs": [
        {
          "internalType": "uint256",
          "name": "",
          "type": "uint256"
        }
      ],
      "stateMutability": "view",
      "type": "function"
    },
    {
      "inputs": [],
      "name": "sellEventNum",
      "outputs": [
        {
          "internalType": "uint256",
          "name": "",
          "type": "uint256"
        }
      ],
      "stateMutability": "view",
      "type": "function"
    },
    {
      "inputs": [],
      "name": "sellNum",
      "outputs": [
        {
          "internalType": "uint256",
          "name": "",
          "type": "uint256"
        }
      ],
      "stateMutability": "view",
      "type": "function"
    },
    {
      "inputs": [],
      "name": "spotPrice",
      "outputs": [
        {
          "internalType": "uint256",
          "name": "",
          "type": "uint256"
        }
      ],
      "stateMutability": "view",
      "type": "function"
    },
    {
      "inputs": [
        {
          "internalType": "uint256[]",
          "name": "tokenIds",
          "type": "uint256[]"
        }
      ],
      "name": "stakeNFT",
      "outputs": [],
      "stateMutability": "nonpayable",
      "type": "function"
    },
    {
      "inputs": [
        {
          "internalType": "uint256[]",
          "name": "tokenIds",
          "type": "uint256[]"
        }
      ],
      "name": "swapFTforNFT",
      "outputs": [],
      "stateMutability": "payable",
      "type": "function"
    },
    {
      "inputs": [
        {
          "internalType": "uint256[]",
          "name": "tokenIds",
          "type": "uint256[]"
        },
        {
          "internalType": "uint256",
          "name": "minExpectFee",
          "type": "uint256"
        }
      ],
      "name": "swapNFTforFT",
      "outputs": [],
      "stateMutability": "payable",
      "type": "function"
    },
    {
      "inputs": [],
      "name": "totalFee",
      "outputs": [
        {
          "internalType": "uint256",
          "name": "",
          "type": "uint256"
        }
      ],
      "stateMutability": "view",
      "type": "function"
    },
    {
      "inputs": [],
      "name": "totalLPoint",
      "outputs": [
        {
          "internalType": "uint256",
          "name": "",
          "type": "uint256"
        }
      ],
      "stateMutability": "view",
      "type": "function"
    },
    {
      "inputs": [
        {
          "internalType": "uint256[]",
          "name": "tokenIds",
          "type": "uint256[]"
        }
      ],
      "name": "withdrawNFTAndFTAndFee",
      "outputs": [],
      "stateMutability": "payable",
      "type": "function"
    },
    {
      "inputs": [
        {
          "internalType": "uint256[]",
          "name": "tokenIds",
          "type": "uint256[]"
        }
      ],
      "name": "withdrawNFTAndFee",
      "outputs": [],
      "stateMutability": "payable",
      "type": "function"
    }
  ],
  "bytecode": "0x6080604052614e206001553480156200001757600080fd5b50604051620046013803806200460183398181016040528101906200003d91906200028d565b62000059672991f05cbb50601e60c01b620001e560201b60201c565b620000756710244a968a26c61f60c01b620001e560201b60201c565b846002819055506200009867103f7d10e7a6ff2c60c01b620001e560201b60201c565b83600381905550620000bb67eeddc05001639ff660c01b620001e560201b60201c565b82600460006101000a81548173ffffffffffffffffffffffffffffffffffffffff021916908373ffffffffffffffffffffffffffffffffffffffff1602179055506200011867c7f873547eaa92b560c01b620001e560201b60201c565b81600560006101000a81548173ffffffffffffffffffffffffffffffffffffffff021916908373ffffffffffffffffffffffffffffffffffffffff1602179055506200017567bdbc1f924dfdeb6c60c01b620001e560201b60201c565b80600660006101000a81548173ffffffffffffffffffffffffffffffffffffffff021916908373ffffffffffffffffffffffffffffffffffffffff160217905550620001d267a84fb0d80a98e2dd60c01b620001e560201b60201c565b6000601081905550505050505062000315565b50565b600080fd5b6000819050919050565b6200020281620001ed565b81146200020e57600080fd5b50565b6000815190506200022281620001f7565b92915050565b600073ffffffffffffffffffffffffffffffffffffffff82169050919050565b6000620002558262000228565b9050919050565b620002678162000248565b81146200027357600080fd5b50565b60008151905062000287816200025c565b92915050565b600080600080600060a08688031215620002ac57620002ab620001e8565b5b6000620002bc8882890162000211565b9550506020620002cf8882890162000211565b9450506040620002e28882890162000276565b9350506060620002f58882890162000276565b9250506080620003088882890162000276565b9150509295509295909350565b6142dc80620003256000396000f3fe6080604052600436106101665760003560e01c80636aa00371116100d1578063a49fb93e1161008a578063bc50f47211610064578063bc50f4721461052f578063e4ab8c031461054b578063fb9b4ab814610576578063fc5ad2df146105a157610166565b8063a49fb93e146104ab578063aef41355146104c7578063b36365d1146104f257610166565b80636aa00371146103975780637a27d9f6146103c2578063895af871146103ed578063903e45711461041857806395b2b3fe14610443578063a04da5a01461048057610166565b8063182c574411610123578063182c5744146102a35780631df4ccfc146102cc578063330d99cb146102f75780633635868c14610334578063398482d8146103505780635a11272b1461037b57610166565b8063060f58c31461016b578063063089ed146101a85780630676c1b7146101e5578063089cdd0c1461021057806312b495a81461023b578063150b7a0214610266575b600080fd5b34801561017757600080fd5b50610192600480360381019061018d91906135d0565b6105cc565b60405161019f9190613616565b60405180910390f35b3480156101b457600080fd5b506101cf60048036038101906101ca919061365d565b61079a565b6040516101dc9190613616565b60405180910390f35b3480156101f157600080fd5b506101fa610845565b6040516102079190613699565b60405180910390f35b34801561021c57600080fd5b5061022561086b565b6040516102329190613616565b60405180910390f35b34801561024757600080fd5b50610250610871565b60405161025d9190613616565b60405180910390f35b34801561027257600080fd5b5061028d600480360381019061028891906137fa565b610877565b60405161029a91906138b8565b60405180910390f35b3480156102af57600080fd5b506102ca60048036038101906102c5919061399b565b6108c7565b005b3480156102d857600080fd5b506102e1610e38565b6040516102ee9190613616565b60405180910390f35b34801561030357600080fd5b5061031e6004803603810190610319919061365d565b610e3e565b60405161032b9190613616565b60405180910390f35b61034e600480360381019061034991906139e4565b610f02565b005b34801561035c57600080fd5b50610365611700565b6040516103729190613616565b60405180910390f35b6103956004803603810190610390919061399b565b611706565b005b3480156103a357600080fd5b506103ac611e27565b6040516103b99190613699565b60405180910390f35b3480156103ce57600080fd5b506103d7611e4d565b6040516103e49190613616565b60405180910390f35b3480156103f957600080fd5b50610402611e53565b60405161040f9190613616565b60405180910390f35b34801561042457600080fd5b5061042d611e59565b60405161043a9190613616565b60405180910390f35b34801561044f57600080fd5b5061046a600480360381019061046591906135d0565b611e5f565b6040516104779190613616565b60405180910390f35b34801561048c57600080fd5b50610495611ee4565b6040516104a29190613616565b60405180910390f35b6104c560048036038101906104c0919061399b565b611eea565b005b3480156104d357600080fd5b506104dc612750565b6040516104e99190613616565b60405180910390f35b3480156104fe57600080fd5b50610519600480360381019061051491906135d0565b612756565b6040516105269190613616565b60405180910390f35b6105496004803603810190610544919061399b565b6127db565b005b34801561055757600080fd5b50610560613025565b60405161056d9190613616565b60405180910390f35b34801561058257600080fd5b5061058b61302b565b6040516105989190613699565b60405180910390f35b3480156105ad57600080fd5b506105b6613051565b6040516105c39190613616565b60405180910390f35b60006105e267d6a80929c7b4bbac60c01b613057565b6105f6672c61892352f0846660c01b613057565b61060a677a9691a13edf600960c01b613057565b6000600754600f60008573ffffffffffffffffffffffffffffffffffffffff1673ffffffffffffffffffffffffffffffffffffffff168152602001908152602001600020546008546002546009546106629190613a6f565b61066c9190613ac9565b6106769190613a6f565b6106809190613b2c565b9050610696678097420599c96c1e60c01b613057565b6106aa67666d91ded77569ed60c01b613057565b6000600e60008573ffffffffffffffffffffffffffffffffffffffff1673ffffffffffffffffffffffffffffffffffffffff168152602001908152602001600020546002546106f99190613a6f565b905061070f67d5eda3e82d29501860c01b613057565b6107236703798a975b97614860c01b613057565b808211156107665761073f67581ca3fc99ee508f60c01b613057565b6107536782edc6a64911a4e860c01b613057565b808261075f9190613b5d565b9250610793565b61077a675b8883f043df669560c01b613057565b61078e67d6a993cd35ef8a8b60c01b613057565b600092505b5050919050565b60006107b0673c21570207e1b29e60c01b613057565b6107c467e54dee34ed494a6760c01b613057565b60026003546001846107d69190613b5d565b846107e19190613a6f565b6107eb9190613a6f565b6107f59190613b2c565b600254836108039190613a6f565b61080d9190613ac9565b905061082367cdb0fc946a3d17a760c01b613057565b61083767d5444626e7e4636c60c01b613057565b6108408161305a565b919050565b600560009054906101000a900473ffffffffffffffffffffffffffffffffffffffff1681565b60105481565b60035481565b600061088d677fb7003b32ee64f460c01b613057565b6108a16744ca3548c91272d060c01b613057565b6108b567d21b13455550684c60c01b613057565b63150b7a0260e01b9050949350505050565b6108db6701aafdedf59b8c7560c01b613057565b6108ef67868dfec497dcae0260c01b613057565b6109036784210f34759a97e160c01b613057565b60008151905061091d674fcc192117c104e560c01b613057565b610931671e209564e24c93ad60c01b613057565b61094567a3a0f4837ed1f2b760c01b613057565b60005b81811015610ad05761096467a60a214cfed2707560c01b613057565b61097867545e90c6dde58a0960c01b613057565b61098c67e1a296bba186ca5960c01b613057565b3373ffffffffffffffffffffffffffffffffffffffff16600460009054906101000a900473ffffffffffffffffffffffffffffffffffffffff1673ffffffffffffffffffffffffffffffffffffffff16636352211e8584815181106109f4576109f3613b91565b5b60200260200101516040518263ffffffff1660e01b8152600401610a189190613616565b602060405180830381865afa158015610a35573d6000803e3d6000fd5b505050506040513d601f19601f82011682018060405250810190610a599190613bd5565b73ffffffffffffffffffffffffffffffffffffffff1614610aaf576040517f08c379a0000000000000000000000000000000000000000000000000000000008152600401610aa690613c5f565b60405180910390fd5b610ac367c483a1a8450a779f60c01b613057565b8080600101915050610948565b50610ae56749071f35361ade8760c01b613057565b610af9673c3c2a935350e78860c01b613057565b6000610b04826130f3565b9050610b1a67e1db2f64594cd32c60c01b613057565b80600f60003373ffffffffffffffffffffffffffffffffffffffff1673ffffffffffffffffffffffffffffffffffffffff1681526020019081526020016000206000828254610b699190613ac9565b92505081905550610b8467bd02228fb2acd44860c01b613057565b8060076000828254610b969190613ac9565b92505081905550610bb167e7318d68c46dbdae60c01b613057565b81600e60003373ffffffffffffffffffffffffffffffffffffffff1673ffffffffffffffffffffffffffffffffffffffff1681526020019081526020016000206000828254610c009190613ac9565b92505081905550610c1b674f1111b74c03ca6060c01b613057565b81600a6000828254610c2d9190613ac9565b92505081905550610c4867208ae6cb433952fe60c01b613057565b8160096000828254610c5a9190613ac9565b92505081905550610c756792d6bd8ab06a62a460c01b613057565b610c8967c87fb72466a0154660c01b613057565b610c9d6721606298063716c860c01b613057565b60005b82811015610d8857610cbc6756ec1f52e70282e060c01b613057565b610cd067c241e3025d78703c60c01b613057565b600460009054906101000a900473ffffffffffffffffffffffffffffffffffffffff1673ffffffffffffffffffffffffffffffffffffffff1663b88d4fde3330878581518110610d2357610d22613b91565b5b60200260200101516040518463ffffffff1660e01b8152600401610d4993929190613cb6565b600060405180830381600087803b158015610d6357600080fd5b505af1158015610d77573d6000803e3d6000fd5b505050508080600101915050610ca0565b50610d9d67be12b1cc133b6c4660c01b613057565b600160106000828254610db09190613ac9565b92505081905550610dcb6792431f304118f9c060c01b613057565b610ddf6752ecf74b7b27f7ae60c01b613057565b3373ffffffffffffffffffffffffffffffffffffffff167f4878d7612f82fe191a047b0b347ad5f3511e8c4386c63aa5ab6bc36a28d9a6728483601054604051610e2b93929190613dbe565b60405180910390a2505050565b60085481565b6000610e5467c55618a54fc2e76860c01b613057565b610e6867df3ec86acaaf6b1560c01b613057565b6002600354600184610e7a9190613b5d565b84610e859190613a6f565b610e8f9190613a6f565b610e999190613b2c565b6002600354610ea89190613a6f565b600254610eb59190613b5d565b83610ec09190613a6f565b610eca9190613b5d565b9050610ee067c35b4b4ab79dd9c960c01b613057565b610ef467a6e9769828dbee7260c01b613057565b610efd8161305a565b919050565b610f16675781e0d93c82950760c01b613057565b610f2a67b3bc57b01e71f96860c01b613057565b610f3e673a791bd56c8de7ae60c01b613057565b600082519050610f58675ded5a2797985cc960c01b613057565b610f6c67b804b1288444a4f960c01b613057565b600080610f7e83600254600354613240565b91509150610f96672e6582a61a31237960c01b613057565b610faa67c39a756f379e6e9f60c01b613057565b610fbe679fe44ebffb40bfae60c01b613057565b60005b8381101561111357610fdd67d78774222bbb1d7260c01b613057565b610ff167dae8965371bfb7e660c01b613057565b611005676914e87a8951bc9b60c01b613057565b3373ffffffffffffffffffffffffffffffffffffffff16600460009054906101000a900473ffffffffffffffffffffffffffffffffffffffff1673ffffffffffffffffffffffffffffffffffffffff16636352211e88848151811061106d5761106c613b91565b5b60200260200101516040518263ffffffff1660e01b81526004016110919190613616565b602060405180830381865afa1580156110ae573d6000803e3d6000fd5b505050506040513d601f19601f820116820180604052508101906110d29190613bd5565b73ffffffffffffffffffffffffffffffffffffffff16146110f257600080fd5b611106672121f7f3a860f14d60c01b613057565b8080600101915050610fc1565b5061112867a8ca490880bf2eae60c01b613057565b61113c6796a2ba90fece892660c01b613057565b61115067ca818b434f0916fd60c01b613057565b83821015611193576040517f08c379a000000000000000000000000000000000000000000000000000000000815260040161118a90613e6e565b60405180910390fd5b6111a7670b87d885168a044d60c01b613057565b6111bb673165b9a58f53291e60c01b613057565b6111cf67841ac9ef30d0fe8360c01b613057565b6111e367c9580b986b0d081460c01b613057565b81471015611226576040517f08c379a000000000000000000000000000000000000000000000000000000000815260040161121d90613eda565b60405180910390fd5b61123a67eb43b8864f37a04e60c01b613057565b61124e672343f2cbd8c7af7c60c01b613057565b6112626721627900ebe5f17560c01b613057565b611276675a9d7e6f63c4e2e060c01b613057565b600b548311156112bb576040517f08c379a00000000000000000000000000000000000000000000000000000000081526004016112b290613f6c565b60405180910390fd5b6112cf672307bcd4e371df7360c01b613057565b6112e367e99df70412490ce360c01b613057565b82600d60008282546112f59190613ac9565b9250508190555061131067a13c1e902299e7fc60c01b613057565b82600b60008282546113229190613b5d565b9250508190555061133d678f72572eb1cf8f3860c01b613057565b82600a600082825461134f9190613ac9565b9250508190555061136a677a7d805f1786128460c01b613057565b61137e67dc287939b47df72960c01b613057565b600d54600c54106114295761139d6737a64644fbd16be960c01b613057565b6113b1675d9f6e4a4466e53460c01b613057565b600354600d546113c19190613a6f565b600860008282546113d29190613ac9565b925050819055506113ed67e0b5f16acba142b560c01b613057565b600d54600c60008282546114019190613b5d565b9250508190555061141c676a41f002a53e619460c01b613057565b6000600d8190555061143e565b61143d670add57b23a64867960c01b613057565b5b611452674ce7bd7f5813d56860c01b613057565b611466678bdf5f2f7c2881a660c01b613057565b80600254146114a357611483672398f00e0c37f2ae60c01b613057565b6114976767babdc275bd764260c01b613057565b806002819055506114b8565b6114b7679c587f3ea76a543d60c01b613057565b5b6114cc678c918b195cf2e8ef60c01b613057565b6114e067860c3d0ce241848a60c01b613057565b6114f4678e820a2b3a3177f160c01b613057565b60005b838110156115df576115136711879e9f9507f37460c01b613057565b61152767e5339d995a5d2aee60c01b613057565b600460009054906101000a900473ffffffffffffffffffffffffffffffffffffffff1673ffffffffffffffffffffffffffffffffffffffff1663b88d4fde333089858151811061157a57611579613b91565b5b60200260200101516040518463ffffffff1660e01b81526004016115a093929190613cb6565b600060405180830381600087803b1580156115ba57600080fd5b505af11580156115ce573d6000803e3d6000fd5b5050505080806001019150506114f7565b506115f467890929e1ccdda8c460c01b613057565b6116086755741ce4e4b47ffd60c01b613057565b3373ffffffffffffffffffffffffffffffffffffffff166108fc839081150290604051600060405180830381858888f1935050505015801561164e573d6000803e3d6000fd5b50611663677b6e9ef2c4b5af9f60c01b613057565b6001601060008282546116769190613ac9565b92505081905550611691674ccded3aaaee248060c01b613057565b6116a5675396d982e740836b60c01b613057565b3373ffffffffffffffffffffffffffffffffffffffff167f6ca45ca5ce8024fc88733e2429be2dd08f4f6498d0384c382409c22f7ec5cd8086846010546040516116f193929190613dbe565b60405180910390a25050505050565b60025481565b61171a67312800456a1d5fc060c01b613057565b61172e673830b71bf16fd78e60c01b613057565b6117426705dd8e0aa7782db760c01b613057565b60008151905061175c676bff5ed27bcf8f0260c01b613057565b611770678538f2260ae5db5d60c01b613057565b600080611782836002546003546132fe565b9150915061179a6738e34f059b203a2e60c01b613057565b6117ae67dd5d8046e1fbbcd460c01b613057565b6117c267cffc41445049256160c01b613057565b60008311611805576040517f08c379a00000000000000000000000000000000000000000000000000000000081526004016117fc90613fd8565b60405180910390fd5b611819672c28c9ba437df3ee60c01b613057565b61182d670a977ddc9c34f2fb60c01b613057565b611841673504df4c3601c98260c01b613057565b6118556752812f952149d16560c01b613057565b600a5483111561189a576040517f08c379a00000000000000000000000000000000000000000000000000000000081526004016118919061406a565b60405180910390fd5b6118ae67c89a14e58f5e3c2b60c01b613057565b6118c26791b0d8111f456bd160c01b613057565b6118d6671edf20987c14b25f60c01b613057565b6118ea6783a73fd35743a02060c01b613057565b8134101561192d576040517f08c379a0000000000000000000000000000000000000000000000000000000008152600401611924906140d6565b60405180910390fd5b61194167996318c2649e3a7660c01b613057565b61195567e1e63ebca70e4a8760c01b613057565b6119696751c31859131e1d3460c01b613057565b61197d67c4cc8b49410437eb60c01b613057565b60005b83811015611ad25761199c67deafd7569ca51e3860c01b613057565b6119b0677797c018139f7a0860c01b613057565b6119c467e39158173a8ee7ef60c01b613057565b3073ffffffffffffffffffffffffffffffffffffffff16600460009054906101000a900473ffffffffffffffffffffffffffffffffffffffff1673ffffffffffffffffffffffffffffffffffffffff16636352211e878481518110611a2c57611a2b613b91565b5b60200260200101516040518263ffffffff1660e01b8152600401611a509190613616565b602060405180830381865afa158015611a6d573d6000803e3d6000fd5b505050506040513d601f19601f82011682018060405250810190611a919190613bd5565b73ffffffffffffffffffffffffffffffffffffffff1614611ab157600080fd5b611ac567cf1c3b2f83fcc08c60c01b613057565b8080600101915050611980565b50611ae767e6687ad8274157c960c01b613057565b82600c6000828254611af99190613ac9565b92505081905550611b14671f5eccff133d904d60c01b613057565b82600a6000828254611b269190613b5d565b92505081905550611b41678942ddaaefce80e660c01b613057565b82600b6000828254611b539190613ac9565b92505081905550611b6e67cdd7defc7738cf6360c01b613057565b611b82671500831bbf796f0b60c01b613057565b8060025414611bbf57611b9f67ba282704e1b8bac060c01b613057565b611bb36791b7cd4f3c8e909160c01b613057565b80600281905550611bd4565b611bd36736d4e3b9e3eeb74b60c01b613057565b5b611be867bbd50634fd40446860c01b613057565b611bfc67104db753af9e4b4f60c01b613057565b3373ffffffffffffffffffffffffffffffffffffffff166108fc8334611c229190613b5d565b9081150290604051600060405180830381858888f19350505050158015611c4d573d6000803e3d6000fd5b50611c6267b2558d9bdefb7af760c01b613057565b611c7667a34cfc3ad354f29c60c01b613057565b611c8a677b6e03348a6dec3760c01b613057565b60005b8451811015611d7657611caa6729146c95df6795be60c01b613057565b611cbe6774ea6dc656e5e64060c01b613057565b600460009054906101000a900473ffffffffffffffffffffffffffffffffffffffff1673ffffffffffffffffffffffffffffffffffffffff1663b88d4fde3033888581518110611d1157611d10613b91565b5b60200260200101516040518463ffffffff1660e01b8152600401611d3793929190613cb6565b600060405180830381600087803b158015611d5157600080fd5b505af1158015611d65573d6000803e3d6000fd5b505050508080600101915050611c8d565b50611d8b672a423314daac9c9a60c01b613057565b600160106000828254611d9e9190613ac9565b92505081905550611db967bebb7045166a4a0e60c01b613057565b611dcd67e1c50a801481c4cf60c01b613057565b3373ffffffffffffffffffffffffffffffffffffffff167fe5000e634a4e202c31b291a329762ea2a5d0c00d4968856eb4112b217677c1d18584601054604051611e1993929190613dbe565b60405180910390a250505050565b600460009054906101000a900473ffffffffffffffffffffffffffffffffffffffff1681565b60015481565b600d5481565b600a5481565b6000611e756741535b26deaa33d060c01b613057565b611e89670269a8f68d21611a60c01b613057565b611e9d6729660403ad5bd8ff60c01b613057565b600e60008373ffffffffffffffffffffffffffffffffffffffff1673ffffffffffffffffffffffffffffffffffffffff168152602001908152602001600020549050919050565b60095481565b611efe67ac04d5d1c309fea160c01b613057565b611f126782c7d164ffac54ae60c01b613057565b611f26673bbb49ff8bafa22860c01b613057565b600081519050611f4067938aa251acbb971460c01b613057565b611f5467d7086efcb2f2f45460c01b613057565b6000611f9f600e60003373ffffffffffffffffffffffffffffffffffffffff1673ffffffffffffffffffffffffffffffffffffffff16815260200190815260200160002054336133a5565b9050611fb56712096acd2609046e60c01b613057565b611fc967819fbf9d9dd5a7fd60c01b613057565b611fdd67e6f0746c21e8041460c01b613057565b60005b8281101561213257611ffc67b8ce4e0cc256052460c01b613057565b61201067d2add3fb5bb7ebd760c01b613057565b61202467e53c6d78ccd9fc7260c01b613057565b3073ffffffffffffffffffffffffffffffffffffffff16600460009054906101000a900473ffffffffffffffffffffffffffffffffffffffff1673ffffffffffffffffffffffffffffffffffffffff16636352211e86848151811061208c5761208b613b91565b5b60200260200101516040518263ffffffff1660e01b81526004016120b09190613616565b602060405180830381865afa1580156120cd573d6000803e3d6000fd5b505050506040513d601f19601f820116820180604052508101906120f19190613bd5565b73ffffffffffffffffffffffffffffffffffffffff161461211157600080fd5b612125671a842bb0017ab51160c01b613057565b8080600101915050611fe0565b5061214767c176972fc607be7560c01b613057565b61215b6732f472d4272cc0ba60c01b613057565b61216f67c40641875d52182260c01b613057565b600a54600e60003373ffffffffffffffffffffffffffffffffffffffff1673ffffffffffffffffffffffffffffffffffffffff16815260200190815260200160002054116121f2576040517f08c379a00000000000000000000000000000000000000000000000000000000081526004016121e990614142565b60405180910390fd5b6122066780041049bebf5dad60c01b613057565b61221a6711192abe94aa571760c01b613057565b61222e67575b222a77a6fe7860c01b613057565b61224267f258c46a1fbbcc4a60c01b613057565b8251600a5414612287576040517f08c379a000000000000000000000000000000000000000000000000000000000815260040161227e906141ae565b60405180910390fd5b61229b67ec6f33fae23ed52f60c01b613057565b6122af6723adf7bc154ffb9f60c01b613057565b8251600a60008282546122c29190613b5d565b925050819055506122dd67b733aa583bdca5b360c01b613057565b8251600e60003373ffffffffffffffffffffffffffffffffffffffff1673ffffffffffffffffffffffffffffffffffffffff168152602001908152602001600020546123299190613b5d565b600b600082825461233a9190613b5d565b9250508190555061235567a5689a492a97871f60c01b613057565b600e60003373ffffffffffffffffffffffffffffffffffffffff1673ffffffffffffffffffffffffffffffffffffffff16815260200190815260200160002054600960008282546123a69190613b5d565b925050819055506123c167592776df2d24513d60c01b613057565b6000600e60003373ffffffffffffffffffffffffffffffffffffffff1673ffffffffffffffffffffffffffffffffffffffff1681526020019081526020016000208190555061241a677a20bd9c78eab2bf60c01b613057565b600f60003373ffffffffffffffffffffffffffffffffffffffff1673ffffffffffffffffffffffffffffffffffffffff168152602001908152602001600020546007600082825461246b9190613b5d565b9250508190555061248667bf4c3a5633502cc460c01b613057565b6000600f60003373ffffffffffffffffffffffffffffffffffffffff1673ffffffffffffffffffffffffffffffffffffffff168152602001908152602001600020819055506124df6767b3f5c2b195a11060c01b613057565b6124f367c8efa594d652651160c01b613057565b3373ffffffffffffffffffffffffffffffffffffffff166108fc829081150290604051600060405180830381858888f19350505050158015612539573d6000803e3d6000fd5b5061254e679c72c3411bf2e2c160c01b613057565b61256267777e1cf94ba7ed9460c01b613057565b61257667a0b9acd8fd694bca60c01b613057565b60005b828110156126615761259567a5932969c254125a60c01b613057565b6125a96789020e5b1a96a5af60c01b613057565b600460009054906101000a900473ffffffffffffffffffffffffffffffffffffffff1673ffffffffffffffffffffffffffffffffffffffff1663b88d4fde30338785815181106125fc576125fb613b91565b5b60200260200101516040518463ffffffff1660e01b815260040161262293929190613cb6565b600060405180830381600087803b15801561263c57600080fd5b505af1158015612650573d6000803e3d6000fd5b505050508080600101915050612579565b506126766739f22e01c53ed7a160c01b613057565b6001601060008282546126899190613ac9565b925050819055506126a467061b35303e34d71e60c01b613057565b6126b867acd95b8baf96d8c060c01b613057565b3373ffffffffffffffffffffffffffffffffffffffff167fc00b4d585541feaad2ee1a2e5625bbd4b4127615320596ed6e31c0494524f32e84600f60003373ffffffffffffffffffffffffffffffffffffffff1673ffffffffffffffffffffffffffffffffffffffff1681526020019081526020016000205460105460405161274393929190613dbe565b60405180910390a2505050565b60075481565b600061276c67d0d1845dbc40ff4c60c01b613057565b6127806786473994fd723fb160c01b613057565b612794670d4fb4716007decb60c01b613057565b600f60008373ffffffffffffffffffffffffffffffffffffffff1673ffffffffffffffffffffffffffffffffffffffff168152602001908152602001600020549050919050565b6127ef676101ef1197b34b7460c01b613057565b61280367ab042915a770e7be60c01b613057565b6128176723f3c4d060026ab460c01b613057565b60008151905061283167ab10f7820637cc7f60c01b613057565b61284567c211874eea4ead7960c01b613057565b600061285182336133a5565b905061286767b3815107959c3dff60c01b613057565b61287b67c3bfc24e6509396560c01b613057565b61288f67265edf4103beb31c60c01b613057565b60005b828110156129e4576128ae673556b642f696d1a160c01b613057565b6128c267fc29dcc030ace2f960c01b613057565b6128d667f589a1bfdc9dcfd960c01b613057565b3073ffffffffffffffffffffffffffffffffffffffff16600460009054906101000a900473ffffffffffffffffffffffffffffffffffffffff1673ffffffffffffffffffffffffffffffffffffffff16636352211e86848151811061293e5761293d613b91565b5b60200260200101516040518263ffffffff1660e01b81526004016129629190613616565b602060405180830381865afa15801561297f573d6000803e3d6000fd5b505050506040513d601f19601f820116820180604052508101906129a39190613bd5565b73ffffffffffffffffffffffffffffffffffffffff16146129c357600080fd5b6129d767982849b34916abaf60c01b613057565b8080600101915050612892565b506129f9678b9c2837f42cc16160c01b613057565b612a0d67e897544d2212606e60c01b613057565b612a2167abafad4c008f63dd60c01b613057565b81600e60003373ffffffffffffffffffffffffffffffffffffffff1673ffffffffffffffffffffffffffffffffffffffff1681526020019081526020016000205414612aa2576040517f08c379a0000000000000000000000000000000000000000000000000000000008152600401612a999061421a565b60405180910390fd5b612ab667b79deb26c209f40560c01b613057565b612aca67208158dee31171ba60c01b613057565b612ade677495d256c982a82660c01b613057565b612af2675b9b20b92152ef8c60c01b613057565b81600a541015612b37576040517f08c379a0000000000000000000000000000000000000000000000000000000008152600401612b2e90614286565b60405180910390fd5b612b4b67a339096a1a8cbac760c01b613057565b612b5f67d7526bf75208b8cb60c01b613057565b600e60003373ffffffffffffffffffffffffffffffffffffffff1673ffffffffffffffffffffffffffffffffffffffff16815260200190815260200160002054600a6000828254612bb09190613b5d565b92505081905550612bcb6777114ad021cd7f8460c01b613057565b600e60003373ffffffffffffffffffffffffffffffffffffffff1673ffffffffffffffffffffffffffffffffffffffff1681526020019081526020016000205460096000828254612c1c9190613b5d565b92505081905550612c3767580d37f95e1fb80b60c01b613057565b6000600e60003373ffffffffffffffffffffffffffffffffffffffff1673ffffffffffffffffffffffffffffffffffffffff16815260200190815260200160002081905550612c9067190c793b4bafa62f60c01b613057565b600f60003373ffffffffffffffffffffffffffffffffffffffff1673ffffffffffffffffffffffffffffffffffffffff1681526020019081526020016000205460076000828254612ce19190613b5d565b92505081905550612cfc670f46a0d90d1d753360c01b613057565b6000600f60003373ffffffffffffffffffffffffffffffffffffffff1673ffffffffffffffffffffffffffffffffffffffff16815260200190815260200160002081905550612d55671ba86f6a855aa14960c01b613057565b612d69670a9b230d47c2e23460c01b613057565b612d7d670d9213d68307162660c01b613057565b60005b82811015612e6857612d9c67a756175a5f689f4e60c01b613057565b612db06722393cb133b8ed2d60c01b613057565b600460009054906101000a900473ffffffffffffffffffffffffffffffffffffffff1673ffffffffffffffffffffffffffffffffffffffff1663b88d4fde3033878581518110612e0357612e02613b91565b5b60200260200101516040518463ffffffff1660e01b8152600401612e2993929190613cb6565b600060405180830381600087803b158015612e4357600080fd5b505af1158015612e57573d6000803e3d6000fd5b505050508080600101915050612d80565b50612e7d677bca24549f30601e60c01b613057565b612e9167ff8305f77e9ff4fa60c01b613057565b6000811115612f2257612eae675a461b2bf63901a760c01b613057565b612ec267c31b6ac0fbaaa72760c01b613057565b612ed667e8320dcbeee639f560c01b613057565b3373ffffffffffffffffffffffffffffffffffffffff166108fc829081150290604051600060405180830381858888f19350505050158015612f1c573d6000803e3d6000fd5b50612f37565b612f3667cef31c6fc9491fc060c01b613057565b5b612f4b67011e09362865b3df60c01b613057565b600160106000828254612f5e9190613ac9565b92505081905550612f7967c206b4f07bbecf4860c01b613057565b612f8d671a741f0e1238e8c860c01b613057565b3373ffffffffffffffffffffffffffffffffffffffff167fc00b4d585541feaad2ee1a2e5625bbd4b4127615320596ed6e31c0494524f32e84600f60003373ffffffffffffffffffffffffffffffffffffffff1673ffffffffffffffffffffffffffffffffffffffff1681526020019081526020016000205460105460405161301893929190613dbe565b60405180910390a2505050565b600b5481565b600660009054906101000a900473ffffffffffffffffffffffffffffffffffffffff1681565b600c5481565b50565b6130f08160405160240161306e9190613616565b6040516020818303038152906040527ff82c50f1000000000000000000000000000000000000000000000000000000007bffffffffffffffffffffffffffffffffffffffffffffffffffffffff19166020820180517bffffffffffffffffffffffffffffffffffffffffffffffffffffffff8381831617835250505050613535565b50565b6000613109676b088a671b05179b60c01b613057565b61311d67db1137a222c07cd360c01b613057565b61313167109703fe898d0b9360c01b613057565b6000613147676e987d6a1ba20ac360c01b613057565b61315b6721c85ddaa8580a6b60c01b613057565b6000600754036131a25761317967708166c1fb14582c60c01b613057565b61318d67ef49df159f115e7960c01b613057565b6002548361319b9190613a6f565b905061320f565b6131b6677c6f9c3fa3188c5260c01b613057565b6131ca67875287d26e40612660c01b613057565b6008546002546009546131dd9190613a6f565b6131e79190613ac9565b600254846131f59190613a6f565b6007546132029190613a6f565b61320c9190613b2c565b90505b613223673f1f21042f4eba9a60c01b613057565b6132376758f3649be6e144c560c01b613057565b80915050919050565b600080613257671afaa828e43c6edb60c01b613057565b61326b67f6986afd3981831b60c01b613057565b60028360018761327b9190613b5d565b876132869190613a6f565b6132909190613a6f565b61329a9190613b2c565b6002846132a79190613a6f565b856132b29190613b5d565b866132bd9190613a6f565b6132c79190613b5d565b91506132dd67fbbdcac7c93f1b6c60c01b613057565b82856132e99190613a6f565b846132f49190613b5d565b9050935093915050565b60008061331567b19a99bbf989b86660c01b613057565b61332967c5575c307cb0a65260c01b613057565b6002836001876133399190613b5d565b876133449190613a6f565b61334e9190613a6f565b6133589190613b2c565b84866133649190613a6f565b61336e9190613ac9565b9150613384676459d8d172c68e3360c01b613057565b82856133909190613a6f565b8461339b9190613ac9565b9050935093915050565b60006133bb67b758045113502a5060c01b613057565b6133cf670b5f1259fd3b67af60c01b613057565b6133e367e341d58f1575262360c01b613057565b6000600754600f60008573ffffffffffffffffffffffffffffffffffffffff1673ffffffffffffffffffffffffffffffffffffffff1681526020019081526020016000205460085460025460095461343b9190613a6f565b6134459190613ac9565b61344f9190613a6f565b6134599190613b2c565b905061346f67d6ab2b5d966eacf460c01b613057565b6134836787b88bf512bbb4f160c01b613057565b6000846002546134939190613a6f565b90506134a96738cd3bb69089260460c01b613057565b6134bd673f2d2ba9ce5f99df60c01b613057565b80821115613500576134d967dab7a92adb98a7e560c01b613057565b6134ed672efabb830995fc6e60c01b613057565b80826134f99190613b5d565b925061352d565b61351467104a856767b6029560c01b613057565b61352867047e679707537ec860c01b613057565b600092505b505092915050565b60008151905060006a636f6e736f6c652e6c6f679050602083016000808483855afa5050505050565b6000604051905090565b600080fd5b600080fd5b600073ffffffffffffffffffffffffffffffffffffffff82169050919050565b600061359d82613572565b9050919050565b6135ad81613592565b81146135b857600080fd5b50565b6000813590506135ca816135a4565b92915050565b6000602082840312156135e6576135e5613568565b5b60006135f4848285016135bb565b91505092915050565b6000819050919050565b613610816135fd565b82525050565b600060208201905061362b6000830184613607565b92915050565b61363a816135fd565b811461364557600080fd5b50565b60008135905061365781613631565b92915050565b60006020828403121561367357613672613568565b5b600061368184828501613648565b91505092915050565b61369381613592565b82525050565b60006020820190506136ae600083018461368a565b92915050565b600080fd5b600080fd5b6000601f19601f8301169050919050565b7f4e487b7100000000000000000000000000000000000000000000000000000000600052604160045260246000fd5b613707826136be565b810181811067ffffffffffffffff82111715613726576137256136cf565b5b80604052505050565b600061373961355e565b905061374582826136fe565b919050565b600067ffffffffffffffff821115613765576137646136cf565b5b61376e826136be565b9050602081019050919050565b82818337600083830152505050565b600061379d6137988461374a565b61372f565b9050828152602081018484840111156137b9576137b86136b9565b5b6137c484828561377b565b509392505050565b600082601f8301126137e1576137e06136b4565b5b81356137f184826020860161378a565b91505092915050565b6000806000806080858703121561381457613813613568565b5b6000613822878288016135bb565b9450506020613833878288016135bb565b935050604061384487828801613648565b925050606085013567ffffffffffffffff8111156138655761386461356d565b5b613871878288016137cc565b91505092959194509250565b60007fffffffff0000000000000000000000000000000000000000000000000000000082169050919050565b6138b28161387d565b82525050565b60006020820190506138cd60008301846138a9565b92915050565b600067ffffffffffffffff8211156138ee576138ed6136cf565b5b602082029050602081019050919050565b600080fd5b6000613917613912846138d3565b61372f565b9050808382526020820190506020840283018581111561393a576139396138ff565b5b835b81811015613963578061394f8882613648565b84526020840193505060208101905061393c565b5050509392505050565b600082601f830112613982576139816136b4565b5b8135613992848260208601613904565b91505092915050565b6000602082840312156139b1576139b0613568565b5b600082013567ffffffffffffffff8111156139cf576139ce61356d565b5b6139db8482850161396d565b91505092915050565b600080604083850312156139fb576139fa613568565b5b600083013567ffffffffffffffff811115613a1957613a1861356d565b5b613a258582860161396d565b9250506020613a3685828601613648565b9150509250929050565b7f4e487b7100000000000000000000000000000000000000000000000000000000600052601160045260246000fd5b6000613a7a826135fd565b9150613a85836135fd565b9250817fffffffffffffffffffffffffffffffffffffffffffffffffffffffffffffffff0483118215151615613abe57613abd613a40565b5b828202905092915050565b6000613ad4826135fd565b9150613adf836135fd565b9250828201905080821115613af757613af6613a40565b5b92915050565b7f4e487b7100000000000000000000000000000000000000000000000000000000600052601260045260246000fd5b6000613b37826135fd565b9150613b42836135fd565b925082613b5257613b51613afd565b5b828204905092915050565b6000613b68826135fd565b9150613b73836135fd565b9250828203905081811115613b8b57613b8a613a40565b5b92915050565b7f4e487b7100000000000000000000000000000000000000000000000000000000600052603260045260246000fd5b600081519050613bcf816135a4565b92915050565b600060208284031215613beb57613bea613568565b5b6000613bf984828501613bc0565b91505092915050565b600082825260208201905092915050565b7f796f7520617265206e6f74206f776e6572000000000000000000000000000000600082015250565b6000613c49601183613c02565b9150613c5482613c13565b602082019050919050565b60006020820190508181036000830152613c7881613c3c565b9050919050565b600082825260208201905092915050565b50565b6000613ca0600083613c7f565b9150613cab82613c90565b600082019050919050565b6000608082019050613ccb600083018661368a565b613cd8602083018561368a565b613ce56040830184613607565b8181036060830152613cf681613c93565b9050949350505050565b600081519050919050565b600082825260208201905092915050565b6000819050602082019050919050565b613d35816135fd565b82525050565b6000613d478383613d2c565b60208301905092915050565b6000602082019050919050565b6000613d6b82613d00565b613d758185613d0b565b9350613d8083613d1c565b8060005b83811015613db1578151613d988882613d3b565b9750613da383613d53565b925050600181019050613d84565b5085935050505092915050565b60006060820190508181036000830152613dd88186613d60565b9050613de76020830185613607565b613df46040830184613607565b949350505050565b7f54686520616d6f756e7420796f7520676574206973206c6f776572207468616e60008201527f2065787065637465642e00000000000000000000000000000000000000000000602082015250565b6000613e58602a83613c02565b9150613e6382613dfc565b604082019050919050565b60006020820190508181036000830152613e8781613e4b565b9050919050565b7f7468697320636f6e7472616374206973206e6f7420656e6f7567680000000000600082015250565b6000613ec4601b83613c02565b9150613ecf82613e8e565b602082019050919050565b60006020820190508181036000830152613ef381613eb7565b9050919050565b7f73656c6c20706f736974696f6e206e6f7420656e6f756768206c69717569646960008201527f7479000000000000000000000000000000000000000000000000000000000000602082015250565b6000613f56602283613c02565b9150613f6182613efa565b604082019050919050565b60006020820190508181036000830152613f8581613f49565b9050919050565b7f4d7573742061736b20666f72203e2030204e4654730000000000000000000000600082015250565b6000613fc2601583613c02565b9150613fcd82613f8c565b602082019050919050565b60006020820190508181036000830152613ff181613fb5565b9050919050565b7f62757920706f736974696f6e206e6f7420656e6f756768206c6971756964697460008201527f7900000000000000000000000000000000000000000000000000000000000000602082015250565b6000614054602183613c02565b915061405f82613ff8565b604082019050919050565b6000602082019050818103600083015261408381614047565b9050919050565b7f6e6f7420656e6f7567682076616c756500000000000000000000000000000000600082015250565b60006140c0601083613c02565b91506140cb8261408a565b602082019050919050565b600060208201905081810360008301526140ef816140b3565b9050919050565b7f506f6f6c204e46542069732072656d61696e2079657400000000000000000000600082015250565b600061412c601683613c02565b9150614137826140f6565b602082019050919050565b6000602082019050818103600083015261415b8161411f565b9050919050565b7f596f7520776f756c6420666f72676f74204e4654000000000000000000000000600082015250565b6000614198601483613c02565b91506141a382614162565b602082019050919050565b600060208201905081810360008301526141c78161418b565b9050919050565b7f596f7572204e46542069732072656d61696e2079657400000000000000000000600082015250565b6000614204601683613c02565b915061420f826141ce565b602082019050919050565b60006020820190508181036000830152614233816141f7565b9050919050565b7f506f6f6c206e6f7420656e6f756768204e465400000000000000000000000000600082015250565b6000614270601383613c02565b915061427b8261423a565b602082019050919050565b6000602082019050818103600083015261429f81614263565b905091905056fea2646970667358221220ffaaba4318a6c8b5b69fcdfc0f171d4059984032bcc5f198b2c2562555e679ac64736f6c63430008100033",
  "linkReferences": {},
  "deployedLinkReferences": {}
}