{
  "_format": "hh-sol-artifact-1",
  "contractName": "Router",
  "sourceName": "contracts/Router.sol",
  "abi": [
    {
      "anonymous": false,
      "inputs": [
        {
          "indexed": true,
          "internalType": "address",
          "name": "previousOwner",
          "type": "address"
        },
        {
          "indexed": true,
          "internalType": "address",
          "name": "newOwner",
          "type": "address"
        }
      ],
      "name": "OwnershipTransferred",
      "type": "event"
    },
    {
      "anonymous": false,
      "inputs": [
        {
          "indexed": false,
          "internalType": "address",
          "name": "",
          "type": "address"
        },
        {
          "indexed": false,
          "internalType": "uint256",
          "name": "",
          "type": "uint256"
        }
      ],
      "name": "Received",
      "type": "event"
    },
    {
      "anonymous": false,
      "inputs": [
        {
          "indexed": true,
          "internalType": "address",
          "name": "user",
          "type": "address"
        },
        {
          "indexed": true,
          "internalType": "address",
          "name": "pool",
          "type": "address"
        },
        {
          "indexed": false,
          "internalType": "uint256",
          "name": "userNum",
          "type": "uint256"
        },
        {
          "indexed": false,
          "internalType": "uint256",
          "name": "userAmount",
          "type": "uint256"
        }
      ],
      "name": "StakeFT",
      "type": "event"
    },
    {
      "anonymous": false,
      "inputs": [
        {
          "indexed": true,
          "internalType": "address",
          "name": "user",
          "type": "address"
        },
        {
          "indexed": true,
          "internalType": "address",
          "name": "pool",
          "type": "address"
        },
        {
          "indexed": false,
          "internalType": "uint256",
          "name": "userNum",
          "type": "uint256"
        },
        {
          "indexed": false,
          "internalType": "uint256[]",
          "name": "tokenIds",
          "type": "uint256[]"
        }
      ],
      "name": "StakeNFT",
      "type": "event"
    },
    {
      "anonymous": false,
      "inputs": [
        {
          "indexed": true,
          "internalType": "address",
          "name": "user",
          "type": "address"
        },
        {
          "indexed": true,
          "internalType": "address",
          "name": "pool",
          "type": "address"
        },
        {
          "indexed": false,
          "internalType": "uint256[]",
          "name": "tokenIds",
          "type": "uint256[]"
        },
        {
          "indexed": false,
          "internalType": "uint256",
          "name": "totalFee",
          "type": "uint256"
        },
        {
          "indexed": false,
          "internalType": "address",
          "name": "support",
          "type": "address"
        }
      ],
      "name": "SwapFTforNFT",
      "type": "event"
    },
    {
      "anonymous": false,
      "inputs": [
        {
          "indexed": true,
          "internalType": "address",
          "name": "user",
          "type": "address"
        },
        {
          "indexed": true,
          "internalType": "address",
          "name": "pool",
          "type": "address"
        },
        {
          "indexed": false,
          "internalType": "uint256[]",
          "name": "tokenIds",
          "type": "uint256[]"
        },
        {
          "indexed": false,
          "internalType": "uint256",
          "name": "totalFee",
          "type": "uint256"
        },
        {
          "indexed": false,
          "internalType": "address",
          "name": "support",
          "type": "address"
        }
      ],
      "name": "SwapNFTforFT",
      "type": "event"
    },
    {
      "anonymous": false,
      "inputs": [
        {
          "indexed": true,
          "internalType": "address",
          "name": "user",
          "type": "address"
        },
        {
          "indexed": true,
          "internalType": "address",
          "name": "pool",
          "type": "address"
        },
        {
          "indexed": false,
          "internalType": "uint256[]",
          "name": "tokenIds",
          "type": "uint256[]"
        },
        {
          "indexed": false,
          "internalType": "uint256",
          "name": "userNum",
          "type": "uint256"
        },
        {
          "indexed": false,
          "internalType": "uint256",
          "name": "userAmount",
          "type": "uint256"
        },
        {
          "indexed": false,
          "internalType": "uint256",
          "name": "userFee",
          "type": "uint256"
        }
      ],
      "name": "WithdrawFT",
      "type": "event"
    },
    {
      "anonymous": false,
      "inputs": [
        {
          "indexed": true,
          "internalType": "address",
          "name": "user",
          "type": "address"
        },
        {
          "indexed": true,
          "internalType": "address",
          "name": "pool",
          "type": "address"
        },
        {
          "indexed": false,
          "internalType": "uint256[]",
          "name": "tokenIds",
          "type": "uint256[]"
        },
        {
          "indexed": false,
          "internalType": "uint256",
          "name": "userNum",
          "type": "uint256"
        },
        {
          "indexed": false,
          "internalType": "uint256",
          "name": "userFee",
          "type": "uint256"
        }
      ],
      "name": "WithdrawNFT",
      "type": "event"
    },
    {
      "inputs": [
        {
          "internalType": "address",
          "name": "_collection",
          "type": "address"
        },
        {
          "internalType": "address",
          "name": "_pool",
          "type": "address"
        }
      ],
      "name": "addCollectionPoolList",
      "outputs": [],
      "stateMutability": "nonpayable",
      "type": "function"
    },
    {
      "inputs": [
        {
          "internalType": "address[]",
          "name": "_poolList",
          "type": "address[]"
        },
        {
          "internalType": "uint256[]",
          "name": "_tokenIds",
          "type": "uint256[]"
        },
        {
          "internalType": "address",
          "name": "_support",
          "type": "address"
        },
        {
          "internalType": "uint256[]",
          "name": "_pattern",
          "type": "uint256[]"
        }
      ],
      "name": "batchSwapFTforNFT",
      "outputs": [],
      "stateMutability": "nonpayable",
      "type": "function"
    },
    {
      "inputs": [
        {
          "internalType": "address[]",
          "name": "_poolList",
          "type": "address[]"
        },
        {
          "internalType": "uint256[]",
          "name": "_tokenIds",
          "type": "uint256[]"
        },
        {
          "internalType": "uint256[]",
          "name": "_minExpects",
          "type": "uint256[]"
        },
        {
          "internalType": "address",
          "name": "_support",
          "type": "address"
        },
        {
          "internalType": "uint256[]",
          "name": "_pattern",
          "type": "uint256[]"
        }
      ],
      "name": "batchSwapNFTforFT",
      "outputs": [],
      "stateMutability": "nonpayable",
      "type": "function"
    },
    {
      "inputs": [
        {
          "internalType": "uint256",
          "name": "",
          "type": "uint256"
        }
      ],
      "name": "bondingCurveList",
      "outputs": [
        {
          "internalType": "address",
          "name": "",
          "type": "address"
        }
      ],
      "stateMutability": "view",
      "type": "function"
    },
    {
      "inputs": [
        {
          "internalType": "uint256",
          "name": "",
          "type": "uint256"
        }
      ],
      "name": "collectionList",
      "outputs": [
        {
          "internalType": "address",
          "name": "",
          "type": "address"
        }
      ],
      "stateMutability": "view",
      "type": "function"
    },
    {
      "inputs": [],
      "name": "getBondingCurveList",
      "outputs": [
        {
          "internalType": "address[]",
          "name": "",
          "type": "address[]"
        }
      ],
      "stateMutability": "view",
      "type": "function"
    },
    {
      "inputs": [],
      "name": "getCollectionList",
      "outputs": [
        {
          "internalType": "address[]",
          "name": "",
          "type": "address[]"
        }
      ],
      "stateMutability": "view",
      "type": "function"
    },
    {
      "inputs": [
        {
          "internalType": "address",
          "name": "_collection",
          "type": "address"
        }
      ],
      "name": "getCollectionPoolList",
      "outputs": [
        {
          "internalType": "address[]",
          "name": "",
          "type": "address[]"
        }
      ],
      "stateMutability": "view",
      "type": "function"
    },
    {
      "inputs": [
        {
          "internalType": "address",
          "name": "_bondingCurve",
          "type": "address"
        }
      ],
      "name": "getIsBondingCurveApprove",
      "outputs": [
        {
          "internalType": "bool",
          "name": "",
          "type": "bool"
        }
      ],
      "stateMutability": "view",
      "type": "function"
    },
    {
      "inputs": [
        {
          "internalType": "address",
          "name": "_collection",
          "type": "address"
        }
      ],
      "name": "getIsCollectionApprove",
      "outputs": [
        {
          "internalType": "bool",
          "name": "",
          "type": "bool"
        }
      ],
      "stateMutability": "view",
      "type": "function"
    },
    {
      "inputs": [
        {
          "internalType": "address",
          "name": "pool",
          "type": "address"
        }
      ],
      "name": "getPoolInfo",
      "outputs": [
        {
          "components": [
            {
              "internalType": "address",
              "name": "bondingCurve",
              "type": "address"
            },
            {
              "internalType": "uint128",
              "name": "spotPrice",
              "type": "uint128"
            },
            {
              "internalType": "uint128",
              "name": "delta",
              "type": "uint128"
            },
            {
              "internalType": "uint256",
              "name": "divergence",
              "type": "uint256"
            },
            {
              "internalType": "uint256",
              "name": "buyNum",
              "type": "uint256"
            },
            {
              "internalType": "uint256",
              "name": "sellNum",
              "type": "uint256"
            }
          ],
          "internalType": "struct IPool721.PoolInfo",
          "name": "poolInfo",
          "type": "tuple"
        }
      ],
      "stateMutability": "nonpayable",
      "type": "function"
    },
    {
      "inputs": [
        {
          "internalType": "address",
          "name": "_pool",
          "type": "address"
        },
        {
          "internalType": "address",
          "name": "_user",
          "type": "address"
        }
      ],
      "name": "getUserInfo",
      "outputs": [
        {
          "components": [
            {
              "internalType": "uint256",
              "name": "userInitBuyNum",
              "type": "uint256"
            },
            {
              "internalType": "uint256",
              "name": "userInitSellNum",
              "type": "uint256"
            },
            {
              "internalType": "uint256",
              "name": "userInitSellAmount",
              "type": "uint256"
            },
            {
              "internalType": "uint256",
              "name": "userNFTpoint",
              "type": "uint256"
            },
            {
              "internalType": "uint256",
              "name": "userFTpoint",
              "type": "uint256"
            }
          ],
          "internalType": "struct IPool721.UserInfo",
          "name": "userInfo",
          "type": "tuple"
        }
      ],
      "stateMutability": "nonpayable",
      "type": "function"
    },
    {
      "inputs": [],
      "name": "owner",
      "outputs": [
        {
          "internalType": "address",
          "name": "",
          "type": "address"
        }
      ],
      "stateMutability": "view",
      "type": "function"
    },
    {
      "inputs": [],
      "name": "renounceOwnership",
      "outputs": [],
      "stateMutability": "nonpayable",
      "type": "function"
    },
    {
      "inputs": [
        {
          "internalType": "address",
          "name": "_bondingCurve",
          "type": "address"
        },
        {
          "internalType": "bool",
          "name": "_approve",
          "type": "bool"
        }
      ],
      "name": "setBondingCurveApprove",
      "outputs": [],
      "stateMutability": "nonpayable",
      "type": "function"
    },
    {
      "inputs": [
        {
          "internalType": "address",
          "name": "_collection",
          "type": "address"
        },
        {
          "internalType": "bool",
          "name": "_approve",
          "type": "bool"
        }
      ],
      "name": "setCollectionApprove",
      "outputs": [],
      "stateMutability": "nonpayable",
      "type": "function"
    },
    {
      "inputs": [
        {
          "internalType": "address",
          "name": "_pool",
          "type": "address"
        },
        {
          "internalType": "uint256",
          "name": "_userSellNum",
          "type": "uint256"
        }
      ],
      "name": "stakeFT",
      "outputs": [],
      "stateMutability": "payable",
      "type": "function"
    },
    {
      "inputs": [
        {
          "internalType": "address",
          "name": "_pool",
          "type": "address"
        },
        {
          "internalType": "uint256[]",
          "name": "_tokenIds",
          "type": "uint256[]"
        }
      ],
      "name": "stakeNFT",
      "outputs": [],
      "stateMutability": "nonpayable",
      "type": "function"
    },
    {
      "inputs": [],
      "name": "supporterFeeRatio",
      "outputs": [
        {
          "internalType": "uint256",
          "name": "",
          "type": "uint256"
        }
      ],
      "stateMutability": "view",
      "type": "function"
    },
    {
      "inputs": [
        {
          "internalType": "address",
          "name": "_pool",
          "type": "address"
        },
        {
          "internalType": "uint256[]",
          "name": "_tokenIds",
          "type": "uint256[]"
        },
        {
          "internalType": "address",
          "name": "_support",
          "type": "address"
        }
      ],
      "name": "swapFTforNFT",
      "outputs": [],
      "stateMutability": "payable",
      "type": "function"
    },
    {
      "inputs": [
        {
          "internalType": "address",
          "name": "_pool",
          "type": "address"
        },
        {
          "internalType": "uint256[]",
          "name": "_tokenIds",
          "type": "uint256[]"
        },
        {
          "internalType": "uint256",
          "name": "_minExpectFee",
          "type": "uint256"
        },
        {
          "internalType": "address",
          "name": "_support",
          "type": "address"
        }
      ],
      "name": "swapNFTforFT",
      "outputs": [],
      "stateMutability": "payable",
      "type": "function"
    },
    {
      "inputs": [],
      "name": "totalFee",
      "outputs": [
        {
          "internalType": "uint256",
          "name": "",
          "type": "uint256"
        }
      ],
      "stateMutability": "view",
      "type": "function"
    },
    {
      "inputs": [],
      "name": "totalProtocolFee",
      "outputs": [
        {
          "internalType": "uint256",
          "name": "",
          "type": "uint256"
        }
      ],
      "stateMutability": "view",
      "type": "function"
    },
    {
      "inputs": [
        {
          "internalType": "address",
          "name": "newOwner",
          "type": "address"
        }
      ],
      "name": "transferOwnership",
      "outputs": [],
      "stateMutability": "nonpayable",
      "type": "function"
    },
    {
      "inputs": [
        {
          "internalType": "address",
          "name": "_pool",
          "type": "address"
        },
        {
          "internalType": "uint256",
          "name": "_userSellNum",
          "type": "uint256"
        },
        {
          "internalType": "uint256[]",
          "name": "_tokenIds",
          "type": "uint256[]"
        }
      ],
      "name": "withdrawFT",
      "outputs": [],
      "stateMutability": "nonpayable",
      "type": "function"
    },
    {
      "inputs": [
        {
          "internalType": "address",
          "name": "_pool",
          "type": "address"
        },
        {
          "internalType": "uint256[]",
          "name": "_tokenIds",
          "type": "uint256[]"
        }
      ],
      "name": "withdrawNFT",
      "outputs": [],
      "stateMutability": "nonpayable",
      "type": "function"
    },
    {
      "inputs": [],
      "name": "withdrawProtocolFee",
      "outputs": [],
      "stateMutability": "payable",
      "type": "function"
    },
    {
      "inputs": [],
      "name": "withdrawSupportFee",
      "outputs": [],
      "stateMutability": "payable",
      "type": "function"
    },
    {
      "stateMutability": "payable",
      "type": "receive"
    }
  ],
  "bytecode": "0x608060405266b1a2bc2ec500006003553480156200001c57600080fd5b506200003d620000316200004360201b60201c565b6200004b60201b60201c565b6200010f565b600033905090565b60008060009054906101000a900473ffffffffffffffffffffffffffffffffffffffff169050816000806101000a81548173ffffffffffffffffffffffffffffffffffffffff021916908373ffffffffffffffffffffffffffffffffffffffff1602179055508173ffffffffffffffffffffffffffffffffffffffff168173ffffffffffffffffffffffffffffffffffffffff167f8be0079c531659141344cd1fd0a4f28419497f9722a3daafe3b4186f6b6457e060405160405180910390a35050565b613909806200011f6000396000f3fe6080604052600436106101bb5760003560e01c80639175a588116100ec578063d6775e981161008a578063f2801fe711610064578063f2801fe7146105d1578063f2fde38b1461060e578063fc5a0df514610637578063fc9d16cd14610674576101fb565b8063d6775e981461054f578063dd4b533f14610578578063e3b4403d14610594576101fb565b8063b65bfbf0116100c6578063b65bfbf0146104af578063b693febb146104ec578063bc0a0bd014610508578063cab5c30e14610533576101fb565b80639175a588146104205780639bdedea514610449578063a7b6029714610472576101fb565b80635f1c325d11610159578063779f158311610133578063779f15831461037857806388611f35146103a15780638d3b6eb3146103cc5780638da5cb5b146103f5576101fb565b80635f1c325d146102fb578063715018a614610324578063752d121c1461033b576101fb565b8063361eaa5311610195578063361eaa53146102725780634906a2a81461029d57806359d8da92146102c85780635befecc8146102d2576101fb565b806306bfa9381461020057806312b71c211461023d5780631df4ccfc14610247576101fb565b366101fb577f88a5966d370b9919b20f3e2c13ff65706f196a4e32cc2c12bf57088f8852587433346040516101f19291906125da565b60405180910390a1005b600080fd5b34801561020c57600080fd5b5061022760048036038101906102229190612643565b61069d565b6040516102349190612734565b60405180910390f35b61024561071d565b005b34801561025357600080fd5b5061025c610876565b604051610269919061274f565b60405180910390f35b34801561027e57600080fd5b5061028761087c565b6040516102949190612819565b60405180910390f35b3480156102a957600080fd5b506102b261090a565b6040516102bf9190612819565b60405180910390f35b6102d0610998565b005b3480156102de57600080fd5b506102f960048036038101906102f49190612ade565b6109f3565b005b34801561030757600080fd5b50610322600480360381019061031d9190612b9e565b610b5e565b005b34801561033057600080fd5b50610339610c0b565b005b34801561034757600080fd5b50610362600480360381019061035d9190612bde565b610c1f565b60405161036f9190612c0b565b60405180910390f35b34801561038457600080fd5b5061039f600480360381019061039a9190612c26565b610c5e565b005b3480156103ad57600080fd5b506103b6610e50565b6040516103c3919061274f565b60405180910390f35b3480156103d857600080fd5b506103f360048036038101906103ee9190612cd2565b610e56565b005b34801561040157600080fd5b5061040a610f9b565b6040516104179190612c0b565b60405180910390f35b34801561042c57600080fd5b5061044760048036038101906104429190612d12565b610fc4565b005b34801561045557600080fd5b50610470600480360381019061046b9190612d12565b611144565b005b34801561047e57600080fd5b5061049960048036038101906104949190612bde565b611331565b6040516104a69190612c0b565b60405180910390f35b3480156104bb57600080fd5b506104d660048036038101906104d19190612643565b611370565b6040516104e39190612d81565b60405180910390f35b61050660048036038101906105019190612d9c565b6113c6565b005b34801561051457600080fd5b5061051d6116b2565b60405161052a919061274f565b60405180910390f35b61054d60048036038101906105489190612ddc565b6116b8565b005b34801561055b57600080fd5b5061057660048036038101906105719190612e50565b6118d1565b005b610592600480360381019061058d9190612f44565b611a59565b005b3480156105a057600080fd5b506105bb60048036038101906105b69190612643565b611c74565b6040516105c89190612819565b60405180910390f35b3480156105dd57600080fd5b506105f860048036038101906105f39190612b9e565b611d41565b6040516106059190613034565b60405180910390f35b34801561061a57600080fd5b5061063560048036038101906106309190612643565b611dcd565b005b34801561064357600080fd5b5061065e60048036038101906106599190612643565b611e50565b60405161066b9190612d81565b60405180910390f35b34801561068057600080fd5b5061069b60048036038101906106969190612cd2565b611ea6565b005b6106a56124e1565b8173ffffffffffffffffffffffffffffffffffffffff166360246c886040518163ffffffff1660e01b815260040160c0604051808303816000875af11580156106f2573d6000803e3d6000fd5b505050506040513d601f19601f82011682018060405250810190610716919061314a565b9050919050565b600b60003373ffffffffffffffffffffffffffffffffffffffff1673ffffffffffffffffffffffffffffffffffffffff16815260200190815260200160002060009054906101000a900460ff166107a9576040517f08c379a00000000000000000000000000000000000000000000000000000000081526004016107a0906131d4565b60405180910390fd5b6000600a60003373ffffffffffffffffffffffffffffffffffffffff1673ffffffffffffffffffffffffffffffffffffffff168152602001908152602001600020819055503373ffffffffffffffffffffffffffffffffffffffff166108fc600a60003373ffffffffffffffffffffffffffffffffffffffff1673ffffffffffffffffffffffffffffffffffffffff168152602001908152602001600020549081150290604051600060405180830381858888f19350505050158015610873573d6000803e3d6000fd5b50565b60025481565b6060600580548060200260200160405190810160405280929190818152602001828054801561090057602002820191906000526020600020905b8160009054906101000a900473ffffffffffffffffffffffffffffffffffffffff1673ffffffffffffffffffffffffffffffffffffffff16815260200190600101908083116108b6575b5050505050905090565b6060600480548060200260200160405190810160405280929190818152602001828054801561098e57602002820191906000526020600020905b8160009054906101000a900473ffffffffffffffffffffffffffffffffffffffff1673ffffffffffffffffffffffffffffffffffffffff1681526020019060010190808311610944575b5050505050905090565b6109a0611fe3565b60006001819055503373ffffffffffffffffffffffffffffffffffffffff166108fc6001549081150290604051600060405180830381858888f193505050501580156109f0573d6000803e3d6000fd5b50565b600080600090505b8251811015610b3757606060005b848381518110610a1c57610a1b6131f4565b5b6020026020010151811015610a7757878784818110610a3e57610a3d6131f4565b5b90506020020135828281518110610a5857610a576131f4565b5b6020026020010181815250508080610a6f90613252565b915050610a09565b506000888381518110610a8d57610a8c6131f4565b5b602002602001015173ffffffffffffffffffffffffffffffffffffffff16634c4cbac483336040518363ffffffff1660e01b8152600401610acf929190613349565b6020604051808303816000875af1158015610aee573d6000803e3d6000fd5b505050506040513d601f19601f82011682018060405250810190610b129190613379565b90508084610b2091906133a6565b935050508080610b2f90613252565b9150506109fb565b50600080610b4483612061565b91509150610b5483838784612098565b5050505050505050565b610b6781612126565b600660008373ffffffffffffffffffffffffffffffffffffffff1673ffffffffffffffffffffffffffffffffffffffff168152602001908152602001600020819080600181540180825580915050600190039060005260206000200160009091909190916101000a81548173ffffffffffffffffffffffffffffffffffffffff021916908373ffffffffffffffffffffffffffffffffffffffff1602179055505050565b610c13611fe3565b610c1d60006121bf565b565b60058181548110610c2f57600080fd5b906000526020600020016000915054906101000a900473ffffffffffffffffffffffffffffffffffffffff1681565b60008473ffffffffffffffffffffffffffffffffffffffff16636386c1c7336040518263ffffffff1660e01b8152600401610c999190612c0b565b60a0604051808303816000875af1158015610cb8573d6000803e3d6000fd5b505050506040513d601f19601f82011682018060405250810190610cdc9190613466565b905060008573ffffffffffffffffffffffffffffffffffffffff16636b469d39336040518263ffffffff1660e01b8152600401610d199190612c0b565b602060405180830381865afa158015610d36573d6000803e3d6000fd5b505050506040513d601f19601f82011682018060405250810190610d5a9190613379565b9050610d663387612283565b8573ffffffffffffffffffffffffffffffffffffffff166350902c17868686336040518563ffffffff1660e01b8152600401610da594939291906134fd565b600060405180830381600087803b158015610dbf57600080fd5b505af1158015610dd3573d6000803e3d6000fd5b505050508573ffffffffffffffffffffffffffffffffffffffff163373ffffffffffffffffffffffffffffffffffffffff167f38509f732bb9449e12686234757304da4b853110ebc8ece9a12bba31a4fcb91b868689876040015187604051610e4095949392919061353d565b60405180910390a3505050505050565b60015481565b610e5e611fe3565b6001151581151503610f29576004829080600181540180825580915050600190039060005260206000200160009091909190916101000a81548173ffffffffffffffffffffffffffffffffffffffff021916908373ffffffffffffffffffffffffffffffffffffffff16021790555080600960008473ffffffffffffffffffffffffffffffffffffffff1673ffffffffffffffffffffffffffffffffffffffff16815260200190815260200160002060006101000a81548160ff021916908315150217905550610f97565b6000151581151503610f9657610f3e826122cf565b80600960008473ffffffffffffffffffffffffffffffffffffffff1673ffffffffffffffffffffffffffffffffffffffff16815260200190815260200160002060006101000a81548160ff0219169083151502179055505b5b5050565b60008060009054906101000a900473ffffffffffffffffffffffffffffffffffffffff16905090565b600860003373ffffffffffffffffffffffffffffffffffffffff1673ffffffffffffffffffffffffffffffffffffffff168152602001908152602001600020839080600181540180825580915050600190039060005260206000200160009091909190916101000a81548173ffffffffffffffffffffffffffffffffffffffff021916908373ffffffffffffffffffffffffffffffffffffffff1602179055508273ffffffffffffffffffffffffffffffffffffffff16632f7e0b2e8383336040518463ffffffff1660e01b81526004016110a19392919061358b565b600060405180830381600087803b1580156110bb57600080fd5b505af11580156110cf573d6000803e3d6000fd5b505050508273ffffffffffffffffffffffffffffffffffffffff163373ffffffffffffffffffffffffffffffffffffffff167f285e2df175d03ce53bf542c949e8a0add3b654d3911402bbb71e9bb46c82dad5848490508585604051611137939291906135bd565b60405180910390a3505050565b60008373ffffffffffffffffffffffffffffffffffffffff16636386c1c7336040518263ffffffff1660e01b815260040161117f9190612c0b565b60a0604051808303816000875af115801561119e573d6000803e3d6000fd5b505050506040513d601f19601f820116820180604052508101906111c29190613466565b905060008473ffffffffffffffffffffffffffffffffffffffff1663cb6f0d34336040518263ffffffff1660e01b81526004016111ff9190612c0b565b602060405180830381865afa15801561121c573d6000803e3d6000fd5b505050506040513d601f19601f820116820180604052508101906112409190613379565b905061124c3386612283565b8473ffffffffffffffffffffffffffffffffffffffff16632c7e49158585336040518463ffffffff1660e01b81526004016112899392919061358b565b600060405180830381600087803b1580156112a357600080fd5b505af11580156112b7573d6000803e3d6000fd5b505050508473ffffffffffffffffffffffffffffffffffffffff163373ffffffffffffffffffffffffffffffffffffffff167f758b8b45d172370c222fe8b7156d4c6f1367f8676604a31e2ac73311b192b1e6868686600001518660405161132294939291906135ef565b60405180910390a35050505050565b6004818154811061134157600080fd5b906000526020600020016000915054906101000a900473ffffffffffffffffffffffffffffffffffffffff1681565b6000600960008373ffffffffffffffffffffffffffffffffffffffff1673ffffffffffffffffffffffffffffffffffffffff16815260200190815260200160002060009054906101000a900460ff169050919050565b60008273ffffffffffffffffffffffffffffffffffffffff166360246c886040518163ffffffff1660e01b815260040160c0604051808303816000875af1158015611415573d6000803e3d6000fd5b505050506040513d601f19601f82011682018060405250810190611439919061314a565b905060008373ffffffffffffffffffffffffffffffffffffffff16637b6880ca6040518163ffffffff1660e01b81526004016020604051808303816000875af115801561148a573d6000803e3d6000fd5b505050506040513d601f19601f820116820180604052508101906114ae919061362f565b905060008473ffffffffffffffffffffffffffffffffffffffff1663341d15fd858486606001516040518463ffffffff1660e01b81526004016114f39392919061366b565b602060405180830381865afa158015611510573d6000803e3d6000fd5b505050506040513d601f19601f820116820180604052508101906115349190613379565b9050600860003373ffffffffffffffffffffffffffffffffffffffff1673ffffffffffffffffffffffffffffffffffffffff168152602001908152602001600020859080600181540180825580915050600190039060005260206000200160009091909190916101000a81548173ffffffffffffffffffffffffffffffffffffffff021916908373ffffffffffffffffffffffffffffffffffffffff1602179055508473ffffffffffffffffffffffffffffffffffffffff1663a09bf8c23486336040518463ffffffff1660e01b81526004016116129291906136a2565b6000604051808303818588803b15801561162b57600080fd5b505af115801561163f573d6000803e3d6000fd5b50505050508473ffffffffffffffffffffffffffffffffffffffff163373ffffffffffffffffffffffffffffffffffffffff167f39feb2a23d1a328f05ec9c6c1814935f849cc7d514d36093ee78f6083b6a39bc86846040516116a39291906136cb565b60405180910390a35050505050565b60035481565b60008473ffffffffffffffffffffffffffffffffffffffff166360246c886040518163ffffffff1660e01b815260040160c0604051808303816000875af1158015611707573d6000803e3d6000fd5b505050506040513d601f19601f8201168201806040525081019061172b919061314a565b905060008573ffffffffffffffffffffffffffffffffffffffff16635315383686869050846020015185606001516040518463ffffffff1660e01b81526004016117779392919061366b565b602060405180830381865afa158015611794573d6000803e3d6000fd5b505050506040513d601f19601f820116820180604052508101906117b89190613379565b905060008673ffffffffffffffffffffffffffffffffffffffff16634c4cbac4348888336040518563ffffffff1660e01b81526004016117fa9392919061358b565b60206040518083038185885af1158015611818573d6000803e3d6000fd5b50505050506040513d601f19601f8201168201806040525081019061183d9190613379565b905060008061184b83612061565b9150915061185b83838884612098565b8873ffffffffffffffffffffffffffffffffffffffff163373ffffffffffffffffffffffffffffffffffffffff167f2611defd53a4a87419d2078554db30aeaddd9ddfdc5990da2bbdc8d589f5e4d68a8a888b6040516118be94939291906136f4565b60405180910390a3505050505050505050565b600080600090505b8251811015611a3057606060005b8483815181106118fa576118f96131f4565b5b60200260200101518110156119555789898481811061191c5761191b6131f4565b5b90506020020135828281518110611936576119356131f4565b5b602002602001018181525050808061194d90613252565b9150506118e7565b5060008a838151811061196b5761196a6131f4565b5b602002602001015173ffffffffffffffffffffffffffffffffffffffff1663244117b4838a8a878181106119a2576119a16131f4565b5b90506020020135336040518463ffffffff1660e01b81526004016119c893929190613734565b6020604051808303816000875af11580156119e7573d6000803e3d6000fd5b505050506040513d601f19601f82011682018060405250810190611a0b9190613379565b90508084611a1991906133a6565b935050508080611a2890613252565b9150506118d9565b50600080611a3d83612061565b91509150611a4d83838784612098565b50505050505050505050565b60008573ffffffffffffffffffffffffffffffffffffffff166360246c886040518163ffffffff1660e01b815260040160c0604051808303816000875af1158015611aa8573d6000803e3d6000fd5b505050506040513d601f19601f82011682018060405250810190611acc919061314a565b905060008673ffffffffffffffffffffffffffffffffffffffff1663341d15fd87879050846020015185606001516040518463ffffffff1660e01b8152600401611b189392919061366b565b602060405180830381865afa158015611b35573d6000803e3d6000fd5b505050506040513d601f19601f82011682018060405250810190611b599190613379565b905060008773ffffffffffffffffffffffffffffffffffffffff1663244117b4888888336040518563ffffffff1660e01b8152600401611b9c94939291906136f4565b6020604051808303816000875af1158015611bbb573d6000803e3d6000fd5b505050506040513d601f19601f82011682018060405250810190611bdf9190613379565b9050600080611bed83612061565b91509150611bfd83838884612098565b8973ffffffffffffffffffffffffffffffffffffffff163373ffffffffffffffffffffffffffffffffffffffff167f8f3673bd023cc34f252b9e7d0a0dd6496592b87006673a974d1d621b5a93e15e8b8b888b604051611c6094939291906136f4565b60405180910390a350505050505050505050565b6060600660008373ffffffffffffffffffffffffffffffffffffffff1673ffffffffffffffffffffffffffffffffffffffff168152602001908152602001600020805480602002602001604051908101604052809291908181526020018280548015611d3557602002820191906000526020600020905b8160009054906101000a900473ffffffffffffffffffffffffffffffffffffffff1673ffffffffffffffffffffffffffffffffffffffff1681526020019060010190808311611ceb575b50505050509050919050565b611d49612551565b8273ffffffffffffffffffffffffffffffffffffffff16636386c1c7836040518263ffffffff1660e01b8152600401611d829190612c0b565b60a0604051808303816000875af1158015611da1573d6000803e3d6000fd5b505050506040513d601f19601f82011682018060405250810190611dc59190613466565b905092915050565b611dd5611fe3565b600073ffffffffffffffffffffffffffffffffffffffff168173ffffffffffffffffffffffffffffffffffffffff1603611e44576040517f08c379a0000000000000000000000000000000000000000000000000000000008152600401611e3b906137e4565b60405180910390fd5b611e4d816121bf565b50565b6000600760008373ffffffffffffffffffffffffffffffffffffffff1673ffffffffffffffffffffffffffffffffffffffff16815260200190815260200160002060009054906101000a900460ff169050919050565b611eae611fe3565b6001151581151503611f79576005829080600181540180825580915050600190039060005260206000200160009091909190916101000a81548173ffffffffffffffffffffffffffffffffffffffff021916908373ffffffffffffffffffffffffffffffffffffffff16021790555080600760008473ffffffffffffffffffffffffffffffffffffffff1673ffffffffffffffffffffffffffffffffffffffff16815260200190815260200160002060006101000a81548160ff021916908315150217905550611fdf565b6000151581151503611fde57611f8e826122dd565b801515600760008473ffffffffffffffffffffffffffffffffffffffff1673ffffffffffffffffffffffffffffffffffffffff16815260200190815260200160002060009054906101000a905050505b5b5050565b611feb6122eb565b73ffffffffffffffffffffffffffffffffffffffff16612009610f9b565b73ffffffffffffffffffffffffffffffffffffffff161461205f576040517f08c379a000000000000000000000000000000000000000000000000000000000815260040161205690613850565b60405180910390fd5b565b600080612083600354670de0b6b3a7640000856122f39092919063ffffffff16565b905080836120919190613870565b9150915091565b83600260008282546120aa91906133a6565b9250508190555082600160008282546120c391906133a6565b9250508190555080600a60008473ffffffffffffffffffffffffffffffffffffffff1673ffffffffffffffffffffffffffffffffffffffff168152602001908152602001600020600082825461211991906133a6565b9250508190555050505050565b6121bc8160405160240161213a9190612c0b565b6040516020818303038152906040527f2c2ecbc2000000000000000000000000000000000000000000000000000000007bffffffffffffffffffffffffffffffffffffffffffffffffffffffff19166020820180517bffffffffffffffffffffffffffffffffffffffffffffffffffffffff8381831617835250505050612317565b50565b60008060009054906101000a900473ffffffffffffffffffffffffffffffffffffffff169050816000806101000a81548173ffffffffffffffffffffffffffffffffffffffff021916908373ffffffffffffffffffffffffffffffffffffffff1602179055508173ffffffffffffffffffffffffffffffffffffffff168173ffffffffffffffffffffffffffffffffffffffff167f8be0079c531659141344cd1fd0a4f28419497f9722a3daafe3b4186f6b6457e060405160405180910390a35050565b6122cb600860008473ffffffffffffffffffffffffffffffffffffffff1673ffffffffffffffffffffffffffffffffffffffff16815260200190815260200160002082612340565b5050565b6122da600482612340565b50565b6122e8600582612340565b50565b600033905090565b60008284029050828482041484151761230b57600080fd5b81810490509392505050565b60008151905060006a636f6e736f6c652e6c6f679050602083016000808483855afa5050505050565b60008280549050905060005b818110156124db578273ffffffffffffffffffffffffffffffffffffffff1684828154811061237e5761237d6131f4565b5b9060005260206000200160009054906101000a900473ffffffffffffffffffffffffffffffffffffffff1673ffffffffffffffffffffffffffffffffffffffff16036124c8576001826123d19190613870565b811461247d57836001836123e59190613870565b815481106123f6576123f56131f4565b5b9060005260206000200160009054906101000a900473ffffffffffffffffffffffffffffffffffffffff16848281548110612434576124336131f4565b5b9060005260206000200160006101000a81548173ffffffffffffffffffffffffffffffffffffffff021916908373ffffffffffffffffffffffffffffffffffffffff1602179055505b8380548061248e5761248d6138a4565b5b6001900381819060005260206000200160006101000a81549073ffffffffffffffffffffffffffffffffffffffff021916905590556124db565b80806124d390613252565b91505061234c565b50505050565b6040518060c00160405280600073ffffffffffffffffffffffffffffffffffffffff16815260200160006fffffffffffffffffffffffffffffffff16815260200160006fffffffffffffffffffffffffffffffff1681526020016000815260200160008152602001600081525090565b6040518060a0016040528060008152602001600081526020016000815260200160008152602001600081525090565b600073ffffffffffffffffffffffffffffffffffffffff82169050919050565b60006125ab82612580565b9050919050565b6125bb816125a0565b82525050565b6000819050919050565b6125d4816125c1565b82525050565b60006040820190506125ef60008301856125b2565b6125fc60208301846125cb565b9392505050565b6000604051905090565b600080fd5b600080fd5b612620816125a0565b811461262b57600080fd5b50565b60008135905061263d81612617565b92915050565b6000602082840312156126595761265861260d565b5b60006126678482850161262e565b91505092915050565b612679816125a0565b82525050565b60006fffffffffffffffffffffffffffffffff82169050919050565b6126a48161267f565b82525050565b6126b3816125c1565b82525050565b60c0820160008201516126cf6000850182612670565b5060208201516126e2602085018261269b565b5060408201516126f5604085018261269b565b50606082015161270860608501826126aa565b50608082015161271b60808501826126aa565b5060a082015161272e60a08501826126aa565b50505050565b600060c08201905061274960008301846126b9565b92915050565b600060208201905061276460008301846125cb565b92915050565b600081519050919050565b600082825260208201905092915050565b6000819050602082019050919050565b60006127a28383612670565b60208301905092915050565b6000602082019050919050565b60006127c68261276a565b6127d08185612775565b93506127db83612786565b8060005b8381101561280c5781516127f38882612796565b97506127fe836127ae565b9250506001810190506127df565b5085935050505092915050565b6000602082019050818103600083015261283381846127bb565b905092915050565b600080fd5b6000601f19601f8301169050919050565b7f4e487b7100000000000000000000000000000000000000000000000000000000600052604160045260246000fd5b61288982612840565b810181811067ffffffffffffffff821117156128a8576128a7612851565b5b80604052505050565b60006128bb612603565b90506128c78282612880565b919050565b600067ffffffffffffffff8211156128e7576128e6612851565b5b602082029050602081019050919050565b600080fd5b600061291061290b846128cc565b6128b1565b90508083825260208201905060208402830185811115612933576129326128f8565b5b835b8181101561295c5780612948888261262e565b845260208401935050602081019050612935565b5050509392505050565b600082601f83011261297b5761297a61283b565b5b813561298b8482602086016128fd565b91505092915050565b600080fd5b60008083601f8401126129af576129ae61283b565b5b8235905067ffffffffffffffff8111156129cc576129cb612994565b5b6020830191508360208202830111156129e8576129e76128f8565b5b9250929050565b600067ffffffffffffffff821115612a0a57612a09612851565b5b602082029050602081019050919050565b612a24816125c1565b8114612a2f57600080fd5b50565b600081359050612a4181612a1b565b92915050565b6000612a5a612a55846129ef565b6128b1565b90508083825260208201905060208402830185811115612a7d57612a7c6128f8565b5b835b81811015612aa65780612a928882612a32565b845260208401935050602081019050612a7f565b5050509392505050565b600082601f830112612ac557612ac461283b565b5b8135612ad5848260208601612a47565b91505092915050565b600080600080600060808688031215612afa57612af961260d565b5b600086013567ffffffffffffffff811115612b1857612b17612612565b5b612b2488828901612966565b955050602086013567ffffffffffffffff811115612b4557612b44612612565b5b612b5188828901612999565b94509450506040612b648882890161262e565b925050606086013567ffffffffffffffff811115612b8557612b84612612565b5b612b9188828901612ab0565b9150509295509295909350565b60008060408385031215612bb557612bb461260d565b5b6000612bc38582860161262e565b9250506020612bd48582860161262e565b9150509250929050565b600060208284031215612bf457612bf361260d565b5b6000612c0284828501612a32565b91505092915050565b6000602082019050612c2060008301846125b2565b92915050565b60008060008060608587031215612c4057612c3f61260d565b5b6000612c4e8782880161262e565b9450506020612c5f87828801612a32565b935050604085013567ffffffffffffffff811115612c8057612c7f612612565b5b612c8c87828801612999565b925092505092959194509250565b60008115159050919050565b612caf81612c9a565b8114612cba57600080fd5b50565b600081359050612ccc81612ca6565b92915050565b60008060408385031215612ce957612ce861260d565b5b6000612cf78582860161262e565b9250506020612d0885828601612cbd565b9150509250929050565b600080600060408486031215612d2b57612d2a61260d565b5b6000612d398682870161262e565b935050602084013567ffffffffffffffff811115612d5a57612d59612612565b5b612d6686828701612999565b92509250509250925092565b612d7b81612c9a565b82525050565b6000602082019050612d966000830184612d72565b92915050565b60008060408385031215612db357612db261260d565b5b6000612dc18582860161262e565b9250506020612dd285828601612a32565b9150509250929050565b60008060008060608587031215612df657612df561260d565b5b6000612e048782880161262e565b945050602085013567ffffffffffffffff811115612e2557612e24612612565b5b612e3187828801612999565b93509350506040612e448782880161262e565b91505092959194509250565b600080600080600080600060a0888a031215612e6f57612e6e61260d565b5b600088013567ffffffffffffffff811115612e8d57612e8c612612565b5b612e998a828b01612966565b975050602088013567ffffffffffffffff811115612eba57612eb9612612565b5b612ec68a828b01612999565b9650965050604088013567ffffffffffffffff811115612ee957612ee8612612565b5b612ef58a828b01612999565b94509450506060612f088a828b0161262e565b925050608088013567ffffffffffffffff811115612f2957612f28612612565b5b612f358a828b01612ab0565b91505092959891949750929550565b600080600080600060808688031215612f6057612f5f61260d565b5b6000612f6e8882890161262e565b955050602086013567ffffffffffffffff811115612f8f57612f8e612612565b5b612f9b88828901612999565b94509450506040612fae88828901612a32565b9250506060612fbf8882890161262e565b9150509295509295909350565b60a082016000820151612fe260008501826126aa565b506020820151612ff560208501826126aa565b50604082015161300860408501826126aa565b50606082015161301b60608501826126aa565b50608082015161302e60808501826126aa565b50505050565b600060a0820190506130496000830184612fcc565b92915050565b600080fd5b60008151905061306381612617565b92915050565b6130728161267f565b811461307d57600080fd5b50565b60008151905061308f81613069565b92915050565b6000815190506130a481612a1b565b92915050565b600060c082840312156130c0576130bf61304f565b5b6130ca60c06128b1565b905060006130da84828501613054565b60008301525060206130ee84828501613080565b602083015250604061310284828501613080565b604083015250606061311684828501613095565b606083015250608061312a84828501613095565b60808301525060a061313e84828501613095565b60a08301525092915050565b600060c082840312156131605761315f61260d565b5b600061316e848285016130aa565b91505092915050565b600082825260208201905092915050565b7f596f7520646f6e2774206861766520737570706f7274657220617070726f7665600082015250565b60006131be602083613177565b91506131c982613188565b602082019050919050565b600060208201905081810360008301526131ed816131b1565b9050919050565b7f4e487b7100000000000000000000000000000000000000000000000000000000600052603260045260246000fd5b7f4e487b7100000000000000000000000000000000000000000000000000000000600052601160045260246000fd5b600061325d826125c1565b91507fffffffffffffffffffffffffffffffffffffffffffffffffffffffffffffffff820361328f5761328e613223565b5b600182019050919050565b600081519050919050565b600082825260208201905092915050565b6000819050602082019050919050565b60006132d283836126aa565b60208301905092915050565b6000602082019050919050565b60006132f68261329a565b61330081856132a5565b935061330b836132b6565b8060005b8381101561333c57815161332388826132c6565b975061332e836132de565b92505060018101905061330f565b5085935050505092915050565b6000604082019050818103600083015261336381856132eb565b905061337260208301846125b2565b9392505050565b60006020828403121561338f5761338e61260d565b5b600061339d84828501613095565b91505092915050565b60006133b1826125c1565b91506133bc836125c1565b92508282019050808211156133d4576133d3613223565b5b92915050565b600060a082840312156133f0576133ef61304f565b5b6133fa60a06128b1565b9050600061340a84828501613095565b600083015250602061341e84828501613095565b602083015250604061343284828501613095565b604083015250606061344684828501613095565b606083015250608061345a84828501613095565b60808301525092915050565b600060a0828403121561347c5761347b61260d565b5b600061348a848285016133da565b91505092915050565b600080fd5b82818337505050565b60006134ad83856132a5565b93507f07ffffffffffffffffffffffffffffffffffffffffffffffffffffffffffffff8311156134e0576134df613493565b5b6020830292506134f1838584613498565b82840190509392505050565b600060608201905061351260008301876125cb565b81810360208301526135258185876134a1565b905061353460408301846125b2565b95945050505050565b600060808201905081810360008301526135588187896134a1565b905061356760208301866125cb565b61357460408301856125cb565b61358160608301846125cb565b9695505050505050565b600060408201905081810360008301526135a68185876134a1565b90506135b560208301846125b2565b949350505050565b60006040820190506135d260008301866125cb565b81810360208301526135e58184866134a1565b9050949350505050565b6000606082019050818103600083015261360a8186886134a1565b905061361960208301856125cb565b61362660408301846125cb565b95945050505050565b6000602082840312156136455761364461260d565b5b600061365384828501613080565b91505092915050565b6136658161267f565b82525050565b600060608201905061368060008301866125cb565b61368d602083018561365c565b61369a60408301846125cb565b949350505050565b60006040820190506136b760008301856125cb565b6136c460208301846125b2565b9392505050565b60006040820190506136e060008301856125cb565b6136ed60208301846125cb565b9392505050565b6000606082019050818103600083015261370f8186886134a1565b905061371e60208301856125cb565b61372b60408301846125b2565b95945050505050565b6000606082019050818103600083015261374e81866132eb565b905061375d60208301856125cb565b61376a60408301846125b2565b949350505050565b7f4f776e61626c653a206e6577206f776e657220697320746865207a65726f206160008201527f6464726573730000000000000000000000000000000000000000000000000000602082015250565b60006137ce602683613177565b91506137d982613772565b604082019050919050565b600060208201905081810360008301526137fd816137c1565b9050919050565b7f4f776e61626c653a2063616c6c6572206973206e6f7420746865206f776e6572600082015250565b600061383a602083613177565b915061384582613804565b602082019050919050565b600060208201905081810360008301526138698161382d565b9050919050565b600061387b826125c1565b9150613886836125c1565b925082820390508181111561389e5761389d613223565b5b92915050565b7f4e487b7100000000000000000000000000000000000000000000000000000000600052603160045260246000fdfea2646970667358221220549d334d57c707f78b5f7511fe59e93598b4ae73b09a81821c1a90a5ffaf482f64736f6c63430008100033",
  "linkReferences": {},
  "deployedLinkReferences": {}
}