{
  "_format": "hh-sol-artifact-1",
  "contractName": "Router",
  "sourceName": "contracts/Router.sol",
  "abi": [
    {
      "anonymous": false,
      "inputs": [
        {
          "indexed": true,
          "internalType": "address",
          "name": "previousOwner",
          "type": "address"
        },
        {
          "indexed": true,
          "internalType": "address",
          "name": "newOwner",
          "type": "address"
        }
      ],
      "name": "OwnershipTransferred",
      "type": "event"
    },
    {
      "anonymous": false,
      "inputs": [
        {
          "indexed": false,
          "internalType": "address",
          "name": "",
          "type": "address"
        },
        {
          "indexed": false,
          "internalType": "uint256",
          "name": "",
          "type": "uint256"
        }
      ],
      "name": "Received",
      "type": "event"
    },
    {
      "anonymous": false,
      "inputs": [
        {
          "indexed": true,
          "internalType": "address",
          "name": "user",
          "type": "address"
        },
        {
          "indexed": true,
          "internalType": "address",
          "name": "pool",
          "type": "address"
        },
        {
          "indexed": false,
          "internalType": "uint256",
          "name": "userNum",
          "type": "uint256"
        },
        {
          "indexed": false,
          "internalType": "uint256[]",
          "name": "tokenIds",
          "type": "uint256[]"
        }
      ],
      "name": "StakeNFT",
      "type": "event"
    },
    {
      "anonymous": false,
      "inputs": [
        {
          "indexed": true,
          "internalType": "address",
          "name": "user",
          "type": "address"
        },
        {
          "indexed": true,
          "internalType": "address",
          "name": "pool",
          "type": "address"
        },
        {
          "indexed": false,
          "internalType": "uint256[]",
          "name": "tokenIds",
          "type": "uint256[]"
        },
        {
          "indexed": false,
          "internalType": "uint256",
          "name": "totalFee",
          "type": "uint256"
        },
        {
          "indexed": false,
          "internalType": "address",
          "name": "support",
          "type": "address"
        }
      ],
      "name": "SwapFTforNFT",
      "type": "event"
    },
    {
      "anonymous": false,
      "inputs": [
        {
          "indexed": true,
          "internalType": "address",
          "name": "user",
          "type": "address"
        },
        {
          "indexed": true,
          "internalType": "address",
          "name": "pool",
          "type": "address"
        },
        {
          "indexed": false,
          "internalType": "uint256[]",
          "name": "tokenIds",
          "type": "uint256[]"
        },
        {
          "indexed": false,
          "internalType": "uint256",
          "name": "totalFee",
          "type": "uint256"
        },
        {
          "indexed": false,
          "internalType": "address",
          "name": "support",
          "type": "address"
        }
      ],
      "name": "SwapNFTforFT",
      "type": "event"
    },
    {
      "anonymous": false,
      "inputs": [
        {
          "indexed": true,
          "internalType": "address",
          "name": "user",
          "type": "address"
        },
        {
          "indexed": true,
          "internalType": "address",
          "name": "pool",
          "type": "address"
        },
        {
          "indexed": false,
          "internalType": "uint256[]",
          "name": "tokenIds",
          "type": "uint256[]"
        },
        {
          "indexed": false,
          "internalType": "uint256",
          "name": "userNum",
          "type": "uint256"
        },
        {
          "indexed": false,
          "internalType": "uint256",
          "name": "userAmount",
          "type": "uint256"
        },
        {
          "indexed": false,
          "internalType": "uint256",
          "name": "userFee",
          "type": "uint256"
        }
      ],
      "name": "WithdrawFT",
      "type": "event"
    },
    {
      "anonymous": false,
      "inputs": [
        {
          "indexed": true,
          "internalType": "address",
          "name": "user",
          "type": "address"
        },
        {
          "indexed": true,
          "internalType": "address",
          "name": "pool",
          "type": "address"
        },
        {
          "indexed": false,
          "internalType": "uint256[]",
          "name": "tokenIds",
          "type": "uint256[]"
        },
        {
          "indexed": false,
          "internalType": "uint256",
          "name": "userNum",
          "type": "uint256"
        },
        {
          "indexed": false,
          "internalType": "uint256",
          "name": "userFee",
          "type": "uint256"
        }
      ],
      "name": "WithdrawNFT",
      "type": "event"
    },
    {
      "inputs": [
        {
          "internalType": "address",
          "name": "_pool",
          "type": "address"
        }
      ],
      "name": "addNonOtherStakePool",
      "outputs": [],
      "stateMutability": "nonpayable",
      "type": "function"
    },
    {
      "inputs": [
        {
          "internalType": "address",
          "name": "_pool",
          "type": "address"
        }
      ],
      "name": "addOtherStakePool",
      "outputs": [],
      "stateMutability": "nonpayable",
      "type": "function"
    },
    {
      "inputs": [
        {
          "internalType": "address[]",
          "name": "_poolList",
          "type": "address[]"
        },
        {
          "components": [
            {
              "internalType": "uint256[]",
              "name": "tokenIds",
              "type": "uint256[]"
            }
          ],
          "internalType": "struct Router.input[]",
          "name": "InputArray",
          "type": "tuple[]"
        }
      ],
      "name": "batchStakeNFT",
      "outputs": [],
      "stateMutability": "nonpayable",
      "type": "function"
    },
    {
      "inputs": [
        {
          "internalType": "address[]",
          "name": "_poolList",
          "type": "address[]"
        },
        {
          "components": [
            {
              "internalType": "uint256[]",
              "name": "tokenIds",
              "type": "uint256[]"
            }
          ],
          "internalType": "struct Router.input[]",
          "name": "InputArray",
          "type": "tuple[]"
        },
        {
          "internalType": "address",
          "name": "_supporter",
          "type": "address"
        }
      ],
      "name": "batchSwapFTforNFT",
      "outputs": [],
      "stateMutability": "payable",
      "type": "function"
    },
    {
      "inputs": [
        {
          "internalType": "address[]",
          "name": "_poolList",
          "type": "address[]"
        },
        {
          "components": [
            {
              "internalType": "uint256[]",
              "name": "tokenIds",
              "type": "uint256[]"
            }
          ],
          "internalType": "struct Router.input[]",
          "name": "InputArray",
          "type": "tuple[]"
        },
        {
          "internalType": "uint256[]",
          "name": "_minExpects",
          "type": "uint256[]"
        },
        {
          "internalType": "address",
          "name": "_supporter",
          "type": "address"
        }
      ],
      "name": "batchSwapNFTforFT",
      "outputs": [],
      "stateMutability": "payable",
      "type": "function"
    },
    {
      "inputs": [
        {
          "internalType": "uint256",
          "name": "",
          "type": "uint256"
        }
      ],
      "name": "collectionList",
      "outputs": [
        {
          "internalType": "address",
          "name": "",
          "type": "address"
        }
      ],
      "stateMutability": "view",
      "type": "function"
    },
    {
      "inputs": [],
      "name": "getCollectionList",
      "outputs": [
        {
          "internalType": "address[]",
          "name": "",
          "type": "address[]"
        }
      ],
      "stateMutability": "view",
      "type": "function"
    },
    {
      "inputs": [
        {
          "internalType": "address",
          "name": "_collection",
          "type": "address"
        }
      ],
      "name": "getCollectionPoolList",
      "outputs": [
        {
          "components": [
            {
              "internalType": "address[]",
              "name": "otherStakePools",
              "type": "address[]"
            },
            {
              "internalType": "address[]",
              "name": "nonOtherStakePools",
              "type": "address[]"
            }
          ],
          "internalType": "struct Router.CollectionPoolList",
          "name": "",
          "type": "tuple"
        }
      ],
      "stateMutability": "view",
      "type": "function"
    },
    {
      "inputs": [
        {
          "internalType": "address",
          "name": "_bondingCurve",
          "type": "address"
        }
      ],
      "name": "getIsBondingCurveApprove",
      "outputs": [
        {
          "internalType": "bool",
          "name": "",
          "type": "bool"
        }
      ],
      "stateMutability": "view",
      "type": "function"
    },
    {
      "inputs": [
        {
          "internalType": "address",
          "name": "_collection",
          "type": "address"
        }
      ],
      "name": "getIsCollectionApprove",
      "outputs": [
        {
          "internalType": "bool",
          "name": "",
          "type": "bool"
        }
      ],
      "stateMutability": "view",
      "type": "function"
    },
    {
      "inputs": [
        {
          "internalType": "address",
          "name": "_factory",
          "type": "address"
        }
      ],
      "name": "getIsFactoryApprove",
      "outputs": [
        {
          "internalType": "bool",
          "name": "",
          "type": "bool"
        }
      ],
      "stateMutability": "view",
      "type": "function"
    },
    {
      "inputs": [
        {
          "internalType": "address",
          "name": "_supporter",
          "type": "address"
        }
      ],
      "name": "getIsSupporterApprove",
      "outputs": [
        {
          "internalType": "bool",
          "name": "",
          "type": "bool"
        }
      ],
      "stateMutability": "view",
      "type": "function"
    },
    {
      "inputs": [
        {
          "internalType": "address",
          "name": "_user",
          "type": "address"
        }
      ],
      "name": "getUserStakePoolList",
      "outputs": [
        {
          "components": [
            {
              "internalType": "address[]",
              "name": "stakeFTpools",
              "type": "address[]"
            },
            {
              "internalType": "address[]",
              "name": "stakeNFTpools",
              "type": "address[]"
            }
          ],
          "internalType": "struct Router.UserStakePoolList",
          "name": "",
          "type": "tuple"
        }
      ],
      "stateMutability": "view",
      "type": "function"
    },
    {
      "inputs": [
        {
          "internalType": "address",
          "name": "",
          "type": "address"
        }
      ],
      "name": "isBondingCurveApprove",
      "outputs": [
        {
          "internalType": "bool",
          "name": "",
          "type": "bool"
        }
      ],
      "stateMutability": "view",
      "type": "function"
    },
    {
      "inputs": [
        {
          "internalType": "address",
          "name": "",
          "type": "address"
        }
      ],
      "name": "isCollectionApprove",
      "outputs": [
        {
          "internalType": "bool",
          "name": "",
          "type": "bool"
        }
      ],
      "stateMutability": "view",
      "type": "function"
    },
    {
      "inputs": [
        {
          "internalType": "address",
          "name": "",
          "type": "address"
        }
      ],
      "name": "isFactoryApprove",
      "outputs": [
        {
          "internalType": "bool",
          "name": "",
          "type": "bool"
        }
      ],
      "stateMutability": "view",
      "type": "function"
    },
    {
      "inputs": [
        {
          "internalType": "address",
          "name": "",
          "type": "address"
        }
      ],
      "name": "isSupporterApprove",
      "outputs": [
        {
          "internalType": "bool",
          "name": "",
          "type": "bool"
        }
      ],
      "stateMutability": "view",
      "type": "function"
    },
    {
      "inputs": [],
      "name": "owner",
      "outputs": [
        {
          "internalType": "address",
          "name": "",
          "type": "address"
        }
      ],
      "stateMutability": "view",
      "type": "function"
    },
    {
      "inputs": [],
      "name": "renounceOwnership",
      "outputs": [],
      "stateMutability": "nonpayable",
      "type": "function"
    },
    {
      "inputs": [
        {
          "internalType": "address",
          "name": "_bondingCurve",
          "type": "address"
        },
        {
          "internalType": "bool",
          "name": "_approve",
          "type": "bool"
        }
      ],
      "name": "setBondingCurveApprove",
      "outputs": [],
      "stateMutability": "nonpayable",
      "type": "function"
    },
    {
      "inputs": [
        {
          "internalType": "address",
          "name": "_collection",
          "type": "address"
        },
        {
          "internalType": "bool",
          "name": "_approve",
          "type": "bool"
        }
      ],
      "name": "setCollectionApprove",
      "outputs": [],
      "stateMutability": "nonpayable",
      "type": "function"
    },
    {
      "inputs": [
        {
          "internalType": "address",
          "name": "_factory",
          "type": "address"
        },
        {
          "internalType": "bool",
          "name": "_approve",
          "type": "bool"
        }
      ],
      "name": "setFactoryApprove",
      "outputs": [],
      "stateMutability": "nonpayable",
      "type": "function"
    },
    {
      "inputs": [
        {
          "internalType": "address",
          "name": "_supporter",
          "type": "address"
        },
        {
          "internalType": "bool",
          "name": "_approve",
          "type": "bool"
        }
      ],
      "name": "setSupporterApprove",
      "outputs": [],
      "stateMutability": "nonpayable",
      "type": "function"
    },
    {
      "inputs": [
        {
          "internalType": "address",
          "name": "_pool",
          "type": "address"
        },
        {
          "internalType": "uint256[]",
          "name": "_tokenIds",
          "type": "uint256[]"
        }
      ],
      "name": "stakeNFT",
      "outputs": [],
      "stateMutability": "nonpayable",
      "type": "function"
    },
    {
      "inputs": [
        {
          "internalType": "address",
          "name": "",
          "type": "address"
        }
      ],
      "name": "supporterFee",
      "outputs": [
        {
          "internalType": "uint256",
          "name": "",
          "type": "uint256"
        }
      ],
      "stateMutability": "view",
      "type": "function"
    },
    {
      "inputs": [],
      "name": "supporterFeeRatio",
      "outputs": [
        {
          "internalType": "uint256",
          "name": "",
          "type": "uint256"
        }
      ],
      "stateMutability": "view",
      "type": "function"
    },
    {
      "inputs": [
        {
          "internalType": "address",
          "name": "_pool",
          "type": "address"
        },
        {
          "internalType": "uint256[]",
          "name": "_tokenIds",
          "type": "uint256[]"
        },
        {
          "internalType": "address",
          "name": "_support",
          "type": "address"
        }
      ],
      "name": "swapFTforNFT",
      "outputs": [],
      "stateMutability": "payable",
      "type": "function"
    },
    {
      "inputs": [
        {
          "internalType": "address",
          "name": "_pool",
          "type": "address"
        },
        {
          "internalType": "uint256[]",
          "name": "_tokenIds",
          "type": "uint256[]"
        },
        {
          "internalType": "uint256",
          "name": "_minExpectFee",
          "type": "uint256"
        },
        {
          "internalType": "address",
          "name": "_support",
          "type": "address"
        }
      ],
      "name": "swapNFTforFT",
      "outputs": [],
      "stateMutability": "payable",
      "type": "function"
    },
    {
      "inputs": [],
      "name": "totalProtocolFee",
      "outputs": [
        {
          "internalType": "uint256",
          "name": "",
          "type": "uint256"
        }
      ],
      "stateMutability": "view",
      "type": "function"
    },
    {
      "inputs": [
        {
          "internalType": "address",
          "name": "newOwner",
          "type": "address"
        }
      ],
      "name": "transferOwnership",
      "outputs": [],
      "stateMutability": "nonpayable",
      "type": "function"
    },
    {
      "inputs": [
        {
          "internalType": "address",
          "name": "_pool",
          "type": "address"
        },
        {
          "internalType": "uint256[]",
          "name": "_tokenIds",
          "type": "uint256[]"
        }
      ],
      "name": "withdrawNFT",
      "outputs": [],
      "stateMutability": "nonpayable",
      "type": "function"
    },
    {
      "inputs": [],
      "name": "withdrawProtocolFee",
      "outputs": [],
      "stateMutability": "payable",
      "type": "function"
    },
    {
      "inputs": [],
      "name": "withdrawSupportFee",
      "outputs": [],
      "stateMutability": "payable",
      "type": "function"
    },
    {
      "stateMutability": "payable",
      "type": "receive"
    }
  ],
  "bytecode": "0x6080604052670429d069189e00006002553480156200001d57600080fd5b506200003e620000326200004460201b60201c565b6200004c60201b60201c565b62000110565b600033905090565b60008060009054906101000a900473ffffffffffffffffffffffffffffffffffffffff169050816000806101000a81548173ffffffffffffffffffffffffffffffffffffffff021916908373ffffffffffffffffffffffffffffffffffffffff1602179055508173ffffffffffffffffffffffffffffffffffffffff168173ffffffffffffffffffffffffffffffffffffffff167f8be0079c531659141344cd1fd0a4f28419497f9722a3daafe3b4186f6b6457e060405160405180910390a35050565b61402880620001206000396000f3fe6080604052600436106101f25760003560e01c8063b65bfbf01161010d578063e152c441116100a0578063f2fde38b1161006f578063f2fde38b1461070c578063fb1fc62c14610735578063fc5a0df514610772578063fc9d16cd146107af578063fd7bb9b5146107d857610232565b8063e152c4411461062c578063e3b4403d14610655578063e70b1bc714610692578063ec217ea6146106cf57610232565b8063cab5c30e116100dc578063cab5c30e1461057a578063d1b2bda814610596578063d46b29ab146105d3578063dd4b533f1461061057610232565b8063b65bfbf014610498578063b77c3882146104d5578063bc0a0bd014610512578063c586d8e81461053d57610232565b8063752d121c116101855780639175a588116101545780639175a588146103f45780639bdedea51461041d5780639c9206d214610446578063a150241f1461046f57610232565b8063752d121c1461033857806388611f35146103755780638d3b6eb3146103a05780638da5cb5b146103c957610232565b806338e8a1d1116101c157806338e8a1d1146102b157806359d8da92146102da5780636a64d3d2146102e4578063715018a61461032157610232565b806312b71c211461023757806318892c5d146102415780632e091d531461025d578063361eaa531461028657610232565b36610232577f88a5966d370b9919b20f3e2c13ff65706f196a4e32cc2c12bf57088f885258743334604051610228929190612e86565b60405180910390a1005b600080fd5b61023f6107f4565b005b61025b60048036038101906102569190613000565b610996565b005b34801561026957600080fd5b50610284600480360381019061027f91906130c9565b610b94565b005b34801561029257600080fd5b5061029b610d73565b6040516102a89190613208565b60405180910390f35b3480156102bd57600080fd5b506102d860048036038101906102d39190613262565b610e01565b005b6102e2610e64565b005b3480156102f057600080fd5b5061030b600480360381019061030691906132a2565b610f4d565b60405161031891906132de565b60405180910390f35b34801561032d57600080fd5b50610336610fa3565b005b34801561034457600080fd5b5061035f600480360381019061035a9190613325565b610fb7565b60405161036c9190613352565b60405180910390f35b34801561038157600080fd5b5061038a610ff6565b604051610397919061336d565b60405180910390f35b3480156103ac57600080fd5b506103c760048036038101906103c29190613262565b610ffc565b005b3480156103d557600080fd5b506103de61105f565b6040516103eb9190613352565b60405180910390f35b34801561040057600080fd5b5061041b60048036038101906104169190613388565b611088565b005b34801561042957600080fd5b50610444600480360381019061043f9190613388565b6112ed565b005b34801561045257600080fd5b5061046d60048036038101906104689190613262565b611665565b005b34801561047b57600080fd5b50610496600480360381019061049191906132a2565b6116c8565b005b3480156104a457600080fd5b506104bf60048036038101906104ba91906132a2565b611877565b6040516104cc91906132de565b60405180910390f35b3480156104e157600080fd5b506104fc60048036038101906104f791906132a2565b6118cd565b604051610509919061349b565b60405180910390f35b34801561051e57600080fd5b50610527611a42565b604051610534919061336d565b60405180910390f35b34801561054957600080fd5b50610564600480360381019061055f91906132a2565b611a48565b604051610571919061336d565b60405180910390f35b610594600480360381019061058f91906134bd565b611a60565b005b3480156105a257600080fd5b506105bd60048036038101906105b891906132a2565b611c5f565b6040516105ca91906132de565b60405180910390f35b3480156105df57600080fd5b506105fa60048036038101906105f591906132a2565b611c7f565b60405161060791906132de565b60405180910390f35b61062a60048036038101906106259190613531565b611c9f565b005b34801561063857600080fd5b50610653600480360381019061064e91906132a2565b611ea0565b005b34801561066157600080fd5b5061067c600480360381019061067791906132a2565b61204f565b60405161068991906135fd565b60405180910390f35b34801561069e57600080fd5b506106b960048036038101906106b491906132a2565b6121c4565b6040516106c691906132de565b60405180910390f35b3480156106db57600080fd5b506106f660048036038101906106f191906132a2565b6121e4565b60405161070391906132de565b60405180910390f35b34801561071857600080fd5b50610733600480360381019061072e91906132a2565b61223a565b005b34801561074157600080fd5b5061075c600480360381019061075791906132a2565b6122bd565b60405161076991906132de565b60405180910390f35b34801561077e57600080fd5b50610799600480360381019061079491906132a2565b6122dd565b6040516107a691906132de565b60405180910390f35b3480156107bb57600080fd5b506107d660048036038101906107d19190613262565b612333565b005b6107f260048036038101906107ed919061361f565b61247a565b005b6000600860003373ffffffffffffffffffffffffffffffffffffffff1673ffffffffffffffffffffffffffffffffffffffff168152602001908152602001600020549050600760003373ffffffffffffffffffffffffffffffffffffffff1673ffffffffffffffffffffffffffffffffffffffff16815260200190815260200160002060009054906101000a900460ff166108c4576040517f08c379a00000000000000000000000000000000000000000000000000000000081526004016108bb90613711565b60405180910390fd5b60008111610907576040517f08c379a00000000000000000000000000000000000000000000000000000000081526004016108fe9061377d565b60405180910390fd5b6000600860003373ffffffffffffffffffffffffffffffffffffffff1673ffffffffffffffffffffffffffffffffffffffff168152602001908152602001600020819055503373ffffffffffffffffffffffffffffffffffffffff166108fc829081150290604051600060405180830381858888f19350505050158015610992573d6000803e3d6000fd5b5050565b600080600090505b88889050811015610b7f5760008989838181106109be576109bd61379d565b5b90506020020160208101906109d391906132a2565b73ffffffffffffffffffffffffffffffffffffffff1663244117b4898985818110610a0157610a0061379d565b5b9050602002810190610a1391906137db565b8060000190610a229190613803565b898987818110610a3557610a3461379d565b5b90506020020135336040518563ffffffff1660e01b8152600401610a5c94939291906138e1565b6020604051808303816000875af1158015610a7b573d6000803e3d6000fd5b505050506040513d601f19601f82011682018060405250810190610a9f9190613936565b90508083610aad9190613992565b9250898983818110610ac257610ac161379d565b5b9050602002016020810190610ad791906132a2565b73ffffffffffffffffffffffffffffffffffffffff163373ffffffffffffffffffffffffffffffffffffffff167f8f3673bd023cc34f252b9e7d0a0dd6496592b87006673a974d1d621b5a93e15e8a8a86818110610b3857610b3761379d565b5b9050602002810190610b4a91906137db565b8060000190610b599190613803565b8589604051610b6b94939291906138e1565b60405180910390a38160010191505061099e565b50610b8a828261282d565b5050505050505050565b60005b84849050811015610d6c57848482818110610bb557610bb461379d565b5b9050602002016020810190610bca91906132a2565b73ffffffffffffffffffffffffffffffffffffffff16632f7e0b2e848484818110610bf857610bf761379d565b5b9050602002810190610c0a91906137db565b8060000190610c199190613803565b336040518463ffffffff1660e01b8152600401610c38939291906139c6565b600060405180830381600087803b158015610c5257600080fd5b505af1158015610c66573d6000803e3d6000fd5b50505050848482818110610c7d57610c7c61379d565b5b9050602002016020810190610c9291906132a2565b73ffffffffffffffffffffffffffffffffffffffff163373ffffffffffffffffffffffffffffffffffffffff167f285e2df175d03ce53bf542c949e8a0add3b654d3911402bbb71e9bb46c82dad5858585818110610cf357610cf261379d565b5b9050602002810190610d0591906137db565b8060000190610d149190613803565b9050868686818110610d2957610d2861379d565b5b9050602002810190610d3b91906137db565b8060000190610d4a9190613803565b604051610d59939291906139f8565b60405180910390a3806001019050610b97565b5050505050565b60606003805480602002602001604051908101604052809291908181526020018280548015610df757602002820191906000526020600020905b8160009054906101000a900473ffffffffffffffffffffffffffffffffffffffff1673ffffffffffffffffffffffffffffffffffffffff1681526020019060010190808311610dad575b5050505050905090565b610e0961295d565b80600760008473ffffffffffffffffffffffffffffffffffffffff1673ffffffffffffffffffffffffffffffffffffffff16815260200190815260200160002060006101000a81548160ff0219169083151502179055505050565b610e6c61295d565b60006001549050600060015411610eb8576040517f08c379a0000000000000000000000000000000000000000000000000000000008152600401610eaf9061377d565b60405180910390fd5b60008111610efb576040517f08c379a0000000000000000000000000000000000000000000000000000000008152600401610ef29061377d565b60405180910390fd5b60006001819055503373ffffffffffffffffffffffffffffffffffffffff166108fc829081150290604051600060405180830381858888f19350505050158015610f49573d6000803e3d6000fd5b5050565b6000600760008373ffffffffffffffffffffffffffffffffffffffff1673ffffffffffffffffffffffffffffffffffffffff16815260200190815260200160002060009054906101000a900460ff169050919050565b610fab61295d565b610fb560006129db565b565b60038181548110610fc757600080fd5b906000526020600020016000915054906101000a900473ffffffffffffffffffffffffffffffffffffffff1681565b60015481565b61100461295d565b80600560008473ffffffffffffffffffffffffffffffffffffffff1673ffffffffffffffffffffffffffffffffffffffff16815260200190815260200160002060006101000a81548160ff0219169083151502179055505050565b60008060009054906101000a900473ffffffffffffffffffffffffffffffffffffffff16905090565b600061115a600a60003373ffffffffffffffffffffffffffffffffffffffff1673ffffffffffffffffffffffffffffffffffffffff16815260200190815260200160002060010180548060200260200160405190810160405280929190818152602001828054801561114f57602002820191906000526020600020905b8160009054906101000a900473ffffffffffffffffffffffffffffffffffffffff1673ffffffffffffffffffffffffffffffffffffffff1681526020019060010190808311611105575b505050505085612a9f565b9050600015158115150361120c57600a60003373ffffffffffffffffffffffffffffffffffffffff1673ffffffffffffffffffffffffffffffffffffffff168152602001908152602001600020600101849080600181540180825580915050600190039060005260206000200160009091909190916101000a81548173ffffffffffffffffffffffffffffffffffffffff021916908373ffffffffffffffffffffffffffffffffffffffff1602179055505b8373ffffffffffffffffffffffffffffffffffffffff16632f7e0b2e8484336040518463ffffffff1660e01b8152600401611249939291906139c6565b600060405180830381600087803b15801561126357600080fd5b505af1158015611277573d6000803e3d6000fd5b505050508373ffffffffffffffffffffffffffffffffffffffff163373ffffffffffffffffffffffffffffffffffffffff167f285e2df175d03ce53bf542c949e8a0add3b654d3911402bbb71e9bb46c82dad58585905086866040516112df939291906139f8565b60405180910390a350505050565b60008373ffffffffffffffffffffffffffffffffffffffff16637de1e5366040518163ffffffff1660e01b81526004016020604051808303816000875af115801561133c573d6000803e3d6000fd5b505050506040513d601f19601f820116820180604052508101906113609190613a3f565b905060008473ffffffffffffffffffffffffffffffffffffffff16636386c1c7336040518263ffffffff1660e01b815260040161139d9190613352565b60a0604051808303816000875af11580156113bc573d6000803e3d6000fd5b505050506040513d601f19601f820116820180604052508101906113e09190613b89565b905060008573ffffffffffffffffffffffffffffffffffffffff1663cb6f0d34336040518263ffffffff1660e01b815260040161141d9190613352565b602060405180830381865afa15801561143a573d6000803e3d6000fd5b505050506040513d601f19601f8201168201806040525081019061145e9190613936565b90506114ab600a60003373ffffffffffffffffffffffffffffffffffffffff1673ffffffffffffffffffffffffffffffffffffffff16815260200190815260200160002060010187612b14565b8573ffffffffffffffffffffffffffffffffffffffff16632c7e49158686336040518463ffffffff1660e01b81526004016114e8939291906139c6565b600060405180830381600087803b15801561150257600080fd5b505af1158015611516573d6000803e3d6000fd5b5050505060008061152688612cb5565b9150915060011515821515036115ec5760011515811515036115925761158d600960008773ffffffffffffffffffffffffffffffffffffffff1673ffffffffffffffffffffffffffffffffffffffff16815260200190815260200160002060000189612b14565b6115eb565b60001515811515036115ea576115e9600960008773ffffffffffffffffffffffffffffffffffffffff1673ffffffffffffffffffffffffffffffffffffffff16815260200190815260200160002060010189612b14565b5b5b5b8773ffffffffffffffffffffffffffffffffffffffff163373ffffffffffffffffffffffffffffffffffffffff167f758b8b45d172370c222fe8b7156d4c6f1367f8676604a31e2ac73311b192b1e689898860000151886040516116539493929190613bb6565b60405180910390a35050505050505050565b61166d61295d565b80600660008473ffffffffffffffffffffffffffffffffffffffff1673ffffffffffffffffffffffffffffffffffffffff16815260200190815260200160002060006101000a81548160ff0219169083151502179055505050565b60011515600660003373ffffffffffffffffffffffffffffffffffffffff1673ffffffffffffffffffffffffffffffffffffffff16815260200190815260200160002060009054906101000a900460ff1615151461175b576040517f08c379a000000000000000000000000000000000000000000000000000000000815260040161175290613c42565b60405180910390fd5b60008173ffffffffffffffffffffffffffffffffffffffff16637de1e5366040518163ffffffff1660e01b81526004016020604051808303816000875af11580156117aa573d6000803e3d6000fd5b505050506040513d601f19601f820116820180604052508101906117ce9190613a3f565b9050600960008273ffffffffffffffffffffffffffffffffffffffff1673ffffffffffffffffffffffffffffffffffffffff168152602001908152602001600020600101829080600181540180825580915050600190039060005260206000200160009091909190916101000a81548173ffffffffffffffffffffffffffffffffffffffff021916908373ffffffffffffffffffffffffffffffffffffffff1602179055505050565b6000600560008373ffffffffffffffffffffffffffffffffffffffff1673ffffffffffffffffffffffffffffffffffffffff16815260200190815260200160002060009054906101000a900460ff169050919050565b6118d5612df8565b600a60008373ffffffffffffffffffffffffffffffffffffffff1673ffffffffffffffffffffffffffffffffffffffff168152602001908152602001600020604051806040016040529081600082018054806020026020016040519081016040528092919081815260200182805480156119a457602002820191906000526020600020905b8160009054906101000a900473ffffffffffffffffffffffffffffffffffffffff1673ffffffffffffffffffffffffffffffffffffffff168152602001906001019080831161195a575b5050505050815260200160018201805480602002602001604051908101604052809291908181526020018280548015611a3257602002820191906000526020600020905b8160009054906101000a900473ffffffffffffffffffffffffffffffffffffffff1673ffffffffffffffffffffffffffffffffffffffff16815260200190600101908083116119e8575b5050505050815250509050919050565b60025481565b60086020528060005260406000206000915090505481565b60008473ffffffffffffffffffffffffffffffffffffffff166360246c886040518163ffffffff1660e01b815260040160a0604051808303816000875af1158015611aaf573d6000803e3d6000fd5b505050506040513d601f19601f82011682018060405250810190611ad39190613d36565b905060008573ffffffffffffffffffffffffffffffffffffffff1663531fb11d8686905084600001516040518363ffffffff1660e01b8152600401611b19929190613d72565b602060405180830381865afa158015611b36573d6000803e3d6000fd5b505050506040513d601f19601f82011682018060405250810190611b5a9190613936565b905060008673ffffffffffffffffffffffffffffffffffffffff16634c4cbac4348888336040518563ffffffff1660e01b8152600401611b9c939291906139c6565b60206040518083038185885af1158015611bba573d6000803e3d6000fd5b50505050506040513d601f19601f82011682018060405250810190611bdf9190613936565b9050611beb848261282d565b8673ffffffffffffffffffffffffffffffffffffffff163373ffffffffffffffffffffffffffffffffffffffff167f2611defd53a4a87419d2078554db30aeaddd9ddfdc5990da2bbdc8d589f5e4d688888689604051611c4e94939291906138e1565b60405180910390a350505050505050565b60066020528060005260406000206000915054906101000a900460ff1681565b60046020528060005260406000206000915054906101000a900460ff1681565b60008573ffffffffffffffffffffffffffffffffffffffff166360246c886040518163ffffffff1660e01b815260040160a0604051808303816000875af1158015611cee573d6000803e3d6000fd5b505050506040513d601f19601f82011682018060405250810190611d129190613d36565b905060008673ffffffffffffffffffffffffffffffffffffffff1663cb31fa828787905084600001516040518363ffffffff1660e01b8152600401611d58929190613d72565b602060405180830381865afa158015611d75573d6000803e3d6000fd5b505050506040513d601f19601f82011682018060405250810190611d999190613936565b905060008773ffffffffffffffffffffffffffffffffffffffff1663244117b4888888336040518563ffffffff1660e01b8152600401611ddc94939291906138e1565b6020604051808303816000875af1158015611dfb573d6000803e3d6000fd5b505050506040513d601f19601f82011682018060405250810190611e1f9190613936565b9050611e2b848261282d565b8773ffffffffffffffffffffffffffffffffffffffff163373ffffffffffffffffffffffffffffffffffffffff167f8f3673bd023cc34f252b9e7d0a0dd6496592b87006673a974d1d621b5a93e15e89898689604051611e8e94939291906138e1565b60405180910390a35050505050505050565b60011515600660003373ffffffffffffffffffffffffffffffffffffffff1673ffffffffffffffffffffffffffffffffffffffff16815260200190815260200160002060009054906101000a900460ff16151514611f33576040517f08c379a0000000000000000000000000000000000000000000000000000000008152600401611f2a90613c42565b60405180910390fd5b60008173ffffffffffffffffffffffffffffffffffffffff16637de1e5366040518163ffffffff1660e01b81526004016020604051808303816000875af1158015611f82573d6000803e3d6000fd5b505050506040513d601f19601f82011682018060405250810190611fa69190613a3f565b9050600960008273ffffffffffffffffffffffffffffffffffffffff1673ffffffffffffffffffffffffffffffffffffffff168152602001908152602001600020600001829080600181540180825580915050600190039060005260206000200160009091909190916101000a81548173ffffffffffffffffffffffffffffffffffffffff021916908373ffffffffffffffffffffffffffffffffffffffff1602179055505050565b612057612e12565b600960008373ffffffffffffffffffffffffffffffffffffffff1673ffffffffffffffffffffffffffffffffffffffff1681526020019081526020016000206040518060400160405290816000820180548060200260200160405190810160405280929190818152602001828054801561212657602002820191906000526020600020905b8160009054906101000a900473ffffffffffffffffffffffffffffffffffffffff1673ffffffffffffffffffffffffffffffffffffffff16815260200190600101908083116120dc575b50505050508152602001600182018054806020026020016040519081016040528092919081815260200182805480156121b457602002820191906000526020600020905b8160009054906101000a900473ffffffffffffffffffffffffffffffffffffffff1673ffffffffffffffffffffffffffffffffffffffff168152602001906001019080831161216a575b5050505050815250509050919050565b60056020528060005260406000206000915054906101000a900460ff1681565b6000600660008373ffffffffffffffffffffffffffffffffffffffff1673ffffffffffffffffffffffffffffffffffffffff16815260200190815260200160002060009054906101000a900460ff169050919050565b61224261295d565b600073ffffffffffffffffffffffffffffffffffffffff168173ffffffffffffffffffffffffffffffffffffffff16036122b1576040517f08c379a00000000000000000000000000000000000000000000000000000000081526004016122a890613e0d565b60405180910390fd5b6122ba816129db565b50565b60076020528060005260406000206000915054906101000a900460ff1681565b6000600460008373ffffffffffffffffffffffffffffffffffffffff1673ffffffffffffffffffffffffffffffffffffffff16815260200190815260200160002060009054906101000a900460ff169050919050565b61233b61295d565b6001151581151503612406576003829080600181540180825580915050600190039060005260206000200160009091909190916101000a81548173ffffffffffffffffffffffffffffffffffffffff021916908373ffffffffffffffffffffffffffffffffffffffff16021790555080600460008473ffffffffffffffffffffffffffffffffffffffff1673ffffffffffffffffffffffffffffffffffffffff16815260200190815260200160002060006101000a81548160ff021916908315150217905550612476565b60001515811515036124755761241d600383612b14565b80600460008473ffffffffffffffffffffffffffffffffffffffff1673ffffffffffffffffffffffffffffffffffffffff16815260200190815260200160002060006101000a81548160ff0219169083151502179055505b5b5050565b60008034905060005b878790508110156128195760008888838181106124a3576124a261379d565b5b90506020020160208101906124b891906132a2565b73ffffffffffffffffffffffffffffffffffffffff166360246c886040518163ffffffff1660e01b815260040160a0604051808303816000875af1158015612504573d6000803e3d6000fd5b505050506040513d601f19601f820116820180604052508101906125289190613d36565b9050600089898481811061253f5761253e61379d565b5b905060200201602081019061255491906132a2565b73ffffffffffffffffffffffffffffffffffffffff1663531fb11d8989868181106125825761258161379d565b5b905060200281019061259491906137db565b80600001906125a39190613803565b905084600001516040518363ffffffff1660e01b81526004016125c7929190613d72565b602060405180830381865afa1580156125e4573d6000803e3d6000fd5b505050506040513d601f19601f820116820180604052508101906126089190613936565b90508084101561264d576040517f08c379a000000000000000000000000000000000000000000000000000000000815260040161264490613e79565b60405180910390fd5b60008a8a858181106126625761266161379d565b5b905060200201602081019061267791906132a2565b73ffffffffffffffffffffffffffffffffffffffff16634c4cbac4838b8b888181106126a6576126a561379d565b5b90506020028101906126b891906137db565b80600001906126c79190613803565b336040518563ffffffff1660e01b81526004016126e6939291906139c6565b60206040518083038185885af1158015612704573d6000803e3d6000fd5b50505050506040513d601f19601f820116820180604052508101906127299190613936565b905080866127379190613992565b955081856127459190613e99565b94508a8a8581811061275a5761275961379d565b5b905060200201602081019061276f91906132a2565b73ffffffffffffffffffffffffffffffffffffffff163373ffffffffffffffffffffffffffffffffffffffff167f2611defd53a4a87419d2078554db30aeaddd9ddfdc5990da2bbdc8d589f5e4d68b8b888181106127d0576127cf61379d565b5b90506020028101906127e291906137db565b80600001906127f19190613803565b858c60405161280394939291906138e1565b60405180910390a3836001019350505050612483565b50612824838361282d565b50505050505050565b600073ffffffffffffffffffffffffffffffffffffffff168273ffffffffffffffffffffffffffffffffffffffff161461290a576000612882600254670de0b6b3a764000084612dcc9092919063ffffffff16565b9050600081836128929190613e99565b905080600160008282546128a69190613992565b9250508190555081600860008673ffffffffffffffffffffffffffffffffffffffff1673ffffffffffffffffffffffffffffffffffffffff16815260200190815260200160002060008282546128fc9190613992565b925050819055505050612959565b600073ffffffffffffffffffffffffffffffffffffffff168273ffffffffffffffffffffffffffffffffffffffff16036129585780600160008282546129509190613992565b925050819055505b5b5050565b612965612df0565b73ffffffffffffffffffffffffffffffffffffffff1661298361105f565b73ffffffffffffffffffffffffffffffffffffffff16146129d9576040517f08c379a00000000000000000000000000000000000000000000000000000000081526004016129d090613f19565b60405180910390fd5b565b60008060009054906101000a900473ffffffffffffffffffffffffffffffffffffffff169050816000806101000a81548173ffffffffffffffffffffffffffffffffffffffff021916908373ffffffffffffffffffffffffffffffffffffffff1602179055508173ffffffffffffffffffffffffffffffffffffffff168173ffffffffffffffffffffffffffffffffffffffff167f8be0079c531659141344cd1fd0a4f28419497f9722a3daafe3b4186f6b6457e060405160405180910390a35050565b600080835190506000915060005b81811015612b0c578373ffffffffffffffffffffffffffffffffffffffff16858281518110612adf57612ade61379d565b5b602002602001015173ffffffffffffffffffffffffffffffffffffffff1603612b0757600192505b612aad565b505092915050565b60008280549050905060005b81811015612caf578273ffffffffffffffffffffffffffffffffffffffff16848281548110612b5257612b5161379d565b5b9060005260206000200160009054906101000a900473ffffffffffffffffffffffffffffffffffffffff1673ffffffffffffffffffffffffffffffffffffffff1603612c9c57600182612ba59190613e99565b8114612c515783600183612bb99190613e99565b81548110612bca57612bc961379d565b5b9060005260206000200160009054906101000a900473ffffffffffffffffffffffffffffffffffffffff16848281548110612c0857612c0761379d565b5b9060005260206000200160006101000a81548173ffffffffffffffffffffffffffffffffffffffff021916908373ffffffffffffffffffffffffffffffffffffffff1602179055505b83805480612c6257612c61613f39565b5b6001900381819060005260206000200160006101000a81549073ffffffffffffffffffffffffffffffffffffffff02191690559055612caf565b8080612ca790613f68565b915050612b20565b50505050565b60008060008373ffffffffffffffffffffffffffffffffffffffff166360246c886040518163ffffffff1660e01b815260040160a0604051808303816000875af1158015612d07573d6000803e3d6000fd5b505050506040513d601f19601f82011682018060405250810190612d2b9190613d36565b90508373ffffffffffffffffffffffffffffffffffffffff1663bbd265ab6040518163ffffffff1660e01b81526004016020604051808303816000875af1158015612d7a573d6000803e3d6000fd5b505050506040513d601f19601f82011682018060405250810190612d9e9190613fc5565b91506000925060008160600151148015612dbc575060008160800151145b15612dc657600192505b50915091565b600082840290508284820414841517612de457600080fd5b81810490509392505050565b600033905090565b604051806040016040528060608152602001606081525090565b604051806040016040528060608152602001606081525090565b600073ffffffffffffffffffffffffffffffffffffffff82169050919050565b6000612e5782612e2c565b9050919050565b612e6781612e4c565b82525050565b6000819050919050565b612e8081612e6d565b82525050565b6000604082019050612e9b6000830185612e5e565b612ea86020830184612e77565b9392505050565b6000604051905090565b600080fd5b600080fd5b600080fd5b600080fd5b600080fd5b60008083601f840112612ee857612ee7612ec3565b5b8235905067ffffffffffffffff811115612f0557612f04612ec8565b5b602083019150836020820283011115612f2157612f20612ecd565b5b9250929050565b60008083601f840112612f3e57612f3d612ec3565b5b8235905067ffffffffffffffff811115612f5b57612f5a612ec8565b5b602083019150836020820283011115612f7757612f76612ecd565b5b9250929050565b60008083601f840112612f9457612f93612ec3565b5b8235905067ffffffffffffffff811115612fb157612fb0612ec8565b5b602083019150836020820283011115612fcd57612fcc612ecd565b5b9250929050565b612fdd81612e4c565b8114612fe857600080fd5b50565b600081359050612ffa81612fd4565b92915050565b60008060008060008060006080888a03121561301f5761301e612eb9565b5b600088013567ffffffffffffffff81111561303d5761303c612ebe565b5b6130498a828b01612ed2565b9750975050602088013567ffffffffffffffff81111561306c5761306b612ebe565b5b6130788a828b01612f28565b9550955050604088013567ffffffffffffffff81111561309b5761309a612ebe565b5b6130a78a828b01612f7e565b935093505060606130ba8a828b01612feb565b91505092959891949750929550565b600080600080604085870312156130e3576130e2612eb9565b5b600085013567ffffffffffffffff81111561310157613100612ebe565b5b61310d87828801612ed2565b9450945050602085013567ffffffffffffffff8111156131305761312f612ebe565b5b61313c87828801612f28565b925092505092959194509250565b600081519050919050565b600082825260208201905092915050565b6000819050602082019050919050565b61317f81612e4c565b82525050565b60006131918383613176565b60208301905092915050565b6000602082019050919050565b60006131b58261314a565b6131bf8185613155565b93506131ca83613166565b8060005b838110156131fb5781516131e28882613185565b97506131ed8361319d565b9250506001810190506131ce565b5085935050505092915050565b6000602082019050818103600083015261322281846131aa565b905092915050565b60008115159050919050565b61323f8161322a565b811461324a57600080fd5b50565b60008135905061325c81613236565b92915050565b6000806040838503121561327957613278612eb9565b5b600061328785828601612feb565b92505060206132988582860161324d565b9150509250929050565b6000602082840312156132b8576132b7612eb9565b5b60006132c684828501612feb565b91505092915050565b6132d88161322a565b82525050565b60006020820190506132f360008301846132cf565b92915050565b61330281612e6d565b811461330d57600080fd5b50565b60008135905061331f816132f9565b92915050565b60006020828403121561333b5761333a612eb9565b5b600061334984828501613310565b91505092915050565b60006020820190506133676000830184612e5e565b92915050565b60006020820190506133826000830184612e77565b92915050565b6000806000604084860312156133a1576133a0612eb9565b5b60006133af86828701612feb565b935050602084013567ffffffffffffffff8111156133d0576133cf612ebe565b5b6133dc86828701612f7e565b92509250509250925092565b600082825260208201905092915050565b60006134048261314a565b61340e81856133e8565b935061341983613166565b8060005b8381101561344a5781516134318882613185565b975061343c8361319d565b92505060018101905061341d565b5085935050505092915050565b6000604083016000830151848203600086015261347482826133f9565b9150506020830151848203602086015261348e82826133f9565b9150508091505092915050565b600060208201905081810360008301526134b58184613457565b905092915050565b600080600080606085870312156134d7576134d6612eb9565b5b60006134e587828801612feb565b945050602085013567ffffffffffffffff81111561350657613505612ebe565b5b61351287828801612f7e565b9350935050604061352587828801612feb565b91505092959194509250565b60008060008060006080868803121561354d5761354c612eb9565b5b600061355b88828901612feb565b955050602086013567ffffffffffffffff81111561357c5761357b612ebe565b5b61358888828901612f7e565b9450945050604061359b88828901613310565b92505060606135ac88828901612feb565b9150509295509295909350565b600060408301600083015184820360008601526135d682826133f9565b915050602083015184820360208601526135f082826133f9565b9150508091505092915050565b6000602082019050818103600083015261361781846135b9565b905092915050565b60008060008060006060868803121561363b5761363a612eb9565b5b600086013567ffffffffffffffff81111561365957613658612ebe565b5b61366588828901612ed2565b9550955050602086013567ffffffffffffffff81111561368857613687612ebe565b5b61369488828901612f28565b935093505060406136a788828901612feb565b9150509295509295909350565b600082825260208201905092915050565b7f4e6f7420417070726f7665000000000000000000000000000000000000000000600082015250565b60006136fb600b836136b4565b9150613706826136c5565b602082019050919050565b6000602082019050818103600083015261372a816136ee565b9050919050565b7f4e6f742046656500000000000000000000000000000000000000000000000000600082015250565b60006137676007836136b4565b915061377282613731565b602082019050919050565b600060208201905081810360008301526137968161375a565b9050919050565b7f4e487b7100000000000000000000000000000000000000000000000000000000600052603260045260246000fd5b600080fd5b600080fd5b600080fd5b6000823560016020038336030381126137f7576137f66137cc565b5b80830191505092915050565b600080833560016020038436030381126138205761381f6137cc565b5b80840192508235915067ffffffffffffffff821115613842576138416137d1565b5b60208301925060208202360383131561385e5761385d6137d6565b5b509250929050565b600082825260208201905092915050565b600080fd5b82818337505050565b60006138918385613866565b93507f07ffffffffffffffffffffffffffffffffffffffffffffffffffffffffffffff8311156138c4576138c3613877565b5b6020830292506138d583858461387c565b82840190509392505050565b600060608201905081810360008301526138fc818688613885565b905061390b6020830185612e77565b6139186040830184612e5e565b95945050505050565b600081519050613930816132f9565b92915050565b60006020828403121561394c5761394b612eb9565b5b600061395a84828501613921565b91505092915050565b7f4e487b7100000000000000000000000000000000000000000000000000000000600052601160045260246000fd5b600061399d82612e6d565b91506139a883612e6d565b92508282019050808211156139c0576139bf613963565b5b92915050565b600060408201905081810360008301526139e1818587613885565b90506139f06020830184612e5e565b949350505050565b6000604082019050613a0d6000830186612e77565b8181036020830152613a20818486613885565b9050949350505050565b600081519050613a3981612fd4565b92915050565b600060208284031215613a5557613a54612eb9565b5b6000613a6384828501613a2a565b91505092915050565b600080fd5b6000601f19601f8301169050919050565b7f4e487b7100000000000000000000000000000000000000000000000000000000600052604160045260246000fd5b613aba82613a71565b810181811067ffffffffffffffff82111715613ad957613ad8613a82565b5b80604052505050565b6000613aec612eaf565b9050613af88282613ab1565b919050565b600060a08284031215613b1357613b12613a6c565b5b613b1d60a0613ae2565b90506000613b2d84828501613921565b6000830152506020613b4184828501613921565b6020830152506040613b5584828501613921565b6040830152506060613b6984828501613921565b6060830152506080613b7d84828501613921565b60808301525092915050565b600060a08284031215613b9f57613b9e612eb9565b5b6000613bad84828501613afd565b91505092915050565b60006060820190508181036000830152613bd1818688613885565b9050613be06020830185612e77565b613bed6040830184612e77565b95945050505050565b7f4f6e6c7920466163746f72790000000000000000000000000000000000000000600082015250565b6000613c2c600c836136b4565b9150613c3782613bf6565b602082019050919050565b60006020820190508181036000830152613c5b81613c1f565b9050919050565b60006fffffffffffffffffffffffffffffffff82169050919050565b613c8781613c62565b8114613c9257600080fd5b50565b600081519050613ca481613c7e565b92915050565b600060a08284031215613cc057613cbf613a6c565b5b613cca60a0613ae2565b90506000613cda84828501613c95565b6000830152506020613cee84828501613c95565b6020830152506040613d0284828501613921565b6040830152506060613d1684828501613921565b6060830152506080613d2a84828501613921565b60808301525092915050565b600060a08284031215613d4c57613d4b612eb9565b5b6000613d5a84828501613caa565b91505092915050565b613d6c81613c62565b82525050565b6000604082019050613d876000830185612e77565b613d946020830184613d63565b9392505050565b7f4f776e61626c653a206e6577206f776e657220697320746865207a65726f206160008201527f6464726573730000000000000000000000000000000000000000000000000000602082015250565b6000613df76026836136b4565b9150613e0282613d9b565b604082019050919050565b60006020820190508181036000830152613e2681613dea565b9050919050565b7f4e6f742056616c75650000000000000000000000000000000000000000000000600082015250565b6000613e636009836136b4565b9150613e6e82613e2d565b602082019050919050565b60006020820190508181036000830152613e9281613e56565b9050919050565b6000613ea482612e6d565b9150613eaf83612e6d565b9250828203905081811115613ec757613ec6613963565b5b92915050565b7f4f776e61626c653a2063616c6c6572206973206e6f7420746865206f776e6572600082015250565b6000613f036020836136b4565b9150613f0e82613ecd565b602082019050919050565b60006020820190508181036000830152613f3281613ef6565b9050919050565b7f4e487b7100000000000000000000000000000000000000000000000000000000600052603160045260246000fd5b6000613f7382612e6d565b91507fffffffffffffffffffffffffffffffffffffffffffffffffffffffffffffffff8203613fa557613fa4613963565b5b600182019050919050565b600081519050613fbf81613236565b92915050565b600060208284031215613fdb57613fda612eb9565b5b6000613fe984828501613fb0565b9150509291505056fea26469706673582212208d240280f0ad55ad3b58942ca0b98803fb67da3c0bb9063d7d59c8024119109164736f6c63430008110033",
  "linkReferences": {},
  "deployedLinkReferences": {}
}