{
  "_format": "hh-sol-artifact-1",
  "contractName": "Router",
  "sourceName": "contracts/Router.sol",
  "abi": [
    {
      "anonymous": false,
      "inputs": [
        {
          "indexed": true,
          "internalType": "address",
          "name": "previousOwner",
          "type": "address"
        },
        {
          "indexed": true,
          "internalType": "address",
          "name": "newOwner",
          "type": "address"
        }
      ],
      "name": "OwnershipTransferred",
      "type": "event"
    },
    {
      "anonymous": false,
      "inputs": [
        {
          "indexed": false,
          "internalType": "address",
          "name": "",
          "type": "address"
        },
        {
          "indexed": false,
          "internalType": "uint256",
          "name": "",
          "type": "uint256"
        }
      ],
      "name": "Received",
      "type": "event"
    },
    {
      "anonymous": false,
      "inputs": [
        {
          "indexed": true,
          "internalType": "address",
          "name": "user",
          "type": "address"
        },
        {
          "indexed": true,
          "internalType": "address",
          "name": "pool",
          "type": "address"
        },
        {
          "indexed": false,
          "internalType": "uint256",
          "name": "userNum",
          "type": "uint256"
        },
        {
          "indexed": false,
          "internalType": "uint256",
          "name": "userAmount",
          "type": "uint256"
        }
      ],
      "name": "StakeFT",
      "type": "event"
    },
    {
      "anonymous": false,
      "inputs": [
        {
          "indexed": true,
          "internalType": "address",
          "name": "user",
          "type": "address"
        },
        {
          "indexed": true,
          "internalType": "address",
          "name": "pool",
          "type": "address"
        },
        {
          "indexed": false,
          "internalType": "uint256",
          "name": "userNum",
          "type": "uint256"
        },
        {
          "indexed": false,
          "internalType": "uint256[]",
          "name": "tokenIds",
          "type": "uint256[]"
        }
      ],
      "name": "StakeNFT",
      "type": "event"
    },
    {
      "anonymous": false,
      "inputs": [
        {
          "indexed": true,
          "internalType": "address",
          "name": "user",
          "type": "address"
        },
        {
          "indexed": true,
          "internalType": "address",
          "name": "pool",
          "type": "address"
        },
        {
          "indexed": false,
          "internalType": "uint256[]",
          "name": "tokenIds",
          "type": "uint256[]"
        },
        {
          "indexed": false,
          "internalType": "uint256",
          "name": "totalFee",
          "type": "uint256"
        },
        {
          "indexed": false,
          "internalType": "address",
          "name": "support",
          "type": "address"
        }
      ],
      "name": "SwapFTforNFT",
      "type": "event"
    },
    {
      "anonymous": false,
      "inputs": [
        {
          "indexed": true,
          "internalType": "address",
          "name": "user",
          "type": "address"
        },
        {
          "indexed": true,
          "internalType": "address",
          "name": "pool",
          "type": "address"
        },
        {
          "indexed": false,
          "internalType": "uint256[]",
          "name": "tokenIds",
          "type": "uint256[]"
        },
        {
          "indexed": false,
          "internalType": "uint256",
          "name": "totalFee",
          "type": "uint256"
        },
        {
          "indexed": false,
          "internalType": "address",
          "name": "support",
          "type": "address"
        }
      ],
      "name": "SwapNFTforFT",
      "type": "event"
    },
    {
      "anonymous": false,
      "inputs": [
        {
          "indexed": true,
          "internalType": "address",
          "name": "user",
          "type": "address"
        },
        {
          "indexed": true,
          "internalType": "address",
          "name": "pool",
          "type": "address"
        },
        {
          "indexed": false,
          "internalType": "uint256[]",
          "name": "tokenIds",
          "type": "uint256[]"
        },
        {
          "indexed": false,
          "internalType": "uint256",
          "name": "userNum",
          "type": "uint256"
        },
        {
          "indexed": false,
          "internalType": "uint256",
          "name": "userAmount",
          "type": "uint256"
        },
        {
          "indexed": false,
          "internalType": "uint256",
          "name": "userFee",
          "type": "uint256"
        }
      ],
      "name": "WithdrawFT",
      "type": "event"
    },
    {
      "anonymous": false,
      "inputs": [
        {
          "indexed": true,
          "internalType": "address",
          "name": "user",
          "type": "address"
        },
        {
          "indexed": true,
          "internalType": "address",
          "name": "pool",
          "type": "address"
        },
        {
          "indexed": false,
          "internalType": "uint256[]",
          "name": "tokenIds",
          "type": "uint256[]"
        },
        {
          "indexed": false,
          "internalType": "uint256",
          "name": "userNum",
          "type": "uint256"
        },
        {
          "indexed": false,
          "internalType": "uint256",
          "name": "userFee",
          "type": "uint256"
        }
      ],
      "name": "WithdrawNFT",
      "type": "event"
    },
    {
      "inputs": [
        {
          "internalType": "address",
          "name": "_collection",
          "type": "address"
        },
        {
          "internalType": "address",
          "name": "_pool",
          "type": "address"
        }
      ],
      "name": "addCollectionPoolList",
      "outputs": [],
      "stateMutability": "nonpayable",
      "type": "function"
    },
    {
      "inputs": [
        {
          "internalType": "address[]",
          "name": "_poolList",
          "type": "address[]"
        },
        {
          "internalType": "uint256[]",
          "name": "_tokenIds",
          "type": "uint256[]"
        },
        {
          "internalType": "address",
          "name": "_support",
          "type": "address"
        },
        {
          "internalType": "uint256[]",
          "name": "_pattern",
          "type": "uint256[]"
        }
      ],
      "name": "batchSwapFTforNFT",
      "outputs": [],
      "stateMutability": "nonpayable",
      "type": "function"
    },
    {
      "inputs": [
        {
          "internalType": "address[]",
          "name": "_poolList",
          "type": "address[]"
        },
        {
          "internalType": "uint256[]",
          "name": "_tokenIds",
          "type": "uint256[]"
        },
        {
          "internalType": "uint256[]",
          "name": "_minExpects",
          "type": "uint256[]"
        },
        {
          "internalType": "address",
          "name": "_support",
          "type": "address"
        },
        {
          "internalType": "uint256[]",
          "name": "_pattern",
          "type": "uint256[]"
        }
      ],
      "name": "batchSwapNFTforFT",
      "outputs": [],
      "stateMutability": "nonpayable",
      "type": "function"
    },
    {
      "inputs": [
        {
          "internalType": "uint256",
          "name": "",
          "type": "uint256"
        }
      ],
      "name": "bondingCurveList",
      "outputs": [
        {
          "internalType": "address",
          "name": "",
          "type": "address"
        }
      ],
      "stateMutability": "view",
      "type": "function"
    },
    {
      "inputs": [
        {
          "internalType": "uint256",
          "name": "",
          "type": "uint256"
        }
      ],
      "name": "collectionList",
      "outputs": [
        {
          "internalType": "address",
          "name": "",
          "type": "address"
        }
      ],
      "stateMutability": "view",
      "type": "function"
    },
    {
      "inputs": [],
      "name": "getBondingCurveList",
      "outputs": [
        {
          "internalType": "address[]",
          "name": "",
          "type": "address[]"
        }
      ],
      "stateMutability": "view",
      "type": "function"
    },
    {
      "inputs": [],
      "name": "getCollectionList",
      "outputs": [
        {
          "internalType": "address[]",
          "name": "",
          "type": "address[]"
        }
      ],
      "stateMutability": "view",
      "type": "function"
    },
    {
      "inputs": [
        {
          "internalType": "address",
          "name": "_collection",
          "type": "address"
        }
      ],
      "name": "getCollectionPoolList",
      "outputs": [
        {
          "internalType": "address[]",
          "name": "",
          "type": "address[]"
        }
      ],
      "stateMutability": "view",
      "type": "function"
    },
    {
      "inputs": [
        {
          "internalType": "address",
          "name": "_bondingCurve",
          "type": "address"
        }
      ],
      "name": "getIsBondingCurveApprove",
      "outputs": [
        {
          "internalType": "bool",
          "name": "",
          "type": "bool"
        }
      ],
      "stateMutability": "view",
      "type": "function"
    },
    {
      "inputs": [
        {
          "internalType": "address",
          "name": "_collection",
          "type": "address"
        }
      ],
      "name": "getIsCollectionApprove",
      "outputs": [
        {
          "internalType": "bool",
          "name": "",
          "type": "bool"
        }
      ],
      "stateMutability": "view",
      "type": "function"
    },
    {
      "inputs": [
        {
          "internalType": "address",
          "name": "pool",
          "type": "address"
        }
      ],
      "name": "getPoolInfo",
      "outputs": [
        {
          "components": [
            {
              "internalType": "address",
              "name": "bondingCurve",
              "type": "address"
            },
            {
              "internalType": "uint128",
              "name": "spotPrice",
              "type": "uint128"
            },
            {
              "internalType": "uint128",
              "name": "delta",
              "type": "uint128"
            },
            {
              "internalType": "uint256",
              "name": "divergence",
              "type": "uint256"
            },
            {
              "internalType": "uint256",
              "name": "buyNum",
              "type": "uint256"
            },
            {
              "internalType": "uint256",
              "name": "sellNum",
              "type": "uint256"
            }
          ],
          "internalType": "struct IPool721.PoolInfo",
          "name": "poolInfo",
          "type": "tuple"
        }
      ],
      "stateMutability": "nonpayable",
      "type": "function"
    },
    {
      "inputs": [
        {
          "internalType": "address",
          "name": "_pool",
          "type": "address"
        },
        {
          "internalType": "address",
          "name": "_user",
          "type": "address"
        }
      ],
      "name": "getUserInfo",
      "outputs": [
        {
          "components": [
            {
              "internalType": "uint256",
              "name": "userInitBuyNum",
              "type": "uint256"
            },
            {
              "internalType": "uint256",
              "name": "userInitSellNum",
              "type": "uint256"
            },
            {
              "internalType": "uint256",
              "name": "userInitSellAmount",
              "type": "uint256"
            },
            {
              "internalType": "uint256",
              "name": "userNFTpoint",
              "type": "uint256"
            },
            {
              "internalType": "uint256",
              "name": "userFTpoint",
              "type": "uint256"
            }
          ],
          "internalType": "struct IPool721.UserInfo",
          "name": "userInfo",
          "type": "tuple"
        }
      ],
      "stateMutability": "nonpayable",
      "type": "function"
    },
    {
      "inputs": [],
      "name": "owner",
      "outputs": [
        {
          "internalType": "address",
          "name": "",
          "type": "address"
        }
      ],
      "stateMutability": "view",
      "type": "function"
    },
    {
      "inputs": [],
      "name": "renounceOwnership",
      "outputs": [],
      "stateMutability": "nonpayable",
      "type": "function"
    },
    {
      "inputs": [
        {
          "internalType": "address",
          "name": "_bondingCurve",
          "type": "address"
        },
        {
          "internalType": "bool",
          "name": "_approve",
          "type": "bool"
        }
      ],
      "name": "setBondingCurveApprove",
      "outputs": [],
      "stateMutability": "nonpayable",
      "type": "function"
    },
    {
      "inputs": [
        {
          "internalType": "address",
          "name": "_collection",
          "type": "address"
        },
        {
          "internalType": "bool",
          "name": "_approve",
          "type": "bool"
        }
      ],
      "name": "setCollectionApprove",
      "outputs": [],
      "stateMutability": "nonpayable",
      "type": "function"
    },
    {
      "inputs": [
        {
          "internalType": "address",
          "name": "_pool",
          "type": "address"
        },
        {
          "internalType": "uint256",
          "name": "_userSellNum",
          "type": "uint256"
        }
      ],
      "name": "stakeFT",
      "outputs": [],
      "stateMutability": "payable",
      "type": "function"
    },
    {
      "inputs": [
        {
          "internalType": "address",
          "name": "_pool",
          "type": "address"
        },
        {
          "internalType": "uint256[]",
          "name": "_tokenIds",
          "type": "uint256[]"
        }
      ],
      "name": "stakeNFT",
      "outputs": [],
      "stateMutability": "nonpayable",
      "type": "function"
    },
    {
      "inputs": [],
      "name": "supporterFeeRatio",
      "outputs": [
        {
          "internalType": "uint256",
          "name": "",
          "type": "uint256"
        }
      ],
      "stateMutability": "view",
      "type": "function"
    },
    {
      "inputs": [
        {
          "internalType": "address",
          "name": "_pool",
          "type": "address"
        },
        {
          "internalType": "uint256[]",
          "name": "_tokenIds",
          "type": "uint256[]"
        },
        {
          "internalType": "address",
          "name": "_support",
          "type": "address"
        }
      ],
      "name": "swapFTforNFT",
      "outputs": [],
      "stateMutability": "payable",
      "type": "function"
    },
    {
      "inputs": [
        {
          "internalType": "address",
          "name": "_pool",
          "type": "address"
        },
        {
          "internalType": "uint256[]",
          "name": "_tokenIds",
          "type": "uint256[]"
        },
        {
          "internalType": "uint256",
          "name": "_minExpectFee",
          "type": "uint256"
        },
        {
          "internalType": "address",
          "name": "_support",
          "type": "address"
        }
      ],
      "name": "swapNFTforFT",
      "outputs": [],
      "stateMutability": "payable",
      "type": "function"
    },
    {
      "inputs": [],
      "name": "totalFee",
      "outputs": [
        {
          "internalType": "uint256",
          "name": "",
          "type": "uint256"
        }
      ],
      "stateMutability": "view",
      "type": "function"
    },
    {
      "inputs": [],
      "name": "totalProtocolFee",
      "outputs": [
        {
          "internalType": "uint256",
          "name": "",
          "type": "uint256"
        }
      ],
      "stateMutability": "view",
      "type": "function"
    },
    {
      "inputs": [
        {
          "internalType": "address",
          "name": "newOwner",
          "type": "address"
        }
      ],
      "name": "transferOwnership",
      "outputs": [],
      "stateMutability": "nonpayable",
      "type": "function"
    },
    {
      "inputs": [
        {
          "internalType": "address",
          "name": "_pool",
          "type": "address"
        },
        {
          "internalType": "uint256",
          "name": "_userSellNum",
          "type": "uint256"
        },
        {
          "internalType": "uint256[]",
          "name": "_tokenIds",
          "type": "uint256[]"
        }
      ],
      "name": "withdrawFT",
      "outputs": [],
      "stateMutability": "nonpayable",
      "type": "function"
    },
    {
      "inputs": [
        {
          "internalType": "address",
          "name": "_pool",
          "type": "address"
        },
        {
          "internalType": "uint256[]",
          "name": "_tokenIds",
          "type": "uint256[]"
        }
      ],
      "name": "withdrawNFT",
      "outputs": [],
      "stateMutability": "nonpayable",
      "type": "function"
    },
    {
      "inputs": [],
      "name": "withdrawProtocolFee",
      "outputs": [],
      "stateMutability": "payable",
      "type": "function"
    },
    {
      "inputs": [],
      "name": "withdrawSupportFee",
      "outputs": [],
      "stateMutability": "payable",
      "type": "function"
    },
    {
      "stateMutability": "payable",
      "type": "receive"
    }
  ],
  "bytecode": "0x608060405266b1a2bc2ec500006003553480156200001c57600080fd5b506200003d620000316200004360201b60201c565b6200004b60201b60201c565b6200010f565b600033905090565b60008060009054906101000a900473ffffffffffffffffffffffffffffffffffffffff169050816000806101000a81548173ffffffffffffffffffffffffffffffffffffffff021916908373ffffffffffffffffffffffffffffffffffffffff1602179055508173ffffffffffffffffffffffffffffffffffffffff168173ffffffffffffffffffffffffffffffffffffffff167f8be0079c531659141344cd1fd0a4f28419497f9722a3daafe3b4186f6b6457e060405160405180910390a35050565b614980806200011f6000396000f3fe6080604052600436106101bb5760003560e01c80639175a588116100ec578063d6775e981161008a578063f2801fe711610064578063f2801fe7146105e5578063f2fde38b14610622578063fc5a0df51461064b578063fc9d16cd146106885761020f565b8063d6775e9814610563578063dd4b533f1461058c578063e3b4403d146105a85761020f565b8063b65bfbf0116100c6578063b65bfbf0146104c3578063b693febb14610500578063bc0a0bd01461051c578063cab5c30e146105475761020f565b80639175a588146104345780639bdedea51461045d578063a7b60297146104865761020f565b80635f1c325d11610159578063779f158311610133578063779f15831461038c57806388611f35146103b55780638d3b6eb3146103e05780638da5cb5b146104095761020f565b80635f1c325d1461030f578063715018a614610338578063752d121c1461034f5761020f565b8063361eaa5311610195578063361eaa53146102865780634906a2a8146102b157806359d8da92146102dc5780635befecc8146102e65761020f565b806306bfa9381461021457806312b71c21146102515780631df4ccfc1461025b5761020f565b3661020f576101d467967a939716ff318360c01b6106b1565b7f88a5966d370b9919b20f3e2c13ff65706f196a4e32cc2c12bf57088f885258743334604051610205929190613651565b60405180910390a1005b600080fd5b34801561022057600080fd5b5061023b600480360381019061023691906136ba565b6106b4565b60405161024891906137ab565b60405180910390f35b610259610770565b005b34801561026757600080fd5b50610270610969565b60405161027d91906137c6565b60405180910390f35b34801561029257600080fd5b5061029b61096f565b6040516102a89190613890565b60405180910390f35b3480156102bd57600080fd5b506102c6610a39565b6040516102d39190613890565b60405180910390f35b6102e4610b03565b005b3480156102f257600080fd5b5061030d60048036038101906103089190613b55565b610bd6565b005b34801561031b57600080fd5b5061033660048036038101906103319190613c15565b610e92565b005b34801561034457600080fd5b5061034d610fa3565b005b34801561035b57600080fd5b5061037660048036038101906103719190613c55565b610fb7565b6040516103839190613c82565b60405180910390f35b34801561039857600080fd5b506103b360048036038101906103ae9190613c9d565b610ff6565b005b3480156103c157600080fd5b506103ca6112c4565b6040516103d791906137c6565b60405180910390f35b3480156103ec57600080fd5b5061040760048036038101906104029190613d49565b6112ca565b005b34801561041557600080fd5b5061041e611554565b60405161042b9190613c82565b60405180910390f35b34801561044057600080fd5b5061045b60048036038101906104569190613d89565b61157d565b005b34801561046957600080fd5b50610484600480360381019061047f9190613d89565b611789565b005b34801561049257600080fd5b506104ad60048036038101906104a89190613c55565b611a52565b6040516104ba9190613c82565b60405180910390f35b3480156104cf57600080fd5b506104ea60048036038101906104e591906136ba565b611a91565b6040516104f79190613df8565b60405180910390f35b61051a60048036038101906105159190613e13565b611b23565b005b34801561052857600080fd5b50610531611f13565b60405161053e91906137c6565b60405180910390f35b610561600480360381019061055c9190613e53565b611f19565b005b34801561056f57600080fd5b5061058a60048036038101906105859190613ec7565b612236565b005b6105a660048036038101906105a19190613fbb565b61250f565b005b3480156105b457600080fd5b506105cf60048036038101906105ca91906136ba565b61282e565b6040516105dc9190613890565b60405180910390f35b3480156105f157600080fd5b5061060c60048036038101906106079190613c15565b612937565b60405161061991906140ab565b60405180910390f35b34801561062e57600080fd5b50610649600480360381019061064491906136ba565b6129ff565b005b34801561065757600080fd5b50610672600480360381019061066d91906136ba565b612a82565b60405161067f9190613df8565b60405180910390f35b34801561069457600080fd5b506106af60048036038101906106aa9190613d49565b612b14565b005b50565b6106bc613558565b6106d0676dd442187fa3016060c01b6106b1565b6106e4673683b62471ecaec160c01b6106b1565b6106f8671376ebf3f013cdd260c01b6106b1565b8173ffffffffffffffffffffffffffffffffffffffff166360246c886040518163ffffffff1660e01b815260040160c0604051808303816000875af1158015610745573d6000803e3d6000fd5b505050506040513d601f19601f8201168201806040525081019061076991906141c1565b9050919050565b61078467f306ed6907fef56f60c01b6106b1565b610798676f2add2228a0cb8960c01b6106b1565b6107ac67ea99c7ee26785e1d60c01b6106b1565b6107c067f1a632f87236921460c01b6106b1565b600b60003373ffffffffffffffffffffffffffffffffffffffff1673ffffffffffffffffffffffffffffffffffffffff16815260200190815260200160002060009054906101000a900460ff1661084c576040517f08c379a00000000000000000000000000000000000000000000000000000000081526004016108439061424b565b60405180910390fd5b6108606790c712f91bb6744660c01b6106b1565b6108746798f6679f8aea099960c01b6106b1565b6000600a60003373ffffffffffffffffffffffffffffffffffffffff1673ffffffffffffffffffffffffffffffffffffffff168152602001908152602001600020819055506108cd6711a8b95e41c7c69460c01b6106b1565b6108e1673b4d30537d6b30c460c01b6106b1565b3373ffffffffffffffffffffffffffffffffffffffff166108fc600a60003373ffffffffffffffffffffffffffffffffffffffff1673ffffffffffffffffffffffffffffffffffffffff168152602001908152602001600020549081150290604051600060405180830381858888f19350505050158015610966573d6000803e3d6000fd5b50565b60025481565b606061098567d6fee2391c1aae9760c01b6106b1565b61099967bc8c507e1790fe9960c01b6106b1565b6109ad67e9bc6132e2eda69e60c01b6106b1565b6005805480602002602001604051908101604052809291908181526020018280548015610a2f57602002820191906000526020600020905b8160009054906101000a900473ffffffffffffffffffffffffffffffffffffffff1673ffffffffffffffffffffffffffffffffffffffff16815260200190600101908083116109e5575b5050505050905090565b6060610a4f67201556a1b9c00bf060c01b6106b1565b610a63670872357d4dbcc6f760c01b6106b1565b610a7767daf0078898ff748360c01b6106b1565b6004805480602002602001604051908101604052809291908181526020018280548015610af957602002820191906000526020600020905b8160009054906101000a900473ffffffffffffffffffffffffffffffffffffffff1673ffffffffffffffffffffffffffffffffffffffff1681526020019060010190808311610aaf575b5050505050905090565b610b1767e4570ea4ad9a229c60c01b6106b1565b610b1f612d96565b610b33679f5bb60fdfe4465960c01b6106b1565b610b4767744b9a1c1c2e9dc960c01b6106b1565b610b5b6789c82eada1aea64a60c01b6106b1565b6000600181905550610b776768cd3fa0fb5aa26a60c01b6106b1565b610b8b6749819bd2f453c23f60c01b6106b1565b3373ffffffffffffffffffffffffffffffffffffffff166108fc6001549081150290604051600060405180830381858888f19350505050158015610bd3573d6000803e3d6000fd5b50565b610bea6767778dfb929474bd60c01b6106b1565b610bfe676c6fadb67482df2660c01b6106b1565b610c1267df69d9931aaf951160c01b6106b1565b6000610c2867b807884b85236eab60c01b6106b1565b610c3c670baaea66a283a1b460c01b6106b1565b60005b8251811015610e1b57610c5c6708f8195c63949aff60c01b6106b1565b610c706774c88a5354a4b93060c01b6106b1565b6060610c8667e560af635fa7a63160c01b6106b1565b610c9a67964824781215aafe60c01b6106b1565b60005b848381518110610cb057610caf61426b565b5b6020026020010151811015610d1f57610cd3673c6dc063572e25c660c01b6106b1565b878784818110610ce657610ce561426b565b5b90506020020135828281518110610d0057610cff61426b565b5b6020026020010181815250508080610d17906142c9565b915050610c9d565b50610d3467f7d388cc636d908460c01b6106b1565b610d48673e37af73d128456e60c01b6106b1565b6000888381518110610d5d57610d5c61426b565b5b602002602001015173ffffffffffffffffffffffffffffffffffffffff16634c4cbac483336040518363ffffffff1660e01b8152600401610d9f9291906143c0565b6020604051808303816000875af1158015610dbe573d6000803e3d6000fd5b505050506040513d601f19601f82011682018060405250810190610de291906143f0565b9050610df86736c4c9b23fc7f1e560c01b6106b1565b8084610e04919061441d565b935050508080610e13906142c9565b915050610c3f565b50610e30673b3b3b324250052160c01b6106b1565b610e4467903055499953e54560c01b6106b1565b600080610e5083612e14565b91509150610e686789f639f175c07c8a60c01b6106b1565b610e7c67ec529ceea34c34c760c01b6106b1565b610e8883838784612e87565b5050505050505050565b610ea66765a6eabdc411154f60c01b6106b1565b610eba67e748878686adae9d60c01b6106b1565b610ece67d23b6f319c32c82760c01b6106b1565b610ed781612f65565b610eeb677412143b9a02c99c60c01b6106b1565b610eff6770e184f156cf183260c01b6106b1565b600660008373ffffffffffffffffffffffffffffffffffffffff1673ffffffffffffffffffffffffffffffffffffffff168152602001908152602001600020819080600181540180825580915050600190039060005260206000200160009091909190916101000a81548173ffffffffffffffffffffffffffffffffffffffff021916908373ffffffffffffffffffffffffffffffffffffffff1602179055505050565b610fab612d96565b610fb56000612ffe565b565b60058181548110610fc757600080fd5b906000526020600020016000915054906101000a900473ffffffffffffffffffffffffffffffffffffffff1681565b61100a672cd2b0f978b9418c60c01b6106b1565b61101e6752c796b17ac11bb060c01b6106b1565b6110326791ee211ba485e4a860c01b6106b1565b60008473ffffffffffffffffffffffffffffffffffffffff16636386c1c7336040518263ffffffff1660e01b815260040161106d9190613c82565b60a0604051808303816000875af115801561108c573d6000803e3d6000fd5b505050506040513d601f19601f820116820180604052508101906110b091906144dd565b90506110c66722275839ea6d1e7160c01b6106b1565b6110da67ccfa3b8fd06aebae60c01b6106b1565b60008573ffffffffffffffffffffffffffffffffffffffff16636b469d39336040518263ffffffff1660e01b81526004016111159190613c82565b602060405180830381865afa158015611132573d6000803e3d6000fd5b505050506040513d601f19601f8201168201806040525081019061115691906143f0565b905061116c67641418b8bda1df6e60c01b6106b1565b61118067a0664ee4c479edea60c01b6106b1565b61118a33876130c2565b61119e6731f5b53dbfdad74860c01b6106b1565b6111b2678f5cff4b8c200a1260c01b6106b1565b8573ffffffffffffffffffffffffffffffffffffffff166350902c17868686336040518563ffffffff1660e01b81526004016111f19493929190614574565b600060405180830381600087803b15801561120b57600080fd5b505af115801561121f573d6000803e3d6000fd5b505050506112376754d9f3809c8bbc9660c01b6106b1565b61124b67507944f978e1334e60c01b6106b1565b8573ffffffffffffffffffffffffffffffffffffffff163373ffffffffffffffffffffffffffffffffffffffff167f38509f732bb9449e12686234757304da4b853110ebc8ece9a12bba31a4fcb91b8686898760400151876040516112b49594939291906145b4565b60405180910390a3505050505050565b60015481565b6112de67ad070c74fa9c491160c01b6106b1565b6112e6612d96565b6112fa673244a65905c4550d60c01b6106b1565b61130e6705263303aa4aac1860c01b6106b1565b611322671e1f9201b68b837360c01b6106b1565b611336676903f6ca51f2558060c01b6106b1565b600115158115150361145157611356679c636c3c40c659ba60c01b6106b1565b61136a6730cc97de52cfdfef60c01b6106b1565b61137e67cf218f9059ae3d1660c01b6106b1565b6004829080600181540180825580915050600190039060005260206000200160009091909190916101000a81548173ffffffffffffffffffffffffffffffffffffffff021916908373ffffffffffffffffffffffffffffffffffffffff1602179055506113f56786e129b0cec3e55a60c01b6106b1565b80600960008473ffffffffffffffffffffffffffffffffffffffff1673ffffffffffffffffffffffffffffffffffffffff16815260200190815260200160002060006101000a81548160ff021916908315150217905550611550565b611465677b580befaa33bcb960c01b6106b1565b61147967cf835290aafe154660c01b6106b1565b600015158115150361153a5761149967fc532e9fe56616ff60c01b6106b1565b6114ad6724a703db4c3454af60c01b6106b1565b6114c167213e53eac9ed496d60c01b6106b1565b6114ca8261314a565b6114de6762fa40ec71e0642b60c01b6106b1565b80600960008473ffffffffffffffffffffffffffffffffffffffff1673ffffffffffffffffffffffffffffffffffffffff16815260200190815260200160002060006101000a81548160ff02191690831515021790555061154f565b61154e670a47d1a6e131bcf660c01b6106b1565b5b5b5050565b60008060009054906101000a900473ffffffffffffffffffffffffffffffffffffffff16905090565b6115916731c430c7163fcd4f60c01b6106b1565b6115a567be6a2d5c72345b4860c01b6106b1565b6115b967d55ad944c3c7175860c01b6106b1565b600860003373ffffffffffffffffffffffffffffffffffffffff1673ffffffffffffffffffffffffffffffffffffffff168152602001908152602001600020839080600181540180825580915050600190039060005260206000200160009091909190916101000a81548173ffffffffffffffffffffffffffffffffffffffff021916908373ffffffffffffffffffffffffffffffffffffffff16021790555061166d670f46a913fd0fccb860c01b6106b1565b61168167e597fed41298e85f60c01b6106b1565b8273ffffffffffffffffffffffffffffffffffffffff16632f7e0b2e8383336040518463ffffffff1660e01b81526004016116be93929190614602565b600060405180830381600087803b1580156116d857600080fd5b505af11580156116ec573d6000803e3d6000fd5b5050505061170467dd1037518215c34e60c01b6106b1565b61171867294f27fa83db7cbd60c01b6106b1565b8273ffffffffffffffffffffffffffffffffffffffff163373ffffffffffffffffffffffffffffffffffffffff167f285e2df175d03ce53bf542c949e8a0add3b654d3911402bbb71e9bb46c82dad584849050858560405161177c93929190614634565b60405180910390a3505050565b61179d67df59d3cbf5f7e31d60c01b6106b1565b6117b1679a6f78fa5fe275d660c01b6106b1565b6117c56785f2e4e66f77adcc60c01b6106b1565b60008373ffffffffffffffffffffffffffffffffffffffff16636386c1c7336040518263ffffffff1660e01b81526004016118009190613c82565b60a0604051808303816000875af115801561181f573d6000803e3d6000fd5b505050506040513d601f19601f8201168201806040525081019061184391906144dd565b905061185967771e58cf96df66fb60c01b6106b1565b61186d6798de82beb1c959d360c01b6106b1565b60008473ffffffffffffffffffffffffffffffffffffffff1663cb6f0d34336040518263ffffffff1660e01b81526004016118a89190613c82565b602060405180830381865afa1580156118c5573d6000803e3d6000fd5b505050506040513d601f19601f820116820180604052508101906118e991906143f0565b90506118ff67c2e9cf37bebbb56b60c01b6106b1565b611913679b746af31984e84060c01b6106b1565b61191d33866130c2565b6119316713c99ef61e3bb67260c01b6106b1565b6119456705c7c76de5da801a60c01b6106b1565b8473ffffffffffffffffffffffffffffffffffffffff16632c7e49158585336040518463ffffffff1660e01b815260040161198293929190614602565b600060405180830381600087803b15801561199c57600080fd5b505af11580156119b0573d6000803e3d6000fd5b505050506119c867e1cc8cc17f69b43e60c01b6106b1565b6119dc670975ab07e724dd4a60c01b6106b1565b8473ffffffffffffffffffffffffffffffffffffffff163373ffffffffffffffffffffffffffffffffffffffff167f758b8b45d172370c222fe8b7156d4c6f1367f8676604a31e2ac73311b192b1e68686866000015186604051611a439493929190614666565b60405180910390a35050505050565b60048181548110611a6257600080fd5b906000526020600020016000915054906101000a900473ffffffffffffffffffffffffffffffffffffffff1681565b6000611aa767c15f4c2545bc01d260c01b6106b1565b611abb6729c62ec40b27982d60c01b6106b1565b611acf67db0acca62aae153260c01b6106b1565b600960008373ffffffffffffffffffffffffffffffffffffffff1673ffffffffffffffffffffffffffffffffffffffff16815260200190815260200160002060009054906101000a900460ff169050919050565b611b3767fd5dfe63bbe6c7cb60c01b6106b1565b611b4b67e73cdf2e97f4cf2060c01b6106b1565b611b5f674205337b79e5cc0460c01b6106b1565b60008273ffffffffffffffffffffffffffffffffffffffff166360246c886040518163ffffffff1660e01b815260040160c0604051808303816000875af1158015611bae573d6000803e3d6000fd5b505050506040513d601f19601f82011682018060405250810190611bd291906141c1565b9050611be867ff2a3ae8b73d90b660c01b6106b1565b611bfc67af6930cb3dc81db060c01b6106b1565b60008373ffffffffffffffffffffffffffffffffffffffff16637b6880ca6040518163ffffffff1660e01b81526004016020604051808303816000875af1158015611c4b573d6000803e3d6000fd5b505050506040513d601f19601f82011682018060405250810190611c6f91906146a6565b9050611c85673b8ead7cea1ee4cc60c01b6106b1565b611c9967e24d10f1c6df964e60c01b6106b1565b60008473ffffffffffffffffffffffffffffffffffffffff1663341d15fd858486606001516040518463ffffffff1660e01b8152600401611cdc939291906146e2565b602060405180830381865afa158015611cf9573d6000803e3d6000fd5b505050506040513d601f19601f82011682018060405250810190611d1d91906143f0565b9050611d3367cae28ee596adece960c01b6106b1565b611d4767eb892695baf4c64b60c01b6106b1565b600860003373ffffffffffffffffffffffffffffffffffffffff1673ffffffffffffffffffffffffffffffffffffffff168152602001908152602001600020859080600181540180825580915050600190039060005260206000200160009091909190916101000a81548173ffffffffffffffffffffffffffffffffffffffff021916908373ffffffffffffffffffffffffffffffffffffffff160217905550611dfb6770a0a42f0bb1cca160c01b6106b1565b611e0f678909e1936d38882460c01b6106b1565b8473ffffffffffffffffffffffffffffffffffffffff1663a09bf8c23486336040518463ffffffff1660e01b8152600401611e4b929190614719565b6000604051808303818588803b158015611e6457600080fd5b505af1158015611e78573d6000803e3d6000fd5b5050505050611e9167a0f9650e9eee5e9860c01b6106b1565b611ea56785de7cbb0245887660c01b6106b1565b8473ffffffffffffffffffffffffffffffffffffffff163373ffffffffffffffffffffffffffffffffffffffff167f39feb2a23d1a328f05ec9c6c1814935f849cc7d514d36093ee78f6083b6a39bc8684604051611f04929190614742565b60405180910390a35050505050565b60035481565b611f2d67c27e2200473800e760c01b6106b1565b611f4167e84e1dddfbe3e96f60c01b6106b1565b611f5567578aa97fe9e0072960c01b6106b1565b60008473ffffffffffffffffffffffffffffffffffffffff166360246c886040518163ffffffff1660e01b815260040160c0604051808303816000875af1158015611fa4573d6000803e3d6000fd5b505050506040513d601f19601f82011682018060405250810190611fc891906141c1565b9050611fde674203f8defdf8e13360c01b6106b1565b611ff2674e6de4b66e11f49960c01b6106b1565b60008573ffffffffffffffffffffffffffffffffffffffff16635315383686869050846020015185606001516040518463ffffffff1660e01b815260040161203c939291906146e2565b602060405180830381865afa158015612059573d6000803e3d6000fd5b505050506040513d601f19601f8201168201806040525081019061207d91906143f0565b905061209367c653151c8e711e8060c01b6106b1565b6120a76734089b527901666360c01b6106b1565b60008673ffffffffffffffffffffffffffffffffffffffff16634c4cbac4348888336040518563ffffffff1660e01b81526004016120e793929190614602565b60206040518083038185885af1158015612105573d6000803e3d6000fd5b50505050506040513d601f19601f8201168201806040525081019061212a91906143f0565b90506121406764b7808eef33e5b060c01b6106b1565b6121546713b8d23e0ebd450d60c01b6106b1565b60008061216083612e14565b915091506121786716064ba5ec37b59260c01b6106b1565b61218c67b906857a6d3a8d3a60c01b6106b1565b61219883838884612e87565b6121ac67c0559f5d3e4cbf0460c01b6106b1565b6121c067fc2ebdfa29dc22d960c01b6106b1565b8873ffffffffffffffffffffffffffffffffffffffff163373ffffffffffffffffffffffffffffffffffffffff167f2611defd53a4a87419d2078554db30aeaddd9ddfdc5990da2bbdc8d589f5e4d68a8a888b604051612223949392919061476b565b60405180910390a3505050505050505050565b61224a670872588ece86d5e260c01b6106b1565b61225e678eb057b212e795f260c01b6106b1565b6122726786d4a83d1088950e60c01b6106b1565b6000612288674b32c4467fed796b60c01b6106b1565b61229c67671489c8ce8e316260c01b6106b1565b60005b8251811015612496576122bc671198d460418dad9060c01b6106b1565b6122d0677857349da8d33b5260c01b6106b1565b60606122e667b8feee0e4238773260c01b6106b1565b6122fa67188ca44ebb37e70e60c01b6106b1565b60005b8483815181106123105761230f61426b565b5b602002602001015181101561237f576123336713dbb7c73b0f7e6160c01b6106b1565b8989848181106123465761234561426b565b5b905060200201358282815181106123605761235f61426b565b5b6020026020010181815250508080612377906142c9565b9150506122fd565b50612394678e5593b30749a2ad60c01b6106b1565b6123a8675d309f08c43cd25960c01b6106b1565b60008a83815181106123bd576123bc61426b565b5b602002602001015173ffffffffffffffffffffffffffffffffffffffff1663244117b4838a8a878181106123f4576123f361426b565b5b90506020020135336040518463ffffffff1660e01b815260040161241a939291906147ab565b6020604051808303816000875af1158015612439573d6000803e3d6000fd5b505050506040513d601f19601f8201168201806040525081019061245d91906143f0565b905061247367a5ec2390b41f1e3260c01b6106b1565b808461247f919061441d565b93505050808061248e906142c9565b91505061229f565b506124ab67d80706d9bdd4bf5760c01b6106b1565b6124bf672d8cb0583e05a4be60c01b6106b1565b6000806124cb83612e14565b915091506124e36732e12eb08c9d90f960c01b6106b1565b6124f76780ffed743a0aa69060c01b6106b1565b61250383838784612e87565b50505050505050505050565b6125236733f2c544ad4902ba60c01b6106b1565b612537677c457ea150fd38d260c01b6106b1565b61254b670fe8726911c221ad60c01b6106b1565b60008573ffffffffffffffffffffffffffffffffffffffff166360246c886040518163ffffffff1660e01b815260040160c0604051808303816000875af115801561259a573d6000803e3d6000fd5b505050506040513d601f19601f820116820180604052508101906125be91906141c1565b90506125d4673df3893a3079673260c01b6106b1565b6125e867557c03ecca1beac460c01b6106b1565b60008673ffffffffffffffffffffffffffffffffffffffff1663341d15fd87879050846020015185606001516040518463ffffffff1660e01b8152600401612632939291906146e2565b602060405180830381865afa15801561264f573d6000803e3d6000fd5b505050506040513d601f19601f8201168201806040525081019061267391906143f0565b905061268967e1de62306a4eeceb60c01b6106b1565b61269d679e5afcfa9557975f60c01b6106b1565b60008773ffffffffffffffffffffffffffffffffffffffff1663244117b4888888336040518563ffffffff1660e01b81526004016126de949392919061476b565b6020604051808303816000875af11580156126fd573d6000803e3d6000fd5b505050506040513d601f19601f8201168201806040525081019061272191906143f0565b905061273767c3e5e93d22251f2360c01b6106b1565b61274b679a86242bcd42381e60c01b6106b1565b60008061275783612e14565b9150915061276f67c17da0b63002959e60c01b6106b1565b61278367c282ef5634e2cb1160c01b6106b1565b61278f83838884612e87565b6127a367cdbea5c4766af5ca60c01b6106b1565b6127b767bad18a6a3dd77f4460c01b6106b1565b8973ffffffffffffffffffffffffffffffffffffffff163373ffffffffffffffffffffffffffffffffffffffff167f8f3673bd023cc34f252b9e7d0a0dd6496592b87006673a974d1d621b5a93e15e8b8b888b60405161281a949392919061476b565b60405180910390a350505050505050505050565b606061284467ee3ab33b15fb496760c01b6106b1565b6128586724542033f18b63ff60c01b6106b1565b61286c674981cac080c58e1e60c01b6106b1565b600660008373ffffffffffffffffffffffffffffffffffffffff1673ffffffffffffffffffffffffffffffffffffffff16815260200190815260200160002080548060200260200160405190810160405280929190818152602001828054801561292b57602002820191906000526020600020905b8160009054906101000a900473ffffffffffffffffffffffffffffffffffffffff1673ffffffffffffffffffffffffffffffffffffffff16815260200190600101908083116128e1575b50505050509050919050565b61293f6135c8565b61295367af5cd975c7455d8060c01b6106b1565b6129676774ddf167aa75ca7a60c01b6106b1565b61297b6722d392a6bec2b9fd60c01b6106b1565b8273ffffffffffffffffffffffffffffffffffffffff16636386c1c7836040518263ffffffff1660e01b81526004016129b49190613c82565b60a0604051808303816000875af11580156129d3573d6000803e3d6000fd5b505050506040513d601f19601f820116820180604052508101906129f791906144dd565b905092915050565b612a07612d96565b600073ffffffffffffffffffffffffffffffffffffffff168173ffffffffffffffffffffffffffffffffffffffff1603612a76576040517f08c379a0000000000000000000000000000000000000000000000000000000008152600401612a6d9061485b565b60405180910390fd5b612a7f81612ffe565b50565b6000612a98676d6135c47c038edf60c01b6106b1565b612aac6740e1cb150015622b60c01b6106b1565b612ac067f7d912e0bdd95cf060c01b6106b1565b600760008373ffffffffffffffffffffffffffffffffffffffff1673ffffffffffffffffffffffffffffffffffffffff16815260200190815260200160002060009054906101000a900460ff169050919050565b612b2867f3c0fcbc1ee1dff160c01b6106b1565b612b30612d96565b612b446711916a6ae63f253e60c01b6106b1565b612b5867fdc191b987514e2160c01b6106b1565b612b6c67dc494a872358763560c01b6106b1565b612b8067558852c9796ddbca60c01b6106b1565b6001151581151503612c9b57612ba06752d1960bcb6c169760c01b6106b1565b612bb46787da8d7540d9d30260c01b6106b1565b612bc8673a2fd8bed74ffb2660c01b6106b1565b6005829080600181540180825580915050600190039060005260206000200160009091909190916101000a81548173ffffffffffffffffffffffffffffffffffffffff021916908373ffffffffffffffffffffffffffffffffffffffff160217905550612c3f67b422a52665e5e6c760c01b6106b1565b80600760008473ffffffffffffffffffffffffffffffffffffffff1673ffffffffffffffffffffffffffffffffffffffff16815260200190815260200160002060006101000a81548160ff021916908315150217905550612d92565b612caf670db43da8cea96b4860c01b6106b1565b612cc3676864a4295d6fe37660c01b6106b1565b6000151581151503612d7c57612ce367feb9a083b694082f60c01b6106b1565b612cf767c60d7a3bd84d3d3a60c01b6106b1565b612d0b67dd17ea0e04a1794460c01b6106b1565b612d1482613194565b612d28673ec1669f620712af60c01b6106b1565b801515600760008473ffffffffffffffffffffffffffffffffffffffff1673ffffffffffffffffffffffffffffffffffffffff16815260200190815260200160002060009054906101000a90505050612d91565b612d90679bef4db15d1fc9fc60c01b6106b1565b5b5b5050565b612d9e6131de565b73ffffffffffffffffffffffffffffffffffffffff16612dbc611554565b73ffffffffffffffffffffffffffffffffffffffff1614612e12576040517f08c379a0000000000000000000000000000000000000000000000000000000008152600401612e09906148c7565b60405180910390fd5b565b600080612e2b676eed70b21e90d3dc60c01b6106b1565b612e3f6717cb15493730342560c01b6106b1565b612e5e600354670de0b6b3a7640000856131e69092919063ffffffff16565b9050612e7467c9e278bd815b296d60c01b6106b1565b8083612e8091906148e7565b9150915091565b612e9b67e2d75ed4b28ac24a60c01b6106b1565b612eaf674b50b7ba9b58b48060c01b6106b1565b8360026000828254612ec1919061441d565b92505081905550612edc6779b83945fd7945c160c01b6106b1565b8260016000828254612eee919061441d565b92505081905550612f0967203aa4155e5cb26d60c01b6106b1565b80600a60008473ffffffffffffffffffffffffffffffffffffffff1673ffffffffffffffffffffffffffffffffffffffff1681526020019081526020016000206000828254612f58919061441d565b9250508190555050505050565b612ffb81604051602401612f799190613c82565b6040516020818303038152906040527f2c2ecbc2000000000000000000000000000000000000000000000000000000007bffffffffffffffffffffffffffffffffffffffffffffffffffffffff19166020820180517bffffffffffffffffffffffffffffffffffffffffffffffffffffffff8381831617835250505050613232565b50565b60008060009054906101000a900473ffffffffffffffffffffffffffffffffffffffff169050816000806101000a81548173ffffffffffffffffffffffffffffffffffffffff021916908373ffffffffffffffffffffffffffffffffffffffff1602179055508173ffffffffffffffffffffffffffffffffffffffff168173ffffffffffffffffffffffffffffffffffffffff167f8be0079c531659141344cd1fd0a4f28419497f9722a3daafe3b4186f6b6457e060405160405180910390a35050565b6130d66774f79fcb5b0e646f60c01b6106b1565b6130ea6797b2441474947ca360c01b6106b1565b6130fe6759ebd8cd43999fdc60c01b6106b1565b613146600860008473ffffffffffffffffffffffffffffffffffffffff1673ffffffffffffffffffffffffffffffffffffffff1681526020019081526020016000208261325b565b5050565b61315e6729a059b0f774e67a60c01b6106b1565b613172677a1a86d6a949ad2b60c01b6106b1565b61318667e460ce2414c99d0e60c01b6106b1565b61319160048261325b565b50565b6131a867cbfd853e4f4631bb60c01b6106b1565b6131bc679237d85055d5a64a60c01b6106b1565b6131d06746e024cf49e71bdd60c01b6106b1565b6131db60058261325b565b50565b600033905090565b60006131fc677dc7cdfa1c8f086360c01b613555565b613210673cbda75c9d7a92a660c01b613555565b8284029050828482041484151761322657600080fd5b81810490509392505050565b60008151905060006a636f6e736f6c652e6c6f679050602083016000808483855afa5050505050565b61326f6738ef73ca00a0b58660c01b6106b1565b613283670eefe9ef22e0195660c01b6106b1565b61329767de5ef3eb15d1842e60c01b6106b1565b6000828054905090506132b4674d0174395773a84b60c01b6106b1565b6132c8677e0f5dda53d381d060c01b6106b1565b60005b8181101561354f576132e7675cd22474b28e90d560c01b6106b1565b6132fb67a145ba62f9465d5560c01b6106b1565b8273ffffffffffffffffffffffffffffffffffffffff168482815481106133255761332461426b565b5b9060005260206000200160009054906101000a900473ffffffffffffffffffffffffffffffffffffffff1673ffffffffffffffffffffffffffffffffffffffff16036135285761337f67bf3550429260704c60c01b6106b1565b6133936770e07f7fafda855160c01b6106b1565b6133a767e4552be754044be760c01b6106b1565b6001826133b491906148e7565b811461348c576133ce67ad4c662e34f68d2e60c01b6106b1565b6133e267936087fb093bcb7960c01b6106b1565b836001836133f091906148e7565b815481106134015761340061426b565b5b9060005260206000200160009054906101000a900473ffffffffffffffffffffffffffffffffffffffff1684828154811061343f5761343e61426b565b5b9060005260206000200160006101000a81548173ffffffffffffffffffffffffffffffffffffffff021916908373ffffffffffffffffffffffffffffffffffffffff1602179055506134a1565b6134a067b1a03ab7e696958660c01b6106b1565b5b6134b567f6a47cad65a7632a60c01b6106b1565b6134c96706bf98d20540509f60c01b6106b1565b838054806134da576134d961491b565b5b6001900381819060005260206000200160006101000a81549073ffffffffffffffffffffffffffffffffffffffff0219169055905561352367b3539679bbda591260c01b6106b1565b61354f565b61353c67dc8f4767a918746c60c01b6106b1565b8080613547906142c9565b9150506132cb565b50505050565b50565b6040518060c00160405280600073ffffffffffffffffffffffffffffffffffffffff16815260200160006fffffffffffffffffffffffffffffffff16815260200160006fffffffffffffffffffffffffffffffff1681526020016000815260200160008152602001600081525090565b6040518060a0016040528060008152602001600081526020016000815260200160008152602001600081525090565b600073ffffffffffffffffffffffffffffffffffffffff82169050919050565b6000613622826135f7565b9050919050565b61363281613617565b82525050565b6000819050919050565b61364b81613638565b82525050565b60006040820190506136666000830185613629565b6136736020830184613642565b9392505050565b6000604051905090565b600080fd5b600080fd5b61369781613617565b81146136a257600080fd5b50565b6000813590506136b48161368e565b92915050565b6000602082840312156136d0576136cf613684565b5b60006136de848285016136a5565b91505092915050565b6136f081613617565b82525050565b60006fffffffffffffffffffffffffffffffff82169050919050565b61371b816136f6565b82525050565b61372a81613638565b82525050565b60c08201600082015161374660008501826136e7565b5060208201516137596020850182613712565b50604082015161376c6040850182613712565b50606082015161377f6060850182613721565b5060808201516137926080850182613721565b5060a08201516137a560a0850182613721565b50505050565b600060c0820190506137c06000830184613730565b92915050565b60006020820190506137db6000830184613642565b92915050565b600081519050919050565b600082825260208201905092915050565b6000819050602082019050919050565b600061381983836136e7565b60208301905092915050565b6000602082019050919050565b600061383d826137e1565b61384781856137ec565b9350613852836137fd565b8060005b8381101561388357815161386a888261380d565b975061387583613825565b925050600181019050613856565b5085935050505092915050565b600060208201905081810360008301526138aa8184613832565b905092915050565b600080fd5b6000601f19601f8301169050919050565b7f4e487b7100000000000000000000000000000000000000000000000000000000600052604160045260246000fd5b613900826138b7565b810181811067ffffffffffffffff8211171561391f5761391e6138c8565b5b80604052505050565b600061393261367a565b905061393e82826138f7565b919050565b600067ffffffffffffffff82111561395e5761395d6138c8565b5b602082029050602081019050919050565b600080fd5b600061398761398284613943565b613928565b905080838252602082019050602084028301858111156139aa576139a961396f565b5b835b818110156139d357806139bf88826136a5565b8452602084019350506020810190506139ac565b5050509392505050565b600082601f8301126139f2576139f16138b2565b5b8135613a02848260208601613974565b91505092915050565b600080fd5b60008083601f840112613a2657613a256138b2565b5b8235905067ffffffffffffffff811115613a4357613a42613a0b565b5b602083019150836020820283011115613a5f57613a5e61396f565b5b9250929050565b600067ffffffffffffffff821115613a8157613a806138c8565b5b602082029050602081019050919050565b613a9b81613638565b8114613aa657600080fd5b50565b600081359050613ab881613a92565b92915050565b6000613ad1613acc84613a66565b613928565b90508083825260208201905060208402830185811115613af457613af361396f565b5b835b81811015613b1d5780613b098882613aa9565b845260208401935050602081019050613af6565b5050509392505050565b600082601f830112613b3c57613b3b6138b2565b5b8135613b4c848260208601613abe565b91505092915050565b600080600080600060808688031215613b7157613b70613684565b5b600086013567ffffffffffffffff811115613b8f57613b8e613689565b5b613b9b888289016139dd565b955050602086013567ffffffffffffffff811115613bbc57613bbb613689565b5b613bc888828901613a10565b94509450506040613bdb888289016136a5565b925050606086013567ffffffffffffffff811115613bfc57613bfb613689565b5b613c0888828901613b27565b9150509295509295909350565b60008060408385031215613c2c57613c2b613684565b5b6000613c3a858286016136a5565b9250506020613c4b858286016136a5565b9150509250929050565b600060208284031215613c6b57613c6a613684565b5b6000613c7984828501613aa9565b91505092915050565b6000602082019050613c976000830184613629565b92915050565b60008060008060608587031215613cb757613cb6613684565b5b6000613cc5878288016136a5565b9450506020613cd687828801613aa9565b935050604085013567ffffffffffffffff811115613cf757613cf6613689565b5b613d0387828801613a10565b925092505092959194509250565b60008115159050919050565b613d2681613d11565b8114613d3157600080fd5b50565b600081359050613d4381613d1d565b92915050565b60008060408385031215613d6057613d5f613684565b5b6000613d6e858286016136a5565b9250506020613d7f85828601613d34565b9150509250929050565b600080600060408486031215613da257613da1613684565b5b6000613db0868287016136a5565b935050602084013567ffffffffffffffff811115613dd157613dd0613689565b5b613ddd86828701613a10565b92509250509250925092565b613df281613d11565b82525050565b6000602082019050613e0d6000830184613de9565b92915050565b60008060408385031215613e2a57613e29613684565b5b6000613e38858286016136a5565b9250506020613e4985828601613aa9565b9150509250929050565b60008060008060608587031215613e6d57613e6c613684565b5b6000613e7b878288016136a5565b945050602085013567ffffffffffffffff811115613e9c57613e9b613689565b5b613ea887828801613a10565b93509350506040613ebb878288016136a5565b91505092959194509250565b600080600080600080600060a0888a031215613ee657613ee5613684565b5b600088013567ffffffffffffffff811115613f0457613f03613689565b5b613f108a828b016139dd565b975050602088013567ffffffffffffffff811115613f3157613f30613689565b5b613f3d8a828b01613a10565b9650965050604088013567ffffffffffffffff811115613f6057613f5f613689565b5b613f6c8a828b01613a10565b94509450506060613f7f8a828b016136a5565b925050608088013567ffffffffffffffff811115613fa057613f9f613689565b5b613fac8a828b01613b27565b91505092959891949750929550565b600080600080600060808688031215613fd757613fd6613684565b5b6000613fe5888289016136a5565b955050602086013567ffffffffffffffff81111561400657614005613689565b5b61401288828901613a10565b9450945050604061402588828901613aa9565b9250506060614036888289016136a5565b9150509295509295909350565b60a0820160008201516140596000850182613721565b50602082015161406c6020850182613721565b50604082015161407f6040850182613721565b5060608201516140926060850182613721565b5060808201516140a56080850182613721565b50505050565b600060a0820190506140c06000830184614043565b92915050565b600080fd5b6000815190506140da8161368e565b92915050565b6140e9816136f6565b81146140f457600080fd5b50565b600081519050614106816140e0565b92915050565b60008151905061411b81613a92565b92915050565b600060c08284031215614137576141366140c6565b5b61414160c0613928565b90506000614151848285016140cb565b6000830152506020614165848285016140f7565b6020830152506040614179848285016140f7565b604083015250606061418d8482850161410c565b60608301525060806141a18482850161410c565b60808301525060a06141b58482850161410c565b60a08301525092915050565b600060c082840312156141d7576141d6613684565b5b60006141e584828501614121565b91505092915050565b600082825260208201905092915050565b7f596f7520646f6e2774206861766520737570706f7274657220617070726f7665600082015250565b60006142356020836141ee565b9150614240826141ff565b602082019050919050565b6000602082019050818103600083015261426481614228565b9050919050565b7f4e487b7100000000000000000000000000000000000000000000000000000000600052603260045260246000fd5b7f4e487b7100000000000000000000000000000000000000000000000000000000600052601160045260246000fd5b60006142d482613638565b91507fffffffffffffffffffffffffffffffffffffffffffffffffffffffffffffffff82036143065761430561429a565b5b600182019050919050565b600081519050919050565b600082825260208201905092915050565b6000819050602082019050919050565b60006143498383613721565b60208301905092915050565b6000602082019050919050565b600061436d82614311565b614377818561431c565b93506143828361432d565b8060005b838110156143b357815161439a888261433d565b97506143a583614355565b925050600181019050614386565b5085935050505092915050565b600060408201905081810360008301526143da8185614362565b90506143e96020830184613629565b9392505050565b60006020828403121561440657614405613684565b5b60006144148482850161410c565b91505092915050565b600061442882613638565b915061443383613638565b925082820190508082111561444b5761444a61429a565b5b92915050565b600060a08284031215614467576144666140c6565b5b61447160a0613928565b905060006144818482850161410c565b60008301525060206144958482850161410c565b60208301525060406144a98482850161410c565b60408301525060606144bd8482850161410c565b60608301525060806144d18482850161410c565b60808301525092915050565b600060a082840312156144f3576144f2613684565b5b600061450184828501614451565b91505092915050565b600080fd5b82818337505050565b6000614524838561431c565b93507f07ffffffffffffffffffffffffffffffffffffffffffffffffffffffffffffff8311156145575761455661450a565b5b60208302925061456883858461450f565b82840190509392505050565b60006060820190506145896000830187613642565b818103602083015261459c818587614518565b90506145ab6040830184613629565b95945050505050565b600060808201905081810360008301526145cf818789614518565b90506145de6020830186613642565b6145eb6040830185613642565b6145f86060830184613642565b9695505050505050565b6000604082019050818103600083015261461d818587614518565b905061462c6020830184613629565b949350505050565b60006040820190506146496000830186613642565b818103602083015261465c818486614518565b9050949350505050565b60006060820190508181036000830152614681818688614518565b90506146906020830185613642565b61469d6040830184613642565b95945050505050565b6000602082840312156146bc576146bb613684565b5b60006146ca848285016140f7565b91505092915050565b6146dc816136f6565b82525050565b60006060820190506146f76000830186613642565b61470460208301856146d3565b6147116040830184613642565b949350505050565b600060408201905061472e6000830185613642565b61473b6020830184613629565b9392505050565b60006040820190506147576000830185613642565b6147646020830184613642565b9392505050565b60006060820190508181036000830152614786818688614518565b90506147956020830185613642565b6147a26040830184613629565b95945050505050565b600060608201905081810360008301526147c58186614362565b90506147d46020830185613642565b6147e16040830184613629565b949350505050565b7f4f776e61626c653a206e6577206f776e657220697320746865207a65726f206160008201527f6464726573730000000000000000000000000000000000000000000000000000602082015250565b60006148456026836141ee565b9150614850826147e9565b604082019050919050565b6000602082019050818103600083015261487481614838565b9050919050565b7f4f776e61626c653a2063616c6c6572206973206e6f7420746865206f776e6572600082015250565b60006148b16020836141ee565b91506148bc8261487b565b602082019050919050565b600060208201905081810360008301526148e0816148a4565b9050919050565b60006148f282613638565b91506148fd83613638565b92508282039050818111156149155761491461429a565b5b92915050565b7f4e487b7100000000000000000000000000000000000000000000000000000000600052603160045260246000fdfea26469706673582212201f2975ec7b2095567640426b2db60c9a93635e2c7a4eb27c829105a29938e85864736f6c63430008100033",
  "linkReferences": {},
  "deployedLinkReferences": {}
}