{
  "_format": "hh-sol-artifact-1",
  "contractName": "Router",
  "sourceName": "contracts/Router.sol",
  "abi": [
    {
      "anonymous": false,
      "inputs": [
        {
          "indexed": true,
          "internalType": "address",
          "name": "previousOwner",
          "type": "address"
        },
        {
          "indexed": true,
          "internalType": "address",
          "name": "newOwner",
          "type": "address"
        }
      ],
      "name": "OwnershipTransferred",
      "type": "event"
    },
    {
      "anonymous": false,
      "inputs": [
        {
          "indexed": false,
          "internalType": "address",
          "name": "",
          "type": "address"
        },
        {
          "indexed": false,
          "internalType": "uint256",
          "name": "",
          "type": "uint256"
        }
      ],
      "name": "Received",
      "type": "event"
    },
    {
      "anonymous": false,
      "inputs": [
        {
          "indexed": true,
          "internalType": "address",
          "name": "user",
          "type": "address"
        },
        {
          "indexed": true,
          "internalType": "address",
          "name": "pool",
          "type": "address"
        },
        {
          "indexed": false,
          "internalType": "uint256",
          "name": "userNum",
          "type": "uint256"
        },
        {
          "indexed": false,
          "internalType": "uint256[]",
          "name": "tokenIds",
          "type": "uint256[]"
        }
      ],
      "name": "StakeNFT",
      "type": "event"
    },
    {
      "anonymous": false,
      "inputs": [
        {
          "indexed": true,
          "internalType": "address",
          "name": "user",
          "type": "address"
        },
        {
          "indexed": true,
          "internalType": "address",
          "name": "pool",
          "type": "address"
        },
        {
          "indexed": false,
          "internalType": "uint256[]",
          "name": "tokenIds",
          "type": "uint256[]"
        },
        {
          "indexed": false,
          "internalType": "uint256",
          "name": "totalFee",
          "type": "uint256"
        },
        {
          "indexed": false,
          "internalType": "address",
          "name": "support",
          "type": "address"
        }
      ],
      "name": "SwapFTforNFT",
      "type": "event"
    },
    {
      "anonymous": false,
      "inputs": [
        {
          "indexed": true,
          "internalType": "address",
          "name": "user",
          "type": "address"
        },
        {
          "indexed": true,
          "internalType": "address",
          "name": "pool",
          "type": "address"
        },
        {
          "indexed": false,
          "internalType": "uint256[]",
          "name": "tokenIds",
          "type": "uint256[]"
        },
        {
          "indexed": false,
          "internalType": "uint256",
          "name": "totalFee",
          "type": "uint256"
        },
        {
          "indexed": false,
          "internalType": "address",
          "name": "support",
          "type": "address"
        }
      ],
      "name": "SwapNFTforFT",
      "type": "event"
    },
    {
      "anonymous": false,
      "inputs": [
        {
          "indexed": true,
          "internalType": "address",
          "name": "user",
          "type": "address"
        },
        {
          "indexed": true,
          "internalType": "address",
          "name": "pool",
          "type": "address"
        },
        {
          "indexed": false,
          "internalType": "uint256[]",
          "name": "tokenIds",
          "type": "uint256[]"
        },
        {
          "indexed": false,
          "internalType": "uint256",
          "name": "userFee",
          "type": "uint256"
        }
      ],
      "name": "WithdrawNFT",
      "type": "event"
    },
    {
      "inputs": [
        {
          "internalType": "address",
          "name": "_pool",
          "type": "address"
        }
      ],
      "name": "addNonOtherStakePool",
      "outputs": [],
      "stateMutability": "nonpayable",
      "type": "function"
    },
    {
      "inputs": [
        {
          "internalType": "address",
          "name": "_pool",
          "type": "address"
        }
      ],
      "name": "addOtherStakePool",
      "outputs": [],
      "stateMutability": "nonpayable",
      "type": "function"
    },
    {
      "inputs": [
        {
          "internalType": "address[]",
          "name": "_poolList",
          "type": "address[]"
        },
        {
          "components": [
            {
              "internalType": "uint256[]",
              "name": "tokenIds",
              "type": "uint256[]"
            }
          ],
          "internalType": "struct Router.input[]",
          "name": "InputArray",
          "type": "tuple[]"
        }
      ],
      "name": "batchStakeNFT",
      "outputs": [],
      "stateMutability": "nonpayable",
      "type": "function"
    },
    {
      "inputs": [
        {
          "internalType": "address[]",
          "name": "_poolList",
          "type": "address[]"
        },
        {
          "components": [
            {
              "internalType": "uint256[]",
              "name": "tokenIds",
              "type": "uint256[]"
            }
          ],
          "internalType": "struct Router.input[]",
          "name": "InputArray",
          "type": "tuple[]"
        },
        {
          "internalType": "address",
          "name": "_supporter",
          "type": "address"
        }
      ],
      "name": "batchSwapFTforNFT",
      "outputs": [],
      "stateMutability": "payable",
      "type": "function"
    },
    {
      "inputs": [
        {
          "internalType": "address[]",
          "name": "_poolList",
          "type": "address[]"
        },
        {
          "components": [
            {
              "internalType": "uint256[]",
              "name": "tokenIds",
              "type": "uint256[]"
            }
          ],
          "internalType": "struct Router.input[]",
          "name": "InputArray",
          "type": "tuple[]"
        },
        {
          "internalType": "uint256[]",
          "name": "_minExpects",
          "type": "uint256[]"
        },
        {
          "internalType": "address",
          "name": "_supporter",
          "type": "address"
        }
      ],
      "name": "batchSwapNFTforFT",
      "outputs": [],
      "stateMutability": "payable",
      "type": "function"
    },
    {
      "inputs": [
        {
          "internalType": "uint256",
          "name": "",
          "type": "uint256"
        }
      ],
      "name": "collectionList",
      "outputs": [
        {
          "internalType": "address",
          "name": "",
          "type": "address"
        }
      ],
      "stateMutability": "view",
      "type": "function"
    },
    {
      "inputs": [],
      "name": "getCollectionList",
      "outputs": [
        {
          "internalType": "address[]",
          "name": "",
          "type": "address[]"
        }
      ],
      "stateMutability": "view",
      "type": "function"
    },
    {
      "inputs": [
        {
          "internalType": "address",
          "name": "_collection",
          "type": "address"
        }
      ],
      "name": "getCollectionPoolList",
      "outputs": [
        {
          "components": [
            {
              "internalType": "address[]",
              "name": "otherStakePools",
              "type": "address[]"
            },
            {
              "internalType": "address[]",
              "name": "nonOtherStakePools",
              "type": "address[]"
            }
          ],
          "internalType": "struct Router.CollectionPoolList",
          "name": "",
          "type": "tuple"
        }
      ],
      "stateMutability": "view",
      "type": "function"
    },
    {
      "inputs": [
        {
          "internalType": "address",
          "name": "_bondingCurve",
          "type": "address"
        }
      ],
      "name": "getIsBondingCurveApprove",
      "outputs": [
        {
          "internalType": "bool",
          "name": "",
          "type": "bool"
        }
      ],
      "stateMutability": "view",
      "type": "function"
    },
    {
      "inputs": [
        {
          "internalType": "address",
          "name": "_collection",
          "type": "address"
        }
      ],
      "name": "getIsCollectionApprove",
      "outputs": [
        {
          "internalType": "bool",
          "name": "",
          "type": "bool"
        }
      ],
      "stateMutability": "view",
      "type": "function"
    },
    {
      "inputs": [
        {
          "internalType": "address",
          "name": "_factory",
          "type": "address"
        }
      ],
      "name": "getIsFactoryApprove",
      "outputs": [
        {
          "internalType": "bool",
          "name": "",
          "type": "bool"
        }
      ],
      "stateMutability": "view",
      "type": "function"
    },
    {
      "inputs": [
        {
          "internalType": "address",
          "name": "_supporter",
          "type": "address"
        }
      ],
      "name": "getIsSupporterApprove",
      "outputs": [
        {
          "internalType": "bool",
          "name": "",
          "type": "bool"
        }
      ],
      "stateMutability": "view",
      "type": "function"
    },
    {
      "inputs": [
        {
          "internalType": "address",
          "name": "_user",
          "type": "address"
        }
      ],
      "name": "getUserStakePoolList",
      "outputs": [
        {
          "components": [
            {
              "internalType": "address[]",
              "name": "stakeFTpools",
              "type": "address[]"
            },
            {
              "internalType": "address[]",
              "name": "stakeNFTpools",
              "type": "address[]"
            }
          ],
          "internalType": "struct Router.UserStakePoolList",
          "name": "",
          "type": "tuple"
        }
      ],
      "stateMutability": "view",
      "type": "function"
    },
    {
      "inputs": [
        {
          "internalType": "address",
          "name": "",
          "type": "address"
        }
      ],
      "name": "isBondingCurveApprove",
      "outputs": [
        {
          "internalType": "bool",
          "name": "",
          "type": "bool"
        }
      ],
      "stateMutability": "view",
      "type": "function"
    },
    {
      "inputs": [
        {
          "internalType": "address",
          "name": "",
          "type": "address"
        }
      ],
      "name": "isCollectionApprove",
      "outputs": [
        {
          "internalType": "bool",
          "name": "",
          "type": "bool"
        }
      ],
      "stateMutability": "view",
      "type": "function"
    },
    {
      "inputs": [
        {
          "internalType": "address",
          "name": "",
          "type": "address"
        }
      ],
      "name": "isFactoryApprove",
      "outputs": [
        {
          "internalType": "bool",
          "name": "",
          "type": "bool"
        }
      ],
      "stateMutability": "view",
      "type": "function"
    },
    {
      "inputs": [
        {
          "internalType": "address",
          "name": "",
          "type": "address"
        }
      ],
      "name": "isSupporterApprove",
      "outputs": [
        {
          "internalType": "bool",
          "name": "",
          "type": "bool"
        }
      ],
      "stateMutability": "view",
      "type": "function"
    },
    {
      "inputs": [],
      "name": "owner",
      "outputs": [
        {
          "internalType": "address",
          "name": "",
          "type": "address"
        }
      ],
      "stateMutability": "view",
      "type": "function"
    },
    {
      "inputs": [],
      "name": "renounceOwnership",
      "outputs": [],
      "stateMutability": "nonpayable",
      "type": "function"
    },
    {
      "inputs": [
        {
          "internalType": "address",
          "name": "_bondingCurve",
          "type": "address"
        },
        {
          "internalType": "bool",
          "name": "_approve",
          "type": "bool"
        }
      ],
      "name": "setBondingCurveApprove",
      "outputs": [],
      "stateMutability": "nonpayable",
      "type": "function"
    },
    {
      "inputs": [
        {
          "internalType": "address",
          "name": "_collection",
          "type": "address"
        },
        {
          "internalType": "bool",
          "name": "_approve",
          "type": "bool"
        }
      ],
      "name": "setCollectionApprove",
      "outputs": [],
      "stateMutability": "nonpayable",
      "type": "function"
    },
    {
      "inputs": [
        {
          "internalType": "address",
          "name": "_factory",
          "type": "address"
        },
        {
          "internalType": "bool",
          "name": "_approve",
          "type": "bool"
        }
      ],
      "name": "setFactoryApprove",
      "outputs": [],
      "stateMutability": "nonpayable",
      "type": "function"
    },
    {
      "inputs": [
        {
          "internalType": "address",
          "name": "_supporter",
          "type": "address"
        },
        {
          "internalType": "bool",
          "name": "_approve",
          "type": "bool"
        }
      ],
      "name": "setSupporterApprove",
      "outputs": [],
      "stateMutability": "nonpayable",
      "type": "function"
    },
    {
      "inputs": [
        {
          "internalType": "address",
          "name": "_pool",
          "type": "address"
        },
        {
          "internalType": "uint256[]",
          "name": "_tokenIds",
          "type": "uint256[]"
        }
      ],
      "name": "stakeNFT",
      "outputs": [],
      "stateMutability": "nonpayable",
      "type": "function"
    },
    {
      "inputs": [
        {
          "internalType": "address",
          "name": "",
          "type": "address"
        }
      ],
      "name": "supporterFee",
      "outputs": [
        {
          "internalType": "uint256",
          "name": "",
          "type": "uint256"
        }
      ],
      "stateMutability": "view",
      "type": "function"
    },
    {
      "inputs": [],
      "name": "supporterFeeRatio",
      "outputs": [
        {
          "internalType": "uint256",
          "name": "",
          "type": "uint256"
        }
      ],
      "stateMutability": "view",
      "type": "function"
    },
    {
      "inputs": [
        {
          "internalType": "address",
          "name": "_pool",
          "type": "address"
        },
        {
          "internalType": "uint256[]",
          "name": "_tokenIds",
          "type": "uint256[]"
        },
        {
          "internalType": "address",
          "name": "_support",
          "type": "address"
        }
      ],
      "name": "swapFTforNFT",
      "outputs": [],
      "stateMutability": "payable",
      "type": "function"
    },
    {
      "inputs": [
        {
          "internalType": "address",
          "name": "_pool",
          "type": "address"
        },
        {
          "internalType": "uint256[]",
          "name": "_tokenIds",
          "type": "uint256[]"
        },
        {
          "internalType": "uint256",
          "name": "_minExpectFee",
          "type": "uint256"
        },
        {
          "internalType": "address",
          "name": "_support",
          "type": "address"
        }
      ],
      "name": "swapNFTforFT",
      "outputs": [],
      "stateMutability": "payable",
      "type": "function"
    },
    {
      "inputs": [],
      "name": "totalProtocolFee",
      "outputs": [
        {
          "internalType": "uint256",
          "name": "",
          "type": "uint256"
        }
      ],
      "stateMutability": "view",
      "type": "function"
    },
    {
      "inputs": [
        {
          "internalType": "address",
          "name": "newOwner",
          "type": "address"
        }
      ],
      "name": "transferOwnership",
      "outputs": [],
      "stateMutability": "nonpayable",
      "type": "function"
    },
    {
      "inputs": [
        {
          "internalType": "address",
          "name": "_pool",
          "type": "address"
        },
        {
          "internalType": "uint256[]",
          "name": "_tokenIds",
          "type": "uint256[]"
        }
      ],
      "name": "withdrawNFT",
      "outputs": [],
      "stateMutability": "nonpayable",
      "type": "function"
    },
    {
      "inputs": [],
      "name": "withdrawProtocolFee",
      "outputs": [],
      "stateMutability": "payable",
      "type": "function"
    },
    {
      "inputs": [],
      "name": "withdrawSupportFee",
      "outputs": [],
      "stateMutability": "payable",
      "type": "function"
    },
    {
      "stateMutability": "payable",
      "type": "receive"
    }
  ],
  "bytecode": "0x6080604052670429d069189e00006002553480156200001d57600080fd5b506200003e620000326200004460201b60201c565b6200004c60201b60201c565b62000110565b600033905090565b60008060009054906101000a900473ffffffffffffffffffffffffffffffffffffffff169050816000806101000a81548173ffffffffffffffffffffffffffffffffffffffff021916908373ffffffffffffffffffffffffffffffffffffffff1602179055508173ffffffffffffffffffffffffffffffffffffffff168173ffffffffffffffffffffffffffffffffffffffff167f8be0079c531659141344cd1fd0a4f28419497f9722a3daafe3b4186f6b6457e060405160405180910390a35050565b613d3480620001206000396000f3fe6080604052600436106101f25760003560e01c8063b65bfbf01161010d578063e152c441116100a0578063f2fde38b1161006f578063f2fde38b1461070c578063fb1fc62c14610735578063fc5a0df514610772578063fc9d16cd146107af578063fd7bb9b5146107d857610232565b8063e152c4411461062c578063e3b4403d14610655578063e70b1bc714610692578063ec217ea6146106cf57610232565b8063cab5c30e116100dc578063cab5c30e1461057a578063d1b2bda814610596578063d46b29ab146105d3578063dd4b533f1461061057610232565b8063b65bfbf014610498578063b77c3882146104d5578063bc0a0bd014610512578063c586d8e81461053d57610232565b8063752d121c116101855780639175a588116101545780639175a588146103f45780639bdedea51461041d5780639c9206d214610446578063a150241f1461046f57610232565b8063752d121c1461033857806388611f35146103755780638d3b6eb3146103a05780638da5cb5b146103c957610232565b806338e8a1d1116101c157806338e8a1d1146102b157806359d8da92146102da5780636a64d3d2146102e4578063715018a61461032157610232565b806312b71c211461023757806318892c5d146102415780632e091d531461025d578063361eaa531461028657610232565b36610232577f88a5966d370b9919b20f3e2c13ff65706f196a4e32cc2c12bf57088f885258743334604051610228929190612cc5565b60405180910390a1005b600080fd5b61023f6107f4565b005b61025b60048036038101906102569190612e3f565b61090a565b005b34801561026957600080fd5b50610284600480360381019061027f9190612f08565b610b08565b005b34801561029257600080fd5b5061029b610ce7565b6040516102a89190613047565b60405180910390f35b3480156102bd57600080fd5b506102d860048036038101906102d391906130a1565b610d75565b005b6102e2610dd8565b005b3480156102f057600080fd5b5061030b600480360381019061030691906130e1565b610e7c565b604051610318919061311d565b60405180910390f35b34801561032d57600080fd5b50610336610ed2565b005b34801561034457600080fd5b5061035f600480360381019061035a9190613164565b610ee6565b60405161036c9190613191565b60405180910390f35b34801561038157600080fd5b5061038a610f25565b60405161039791906131ac565b60405180910390f35b3480156103ac57600080fd5b506103c760048036038101906103c291906130a1565b610f2b565b005b3480156103d557600080fd5b506103de610f8e565b6040516103eb9190613191565b60405180910390f35b34801561040057600080fd5b5061041b600480360381019061041691906131c7565b610fb7565b005b34801561042957600080fd5b50610444600480360381019061043f91906131c7565b61121c565b005b34801561045257600080fd5b5061046d600480360381019061046891906130a1565b6114a4565b005b34801561047b57600080fd5b50610496600480360381019061049191906130e1565b611507565b005b3480156104a457600080fd5b506104bf60048036038101906104ba91906130e1565b6116b6565b6040516104cc919061311d565b60405180910390f35b3480156104e157600080fd5b506104fc60048036038101906104f791906130e1565b61170c565b60405161050991906132da565b60405180910390f35b34801561051e57600080fd5b50610527611881565b60405161053491906131ac565b60405180910390f35b34801561054957600080fd5b50610564600480360381019061055f91906130e1565b611887565b60405161057191906131ac565b60405180910390f35b610594600480360381019061058f91906132fc565b61189f565b005b3480156105a257600080fd5b506105bd60048036038101906105b891906130e1565b611a9e565b6040516105ca919061311d565b60405180910390f35b3480156105df57600080fd5b506105fa60048036038101906105f591906130e1565b611abe565b604051610607919061311d565b60405180910390f35b61062a60048036038101906106259190613370565b611ade565b005b34801561063857600080fd5b50610653600480360381019061064e91906130e1565b611cdf565b005b34801561066157600080fd5b5061067c600480360381019061067791906130e1565b611e8e565b604051610689919061343c565b60405180910390f35b34801561069e57600080fd5b506106b960048036038101906106b491906130e1565b612003565b6040516106c6919061311d565b60405180910390f35b3480156106db57600080fd5b506106f660048036038101906106f191906130e1565b612023565b604051610703919061311d565b60405180910390f35b34801561071857600080fd5b50610733600480360381019061072e91906130e1565b612079565b005b34801561074157600080fd5b5061075c600480360381019061075791906130e1565b6120fc565b604051610769919061311d565b60405180910390f35b34801561077e57600080fd5b50610799600480360381019061079491906130e1565b61211c565b6040516107a6919061311d565b60405180910390f35b3480156107bb57600080fd5b506107d660048036038101906107d191906130a1565b612172565b005b6107f260048036038101906107ed919061345e565b6122b9565b005b6000600860003373ffffffffffffffffffffffffffffffffffffffff1673ffffffffffffffffffffffffffffffffffffffff1681526020019081526020016000205490506000811161087b576040517f08c379a000000000000000000000000000000000000000000000000000000000815260040161087290613550565b60405180910390fd5b6000600860003373ffffffffffffffffffffffffffffffffffffffff1673ffffffffffffffffffffffffffffffffffffffff168152602001908152602001600020819055503373ffffffffffffffffffffffffffffffffffffffff166108fc829081150290604051600060405180830381858888f19350505050158015610906573d6000803e3d6000fd5b5050565b600080600090505b88889050811015610af357600089898381811061093257610931613570565b5b905060200201602081019061094791906130e1565b73ffffffffffffffffffffffffffffffffffffffff1663244117b489898581811061097557610974613570565b5b905060200281019061098791906135ae565b806000019061099691906135d6565b8989878181106109a9576109a8613570565b5b90506020020135336040518563ffffffff1660e01b81526004016109d094939291906136b4565b6020604051808303816000875af11580156109ef573d6000803e3d6000fd5b505050506040513d601f19601f82011682018060405250810190610a139190613709565b90508083610a219190613765565b9250898983818110610a3657610a35613570565b5b9050602002016020810190610a4b91906130e1565b73ffffffffffffffffffffffffffffffffffffffff163373ffffffffffffffffffffffffffffffffffffffff167f8f3673bd023cc34f252b9e7d0a0dd6496592b87006673a974d1d621b5a93e15e8a8a86818110610aac57610aab613570565b5b9050602002810190610abe91906135ae565b8060000190610acd91906135d6565b8589604051610adf94939291906136b4565b60405180910390a381600101915050610912565b50610afe828261266c565b5050505050505050565b60005b84849050811015610ce057848482818110610b2957610b28613570565b5b9050602002016020810190610b3e91906130e1565b73ffffffffffffffffffffffffffffffffffffffff16632f7e0b2e848484818110610b6c57610b6b613570565b5b9050602002810190610b7e91906135ae565b8060000190610b8d91906135d6565b336040518463ffffffff1660e01b8152600401610bac93929190613799565b600060405180830381600087803b158015610bc657600080fd5b505af1158015610bda573d6000803e3d6000fd5b50505050848482818110610bf157610bf0613570565b5b9050602002016020810190610c0691906130e1565b73ffffffffffffffffffffffffffffffffffffffff163373ffffffffffffffffffffffffffffffffffffffff167f285e2df175d03ce53bf542c949e8a0add3b654d3911402bbb71e9bb46c82dad5858585818110610c6757610c66613570565b5b9050602002810190610c7991906135ae565b8060000190610c8891906135d6565b9050868686818110610c9d57610c9c613570565b5b9050602002810190610caf91906135ae565b8060000190610cbe91906135d6565b604051610ccd939291906137cb565b60405180910390a3806001019050610b0b565b5050505050565b60606003805480602002602001604051908101604052809291908181526020018280548015610d6b57602002820191906000526020600020905b8160009054906101000a900473ffffffffffffffffffffffffffffffffffffffff1673ffffffffffffffffffffffffffffffffffffffff1681526020019060010190808311610d21575b5050505050905090565b610d7d61279c565b80600760008473ffffffffffffffffffffffffffffffffffffffff1673ffffffffffffffffffffffffffffffffffffffff16815260200190815260200160002060006101000a81548160ff0219169083151502179055505050565b610de061279c565b6000600154905060008111610e2a576040517f08c379a0000000000000000000000000000000000000000000000000000000008152600401610e2190613550565b60405180910390fd5b60006001819055503373ffffffffffffffffffffffffffffffffffffffff166108fc829081150290604051600060405180830381858888f19350505050158015610e78573d6000803e3d6000fd5b5050565b6000600760008373ffffffffffffffffffffffffffffffffffffffff1673ffffffffffffffffffffffffffffffffffffffff16815260200190815260200160002060009054906101000a900460ff169050919050565b610eda61279c565b610ee4600061281a565b565b60038181548110610ef657600080fd5b906000526020600020016000915054906101000a900473ffffffffffffffffffffffffffffffffffffffff1681565b60015481565b610f3361279c565b80600560008473ffffffffffffffffffffffffffffffffffffffff1673ffffffffffffffffffffffffffffffffffffffff16815260200190815260200160002060006101000a81548160ff0219169083151502179055505050565b60008060009054906101000a900473ffffffffffffffffffffffffffffffffffffffff16905090565b6000611089600a60003373ffffffffffffffffffffffffffffffffffffffff1673ffffffffffffffffffffffffffffffffffffffff16815260200190815260200160002060010180548060200260200160405190810160405280929190818152602001828054801561107e57602002820191906000526020600020905b8160009054906101000a900473ffffffffffffffffffffffffffffffffffffffff1673ffffffffffffffffffffffffffffffffffffffff1681526020019060010190808311611034575b5050505050856128de565b9050600015158115150361113b57600a60003373ffffffffffffffffffffffffffffffffffffffff1673ffffffffffffffffffffffffffffffffffffffff168152602001908152602001600020600101849080600181540180825580915050600190039060005260206000200160009091909190916101000a81548173ffffffffffffffffffffffffffffffffffffffff021916908373ffffffffffffffffffffffffffffffffffffffff1602179055505b8373ffffffffffffffffffffffffffffffffffffffff16632f7e0b2e8484336040518463ffffffff1660e01b815260040161117893929190613799565b600060405180830381600087803b15801561119257600080fd5b505af11580156111a6573d6000803e3d6000fd5b505050508373ffffffffffffffffffffffffffffffffffffffff163373ffffffffffffffffffffffffffffffffffffffff167f285e2df175d03ce53bf542c949e8a0add3b654d3911402bbb71e9bb46c82dad585859050868660405161120e939291906137cb565b60405180910390a350505050565b60008373ffffffffffffffffffffffffffffffffffffffff16637de1e5366040518163ffffffff1660e01b81526004016020604051808303816000875af115801561126b573d6000803e3d6000fd5b505050506040513d601f19601f8201168201806040525081019061128f9190613812565b90506112dc600a60003373ffffffffffffffffffffffffffffffffffffffff1673ffffffffffffffffffffffffffffffffffffffff16815260200190815260200160002060010185612953565b60008473ffffffffffffffffffffffffffffffffffffffff16632c7e49158585336040518463ffffffff1660e01b815260040161131b93929190613799565b6020604051808303816000875af115801561133a573d6000803e3d6000fd5b505050506040513d601f19601f8201168201806040525081019061135e9190613709565b905060008061136c87612af4565b9150915060011515821515036114325760011515811515036113d8576113d3600960008673ffffffffffffffffffffffffffffffffffffffff1673ffffffffffffffffffffffffffffffffffffffff16815260200190815260200160002060000188612953565b611431565b60001515811515036114305761142f600960008673ffffffffffffffffffffffffffffffffffffffff1673ffffffffffffffffffffffffffffffffffffffff16815260200190815260200160002060010188612953565b5b5b5b8673ffffffffffffffffffffffffffffffffffffffff163373ffffffffffffffffffffffffffffffffffffffff167fcd715c6f851d1dc11755804a0c2e5da8792da275e44c1ee713771d7479bce8fd8888876040516114939392919061383f565b60405180910390a350505050505050565b6114ac61279c565b80600660008473ffffffffffffffffffffffffffffffffffffffff1673ffffffffffffffffffffffffffffffffffffffff16815260200190815260200160002060006101000a81548160ff0219169083151502179055505050565b60011515600660003373ffffffffffffffffffffffffffffffffffffffff1673ffffffffffffffffffffffffffffffffffffffff16815260200190815260200160002060009054906101000a900460ff1615151461159a576040517f08c379a0000000000000000000000000000000000000000000000000000000008152600401611591906138bd565b60405180910390fd5b60008173ffffffffffffffffffffffffffffffffffffffff16637de1e5366040518163ffffffff1660e01b81526004016020604051808303816000875af11580156115e9573d6000803e3d6000fd5b505050506040513d601f19601f8201168201806040525081019061160d9190613812565b9050600960008273ffffffffffffffffffffffffffffffffffffffff1673ffffffffffffffffffffffffffffffffffffffff168152602001908152602001600020600101829080600181540180825580915050600190039060005260206000200160009091909190916101000a81548173ffffffffffffffffffffffffffffffffffffffff021916908373ffffffffffffffffffffffffffffffffffffffff1602179055505050565b6000600560008373ffffffffffffffffffffffffffffffffffffffff1673ffffffffffffffffffffffffffffffffffffffff16815260200190815260200160002060009054906101000a900460ff169050919050565b611714612c37565b600a60008373ffffffffffffffffffffffffffffffffffffffff1673ffffffffffffffffffffffffffffffffffffffff168152602001908152602001600020604051806040016040529081600082018054806020026020016040519081016040528092919081815260200182805480156117e357602002820191906000526020600020905b8160009054906101000a900473ffffffffffffffffffffffffffffffffffffffff1673ffffffffffffffffffffffffffffffffffffffff1681526020019060010190808311611799575b505050505081526020016001820180548060200260200160405190810160405280929190818152602001828054801561187157602002820191906000526020600020905b8160009054906101000a900473ffffffffffffffffffffffffffffffffffffffff1673ffffffffffffffffffffffffffffffffffffffff1681526020019060010190808311611827575b5050505050815250509050919050565b60025481565b60086020528060005260406000206000915090505481565b60008473ffffffffffffffffffffffffffffffffffffffff166360246c886040518163ffffffff1660e01b815260040160a0604051808303816000875af11580156118ee573d6000803e3d6000fd5b505050506040513d601f19601f820116820180604052508101906119129190613a42565b905060008573ffffffffffffffffffffffffffffffffffffffff1663531fb11d8686905084600001516040518363ffffffff1660e01b8152600401611958929190613a7e565b602060405180830381865afa158015611975573d6000803e3d6000fd5b505050506040513d601f19601f820116820180604052508101906119999190613709565b905060008673ffffffffffffffffffffffffffffffffffffffff16634c4cbac4348888336040518563ffffffff1660e01b81526004016119db93929190613799565b60206040518083038185885af11580156119f9573d6000803e3d6000fd5b50505050506040513d601f19601f82011682018060405250810190611a1e9190613709565b9050611a2a848261266c565b8673ffffffffffffffffffffffffffffffffffffffff163373ffffffffffffffffffffffffffffffffffffffff167f2611defd53a4a87419d2078554db30aeaddd9ddfdc5990da2bbdc8d589f5e4d688888689604051611a8d94939291906136b4565b60405180910390a350505050505050565b60066020528060005260406000206000915054906101000a900460ff1681565b60046020528060005260406000206000915054906101000a900460ff1681565b60008573ffffffffffffffffffffffffffffffffffffffff166360246c886040518163ffffffff1660e01b815260040160a0604051808303816000875af1158015611b2d573d6000803e3d6000fd5b505050506040513d601f19601f82011682018060405250810190611b519190613a42565b905060008673ffffffffffffffffffffffffffffffffffffffff1663cb31fa828787905084600001516040518363ffffffff1660e01b8152600401611b97929190613a7e565b602060405180830381865afa158015611bb4573d6000803e3d6000fd5b505050506040513d601f19601f82011682018060405250810190611bd89190613709565b905060008773ffffffffffffffffffffffffffffffffffffffff1663244117b4888888336040518563ffffffff1660e01b8152600401611c1b94939291906136b4565b6020604051808303816000875af1158015611c3a573d6000803e3d6000fd5b505050506040513d601f19601f82011682018060405250810190611c5e9190613709565b9050611c6a848261266c565b8773ffffffffffffffffffffffffffffffffffffffff163373ffffffffffffffffffffffffffffffffffffffff167f8f3673bd023cc34f252b9e7d0a0dd6496592b87006673a974d1d621b5a93e15e89898689604051611ccd94939291906136b4565b60405180910390a35050505050505050565b60011515600660003373ffffffffffffffffffffffffffffffffffffffff1673ffffffffffffffffffffffffffffffffffffffff16815260200190815260200160002060009054906101000a900460ff16151514611d72576040517f08c379a0000000000000000000000000000000000000000000000000000000008152600401611d69906138bd565b60405180910390fd5b60008173ffffffffffffffffffffffffffffffffffffffff16637de1e5366040518163ffffffff1660e01b81526004016020604051808303816000875af1158015611dc1573d6000803e3d6000fd5b505050506040513d601f19601f82011682018060405250810190611de59190613812565b9050600960008273ffffffffffffffffffffffffffffffffffffffff1673ffffffffffffffffffffffffffffffffffffffff168152602001908152602001600020600001829080600181540180825580915050600190039060005260206000200160009091909190916101000a81548173ffffffffffffffffffffffffffffffffffffffff021916908373ffffffffffffffffffffffffffffffffffffffff1602179055505050565b611e96612c51565b600960008373ffffffffffffffffffffffffffffffffffffffff1673ffffffffffffffffffffffffffffffffffffffff16815260200190815260200160002060405180604001604052908160008201805480602002602001604051908101604052809291908181526020018280548015611f6557602002820191906000526020600020905b8160009054906101000a900473ffffffffffffffffffffffffffffffffffffffff1673ffffffffffffffffffffffffffffffffffffffff1681526020019060010190808311611f1b575b5050505050815260200160018201805480602002602001604051908101604052809291908181526020018280548015611ff357602002820191906000526020600020905b8160009054906101000a900473ffffffffffffffffffffffffffffffffffffffff1673ffffffffffffffffffffffffffffffffffffffff1681526020019060010190808311611fa9575b5050505050815250509050919050565b60056020528060005260406000206000915054906101000a900460ff1681565b6000600660008373ffffffffffffffffffffffffffffffffffffffff1673ffffffffffffffffffffffffffffffffffffffff16815260200190815260200160002060009054906101000a900460ff169050919050565b61208161279c565b600073ffffffffffffffffffffffffffffffffffffffff168173ffffffffffffffffffffffffffffffffffffffff16036120f0576040517f08c379a00000000000000000000000000000000000000000000000000000000081526004016120e790613b19565b60405180910390fd5b6120f98161281a565b50565b60076020528060005260406000206000915054906101000a900460ff1681565b6000600460008373ffffffffffffffffffffffffffffffffffffffff1673ffffffffffffffffffffffffffffffffffffffff16815260200190815260200160002060009054906101000a900460ff169050919050565b61217a61279c565b6001151581151503612245576003829080600181540180825580915050600190039060005260206000200160009091909190916101000a81548173ffffffffffffffffffffffffffffffffffffffff021916908373ffffffffffffffffffffffffffffffffffffffff16021790555080600460008473ffffffffffffffffffffffffffffffffffffffff1673ffffffffffffffffffffffffffffffffffffffff16815260200190815260200160002060006101000a81548160ff0219169083151502179055506122b5565b60001515811515036122b45761225c600383612953565b80600460008473ffffffffffffffffffffffffffffffffffffffff1673ffffffffffffffffffffffffffffffffffffffff16815260200190815260200160002060006101000a81548160ff0219169083151502179055505b5b5050565b60008034905060005b878790508110156126585760008888838181106122e2576122e1613570565b5b90506020020160208101906122f791906130e1565b73ffffffffffffffffffffffffffffffffffffffff166360246c886040518163ffffffff1660e01b815260040160a0604051808303816000875af1158015612343573d6000803e3d6000fd5b505050506040513d601f19601f820116820180604052508101906123679190613a42565b9050600089898481811061237e5761237d613570565b5b905060200201602081019061239391906130e1565b73ffffffffffffffffffffffffffffffffffffffff1663531fb11d8989868181106123c1576123c0613570565b5b90506020028101906123d391906135ae565b80600001906123e291906135d6565b905084600001516040518363ffffffff1660e01b8152600401612406929190613a7e565b602060405180830381865afa158015612423573d6000803e3d6000fd5b505050506040513d601f19601f820116820180604052508101906124479190613709565b90508084101561248c576040517f08c379a000000000000000000000000000000000000000000000000000000000815260040161248390613b85565b60405180910390fd5b60008a8a858181106124a1576124a0613570565b5b90506020020160208101906124b691906130e1565b73ffffffffffffffffffffffffffffffffffffffff16634c4cbac4838b8b888181106124e5576124e4613570565b5b90506020028101906124f791906135ae565b806000019061250691906135d6565b336040518563ffffffff1660e01b815260040161252593929190613799565b60206040518083038185885af1158015612543573d6000803e3d6000fd5b50505050506040513d601f19601f820116820180604052508101906125689190613709565b905080866125769190613765565b955081856125849190613ba5565b94508a8a8581811061259957612598613570565b5b90506020020160208101906125ae91906130e1565b73ffffffffffffffffffffffffffffffffffffffff163373ffffffffffffffffffffffffffffffffffffffff167f2611defd53a4a87419d2078554db30aeaddd9ddfdc5990da2bbdc8d589f5e4d68b8b8881811061260f5761260e613570565b5b905060200281019061262191906135ae565b806000019061263091906135d6565b858c60405161264294939291906136b4565b60405180910390a38360010193505050506122c2565b50612663838361266c565b50505050505050565b600073ffffffffffffffffffffffffffffffffffffffff168273ffffffffffffffffffffffffffffffffffffffff16146127495760006126c1600254670de0b6b3a764000084612c0b9092919063ffffffff16565b9050600081836126d19190613ba5565b905080600160008282546126e59190613765565b9250508190555081600860008673ffffffffffffffffffffffffffffffffffffffff1673ffffffffffffffffffffffffffffffffffffffff168152602001908152602001600020600082825461273b9190613765565b925050819055505050612798565b600073ffffffffffffffffffffffffffffffffffffffff168273ffffffffffffffffffffffffffffffffffffffff160361279757806001600082825461278f9190613765565b925050819055505b5b5050565b6127a4612c2f565b73ffffffffffffffffffffffffffffffffffffffff166127c2610f8e565b73ffffffffffffffffffffffffffffffffffffffff1614612818576040517f08c379a000000000000000000000000000000000000000000000000000000000815260040161280f90613c25565b60405180910390fd5b565b60008060009054906101000a900473ffffffffffffffffffffffffffffffffffffffff169050816000806101000a81548173ffffffffffffffffffffffffffffffffffffffff021916908373ffffffffffffffffffffffffffffffffffffffff1602179055508173ffffffffffffffffffffffffffffffffffffffff168173ffffffffffffffffffffffffffffffffffffffff167f8be0079c531659141344cd1fd0a4f28419497f9722a3daafe3b4186f6b6457e060405160405180910390a35050565b600080835190506000915060005b8181101561294b578373ffffffffffffffffffffffffffffffffffffffff1685828151811061291e5761291d613570565b5b602002602001015173ffffffffffffffffffffffffffffffffffffffff160361294657600192505b6128ec565b505092915050565b60008280549050905060005b81811015612aee578273ffffffffffffffffffffffffffffffffffffffff1684828154811061299157612990613570565b5b9060005260206000200160009054906101000a900473ffffffffffffffffffffffffffffffffffffffff1673ffffffffffffffffffffffffffffffffffffffff1603612adb576001826129e49190613ba5565b8114612a9057836001836129f89190613ba5565b81548110612a0957612a08613570565b5b9060005260206000200160009054906101000a900473ffffffffffffffffffffffffffffffffffffffff16848281548110612a4757612a46613570565b5b9060005260206000200160006101000a81548173ffffffffffffffffffffffffffffffffffffffff021916908373ffffffffffffffffffffffffffffffffffffffff1602179055505b83805480612aa157612aa0613c45565b5b6001900381819060005260206000200160006101000a81549073ffffffffffffffffffffffffffffffffffffffff02191690559055612aee565b8080612ae690613c74565b91505061295f565b50505050565b60008060008373ffffffffffffffffffffffffffffffffffffffff166360246c886040518163ffffffff1660e01b815260040160a0604051808303816000875af1158015612b46573d6000803e3d6000fd5b505050506040513d601f19601f82011682018060405250810190612b6a9190613a42565b90508373ffffffffffffffffffffffffffffffffffffffff1663bbd265ab6040518163ffffffff1660e01b81526004016020604051808303816000875af1158015612bb9573d6000803e3d6000fd5b505050506040513d601f19601f82011682018060405250810190612bdd9190613cd1565b91506000925060008160600151148015612bfb575060008160800151145b15612c0557600192505b50915091565b600082840290508284820414841517612c2357600080fd5b81810490509392505050565b600033905090565b604051806040016040528060608152602001606081525090565b604051806040016040528060608152602001606081525090565b600073ffffffffffffffffffffffffffffffffffffffff82169050919050565b6000612c9682612c6b565b9050919050565b612ca681612c8b565b82525050565b6000819050919050565b612cbf81612cac565b82525050565b6000604082019050612cda6000830185612c9d565b612ce76020830184612cb6565b9392505050565b6000604051905090565b600080fd5b600080fd5b600080fd5b600080fd5b600080fd5b60008083601f840112612d2757612d26612d02565b5b8235905067ffffffffffffffff811115612d4457612d43612d07565b5b602083019150836020820283011115612d6057612d5f612d0c565b5b9250929050565b60008083601f840112612d7d57612d7c612d02565b5b8235905067ffffffffffffffff811115612d9a57612d99612d07565b5b602083019150836020820283011115612db657612db5612d0c565b5b9250929050565b60008083601f840112612dd357612dd2612d02565b5b8235905067ffffffffffffffff811115612df057612def612d07565b5b602083019150836020820283011115612e0c57612e0b612d0c565b5b9250929050565b612e1c81612c8b565b8114612e2757600080fd5b50565b600081359050612e3981612e13565b92915050565b60008060008060008060006080888a031215612e5e57612e5d612cf8565b5b600088013567ffffffffffffffff811115612e7c57612e7b612cfd565b5b612e888a828b01612d11565b9750975050602088013567ffffffffffffffff811115612eab57612eaa612cfd565b5b612eb78a828b01612d67565b9550955050604088013567ffffffffffffffff811115612eda57612ed9612cfd565b5b612ee68a828b01612dbd565b93509350506060612ef98a828b01612e2a565b91505092959891949750929550565b60008060008060408587031215612f2257612f21612cf8565b5b600085013567ffffffffffffffff811115612f4057612f3f612cfd565b5b612f4c87828801612d11565b9450945050602085013567ffffffffffffffff811115612f6f57612f6e612cfd565b5b612f7b87828801612d67565b925092505092959194509250565b600081519050919050565b600082825260208201905092915050565b6000819050602082019050919050565b612fbe81612c8b565b82525050565b6000612fd08383612fb5565b60208301905092915050565b6000602082019050919050565b6000612ff482612f89565b612ffe8185612f94565b935061300983612fa5565b8060005b8381101561303a5781516130218882612fc4565b975061302c83612fdc565b92505060018101905061300d565b5085935050505092915050565b600060208201905081810360008301526130618184612fe9565b905092915050565b60008115159050919050565b61307e81613069565b811461308957600080fd5b50565b60008135905061309b81613075565b92915050565b600080604083850312156130b8576130b7612cf8565b5b60006130c685828601612e2a565b92505060206130d78582860161308c565b9150509250929050565b6000602082840312156130f7576130f6612cf8565b5b600061310584828501612e2a565b91505092915050565b61311781613069565b82525050565b6000602082019050613132600083018461310e565b92915050565b61314181612cac565b811461314c57600080fd5b50565b60008135905061315e81613138565b92915050565b60006020828403121561317a57613179612cf8565b5b60006131888482850161314f565b91505092915050565b60006020820190506131a66000830184612c9d565b92915050565b60006020820190506131c16000830184612cb6565b92915050565b6000806000604084860312156131e0576131df612cf8565b5b60006131ee86828701612e2a565b935050602084013567ffffffffffffffff81111561320f5761320e612cfd565b5b61321b86828701612dbd565b92509250509250925092565b600082825260208201905092915050565b600061324382612f89565b61324d8185613227565b935061325883612fa5565b8060005b838110156132895781516132708882612fc4565b975061327b83612fdc565b92505060018101905061325c565b5085935050505092915050565b600060408301600083015184820360008601526132b38282613238565b915050602083015184820360208601526132cd8282613238565b9150508091505092915050565b600060208201905081810360008301526132f48184613296565b905092915050565b6000806000806060858703121561331657613315612cf8565b5b600061332487828801612e2a565b945050602085013567ffffffffffffffff81111561334557613344612cfd565b5b61335187828801612dbd565b9350935050604061336487828801612e2a565b91505092959194509250565b60008060008060006080868803121561338c5761338b612cf8565b5b600061339a88828901612e2a565b955050602086013567ffffffffffffffff8111156133bb576133ba612cfd565b5b6133c788828901612dbd565b945094505060406133da8882890161314f565b92505060606133eb88828901612e2a565b9150509295509295909350565b600060408301600083015184820360008601526134158282613238565b9150506020830151848203602086015261342f8282613238565b9150508091505092915050565b6000602082019050818103600083015261345681846133f8565b905092915050565b60008060008060006060868803121561347a57613479612cf8565b5b600086013567ffffffffffffffff81111561349857613497612cfd565b5b6134a488828901612d11565b9550955050602086013567ffffffffffffffff8111156134c7576134c6612cfd565b5b6134d388828901612d67565b935093505060406134e688828901612e2a565b9150509295509295909350565b600082825260208201905092915050565b7f4e6f742046656500000000000000000000000000000000000000000000000000600082015250565b600061353a6007836134f3565b915061354582613504565b602082019050919050565b600060208201905081810360008301526135698161352d565b9050919050565b7f4e487b7100000000000000000000000000000000000000000000000000000000600052603260045260246000fd5b600080fd5b600080fd5b600080fd5b6000823560016020038336030381126135ca576135c961359f565b5b80830191505092915050565b600080833560016020038436030381126135f3576135f261359f565b5b80840192508235915067ffffffffffffffff821115613615576136146135a4565b5b602083019250602082023603831315613631576136306135a9565b5b509250929050565b600082825260208201905092915050565b600080fd5b82818337505050565b60006136648385613639565b93507f07ffffffffffffffffffffffffffffffffffffffffffffffffffffffffffffff8311156136975761369661364a565b5b6020830292506136a883858461364f565b82840190509392505050565b600060608201905081810360008301526136cf818688613658565b90506136de6020830185612cb6565b6136eb6040830184612c9d565b95945050505050565b60008151905061370381613138565b92915050565b60006020828403121561371f5761371e612cf8565b5b600061372d848285016136f4565b91505092915050565b7f4e487b7100000000000000000000000000000000000000000000000000000000600052601160045260246000fd5b600061377082612cac565b915061377b83612cac565b925082820190508082111561379357613792613736565b5b92915050565b600060408201905081810360008301526137b4818587613658565b90506137c36020830184612c9d565b949350505050565b60006040820190506137e06000830186612cb6565b81810360208301526137f3818486613658565b9050949350505050565b60008151905061380c81612e13565b92915050565b60006020828403121561382857613827612cf8565b5b6000613836848285016137fd565b91505092915050565b6000604082019050818103600083015261385a818587613658565b90506138696020830184612cb6565b949350505050565b7f4f6e6c7920466163746f72790000000000000000000000000000000000000000600082015250565b60006138a7600c836134f3565b91506138b282613871565b602082019050919050565b600060208201905081810360008301526138d68161389a565b9050919050565b600080fd5b6000601f19601f8301169050919050565b7f4e487b7100000000000000000000000000000000000000000000000000000000600052604160045260246000fd5b61392b826138e2565b810181811067ffffffffffffffff8211171561394a576139496138f3565b5b80604052505050565b600061395d612cee565b90506139698282613922565b919050565b60006fffffffffffffffffffffffffffffffff82169050919050565b6139938161396e565b811461399e57600080fd5b50565b6000815190506139b08161398a565b92915050565b600060a082840312156139cc576139cb6138dd565b5b6139d660a0613953565b905060006139e6848285016139a1565b60008301525060206139fa848285016139a1565b6020830152506040613a0e848285016136f4565b6040830152506060613a22848285016136f4565b6060830152506080613a36848285016136f4565b60808301525092915050565b600060a08284031215613a5857613a57612cf8565b5b6000613a66848285016139b6565b91505092915050565b613a788161396e565b82525050565b6000604082019050613a936000830185612cb6565b613aa06020830184613a6f565b9392505050565b7f4f776e61626c653a206e6577206f776e657220697320746865207a65726f206160008201527f6464726573730000000000000000000000000000000000000000000000000000602082015250565b6000613b036026836134f3565b9150613b0e82613aa7565b604082019050919050565b60006020820190508181036000830152613b3281613af6565b9050919050565b7f4e6f742056616c75650000000000000000000000000000000000000000000000600082015250565b6000613b6f6009836134f3565b9150613b7a82613b39565b602082019050919050565b60006020820190508181036000830152613b9e81613b62565b9050919050565b6000613bb082612cac565b9150613bbb83612cac565b9250828203905081811115613bd357613bd2613736565b5b92915050565b7f4f776e61626c653a2063616c6c6572206973206e6f7420746865206f776e6572600082015250565b6000613c0f6020836134f3565b9150613c1a82613bd9565b602082019050919050565b60006020820190508181036000830152613c3e81613c02565b9050919050565b7f4e487b7100000000000000000000000000000000000000000000000000000000600052603160045260246000fd5b6000613c7f82612cac565b91507fffffffffffffffffffffffffffffffffffffffffffffffffffffffffffffffff8203613cb157613cb0613736565b5b600182019050919050565b600081519050613ccb81613075565b92915050565b600060208284031215613ce757613ce6612cf8565b5b6000613cf584828501613cbc565b9150509291505056fea2646970667358221220d929db07159f4763f09acb7ada2cdc4262e4b6dcc6b350e1f1e62500ee65b20964736f6c63430008110033",
  "linkReferences": {},
  "deployedLinkReferences": {}
}