{
  "_format": "hh-sol-artifact-1",
  "contractName": "Router",
  "sourceName": "contracts/Router.sol",
  "abi": [
    {
      "anonymous": false,
      "inputs": [
        {
          "indexed": true,
          "internalType": "address",
          "name": "previousOwner",
          "type": "address"
        },
        {
          "indexed": true,
          "internalType": "address",
          "name": "newOwner",
          "type": "address"
        }
      ],
      "name": "OwnershipTransferred",
      "type": "event"
    },
    {
      "anonymous": false,
      "inputs": [
        {
          "indexed": false,
          "internalType": "address",
          "name": "",
          "type": "address"
        },
        {
          "indexed": false,
          "internalType": "uint256",
          "name": "",
          "type": "uint256"
        }
      ],
      "name": "Received",
      "type": "event"
    },
    {
      "anonymous": false,
      "inputs": [
        {
          "indexed": true,
          "internalType": "address",
          "name": "user",
          "type": "address"
        },
        {
          "indexed": true,
          "internalType": "address",
          "name": "pool",
          "type": "address"
        },
        {
          "indexed": false,
          "internalType": "uint256",
          "name": "userNum",
          "type": "uint256"
        },
        {
          "indexed": false,
          "internalType": "uint256[]",
          "name": "tokenIds",
          "type": "uint256[]"
        }
      ],
      "name": "StakeNFT",
      "type": "event"
    },
    {
      "anonymous": false,
      "inputs": [
        {
          "indexed": true,
          "internalType": "address",
          "name": "user",
          "type": "address"
        },
        {
          "indexed": true,
          "internalType": "address",
          "name": "pool",
          "type": "address"
        },
        {
          "indexed": false,
          "internalType": "uint256[]",
          "name": "tokenIds",
          "type": "uint256[]"
        },
        {
          "indexed": false,
          "internalType": "uint256",
          "name": "totalFee",
          "type": "uint256"
        },
        {
          "indexed": false,
          "internalType": "address",
          "name": "support",
          "type": "address"
        }
      ],
      "name": "SwapFTforNFT",
      "type": "event"
    },
    {
      "anonymous": false,
      "inputs": [
        {
          "indexed": true,
          "internalType": "address",
          "name": "user",
          "type": "address"
        },
        {
          "indexed": true,
          "internalType": "address",
          "name": "pool",
          "type": "address"
        },
        {
          "indexed": false,
          "internalType": "uint256[]",
          "name": "tokenIds",
          "type": "uint256[]"
        },
        {
          "indexed": false,
          "internalType": "uint256",
          "name": "totalFee",
          "type": "uint256"
        },
        {
          "indexed": false,
          "internalType": "address",
          "name": "support",
          "type": "address"
        }
      ],
      "name": "SwapNFTforFT",
      "type": "event"
    },
    {
      "anonymous": false,
      "inputs": [
        {
          "indexed": true,
          "internalType": "address",
          "name": "user",
          "type": "address"
        },
        {
          "indexed": true,
          "internalType": "address",
          "name": "pool",
          "type": "address"
        },
        {
          "indexed": false,
          "internalType": "uint256[]",
          "name": "tokenIds",
          "type": "uint256[]"
        },
        {
          "indexed": false,
          "internalType": "uint256",
          "name": "userNum",
          "type": "uint256"
        },
        {
          "indexed": false,
          "internalType": "uint256",
          "name": "userAmount",
          "type": "uint256"
        },
        {
          "indexed": false,
          "internalType": "uint256",
          "name": "userFee",
          "type": "uint256"
        }
      ],
      "name": "WithdrawFT",
      "type": "event"
    },
    {
      "anonymous": false,
      "inputs": [
        {
          "indexed": true,
          "internalType": "address",
          "name": "user",
          "type": "address"
        },
        {
          "indexed": true,
          "internalType": "address",
          "name": "pool",
          "type": "address"
        },
        {
          "indexed": false,
          "internalType": "uint256[]",
          "name": "tokenIds",
          "type": "uint256[]"
        },
        {
          "indexed": false,
          "internalType": "uint256",
          "name": "userNum",
          "type": "uint256"
        },
        {
          "indexed": false,
          "internalType": "uint256",
          "name": "userFee",
          "type": "uint256"
        }
      ],
      "name": "WithdrawNFT",
      "type": "event"
    },
    {
      "inputs": [
        {
          "internalType": "address",
          "name": "_collection",
          "type": "address"
        },
        {
          "internalType": "address",
          "name": "_pool",
          "type": "address"
        }
      ],
      "name": "addCollectionPoolList",
      "outputs": [],
      "stateMutability": "nonpayable",
      "type": "function"
    },
    {
      "inputs": [
        {
          "internalType": "address[]",
          "name": "_poolList",
          "type": "address[]"
        },
        {
          "internalType": "uint256[]",
          "name": "_tokenIds",
          "type": "uint256[]"
        },
        {
          "internalType": "address",
          "name": "_support",
          "type": "address"
        },
        {
          "internalType": "uint256[]",
          "name": "_pattern",
          "type": "uint256[]"
        }
      ],
      "name": "batchSwapFTforNFT",
      "outputs": [],
      "stateMutability": "nonpayable",
      "type": "function"
    },
    {
      "inputs": [
        {
          "internalType": "address[]",
          "name": "_poolList",
          "type": "address[]"
        },
        {
          "internalType": "uint256[]",
          "name": "_tokenIds",
          "type": "uint256[]"
        },
        {
          "internalType": "uint256[]",
          "name": "_minExpects",
          "type": "uint256[]"
        },
        {
          "internalType": "address",
          "name": "_support",
          "type": "address"
        },
        {
          "internalType": "uint256[]",
          "name": "_pattern",
          "type": "uint256[]"
        }
      ],
      "name": "batchSwapNFTforFT",
      "outputs": [],
      "stateMutability": "nonpayable",
      "type": "function"
    },
    {
      "inputs": [
        {
          "internalType": "uint256",
          "name": "",
          "type": "uint256"
        }
      ],
      "name": "bondingCurveList",
      "outputs": [
        {
          "internalType": "address",
          "name": "",
          "type": "address"
        }
      ],
      "stateMutability": "view",
      "type": "function"
    },
    {
      "inputs": [
        {
          "internalType": "uint256",
          "name": "",
          "type": "uint256"
        }
      ],
      "name": "collectionList",
      "outputs": [
        {
          "internalType": "address",
          "name": "",
          "type": "address"
        }
      ],
      "stateMutability": "view",
      "type": "function"
    },
    {
      "inputs": [],
      "name": "getBondingCurveList",
      "outputs": [
        {
          "internalType": "address[]",
          "name": "",
          "type": "address[]"
        }
      ],
      "stateMutability": "view",
      "type": "function"
    },
    {
      "inputs": [],
      "name": "getCollectionList",
      "outputs": [
        {
          "internalType": "address[]",
          "name": "",
          "type": "address[]"
        }
      ],
      "stateMutability": "view",
      "type": "function"
    },
    {
      "inputs": [
        {
          "internalType": "address",
          "name": "_collection",
          "type": "address"
        }
      ],
      "name": "getCollectionPoolList",
      "outputs": [
        {
          "internalType": "address[]",
          "name": "",
          "type": "address[]"
        }
      ],
      "stateMutability": "view",
      "type": "function"
    },
    {
      "inputs": [
        {
          "internalType": "address",
          "name": "_bondingCurve",
          "type": "address"
        }
      ],
      "name": "getIsBondingCurveApprove",
      "outputs": [
        {
          "internalType": "bool",
          "name": "",
          "type": "bool"
        }
      ],
      "stateMutability": "view",
      "type": "function"
    },
    {
      "inputs": [
        {
          "internalType": "address",
          "name": "_collection",
          "type": "address"
        }
      ],
      "name": "getIsCollectionApprove",
      "outputs": [
        {
          "internalType": "bool",
          "name": "",
          "type": "bool"
        }
      ],
      "stateMutability": "view",
      "type": "function"
    },
    {
      "inputs": [
        {
          "internalType": "address",
          "name": "pool",
          "type": "address"
        }
      ],
      "name": "getPoolInfo",
      "outputs": [
        {
          "components": [
            {
              "internalType": "address",
              "name": "bondingCurve",
              "type": "address"
            },
            {
              "internalType": "uint128",
              "name": "spotPrice",
              "type": "uint128"
            },
            {
              "internalType": "uint128",
              "name": "delta",
              "type": "uint128"
            },
            {
              "internalType": "uint256",
              "name": "divergence",
              "type": "uint256"
            },
            {
              "internalType": "uint256",
              "name": "buyNum",
              "type": "uint256"
            },
            {
              "internalType": "uint256",
              "name": "sellNum",
              "type": "uint256"
            }
          ],
          "internalType": "struct IPool721.PoolInfo",
          "name": "poolInfo",
          "type": "tuple"
        }
      ],
      "stateMutability": "nonpayable",
      "type": "function"
    },
    {
      "inputs": [
        {
          "internalType": "address",
          "name": "_pool",
          "type": "address"
        },
        {
          "internalType": "address",
          "name": "_user",
          "type": "address"
        }
      ],
      "name": "getUserInfo",
      "outputs": [
        {
          "components": [
            {
              "internalType": "uint256",
              "name": "userInitBuyNum",
              "type": "uint256"
            },
            {
              "internalType": "uint256",
              "name": "userInitSellNum",
              "type": "uint256"
            },
            {
              "internalType": "uint256",
              "name": "userInitSellAmount",
              "type": "uint256"
            },
            {
              "internalType": "uint256",
              "name": "userNFTpoint",
              "type": "uint256"
            },
            {
              "internalType": "uint256",
              "name": "userFTpoint",
              "type": "uint256"
            }
          ],
          "internalType": "struct IPool721.UserInfo",
          "name": "userInfo",
          "type": "tuple"
        }
      ],
      "stateMutability": "nonpayable",
      "type": "function"
    },
    {
      "inputs": [],
      "name": "owner",
      "outputs": [
        {
          "internalType": "address",
          "name": "",
          "type": "address"
        }
      ],
      "stateMutability": "view",
      "type": "function"
    },
    {
      "inputs": [],
      "name": "renounceOwnership",
      "outputs": [],
      "stateMutability": "nonpayable",
      "type": "function"
    },
    {
      "inputs": [
        {
          "internalType": "address",
          "name": "_bondingCurve",
          "type": "address"
        },
        {
          "internalType": "bool",
          "name": "_approve",
          "type": "bool"
        }
      ],
      "name": "setBondingCurveApprove",
      "outputs": [],
      "stateMutability": "nonpayable",
      "type": "function"
    },
    {
      "inputs": [
        {
          "internalType": "address",
          "name": "_collection",
          "type": "address"
        },
        {
          "internalType": "bool",
          "name": "_approve",
          "type": "bool"
        }
      ],
      "name": "setCollectionApprove",
      "outputs": [],
      "stateMutability": "nonpayable",
      "type": "function"
    },
    {
      "inputs": [
        {
          "internalType": "address",
          "name": "_pool",
          "type": "address"
        },
        {
          "internalType": "uint256[]",
          "name": "_tokenIds",
          "type": "uint256[]"
        }
      ],
      "name": "stakeNFT",
      "outputs": [],
      "stateMutability": "nonpayable",
      "type": "function"
    },
    {
      "inputs": [],
      "name": "supporterFeeRatio",
      "outputs": [
        {
          "internalType": "uint256",
          "name": "",
          "type": "uint256"
        }
      ],
      "stateMutability": "view",
      "type": "function"
    },
    {
      "inputs": [
        {
          "internalType": "address",
          "name": "_pool",
          "type": "address"
        },
        {
          "internalType": "uint256[]",
          "name": "_tokenIds",
          "type": "uint256[]"
        },
        {
          "internalType": "address",
          "name": "_support",
          "type": "address"
        }
      ],
      "name": "swapFTforNFT",
      "outputs": [],
      "stateMutability": "payable",
      "type": "function"
    },
    {
      "inputs": [
        {
          "internalType": "address",
          "name": "_pool",
          "type": "address"
        },
        {
          "internalType": "uint256[]",
          "name": "_tokenIds",
          "type": "uint256[]"
        },
        {
          "internalType": "uint256",
          "name": "_minExpectFee",
          "type": "uint256"
        },
        {
          "internalType": "address",
          "name": "_support",
          "type": "address"
        }
      ],
      "name": "swapNFTforFT",
      "outputs": [],
      "stateMutability": "payable",
      "type": "function"
    },
    {
      "inputs": [],
      "name": "totalFee",
      "outputs": [
        {
          "internalType": "uint256",
          "name": "",
          "type": "uint256"
        }
      ],
      "stateMutability": "view",
      "type": "function"
    },
    {
      "inputs": [],
      "name": "totalProtocolFee",
      "outputs": [
        {
          "internalType": "uint256",
          "name": "",
          "type": "uint256"
        }
      ],
      "stateMutability": "view",
      "type": "function"
    },
    {
      "inputs": [
        {
          "internalType": "address",
          "name": "newOwner",
          "type": "address"
        }
      ],
      "name": "transferOwnership",
      "outputs": [],
      "stateMutability": "nonpayable",
      "type": "function"
    },
    {
      "inputs": [
        {
          "internalType": "address",
          "name": "_pool",
          "type": "address"
        },
        {
          "internalType": "uint256",
          "name": "_userSellNum",
          "type": "uint256"
        },
        {
          "internalType": "uint256[]",
          "name": "_tokenIds",
          "type": "uint256[]"
        }
      ],
      "name": "withdrawFT",
      "outputs": [],
      "stateMutability": "nonpayable",
      "type": "function"
    },
    {
      "inputs": [
        {
          "internalType": "address",
          "name": "_pool",
          "type": "address"
        },
        {
          "internalType": "uint256[]",
          "name": "_tokenIds",
          "type": "uint256[]"
        }
      ],
      "name": "withdrawNFT",
      "outputs": [],
      "stateMutability": "nonpayable",
      "type": "function"
    },
    {
      "inputs": [],
      "name": "withdrawProtocolFee",
      "outputs": [],
      "stateMutability": "payable",
      "type": "function"
    },
    {
      "inputs": [],
      "name": "withdrawSupportFee",
      "outputs": [],
      "stateMutability": "payable",
      "type": "function"
    },
    {
      "stateMutability": "payable",
      "type": "receive"
    }
  ],
  "bytecode": "0x608060405266b1a2bc2ec500006003553480156200001c57600080fd5b506200003d620000316200004360201b60201c565b6200004b60201b60201c565b6200010f565b600033905090565b60008060009054906101000a900473ffffffffffffffffffffffffffffffffffffffff169050816000806101000a81548173ffffffffffffffffffffffffffffffffffffffff021916908373ffffffffffffffffffffffffffffffffffffffff1602179055508173ffffffffffffffffffffffffffffffffffffffff168173ffffffffffffffffffffffffffffffffffffffff167f8be0079c531659141344cd1fd0a4f28419497f9722a3daafe3b4186f6b6457e060405160405180910390a35050565b613527806200011f6000396000f3fe6080604052600436106101a05760003560e01c80638da5cb5b116100ec578063d6775e981161008a578063f2801fe711610064578063f2801fe71461059a578063f2fde38b146105d7578063fc5a0df514610600578063fc9d16cd1461063d576101e0565b8063d6775e9814610518578063dd4b533f14610541578063e3b4403d1461055d576101e0565b8063a7b60297116100c6578063a7b6029714610457578063b65bfbf014610494578063bc0a0bd0146104d1578063cab5c30e146104fc576101e0565b80638da5cb5b146103da5780639175a588146104055780639bdedea51461042e576101e0565b80635befecc811610159578063752d121c11610133578063752d121c14610320578063779f15831461035d57806388611f35146103865780638d3b6eb3146103b1576101e0565b80635befecc8146102b75780635f1c325d146102e0578063715018a614610309576101e0565b806306bfa938146101e557806312b71c21146102225780631df4ccfc1461022c578063361eaa53146102575780634906a2a81461028257806359d8da92146102ad576101e0565b366101e0577f88a5966d370b9919b20f3e2c13ff65706f196a4e32cc2c12bf57088f8852587433346040516101d69291906122b7565b60405180910390a1005b600080fd5b3480156101f157600080fd5b5061020c60048036038101906102079190612320565b610666565b6040516102199190612411565b60405180910390f35b61022a6106e6565b005b34801561023857600080fd5b5061024161083f565b60405161024e919061242c565b60405180910390f35b34801561026357600080fd5b5061026c610845565b60405161027991906124f6565b60405180910390f35b34801561028e57600080fd5b506102976108d3565b6040516102a491906124f6565b60405180910390f35b6102b5610961565b005b3480156102c357600080fd5b506102de60048036038101906102d991906127bb565b6109bc565b005b3480156102ec57600080fd5b506103076004803603810190610302919061287b565b610b27565b005b34801561031557600080fd5b5061031e610bd4565b005b34801561032c57600080fd5b50610347600480360381019061034291906128bb565b610be8565b60405161035491906128e8565b60405180910390f35b34801561036957600080fd5b50610384600480360381019061037f9190612903565b610c27565b005b34801561039257600080fd5b5061039b610e19565b6040516103a8919061242c565b60405180910390f35b3480156103bd57600080fd5b506103d860048036038101906103d391906129af565b610e1f565b005b3480156103e657600080fd5b506103ef610f64565b6040516103fc91906128e8565b60405180910390f35b34801561041157600080fd5b5061042c600480360381019061042791906129ef565b610f8d565b005b34801561043a57600080fd5b50610455600480360381019061045091906129ef565b61110d565b005b34801561046357600080fd5b5061047e600480360381019061047991906128bb565b6112fa565b60405161048b91906128e8565b60405180910390f35b3480156104a057600080fd5b506104bb60048036038101906104b69190612320565b611339565b6040516104c89190612a5e565b60405180910390f35b3480156104dd57600080fd5b506104e661138f565b6040516104f3919061242c565b60405180910390f35b61051660048036038101906105119190612a79565b611395565b005b34801561052457600080fd5b5061053f600480360381019061053a9190612aed565b6115ae565b005b61055b60048036038101906105569190612be1565b611736565b005b34801561056957600080fd5b50610584600480360381019061057f9190612320565b611951565b60405161059191906124f6565b60405180910390f35b3480156105a657600080fd5b506105c160048036038101906105bc919061287b565b611a1e565b6040516105ce9190612cd1565b60405180910390f35b3480156105e357600080fd5b506105fe60048036038101906105f99190612320565b611aaa565b005b34801561060c57600080fd5b5061062760048036038101906106229190612320565b611b2d565b6040516106349190612a5e565b60405180910390f35b34801561064957600080fd5b50610664600480360381019061065f91906129af565b611b83565b005b61066e6121be565b8173ffffffffffffffffffffffffffffffffffffffff166360246c886040518163ffffffff1660e01b815260040160c0604051808303816000875af11580156106bb573d6000803e3d6000fd5b505050506040513d601f19601f820116820180604052508101906106df9190612de7565b9050919050565b600b60003373ffffffffffffffffffffffffffffffffffffffff1673ffffffffffffffffffffffffffffffffffffffff16815260200190815260200160002060009054906101000a900460ff16610772576040517f08c379a000000000000000000000000000000000000000000000000000000000815260040161076990612e71565b60405180910390fd5b6000600a60003373ffffffffffffffffffffffffffffffffffffffff1673ffffffffffffffffffffffffffffffffffffffff168152602001908152602001600020819055503373ffffffffffffffffffffffffffffffffffffffff166108fc600a60003373ffffffffffffffffffffffffffffffffffffffff1673ffffffffffffffffffffffffffffffffffffffff168152602001908152602001600020549081150290604051600060405180830381858888f1935050505015801561083c573d6000803e3d6000fd5b50565b60025481565b606060058054806020026020016040519081016040528092919081815260200182805480156108c957602002820191906000526020600020905b8160009054906101000a900473ffffffffffffffffffffffffffffffffffffffff1673ffffffffffffffffffffffffffffffffffffffff168152602001906001019080831161087f575b5050505050905090565b6060600480548060200260200160405190810160405280929190818152602001828054801561095757602002820191906000526020600020905b8160009054906101000a900473ffffffffffffffffffffffffffffffffffffffff1673ffffffffffffffffffffffffffffffffffffffff168152602001906001019080831161090d575b5050505050905090565b610969611cc0565b60006001819055503373ffffffffffffffffffffffffffffffffffffffff166108fc6001549081150290604051600060405180830381858888f193505050501580156109b9573d6000803e3d6000fd5b50565b600080600090505b8251811015610b0057606060005b8483815181106109e5576109e4612e91565b5b6020026020010151811015610a4057878784818110610a0757610a06612e91565b5b90506020020135828281518110610a2157610a20612e91565b5b6020026020010181815250508080610a3890612eef565b9150506109d2565b506000888381518110610a5657610a55612e91565b5b602002602001015173ffffffffffffffffffffffffffffffffffffffff16634c4cbac483336040518363ffffffff1660e01b8152600401610a98929190612fe6565b6020604051808303816000875af1158015610ab7573d6000803e3d6000fd5b505050506040513d601f19601f82011682018060405250810190610adb9190613016565b90508084610ae99190613043565b935050508080610af890612eef565b9150506109c4565b50600080610b0d83611d3e565b91509150610b1d83838784611d75565b5050505050505050565b610b3081611e03565b600660008373ffffffffffffffffffffffffffffffffffffffff1673ffffffffffffffffffffffffffffffffffffffff168152602001908152602001600020819080600181540180825580915050600190039060005260206000200160009091909190916101000a81548173ffffffffffffffffffffffffffffffffffffffff021916908373ffffffffffffffffffffffffffffffffffffffff1602179055505050565b610bdc611cc0565b610be66000611e9c565b565b60058181548110610bf857600080fd5b906000526020600020016000915054906101000a900473ffffffffffffffffffffffffffffffffffffffff1681565b60008473ffffffffffffffffffffffffffffffffffffffff16636386c1c7336040518263ffffffff1660e01b8152600401610c6291906128e8565b60a0604051808303816000875af1158015610c81573d6000803e3d6000fd5b505050506040513d601f19601f82011682018060405250810190610ca59190613103565b905060008573ffffffffffffffffffffffffffffffffffffffff16636b469d39336040518263ffffffff1660e01b8152600401610ce291906128e8565b602060405180830381865afa158015610cff573d6000803e3d6000fd5b505050506040513d601f19601f82011682018060405250810190610d239190613016565b9050610d2f3387611f60565b8573ffffffffffffffffffffffffffffffffffffffff166350902c17868686336040518563ffffffff1660e01b8152600401610d6e949392919061319a565b600060405180830381600087803b158015610d8857600080fd5b505af1158015610d9c573d6000803e3d6000fd5b505050508573ffffffffffffffffffffffffffffffffffffffff163373ffffffffffffffffffffffffffffffffffffffff167f38509f732bb9449e12686234757304da4b853110ebc8ece9a12bba31a4fcb91b868689876040015187604051610e099594939291906131da565b60405180910390a3505050505050565b60015481565b610e27611cc0565b6001151581151503610ef2576004829080600181540180825580915050600190039060005260206000200160009091909190916101000a81548173ffffffffffffffffffffffffffffffffffffffff021916908373ffffffffffffffffffffffffffffffffffffffff16021790555080600960008473ffffffffffffffffffffffffffffffffffffffff1673ffffffffffffffffffffffffffffffffffffffff16815260200190815260200160002060006101000a81548160ff021916908315150217905550610f60565b6000151581151503610f5f57610f0782611fac565b80600960008473ffffffffffffffffffffffffffffffffffffffff1673ffffffffffffffffffffffffffffffffffffffff16815260200190815260200160002060006101000a81548160ff0219169083151502179055505b5b5050565b60008060009054906101000a900473ffffffffffffffffffffffffffffffffffffffff16905090565b600860003373ffffffffffffffffffffffffffffffffffffffff1673ffffffffffffffffffffffffffffffffffffffff168152602001908152602001600020839080600181540180825580915050600190039060005260206000200160009091909190916101000a81548173ffffffffffffffffffffffffffffffffffffffff021916908373ffffffffffffffffffffffffffffffffffffffff1602179055508273ffffffffffffffffffffffffffffffffffffffff16632f7e0b2e8383336040518463ffffffff1660e01b815260040161106a93929190613228565b600060405180830381600087803b15801561108457600080fd5b505af1158015611098573d6000803e3d6000fd5b505050508273ffffffffffffffffffffffffffffffffffffffff163373ffffffffffffffffffffffffffffffffffffffff167f285e2df175d03ce53bf542c949e8a0add3b654d3911402bbb71e9bb46c82dad58484905085856040516111009392919061325a565b60405180910390a3505050565b60008373ffffffffffffffffffffffffffffffffffffffff16636386c1c7336040518263ffffffff1660e01b815260040161114891906128e8565b60a0604051808303816000875af1158015611167573d6000803e3d6000fd5b505050506040513d601f19601f8201168201806040525081019061118b9190613103565b905060008473ffffffffffffffffffffffffffffffffffffffff1663cb6f0d34336040518263ffffffff1660e01b81526004016111c891906128e8565b602060405180830381865afa1580156111e5573d6000803e3d6000fd5b505050506040513d601f19601f820116820180604052508101906112099190613016565b90506112153386611f60565b8473ffffffffffffffffffffffffffffffffffffffff16632c7e49158585336040518463ffffffff1660e01b815260040161125293929190613228565b600060405180830381600087803b15801561126c57600080fd5b505af1158015611280573d6000803e3d6000fd5b505050508473ffffffffffffffffffffffffffffffffffffffff163373ffffffffffffffffffffffffffffffffffffffff167f758b8b45d172370c222fe8b7156d4c6f1367f8676604a31e2ac73311b192b1e686868660000151866040516112eb949392919061328c565b60405180910390a35050505050565b6004818154811061130a57600080fd5b906000526020600020016000915054906101000a900473ffffffffffffffffffffffffffffffffffffffff1681565b6000600960008373ffffffffffffffffffffffffffffffffffffffff1673ffffffffffffffffffffffffffffffffffffffff16815260200190815260200160002060009054906101000a900460ff169050919050565b60035481565b60008473ffffffffffffffffffffffffffffffffffffffff166360246c886040518163ffffffff1660e01b815260040160c0604051808303816000875af11580156113e4573d6000803e3d6000fd5b505050506040513d601f19601f820116820180604052508101906114089190612de7565b905060008573ffffffffffffffffffffffffffffffffffffffff16635315383686869050846020015185606001516040518463ffffffff1660e01b8152600401611454939291906132db565b602060405180830381865afa158015611471573d6000803e3d6000fd5b505050506040513d601f19601f820116820180604052508101906114959190613016565b905060008673ffffffffffffffffffffffffffffffffffffffff16634c4cbac4348888336040518563ffffffff1660e01b81526004016114d793929190613228565b60206040518083038185885af11580156114f5573d6000803e3d6000fd5b50505050506040513d601f19601f8201168201806040525081019061151a9190613016565b905060008061152883611d3e565b9150915061153883838884611d75565b8873ffffffffffffffffffffffffffffffffffffffff163373ffffffffffffffffffffffffffffffffffffffff167f2611defd53a4a87419d2078554db30aeaddd9ddfdc5990da2bbdc8d589f5e4d68a8a888b60405161159b9493929190613312565b60405180910390a3505050505050505050565b600080600090505b825181101561170d57606060005b8483815181106115d7576115d6612e91565b5b6020026020010151811015611632578989848181106115f9576115f8612e91565b5b9050602002013582828151811061161357611612612e91565b5b602002602001018181525050808061162a90612eef565b9150506115c4565b5060008a838151811061164857611647612e91565b5b602002602001015173ffffffffffffffffffffffffffffffffffffffff1663244117b4838a8a8781811061167f5761167e612e91565b5b90506020020135336040518463ffffffff1660e01b81526004016116a593929190613352565b6020604051808303816000875af11580156116c4573d6000803e3d6000fd5b505050506040513d601f19601f820116820180604052508101906116e89190613016565b905080846116f69190613043565b93505050808061170590612eef565b9150506115b6565b5060008061171a83611d3e565b9150915061172a83838784611d75565b50505050505050505050565b60008573ffffffffffffffffffffffffffffffffffffffff166360246c886040518163ffffffff1660e01b815260040160c0604051808303816000875af1158015611785573d6000803e3d6000fd5b505050506040513d601f19601f820116820180604052508101906117a99190612de7565b905060008673ffffffffffffffffffffffffffffffffffffffff1663341d15fd87879050846020015185606001516040518463ffffffff1660e01b81526004016117f5939291906132db565b602060405180830381865afa158015611812573d6000803e3d6000fd5b505050506040513d601f19601f820116820180604052508101906118369190613016565b905060008773ffffffffffffffffffffffffffffffffffffffff1663244117b4888888336040518563ffffffff1660e01b81526004016118799493929190613312565b6020604051808303816000875af1158015611898573d6000803e3d6000fd5b505050506040513d601f19601f820116820180604052508101906118bc9190613016565b90506000806118ca83611d3e565b915091506118da83838884611d75565b8973ffffffffffffffffffffffffffffffffffffffff163373ffffffffffffffffffffffffffffffffffffffff167f8f3673bd023cc34f252b9e7d0a0dd6496592b87006673a974d1d621b5a93e15e8b8b888b60405161193d9493929190613312565b60405180910390a350505050505050505050565b6060600660008373ffffffffffffffffffffffffffffffffffffffff1673ffffffffffffffffffffffffffffffffffffffff168152602001908152602001600020805480602002602001604051908101604052809291908181526020018280548015611a1257602002820191906000526020600020905b8160009054906101000a900473ffffffffffffffffffffffffffffffffffffffff1673ffffffffffffffffffffffffffffffffffffffff16815260200190600101908083116119c8575b50505050509050919050565b611a2661222e565b8273ffffffffffffffffffffffffffffffffffffffff16636386c1c7836040518263ffffffff1660e01b8152600401611a5f91906128e8565b60a0604051808303816000875af1158015611a7e573d6000803e3d6000fd5b505050506040513d601f19601f82011682018060405250810190611aa29190613103565b905092915050565b611ab2611cc0565b600073ffffffffffffffffffffffffffffffffffffffff168173ffffffffffffffffffffffffffffffffffffffff1603611b21576040517f08c379a0000000000000000000000000000000000000000000000000000000008152600401611b1890613402565b60405180910390fd5b611b2a81611e9c565b50565b6000600760008373ffffffffffffffffffffffffffffffffffffffff1673ffffffffffffffffffffffffffffffffffffffff16815260200190815260200160002060009054906101000a900460ff169050919050565b611b8b611cc0565b6001151581151503611c56576005829080600181540180825580915050600190039060005260206000200160009091909190916101000a81548173ffffffffffffffffffffffffffffffffffffffff021916908373ffffffffffffffffffffffffffffffffffffffff16021790555080600760008473ffffffffffffffffffffffffffffffffffffffff1673ffffffffffffffffffffffffffffffffffffffff16815260200190815260200160002060006101000a81548160ff021916908315150217905550611cbc565b6000151581151503611cbb57611c6b82611fba565b801515600760008473ffffffffffffffffffffffffffffffffffffffff1673ffffffffffffffffffffffffffffffffffffffff16815260200190815260200160002060009054906101000a905050505b5b5050565b611cc8611fc8565b73ffffffffffffffffffffffffffffffffffffffff16611ce6610f64565b73ffffffffffffffffffffffffffffffffffffffff1614611d3c576040517f08c379a0000000000000000000000000000000000000000000000000000000008152600401611d339061346e565b60405180910390fd5b565b600080611d60600354670de0b6b3a764000085611fd09092919063ffffffff16565b90508083611d6e919061348e565b9150915091565b8360026000828254611d879190613043565b925050819055508260016000828254611da09190613043565b9250508190555080600a60008473ffffffffffffffffffffffffffffffffffffffff1673ffffffffffffffffffffffffffffffffffffffff1681526020019081526020016000206000828254611df69190613043565b9250508190555050505050565b611e9981604051602401611e1791906128e8565b6040516020818303038152906040527f2c2ecbc2000000000000000000000000000000000000000000000000000000007bffffffffffffffffffffffffffffffffffffffffffffffffffffffff19166020820180517bffffffffffffffffffffffffffffffffffffffffffffffffffffffff8381831617835250505050611ff4565b50565b60008060009054906101000a900473ffffffffffffffffffffffffffffffffffffffff169050816000806101000a81548173ffffffffffffffffffffffffffffffffffffffff021916908373ffffffffffffffffffffffffffffffffffffffff1602179055508173ffffffffffffffffffffffffffffffffffffffff168173ffffffffffffffffffffffffffffffffffffffff167f8be0079c531659141344cd1fd0a4f28419497f9722a3daafe3b4186f6b6457e060405160405180910390a35050565b611fa8600860008473ffffffffffffffffffffffffffffffffffffffff1673ffffffffffffffffffffffffffffffffffffffff1681526020019081526020016000208261201d565b5050565b611fb760048261201d565b50565b611fc560058261201d565b50565b600033905090565b600082840290508284820414841517611fe857600080fd5b81810490509392505050565b60008151905060006a636f6e736f6c652e6c6f679050602083016000808483855afa5050505050565b60008280549050905060005b818110156121b8578273ffffffffffffffffffffffffffffffffffffffff1684828154811061205b5761205a612e91565b5b9060005260206000200160009054906101000a900473ffffffffffffffffffffffffffffffffffffffff1673ffffffffffffffffffffffffffffffffffffffff16036121a5576001826120ae919061348e565b811461215a57836001836120c2919061348e565b815481106120d3576120d2612e91565b5b9060005260206000200160009054906101000a900473ffffffffffffffffffffffffffffffffffffffff1684828154811061211157612110612e91565b5b9060005260206000200160006101000a81548173ffffffffffffffffffffffffffffffffffffffff021916908373ffffffffffffffffffffffffffffffffffffffff1602179055505b8380548061216b5761216a6134c2565b5b6001900381819060005260206000200160006101000a81549073ffffffffffffffffffffffffffffffffffffffff021916905590556121b8565b80806121b090612eef565b915050612029565b50505050565b6040518060c00160405280600073ffffffffffffffffffffffffffffffffffffffff16815260200160006fffffffffffffffffffffffffffffffff16815260200160006fffffffffffffffffffffffffffffffff1681526020016000815260200160008152602001600081525090565b6040518060a0016040528060008152602001600081526020016000815260200160008152602001600081525090565b600073ffffffffffffffffffffffffffffffffffffffff82169050919050565b60006122888261225d565b9050919050565b6122988161227d565b82525050565b6000819050919050565b6122b18161229e565b82525050565b60006040820190506122cc600083018561228f565b6122d960208301846122a8565b9392505050565b6000604051905090565b600080fd5b600080fd5b6122fd8161227d565b811461230857600080fd5b50565b60008135905061231a816122f4565b92915050565b600060208284031215612336576123356122ea565b5b60006123448482850161230b565b91505092915050565b6123568161227d565b82525050565b60006fffffffffffffffffffffffffffffffff82169050919050565b6123818161235c565b82525050565b6123908161229e565b82525050565b60c0820160008201516123ac600085018261234d565b5060208201516123bf6020850182612378565b5060408201516123d26040850182612378565b5060608201516123e56060850182612387565b5060808201516123f86080850182612387565b5060a082015161240b60a0850182612387565b50505050565b600060c0820190506124266000830184612396565b92915050565b600060208201905061244160008301846122a8565b92915050565b600081519050919050565b600082825260208201905092915050565b6000819050602082019050919050565b600061247f838361234d565b60208301905092915050565b6000602082019050919050565b60006124a382612447565b6124ad8185612452565b93506124b883612463565b8060005b838110156124e95781516124d08882612473565b97506124db8361248b565b9250506001810190506124bc565b5085935050505092915050565b600060208201905081810360008301526125108184612498565b905092915050565b600080fd5b6000601f19601f8301169050919050565b7f4e487b7100000000000000000000000000000000000000000000000000000000600052604160045260246000fd5b6125668261251d565b810181811067ffffffffffffffff821117156125855761258461252e565b5b80604052505050565b60006125986122e0565b90506125a4828261255d565b919050565b600067ffffffffffffffff8211156125c4576125c361252e565b5b602082029050602081019050919050565b600080fd5b60006125ed6125e8846125a9565b61258e565b905080838252602082019050602084028301858111156126105761260f6125d5565b5b835b818110156126395780612625888261230b565b845260208401935050602081019050612612565b5050509392505050565b600082601f83011261265857612657612518565b5b81356126688482602086016125da565b91505092915050565b600080fd5b60008083601f84011261268c5761268b612518565b5b8235905067ffffffffffffffff8111156126a9576126a8612671565b5b6020830191508360208202830111156126c5576126c46125d5565b5b9250929050565b600067ffffffffffffffff8211156126e7576126e661252e565b5b602082029050602081019050919050565b6127018161229e565b811461270c57600080fd5b50565b60008135905061271e816126f8565b92915050565b6000612737612732846126cc565b61258e565b9050808382526020820190506020840283018581111561275a576127596125d5565b5b835b81811015612783578061276f888261270f565b84526020840193505060208101905061275c565b5050509392505050565b600082601f8301126127a2576127a1612518565b5b81356127b2848260208601612724565b91505092915050565b6000806000806000608086880312156127d7576127d66122ea565b5b600086013567ffffffffffffffff8111156127f5576127f46122ef565b5b61280188828901612643565b955050602086013567ffffffffffffffff811115612822576128216122ef565b5b61282e88828901612676565b945094505060406128418882890161230b565b925050606086013567ffffffffffffffff811115612862576128616122ef565b5b61286e8882890161278d565b9150509295509295909350565b60008060408385031215612892576128916122ea565b5b60006128a08582860161230b565b92505060206128b18582860161230b565b9150509250929050565b6000602082840312156128d1576128d06122ea565b5b60006128df8482850161270f565b91505092915050565b60006020820190506128fd600083018461228f565b92915050565b6000806000806060858703121561291d5761291c6122ea565b5b600061292b8782880161230b565b945050602061293c8782880161270f565b935050604085013567ffffffffffffffff81111561295d5761295c6122ef565b5b61296987828801612676565b925092505092959194509250565b60008115159050919050565b61298c81612977565b811461299757600080fd5b50565b6000813590506129a981612983565b92915050565b600080604083850312156129c6576129c56122ea565b5b60006129d48582860161230b565b92505060206129e58582860161299a565b9150509250929050565b600080600060408486031215612a0857612a076122ea565b5b6000612a168682870161230b565b935050602084013567ffffffffffffffff811115612a3757612a366122ef565b5b612a4386828701612676565b92509250509250925092565b612a5881612977565b82525050565b6000602082019050612a736000830184612a4f565b92915050565b60008060008060608587031215612a9357612a926122ea565b5b6000612aa18782880161230b565b945050602085013567ffffffffffffffff811115612ac257612ac16122ef565b5b612ace87828801612676565b93509350506040612ae18782880161230b565b91505092959194509250565b600080600080600080600060a0888a031215612b0c57612b0b6122ea565b5b600088013567ffffffffffffffff811115612b2a57612b296122ef565b5b612b368a828b01612643565b975050602088013567ffffffffffffffff811115612b5757612b566122ef565b5b612b638a828b01612676565b9650965050604088013567ffffffffffffffff811115612b8657612b856122ef565b5b612b928a828b01612676565b94509450506060612ba58a828b0161230b565b925050608088013567ffffffffffffffff811115612bc657612bc56122ef565b5b612bd28a828b0161278d565b91505092959891949750929550565b600080600080600060808688031215612bfd57612bfc6122ea565b5b6000612c0b8882890161230b565b955050602086013567ffffffffffffffff811115612c2c57612c2b6122ef565b5b612c3888828901612676565b94509450506040612c4b8882890161270f565b9250506060612c5c8882890161230b565b9150509295509295909350565b60a082016000820151612c7f6000850182612387565b506020820151612c926020850182612387565b506040820151612ca56040850182612387565b506060820151612cb86060850182612387565b506080820151612ccb6080850182612387565b50505050565b600060a082019050612ce66000830184612c69565b92915050565b600080fd5b600081519050612d00816122f4565b92915050565b612d0f8161235c565b8114612d1a57600080fd5b50565b600081519050612d2c81612d06565b92915050565b600081519050612d41816126f8565b92915050565b600060c08284031215612d5d57612d5c612cec565b5b612d6760c061258e565b90506000612d7784828501612cf1565b6000830152506020612d8b84828501612d1d565b6020830152506040612d9f84828501612d1d565b6040830152506060612db384828501612d32565b6060830152506080612dc784828501612d32565b60808301525060a0612ddb84828501612d32565b60a08301525092915050565b600060c08284031215612dfd57612dfc6122ea565b5b6000612e0b84828501612d47565b91505092915050565b600082825260208201905092915050565b7f596f7520646f6e2774206861766520737570706f7274657220617070726f7665600082015250565b6000612e5b602083612e14565b9150612e6682612e25565b602082019050919050565b60006020820190508181036000830152612e8a81612e4e565b9050919050565b7f4e487b7100000000000000000000000000000000000000000000000000000000600052603260045260246000fd5b7f4e487b7100000000000000000000000000000000000000000000000000000000600052601160045260246000fd5b6000612efa8261229e565b91507fffffffffffffffffffffffffffffffffffffffffffffffffffffffffffffffff8203612f2c57612f2b612ec0565b5b600182019050919050565b600081519050919050565b600082825260208201905092915050565b6000819050602082019050919050565b6000612f6f8383612387565b60208301905092915050565b6000602082019050919050565b6000612f9382612f37565b612f9d8185612f42565b9350612fa883612f53565b8060005b83811015612fd9578151612fc08882612f63565b9750612fcb83612f7b565b925050600181019050612fac565b5085935050505092915050565b600060408201905081810360008301526130008185612f88565b905061300f602083018461228f565b9392505050565b60006020828403121561302c5761302b6122ea565b5b600061303a84828501612d32565b91505092915050565b600061304e8261229e565b91506130598361229e565b925082820190508082111561307157613070612ec0565b5b92915050565b600060a0828403121561308d5761308c612cec565b5b61309760a061258e565b905060006130a784828501612d32565b60008301525060206130bb84828501612d32565b60208301525060406130cf84828501612d32565b60408301525060606130e384828501612d32565b60608301525060806130f784828501612d32565b60808301525092915050565b600060a08284031215613119576131186122ea565b5b600061312784828501613077565b91505092915050565b600080fd5b82818337505050565b600061314a8385612f42565b93507f07ffffffffffffffffffffffffffffffffffffffffffffffffffffffffffffff83111561317d5761317c613130565b5b60208302925061318e838584613135565b82840190509392505050565b60006060820190506131af60008301876122a8565b81810360208301526131c281858761313e565b90506131d1604083018461228f565b95945050505050565b600060808201905081810360008301526131f581878961313e565b905061320460208301866122a8565b61321160408301856122a8565b61321e60608301846122a8565b9695505050505050565b6000604082019050818103600083015261324381858761313e565b9050613252602083018461228f565b949350505050565b600060408201905061326f60008301866122a8565b818103602083015261328281848661313e565b9050949350505050565b600060608201905081810360008301526132a781868861313e565b90506132b660208301856122a8565b6132c360408301846122a8565b95945050505050565b6132d58161235c565b82525050565b60006060820190506132f060008301866122a8565b6132fd60208301856132cc565b61330a60408301846122a8565b949350505050565b6000606082019050818103600083015261332d81868861313e565b905061333c60208301856122a8565b613349604083018461228f565b95945050505050565b6000606082019050818103600083015261336c8186612f88565b905061337b60208301856122a8565b613388604083018461228f565b949350505050565b7f4f776e61626c653a206e6577206f776e657220697320746865207a65726f206160008201527f6464726573730000000000000000000000000000000000000000000000000000602082015250565b60006133ec602683612e14565b91506133f782613390565b604082019050919050565b6000602082019050818103600083015261341b816133df565b9050919050565b7f4f776e61626c653a2063616c6c6572206973206e6f7420746865206f776e6572600082015250565b6000613458602083612e14565b915061346382613422565b602082019050919050565b600060208201905081810360008301526134878161344b565b9050919050565b60006134998261229e565b91506134a48361229e565b92508282039050818111156134bc576134bb612ec0565b5b92915050565b7f4e487b7100000000000000000000000000000000000000000000000000000000600052603160045260246000fdfea264697066735822122016d41bb73e55a00a63d0bfb95957d479c35684d95572b2ba7ceb6c7c5ce9474964736f6c63430008100033",
  "linkReferences": {},
  "deployedLinkReferences": {}
}