{
  "_format": "hh-sol-artifact-1",
  "contractName": "Router",
  "sourceName": "contracts/Router.sol",
  "abi": [
    {
      "anonymous": false,
      "inputs": [
        {
          "indexed": true,
          "internalType": "address",
          "name": "previousOwner",
          "type": "address"
        },
        {
          "indexed": true,
          "internalType": "address",
          "name": "newOwner",
          "type": "address"
        }
      ],
      "name": "OwnershipTransferred",
      "type": "event"
    },
    {
      "anonymous": false,
      "inputs": [
        {
          "indexed": false,
          "internalType": "address",
          "name": "",
          "type": "address"
        },
        {
          "indexed": false,
          "internalType": "uint256",
          "name": "",
          "type": "uint256"
        }
      ],
      "name": "Received",
      "type": "event"
    },
    {
      "anonymous": false,
      "inputs": [
        {
          "indexed": true,
          "internalType": "address",
          "name": "user",
          "type": "address"
        },
        {
          "indexed": true,
          "internalType": "address",
          "name": "pool",
          "type": "address"
        },
        {
          "indexed": false,
          "internalType": "uint256",
          "name": "userNum",
          "type": "uint256"
        },
        {
          "indexed": false,
          "internalType": "uint256[]",
          "name": "tokenIds",
          "type": "uint256[]"
        }
      ],
      "name": "StakeNFT",
      "type": "event"
    },
    {
      "anonymous": false,
      "inputs": [
        {
          "indexed": true,
          "internalType": "address",
          "name": "user",
          "type": "address"
        },
        {
          "indexed": true,
          "internalType": "address",
          "name": "pool",
          "type": "address"
        },
        {
          "indexed": false,
          "internalType": "uint256[]",
          "name": "tokenIds",
          "type": "uint256[]"
        },
        {
          "indexed": false,
          "internalType": "uint256",
          "name": "totalFee",
          "type": "uint256"
        },
        {
          "indexed": false,
          "internalType": "address",
          "name": "support",
          "type": "address"
        }
      ],
      "name": "SwapFTforNFT",
      "type": "event"
    },
    {
      "anonymous": false,
      "inputs": [
        {
          "indexed": true,
          "internalType": "address",
          "name": "user",
          "type": "address"
        },
        {
          "indexed": true,
          "internalType": "address",
          "name": "pool",
          "type": "address"
        },
        {
          "indexed": false,
          "internalType": "uint256[]",
          "name": "tokenIds",
          "type": "uint256[]"
        },
        {
          "indexed": false,
          "internalType": "uint256",
          "name": "totalFee",
          "type": "uint256"
        },
        {
          "indexed": false,
          "internalType": "address",
          "name": "support",
          "type": "address"
        }
      ],
      "name": "SwapNFTforFT",
      "type": "event"
    },
    {
      "anonymous": false,
      "inputs": [
        {
          "indexed": true,
          "internalType": "address",
          "name": "user",
          "type": "address"
        },
        {
          "indexed": true,
          "internalType": "address",
          "name": "pool",
          "type": "address"
        },
        {
          "indexed": false,
          "internalType": "uint256[]",
          "name": "tokenIds",
          "type": "uint256[]"
        },
        {
          "indexed": false,
          "internalType": "uint256",
          "name": "userNum",
          "type": "uint256"
        },
        {
          "indexed": false,
          "internalType": "uint256",
          "name": "userAmount",
          "type": "uint256"
        },
        {
          "indexed": false,
          "internalType": "uint256",
          "name": "userFee",
          "type": "uint256"
        }
      ],
      "name": "WithdrawFT",
      "type": "event"
    },
    {
      "anonymous": false,
      "inputs": [
        {
          "indexed": true,
          "internalType": "address",
          "name": "user",
          "type": "address"
        },
        {
          "indexed": true,
          "internalType": "address",
          "name": "pool",
          "type": "address"
        },
        {
          "indexed": false,
          "internalType": "uint256[]",
          "name": "tokenIds",
          "type": "uint256[]"
        },
        {
          "indexed": false,
          "internalType": "uint256",
          "name": "userNum",
          "type": "uint256"
        },
        {
          "indexed": false,
          "internalType": "uint256",
          "name": "userFee",
          "type": "uint256"
        }
      ],
      "name": "WithdrawNFT",
      "type": "event"
    },
    {
      "inputs": [
        {
          "internalType": "address",
          "name": "_collection",
          "type": "address"
        },
        {
          "internalType": "address",
          "name": "_pool",
          "type": "address"
        }
      ],
      "name": "addCollectionPoolList",
      "outputs": [],
      "stateMutability": "nonpayable",
      "type": "function"
    },
    {
      "inputs": [
        {
          "internalType": "address[]",
          "name": "_poolList",
          "type": "address[]"
        },
        {
          "internalType": "uint256[]",
          "name": "_tokenIds",
          "type": "uint256[]"
        },
        {
          "internalType": "address",
          "name": "_support",
          "type": "address"
        },
        {
          "internalType": "uint256[]",
          "name": "_pattern",
          "type": "uint256[]"
        }
      ],
      "name": "batchSwapFTforNFT",
      "outputs": [],
      "stateMutability": "nonpayable",
      "type": "function"
    },
    {
      "inputs": [
        {
          "internalType": "address[]",
          "name": "_poolList",
          "type": "address[]"
        },
        {
          "internalType": "uint256[]",
          "name": "_tokenIds",
          "type": "uint256[]"
        },
        {
          "internalType": "uint256[]",
          "name": "_minExpects",
          "type": "uint256[]"
        },
        {
          "internalType": "address",
          "name": "_support",
          "type": "address"
        },
        {
          "internalType": "uint256[]",
          "name": "_pattern",
          "type": "uint256[]"
        }
      ],
      "name": "batchSwapNFTforFT",
      "outputs": [],
      "stateMutability": "nonpayable",
      "type": "function"
    },
    {
      "inputs": [
        {
          "internalType": "uint256",
          "name": "",
          "type": "uint256"
        }
      ],
      "name": "bondingCurveList",
      "outputs": [
        {
          "internalType": "address",
          "name": "",
          "type": "address"
        }
      ],
      "stateMutability": "view",
      "type": "function"
    },
    {
      "inputs": [
        {
          "internalType": "uint256",
          "name": "",
          "type": "uint256"
        }
      ],
      "name": "collectionList",
      "outputs": [
        {
          "internalType": "address",
          "name": "",
          "type": "address"
        }
      ],
      "stateMutability": "view",
      "type": "function"
    },
    {
      "inputs": [],
      "name": "getBondingCurveList",
      "outputs": [
        {
          "internalType": "address[]",
          "name": "",
          "type": "address[]"
        }
      ],
      "stateMutability": "view",
      "type": "function"
    },
    {
      "inputs": [],
      "name": "getCollectionList",
      "outputs": [
        {
          "internalType": "address[]",
          "name": "",
          "type": "address[]"
        }
      ],
      "stateMutability": "view",
      "type": "function"
    },
    {
      "inputs": [
        {
          "internalType": "address",
          "name": "_collection",
          "type": "address"
        }
      ],
      "name": "getCollectionPoolList",
      "outputs": [
        {
          "internalType": "address[]",
          "name": "",
          "type": "address[]"
        }
      ],
      "stateMutability": "view",
      "type": "function"
    },
    {
      "inputs": [
        {
          "internalType": "address",
          "name": "_bondingCurve",
          "type": "address"
        }
      ],
      "name": "getIsBondingCurveApprove",
      "outputs": [
        {
          "internalType": "bool",
          "name": "",
          "type": "bool"
        }
      ],
      "stateMutability": "view",
      "type": "function"
    },
    {
      "inputs": [
        {
          "internalType": "address",
          "name": "_collection",
          "type": "address"
        }
      ],
      "name": "getIsCollectionApprove",
      "outputs": [
        {
          "internalType": "bool",
          "name": "",
          "type": "bool"
        }
      ],
      "stateMutability": "view",
      "type": "function"
    },
    {
      "inputs": [
        {
          "internalType": "address",
          "name": "pool",
          "type": "address"
        }
      ],
      "name": "getPoolInfo",
      "outputs": [
        {
          "components": [
            {
              "internalType": "address",
              "name": "bondingCurve",
              "type": "address"
            },
            {
              "internalType": "uint128",
              "name": "spotPrice",
              "type": "uint128"
            },
            {
              "internalType": "uint128",
              "name": "delta",
              "type": "uint128"
            },
            {
              "internalType": "uint256",
              "name": "divergence",
              "type": "uint256"
            },
            {
              "internalType": "uint256",
              "name": "buyNum",
              "type": "uint256"
            },
            {
              "internalType": "uint256",
              "name": "sellNum",
              "type": "uint256"
            }
          ],
          "internalType": "struct IPool721.PoolInfo",
          "name": "poolInfo",
          "type": "tuple"
        }
      ],
      "stateMutability": "nonpayable",
      "type": "function"
    },
    {
      "inputs": [
        {
          "internalType": "address",
          "name": "_pool",
          "type": "address"
        },
        {
          "internalType": "address",
          "name": "_user",
          "type": "address"
        }
      ],
      "name": "getUserInfo",
      "outputs": [
        {
          "components": [
            {
              "internalType": "uint256",
              "name": "userInitBuyNum",
              "type": "uint256"
            },
            {
              "internalType": "uint256",
              "name": "userInitSellNum",
              "type": "uint256"
            },
            {
              "internalType": "uint256",
              "name": "userInitSellAmount",
              "type": "uint256"
            },
            {
              "internalType": "uint256",
              "name": "userNFTpoint",
              "type": "uint256"
            },
            {
              "internalType": "uint256",
              "name": "userFTpoint",
              "type": "uint256"
            }
          ],
          "internalType": "struct IPool721.UserInfo",
          "name": "userInfo",
          "type": "tuple"
        }
      ],
      "stateMutability": "nonpayable",
      "type": "function"
    },
    {
      "inputs": [],
      "name": "owner",
      "outputs": [
        {
          "internalType": "address",
          "name": "",
          "type": "address"
        }
      ],
      "stateMutability": "view",
      "type": "function"
    },
    {
      "inputs": [],
      "name": "renounceOwnership",
      "outputs": [],
      "stateMutability": "nonpayable",
      "type": "function"
    },
    {
      "inputs": [
        {
          "internalType": "address",
          "name": "_bondingCurve",
          "type": "address"
        },
        {
          "internalType": "bool",
          "name": "_approve",
          "type": "bool"
        }
      ],
      "name": "setBondingCurveApprove",
      "outputs": [],
      "stateMutability": "nonpayable",
      "type": "function"
    },
    {
      "inputs": [
        {
          "internalType": "address",
          "name": "_collection",
          "type": "address"
        },
        {
          "internalType": "bool",
          "name": "_approve",
          "type": "bool"
        }
      ],
      "name": "setCollectionApprove",
      "outputs": [],
      "stateMutability": "nonpayable",
      "type": "function"
    },
    {
      "inputs": [
        {
          "internalType": "address",
          "name": "_pool",
          "type": "address"
        },
        {
          "internalType": "uint256[]",
          "name": "_tokenIds",
          "type": "uint256[]"
        }
      ],
      "name": "stakeNFT",
      "outputs": [],
      "stateMutability": "nonpayable",
      "type": "function"
    },
    {
      "inputs": [],
      "name": "supporterFeeRatio",
      "outputs": [
        {
          "internalType": "uint256",
          "name": "",
          "type": "uint256"
        }
      ],
      "stateMutability": "view",
      "type": "function"
    },
    {
      "inputs": [
        {
          "internalType": "address",
          "name": "_pool",
          "type": "address"
        },
        {
          "internalType": "uint256[]",
          "name": "_tokenIds",
          "type": "uint256[]"
        },
        {
          "internalType": "address",
          "name": "_support",
          "type": "address"
        }
      ],
      "name": "swapFTforNFT",
      "outputs": [],
      "stateMutability": "payable",
      "type": "function"
    },
    {
      "inputs": [
        {
          "internalType": "address",
          "name": "_pool",
          "type": "address"
        },
        {
          "internalType": "uint256[]",
          "name": "_tokenIds",
          "type": "uint256[]"
        },
        {
          "internalType": "uint256",
          "name": "_minExpectFee",
          "type": "uint256"
        },
        {
          "internalType": "address",
          "name": "_support",
          "type": "address"
        }
      ],
      "name": "swapNFTforFT",
      "outputs": [],
      "stateMutability": "payable",
      "type": "function"
    },
    {
      "inputs": [],
      "name": "totalFee",
      "outputs": [
        {
          "internalType": "uint256",
          "name": "",
          "type": "uint256"
        }
      ],
      "stateMutability": "view",
      "type": "function"
    },
    {
      "inputs": [],
      "name": "totalProtocolFee",
      "outputs": [
        {
          "internalType": "uint256",
          "name": "",
          "type": "uint256"
        }
      ],
      "stateMutability": "view",
      "type": "function"
    },
    {
      "inputs": [
        {
          "internalType": "address",
          "name": "newOwner",
          "type": "address"
        }
      ],
      "name": "transferOwnership",
      "outputs": [],
      "stateMutability": "nonpayable",
      "type": "function"
    },
    {
      "inputs": [
        {
          "internalType": "address",
          "name": "_pool",
          "type": "address"
        },
        {
          "internalType": "uint256",
          "name": "_userSellNum",
          "type": "uint256"
        },
        {
          "internalType": "uint256[]",
          "name": "_tokenIds",
          "type": "uint256[]"
        }
      ],
      "name": "withdrawFT",
      "outputs": [],
      "stateMutability": "nonpayable",
      "type": "function"
    },
    {
      "inputs": [
        {
          "internalType": "address",
          "name": "_pool",
          "type": "address"
        },
        {
          "internalType": "uint256[]",
          "name": "_tokenIds",
          "type": "uint256[]"
        }
      ],
      "name": "withdrawNFT",
      "outputs": [],
      "stateMutability": "nonpayable",
      "type": "function"
    },
    {
      "inputs": [],
      "name": "withdrawProtocolFee",
      "outputs": [],
      "stateMutability": "payable",
      "type": "function"
    },
    {
      "inputs": [],
      "name": "withdrawSupportFee",
      "outputs": [],
      "stateMutability": "payable",
      "type": "function"
    },
    {
      "stateMutability": "payable",
      "type": "receive"
    }
  ],
  "bytecode": "0x608060405266b1a2bc2ec500006003553480156200001c57600080fd5b506200003d620000316200004360201b60201c565b6200004b60201b60201c565b6200010f565b600033905090565b60008060009054906101000a900473ffffffffffffffffffffffffffffffffffffffff169050816000806101000a81548173ffffffffffffffffffffffffffffffffffffffff021916908373ffffffffffffffffffffffffffffffffffffffff1602179055508173ffffffffffffffffffffffffffffffffffffffff168173ffffffffffffffffffffffffffffffffffffffff167f8be0079c531659141344cd1fd0a4f28419497f9722a3daafe3b4186f6b6457e060405160405180910390a35050565b61449a806200011f6000396000f3fe6080604052600436106101a05760003560e01c80638da5cb5b116100ec578063d6775e981161008a578063f2801fe711610064578063f2801fe7146105ae578063f2fde38b146105eb578063fc5a0df514610614578063fc9d16cd14610651576101f4565b8063d6775e981461052c578063dd4b533f14610555578063e3b4403d14610571576101f4565b8063a7b60297116100c6578063a7b602971461046b578063b65bfbf0146104a8578063bc0a0bd0146104e5578063cab5c30e14610510576101f4565b80638da5cb5b146103ee5780639175a588146104195780639bdedea514610442576101f4565b80635befecc811610159578063752d121c11610133578063752d121c14610334578063779f15831461037157806388611f351461039a5780638d3b6eb3146103c5576101f4565b80635befecc8146102cb5780635f1c325d146102f4578063715018a61461031d576101f4565b806306bfa938146101f957806312b71c21146102365780631df4ccfc14610240578063361eaa531461026b5780634906a2a81461029657806359d8da92146102c1576101f4565b366101f4576101b9674a7366928a492a9f60c01b61067a565b7f88a5966d370b9919b20f3e2c13ff65706f196a4e32cc2c12bf57088f8852587433346040516101ea92919061322a565b60405180910390a1005b600080fd5b34801561020557600080fd5b50610220600480360381019061021b9190613293565b61067d565b60405161022d9190613384565b60405180910390f35b61023e610739565b005b34801561024c57600080fd5b50610255610932565b604051610262919061339f565b60405180910390f35b34801561027757600080fd5b50610280610938565b60405161028d9190613469565b60405180910390f35b3480156102a257600080fd5b506102ab610a02565b6040516102b89190613469565b60405180910390f35b6102c9610acc565b005b3480156102d757600080fd5b506102f260048036038101906102ed919061372e565b610b9f565b005b34801561030057600080fd5b5061031b600480360381019061031691906137ee565b610e5b565b005b34801561032957600080fd5b50610332610f6c565b005b34801561034057600080fd5b5061035b6004803603810190610356919061382e565b610f80565b604051610368919061385b565b60405180910390f35b34801561037d57600080fd5b5061039860048036038101906103939190613876565b610fbf565b005b3480156103a657600080fd5b506103af61128d565b6040516103bc919061339f565b60405180910390f35b3480156103d157600080fd5b506103ec60048036038101906103e79190613922565b611293565b005b3480156103fa57600080fd5b5061040361151d565b604051610410919061385b565b60405180910390f35b34801561042557600080fd5b50610440600480360381019061043b9190613962565b611546565b005b34801561044e57600080fd5b5061046960048036038101906104649190613962565b611752565b005b34801561047757600080fd5b50610492600480360381019061048d919061382e565b611a1b565b60405161049f919061385b565b60405180910390f35b3480156104b457600080fd5b506104cf60048036038101906104ca9190613293565b611a5a565b6040516104dc91906139d1565b60405180910390f35b3480156104f157600080fd5b506104fa611aec565b604051610507919061339f565b60405180910390f35b61052a600480360381019061052591906139ec565b611af2565b005b34801561053857600080fd5b50610553600480360381019061054e9190613a60565b611e0f565b005b61056f600480360381019061056a9190613b54565b6120e8565b005b34801561057d57600080fd5b5061059860048036038101906105939190613293565b612407565b6040516105a59190613469565b60405180910390f35b3480156105ba57600080fd5b506105d560048036038101906105d091906137ee565b612510565b6040516105e29190613c44565b60405180910390f35b3480156105f757600080fd5b50610612600480360381019061060d9190613293565b6125d8565b005b34801561062057600080fd5b5061063b60048036038101906106369190613293565b61265b565b60405161064891906139d1565b60405180910390f35b34801561065d57600080fd5b5061067860048036038101906106739190613922565b6126ed565b005b50565b610685613131565b61069967aee24347fbee20e360c01b61067a565b6106ad6758a8c986c7eaee1660c01b61067a565b6106c1670c76901c5700210560c01b61067a565b8173ffffffffffffffffffffffffffffffffffffffff166360246c886040518163ffffffff1660e01b815260040160c0604051808303816000875af115801561070e573d6000803e3d6000fd5b505050506040513d601f19601f820116820180604052508101906107329190613d5a565b9050919050565b61074d677569587e8d6d839e60c01b61067a565b61076167f15382a25780d79160c01b61067a565b6107756719d0cea76b1e371c60c01b61067a565b6107896797db54fb8bfe306560c01b61067a565b600b60003373ffffffffffffffffffffffffffffffffffffffff1673ffffffffffffffffffffffffffffffffffffffff16815260200190815260200160002060009054906101000a900460ff16610815576040517f08c379a000000000000000000000000000000000000000000000000000000000815260040161080c90613de4565b60405180910390fd5b6108296741cc30593a5e38c560c01b61067a565b61083d679b6fd25268a7324560c01b61067a565b6000600a60003373ffffffffffffffffffffffffffffffffffffffff1673ffffffffffffffffffffffffffffffffffffffff1681526020019081526020016000208190555061089667ee31a47cd08ec61560c01b61067a565b6108aa6750f62e2dc2fdde5260c01b61067a565b3373ffffffffffffffffffffffffffffffffffffffff166108fc600a60003373ffffffffffffffffffffffffffffffffffffffff1673ffffffffffffffffffffffffffffffffffffffff168152602001908152602001600020549081150290604051600060405180830381858888f1935050505015801561092f573d6000803e3d6000fd5b50565b60025481565b606061094e67e640afe331dbffbd60c01b61067a565b610962675d6ca6cb86b1d3aa60c01b61067a565b6109766723d8bb051da9752c60c01b61067a565b60058054806020026020016040519081016040528092919081815260200182805480156109f857602002820191906000526020600020905b8160009054906101000a900473ffffffffffffffffffffffffffffffffffffffff1673ffffffffffffffffffffffffffffffffffffffff16815260200190600101908083116109ae575b5050505050905090565b6060610a1867f6c540a60f2821e460c01b61067a565b610a2c678abba64ea0fa7bde60c01b61067a565b610a40677f45519b1acfec8a60c01b61067a565b6004805480602002602001604051908101604052809291908181526020018280548015610ac257602002820191906000526020600020905b8160009054906101000a900473ffffffffffffffffffffffffffffffffffffffff1673ffffffffffffffffffffffffffffffffffffffff1681526020019060010190808311610a78575b5050505050905090565b610ae067566eb1add87a068c60c01b61067a565b610ae861296f565b610afc67d0d9dfdab08f829360c01b61067a565b610b10679107cfa27c850c5b60c01b61067a565b610b24673076bb0ef42b933560c01b61067a565b6000600181905550610b4067d7f9110c1429ac9660c01b61067a565b610b5467e9a519ecf083511760c01b61067a565b3373ffffffffffffffffffffffffffffffffffffffff166108fc6001549081150290604051600060405180830381858888f19350505050158015610b9c573d6000803e3d6000fd5b50565b610bb367bac1b7effbfa7ece60c01b61067a565b610bc767295e8979e1e0434760c01b61067a565b610bdb67e06d7165256c48a160c01b61067a565b6000610bf167048b7204143e8bca60c01b61067a565b610c05676d15a27f62361ed260c01b61067a565b60005b8251811015610de457610c2567e872642dca89de5360c01b61067a565b610c39678606239bd875beec60c01b61067a565b6060610c4f67c2740e289ae2e96260c01b61067a565b610c63671de34b6b57e66c7960c01b61067a565b60005b848381518110610c7957610c78613e04565b5b6020026020010151811015610ce857610c9c674a500e037deb599260c01b61067a565b878784818110610caf57610cae613e04565b5b90506020020135828281518110610cc957610cc8613e04565b5b6020026020010181815250508080610ce090613e62565b915050610c66565b50610cfd670f6bf0545e7172d160c01b61067a565b610d1167870d6524e6240c7960c01b61067a565b6000888381518110610d2657610d25613e04565b5b602002602001015173ffffffffffffffffffffffffffffffffffffffff16634c4cbac483336040518363ffffffff1660e01b8152600401610d68929190613f59565b6020604051808303816000875af1158015610d87573d6000803e3d6000fd5b505050506040513d601f19601f82011682018060405250810190610dab9190613f89565b9050610dc1675898f36308b0c5ba60c01b61067a565b8084610dcd9190613fb6565b935050508080610ddc90613e62565b915050610c08565b50610df96763d44bb0a0af83cb60c01b61067a565b610e0d6735ca4ffc045d292660c01b61067a565b600080610e19836129ed565b91509150610e31678c56a6b0eeabaf0d60c01b61067a565b610e4567ec217479729dce2960c01b61067a565b610e5183838784612a60565b5050505050505050565b610e6f677bcd837eb60ac98960c01b61067a565b610e836727eda51441d3fa6e60c01b61067a565b610e9767f91690795edbe21160c01b61067a565b610ea081612b3e565b610eb467fb3741873badba8f60c01b61067a565b610ec867ecb6bfd4d0abc6ec60c01b61067a565b600660008373ffffffffffffffffffffffffffffffffffffffff1673ffffffffffffffffffffffffffffffffffffffff168152602001908152602001600020819080600181540180825580915050600190039060005260206000200160009091909190916101000a81548173ffffffffffffffffffffffffffffffffffffffff021916908373ffffffffffffffffffffffffffffffffffffffff1602179055505050565b610f7461296f565b610f7e6000612bd7565b565b60058181548110610f9057600080fd5b906000526020600020016000915054906101000a900473ffffffffffffffffffffffffffffffffffffffff1681565b610fd3677bb1ef259da987ce60c01b61067a565b610fe767eb7ead1f02f87cdd60c01b61067a565b610ffb67e6ddcb7b4026adf760c01b61067a565b60008473ffffffffffffffffffffffffffffffffffffffff16636386c1c7336040518263ffffffff1660e01b8152600401611036919061385b565b60a0604051808303816000875af1158015611055573d6000803e3d6000fd5b505050506040513d601f19601f820116820180604052508101906110799190614076565b905061108f675269c271d58cb37860c01b61067a565b6110a3674d2f0b52236e8b3b60c01b61067a565b60008573ffffffffffffffffffffffffffffffffffffffff16636b469d39336040518263ffffffff1660e01b81526004016110de919061385b565b602060405180830381865afa1580156110fb573d6000803e3d6000fd5b505050506040513d601f19601f8201168201806040525081019061111f9190613f89565b905061113567314b2c684fef7ed360c01b61067a565b611149679616d33cea37efe460c01b61067a565b6111533387612c9b565b6111676793dfdb937880142b60c01b61067a565b61117b67f80ed7c19c3128f660c01b61067a565b8573ffffffffffffffffffffffffffffffffffffffff166350902c17868686336040518563ffffffff1660e01b81526004016111ba949392919061410d565b600060405180830381600087803b1580156111d457600080fd5b505af11580156111e8573d6000803e3d6000fd5b5050505061120067d58d556426d35c2f60c01b61067a565b61121467833670a70bffbaf960c01b61067a565b8573ffffffffffffffffffffffffffffffffffffffff163373ffffffffffffffffffffffffffffffffffffffff167f38509f732bb9449e12686234757304da4b853110ebc8ece9a12bba31a4fcb91b86868987604001518760405161127d95949392919061414d565b60405180910390a3505050505050565b60015481565b6112a7674f5028ee0bf5b64e60c01b61067a565b6112af61296f565b6112c3678af60352935e807860c01b61067a565b6112d7673969acd70df2fc5d60c01b61067a565b6112eb67db51ff1a397d9d9f60c01b61067a565b6112ff67a21b384c64e9fe6e60c01b61067a565b600115158115150361141a5761131f676c3bbc26156be2e660c01b61067a565b6113336717d41086a90c4adb60c01b61067a565b611347675133ee7f0412804060c01b61067a565b6004829080600181540180825580915050600190039060005260206000200160009091909190916101000a81548173ffffffffffffffffffffffffffffffffffffffff021916908373ffffffffffffffffffffffffffffffffffffffff1602179055506113be672b376e0e8617660a60c01b61067a565b80600960008473ffffffffffffffffffffffffffffffffffffffff1673ffffffffffffffffffffffffffffffffffffffff16815260200190815260200160002060006101000a81548160ff021916908315150217905550611519565b61142e67acc31806fdf9d87b60c01b61067a565b611442677620e91667c8b4fa60c01b61067a565b60001515811515036115035761146267ce10a883a8c4037c60c01b61067a565b6114766721f601d0119aed4360c01b61067a565b61148a670217774ca9c47ca360c01b61067a565b61149382612d23565b6114a76736b92dc492b46a7960c01b61067a565b80600960008473ffffffffffffffffffffffffffffffffffffffff1673ffffffffffffffffffffffffffffffffffffffff16815260200190815260200160002060006101000a81548160ff021916908315150217905550611518565b611517670e3ddfc51a7e63b060c01b61067a565b5b5b5050565b60008060009054906101000a900473ffffffffffffffffffffffffffffffffffffffff16905090565b61155a67234f162b8b7cfd1f60c01b61067a565b61156e675fa116150357e3ce60c01b61067a565b6115826711540e358790a23460c01b61067a565b600860003373ffffffffffffffffffffffffffffffffffffffff1673ffffffffffffffffffffffffffffffffffffffff168152602001908152602001600020839080600181540180825580915050600190039060005260206000200160009091909190916101000a81548173ffffffffffffffffffffffffffffffffffffffff021916908373ffffffffffffffffffffffffffffffffffffffff1602179055506116366789a3cea0130638d160c01b61067a565b61164a67645f3f4faa4f54ac60c01b61067a565b8273ffffffffffffffffffffffffffffffffffffffff16632f7e0b2e8383336040518463ffffffff1660e01b81526004016116879392919061419b565b600060405180830381600087803b1580156116a157600080fd5b505af11580156116b5573d6000803e3d6000fd5b505050506116cd675ef5f56fcc7ab84a60c01b61067a565b6116e167cdb3f8336a6fcb5160c01b61067a565b8273ffffffffffffffffffffffffffffffffffffffff163373ffffffffffffffffffffffffffffffffffffffff167f285e2df175d03ce53bf542c949e8a0add3b654d3911402bbb71e9bb46c82dad5848490508585604051611745939291906141cd565b60405180910390a3505050565b6117666717bbfe2c3544a54b60c01b61067a565b61177a67b192a6eaeb57479a60c01b61067a565b61178e6793618cee9267e2ac60c01b61067a565b60008373ffffffffffffffffffffffffffffffffffffffff16636386c1c7336040518263ffffffff1660e01b81526004016117c9919061385b565b60a0604051808303816000875af11580156117e8573d6000803e3d6000fd5b505050506040513d601f19601f8201168201806040525081019061180c9190614076565b905061182267118ea23fdea0ef7560c01b61067a565b611836675af316a9e46a086d60c01b61067a565b60008473ffffffffffffffffffffffffffffffffffffffff1663cb6f0d34336040518263ffffffff1660e01b8152600401611871919061385b565b602060405180830381865afa15801561188e573d6000803e3d6000fd5b505050506040513d601f19601f820116820180604052508101906118b29190613f89565b90506118c867958b7514eebe705660c01b61067a565b6118dc67692afb954688f75760c01b61067a565b6118e63386612c9b565b6118fa675cf696902728999c60c01b61067a565b61190e678dfd3a26d237f34d60c01b61067a565b8473ffffffffffffffffffffffffffffffffffffffff16632c7e49158585336040518463ffffffff1660e01b815260040161194b9392919061419b565b600060405180830381600087803b15801561196557600080fd5b505af1158015611979573d6000803e3d6000fd5b50505050611991673d76c714aa0de75760c01b61067a565b6119a5672316e6093fb5ad2760c01b61067a565b8473ffffffffffffffffffffffffffffffffffffffff163373ffffffffffffffffffffffffffffffffffffffff167f758b8b45d172370c222fe8b7156d4c6f1367f8676604a31e2ac73311b192b1e68686866000015186604051611a0c94939291906141ff565b60405180910390a35050505050565b60048181548110611a2b57600080fd5b906000526020600020016000915054906101000a900473ffffffffffffffffffffffffffffffffffffffff1681565b6000611a7067ef78ee40756ef1e160c01b61067a565b611a8467331934f881cb336e60c01b61067a565b611a9867592209031161830060c01b61067a565b600960008373ffffffffffffffffffffffffffffffffffffffff1673ffffffffffffffffffffffffffffffffffffffff16815260200190815260200160002060009054906101000a900460ff169050919050565b60035481565b611b06670ba010ae7e8fcca560c01b61067a565b611b1a6789e36c131a641e5c60c01b61067a565b611b2e67694bb70b0832fbc560c01b61067a565b60008473ffffffffffffffffffffffffffffffffffffffff166360246c886040518163ffffffff1660e01b815260040160c0604051808303816000875af1158015611b7d573d6000803e3d6000fd5b505050506040513d601f19601f82011682018060405250810190611ba19190613d5a565b9050611bb767abdf51586e05921460c01b61067a565b611bcb6756f3c7ce4468ee2560c01b61067a565b60008573ffffffffffffffffffffffffffffffffffffffff16635315383686869050846020015185606001516040518463ffffffff1660e01b8152600401611c159392919061424e565b602060405180830381865afa158015611c32573d6000803e3d6000fd5b505050506040513d601f19601f82011682018060405250810190611c569190613f89565b9050611c6c67a1d73f798c1970fc60c01b61067a565b611c80671930df95addfc97c60c01b61067a565b60008673ffffffffffffffffffffffffffffffffffffffff16634c4cbac4348888336040518563ffffffff1660e01b8152600401611cc09392919061419b565b60206040518083038185885af1158015611cde573d6000803e3d6000fd5b50505050506040513d601f19601f82011682018060405250810190611d039190613f89565b9050611d1967f57cc3fcdabcac6760c01b61067a565b611d2d6746a90b4c885cc9ba60c01b61067a565b600080611d39836129ed565b91509150611d51672fde4c36f7b9a3f760c01b61067a565b611d65672656a8f5ce42a9af60c01b61067a565b611d7183838884612a60565b611d8567ab350894ed1f5d4a60c01b61067a565b611d99672a79ff8521245ddd60c01b61067a565b8873ffffffffffffffffffffffffffffffffffffffff163373ffffffffffffffffffffffffffffffffffffffff167f2611defd53a4a87419d2078554db30aeaddd9ddfdc5990da2bbdc8d589f5e4d68a8a888b604051611dfc9493929190614285565b60405180910390a3505050505050505050565b611e236702bde0601b5f893c60c01b61067a565b611e376747e405004e2314c460c01b61067a565b611e4b67bcfef524163cf62060c01b61067a565b6000611e6167a9ccbcf98e397d5260c01b61067a565b611e7567e2d1934aca2575b960c01b61067a565b60005b825181101561206f57611e95672ee64b2f37fe36b760c01b61067a565b611ea967759b1a28722b1d4a60c01b61067a565b6060611ebf675c6d2ac3ca8aa85e60c01b61067a565b611ed367889bcaab86f97e2960c01b61067a565b60005b848381518110611ee957611ee8613e04565b5b6020026020010151811015611f5857611f0c678b3adb532273e10660c01b61067a565b898984818110611f1f57611f1e613e04565b5b90506020020135828281518110611f3957611f38613e04565b5b6020026020010181815250508080611f5090613e62565b915050611ed6565b50611f6d674f8e14f36349da5b60c01b61067a565b611f81673b887f44891d7d0360c01b61067a565b60008a8381518110611f9657611f95613e04565b5b602002602001015173ffffffffffffffffffffffffffffffffffffffff1663244117b4838a8a87818110611fcd57611fcc613e04565b5b90506020020135336040518463ffffffff1660e01b8152600401611ff3939291906142c5565b6020604051808303816000875af1158015612012573d6000803e3d6000fd5b505050506040513d601f19601f820116820180604052508101906120369190613f89565b905061204c67f19c07d6ffe0693b60c01b61067a565b80846120589190613fb6565b93505050808061206790613e62565b915050611e78565b5061208467ffba5241eee2f60f60c01b61067a565b61209867a884eafdb783fbf560c01b61067a565b6000806120a4836129ed565b915091506120bc674ea4b179ae6a1ca260c01b61067a565b6120d0679b2c362f07bcbbf460c01b61067a565b6120dc83838784612a60565b50505050505050505050565b6120fc67242fd2494863a61660c01b61067a565b61211067082c90a34d1e473260c01b61067a565b612124675e2acbe49094cf9260c01b61067a565b60008573ffffffffffffffffffffffffffffffffffffffff166360246c886040518163ffffffff1660e01b815260040160c0604051808303816000875af1158015612173573d6000803e3d6000fd5b505050506040513d601f19601f820116820180604052508101906121979190613d5a565b90506121ad67d8334627bd447ebe60c01b61067a565b6121c167fdfcd8c9b66b6e7b60c01b61067a565b60008673ffffffffffffffffffffffffffffffffffffffff1663341d15fd87879050846020015185606001516040518463ffffffff1660e01b815260040161220b9392919061424e565b602060405180830381865afa158015612228573d6000803e3d6000fd5b505050506040513d601f19601f8201168201806040525081019061224c9190613f89565b905061226267df6e7f9689007bba60c01b61067a565b612276679776d4d6c6e08d7a60c01b61067a565b60008773ffffffffffffffffffffffffffffffffffffffff1663244117b4888888336040518563ffffffff1660e01b81526004016122b79493929190614285565b6020604051808303816000875af11580156122d6573d6000803e3d6000fd5b505050506040513d601f19601f820116820180604052508101906122fa9190613f89565b90506123106701c2ffc7a8c56e2060c01b61067a565b612324670fc9a0ee45ae430f60c01b61067a565b600080612330836129ed565b91509150612348671fa2cfa487b16b5360c01b61067a565b61235c67d8e382166e46cb0a60c01b61067a565b61236883838884612a60565b61237c67bbb0282266f75c0960c01b61067a565b61239067be9729f8586822f260c01b61067a565b8973ffffffffffffffffffffffffffffffffffffffff163373ffffffffffffffffffffffffffffffffffffffff167f8f3673bd023cc34f252b9e7d0a0dd6496592b87006673a974d1d621b5a93e15e8b8b888b6040516123f39493929190614285565b60405180910390a350505050505050505050565b606061241d67c42d81c91fd5571c60c01b61067a565b6124316711f1d828bf49192860c01b61067a565b61244567f07dbe3020b621e960c01b61067a565b600660008373ffffffffffffffffffffffffffffffffffffffff1673ffffffffffffffffffffffffffffffffffffffff16815260200190815260200160002080548060200260200160405190810160405280929190818152602001828054801561250457602002820191906000526020600020905b8160009054906101000a900473ffffffffffffffffffffffffffffffffffffffff1673ffffffffffffffffffffffffffffffffffffffff16815260200190600101908083116124ba575b50505050509050919050565b6125186131a1565b61252c675a90f64fe1f4d8c960c01b61067a565b61254067fb297038cb5be23360c01b61067a565b61255467bd0059bb5f5b22dc60c01b61067a565b8273ffffffffffffffffffffffffffffffffffffffff16636386c1c7836040518263ffffffff1660e01b815260040161258d919061385b565b60a0604051808303816000875af11580156125ac573d6000803e3d6000fd5b505050506040513d601f19601f820116820180604052508101906125d09190614076565b905092915050565b6125e061296f565b600073ffffffffffffffffffffffffffffffffffffffff168173ffffffffffffffffffffffffffffffffffffffff160361264f576040517f08c379a000000000000000000000000000000000000000000000000000000000815260040161264690614375565b60405180910390fd5b61265881612bd7565b50565b6000612671679f24a3d339624fbd60c01b61067a565b61268567b2f6ec614bd7366f60c01b61067a565b6126996722c420c1c0e6e97c60c01b61067a565b600760008373ffffffffffffffffffffffffffffffffffffffff1673ffffffffffffffffffffffffffffffffffffffff16815260200190815260200160002060009054906101000a900460ff169050919050565b61270167a707378f32d09c5c60c01b61067a565b61270961296f565b61271d67b954e8af84a7816f60c01b61067a565b6127316715ab8822fc4776d260c01b61067a565b61274567c8231ec776d7446b60c01b61067a565b61275967543a6139de05080860c01b61067a565b60011515811515036128745761277967e88fca953ae2ed9760c01b61067a565b61278d6762c053a9fb67f26060c01b61067a565b6127a167f112c8fa5cdf826460c01b61067a565b6005829080600181540180825580915050600190039060005260206000200160009091909190916101000a81548173ffffffffffffffffffffffffffffffffffffffff021916908373ffffffffffffffffffffffffffffffffffffffff16021790555061281867b47686c2d9e6229a60c01b61067a565b80600760008473ffffffffffffffffffffffffffffffffffffffff1673ffffffffffffffffffffffffffffffffffffffff16815260200190815260200160002060006101000a81548160ff02191690831515021790555061296b565b612888679048988b175e7fe060c01b61067a565b61289c67376ad010bb6040b860c01b61067a565b6000151581151503612955576128bc674a62ad3c3aa3ca5a60c01b61067a565b6128d0670739811ad1846a5060c01b61067a565b6128e4678f0750ccef8758ad60c01b61067a565b6128ed82612d6d565b612901672b0b4395db3fc96b60c01b61067a565b801515600760008473ffffffffffffffffffffffffffffffffffffffff1673ffffffffffffffffffffffffffffffffffffffff16815260200190815260200160002060009054906101000a9050505061296a565b61296967949392f9da77994560c01b61067a565b5b5b5050565b612977612db7565b73ffffffffffffffffffffffffffffffffffffffff1661299561151d565b73ffffffffffffffffffffffffffffffffffffffff16146129eb576040517f08c379a00000000000000000000000000000000000000000000000000000000081526004016129e2906143e1565b60405180910390fd5b565b600080612a0467d77ae944670ab7ed60c01b61067a565b612a18678612e17b52918fc560c01b61067a565b612a37600354670de0b6b3a764000085612dbf9092919063ffffffff16565b9050612a4d67329b5a11735d2f8660c01b61067a565b8083612a599190614401565b9150915091565b612a74673cc46c03fb2251a060c01b61067a565b612a88679db19cb86ffc168960c01b61067a565b8360026000828254612a9a9190613fb6565b92505081905550612ab56794740a7a5d61507660c01b61067a565b8260016000828254612ac79190613fb6565b92505081905550612ae267473e6198c3728b9d60c01b61067a565b80600a60008473ffffffffffffffffffffffffffffffffffffffff1673ffffffffffffffffffffffffffffffffffffffff1681526020019081526020016000206000828254612b319190613fb6565b9250508190555050505050565b612bd481604051602401612b52919061385b565b6040516020818303038152906040527f2c2ecbc2000000000000000000000000000000000000000000000000000000007bffffffffffffffffffffffffffffffffffffffffffffffffffffffff19166020820180517bffffffffffffffffffffffffffffffffffffffffffffffffffffffff8381831617835250505050612e0b565b50565b60008060009054906101000a900473ffffffffffffffffffffffffffffffffffffffff169050816000806101000a81548173ffffffffffffffffffffffffffffffffffffffff021916908373ffffffffffffffffffffffffffffffffffffffff1602179055508173ffffffffffffffffffffffffffffffffffffffff168173ffffffffffffffffffffffffffffffffffffffff167f8be0079c531659141344cd1fd0a4f28419497f9722a3daafe3b4186f6b6457e060405160405180910390a35050565b612caf67195d3065a8240e1b60c01b61067a565b612cc3675321e987049df4c260c01b61067a565b612cd76781eb18b00abc7e1060c01b61067a565b612d1f600860008473ffffffffffffffffffffffffffffffffffffffff1673ffffffffffffffffffffffffffffffffffffffff16815260200190815260200160002082612e34565b5050565b612d3767f503e5f6ef08333760c01b61067a565b612d4b67ac97de4d43f804ac60c01b61067a565b612d5f671f8b68a6c5e4905b60c01b61067a565b612d6a600482612e34565b50565b612d816773cd0528e158fb7b60c01b61067a565b612d95672fddcf8a6f23fbd960c01b61067a565b612da967bce3d8b7b4d40e3760c01b61067a565b612db4600582612e34565b50565b600033905090565b6000612dd567200fa0d3ed6ccf7160c01b61312e565b612de967dc5f575a78bde8f460c01b61312e565b82840290508284820414841517612dff57600080fd5b81810490509392505050565b60008151905060006a636f6e736f6c652e6c6f679050602083016000808483855afa5050505050565b612e4867d149b9285c53bed060c01b61067a565b612e5c67f61a060537dcf86c60c01b61067a565b612e7067d189fa8d5c3406f160c01b61067a565b600082805490509050612e8d67a80cfed3e93d30cd60c01b61067a565b612ea1674ec65cfd48d2629f60c01b61067a565b60005b8181101561312857612ec06799a879052b60490160c01b61067a565b612ed467d0677061fe61c9b360c01b61067a565b8273ffffffffffffffffffffffffffffffffffffffff16848281548110612efe57612efd613e04565b5b9060005260206000200160009054906101000a900473ffffffffffffffffffffffffffffffffffffffff1673ffffffffffffffffffffffffffffffffffffffff160361310157612f586706292309ce8b579560c01b61067a565b612f6c67fa2e8f60ca185b9e60c01b61067a565b612f806717afb8451d6d62e660c01b61067a565b600182612f8d9190614401565b811461306557612fa767463c9003a82c1e3b60c01b61067a565b612fbb6744e29d5f6097298e60c01b61067a565b83600183612fc99190614401565b81548110612fda57612fd9613e04565b5b9060005260206000200160009054906101000a900473ffffffffffffffffffffffffffffffffffffffff1684828154811061301857613017613e04565b5b9060005260206000200160006101000a81548173ffffffffffffffffffffffffffffffffffffffff021916908373ffffffffffffffffffffffffffffffffffffffff16021790555061307a565b61307967caa9a253a133712f60c01b61067a565b5b61308e679e75bb2e3cbb393e60c01b61067a565b6130a2671f06b228c45d8cfe60c01b61067a565b838054806130b3576130b2614435565b5b6001900381819060005260206000200160006101000a81549073ffffffffffffffffffffffffffffffffffffffff021916905590556130fc674e0fe92154edead060c01b61067a565b613128565b61311567376316edc0f362c060c01b61067a565b808061312090613e62565b915050612ea4565b50505050565b50565b6040518060c00160405280600073ffffffffffffffffffffffffffffffffffffffff16815260200160006fffffffffffffffffffffffffffffffff16815260200160006fffffffffffffffffffffffffffffffff1681526020016000815260200160008152602001600081525090565b6040518060a0016040528060008152602001600081526020016000815260200160008152602001600081525090565b600073ffffffffffffffffffffffffffffffffffffffff82169050919050565b60006131fb826131d0565b9050919050565b61320b816131f0565b82525050565b6000819050919050565b61322481613211565b82525050565b600060408201905061323f6000830185613202565b61324c602083018461321b565b9392505050565b6000604051905090565b600080fd5b600080fd5b613270816131f0565b811461327b57600080fd5b50565b60008135905061328d81613267565b92915050565b6000602082840312156132a9576132a861325d565b5b60006132b78482850161327e565b91505092915050565b6132c9816131f0565b82525050565b60006fffffffffffffffffffffffffffffffff82169050919050565b6132f4816132cf565b82525050565b61330381613211565b82525050565b60c08201600082015161331f60008501826132c0565b50602082015161333260208501826132eb565b50604082015161334560408501826132eb565b50606082015161335860608501826132fa565b50608082015161336b60808501826132fa565b5060a082015161337e60a08501826132fa565b50505050565b600060c0820190506133996000830184613309565b92915050565b60006020820190506133b4600083018461321b565b92915050565b600081519050919050565b600082825260208201905092915050565b6000819050602082019050919050565b60006133f283836132c0565b60208301905092915050565b6000602082019050919050565b6000613416826133ba565b61342081856133c5565b935061342b836133d6565b8060005b8381101561345c57815161344388826133e6565b975061344e836133fe565b92505060018101905061342f565b5085935050505092915050565b60006020820190508181036000830152613483818461340b565b905092915050565b600080fd5b6000601f19601f8301169050919050565b7f4e487b7100000000000000000000000000000000000000000000000000000000600052604160045260246000fd5b6134d982613490565b810181811067ffffffffffffffff821117156134f8576134f76134a1565b5b80604052505050565b600061350b613253565b905061351782826134d0565b919050565b600067ffffffffffffffff821115613537576135366134a1565b5b602082029050602081019050919050565b600080fd5b600061356061355b8461351c565b613501565b9050808382526020820190506020840283018581111561358357613582613548565b5b835b818110156135ac5780613598888261327e565b845260208401935050602081019050613585565b5050509392505050565b600082601f8301126135cb576135ca61348b565b5b81356135db84826020860161354d565b91505092915050565b600080fd5b60008083601f8401126135ff576135fe61348b565b5b8235905067ffffffffffffffff81111561361c5761361b6135e4565b5b60208301915083602082028301111561363857613637613548565b5b9250929050565b600067ffffffffffffffff82111561365a576136596134a1565b5b602082029050602081019050919050565b61367481613211565b811461367f57600080fd5b50565b6000813590506136918161366b565b92915050565b60006136aa6136a58461363f565b613501565b905080838252602082019050602084028301858111156136cd576136cc613548565b5b835b818110156136f657806136e28882613682565b8452602084019350506020810190506136cf565b5050509392505050565b600082601f8301126137155761371461348b565b5b8135613725848260208601613697565b91505092915050565b60008060008060006080868803121561374a5761374961325d565b5b600086013567ffffffffffffffff81111561376857613767613262565b5b613774888289016135b6565b955050602086013567ffffffffffffffff81111561379557613794613262565b5b6137a1888289016135e9565b945094505060406137b48882890161327e565b925050606086013567ffffffffffffffff8111156137d5576137d4613262565b5b6137e188828901613700565b9150509295509295909350565b600080604083850312156138055761380461325d565b5b60006138138582860161327e565b92505060206138248582860161327e565b9150509250929050565b6000602082840312156138445761384361325d565b5b600061385284828501613682565b91505092915050565b60006020820190506138706000830184613202565b92915050565b600080600080606085870312156138905761388f61325d565b5b600061389e8782880161327e565b94505060206138af87828801613682565b935050604085013567ffffffffffffffff8111156138d0576138cf613262565b5b6138dc878288016135e9565b925092505092959194509250565b60008115159050919050565b6138ff816138ea565b811461390a57600080fd5b50565b60008135905061391c816138f6565b92915050565b600080604083850312156139395761393861325d565b5b60006139478582860161327e565b92505060206139588582860161390d565b9150509250929050565b60008060006040848603121561397b5761397a61325d565b5b60006139898682870161327e565b935050602084013567ffffffffffffffff8111156139aa576139a9613262565b5b6139b6868287016135e9565b92509250509250925092565b6139cb816138ea565b82525050565b60006020820190506139e660008301846139c2565b92915050565b60008060008060608587031215613a0657613a0561325d565b5b6000613a148782880161327e565b945050602085013567ffffffffffffffff811115613a3557613a34613262565b5b613a41878288016135e9565b93509350506040613a548782880161327e565b91505092959194509250565b600080600080600080600060a0888a031215613a7f57613a7e61325d565b5b600088013567ffffffffffffffff811115613a9d57613a9c613262565b5b613aa98a828b016135b6565b975050602088013567ffffffffffffffff811115613aca57613ac9613262565b5b613ad68a828b016135e9565b9650965050604088013567ffffffffffffffff811115613af957613af8613262565b5b613b058a828b016135e9565b94509450506060613b188a828b0161327e565b925050608088013567ffffffffffffffff811115613b3957613b38613262565b5b613b458a828b01613700565b91505092959891949750929550565b600080600080600060808688031215613b7057613b6f61325d565b5b6000613b7e8882890161327e565b955050602086013567ffffffffffffffff811115613b9f57613b9e613262565b5b613bab888289016135e9565b94509450506040613bbe88828901613682565b9250506060613bcf8882890161327e565b9150509295509295909350565b60a082016000820151613bf260008501826132fa565b506020820151613c0560208501826132fa565b506040820151613c1860408501826132fa565b506060820151613c2b60608501826132fa565b506080820151613c3e60808501826132fa565b50505050565b600060a082019050613c596000830184613bdc565b92915050565b600080fd5b600081519050613c7381613267565b92915050565b613c82816132cf565b8114613c8d57600080fd5b50565b600081519050613c9f81613c79565b92915050565b600081519050613cb48161366b565b92915050565b600060c08284031215613cd057613ccf613c5f565b5b613cda60c0613501565b90506000613cea84828501613c64565b6000830152506020613cfe84828501613c90565b6020830152506040613d1284828501613c90565b6040830152506060613d2684828501613ca5565b6060830152506080613d3a84828501613ca5565b60808301525060a0613d4e84828501613ca5565b60a08301525092915050565b600060c08284031215613d7057613d6f61325d565b5b6000613d7e84828501613cba565b91505092915050565b600082825260208201905092915050565b7f596f7520646f6e2774206861766520737570706f7274657220617070726f7665600082015250565b6000613dce602083613d87565b9150613dd982613d98565b602082019050919050565b60006020820190508181036000830152613dfd81613dc1565b9050919050565b7f4e487b7100000000000000000000000000000000000000000000000000000000600052603260045260246000fd5b7f4e487b7100000000000000000000000000000000000000000000000000000000600052601160045260246000fd5b6000613e6d82613211565b91507fffffffffffffffffffffffffffffffffffffffffffffffffffffffffffffffff8203613e9f57613e9e613e33565b5b600182019050919050565b600081519050919050565b600082825260208201905092915050565b6000819050602082019050919050565b6000613ee283836132fa565b60208301905092915050565b6000602082019050919050565b6000613f0682613eaa565b613f108185613eb5565b9350613f1b83613ec6565b8060005b83811015613f4c578151613f338882613ed6565b9750613f3e83613eee565b925050600181019050613f1f565b5085935050505092915050565b60006040820190508181036000830152613f738185613efb565b9050613f826020830184613202565b9392505050565b600060208284031215613f9f57613f9e61325d565b5b6000613fad84828501613ca5565b91505092915050565b6000613fc182613211565b9150613fcc83613211565b9250828201905080821115613fe457613fe3613e33565b5b92915050565b600060a0828403121561400057613fff613c5f565b5b61400a60a0613501565b9050600061401a84828501613ca5565b600083015250602061402e84828501613ca5565b602083015250604061404284828501613ca5565b604083015250606061405684828501613ca5565b606083015250608061406a84828501613ca5565b60808301525092915050565b600060a0828403121561408c5761408b61325d565b5b600061409a84828501613fea565b91505092915050565b600080fd5b82818337505050565b60006140bd8385613eb5565b93507f07ffffffffffffffffffffffffffffffffffffffffffffffffffffffffffffff8311156140f0576140ef6140a3565b5b6020830292506141018385846140a8565b82840190509392505050565b6000606082019050614122600083018761321b565b81810360208301526141358185876140b1565b90506141446040830184613202565b95945050505050565b600060808201905081810360008301526141688187896140b1565b9050614177602083018661321b565b614184604083018561321b565b614191606083018461321b565b9695505050505050565b600060408201905081810360008301526141b68185876140b1565b90506141c56020830184613202565b949350505050565b60006040820190506141e2600083018661321b565b81810360208301526141f58184866140b1565b9050949350505050565b6000606082019050818103600083015261421a8186886140b1565b9050614229602083018561321b565b614236604083018461321b565b95945050505050565b614248816132cf565b82525050565b6000606082019050614263600083018661321b565b614270602083018561423f565b61427d604083018461321b565b949350505050565b600060608201905081810360008301526142a08186886140b1565b90506142af602083018561321b565b6142bc6040830184613202565b95945050505050565b600060608201905081810360008301526142df8186613efb565b90506142ee602083018561321b565b6142fb6040830184613202565b949350505050565b7f4f776e61626c653a206e6577206f776e657220697320746865207a65726f206160008201527f6464726573730000000000000000000000000000000000000000000000000000602082015250565b600061435f602683613d87565b915061436a82614303565b604082019050919050565b6000602082019050818103600083015261438e81614352565b9050919050565b7f4f776e61626c653a2063616c6c6572206973206e6f7420746865206f776e6572600082015250565b60006143cb602083613d87565b91506143d682614395565b602082019050919050565b600060208201905081810360008301526143fa816143be565b9050919050565b600061440c82613211565b915061441783613211565b925082820390508181111561442f5761442e613e33565b5b92915050565b7f4e487b7100000000000000000000000000000000000000000000000000000000600052603160045260246000fdfea264697066735822122070225de085b52ede65954b6122ed360fc89ecd41379185fb392223566ad1865664736f6c63430008100033",
  "linkReferences": {},
  "deployedLinkReferences": {}
}