{
  "_format": "hh-sol-artifact-1",
  "contractName": "SampleNFT",
  "sourceName": "contracts/SampleNFT.sol",
  "abi": [
    {
      "inputs": [
        {
          "internalType": "string",
          "name": "_name",
          "type": "string"
        },
        {
          "internalType": "string",
          "name": "_symbol",
          "type": "string"
        },
        {
          "internalType": "string",
          "name": "_initBaseURI",
          "type": "string"
        }
      ],
      "stateMutability": "nonpayable",
      "type": "constructor"
    },
    {
      "anonymous": false,
      "inputs": [
        {
          "indexed": true,
          "internalType": "address",
          "name": "owner",
          "type": "address"
        },
        {
          "indexed": true,
          "internalType": "address",
          "name": "approved",
          "type": "address"
        },
        {
          "indexed": true,
          "internalType": "uint256",
          "name": "tokenId",
          "type": "uint256"
        }
      ],
      "name": "Approval",
      "type": "event"
    },
    {
      "anonymous": false,
      "inputs": [
        {
          "indexed": true,
          "internalType": "address",
          "name": "owner",
          "type": "address"
        },
        {
          "indexed": true,
          "internalType": "address",
          "name": "operator",
          "type": "address"
        },
        {
          "indexed": false,
          "internalType": "bool",
          "name": "approved",
          "type": "bool"
        }
      ],
      "name": "ApprovalForAll",
      "type": "event"
    },
    {
      "anonymous": false,
      "inputs": [
        {
          "indexed": true,
          "internalType": "address",
          "name": "previousOwner",
          "type": "address"
        },
        {
          "indexed": true,
          "internalType": "address",
          "name": "newOwner",
          "type": "address"
        }
      ],
      "name": "OwnershipTransferred",
      "type": "event"
    },
    {
      "anonymous": false,
      "inputs": [
        {
          "indexed": true,
          "internalType": "address",
          "name": "from",
          "type": "address"
        },
        {
          "indexed": true,
          "internalType": "address",
          "name": "to",
          "type": "address"
        },
        {
          "indexed": true,
          "internalType": "uint256",
          "name": "tokenId",
          "type": "uint256"
        }
      ],
      "name": "Transfer",
      "type": "event"
    },
    {
      "inputs": [
        {
          "internalType": "address",
          "name": "to",
          "type": "address"
        },
        {
          "internalType": "uint256",
          "name": "tokenId",
          "type": "uint256"
        }
      ],
      "name": "approve",
      "outputs": [],
      "stateMutability": "nonpayable",
      "type": "function"
    },
    {
      "inputs": [
        {
          "internalType": "address",
          "name": "owner",
          "type": "address"
        }
      ],
      "name": "balanceOf",
      "outputs": [
        {
          "internalType": "uint256",
          "name": "",
          "type": "uint256"
        }
      ],
      "stateMutability": "view",
      "type": "function"
    },
    {
      "inputs": [],
      "name": "baseURI",
      "outputs": [
        {
          "internalType": "string",
          "name": "",
          "type": "string"
        }
      ],
      "stateMutability": "view",
      "type": "function"
    },
    {
      "inputs": [
        {
          "internalType": "uint256[]",
          "name": "tokenIds",
          "type": "uint256[]"
        },
        {
          "internalType": "address",
          "name": "to",
          "type": "address"
        }
      ],
      "name": "batchApprove",
      "outputs": [],
      "stateMutability": "nonpayable",
      "type": "function"
    },
    {
      "inputs": [
        {
          "internalType": "address",
          "name": "to",
          "type": "address"
        },
        {
          "internalType": "uint256",
          "name": "num",
          "type": "uint256"
        }
      ],
      "name": "batchMint",
      "outputs": [],
      "stateMutability": "nonpayable",
      "type": "function"
    },
    {
      "inputs": [
        {
          "internalType": "address",
          "name": "user",
          "type": "address"
        }
      ],
      "name": "getAllHeldIds",
      "outputs": [
        {
          "internalType": "uint256[]",
          "name": "",
          "type": "uint256[]"
        }
      ],
      "stateMutability": "view",
      "type": "function"
    },
    {
      "inputs": [
        {
          "internalType": "uint256",
          "name": "tokenId",
          "type": "uint256"
        }
      ],
      "name": "getApproved",
      "outputs": [
        {
          "internalType": "address",
          "name": "",
          "type": "address"
        }
      ],
      "stateMutability": "view",
      "type": "function"
    },
    {
      "inputs": [
        {
          "internalType": "address",
          "name": "owner",
          "type": "address"
        },
        {
          "internalType": "address",
          "name": "operator",
          "type": "address"
        }
      ],
      "name": "isApprovedForAll",
      "outputs": [
        {
          "internalType": "bool",
          "name": "",
          "type": "bool"
        }
      ],
      "stateMutability": "view",
      "type": "function"
    },
    {
      "inputs": [],
      "name": "mint",
      "outputs": [],
      "stateMutability": "nonpayable",
      "type": "function"
    },
    {
      "inputs": [],
      "name": "name",
      "outputs": [
        {
          "internalType": "string",
          "name": "",
          "type": "string"
        }
      ],
      "stateMutability": "view",
      "type": "function"
    },
    {
      "inputs": [],
      "name": "owner",
      "outputs": [
        {
          "internalType": "address",
          "name": "",
          "type": "address"
        }
      ],
      "stateMutability": "view",
      "type": "function"
    },
    {
      "inputs": [
        {
          "internalType": "uint256",
          "name": "tokenId",
          "type": "uint256"
        }
      ],
      "name": "ownerOf",
      "outputs": [
        {
          "internalType": "address",
          "name": "",
          "type": "address"
        }
      ],
      "stateMutability": "view",
      "type": "function"
    },
    {
      "inputs": [],
      "name": "renounceOwnership",
      "outputs": [],
      "stateMutability": "nonpayable",
      "type": "function"
    },
    {
      "inputs": [
        {
          "internalType": "address",
          "name": "from",
          "type": "address"
        },
        {
          "internalType": "address",
          "name": "to",
          "type": "address"
        },
        {
          "internalType": "uint256",
          "name": "tokenId",
          "type": "uint256"
        }
      ],
      "name": "safeTransferFrom",
      "outputs": [],
      "stateMutability": "nonpayable",
      "type": "function"
    },
    {
      "inputs": [
        {
          "internalType": "address",
          "name": "from",
          "type": "address"
        },
        {
          "internalType": "address",
          "name": "to",
          "type": "address"
        },
        {
          "internalType": "uint256",
          "name": "tokenId",
          "type": "uint256"
        },
        {
          "internalType": "bytes",
          "name": "data",
          "type": "bytes"
        }
      ],
      "name": "safeTransferFrom",
      "outputs": [],
      "stateMutability": "nonpayable",
      "type": "function"
    },
    {
      "inputs": [
        {
          "internalType": "address",
          "name": "operator",
          "type": "address"
        },
        {
          "internalType": "bool",
          "name": "approved",
          "type": "bool"
        }
      ],
      "name": "setApprovalForAll",
      "outputs": [],
      "stateMutability": "nonpayable",
      "type": "function"
    },
    {
      "inputs": [
        {
          "internalType": "string",
          "name": "_newBaseURI",
          "type": "string"
        }
      ],
      "name": "setBaseURI",
      "outputs": [],
      "stateMutability": "nonpayable",
      "type": "function"
    },
    {
      "inputs": [
        {
          "internalType": "bytes4",
          "name": "interfaceId",
          "type": "bytes4"
        }
      ],
      "name": "supportsInterface",
      "outputs": [
        {
          "internalType": "bool",
          "name": "",
          "type": "bool"
        }
      ],
      "stateMutability": "view",
      "type": "function"
    },
    {
      "inputs": [],
      "name": "symbol",
      "outputs": [
        {
          "internalType": "string",
          "name": "",
          "type": "string"
        }
      ],
      "stateMutability": "view",
      "type": "function"
    },
    {
      "inputs": [
        {
          "internalType": "uint256",
          "name": "index",
          "type": "uint256"
        }
      ],
      "name": "tokenByIndex",
      "outputs": [
        {
          "internalType": "uint256",
          "name": "",
          "type": "uint256"
        }
      ],
      "stateMutability": "view",
      "type": "function"
    },
    {
      "inputs": [
        {
          "internalType": "address",
          "name": "owner",
          "type": "address"
        },
        {
          "internalType": "uint256",
          "name": "index",
          "type": "uint256"
        }
      ],
      "name": "tokenOfOwnerByIndex",
      "outputs": [
        {
          "internalType": "uint256",
          "name": "",
          "type": "uint256"
        }
      ],
      "stateMutability": "view",
      "type": "function"
    },
    {
      "inputs": [
        {
          "internalType": "uint256",
          "name": "_tokenId",
          "type": "uint256"
        }
      ],
      "name": "tokenURI",
      "outputs": [
        {
          "internalType": "string",
          "name": "",
          "type": "string"
        }
      ],
      "stateMutability": "view",
      "type": "function"
    },
    {
      "inputs": [],
      "name": "totalSupply",
      "outputs": [
        {
          "internalType": "uint256",
          "name": "",
          "type": "uint256"
        }
      ],
      "stateMutability": "view",
      "type": "function"
    },
    {
      "inputs": [
        {
          "internalType": "address",
          "name": "from",
          "type": "address"
        },
        {
          "internalType": "address",
          "name": "to",
          "type": "address"
        },
        {
          "internalType": "uint256",
          "name": "tokenId",
          "type": "uint256"
        }
      ],
      "name": "transferFrom",
      "outputs": [],
      "stateMutability": "nonpayable",
      "type": "function"
    },
    {
      "inputs": [
        {
          "internalType": "address",
          "name": "newOwner",
          "type": "address"
        }
      ],
      "name": "transferOwnership",
      "outputs": [],
      "stateMutability": "nonpayable",
      "type": "function"
    }
  ],
  "bytecode": "0x60806040523480156200001157600080fd5b50604051620045ed380380620045ed8339818101604052810190620000379190620003da565b828281600090816200004a9190620006de565b5080600190816200005c9190620006de565b5050506200007f620000736200009960201b60201c565b620000a160201b60201c565b62000090816200016760201b60201c565b50505062000848565b600033905090565b6000600a60009054906101000a900473ffffffffffffffffffffffffffffffffffffffff16905081600a60006101000a81548173ffffffffffffffffffffffffffffffffffffffff021916908373ffffffffffffffffffffffffffffffffffffffff1602179055508173ffffffffffffffffffffffffffffffffffffffff168173ffffffffffffffffffffffffffffffffffffffff167f8be0079c531659141344cd1fd0a4f28419497f9722a3daafe3b4186f6b6457e060405160405180910390a35050565b620001776200018c60201b60201c565b80600b9081620001889190620006de565b5050565b6200019c6200009960201b60201c565b73ffffffffffffffffffffffffffffffffffffffff16620001c26200021d60201b60201c565b73ffffffffffffffffffffffffffffffffffffffff16146200021b576040517f08c379a0000000000000000000000000000000000000000000000000000000008152600401620002129062000826565b60405180910390fd5b565b6000600a60009054906101000a900473ffffffffffffffffffffffffffffffffffffffff16905090565b6000604051905090565b600080fd5b600080fd5b600080fd5b600080fd5b6000601f19601f8301169050919050565b7f4e487b7100000000000000000000000000000000000000000000000000000000600052604160045260246000fd5b620002b08262000265565b810181811067ffffffffffffffff82111715620002d257620002d162000276565b5b80604052505050565b6000620002e762000247565b9050620002f58282620002a5565b919050565b600067ffffffffffffffff82111562000318576200031762000276565b5b620003238262000265565b9050602081019050919050565b60005b838110156200035057808201518184015260208101905062000333565b60008484015250505050565b6000620003736200036d84620002fa565b620002db565b90508281526020810184848401111562000392576200039162000260565b5b6200039f84828562000330565b509392505050565b600082601f830112620003bf57620003be6200025b565b5b8151620003d18482602086016200035c565b91505092915050565b600080600060608486031215620003f657620003f562000251565b5b600084015167ffffffffffffffff81111562000417576200041662000256565b5b6200042586828701620003a7565b935050602084015167ffffffffffffffff81111562000449576200044862000256565b5b6200045786828701620003a7565b925050604084015167ffffffffffffffff8111156200047b576200047a62000256565b5b6200048986828701620003a7565b9150509250925092565b600081519050919050565b7f4e487b7100000000000000000000000000000000000000000000000000000000600052602260045260246000fd5b60006002820490506001821680620004e657607f821691505b602082108103620004fc57620004fb6200049e565b5b50919050565b60008190508160005260206000209050919050565b60006020601f8301049050919050565b600082821b905092915050565b600060088302620005667fffffffffffffffffffffffffffffffffffffffffffffffffffffffffffffffff8262000527565b62000572868362000527565b95508019841693508086168417925050509392505050565b6000819050919050565b6000819050919050565b6000620005bf620005b9620005b3846200058a565b62000594565b6200058a565b9050919050565b6000819050919050565b620005db836200059e565b620005f3620005ea82620005c6565b84845462000534565b825550505050565b600090565b6200060a620005fb565b62000617818484620005d0565b505050565b5b818110156200063f576200063360008262000600565b6001810190506200061d565b5050565b601f8211156200068e57620006588162000502565b620006638462000517565b8101602085101562000673578190505b6200068b620006828562000517565b8301826200061c565b50505b505050565b600082821c905092915050565b6000620006b36000198460080262000693565b1980831691505092915050565b6000620006ce8383620006a0565b9150826002028217905092915050565b620006e98262000493565b67ffffffffffffffff81111562000705576200070462000276565b5b620007118254620004cd565b6200071e82828562000643565b600060209050601f83116001811462000756576000841562000741578287015190505b6200074d8582620006c0565b865550620007bd565b601f198416620007668662000502565b60005b82811015620007905784890151825560018201915060208501945060208101905062000769565b86831015620007b05784890151620007ac601f891682620006a0565b8355505b6001600288020188555050505b505050505050565b600082825260208201905092915050565b7f4f776e61626c653a2063616c6c6572206973206e6f7420746865206f776e6572600082015250565b60006200080e602083620007c5565b91506200081b82620007d6565b602082019050919050565b600060208201905081810360008301526200084181620007ff565b9050919050565b613d9580620008586000396000f3fe608060405234801561001057600080fd5b50600436106101735760003560e01c806355f804b3116100de57806395d89b4111610097578063b88d4fde11610071578063b88d4fde14610436578063c87b56dd14610452578063e985e9c514610482578063f2fde38b146104b257610173565b806395d89b41146103cc578063985bdeea146103ea578063a22cb4651461041a57610173565b806355f804b31461030a5780636352211e146103265780636c0360eb1461035657806370a0823114610374578063715018a6146103a45780638da5cb5b146103ae57610173565b806323b872dd1161013057806323b872dd1461023a5780632f745c591461025657806338752e581461028657806342842e0e146102a257806343508b05146102be5780634f6ccce7146102da57610173565b806301ffc9a71461017857806306fdde03146101a8578063081812fc146101c6578063095ea7b3146101f65780631249c58b1461021257806318160ddd1461021c575b600080fd5b610192600480360381019061018d919061232f565b6104ce565b60405161019f9190612377565b60405180910390f35b6101b0610548565b6040516101bd9190612422565b60405180910390f35b6101e060048036038101906101db919061247a565b6105da565b6040516101ed91906124e8565b60405180910390f35b610210600480360381019061020b919061252f565b610620565b005b61021a610737565b005b610224610764565b604051610231919061257e565b60405180910390f35b610254600480360381019061024f9190612599565b610771565b005b610270600480360381019061026b919061252f565b6107d1565b60405161027d919061257e565b60405180910390f35b6102a0600480360381019061029b9190612651565b610876565b005b6102bc60048036038101906102b79190612599565b6108c0565b005b6102d860048036038101906102d3919061252f565b6108e0565b005b6102f460048036038101906102ef919061247a565b61092e565b604051610301919061257e565b60405180910390f35b610324600480360381019061031f91906127e1565b61099f565b005b610340600480360381019061033b919061247a565b6109ba565b60405161034d91906124e8565b60405180910390f35b61035e610a6b565b60405161036b9190612422565b60405180910390f35b61038e6004803603810190610389919061282a565b610af9565b60405161039b919061257e565b60405180910390f35b6103ac610bb0565b005b6103b6610bc4565b6040516103c391906124e8565b60405180910390f35b6103d4610bee565b6040516103e19190612422565b60405180910390f35b61040460048036038101906103ff919061282a565b610c80565b6040516104119190612915565b60405180910390f35b610434600480360381019061042f9190612963565b610d2e565b005b610450600480360381019061044b9190612a44565b610d44565b005b61046c6004803603810190610467919061247a565b610da6565b6040516104799190612422565b60405180910390f35b61049c60048036038101906104979190612ac7565b610e55565b6040516104a99190612377565b60405180910390f35b6104cc60048036038101906104c7919061282a565b610ee9565b005b60007f780e9d63000000000000000000000000000000000000000000000000000000007bffffffffffffffffffffffffffffffffffffffffffffffffffffffff1916827bffffffffffffffffffffffffffffffffffffffffffffffffffffffff19161480610541575061054082610f6c565b5b9050919050565b60606000805461055790612b36565b80601f016020809104026020016040519081016040528092919081815260200182805461058390612b36565b80156105d05780601f106105a5576101008083540402835291602001916105d0565b820191906000526020600020905b8154815290600101906020018083116105b357829003601f168201915b5050505050905090565b60006105e58261104e565b6004600083815260200190815260200160002060009054906101000a900473ffffffffffffffffffffffffffffffffffffffff169050919050565b600061062b826109ba565b90508073ffffffffffffffffffffffffffffffffffffffff168373ffffffffffffffffffffffffffffffffffffffff160361069b576040517f08c379a000000000000000000000000000000000000000000000000000000000815260040161069290612bd9565b60405180910390fd5b8073ffffffffffffffffffffffffffffffffffffffff166106ba611099565b73ffffffffffffffffffffffffffffffffffffffff1614806106e957506106e8816106e3611099565b610e55565b5b610728576040517f08c379a000000000000000000000000000000000000000000000000000000000815260040161071f90612c6b565b60405180910390fd5b61073283836110a1565b505050565b61073f61115a565b610749600c6111d8565b6000610755600c6111ee565b905061076133826111fc565b50565b6000600880549050905090565b61078261077c611099565b826113d5565b6107c1576040517f08c379a00000000000000000000000000000000000000000000000000000000081526004016107b890612cfd565b60405180910390fd5b6107cc83838361146a565b505050565b60006107dc83610af9565b821061081d576040517f08c379a000000000000000000000000000000000000000000000000000000000815260040161081490612d8f565b60405180910390fd5b600660008473ffffffffffffffffffffffffffffffffffffffff1673ffffffffffffffffffffffffffffffffffffffff168152602001908152602001600020600083815260200190815260200160002054905092915050565b60005b838390508110156108ba576108a78285858481811061089b5761089a612daf565b5b90506020020135610620565b80806108b290612e0d565b915050610879565b50505050565b6108db83838360405180602001604052806000815250610d44565b505050565b6108e861115a565b60005b81811015610929576108fd600c6111d8565b6000610909600c6111ee565b905061091584826111fc565b50808061092190612e0d565b9150506108eb565b505050565b6000610938610764565b8210610979576040517f08c379a000000000000000000000000000000000000000000000000000000000815260040161097090612ec7565b60405180910390fd5b6008828154811061098d5761098c612daf565b5b90600052602060002001549050919050565b6109a761115a565b80600b90816109b69190613093565b5050565b6000806002600084815260200190815260200160002060009054906101000a900473ffffffffffffffffffffffffffffffffffffffff169050600073ffffffffffffffffffffffffffffffffffffffff168173ffffffffffffffffffffffffffffffffffffffff1603610a62576040517f08c379a0000000000000000000000000000000000000000000000000000000008152600401610a59906131b1565b60405180910390fd5b80915050919050565b600b8054610a7890612b36565b80601f0160208091040260200160405190810160405280929190818152602001828054610aa490612b36565b8015610af15780601f10610ac657610100808354040283529160200191610af1565b820191906000526020600020905b815481529060010190602001808311610ad457829003601f168201915b505050505081565b60008073ffffffffffffffffffffffffffffffffffffffff168273ffffffffffffffffffffffffffffffffffffffff1603610b69576040517f08c379a0000000000000000000000000000000000000000000000000000000008152600401610b6090613243565b60405180910390fd5b600360008373ffffffffffffffffffffffffffffffffffffffff1673ffffffffffffffffffffffffffffffffffffffff168152602001908152602001600020549050919050565b610bb861115a565b610bc260006116d0565b565b6000600a60009054906101000a900473ffffffffffffffffffffffffffffffffffffffff16905090565b606060018054610bfd90612b36565b80601f0160208091040260200160405190810160405280929190818152602001828054610c2990612b36565b8015610c765780601f10610c4b57610100808354040283529160200191610c76565b820191906000526020600020905b815481529060010190602001808311610c5957829003601f168201915b5050505050905090565b60606000610c8d83610af9565b905060008167ffffffffffffffff811115610cab57610caa6126b6565b5b604051908082528060200260200182016040528015610cd95781602001602082028036833780820191505090505b50905060005b82811015610d2357610cf185826107d1565b828281518110610d0457610d03612daf565b5b6020026020010181815250508080610d1b90612e0d565b915050610cdf565b508092505050919050565b610d40610d39611099565b8383611796565b5050565b610d55610d4f611099565b836113d5565b610d94576040517f08c379a0000000000000000000000000000000000000000000000000000000008152600401610d8b90612cfd565b60405180910390fd5b610da084848484611902565b50505050565b6060610db18261195e565b610df0576040517f08c379a0000000000000000000000000000000000000000000000000000000008152600401610de7906132af565b60405180910390fd5b6000610dfb836119ca565b600b604051602001610e0e9291906135ee565b60405160208183030381529060405290506000610e2a82611b2a565b604051602001610e3a91906136a0565b60405160208183030381529060405290508092505050919050565b6000600560008473ffffffffffffffffffffffffffffffffffffffff1673ffffffffffffffffffffffffffffffffffffffff16815260200190815260200160002060008373ffffffffffffffffffffffffffffffffffffffff1673ffffffffffffffffffffffffffffffffffffffff16815260200190815260200160002060009054906101000a900460ff16905092915050565b610ef161115a565b600073ffffffffffffffffffffffffffffffffffffffff168173ffffffffffffffffffffffffffffffffffffffff1603610f60576040517f08c379a0000000000000000000000000000000000000000000000000000000008152600401610f5790613734565b60405180910390fd5b610f69816116d0565b50565b60007f80ac58cd000000000000000000000000000000000000000000000000000000007bffffffffffffffffffffffffffffffffffffffffffffffffffffffff1916827bffffffffffffffffffffffffffffffffffffffffffffffffffffffff1916148061103757507f5b5e139f000000000000000000000000000000000000000000000000000000007bffffffffffffffffffffffffffffffffffffffffffffffffffffffff1916827bffffffffffffffffffffffffffffffffffffffffffffffffffffffff1916145b80611047575061104682611c8d565b5b9050919050565b6110578161195e565b611096576040517f08c379a000000000000000000000000000000000000000000000000000000000815260040161108d906131b1565b60405180910390fd5b50565b600033905090565b816004600083815260200190815260200160002060006101000a81548173ffffffffffffffffffffffffffffffffffffffff021916908373ffffffffffffffffffffffffffffffffffffffff160217905550808273ffffffffffffffffffffffffffffffffffffffff16611114836109ba565b73ffffffffffffffffffffffffffffffffffffffff167f8c5be1e5ebec7d5bd14f71427d1e84f3dd0314c0f7b2291e5b200ac8c7c3b92560405160405180910390a45050565b611162611099565b73ffffffffffffffffffffffffffffffffffffffff16611180610bc4565b73ffffffffffffffffffffffffffffffffffffffff16146111d6576040517f08c379a00000000000000000000000000000000000000000000000000000000081526004016111cd906137a0565b60405180910390fd5b565b6001816000016000828254019250508190555050565b600081600001549050919050565b600073ffffffffffffffffffffffffffffffffffffffff168273ffffffffffffffffffffffffffffffffffffffff160361126b576040517f08c379a00000000000000000000000000000000000000000000000000000000081526004016112629061380c565b60405180910390fd5b6112748161195e565b156112b4576040517f08c379a00000000000000000000000000000000000000000000000000000000081526004016112ab90613878565b60405180910390fd5b6112c060008383611cf7565b6001600360008473ffffffffffffffffffffffffffffffffffffffff1673ffffffffffffffffffffffffffffffffffffffff16815260200190815260200160002060008282546113109190613898565b92505081905550816002600083815260200190815260200160002060006101000a81548173ffffffffffffffffffffffffffffffffffffffff021916908373ffffffffffffffffffffffffffffffffffffffff160217905550808273ffffffffffffffffffffffffffffffffffffffff16600073ffffffffffffffffffffffffffffffffffffffff167fddf252ad1be2c89b69c2b068fc378daa952ba7f163c4a11628f55a4df523b3ef60405160405180910390a46113d160008383611e09565b5050565b6000806113e1836109ba565b90508073ffffffffffffffffffffffffffffffffffffffff168473ffffffffffffffffffffffffffffffffffffffff16148061142357506114228185610e55565b5b8061146157508373ffffffffffffffffffffffffffffffffffffffff16611449846105da565b73ffffffffffffffffffffffffffffffffffffffff16145b91505092915050565b8273ffffffffffffffffffffffffffffffffffffffff1661148a826109ba565b73ffffffffffffffffffffffffffffffffffffffff16146114e0576040517f08c379a00000000000000000000000000000000000000000000000000000000081526004016114d79061393e565b60405180910390fd5b600073ffffffffffffffffffffffffffffffffffffffff168273ffffffffffffffffffffffffffffffffffffffff160361154f576040517f08c379a0000000000000000000000000000000000000000000000000000000008152600401611546906139d0565b60405180910390fd5b61155a838383611cf7565b6115656000826110a1565b6001600360008573ffffffffffffffffffffffffffffffffffffffff1673ffffffffffffffffffffffffffffffffffffffff16815260200190815260200160002060008282546115b591906139f0565b925050819055506001600360008473ffffffffffffffffffffffffffffffffffffffff1673ffffffffffffffffffffffffffffffffffffffff168152602001908152602001600020600082825461160c9190613898565b92505081905550816002600083815260200190815260200160002060006101000a81548173ffffffffffffffffffffffffffffffffffffffff021916908373ffffffffffffffffffffffffffffffffffffffff160217905550808273ffffffffffffffffffffffffffffffffffffffff168473ffffffffffffffffffffffffffffffffffffffff167fddf252ad1be2c89b69c2b068fc378daa952ba7f163c4a11628f55a4df523b3ef60405160405180910390a46116cb838383611e09565b505050565b6000600a60009054906101000a900473ffffffffffffffffffffffffffffffffffffffff16905081600a60006101000a81548173ffffffffffffffffffffffffffffffffffffffff021916908373ffffffffffffffffffffffffffffffffffffffff1602179055508173ffffffffffffffffffffffffffffffffffffffff168173ffffffffffffffffffffffffffffffffffffffff167f8be0079c531659141344cd1fd0a4f28419497f9722a3daafe3b4186f6b6457e060405160405180910390a35050565b8173ffffffffffffffffffffffffffffffffffffffff168373ffffffffffffffffffffffffffffffffffffffff1603611804576040517f08c379a00000000000000000000000000000000000000000000000000000000081526004016117fb90613a70565b60405180910390fd5b80600560008573ffffffffffffffffffffffffffffffffffffffff1673ffffffffffffffffffffffffffffffffffffffff16815260200190815260200160002060008473ffffffffffffffffffffffffffffffffffffffff1673ffffffffffffffffffffffffffffffffffffffff16815260200190815260200160002060006101000a81548160ff0219169083151502179055508173ffffffffffffffffffffffffffffffffffffffff168373ffffffffffffffffffffffffffffffffffffffff167f17307eab39ab6107e8899845ad3d59bd9653f200f220920489ca2b5937696c31836040516118f59190612377565b60405180910390a3505050565b61190d84848461146a565b61191984848484611e0e565b611958576040517f08c379a000000000000000000000000000000000000000000000000000000000815260040161194f90613b02565b60405180910390fd5b50505050565b60008073ffffffffffffffffffffffffffffffffffffffff166002600084815260200190815260200160002060009054906101000a900473ffffffffffffffffffffffffffffffffffffffff1673ffffffffffffffffffffffffffffffffffffffff1614159050919050565b606060008203611a11576040518060400160405280600181526020017f30000000000000000000000000000000000000000000000000000000000000008152509050611b25565b600082905060005b60008214611a43578080611a2c90612e0d565b915050600a82611a3c9190613b51565b9150611a19565b60008167ffffffffffffffff811115611a5f57611a5e6126b6565b5b6040519080825280601f01601f191660200182016040528015611a915781602001600182028036833780820191505090505b5090505b60008514611b1e57600182611aaa91906139f0565b9150600a85611ab99190613b82565b6030611ac59190613898565b60f81b818381518110611adb57611ada612daf565b5b60200101907effffffffffffffffffffffffffffffffffffffffffffffffffffffffffffff1916908160001a905350600a85611b179190613b51565b9450611a95565b8093505050505b919050565b60606000825103611b4c57604051806020016040528060008152509050611c88565b6000604051806060016040528060408152602001613d206040913990506000600360028551611b7b9190613898565b611b859190613b51565b6004611b919190613bb3565b67ffffffffffffffff811115611baa57611ba96126b6565b5b6040519080825280601f01601f191660200182016040528015611bdc5781602001600182028036833780820191505090505b509050600182016020820185865187015b80821015611c48576003820191508151603f8160121c168501518453600184019350603f81600c1c168501518453600184019350603f8160061c168501518453600184019350603f8116850151845360018401935050611bed565b5050600386510660018114611c645760028114611c7757611c7f565b603d6001830353603d6002830353611c7f565b603d60018303535b50505080925050505b919050565b60007f01ffc9a7000000000000000000000000000000000000000000000000000000007bffffffffffffffffffffffffffffffffffffffffffffffffffffffff1916827bffffffffffffffffffffffffffffffffffffffffffffffffffffffff1916149050919050565b611d02838383611f95565b600073ffffffffffffffffffffffffffffffffffffffff168373ffffffffffffffffffffffffffffffffffffffff1603611d4457611d3f81611f9a565b611d83565b8173ffffffffffffffffffffffffffffffffffffffff168373ffffffffffffffffffffffffffffffffffffffff1614611d8257611d818382611fe3565b5b5b600073ffffffffffffffffffffffffffffffffffffffff168273ffffffffffffffffffffffffffffffffffffffff1603611dc557611dc081612150565b611e04565b8273ffffffffffffffffffffffffffffffffffffffff168273ffffffffffffffffffffffffffffffffffffffff1614611e0357611e028282612221565b5b5b505050565b505050565b6000611e2f8473ffffffffffffffffffffffffffffffffffffffff166122a0565b15611f88578373ffffffffffffffffffffffffffffffffffffffff1663150b7a02611e58611099565b8786866040518563ffffffff1660e01b8152600401611e7a9493929190613c62565b6020604051808303816000875af1925050508015611eb657506040513d601f19601f82011682018060405250810190611eb39190613cc3565b60015b611f38573d8060008114611ee6576040519150601f19603f3d011682016040523d82523d6000602084013e611eeb565b606091505b506000815103611f30576040517f08c379a0000000000000000000000000000000000000000000000000000000008152600401611f2790613b02565b60405180910390fd5b805181602001fd5b63150b7a0260e01b7bffffffffffffffffffffffffffffffffffffffffffffffffffffffff1916817bffffffffffffffffffffffffffffffffffffffffffffffffffffffff191614915050611f8d565b600190505b949350505050565b505050565b6008805490506009600083815260200190815260200160002081905550600881908060018154018082558091505060019003906000526020600020016000909190919091505550565b60006001611ff084610af9565b611ffa91906139f0565b90506000600760008481526020019081526020016000205490508181146120df576000600660008673ffffffffffffffffffffffffffffffffffffffff1673ffffffffffffffffffffffffffffffffffffffff168152602001908152602001600020600084815260200190815260200160002054905080600660008773ffffffffffffffffffffffffffffffffffffffff1673ffffffffffffffffffffffffffffffffffffffff168152602001908152602001600020600084815260200190815260200160002081905550816007600083815260200190815260200160002081905550505b6007600084815260200190815260200160002060009055600660008573ffffffffffffffffffffffffffffffffffffffff1673ffffffffffffffffffffffffffffffffffffffff16815260200190815260200160002060008381526020019081526020016000206000905550505050565b6000600160088054905061216491906139f0565b905060006009600084815260200190815260200160002054905060006008838154811061219457612193612daf565b5b9060005260206000200154905080600883815481106121b6576121b5612daf565b5b90600052602060002001819055508160096000838152602001908152602001600020819055506009600085815260200190815260200160002060009055600880548061220557612204613cf0565b5b6001900381819060005260206000200160009055905550505050565b600061222c83610af9565b905081600660008573ffffffffffffffffffffffffffffffffffffffff1673ffffffffffffffffffffffffffffffffffffffff168152602001908152602001600020600083815260200190815260200160002081905550806007600084815260200190815260200160002081905550505050565b6000808273ffffffffffffffffffffffffffffffffffffffff163b119050919050565b6000604051905090565b600080fd5b600080fd5b60007fffffffff0000000000000000000000000000000000000000000000000000000082169050919050565b61230c816122d7565b811461231757600080fd5b50565b60008135905061232981612303565b92915050565b600060208284031215612345576123446122cd565b5b60006123538482850161231a565b91505092915050565b60008115159050919050565b6123718161235c565b82525050565b600060208201905061238c6000830184612368565b92915050565b600081519050919050565b600082825260208201905092915050565b60005b838110156123cc5780820151818401526020810190506123b1565b60008484015250505050565b6000601f19601f8301169050919050565b60006123f482612392565b6123fe818561239d565b935061240e8185602086016123ae565b612417816123d8565b840191505092915050565b6000602082019050818103600083015261243c81846123e9565b905092915050565b6000819050919050565b61245781612444565b811461246257600080fd5b50565b6000813590506124748161244e565b92915050565b6000602082840312156124905761248f6122cd565b5b600061249e84828501612465565b91505092915050565b600073ffffffffffffffffffffffffffffffffffffffff82169050919050565b60006124d2826124a7565b9050919050565b6124e2816124c7565b82525050565b60006020820190506124fd60008301846124d9565b92915050565b61250c816124c7565b811461251757600080fd5b50565b60008135905061252981612503565b92915050565b60008060408385031215612546576125456122cd565b5b60006125548582860161251a565b925050602061256585828601612465565b9150509250929050565b61257881612444565b82525050565b6000602082019050612593600083018461256f565b92915050565b6000806000606084860312156125b2576125b16122cd565b5b60006125c08682870161251a565b93505060206125d18682870161251a565b92505060406125e286828701612465565b9150509250925092565b600080fd5b600080fd5b600080fd5b60008083601f840112612611576126106125ec565b5b8235905067ffffffffffffffff81111561262e5761262d6125f1565b5b60208301915083602082028301111561264a576126496125f6565b5b9250929050565b60008060006040848603121561266a576126696122cd565b5b600084013567ffffffffffffffff811115612688576126876122d2565b5b612694868287016125fb565b935093505060206126a78682870161251a565b9150509250925092565b600080fd5b7f4e487b7100000000000000000000000000000000000000000000000000000000600052604160045260246000fd5b6126ee826123d8565b810181811067ffffffffffffffff8211171561270d5761270c6126b6565b5b80604052505050565b60006127206122c3565b905061272c82826126e5565b919050565b600067ffffffffffffffff82111561274c5761274b6126b6565b5b612755826123d8565b9050602081019050919050565b82818337600083830152505050565b600061278461277f84612731565b612716565b9050828152602081018484840111156127a05761279f6126b1565b5b6127ab848285612762565b509392505050565b600082601f8301126127c8576127c76125ec565b5b81356127d8848260208601612771565b91505092915050565b6000602082840312156127f7576127f66122cd565b5b600082013567ffffffffffffffff811115612815576128146122d2565b5b612821848285016127b3565b91505092915050565b6000602082840312156128405761283f6122cd565b5b600061284e8482850161251a565b91505092915050565b600081519050919050565b600082825260208201905092915050565b6000819050602082019050919050565b61288c81612444565b82525050565b600061289e8383612883565b60208301905092915050565b6000602082019050919050565b60006128c282612857565b6128cc8185612862565b93506128d783612873565b8060005b838110156129085781516128ef8882612892565b97506128fa836128aa565b9250506001810190506128db565b5085935050505092915050565b6000602082019050818103600083015261292f81846128b7565b905092915050565b6129408161235c565b811461294b57600080fd5b50565b60008135905061295d81612937565b92915050565b6000806040838503121561297a576129796122cd565b5b60006129888582860161251a565b92505060206129998582860161294e565b9150509250929050565b600067ffffffffffffffff8211156129be576129bd6126b6565b5b6129c7826123d8565b9050602081019050919050565b60006129e76129e2846129a3565b612716565b905082815260208101848484011115612a0357612a026126b1565b5b612a0e848285612762565b509392505050565b600082601f830112612a2b57612a2a6125ec565b5b8135612a3b8482602086016129d4565b91505092915050565b60008060008060808587031215612a5e57612a5d6122cd565b5b6000612a6c8782880161251a565b9450506020612a7d8782880161251a565b9350506040612a8e87828801612465565b925050606085013567ffffffffffffffff811115612aaf57612aae6122d2565b5b612abb87828801612a16565b91505092959194509250565b60008060408385031215612ade57612add6122cd565b5b6000612aec8582860161251a565b9250506020612afd8582860161251a565b9150509250929050565b7f4e487b7100000000000000000000000000000000000000000000000000000000600052602260045260246000fd5b60006002820490506001821680612b4e57607f821691505b602082108103612b6157612b60612b07565b5b50919050565b7f4552433732313a20617070726f76616c20746f2063757272656e74206f776e6560008201527f7200000000000000000000000000000000000000000000000000000000000000602082015250565b6000612bc360218361239d565b9150612bce82612b67565b604082019050919050565b60006020820190508181036000830152612bf281612bb6565b9050919050565b7f4552433732313a20617070726f76652063616c6c6572206973206e6f7420746f60008201527f6b656e206f776e6572206e6f7220617070726f76656420666f7220616c6c0000602082015250565b6000612c55603e8361239d565b9150612c6082612bf9565b604082019050919050565b60006020820190508181036000830152612c8481612c48565b9050919050565b7f4552433732313a2063616c6c6572206973206e6f7420746f6b656e206f776e6560008201527f72206e6f7220617070726f766564000000000000000000000000000000000000602082015250565b6000612ce7602e8361239d565b9150612cf282612c8b565b604082019050919050565b60006020820190508181036000830152612d1681612cda565b9050919050565b7f455243373231456e756d657261626c653a206f776e657220696e646578206f7560008201527f74206f6620626f756e6473000000000000000000000000000000000000000000602082015250565b6000612d79602b8361239d565b9150612d8482612d1d565b604082019050919050565b60006020820190508181036000830152612da881612d6c565b9050919050565b7f4e487b7100000000000000000000000000000000000000000000000000000000600052603260045260246000fd5b7f4e487b7100000000000000000000000000000000000000000000000000000000600052601160045260246000fd5b6000612e1882612444565b91507fffffffffffffffffffffffffffffffffffffffffffffffffffffffffffffffff8203612e4a57612e49612dde565b5b600182019050919050565b7f455243373231456e756d657261626c653a20676c6f62616c20696e646578206f60008201527f7574206f6620626f756e64730000000000000000000000000000000000000000602082015250565b6000612eb1602c8361239d565b9150612ebc82612e55565b604082019050919050565b60006020820190508181036000830152612ee081612ea4565b9050919050565b60008190508160005260206000209050919050565b60006020601f8301049050919050565b600082821b905092915050565b600060088302612f497fffffffffffffffffffffffffffffffffffffffffffffffffffffffffffffffff82612f0c565b612f538683612f0c565b95508019841693508086168417925050509392505050565b6000819050919050565b6000612f90612f8b612f8684612444565b612f6b565b612444565b9050919050565b6000819050919050565b612faa83612f75565b612fbe612fb682612f97565b848454612f19565b825550505050565b600090565b612fd3612fc6565b612fde818484612fa1565b505050565b5b8181101561300257612ff7600082612fcb565b600181019050612fe4565b5050565b601f8211156130475761301881612ee7565b61302184612efc565b81016020851015613030578190505b61304461303c85612efc565b830182612fe3565b50505b505050565b600082821c905092915050565b600061306a6000198460080261304c565b1980831691505092915050565b60006130838383613059565b9150826002028217905092915050565b61309c82612392565b67ffffffffffffffff8111156130b5576130b46126b6565b5b6130bf8254612b36565b6130ca828285613006565b600060209050601f8311600181146130fd57600084156130eb578287015190505b6130f58582613077565b86555061315d565b601f19841661310b86612ee7565b60005b828110156131335784890151825560018201915060208501945060208101905061310e565b86831015613150578489015161314c601f891682613059565b8355505b6001600288020188555050505b505050505050565b7f4552433732313a20696e76616c696420746f6b656e2049440000000000000000600082015250565b600061319b60188361239d565b91506131a682613165565b602082019050919050565b600060208201905081810360008301526131ca8161318e565b9050919050565b7f4552433732313a2061646472657373207a65726f206973206e6f74206120766160008201527f6c6964206f776e65720000000000000000000000000000000000000000000000602082015250565b600061322d60298361239d565b9150613238826131d1565b604082019050919050565b6000602082019050818103600083015261325c81613220565b9050919050565b7f6e6f6e6578697374656e7420746f6b656e000000000000000000000000000000600082015250565b600061329960118361239d565b91506132a482613263565b602082019050919050565b600060208201905081810360008301526132c88161328c565b9050919050565b600081905092915050565b7f7b00000000000000000000000000000000000000000000000000000000000000600082015250565b60006133106001836132cf565b915061331b826132da565b600182019050919050565b7f226e616d65223a202241737461722043616e6479202300000000000000000000600082015250565b600061335c6016836132cf565b915061336782613326565b601682019050919050565b600061337d82612392565b61338781856132cf565b93506133978185602086016123ae565b80840191505092915050565b7f222c000000000000000000000000000000000000000000000000000000000000600082015250565b60006133d96002836132cf565b91506133e4826133a3565b600282019050919050565b7f226465736372697074696f6e223a202254686973204e46542069732061206c6960008201527f6d697465642065646974696f6e204e465420697373756564207468726f75676860208201527f206120636f6c6c61626f726174696f6e206265747765656e204173746172204e60408201527f6574776f726b2c2043727970746f4261722050325020616e6420596f6d69537760608201527f61702e222c000000000000000000000000000000000000000000000000000000608082015250565b60006134bd6085836132cf565b91506134c8826133ef565b608582019050919050565b7f22696d616765223a000000000000000000000000000000000000000000000000600082015250565b60006135096008836132cf565b9150613514826134d3565b600882019050919050565b6000815461352c81612b36565b61353681866132cf565b94506001821660008114613551576001811461356657613599565b60ff1983168652811515820286019350613599565b61356f85612ee7565b60005b8381101561359157815481890152600182019150602081019050613572565b838801955050505b50505092915050565b7f7d00000000000000000000000000000000000000000000000000000000000000600082015250565b60006135d86001836132cf565b91506135e3826135a2565b600182019050919050565b60006135f982613303565b91506136048261334f565b91506136108285613372565b915061361b826133cc565b9150613626826134b0565b9150613631826134fc565b915061363d828461351f565b9150613648826135cb565b91508190509392505050565b7f646174613a6170706c69636174696f6e2f6a736f6e3b6261736536342c000000600082015250565b600061368a601d836132cf565b915061369582613654565b601d82019050919050565b60006136ab8261367d565b91506136b78284613372565b915081905092915050565b7f4f776e61626c653a206e6577206f776e657220697320746865207a65726f206160008201527f6464726573730000000000000000000000000000000000000000000000000000602082015250565b600061371e60268361239d565b9150613729826136c2565b604082019050919050565b6000602082019050818103600083015261374d81613711565b9050919050565b7f4f776e61626c653a2063616c6c6572206973206e6f7420746865206f776e6572600082015250565b600061378a60208361239d565b915061379582613754565b602082019050919050565b600060208201905081810360008301526137b98161377d565b9050919050565b7f4552433732313a206d696e7420746f20746865207a65726f2061646472657373600082015250565b60006137f660208361239d565b9150613801826137c0565b602082019050919050565b60006020820190508181036000830152613825816137e9565b9050919050565b7f4552433732313a20746f6b656e20616c7265616479206d696e74656400000000600082015250565b6000613862601c8361239d565b915061386d8261382c565b602082019050919050565b6000602082019050818103600083015261389181613855565b9050919050565b60006138a382612444565b91506138ae83612444565b92508282019050808211156138c6576138c5612dde565b5b92915050565b7f4552433732313a207472616e736665722066726f6d20696e636f72726563742060008201527f6f776e6572000000000000000000000000000000000000000000000000000000602082015250565b600061392860258361239d565b9150613933826138cc565b604082019050919050565b600060208201905081810360008301526139578161391b565b9050919050565b7f4552433732313a207472616e7366657220746f20746865207a65726f2061646460008201527f7265737300000000000000000000000000000000000000000000000000000000602082015250565b60006139ba60248361239d565b91506139c58261395e565b604082019050919050565b600060208201905081810360008301526139e9816139ad565b9050919050565b60006139fb82612444565b9150613a0683612444565b9250828203905081811115613a1e57613a1d612dde565b5b92915050565b7f4552433732313a20617070726f766520746f2063616c6c657200000000000000600082015250565b6000613a5a60198361239d565b9150613a6582613a24565b602082019050919050565b60006020820190508181036000830152613a8981613a4d565b9050919050565b7f4552433732313a207472616e7366657220746f206e6f6e20455243373231526560008201527f63656976657220696d706c656d656e7465720000000000000000000000000000602082015250565b6000613aec60328361239d565b9150613af782613a90565b604082019050919050565b60006020820190508181036000830152613b1b81613adf565b9050919050565b7f4e487b7100000000000000000000000000000000000000000000000000000000600052601260045260246000fd5b6000613b5c82612444565b9150613b6783612444565b925082613b7757613b76613b22565b5b828204905092915050565b6000613b8d82612444565b9150613b9883612444565b925082613ba857613ba7613b22565b5b828206905092915050565b6000613bbe82612444565b9150613bc983612444565b9250817fffffffffffffffffffffffffffffffffffffffffffffffffffffffffffffffff0483118215151615613c0257613c01612dde565b5b828202905092915050565b600081519050919050565b600082825260208201905092915050565b6000613c3482613c0d565b613c3e8185613c18565b9350613c4e8185602086016123ae565b613c57816123d8565b840191505092915050565b6000608082019050613c7760008301876124d9565b613c8460208301866124d9565b613c91604083018561256f565b8181036060830152613ca38184613c29565b905095945050505050565b600081519050613cbd81612303565b92915050565b600060208284031215613cd957613cd86122cd565b5b6000613ce784828501613cae565b91505092915050565b7f4e487b7100000000000000000000000000000000000000000000000000000000600052603160045260246000fdfe4142434445464748494a4b4c4d4e4f505152535455565758595a6162636465666768696a6b6c6d6e6f707172737475767778797a303132333435363738392b2fa2646970667358221220fc5edf8a18dd18089021e1a90ca94aaf47ae5ec56f49b7c2df11a06851bab51464736f6c63430008100033",
  "linkReferences": {},
  "deployedLinkReferences": {}
}